{
	"learning/array_mapping.sol": {
		"MappingExample": {
			"abi": [
				{
					"inputs": [
						{
							"internalType": "address",
							"name": "user",
							"type": "address"
						}
					],
					"name": "addUser",
					"outputs": [],
					"stateMutability": "nonpayable",
					"type": "function"
				},
				{
					"inputs": [
						{
							"internalType": "address",
							"name": "",
							"type": "address"
						}
					],
					"name": "users",
					"outputs": [
						{
							"internalType": "bool",
							"name": "",
							"type": "bool"
						}
					],
					"stateMutability": "view",
					"type": "function"
				}
			],
			"devdoc": {
				"kind": "dev",
				"methods": {},
				"version": 1
			},
			"evm": {
				"assembly": "    /* \"learning/array_mapping.sol\":60:215  contract MappingExample {\r... */\n  mstore(0x40, 0x80)\n  callvalue\n  dup1\n  iszero\n  tag_1\n  jumpi\n  0x00\n  dup1\n  revert\ntag_1:\n  pop\n  dataSize(sub_0)\n  dup1\n  dataOffset(sub_0)\n  0x00\n  codecopy\n  0x00\n  return\nstop\n\nsub_0: assembly {\n        /* \"learning/array_mapping.sol\":60:215  contract MappingExample {\r... */\n      mstore(0x40, 0x80)\n      callvalue\n      dup1\n      iszero\n      tag_1\n      jumpi\n      0x00\n      dup1\n      revert\n    tag_1:\n      pop\n      jumpi(tag_2, lt(calldatasize, 0x04))\n      shr(0xe0, calldataload(0x00))\n      dup1\n      0x421b2d8b\n      eq\n      tag_3\n      jumpi\n      dup1\n      0xa87430ba\n      eq\n      tag_4\n      jumpi\n    tag_2:\n      0x00\n      dup1\n      revert\n        /* \"learning/array_mapping.sol\":137:212  function addUser(address user) public {\r... */\n    tag_3:\n      tag_5\n      0x04\n      dup1\n      calldatasize\n      sub\n      dup2\n      add\n      swap1\n      tag_6\n      swap2\n      swap1\n      tag_7\n      jump\t// in\n    tag_6:\n      tag_8\n      jump\t// in\n    tag_5:\n      stop\n        /* \"learning/array_mapping.sol\":91:128  mapping(address => bool) public users */\n    tag_4:\n      tag_9\n      0x04\n      dup1\n      calldatasize\n      sub\n      dup2\n      add\n      swap1\n      tag_10\n      swap2\n      swap1\n      tag_7\n      jump\t// in\n    tag_10:\n      tag_11\n      jump\t// in\n    tag_9:\n      mload(0x40)\n      tag_12\n      swap2\n      swap1\n      tag_13\n      jump\t// in\n    tag_12:\n      mload(0x40)\n      dup1\n      swap2\n      sub\n      swap1\n      return\n        /* \"learning/array_mapping.sol\":137:212  function addUser(address user) public {\r... */\n    tag_8:\n        /* \"learning/array_mapping.sol\":200:204  true */\n      0x01\n        /* \"learning/array_mapping.sol\":186:191  users */\n      0x00\n        /* \"learning/array_mapping.sol\":186:197  users[user] */\n      dup1\n        /* \"learning/array_mapping.sol\":192:196  user */\n      dup4\n        /* \"learning/array_mapping.sol\":186:197  users[user] */\n      0xffffffffffffffffffffffffffffffffffffffff\n      and\n      0xffffffffffffffffffffffffffffffffffffffff\n      and\n      dup2\n      mstore\n      0x20\n      add\n      swap1\n      dup2\n      mstore\n      0x20\n      add\n      0x00\n      keccak256\n      0x00\n        /* \"learning/array_mapping.sol\":186:204  users[user] = true */\n      0x0100\n      exp\n      dup2\n      sload\n      dup2\n      0xff\n      mul\n      not\n      and\n      swap1\n      dup4\n      iszero\n      iszero\n      mul\n      or\n      swap1\n      sstore\n      pop\n        /* \"learning/array_mapping.sol\":137:212  function addUser(address user) public {\r... */\n      pop\n      jump\t// out\n        /* \"learning/array_mapping.sol\":91:128  mapping(address => bool) public users */\n    tag_11:\n      mstore(0x20, 0x00)\n      dup1\n      0x00\n      mstore\n      keccak256(0x00, 0x40)\n      0x00\n      swap2\n      pop\n      sload\n      swap1\n      0x0100\n      exp\n      swap1\n      div\n      0xff\n      and\n      dup2\n      jump\t// out\n        /* \"#utility.yul\":7:146   */\n    tag_16:\n      0x00\n        /* \"#utility.yul\":91:97   */\n      dup2\n        /* \"#utility.yul\":78:98   */\n      calldataload\n        /* \"#utility.yul\":69:98   */\n      swap1\n      pop\n        /* \"#utility.yul\":107:140   */\n      tag_18\n        /* \"#utility.yul\":134:139   */\n      dup2\n        /* \"#utility.yul\":107:140   */\n      tag_19\n      jump\t// in\n    tag_18:\n        /* \"#utility.yul\":59:146   */\n      swap3\n      swap2\n      pop\n      pop\n      jump\t// out\n        /* \"#utility.yul\":152:414   */\n    tag_7:\n      0x00\n        /* \"#utility.yul\":260:262   */\n      0x20\n        /* \"#utility.yul\":248:257   */\n      dup3\n        /* \"#utility.yul\":239:246   */\n      dup5\n        /* \"#utility.yul\":235:258   */\n      sub\n        /* \"#utility.yul\":231:263   */\n      slt\n        /* \"#utility.yul\":228:230   */\n      iszero\n      tag_21\n      jumpi\n        /* \"#utility.yul\":276:277   */\n      0x00\n        /* \"#utility.yul\":273:274   */\n      dup1\n        /* \"#utility.yul\":266:278   */\n      revert\n        /* \"#utility.yul\":228:230   */\n    tag_21:\n        /* \"#utility.yul\":319:320   */\n      0x00\n        /* \"#utility.yul\":344:397   */\n      tag_22\n        /* \"#utility.yul\":389:396   */\n      dup5\n        /* \"#utility.yul\":380:386   */\n      dup3\n        /* \"#utility.yul\":369:378   */\n      dup6\n        /* \"#utility.yul\":365:387   */\n      add\n        /* \"#utility.yul\":344:397   */\n      tag_16\n      jump\t// in\n    tag_22:\n        /* \"#utility.yul\":334:397   */\n      swap2\n      pop\n        /* \"#utility.yul\":290:407   */\n      pop\n        /* \"#utility.yul\":218:414   */\n      swap3\n      swap2\n      pop\n      pop\n      jump\t// out\n        /* \"#utility.yul\":420:529   */\n    tag_23:\n        /* \"#utility.yul\":501:522   */\n      tag_25\n        /* \"#utility.yul\":516:521   */\n      dup2\n        /* \"#utility.yul\":501:522   */\n      tag_26\n      jump\t// in\n    tag_25:\n        /* \"#utility.yul\":496:499   */\n      dup3\n        /* \"#utility.yul\":489:523   */\n      mstore\n        /* \"#utility.yul\":479:529   */\n      pop\n      pop\n      jump\t// out\n        /* \"#utility.yul\":535:745   */\n    tag_13:\n      0x00\n        /* \"#utility.yul\":660:662   */\n      0x20\n        /* \"#utility.yul\":649:658   */\n      dup3\n        /* \"#utility.yul\":645:663   */\n      add\n        /* \"#utility.yul\":637:663   */\n      swap1\n      pop\n        /* \"#utility.yul\":673:738   */\n      tag_28\n        /* \"#utility.yul\":735:736   */\n      0x00\n        /* \"#utility.yul\":724:733   */\n      dup4\n        /* \"#utility.yul\":720:737   */\n      add\n        /* \"#utility.yul\":711:717   */\n      dup5\n        /* \"#utility.yul\":673:738   */\n      tag_23\n      jump\t// in\n    tag_28:\n        /* \"#utility.yul\":627:745   */\n      swap3\n      swap2\n      pop\n      pop\n      jump\t// out\n        /* \"#utility.yul\":751:847   */\n    tag_29:\n      0x00\n        /* \"#utility.yul\":817:841   */\n      tag_31\n        /* \"#utility.yul\":835:840   */\n      dup3\n        /* \"#utility.yul\":817:841   */\n      tag_32\n      jump\t// in\n    tag_31:\n        /* \"#utility.yul\":806:841   */\n      swap1\n      pop\n        /* \"#utility.yul\":796:847   */\n      swap2\n      swap1\n      pop\n      jump\t// out\n        /* \"#utility.yul\":853:943   */\n    tag_26:\n      0x00\n        /* \"#utility.yul\":930:935   */\n      dup2\n        /* \"#utility.yul\":923:936   */\n      iszero\n        /* \"#utility.yul\":916:937   */\n      iszero\n        /* \"#utility.yul\":905:937   */\n      swap1\n      pop\n        /* \"#utility.yul\":895:943   */\n      swap2\n      swap1\n      pop\n      jump\t// out\n        /* \"#utility.yul\":949:1075   */\n    tag_32:\n      0x00\n        /* \"#utility.yul\":1026:1068   */\n      0xffffffffffffffffffffffffffffffffffffffff\n        /* \"#utility.yul\":1019:1024   */\n      dup3\n        /* \"#utility.yul\":1015:1069   */\n      and\n        /* \"#utility.yul\":1004:1069   */\n      swap1\n      pop\n        /* \"#utility.yul\":994:1075   */\n      swap2\n      swap1\n      pop\n      jump\t// out\n        /* \"#utility.yul\":1081:1203   */\n    tag_19:\n        /* \"#utility.yul\":1154:1178   */\n      tag_36\n        /* \"#utility.yul\":1172:1177   */\n      dup2\n        /* \"#utility.yul\":1154:1178   */\n      tag_29\n      jump\t// in\n    tag_36:\n        /* \"#utility.yul\":1147:1152   */\n      dup2\n        /* \"#utility.yul\":1144:1179   */\n      eq\n        /* \"#utility.yul\":1134:1136   */\n      tag_37\n      jumpi\n        /* \"#utility.yul\":1193:1194   */\n      0x00\n        /* \"#utility.yul\":1190:1191   */\n      dup1\n        /* \"#utility.yul\":1183:1195   */\n      revert\n        /* \"#utility.yul\":1134:1136   */\n    tag_37:\n        /* \"#utility.yul\":1124:1203   */\n      pop\n      jump\t// out\n\n    auxdata: 0xa2646970667358221220f212bd90575b572cf1bdf5354a2c512795e54f843435200ea0d3c2b44405ac7b64736f6c63430008000033\n}\n",
				"bytecode": {
					"linkReferences": {},
					"object": "608060405234801561001057600080fd5b506101f4806100206000396000f3fe608060405234801561001057600080fd5b50600436106100365760003560e01c8063421b2d8b1461003b578063a87430ba14610057575b600080fd5b61005560048036038101906100509190610116565b610087565b005b610071600480360381019061006c9190610116565b6100e1565b60405161007e919061014e565b60405180910390f35b60016000808373ffffffffffffffffffffffffffffffffffffffff1673ffffffffffffffffffffffffffffffffffffffff16815260200190815260200160002060006101000a81548160ff02191690831515021790555050565b60006020528060005260406000206000915054906101000a900460ff1681565b600081359050610110816101a7565b92915050565b60006020828403121561012857600080fd5b600061013684828501610101565b91505092915050565b6101488161017b565b82525050565b6000602082019050610163600083018461013f565b92915050565b600061017482610187565b9050919050565b60008115159050919050565b600073ffffffffffffffffffffffffffffffffffffffff82169050919050565b6101b081610169565b81146101bb57600080fd5b5056fea2646970667358221220f212bd90575b572cf1bdf5354a2c512795e54f843435200ea0d3c2b44405ac7b64736f6c63430008000033",
					"opcodes": "PUSH1 0x80 PUSH1 0x40 MSTORE CALLVALUE DUP1 ISZERO PUSH2 0x10 JUMPI PUSH1 0x0 DUP1 REVERT JUMPDEST POP PUSH2 0x1F4 DUP1 PUSH2 0x20 PUSH1 0x0 CODECOPY PUSH1 0x0 RETURN INVALID PUSH1 0x80 PUSH1 0x40 MSTORE CALLVALUE DUP1 ISZERO PUSH2 0x10 JUMPI PUSH1 0x0 DUP1 REVERT JUMPDEST POP PUSH1 0x4 CALLDATASIZE LT PUSH2 0x36 JUMPI PUSH1 0x0 CALLDATALOAD PUSH1 0xE0 SHR DUP1 PUSH4 0x421B2D8B EQ PUSH2 0x3B JUMPI DUP1 PUSH4 0xA87430BA EQ PUSH2 0x57 JUMPI JUMPDEST PUSH1 0x0 DUP1 REVERT JUMPDEST PUSH2 0x55 PUSH1 0x4 DUP1 CALLDATASIZE SUB DUP2 ADD SWAP1 PUSH2 0x50 SWAP2 SWAP1 PUSH2 0x116 JUMP JUMPDEST PUSH2 0x87 JUMP JUMPDEST STOP JUMPDEST PUSH2 0x71 PUSH1 0x4 DUP1 CALLDATASIZE SUB DUP2 ADD SWAP1 PUSH2 0x6C SWAP2 SWAP1 PUSH2 0x116 JUMP JUMPDEST PUSH2 0xE1 JUMP JUMPDEST PUSH1 0x40 MLOAD PUSH2 0x7E SWAP2 SWAP1 PUSH2 0x14E JUMP JUMPDEST PUSH1 0x40 MLOAD DUP1 SWAP2 SUB SWAP1 RETURN JUMPDEST PUSH1 0x1 PUSH1 0x0 DUP1 DUP4 PUSH20 0xFFFFFFFFFFFFFFFFFFFFFFFFFFFFFFFFFFFFFFFF AND PUSH20 0xFFFFFFFFFFFFFFFFFFFFFFFFFFFFFFFFFFFFFFFF AND DUP2 MSTORE PUSH1 0x20 ADD SWAP1 DUP2 MSTORE PUSH1 0x20 ADD PUSH1 0x0 KECCAK256 PUSH1 0x0 PUSH2 0x100 EXP DUP2 SLOAD DUP2 PUSH1 0xFF MUL NOT AND SWAP1 DUP4 ISZERO ISZERO MUL OR SWAP1 SSTORE POP POP JUMP JUMPDEST PUSH1 0x0 PUSH1 0x20 MSTORE DUP1 PUSH1 0x0 MSTORE PUSH1 0x40 PUSH1 0x0 KECCAK256 PUSH1 0x0 SWAP2 POP SLOAD SWAP1 PUSH2 0x100 EXP SWAP1 DIV PUSH1 0xFF AND DUP2 JUMP JUMPDEST PUSH1 0x0 DUP2 CALLDATALOAD SWAP1 POP PUSH2 0x110 DUP2 PUSH2 0x1A7 JUMP JUMPDEST SWAP3 SWAP2 POP POP JUMP JUMPDEST PUSH1 0x0 PUSH1 0x20 DUP3 DUP5 SUB SLT ISZERO PUSH2 0x128 JUMPI PUSH1 0x0 DUP1 REVERT JUMPDEST PUSH1 0x0 PUSH2 0x136 DUP5 DUP3 DUP6 ADD PUSH2 0x101 JUMP JUMPDEST SWAP2 POP POP SWAP3 SWAP2 POP POP JUMP JUMPDEST PUSH2 0x148 DUP2 PUSH2 0x17B JUMP JUMPDEST DUP3 MSTORE POP POP JUMP JUMPDEST PUSH1 0x0 PUSH1 0x20 DUP3 ADD SWAP1 POP PUSH2 0x163 PUSH1 0x0 DUP4 ADD DUP5 PUSH2 0x13F JUMP JUMPDEST SWAP3 SWAP2 POP POP JUMP JUMPDEST PUSH1 0x0 PUSH2 0x174 DUP3 PUSH2 0x187 JUMP JUMPDEST SWAP1 POP SWAP2 SWAP1 POP JUMP JUMPDEST PUSH1 0x0 DUP2 ISZERO ISZERO SWAP1 POP SWAP2 SWAP1 POP JUMP JUMPDEST PUSH1 0x0 PUSH20 0xFFFFFFFFFFFFFFFFFFFFFFFFFFFFFFFFFFFFFFFF DUP3 AND SWAP1 POP SWAP2 SWAP1 POP JUMP JUMPDEST PUSH2 0x1B0 DUP2 PUSH2 0x169 JUMP JUMPDEST DUP2 EQ PUSH2 0x1BB JUMPI PUSH1 0x0 DUP1 REVERT JUMPDEST POP JUMP INVALID LOG2 PUSH5 0x6970667358 0x22 SLT KECCAK256 CALLCODE SLT 0xBD SWAP1 JUMPI JUMPDEST JUMPI 0x2C CALL 0xBD CREATE2 CALLDATALOAD 0x4A 0x2C MLOAD 0x27 SWAP6 0xE5 0x4F DUP5 CALLVALUE CALLDATALOAD KECCAK256 0xE LOG0 0xD3 0xC2 0xB4 DIFFICULTY SDIV 0xAC PUSH28 0x64736F6C634300080000330000000000000000000000000000000000 "
				},
				"gasEstimates": {
					"creation": {
						"codeDepositCost": "100000",
						"executionCost": "147",
						"totalCost": "100147"
					},
					"external": {
						"addUser(address)": "21390",
						"users(address)": "1545"
					}
				},
				"methodIdentifiers": {
					"addUser(address)": "421b2d8b",
					"users(address)": "a87430ba"
				}
			},
			"storageLayout": {
				"storage": [
					{
						"astId": 5,
						"contract": "learning/array_mapping.sol:MappingExample",
						"label": "users",
						"offset": 0,
						"slot": "0",
						"type": "t_mapping(t_address,t_bool)"
					}
				],
				"types": {
					"t_address": {
						"encoding": "inplace",
						"label": "address",
						"numberOfBytes": "20"
					},
					"t_bool": {
						"encoding": "inplace",
						"label": "bool",
						"numberOfBytes": "1"
					},
					"t_mapping(t_address,t_bool)": {
						"encoding": "mapping",
						"key": "t_address",
						"label": "mapping(address => bool)",
						"numberOfBytes": "32",
						"value": "t_bool"
					}
				}
			},
			"userdoc": {
				"kind": "user",
				"methods": {},
				"version": 1
			}
		}
	}
}