{
	"learning/20may/FullNameGenerator.sol": {
		"FullName": {
			"abi": [
				{
					"inputs": [
						{
							"internalType": "string",
							"name": "fName",
							"type": "string"
						},
						{
							"internalType": "string",
							"name": "lName",
							"type": "string"
						}
					],
					"name": "fullname",
					"outputs": [
						{
							"internalType": "string",
							"name": "",
							"type": "string"
						}
					],
					"stateMutability": "pure",
					"type": "function"
				}
			],
			"devdoc": {
				"kind": "dev",
				"methods": {},
				"version": 1
			},
			"evm": {
				"assembly": "    /* \"learning/20may/FullNameGenerator.sol\":60:252  contract FullName{\r... */\n  mstore(0x40, 0x80)\n  callvalue\n  dup1\n  iszero\n  tag_1\n  jumpi\n  0x00\n  dup1\n  revert\ntag_1:\n  pop\n  dataSize(sub_0)\n  dup1\n  dataOffset(sub_0)\n  0x00\n  codecopy\n  0x00\n  return\nstop\n\nsub_0: assembly {\n        /* \"learning/20may/FullNameGenerator.sol\":60:252  contract FullName{\r... */\n      mstore(0x40, 0x80)\n      callvalue\n      dup1\n      iszero\n      tag_1\n      jumpi\n      0x00\n      dup1\n      revert\n    tag_1:\n      pop\n      jumpi(tag_2, lt(calldatasize, 0x04))\n      shr(0xe0, calldataload(0x00))\n      dup1\n      0x72c40495\n      eq\n      tag_3\n      jumpi\n    tag_2:\n      0x00\n      dup1\n      revert\n        /* \"learning/20may/FullNameGenerator.sol\":86:247  function fullname(string memory fName, string memory lName) public pure returns(string memory){\r... */\n    tag_3:\n      tag_4\n      0x04\n      dup1\n      calldatasize\n      sub\n      dup2\n      add\n      swap1\n      tag_5\n      swap2\n      swap1\n      tag_6\n      jump\t// in\n    tag_5:\n      tag_7\n      jump\t// in\n    tag_4:\n      mload(0x40)\n      tag_8\n      swap2\n      swap1\n      tag_9\n      jump\t// in\n    tag_8:\n      mload(0x40)\n      dup1\n      swap2\n      sub\n      swap1\n      return\n    tag_7:\n        /* \"learning/20may/FullNameGenerator.sol\":166:179  string memory */\n      0x60\n        /* \"learning/20may/FullNameGenerator.sol\":222:227  fName */\n      dup3\n        /* \"learning/20may/FullNameGenerator.sol\":232:237  lName */\n      dup3\n        /* \"learning/20may/FullNameGenerator.sol\":205:238  abi.encodePacked(fName,\" \",lName) */\n      add(0x20, mload(0x40))\n      tag_11\n      swap3\n      swap2\n      swap1\n      tag_12\n      jump\t// in\n    tag_11:\n      mload(0x40)\n      0x20\n      dup2\n      dup4\n      sub\n      sub\n      dup2\n      mstore\n      swap1\n      0x40\n      mstore\n        /* \"learning/20may/FullNameGenerator.sol\":191:239  return string(abi.encodePacked(fName,\" \",lName)) */\n      swap1\n      pop\n        /* \"learning/20may/FullNameGenerator.sol\":86:247  function fullname(string memory fName, string memory lName) public pure returns(string memory){\r... */\n      swap3\n      swap2\n      pop\n      pop\n      jump\t// out\n        /* \"#utility.yul\":7:351   */\n    tag_14:\n      0x00\n        /* \"#utility.yul\":110:175   */\n      tag_16\n        /* \"#utility.yul\":125:174   */\n      tag_17\n        /* \"#utility.yul\":167:173   */\n      dup5\n        /* \"#utility.yul\":125:174   */\n      tag_18\n      jump\t// in\n    tag_17:\n        /* \"#utility.yul\":110:175   */\n      tag_19\n      jump\t// in\n    tag_16:\n        /* \"#utility.yul\":101:175   */\n      swap1\n      pop\n        /* \"#utility.yul\":198:204   */\n      dup3\n        /* \"#utility.yul\":191:196   */\n      dup2\n        /* \"#utility.yul\":184:205   */\n      mstore\n        /* \"#utility.yul\":236:240   */\n      0x20\n        /* \"#utility.yul\":229:234   */\n      dup2\n        /* \"#utility.yul\":225:241   */\n      add\n        /* \"#utility.yul\":274:277   */\n      dup5\n        /* \"#utility.yul\":265:271   */\n      dup5\n        /* \"#utility.yul\":260:263   */\n      dup5\n        /* \"#utility.yul\":256:272   */\n      add\n        /* \"#utility.yul\":253:278   */\n      gt\n        /* \"#utility.yul\":250:252   */\n      iszero\n      tag_20\n      jumpi\n        /* \"#utility.yul\":291:292   */\n      0x00\n        /* \"#utility.yul\":288:289   */\n      dup1\n        /* \"#utility.yul\":281:293   */\n      revert\n        /* \"#utility.yul\":250:252   */\n    tag_20:\n        /* \"#utility.yul\":304:345   */\n      tag_21\n        /* \"#utility.yul\":338:344   */\n      dup5\n        /* \"#utility.yul\":333:336   */\n      dup3\n        /* \"#utility.yul\":328:331   */\n      dup6\n        /* \"#utility.yul\":304:345   */\n      tag_22\n      jump\t// in\n    tag_21:\n        /* \"#utility.yul\":91:351   */\n      pop\n      swap4\n      swap3\n      pop\n      pop\n      pop\n      jump\t// out\n        /* \"#utility.yul\":371:644   */\n    tag_23:\n      0x00\n        /* \"#utility.yul\":476:479   */\n      dup3\n        /* \"#utility.yul\":469:473   */\n      0x1f\n        /* \"#utility.yul\":461:467   */\n      dup4\n        /* \"#utility.yul\":457:474   */\n      add\n        /* \"#utility.yul\":453:480   */\n      slt\n        /* \"#utility.yul\":443:445   */\n      tag_25\n      jumpi\n        /* \"#utility.yul\":494:495   */\n      0x00\n        /* \"#utility.yul\":491:492   */\n      dup1\n        /* \"#utility.yul\":484:496   */\n      revert\n        /* \"#utility.yul\":443:445   */\n    tag_25:\n        /* \"#utility.yul\":534:540   */\n      dup2\n        /* \"#utility.yul\":521:541   */\n      calldataload\n        /* \"#utility.yul\":559:638   */\n      tag_26\n        /* \"#utility.yul\":634:637   */\n      dup5\n        /* \"#utility.yul\":626:632   */\n      dup3\n        /* \"#utility.yul\":619:623   */\n      0x20\n        /* \"#utility.yul\":611:617   */\n      dup7\n        /* \"#utility.yul\":607:624   */\n      add\n        /* \"#utility.yul\":559:638   */\n      tag_14\n      jump\t// in\n    tag_26:\n        /* \"#utility.yul\":550:638   */\n      swap2\n      pop\n        /* \"#utility.yul\":433:644   */\n      pop\n      swap3\n      swap2\n      pop\n      pop\n      jump\t// out\n        /* \"#utility.yul\":650:1283   */\n    tag_6:\n      0x00\n      dup1\n        /* \"#utility.yul\":795:797   */\n      0x40\n        /* \"#utility.yul\":783:792   */\n      dup4\n        /* \"#utility.yul\":774:781   */\n      dup6\n        /* \"#utility.yul\":770:793   */\n      sub\n        /* \"#utility.yul\":766:798   */\n      slt\n        /* \"#utility.yul\":763:765   */\n      iszero\n      tag_28\n      jumpi\n        /* \"#utility.yul\":811:812   */\n      0x00\n        /* \"#utility.yul\":808:809   */\n      dup1\n        /* \"#utility.yul\":801:813   */\n      revert\n        /* \"#utility.yul\":763:765   */\n    tag_28:\n        /* \"#utility.yul\":882:883   */\n      0x00\n        /* \"#utility.yul\":871:880   */\n      dup4\n        /* \"#utility.yul\":867:884   */\n      add\n        /* \"#utility.yul\":854:885   */\n      calldataload\n        /* \"#utility.yul\":912:930   */\n      0xffffffffffffffff\n        /* \"#utility.yul\":904:910   */\n      dup2\n        /* \"#utility.yul\":901:931   */\n      gt\n        /* \"#utility.yul\":898:900   */\n      iszero\n      tag_29\n      jumpi\n        /* \"#utility.yul\":944:945   */\n      0x00\n        /* \"#utility.yul\":941:942   */\n      dup1\n        /* \"#utility.yul\":934:946   */\n      revert\n        /* \"#utility.yul\":898:900   */\n    tag_29:\n        /* \"#utility.yul\":972:1035   */\n      tag_30\n        /* \"#utility.yul\":1027:1034   */\n      dup6\n        /* \"#utility.yul\":1018:1024   */\n      dup3\n        /* \"#utility.yul\":1007:1016   */\n      dup7\n        /* \"#utility.yul\":1003:1025   */\n      add\n        /* \"#utility.yul\":972:1035   */\n      tag_23\n      jump\t// in\n    tag_30:\n        /* \"#utility.yul\":962:1035   */\n      swap3\n      pop\n        /* \"#utility.yul\":825:1045   */\n      pop\n        /* \"#utility.yul\":1112:1114   */\n      0x20\n        /* \"#utility.yul\":1101:1110   */\n      dup4\n        /* \"#utility.yul\":1097:1115   */\n      add\n        /* \"#utility.yul\":1084:1116   */\n      calldataload\n        /* \"#utility.yul\":1143:1161   */\n      0xffffffffffffffff\n        /* \"#utility.yul\":1135:1141   */\n      dup2\n        /* \"#utility.yul\":1132:1162   */\n      gt\n        /* \"#utility.yul\":1129:1131   */\n      iszero\n      tag_31\n      jumpi\n        /* \"#utility.yul\":1175:1176   */\n      0x00\n        /* \"#utility.yul\":1172:1173   */\n      dup1\n        /* \"#utility.yul\":1165:1177   */\n      revert\n        /* \"#utility.yul\":1129:1131   */\n    tag_31:\n        /* \"#utility.yul\":1203:1266   */\n      tag_32\n        /* \"#utility.yul\":1258:1265   */\n      dup6\n        /* \"#utility.yul\":1249:1255   */\n      dup3\n        /* \"#utility.yul\":1238:1247   */\n      dup7\n        /* \"#utility.yul\":1234:1256   */\n      add\n        /* \"#utility.yul\":1203:1266   */\n      tag_23\n      jump\t// in\n    tag_32:\n        /* \"#utility.yul\":1193:1266   */\n      swap2\n      pop\n        /* \"#utility.yul\":1055:1276   */\n      pop\n        /* \"#utility.yul\":753:1283   */\n      swap3\n      pop\n      swap3\n      swap1\n      pop\n      jump\t// out\n        /* \"#utility.yul\":1289:1653   */\n    tag_33:\n      0x00\n        /* \"#utility.yul\":1405:1444   */\n      tag_35\n        /* \"#utility.yul\":1438:1443   */\n      dup3\n        /* \"#utility.yul\":1405:1444   */\n      tag_36\n      jump\t// in\n    tag_35:\n        /* \"#utility.yul\":1460:1531   */\n      tag_37\n        /* \"#utility.yul\":1524:1530   */\n      dup2\n        /* \"#utility.yul\":1519:1522   */\n      dup6\n        /* \"#utility.yul\":1460:1531   */\n      tag_38\n      jump\t// in\n    tag_37:\n        /* \"#utility.yul\":1453:1531   */\n      swap4\n      pop\n        /* \"#utility.yul\":1540:1592   */\n      tag_39\n        /* \"#utility.yul\":1585:1591   */\n      dup2\n        /* \"#utility.yul\":1580:1583   */\n      dup6\n        /* \"#utility.yul\":1573:1577   */\n      0x20\n        /* \"#utility.yul\":1566:1571   */\n      dup7\n        /* \"#utility.yul\":1562:1578   */\n      add\n        /* \"#utility.yul\":1540:1592   */\n      tag_40\n      jump\t// in\n    tag_39:\n        /* \"#utility.yul\":1617:1646   */\n      tag_41\n        /* \"#utility.yul\":1639:1645   */\n      dup2\n        /* \"#utility.yul\":1617:1646   */\n      tag_42\n      jump\t// in\n    tag_41:\n        /* \"#utility.yul\":1612:1615   */\n      dup5\n        /* \"#utility.yul\":1608:1647   */\n      add\n        /* \"#utility.yul\":1601:1647   */\n      swap2\n      pop\n        /* \"#utility.yul\":1381:1653   */\n      pop\n      swap3\n      swap2\n      pop\n      pop\n      jump\t// out\n        /* \"#utility.yul\":1659:2036   */\n    tag_43:\n      0x00\n        /* \"#utility.yul\":1793:1832   */\n      tag_45\n        /* \"#utility.yul\":1826:1831   */\n      dup3\n        /* \"#utility.yul\":1793:1832   */\n      tag_36\n      jump\t// in\n    tag_45:\n        /* \"#utility.yul\":1848:1937   */\n      tag_46\n        /* \"#utility.yul\":1930:1936   */\n      dup2\n        /* \"#utility.yul\":1925:1928   */\n      dup6\n        /* \"#utility.yul\":1848:1937   */\n      tag_47\n      jump\t// in\n    tag_46:\n        /* \"#utility.yul\":1841:1937   */\n      swap4\n      pop\n        /* \"#utility.yul\":1946:1998   */\n      tag_48\n        /* \"#utility.yul\":1991:1997   */\n      dup2\n        /* \"#utility.yul\":1986:1989   */\n      dup6\n        /* \"#utility.yul\":1979:1983   */\n      0x20\n        /* \"#utility.yul\":1972:1977   */\n      dup7\n        /* \"#utility.yul\":1968:1984   */\n      add\n        /* \"#utility.yul\":1946:1998   */\n      tag_40\n      jump\t// in\n    tag_48:\n        /* \"#utility.yul\":2023:2029   */\n      dup1\n        /* \"#utility.yul\":2018:2021   */\n      dup5\n        /* \"#utility.yul\":2014:2030   */\n      add\n        /* \"#utility.yul\":2007:2030   */\n      swap2\n      pop\n        /* \"#utility.yul\":1769:2036   */\n      pop\n      swap3\n      swap2\n      pop\n      pop\n      jump\t// out\n        /* \"#utility.yul\":2042:2375   */\n    tag_49:\n      0x00\n        /* \"#utility.yul\":2223:2307   */\n      tag_51\n        /* \"#utility.yul\":2305:2306   */\n      0x01\n        /* \"#utility.yul\":2300:2303   */\n      dup4\n        /* \"#utility.yul\":2223:2307   */\n      tag_47\n      jump\t// in\n    tag_51:\n        /* \"#utility.yul\":2216:2307   */\n      swap2\n      pop\n        /* \"#utility.yul\":2337:2340   */\n      0x2000000000000000000000000000000000000000000000000000000000000000\n        /* \"#utility.yul\":2333:2334   */\n      0x00\n        /* \"#utility.yul\":2328:2331   */\n      dup4\n        /* \"#utility.yul\":2324:2335   */\n      add\n        /* \"#utility.yul\":2317:2341   */\n      mstore\n        /* \"#utility.yul\":2367:2368   */\n      0x01\n        /* \"#utility.yul\":2362:2365   */\n      dup3\n        /* \"#utility.yul\":2358:2369   */\n      add\n        /* \"#utility.yul\":2351:2369   */\n      swap1\n      pop\n        /* \"#utility.yul\":2206:2375   */\n      swap2\n      swap1\n      pop\n      jump\t// out\n        /* \"#utility.yul\":2381:3082   */\n    tag_12:\n      0x00\n        /* \"#utility.yul\":2684:2779   */\n      tag_53\n        /* \"#utility.yul\":2775:2778   */\n      dup3\n        /* \"#utility.yul\":2766:2772   */\n      dup6\n        /* \"#utility.yul\":2684:2779   */\n      tag_43\n      jump\t// in\n    tag_53:\n        /* \"#utility.yul\":2677:2779   */\n      swap2\n      pop\n        /* \"#utility.yul\":2796:2944   */\n      tag_54\n        /* \"#utility.yul\":2940:2943   */\n      dup3\n        /* \"#utility.yul\":2796:2944   */\n      tag_49\n      jump\t// in\n    tag_54:\n        /* \"#utility.yul\":2789:2944   */\n      swap2\n      pop\n        /* \"#utility.yul\":2961:3056   */\n      tag_55\n        /* \"#utility.yul\":3052:3055   */\n      dup3\n        /* \"#utility.yul\":3043:3049   */\n      dup5\n        /* \"#utility.yul\":2961:3056   */\n      tag_43\n      jump\t// in\n    tag_55:\n        /* \"#utility.yul\":2954:3056   */\n      swap2\n      pop\n        /* \"#utility.yul\":3073:3076   */\n      dup2\n        /* \"#utility.yul\":3066:3076   */\n      swap1\n      pop\n        /* \"#utility.yul\":2666:3082   */\n      swap4\n      swap3\n      pop\n      pop\n      pop\n      jump\t// out\n        /* \"#utility.yul\":3088:3401   */\n    tag_9:\n      0x00\n        /* \"#utility.yul\":3239:3241   */\n      0x20\n        /* \"#utility.yul\":3228:3237   */\n      dup3\n        /* \"#utility.yul\":3224:3242   */\n      add\n        /* \"#utility.yul\":3216:3242   */\n      swap1\n      pop\n        /* \"#utility.yul\":3288:3297   */\n      dup2\n        /* \"#utility.yul\":3282:3286   */\n      dup2\n        /* \"#utility.yul\":3278:3298   */\n      sub\n        /* \"#utility.yul\":3274:3275   */\n      0x00\n        /* \"#utility.yul\":3263:3272   */\n      dup4\n        /* \"#utility.yul\":3259:3276   */\n      add\n        /* \"#utility.yul\":3252:3299   */\n      mstore\n        /* \"#utility.yul\":3316:3394   */\n      tag_57\n        /* \"#utility.yul\":3389:3393   */\n      dup2\n        /* \"#utility.yul\":3380:3386   */\n      dup5\n        /* \"#utility.yul\":3316:3394   */\n      tag_33\n      jump\t// in\n    tag_57:\n        /* \"#utility.yul\":3308:3394   */\n      swap1\n      pop\n        /* \"#utility.yul\":3206:3401   */\n      swap3\n      swap2\n      pop\n      pop\n      jump\t// out\n        /* \"#utility.yul\":3407:3690   */\n    tag_19:\n      0x00\n        /* \"#utility.yul\":3473:3475   */\n      0x40\n        /* \"#utility.yul\":3467:3476   */\n      mload\n        /* \"#utility.yul\":3457:3476   */\n      swap1\n      pop\n        /* \"#utility.yul\":3515:3519   */\n      dup2\n        /* \"#utility.yul\":3507:3513   */\n      dup2\n        /* \"#utility.yul\":3503:3520   */\n      add\n        /* \"#utility.yul\":3622:3628   */\n      dup2\n        /* \"#utility.yul\":3610:3620   */\n      dup2\n        /* \"#utility.yul\":3607:3629   */\n      lt\n        /* \"#utility.yul\":3586:3604   */\n      0xffffffffffffffff\n        /* \"#utility.yul\":3574:3584   */\n      dup3\n        /* \"#utility.yul\":3571:3605   */\n      gt\n        /* \"#utility.yul\":3568:3630   */\n      or\n        /* \"#utility.yul\":3565:3567   */\n      iszero\n      tag_59\n      jumpi\n        /* \"#utility.yul\":3633:3651   */\n      tag_60\n      tag_61\n      jump\t// in\n    tag_60:\n        /* \"#utility.yul\":3565:3567   */\n    tag_59:\n        /* \"#utility.yul\":3673:3683   */\n      dup1\n        /* \"#utility.yul\":3669:3671   */\n      0x40\n        /* \"#utility.yul\":3662:3684   */\n      mstore\n        /* \"#utility.yul\":3447:3690   */\n      pop\n      swap2\n      swap1\n      pop\n      jump\t// out\n        /* \"#utility.yul\":3696:4028   */\n    tag_18:\n      0x00\n        /* \"#utility.yul\":3848:3866   */\n      0xffffffffffffffff\n        /* \"#utility.yul\":3840:3846   */\n      dup3\n        /* \"#utility.yul\":3837:3867   */\n      gt\n        /* \"#utility.yul\":3834:3836   */\n      iszero\n      tag_63\n      jumpi\n        /* \"#utility.yul\":3870:3888   */\n      tag_64\n      tag_61\n      jump\t// in\n    tag_64:\n        /* \"#utility.yul\":3834:3836   */\n    tag_63:\n        /* \"#utility.yul\":3955:3959   */\n      0x1f\n        /* \"#utility.yul\":3951:3960   */\n      not\n        /* \"#utility.yul\":3944:3948   */\n      0x1f\n        /* \"#utility.yul\":3936:3942   */\n      dup4\n        /* \"#utility.yul\":3932:3949   */\n      add\n        /* \"#utility.yul\":3928:3961   */\n      and\n        /* \"#utility.yul\":3920:3961   */\n      swap1\n      pop\n        /* \"#utility.yul\":4016:4020   */\n      0x20\n        /* \"#utility.yul\":4010:4014   */\n      dup2\n        /* \"#utility.yul\":4006:4021   */\n      add\n        /* \"#utility.yul\":3998:4021   */\n      swap1\n      pop\n        /* \"#utility.yul\":3763:4028   */\n      swap2\n      swap1\n      pop\n      jump\t// out\n        /* \"#utility.yul\":4034:4133   */\n    tag_36:\n      0x00\n        /* \"#utility.yul\":4120:4125   */\n      dup2\n        /* \"#utility.yul\":4114:4126   */\n      mload\n        /* \"#utility.yul\":4104:4126   */\n      swap1\n      pop\n        /* \"#utility.yul\":4093:4133   */\n      swap2\n      swap1\n      pop\n      jump\t// out\n        /* \"#utility.yul\":4139:4308   */\n    tag_38:\n      0x00\n        /* \"#utility.yul\":4257:4263   */\n      dup3\n        /* \"#utility.yul\":4252:4255   */\n      dup3\n        /* \"#utility.yul\":4245:4264   */\n      mstore\n        /* \"#utility.yul\":4297:4301   */\n      0x20\n        /* \"#utility.yul\":4292:4295   */\n      dup3\n        /* \"#utility.yul\":4288:4302   */\n      add\n        /* \"#utility.yul\":4273:4302   */\n      swap1\n      pop\n        /* \"#utility.yul\":4235:4308   */\n      swap3\n      swap2\n      pop\n      pop\n      jump\t// out\n        /* \"#utility.yul\":4314:4462   */\n    tag_47:\n      0x00\n        /* \"#utility.yul\":4453:4456   */\n      dup2\n        /* \"#utility.yul\":4438:4456   */\n      swap1\n      pop\n        /* \"#utility.yul\":4428:4462   */\n      swap3\n      swap2\n      pop\n      pop\n      jump\t// out\n        /* \"#utility.yul\":4468:4622   */\n    tag_22:\n        /* \"#utility.yul\":4552:4558   */\n      dup3\n        /* \"#utility.yul\":4547:4550   */\n      dup2\n        /* \"#utility.yul\":4542:4545   */\n      dup4\n        /* \"#utility.yul\":4529:4559   */\n      calldatacopy\n        /* \"#utility.yul\":4614:4615   */\n      0x00\n        /* \"#utility.yul\":4605:4611   */\n      dup4\n        /* \"#utility.yul\":4600:4603   */\n      dup4\n        /* \"#utility.yul\":4596:4612   */\n      add\n        /* \"#utility.yul\":4589:4616   */\n      mstore\n        /* \"#utility.yul\":4519:4622   */\n      pop\n      pop\n      pop\n      jump\t// out\n        /* \"#utility.yul\":4628:4935   */\n    tag_40:\n        /* \"#utility.yul\":4696:4697   */\n      0x00\n        /* \"#utility.yul\":4706:4819   */\n    tag_70:\n        /* \"#utility.yul\":4720:4726   */\n      dup4\n        /* \"#utility.yul\":4717:4718   */\n      dup2\n        /* \"#utility.yul\":4714:4727   */\n      lt\n        /* \"#utility.yul\":4706:4819   */\n      iszero\n      tag_72\n      jumpi\n        /* \"#utility.yul\":4805:4806   */\n      dup1\n        /* \"#utility.yul\":4800:4803   */\n      dup3\n        /* \"#utility.yul\":4796:4807   */\n      add\n        /* \"#utility.yul\":4790:4808   */\n      mload\n        /* \"#utility.yul\":4786:4787   */\n      dup2\n        /* \"#utility.yul\":4781:4784   */\n      dup5\n        /* \"#utility.yul\":4777:4788   */\n      add\n        /* \"#utility.yul\":4770:4809   */\n      mstore\n        /* \"#utility.yul\":4742:4744   */\n      0x20\n        /* \"#utility.yul\":4739:4740   */\n      dup2\n        /* \"#utility.yul\":4735:4745   */\n      add\n        /* \"#utility.yul\":4730:4745   */\n      swap1\n      pop\n        /* \"#utility.yul\":4706:4819   */\n      jump(tag_70)\n    tag_72:\n        /* \"#utility.yul\":4837:4843   */\n      dup4\n        /* \"#utility.yul\":4834:4835   */\n      dup2\n        /* \"#utility.yul\":4831:4844   */\n      gt\n        /* \"#utility.yul\":4828:4830   */\n      iszero\n      tag_73\n      jumpi\n        /* \"#utility.yul\":4917:4918   */\n      0x00\n        /* \"#utility.yul\":4908:4914   */\n      dup5\n        /* \"#utility.yul\":4903:4906   */\n      dup5\n        /* \"#utility.yul\":4899:4915   */\n      add\n        /* \"#utility.yul\":4892:4919   */\n      mstore\n        /* \"#utility.yul\":4828:4830   */\n    tag_73:\n        /* \"#utility.yul\":4677:4935   */\n      pop\n      pop\n      pop\n      pop\n      jump\t// out\n        /* \"#utility.yul\":4941:5121   */\n    tag_61:\n        /* \"#utility.yul\":4989:5066   */\n      0x4e487b7100000000000000000000000000000000000000000000000000000000\n        /* \"#utility.yul\":4986:4987   */\n      0x00\n        /* \"#utility.yul\":4979:5067   */\n      mstore\n        /* \"#utility.yul\":5086:5090   */\n      0x41\n        /* \"#utility.yul\":5083:5084   */\n      0x04\n        /* \"#utility.yul\":5076:5091   */\n      mstore\n        /* \"#utility.yul\":5110:5114   */\n      0x24\n        /* \"#utility.yul\":5107:5108   */\n      0x00\n        /* \"#utility.yul\":5100:5115   */\n      revert\n        /* \"#utility.yul\":5127:5229   */\n    tag_42:\n      0x00\n        /* \"#utility.yul\":5219:5221   */\n      0x1f\n        /* \"#utility.yul\":5215:5222   */\n      not\n        /* \"#utility.yul\":5210:5212   */\n      0x1f\n        /* \"#utility.yul\":5203:5208   */\n      dup4\n        /* \"#utility.yul\":5199:5213   */\n      add\n        /* \"#utility.yul\":5195:5223   */\n      and\n        /* \"#utility.yul\":5185:5223   */\n      swap1\n      pop\n        /* \"#utility.yul\":5175:5229   */\n      swap2\n      swap1\n      pop\n      jump\t// out\n\n    auxdata: 0xa2646970667358221220ac7424a6d79de6efdb3a63067b8209290d905af288d82b2fec74346b5552c99164736f6c63430008000033\n}\n",
				"bytecode": {
					"linkReferences": {},
					"object": "608060405234801561001057600080fd5b5061039b806100206000396000f3fe608060405234801561001057600080fd5b506004361061002b5760003560e01c806372c4049514610030575b600080fd5b61004a600480360381019061004591906100f4565b610060565b6040516100579190610239565b60405180910390f35b6060828260405160200161007592919061020a565b604051602081830303815290604052905092915050565b600061009f61009a8461028c565b61025b565b9050828152602081018484840111156100b757600080fd5b6100c28482856102e3565b509392505050565b600082601f8301126100db57600080fd5b81356100eb84826020860161008c565b91505092915050565b6000806040838503121561010757600080fd5b600083013567ffffffffffffffff81111561012157600080fd5b61012d858286016100ca565b925050602083013567ffffffffffffffff81111561014a57600080fd5b610156858286016100ca565b9150509250929050565b600061016b826102bc565b61017581856102c7565b93506101858185602086016102f2565b61018e81610354565b840191505092915050565b60006101a4826102bc565b6101ae81856102d8565b93506101be8185602086016102f2565b80840191505092915050565b60006101d76001836102d8565b91507f20000000000000000000000000000000000000000000000000000000000000006000830152600182019050919050565b60006102168285610199565b9150610221826101ca565b915061022d8284610199565b91508190509392505050565b600060208201905081810360008301526102538184610160565b905092915050565b6000604051905081810181811067ffffffffffffffff8211171561028257610281610325565b5b8060405250919050565b600067ffffffffffffffff8211156102a7576102a6610325565b5b601f19601f8301169050602081019050919050565b600081519050919050565b600082825260208201905092915050565b600081905092915050565b82818337600083830152505050565b60005b838110156103105780820151818401526020810190506102f5565b8381111561031f576000848401525b50505050565b7f4e487b7100000000000000000000000000000000000000000000000000000000600052604160045260246000fd5b6000601f19601f830116905091905056fea2646970667358221220ac7424a6d79de6efdb3a63067b8209290d905af288d82b2fec74346b5552c99164736f6c63430008000033",
					"opcodes": "PUSH1 0x80 PUSH1 0x40 MSTORE CALLVALUE DUP1 ISZERO PUSH2 0x10 JUMPI PUSH1 0x0 DUP1 REVERT JUMPDEST POP PUSH2 0x39B DUP1 PUSH2 0x20 PUSH1 0x0 CODECOPY PUSH1 0x0 RETURN INVALID PUSH1 0x80 PUSH1 0x40 MSTORE CALLVALUE DUP1 ISZERO PUSH2 0x10 JUMPI PUSH1 0x0 DUP1 REVERT JUMPDEST POP PUSH1 0x4 CALLDATASIZE LT PUSH2 0x2B JUMPI PUSH1 0x0 CALLDATALOAD PUSH1 0xE0 SHR DUP1 PUSH4 0x72C40495 EQ PUSH2 0x30 JUMPI JUMPDEST PUSH1 0x0 DUP1 REVERT JUMPDEST PUSH2 0x4A PUSH1 0x4 DUP1 CALLDATASIZE SUB DUP2 ADD SWAP1 PUSH2 0x45 SWAP2 SWAP1 PUSH2 0xF4 JUMP JUMPDEST PUSH2 0x60 JUMP JUMPDEST PUSH1 0x40 MLOAD PUSH2 0x57 SWAP2 SWAP1 PUSH2 0x239 JUMP JUMPDEST PUSH1 0x40 MLOAD DUP1 SWAP2 SUB SWAP1 RETURN JUMPDEST PUSH1 0x60 DUP3 DUP3 PUSH1 0x40 MLOAD PUSH1 0x20 ADD PUSH2 0x75 SWAP3 SWAP2 SWAP1 PUSH2 0x20A JUMP JUMPDEST PUSH1 0x40 MLOAD PUSH1 0x20 DUP2 DUP4 SUB SUB DUP2 MSTORE SWAP1 PUSH1 0x40 MSTORE SWAP1 POP SWAP3 SWAP2 POP POP JUMP JUMPDEST PUSH1 0x0 PUSH2 0x9F PUSH2 0x9A DUP5 PUSH2 0x28C JUMP JUMPDEST PUSH2 0x25B JUMP JUMPDEST SWAP1 POP DUP3 DUP2 MSTORE PUSH1 0x20 DUP2 ADD DUP5 DUP5 DUP5 ADD GT ISZERO PUSH2 0xB7 JUMPI PUSH1 0x0 DUP1 REVERT JUMPDEST PUSH2 0xC2 DUP5 DUP3 DUP6 PUSH2 0x2E3 JUMP JUMPDEST POP SWAP4 SWAP3 POP POP POP JUMP JUMPDEST PUSH1 0x0 DUP3 PUSH1 0x1F DUP4 ADD SLT PUSH2 0xDB JUMPI PUSH1 0x0 DUP1 REVERT JUMPDEST DUP2 CALLDATALOAD PUSH2 0xEB DUP5 DUP3 PUSH1 0x20 DUP7 ADD PUSH2 0x8C JUMP JUMPDEST SWAP2 POP POP SWAP3 SWAP2 POP POP JUMP JUMPDEST PUSH1 0x0 DUP1 PUSH1 0x40 DUP4 DUP6 SUB SLT ISZERO PUSH2 0x107 JUMPI PUSH1 0x0 DUP1 REVERT JUMPDEST PUSH1 0x0 DUP4 ADD CALLDATALOAD PUSH8 0xFFFFFFFFFFFFFFFF DUP2 GT ISZERO PUSH2 0x121 JUMPI PUSH1 0x0 DUP1 REVERT JUMPDEST PUSH2 0x12D DUP6 DUP3 DUP7 ADD PUSH2 0xCA JUMP JUMPDEST SWAP3 POP POP PUSH1 0x20 DUP4 ADD CALLDATALOAD PUSH8 0xFFFFFFFFFFFFFFFF DUP2 GT ISZERO PUSH2 0x14A JUMPI PUSH1 0x0 DUP1 REVERT JUMPDEST PUSH2 0x156 DUP6 DUP3 DUP7 ADD PUSH2 0xCA JUMP JUMPDEST SWAP2 POP POP SWAP3 POP SWAP3 SWAP1 POP JUMP JUMPDEST PUSH1 0x0 PUSH2 0x16B DUP3 PUSH2 0x2BC JUMP JUMPDEST PUSH2 0x175 DUP2 DUP6 PUSH2 0x2C7 JUMP JUMPDEST SWAP4 POP PUSH2 0x185 DUP2 DUP6 PUSH1 0x20 DUP7 ADD PUSH2 0x2F2 JUMP JUMPDEST PUSH2 0x18E DUP2 PUSH2 0x354 JUMP JUMPDEST DUP5 ADD SWAP2 POP POP SWAP3 SWAP2 POP POP JUMP JUMPDEST PUSH1 0x0 PUSH2 0x1A4 DUP3 PUSH2 0x2BC JUMP JUMPDEST PUSH2 0x1AE DUP2 DUP6 PUSH2 0x2D8 JUMP JUMPDEST SWAP4 POP PUSH2 0x1BE DUP2 DUP6 PUSH1 0x20 DUP7 ADD PUSH2 0x2F2 JUMP JUMPDEST DUP1 DUP5 ADD SWAP2 POP POP SWAP3 SWAP2 POP POP JUMP JUMPDEST PUSH1 0x0 PUSH2 0x1D7 PUSH1 0x1 DUP4 PUSH2 0x2D8 JUMP JUMPDEST SWAP2 POP PUSH32 0x2000000000000000000000000000000000000000000000000000000000000000 PUSH1 0x0 DUP4 ADD MSTORE PUSH1 0x1 DUP3 ADD SWAP1 POP SWAP2 SWAP1 POP JUMP JUMPDEST PUSH1 0x0 PUSH2 0x216 DUP3 DUP6 PUSH2 0x199 JUMP JUMPDEST SWAP2 POP PUSH2 0x221 DUP3 PUSH2 0x1CA JUMP JUMPDEST SWAP2 POP PUSH2 0x22D DUP3 DUP5 PUSH2 0x199 JUMP JUMPDEST SWAP2 POP DUP2 SWAP1 POP SWAP4 SWAP3 POP POP POP JUMP JUMPDEST PUSH1 0x0 PUSH1 0x20 DUP3 ADD SWAP1 POP DUP2 DUP2 SUB PUSH1 0x0 DUP4 ADD MSTORE PUSH2 0x253 DUP2 DUP5 PUSH2 0x160 JUMP JUMPDEST SWAP1 POP SWAP3 SWAP2 POP POP JUMP JUMPDEST PUSH1 0x0 PUSH1 0x40 MLOAD SWAP1 POP DUP2 DUP2 ADD DUP2 DUP2 LT PUSH8 0xFFFFFFFFFFFFFFFF DUP3 GT OR ISZERO PUSH2 0x282 JUMPI PUSH2 0x281 PUSH2 0x325 JUMP JUMPDEST JUMPDEST DUP1 PUSH1 0x40 MSTORE POP SWAP2 SWAP1 POP JUMP JUMPDEST PUSH1 0x0 PUSH8 0xFFFFFFFFFFFFFFFF DUP3 GT ISZERO PUSH2 0x2A7 JUMPI PUSH2 0x2A6 PUSH2 0x325 JUMP JUMPDEST JUMPDEST PUSH1 0x1F NOT PUSH1 0x1F DUP4 ADD AND SWAP1 POP PUSH1 0x20 DUP2 ADD SWAP1 POP SWAP2 SWAP1 POP JUMP JUMPDEST PUSH1 0x0 DUP2 MLOAD SWAP1 POP SWAP2 SWAP1 POP JUMP JUMPDEST PUSH1 0x0 DUP3 DUP3 MSTORE PUSH1 0x20 DUP3 ADD SWAP1 POP SWAP3 SWAP2 POP POP JUMP JUMPDEST PUSH1 0x0 DUP2 SWAP1 POP SWAP3 SWAP2 POP POP JUMP JUMPDEST DUP3 DUP2 DUP4 CALLDATACOPY PUSH1 0x0 DUP4 DUP4 ADD MSTORE POP POP POP JUMP JUMPDEST PUSH1 0x0 JUMPDEST DUP4 DUP2 LT ISZERO PUSH2 0x310 JUMPI DUP1 DUP3 ADD MLOAD DUP2 DUP5 ADD MSTORE PUSH1 0x20 DUP2 ADD SWAP1 POP PUSH2 0x2F5 JUMP JUMPDEST DUP4 DUP2 GT ISZERO PUSH2 0x31F JUMPI PUSH1 0x0 DUP5 DUP5 ADD MSTORE JUMPDEST POP POP POP POP JUMP JUMPDEST PUSH32 0x4E487B7100000000000000000000000000000000000000000000000000000000 PUSH1 0x0 MSTORE PUSH1 0x41 PUSH1 0x4 MSTORE PUSH1 0x24 PUSH1 0x0 REVERT JUMPDEST PUSH1 0x0 PUSH1 0x1F NOT PUSH1 0x1F DUP4 ADD AND SWAP1 POP SWAP2 SWAP1 POP JUMP INVALID LOG2 PUSH5 0x6970667358 0x22 SLT KECCAK256 0xAC PUSH21 0x24A6D79DE6EFDB3A63067B8209290D905AF288D82B 0x2F 0xEC PUSH21 0x346B5552C99164736F6C6343000800003300000000 "
				},
				"gasEstimates": {
					"creation": {
						"codeDepositCost": "184600",
						"executionCost": "226",
						"totalCost": "184826"
					},
					"external": {
						"fullname(string,string)": "infinite"
					}
				},
				"methodIdentifiers": {
					"fullname(string,string)": "72c40495"
				}
			},
			"storageLayout": {
				"storage": [],
				"types": null
			},
			"userdoc": {
				"kind": "user",
				"methods": {},
				"version": 1
			}
		}
	}
}