{
	"learning/CourseSelling.sol": {
		"CourseSelling": {
			"abi": [
				{
					"inputs": [],
					"stateMutability": "nonpayable",
					"type": "constructor"
				},
				{
					"inputs": [
						{
							"internalType": "uint256",
							"name": "id",
							"type": "uint256"
						},
						{
							"internalType": "string",
							"name": "name",
							"type": "string"
						},
						{
							"internalType": "string",
							"name": "duration",
							"type": "string"
						},
						{
							"internalType": "uint256",
							"name": "fees",
							"type": "uint256"
						}
					],
					"name": "addCourse",
					"outputs": [],
					"stateMutability": "nonpayable",
					"type": "function"
				},
				{
					"inputs": [
						{
							"internalType": "uint256",
							"name": "id",
							"type": "uint256"
						},
						{
							"internalType": "string",
							"name": "name",
							"type": "string"
						},
						{
							"internalType": "uint256",
							"name": "demandfees",
							"type": "uint256"
						}
					],
					"name": "addStudent",
					"outputs": [],
					"stateMutability": "nonpayable",
					"type": "function"
				}
			],
			"devdoc": {
				"kind": "dev",
				"methods": {},
				"version": 1
			},
			"evm": {
				"assembly": "    /* \"learning/CourseSelling.sol\":188:1150  contract CourseSelling{\r... */\n  mstore(0x40, 0x80)\n    /* \"learning/CourseSelling.sol\":237:285  constructor(){\r... */\n  callvalue\n  dup1\n  iszero\n  tag_1\n  jumpi\n  0x00\n  dup1\n  revert\ntag_1:\n  pop\n    /* \"learning/CourseSelling.sol\":267:277  msg.sender */\n  caller\n    /* \"learning/CourseSelling.sol\":261:266  owner */\n  0x00\n  dup1\n    /* \"learning/CourseSelling.sol\":261:277  owner=msg.sender */\n  0x0100\n  exp\n  dup2\n  sload\n  dup2\n  0xffffffffffffffffffffffffffffffffffffffff\n  mul\n  not\n  and\n  swap1\n  dup4\n  0xffffffffffffffffffffffffffffffffffffffff\n  and\n  mul\n  or\n  swap1\n  sstore\n  pop\n    /* \"learning/CourseSelling.sol\":188:1150  contract CourseSelling{\r... */\n  dataSize(sub_0)\n  dup1\n  dataOffset(sub_0)\n  0x00\n  codecopy\n  0x00\n  return\nstop\n\nsub_0: assembly {\n        /* \"learning/CourseSelling.sol\":188:1150  contract CourseSelling{\r... */\n      mstore(0x40, 0x80)\n      callvalue\n      dup1\n      iszero\n      tag_1\n      jumpi\n      0x00\n      dup1\n      revert\n    tag_1:\n      pop\n      jumpi(tag_2, lt(calldatasize, 0x04))\n      shr(0xe0, calldataload(0x00))\n      dup1\n      0x5784a16d\n      eq\n      tag_3\n      jumpi\n      dup1\n      0xc1bea1db\n      eq\n      tag_4\n      jumpi\n    tag_2:\n      0x00\n      dup1\n      revert\n        /* \"learning/CourseSelling.sol\":568:761  function addCourse(uint id, string memory name, string memory duration, uint fees) external  checkOwner{\r... */\n    tag_3:\n      tag_5\n      0x04\n      dup1\n      calldatasize\n      sub\n      dup2\n      add\n      swap1\n      tag_6\n      swap2\n      swap1\n      tag_7\n      jump\t// in\n    tag_6:\n      tag_8\n      jump\t// in\n    tag_5:\n      stop\n        /* \"learning/CourseSelling.sol\":968:1147  function addStudent(uint id, string memory name, uint demandfees) external{\r... */\n    tag_4:\n      tag_9\n      0x04\n      dup1\n      calldatasize\n      sub\n      dup2\n      add\n      swap1\n      tag_10\n      swap2\n      swap1\n      tag_11\n      jump\t// in\n    tag_10:\n      tag_12\n      jump\t// in\n    tag_9:\n      stop\n        /* \"learning/CourseSelling.sol\":568:761  function addCourse(uint id, string memory name, string memory duration, uint fees) external  checkOwner{\r... */\n    tag_8:\n        /* \"learning/CourseSelling.sol\":336:346  msg.sender */\n      caller\n        /* \"learning/CourseSelling.sol\":329:346  owner==msg.sender */\n      0xffffffffffffffffffffffffffffffffffffffff\n      and\n        /* \"learning/CourseSelling.sol\":329:334  owner */\n      0x00\n      dup1\n      sload\n      swap1\n      0x0100\n      exp\n      swap1\n      div\n      0xffffffffffffffffffffffffffffffffffffffff\n      and\n        /* \"learning/CourseSelling.sol\":329:346  owner==msg.sender */\n      0xffffffffffffffffffffffffffffffffffffffff\n      and\n      eq\n        /* \"learning/CourseSelling.sol\":321:363  require(owner==msg.sender,\"Access Denied\") */\n      tag_14\n      jumpi\n      mload(0x40)\n      0x08c379a000000000000000000000000000000000000000000000000000000000\n      dup2\n      mstore\n      0x04\n      add\n      tag_15\n      swap1\n      tag_16\n      jump\t// in\n    tag_15:\n      mload(0x40)\n      dup1\n      swap2\n      sub\n      swap1\n      revert\n    tag_14:\n        /* \"learning/CourseSelling.sol\":682:694  allCourseIds */\n      0x02\n        /* \"learning/CourseSelling.sol\":700:702  id */\n      dup5\n        /* \"learning/CourseSelling.sol\":682:703  allCourseIds.push(id) */\n      swap1\n      dup1\n      0x01\n      dup2\n      sload\n      add\n      dup1\n      dup3\n      sstore\n      dup1\n      swap2\n      pop\n      pop\n      0x01\n      swap1\n      sub\n      swap1\n      0x00\n      mstore\n      keccak256(0x00, 0x20)\n      add\n      0x00\n      swap1\n      swap2\n      swap1\n      swap2\n      swap1\n      swap2\n      pop\n      sstore\n        /* \"learning/CourseSelling.sol\":727:753  course(name,duration,fees) */\n      mload(0x40)\n      dup1\n      0x60\n      add\n      0x40\n      mstore\n      dup1\n        /* \"learning/CourseSelling.sol\":734:738  name */\n      dup5\n        /* \"learning/CourseSelling.sol\":727:753  course(name,duration,fees) */\n      dup2\n      mstore\n      0x20\n      add\n        /* \"learning/CourseSelling.sol\":739:747  duration */\n      dup4\n        /* \"learning/CourseSelling.sol\":727:753  course(name,duration,fees) */\n      dup2\n      mstore\n      0x20\n      add\n        /* \"learning/CourseSelling.sol\":748:752  fees */\n      dup3\n        /* \"learning/CourseSelling.sol\":727:753  course(name,duration,fees) */\n      dup2\n      mstore\n      pop\n        /* \"learning/CourseSelling.sol\":713:720  courses */\n      0x01\n        /* \"learning/CourseSelling.sol\":713:724  courses[id] */\n      0x00\n        /* \"learning/CourseSelling.sol\":721:723  id */\n      dup7\n        /* \"learning/CourseSelling.sol\":713:724  courses[id] */\n      dup2\n      mstore\n      0x20\n      add\n      swap1\n      dup2\n      mstore\n      0x20\n      add\n      0x00\n      keccak256\n        /* \"learning/CourseSelling.sol\":713:753  courses[id] = course(name,duration,fees) */\n      0x00\n      dup3\n      add\n      mload\n      dup2\n      0x00\n      add\n      swap1\n      dup1\n      mload\n      swap1\n      0x20\n      add\n      swap1\n      tag_19\n      swap3\n      swap2\n      swap1\n      tag_20\n      jump\t// in\n    tag_19:\n      pop\n      0x20\n      dup3\n      add\n      mload\n      dup2\n      0x01\n      add\n      swap1\n      dup1\n      mload\n      swap1\n      0x20\n      add\n      swap1\n      tag_21\n      swap3\n      swap2\n      swap1\n      tag_20\n      jump\t// in\n    tag_21:\n      pop\n      0x40\n      dup3\n      add\n      mload\n      dup2\n      0x02\n      add\n      sstore\n      swap1\n      pop\n      pop\n        /* \"learning/CourseSelling.sol\":568:761  function addCourse(uint id, string memory name, string memory duration, uint fees) external  checkOwner{\r... */\n      pop\n      pop\n      pop\n      pop\n      jump\t// out\n        /* \"learning/CourseSelling.sol\":968:1147  function addStudent(uint id, string memory name, uint demandfees) external{\r... */\n    tag_12:\n        /* \"learning/CourseSelling.sol\":1053:1067  allStudentsIds */\n      0x04\n        /* \"learning/CourseSelling.sol\":1073:1075  id */\n      dup4\n        /* \"learning/CourseSelling.sol\":1053:1076  allStudentsIds.push(id) */\n      swap1\n      dup1\n      0x01\n      dup2\n      sload\n      add\n      dup1\n      dup3\n      sstore\n      dup1\n      swap2\n      pop\n      pop\n      0x01\n      swap1\n      sub\n      swap1\n      0x00\n      mstore\n      keccak256(0x00, 0x20)\n      add\n      0x00\n      swap1\n      swap2\n      swap1\n      swap2\n      swap1\n      swap2\n      pop\n      sstore\n        /* \"learning/CourseSelling.sol\":1101:1139  student(id,name,demandfees,msg.sender) */\n      mload(0x40)\n      dup1\n      0x80\n      add\n      0x40\n      mstore\n      dup1\n        /* \"learning/CourseSelling.sol\":1109:1111  id */\n      dup5\n        /* \"learning/CourseSelling.sol\":1101:1139  student(id,name,demandfees,msg.sender) */\n      dup2\n      mstore\n      0x20\n      add\n        /* \"learning/CourseSelling.sol\":1112:1116  name */\n      dup4\n        /* \"learning/CourseSelling.sol\":1101:1139  student(id,name,demandfees,msg.sender) */\n      dup2\n      mstore\n      0x20\n      add\n        /* \"learning/CourseSelling.sol\":1117:1127  demandfees */\n      dup3\n        /* \"learning/CourseSelling.sol\":1101:1139  student(id,name,demandfees,msg.sender) */\n      dup2\n      mstore\n      0x20\n      add\n        /* \"learning/CourseSelling.sol\":1128:1138  msg.sender */\n      caller\n        /* \"learning/CourseSelling.sol\":1101:1139  student(id,name,demandfees,msg.sender) */\n      0xffffffffffffffffffffffffffffffffffffffff\n      and\n      dup2\n      mstore\n      pop\n        /* \"learning/CourseSelling.sol\":1086:1094  students */\n      0x03\n        /* \"learning/CourseSelling.sol\":1086:1098  students[id] */\n      0x00\n        /* \"learning/CourseSelling.sol\":1095:1097  id */\n      dup6\n        /* \"learning/CourseSelling.sol\":1086:1098  students[id] */\n      dup2\n      mstore\n      0x20\n      add\n      swap1\n      dup2\n      mstore\n      0x20\n      add\n      0x00\n      keccak256\n        /* \"learning/CourseSelling.sol\":1086:1139  students[id] = student(id,name,demandfees,msg.sender) */\n      0x00\n      dup3\n      add\n      mload\n      dup2\n      0x00\n      add\n      sstore\n      0x20\n      dup3\n      add\n      mload\n      dup2\n      0x01\n      add\n      swap1\n      dup1\n      mload\n      swap1\n      0x20\n      add\n      swap1\n      tag_24\n      swap3\n      swap2\n      swap1\n      tag_20\n      jump\t// in\n    tag_24:\n      pop\n      0x40\n      dup3\n      add\n      mload\n      dup2\n      0x02\n      add\n      sstore\n      0x60\n      dup3\n      add\n      mload\n      dup2\n      0x03\n      add\n      exp(0x0100, 0x00)\n      dup2\n      sload\n      dup2\n      0xffffffffffffffffffffffffffffffffffffffff\n      mul\n      not\n      and\n      swap1\n      dup4\n      0xffffffffffffffffffffffffffffffffffffffff\n      and\n      mul\n      or\n      swap1\n      sstore\n      pop\n      swap1\n      pop\n      pop\n        /* \"learning/CourseSelling.sol\":968:1147  function addStudent(uint id, string memory name, uint demandfees) external{\r... */\n      pop\n      pop\n      pop\n      jump\t// out\n    tag_20:\n      dup3\n      dup1\n      sload\n      tag_25\n      swap1\n      tag_26\n      jump\t// in\n    tag_25:\n      swap1\n      0x00\n      mstore\n      keccak256(0x00, 0x20)\n      swap1\n      0x1f\n      add\n      0x20\n      swap1\n      div\n      dup2\n      add\n      swap3\n      dup3\n      tag_28\n      jumpi\n      0x00\n      dup6\n      sstore\n      jump(tag_27)\n    tag_28:\n      dup3\n      0x1f\n      lt\n      tag_29\n      jumpi\n      dup1\n      mload\n      not(0xff)\n      and\n      dup4\n      dup1\n      add\n      or\n      dup6\n      sstore\n      jump(tag_27)\n    tag_29:\n      dup3\n      dup1\n      add\n      0x01\n      add\n      dup6\n      sstore\n      dup3\n      iszero\n      tag_27\n      jumpi\n      swap2\n      dup3\n      add\n    tag_30:\n      dup3\n      dup2\n      gt\n      iszero\n      tag_31\n      jumpi\n      dup3\n      mload\n      dup3\n      sstore\n      swap2\n      0x20\n      add\n      swap2\n      swap1\n      0x01\n      add\n      swap1\n      jump(tag_30)\n    tag_31:\n    tag_27:\n      pop\n      swap1\n      pop\n      tag_32\n      swap2\n      swap1\n      tag_33\n      jump\t// in\n    tag_32:\n      pop\n      swap1\n      jump\t// out\n    tag_33:\n    tag_34:\n      dup1\n      dup3\n      gt\n      iszero\n      tag_35\n      jumpi\n      0x00\n      dup2\n      0x00\n      swap1\n      sstore\n      pop\n      0x01\n      add\n      jump(tag_34)\n    tag_35:\n      pop\n      swap1\n      jump\t// out\n        /* \"#utility.yul\":7:351   */\n    tag_37:\n      0x00\n        /* \"#utility.yul\":110:175   */\n      tag_39\n        /* \"#utility.yul\":125:174   */\n      tag_40\n        /* \"#utility.yul\":167:173   */\n      dup5\n        /* \"#utility.yul\":125:174   */\n      tag_41\n      jump\t// in\n    tag_40:\n        /* \"#utility.yul\":110:175   */\n      tag_42\n      jump\t// in\n    tag_39:\n        /* \"#utility.yul\":101:175   */\n      swap1\n      pop\n        /* \"#utility.yul\":198:204   */\n      dup3\n        /* \"#utility.yul\":191:196   */\n      dup2\n        /* \"#utility.yul\":184:205   */\n      mstore\n        /* \"#utility.yul\":236:240   */\n      0x20\n        /* \"#utility.yul\":229:234   */\n      dup2\n        /* \"#utility.yul\":225:241   */\n      add\n        /* \"#utility.yul\":274:277   */\n      dup5\n        /* \"#utility.yul\":265:271   */\n      dup5\n        /* \"#utility.yul\":260:263   */\n      dup5\n        /* \"#utility.yul\":256:272   */\n      add\n        /* \"#utility.yul\":253:278   */\n      gt\n        /* \"#utility.yul\":250:252   */\n      iszero\n      tag_43\n      jumpi\n        /* \"#utility.yul\":291:292   */\n      0x00\n        /* \"#utility.yul\":288:289   */\n      dup1\n        /* \"#utility.yul\":281:293   */\n      revert\n        /* \"#utility.yul\":250:252   */\n    tag_43:\n        /* \"#utility.yul\":304:345   */\n      tag_44\n        /* \"#utility.yul\":338:344   */\n      dup5\n        /* \"#utility.yul\":333:336   */\n      dup3\n        /* \"#utility.yul\":328:331   */\n      dup6\n        /* \"#utility.yul\":304:345   */\n      tag_45\n      jump\t// in\n    tag_44:\n        /* \"#utility.yul\":91:351   */\n      pop\n      swap4\n      swap3\n      pop\n      pop\n      pop\n      jump\t// out\n        /* \"#utility.yul\":371:644   */\n    tag_46:\n      0x00\n        /* \"#utility.yul\":476:479   */\n      dup3\n        /* \"#utility.yul\":469:473   */\n      0x1f\n        /* \"#utility.yul\":461:467   */\n      dup4\n        /* \"#utility.yul\":457:474   */\n      add\n        /* \"#utility.yul\":453:480   */\n      slt\n        /* \"#utility.yul\":443:445   */\n      tag_48\n      jumpi\n        /* \"#utility.yul\":494:495   */\n      0x00\n        /* \"#utility.yul\":491:492   */\n      dup1\n        /* \"#utility.yul\":484:496   */\n      revert\n        /* \"#utility.yul\":443:445   */\n    tag_48:\n        /* \"#utility.yul\":534:540   */\n      dup2\n        /* \"#utility.yul\":521:541   */\n      calldataload\n        /* \"#utility.yul\":559:638   */\n      tag_49\n        /* \"#utility.yul\":634:637   */\n      dup5\n        /* \"#utility.yul\":626:632   */\n      dup3\n        /* \"#utility.yul\":619:623   */\n      0x20\n        /* \"#utility.yul\":611:617   */\n      dup7\n        /* \"#utility.yul\":607:624   */\n      add\n        /* \"#utility.yul\":559:638   */\n      tag_37\n      jump\t// in\n    tag_49:\n        /* \"#utility.yul\":550:638   */\n      swap2\n      pop\n        /* \"#utility.yul\":433:644   */\n      pop\n      swap3\n      swap2\n      pop\n      pop\n      jump\t// out\n        /* \"#utility.yul\":650:789   */\n    tag_50:\n      0x00\n        /* \"#utility.yul\":734:740   */\n      dup2\n        /* \"#utility.yul\":721:741   */\n      calldataload\n        /* \"#utility.yul\":712:741   */\n      swap1\n      pop\n        /* \"#utility.yul\":750:783   */\n      tag_52\n        /* \"#utility.yul\":777:782   */\n      dup2\n        /* \"#utility.yul\":750:783   */\n      tag_53\n      jump\t// in\n    tag_52:\n        /* \"#utility.yul\":702:789   */\n      swap3\n      swap2\n      pop\n      pop\n      jump\t// out\n        /* \"#utility.yul\":795:1719   */\n    tag_7:\n      0x00\n      dup1\n      0x00\n      dup1\n        /* \"#utility.yul\":974:977   */\n      0x80\n        /* \"#utility.yul\":962:971   */\n      dup6\n        /* \"#utility.yul\":953:960   */\n      dup8\n        /* \"#utility.yul\":949:972   */\n      sub\n        /* \"#utility.yul\":945:978   */\n      slt\n        /* \"#utility.yul\":942:944   */\n      iszero\n      tag_55\n      jumpi\n        /* \"#utility.yul\":991:992   */\n      0x00\n        /* \"#utility.yul\":988:989   */\n      dup1\n        /* \"#utility.yul\":981:993   */\n      revert\n        /* \"#utility.yul\":942:944   */\n    tag_55:\n        /* \"#utility.yul\":1034:1035   */\n      0x00\n        /* \"#utility.yul\":1059:1112   */\n      tag_56\n        /* \"#utility.yul\":1104:1111   */\n      dup8\n        /* \"#utility.yul\":1095:1101   */\n      dup3\n        /* \"#utility.yul\":1084:1093   */\n      dup9\n        /* \"#utility.yul\":1080:1102   */\n      add\n        /* \"#utility.yul\":1059:1112   */\n      tag_50\n      jump\t// in\n    tag_56:\n        /* \"#utility.yul\":1049:1112   */\n      swap5\n      pop\n        /* \"#utility.yul\":1005:1122   */\n      pop\n        /* \"#utility.yul\":1189:1191   */\n      0x20\n        /* \"#utility.yul\":1178:1187   */\n      dup6\n        /* \"#utility.yul\":1174:1192   */\n      add\n        /* \"#utility.yul\":1161:1193   */\n      calldataload\n        /* \"#utility.yul\":1220:1238   */\n      0xffffffffffffffff\n        /* \"#utility.yul\":1212:1218   */\n      dup2\n        /* \"#utility.yul\":1209:1239   */\n      gt\n        /* \"#utility.yul\":1206:1208   */\n      iszero\n      tag_57\n      jumpi\n        /* \"#utility.yul\":1252:1253   */\n      0x00\n        /* \"#utility.yul\":1249:1250   */\n      dup1\n        /* \"#utility.yul\":1242:1254   */\n      revert\n        /* \"#utility.yul\":1206:1208   */\n    tag_57:\n        /* \"#utility.yul\":1280:1343   */\n      tag_58\n        /* \"#utility.yul\":1335:1342   */\n      dup8\n        /* \"#utility.yul\":1326:1332   */\n      dup3\n        /* \"#utility.yul\":1315:1324   */\n      dup9\n        /* \"#utility.yul\":1311:1333   */\n      add\n        /* \"#utility.yul\":1280:1343   */\n      tag_46\n      jump\t// in\n    tag_58:\n        /* \"#utility.yul\":1270:1343   */\n      swap4\n      pop\n        /* \"#utility.yul\":1132:1353   */\n      pop\n        /* \"#utility.yul\":1420:1422   */\n      0x40\n        /* \"#utility.yul\":1409:1418   */\n      dup6\n        /* \"#utility.yul\":1405:1423   */\n      add\n        /* \"#utility.yul\":1392:1424   */\n      calldataload\n        /* \"#utility.yul\":1451:1469   */\n      0xffffffffffffffff\n        /* \"#utility.yul\":1443:1449   */\n      dup2\n        /* \"#utility.yul\":1440:1470   */\n      gt\n        /* \"#utility.yul\":1437:1439   */\n      iszero\n      tag_59\n      jumpi\n        /* \"#utility.yul\":1483:1484   */\n      0x00\n        /* \"#utility.yul\":1480:1481   */\n      dup1\n        /* \"#utility.yul\":1473:1485   */\n      revert\n        /* \"#utility.yul\":1437:1439   */\n    tag_59:\n        /* \"#utility.yul\":1511:1574   */\n      tag_60\n        /* \"#utility.yul\":1566:1573   */\n      dup8\n        /* \"#utility.yul\":1557:1563   */\n      dup3\n        /* \"#utility.yul\":1546:1555   */\n      dup9\n        /* \"#utility.yul\":1542:1564   */\n      add\n        /* \"#utility.yul\":1511:1574   */\n      tag_46\n      jump\t// in\n    tag_60:\n        /* \"#utility.yul\":1501:1574   */\n      swap3\n      pop\n        /* \"#utility.yul\":1363:1584   */\n      pop\n        /* \"#utility.yul\":1623:1625   */\n      0x60\n        /* \"#utility.yul\":1649:1702   */\n      tag_61\n        /* \"#utility.yul\":1694:1701   */\n      dup8\n        /* \"#utility.yul\":1685:1691   */\n      dup3\n        /* \"#utility.yul\":1674:1683   */\n      dup9\n        /* \"#utility.yul\":1670:1692   */\n      add\n        /* \"#utility.yul\":1649:1702   */\n      tag_50\n      jump\t// in\n    tag_61:\n        /* \"#utility.yul\":1639:1702   */\n      swap2\n      pop\n        /* \"#utility.yul\":1594:1712   */\n      pop\n        /* \"#utility.yul\":932:1719   */\n      swap3\n      swap6\n      swap2\n      swap5\n      pop\n      swap3\n      pop\n      jump\t// out\n        /* \"#utility.yul\":1725:2390   */\n    tag_11:\n      0x00\n      dup1\n      0x00\n        /* \"#utility.yul\":1877:1879   */\n      0x60\n        /* \"#utility.yul\":1865:1874   */\n      dup5\n        /* \"#utility.yul\":1856:1863   */\n      dup7\n        /* \"#utility.yul\":1852:1875   */\n      sub\n        /* \"#utility.yul\":1848:1880   */\n      slt\n        /* \"#utility.yul\":1845:1847   */\n      iszero\n      tag_63\n      jumpi\n        /* \"#utility.yul\":1893:1894   */\n      0x00\n        /* \"#utility.yul\":1890:1891   */\n      dup1\n        /* \"#utility.yul\":1883:1895   */\n      revert\n        /* \"#utility.yul\":1845:1847   */\n    tag_63:\n        /* \"#utility.yul\":1936:1937   */\n      0x00\n        /* \"#utility.yul\":1961:2014   */\n      tag_64\n        /* \"#utility.yul\":2006:2013   */\n      dup7\n        /* \"#utility.yul\":1997:2003   */\n      dup3\n        /* \"#utility.yul\":1986:1995   */\n      dup8\n        /* \"#utility.yul\":1982:2004   */\n      add\n        /* \"#utility.yul\":1961:2014   */\n      tag_50\n      jump\t// in\n    tag_64:\n        /* \"#utility.yul\":1951:2014   */\n      swap4\n      pop\n        /* \"#utility.yul\":1907:2024   */\n      pop\n        /* \"#utility.yul\":2091:2093   */\n      0x20\n        /* \"#utility.yul\":2080:2089   */\n      dup5\n        /* \"#utility.yul\":2076:2094   */\n      add\n        /* \"#utility.yul\":2063:2095   */\n      calldataload\n        /* \"#utility.yul\":2122:2140   */\n      0xffffffffffffffff\n        /* \"#utility.yul\":2114:2120   */\n      dup2\n        /* \"#utility.yul\":2111:2141   */\n      gt\n        /* \"#utility.yul\":2108:2110   */\n      iszero\n      tag_65\n      jumpi\n        /* \"#utility.yul\":2154:2155   */\n      0x00\n        /* \"#utility.yul\":2151:2152   */\n      dup1\n        /* \"#utility.yul\":2144:2156   */\n      revert\n        /* \"#utility.yul\":2108:2110   */\n    tag_65:\n        /* \"#utility.yul\":2182:2245   */\n      tag_66\n        /* \"#utility.yul\":2237:2244   */\n      dup7\n        /* \"#utility.yul\":2228:2234   */\n      dup3\n        /* \"#utility.yul\":2217:2226   */\n      dup8\n        /* \"#utility.yul\":2213:2235   */\n      add\n        /* \"#utility.yul\":2182:2245   */\n      tag_46\n      jump\t// in\n    tag_66:\n        /* \"#utility.yul\":2172:2245   */\n      swap3\n      pop\n        /* \"#utility.yul\":2034:2255   */\n      pop\n        /* \"#utility.yul\":2294:2296   */\n      0x40\n        /* \"#utility.yul\":2320:2373   */\n      tag_67\n        /* \"#utility.yul\":2365:2372   */\n      dup7\n        /* \"#utility.yul\":2356:2362   */\n      dup3\n        /* \"#utility.yul\":2345:2354   */\n      dup8\n        /* \"#utility.yul\":2341:2363   */\n      add\n        /* \"#utility.yul\":2320:2373   */\n      tag_50\n      jump\t// in\n    tag_67:\n        /* \"#utility.yul\":2310:2373   */\n      swap2\n      pop\n        /* \"#utility.yul\":2265:2383   */\n      pop\n        /* \"#utility.yul\":1835:2390   */\n      swap3\n      pop\n      swap3\n      pop\n      swap3\n      jump\t// out\n        /* \"#utility.yul\":2396:2707   */\n    tag_68:\n      0x00\n        /* \"#utility.yul\":2559:2626   */\n      tag_70\n        /* \"#utility.yul\":2623:2625   */\n      0x0d\n        /* \"#utility.yul\":2618:2621   */\n      dup4\n        /* \"#utility.yul\":2559:2626   */\n      tag_71\n      jump\t// in\n    tag_70:\n        /* \"#utility.yul\":2552:2626   */\n      swap2\n      pop\n        /* \"#utility.yul\":2656:2671   */\n      0x4163636573732044656e69656400000000000000000000000000000000000000\n        /* \"#utility.yul\":2652:2653   */\n      0x00\n        /* \"#utility.yul\":2647:2650   */\n      dup4\n        /* \"#utility.yul\":2643:2654   */\n      add\n        /* \"#utility.yul\":2636:2672   */\n      mstore\n        /* \"#utility.yul\":2698:2700   */\n      0x20\n        /* \"#utility.yul\":2693:2696   */\n      dup3\n        /* \"#utility.yul\":2689:2701   */\n      add\n        /* \"#utility.yul\":2682:2701   */\n      swap1\n      pop\n        /* \"#utility.yul\":2542:2707   */\n      swap2\n      swap1\n      pop\n      jump\t// out\n        /* \"#utility.yul\":2713:3132   */\n    tag_16:\n      0x00\n        /* \"#utility.yul\":2917:2919   */\n      0x20\n        /* \"#utility.yul\":2906:2915   */\n      dup3\n        /* \"#utility.yul\":2902:2920   */\n      add\n        /* \"#utility.yul\":2894:2920   */\n      swap1\n      pop\n        /* \"#utility.yul\":2966:2975   */\n      dup2\n        /* \"#utility.yul\":2960:2964   */\n      dup2\n        /* \"#utility.yul\":2956:2976   */\n      sub\n        /* \"#utility.yul\":2952:2953   */\n      0x00\n        /* \"#utility.yul\":2941:2950   */\n      dup4\n        /* \"#utility.yul\":2937:2954   */\n      add\n        /* \"#utility.yul\":2930:2977   */\n      mstore\n        /* \"#utility.yul\":2994:3125   */\n      tag_73\n        /* \"#utility.yul\":3120:3124   */\n      dup2\n        /* \"#utility.yul\":2994:3125   */\n      tag_68\n      jump\t// in\n    tag_73:\n        /* \"#utility.yul\":2986:3125   */\n      swap1\n      pop\n        /* \"#utility.yul\":2884:3132   */\n      swap2\n      swap1\n      pop\n      jump\t// out\n        /* \"#utility.yul\":3138:3421   */\n    tag_42:\n      0x00\n        /* \"#utility.yul\":3204:3206   */\n      0x40\n        /* \"#utility.yul\":3198:3207   */\n      mload\n        /* \"#utility.yul\":3188:3207   */\n      swap1\n      pop\n        /* \"#utility.yul\":3246:3250   */\n      dup2\n        /* \"#utility.yul\":3238:3244   */\n      dup2\n        /* \"#utility.yul\":3234:3251   */\n      add\n        /* \"#utility.yul\":3353:3359   */\n      dup2\n        /* \"#utility.yul\":3341:3351   */\n      dup2\n        /* \"#utility.yul\":3338:3360   */\n      lt\n        /* \"#utility.yul\":3317:3335   */\n      0xffffffffffffffff\n        /* \"#utility.yul\":3305:3315   */\n      dup3\n        /* \"#utility.yul\":3302:3336   */\n      gt\n        /* \"#utility.yul\":3299:3361   */\n      or\n        /* \"#utility.yul\":3296:3298   */\n      iszero\n      tag_75\n      jumpi\n        /* \"#utility.yul\":3364:3382   */\n      tag_76\n      tag_77\n      jump\t// in\n    tag_76:\n        /* \"#utility.yul\":3296:3298   */\n    tag_75:\n        /* \"#utility.yul\":3404:3414   */\n      dup1\n        /* \"#utility.yul\":3400:3402   */\n      0x40\n        /* \"#utility.yul\":3393:3415   */\n      mstore\n        /* \"#utility.yul\":3178:3421   */\n      pop\n      swap2\n      swap1\n      pop\n      jump\t// out\n        /* \"#utility.yul\":3427:3759   */\n    tag_41:\n      0x00\n        /* \"#utility.yul\":3579:3597   */\n      0xffffffffffffffff\n        /* \"#utility.yul\":3571:3577   */\n      dup3\n        /* \"#utility.yul\":3568:3598   */\n      gt\n        /* \"#utility.yul\":3565:3567   */\n      iszero\n      tag_79\n      jumpi\n        /* \"#utility.yul\":3601:3619   */\n      tag_80\n      tag_77\n      jump\t// in\n    tag_80:\n        /* \"#utility.yul\":3565:3567   */\n    tag_79:\n        /* \"#utility.yul\":3686:3690   */\n      0x1f\n        /* \"#utility.yul\":3682:3691   */\n      not\n        /* \"#utility.yul\":3675:3679   */\n      0x1f\n        /* \"#utility.yul\":3667:3673   */\n      dup4\n        /* \"#utility.yul\":3663:3680   */\n      add\n        /* \"#utility.yul\":3659:3692   */\n      and\n        /* \"#utility.yul\":3651:3692   */\n      swap1\n      pop\n        /* \"#utility.yul\":3747:3751   */\n      0x20\n        /* \"#utility.yul\":3741:3745   */\n      dup2\n        /* \"#utility.yul\":3737:3752   */\n      add\n        /* \"#utility.yul\":3729:3752   */\n      swap1\n      pop\n        /* \"#utility.yul\":3494:3759   */\n      swap2\n      swap1\n      pop\n      jump\t// out\n        /* \"#utility.yul\":3765:3934   */\n    tag_71:\n      0x00\n        /* \"#utility.yul\":3883:3889   */\n      dup3\n        /* \"#utility.yul\":3878:3881   */\n      dup3\n        /* \"#utility.yul\":3871:3890   */\n      mstore\n        /* \"#utility.yul\":3923:3927   */\n      0x20\n        /* \"#utility.yul\":3918:3921   */\n      dup3\n        /* \"#utility.yul\":3914:3928   */\n      add\n        /* \"#utility.yul\":3899:3928   */\n      swap1\n      pop\n        /* \"#utility.yul\":3861:3934   */\n      swap3\n      swap2\n      pop\n      pop\n      jump\t// out\n        /* \"#utility.yul\":3940:4017   */\n    tag_82:\n      0x00\n        /* \"#utility.yul\":4006:4011   */\n      dup2\n        /* \"#utility.yul\":3995:4011   */\n      swap1\n      pop\n        /* \"#utility.yul\":3985:4017   */\n      swap2\n      swap1\n      pop\n      jump\t// out\n        /* \"#utility.yul\":4023:4177   */\n    tag_45:\n        /* \"#utility.yul\":4107:4113   */\n      dup3\n        /* \"#utility.yul\":4102:4105   */\n      dup2\n        /* \"#utility.yul\":4097:4100   */\n      dup4\n        /* \"#utility.yul\":4084:4114   */\n      calldatacopy\n        /* \"#utility.yul\":4169:4170   */\n      0x00\n        /* \"#utility.yul\":4160:4166   */\n      dup4\n        /* \"#utility.yul\":4155:4158   */\n      dup4\n        /* \"#utility.yul\":4151:4167   */\n      add\n        /* \"#utility.yul\":4144:4171   */\n      mstore\n        /* \"#utility.yul\":4074:4177   */\n      pop\n      pop\n      pop\n      jump\t// out\n        /* \"#utility.yul\":4183:4503   */\n    tag_26:\n      0x00\n        /* \"#utility.yul\":4264:4265   */\n      0x02\n        /* \"#utility.yul\":4258:4262   */\n      dup3\n        /* \"#utility.yul\":4254:4266   */\n      div\n        /* \"#utility.yul\":4244:4266   */\n      swap1\n      pop\n        /* \"#utility.yul\":4311:4312   */\n      0x01\n        /* \"#utility.yul\":4305:4309   */\n      dup3\n        /* \"#utility.yul\":4301:4313   */\n      and\n        /* \"#utility.yul\":4332:4350   */\n      dup1\n        /* \"#utility.yul\":4322:4324   */\n      tag_86\n      jumpi\n        /* \"#utility.yul\":4388:4392   */\n      0x7f\n        /* \"#utility.yul\":4380:4386   */\n      dup3\n        /* \"#utility.yul\":4376:4393   */\n      and\n        /* \"#utility.yul\":4366:4393   */\n      swap2\n      pop\n        /* \"#utility.yul\":4322:4324   */\n    tag_86:\n        /* \"#utility.yul\":4450:4452   */\n      0x20\n        /* \"#utility.yul\":4442:4448   */\n      dup3\n        /* \"#utility.yul\":4439:4453   */\n      lt\n        /* \"#utility.yul\":4419:4437   */\n      dup2\n        /* \"#utility.yul\":4416:4454   */\n      eq\n        /* \"#utility.yul\":4413:4415   */\n      iszero\n      tag_87\n      jumpi\n        /* \"#utility.yul\":4469:4487   */\n      tag_88\n      tag_89\n      jump\t// in\n    tag_88:\n        /* \"#utility.yul\":4413:4415   */\n    tag_87:\n        /* \"#utility.yul\":4234:4503   */\n      pop\n      swap2\n      swap1\n      pop\n      jump\t// out\n        /* \"#utility.yul\":4509:4689   */\n    tag_89:\n        /* \"#utility.yul\":4557:4634   */\n      0x4e487b7100000000000000000000000000000000000000000000000000000000\n        /* \"#utility.yul\":4554:4555   */\n      0x00\n        /* \"#utility.yul\":4547:4635   */\n      mstore\n        /* \"#utility.yul\":4654:4658   */\n      0x22\n        /* \"#utility.yul\":4651:4652   */\n      0x04\n        /* \"#utility.yul\":4644:4659   */\n      mstore\n        /* \"#utility.yul\":4678:4682   */\n      0x24\n        /* \"#utility.yul\":4675:4676   */\n      0x00\n        /* \"#utility.yul\":4668:4683   */\n      revert\n        /* \"#utility.yul\":4695:4875   */\n    tag_77:\n        /* \"#utility.yul\":4743:4820   */\n      0x4e487b7100000000000000000000000000000000000000000000000000000000\n        /* \"#utility.yul\":4740:4741   */\n      0x00\n        /* \"#utility.yul\":4733:4821   */\n      mstore\n        /* \"#utility.yul\":4840:4844   */\n      0x41\n        /* \"#utility.yul\":4837:4838   */\n      0x04\n        /* \"#utility.yul\":4830:4845   */\n      mstore\n        /* \"#utility.yul\":4864:4868   */\n      0x24\n        /* \"#utility.yul\":4861:4862   */\n      0x00\n        /* \"#utility.yul\":4854:4869   */\n      revert\n        /* \"#utility.yul\":4881:5003   */\n    tag_53:\n        /* \"#utility.yul\":4954:4978   */\n      tag_93\n        /* \"#utility.yul\":4972:4977   */\n      dup2\n        /* \"#utility.yul\":4954:4978   */\n      tag_82\n      jump\t// in\n    tag_93:\n        /* \"#utility.yul\":4947:4952   */\n      dup2\n        /* \"#utility.yul\":4944:4979   */\n      eq\n        /* \"#utility.yul\":4934:4936   */\n      tag_94\n      jumpi\n        /* \"#utility.yul\":4993:4994   */\n      0x00\n        /* \"#utility.yul\":4990:4991   */\n      dup1\n        /* \"#utility.yul\":4983:4995   */\n      revert\n        /* \"#utility.yul\":4934:4936   */\n    tag_94:\n        /* \"#utility.yul\":4924:5003   */\n      pop\n      jump\t// out\n\n    auxdata: 0xa2646970667358221220c188a5e2a9b5b80412c2dbc88c9df13bb854f23685481840655e8d440d93cf2464736f6c63430008000033\n}\n",
				"bytecode": {
					"linkReferences": {},
					"object": "608060405234801561001057600080fd5b50336000806101000a81548173ffffffffffffffffffffffffffffffffffffffff021916908373ffffffffffffffffffffffffffffffffffffffff16021790555061067a806100606000396000f3fe608060405234801561001057600080fd5b50600436106100365760003560e01c80635784a16d1461003b578063c1bea1db14610057575b600080fd5b610055600480360381019061005091906103b8565b610073565b005b610071600480360381019061006c919061044b565b6101a5565b005b3373ffffffffffffffffffffffffffffffffffffffff1660008054906101000a900473ffffffffffffffffffffffffffffffffffffffff1673ffffffffffffffffffffffffffffffffffffffff1614610101576040517f08c379a00000000000000000000000000000000000000000000000000000000081526004016100f8906104f2565b60405180910390fd5b6002849080600181540180825580915050600190039060005260206000200160009091909190915055604051806060016040528084815260200183815260200182815250600160008681526020019081526020016000206000820151816000019080519060200190610174929190610298565b506020820151816001019080519060200190610191929190610298565b506040820151816002015590505050505050565b600483908060018154018082558091505060019003906000526020600020016000909190919091505560405180608001604052808481526020018381526020018281526020013373ffffffffffffffffffffffffffffffffffffffff168152506003600085815260200190815260200160002060008201518160000155602082015181600101908051906020019061023e929190610298565b506040820151816002015560608201518160030160006101000a81548173ffffffffffffffffffffffffffffffffffffffff021916908373ffffffffffffffffffffffffffffffffffffffff160217905550905050505050565b8280546102a49061059d565b90600052602060002090601f0160209004810192826102c6576000855561030d565b82601f106102df57805160ff191683800117855561030d565b8280016001018555821561030d579182015b8281111561030c5782518255916020019190600101906102f1565b5b50905061031a919061031e565b5090565b5b8082111561033757600081600090555060010161031f565b5090565b600061034e61034984610543565b610512565b90508281526020810184848401111561036657600080fd5b61037184828561058e565b509392505050565b600082601f83011261038a57600080fd5b813561039a84826020860161033b565b91505092915050565b6000813590506103b28161062d565b92915050565b600080600080608085870312156103ce57600080fd5b60006103dc878288016103a3565b945050602085013567ffffffffffffffff8111156103f957600080fd5b61040587828801610379565b935050604085013567ffffffffffffffff81111561042257600080fd5b61042e87828801610379565b925050606061043f878288016103a3565b91505092959194509250565b60008060006060848603121561046057600080fd5b600061046e868287016103a3565b935050602084013567ffffffffffffffff81111561048b57600080fd5b61049786828701610379565b92505060406104a8868287016103a3565b9150509250925092565b60006104bf600d83610573565b91507f4163636573732044656e696564000000000000000000000000000000000000006000830152602082019050919050565b6000602082019050818103600083015261050b816104b2565b9050919050565b6000604051905081810181811067ffffffffffffffff82111715610539576105386105fe565b5b8060405250919050565b600067ffffffffffffffff82111561055e5761055d6105fe565b5b601f19601f8301169050602081019050919050565b600082825260208201905092915050565b6000819050919050565b82818337600083830152505050565b600060028204905060018216806105b557607f821691505b602082108114156105c9576105c86105cf565b5b50919050565b7f4e487b7100000000000000000000000000000000000000000000000000000000600052602260045260246000fd5b7f4e487b7100000000000000000000000000000000000000000000000000000000600052604160045260246000fd5b61063681610584565b811461064157600080fd5b5056fea2646970667358221220c188a5e2a9b5b80412c2dbc88c9df13bb854f23685481840655e8d440d93cf2464736f6c63430008000033",
					"opcodes": "PUSH1 0x80 PUSH1 0x40 MSTORE CALLVALUE DUP1 ISZERO PUSH2 0x10 JUMPI PUSH1 0x0 DUP1 REVERT JUMPDEST POP CALLER PUSH1 0x0 DUP1 PUSH2 0x100 EXP DUP2 SLOAD DUP2 PUSH20 0xFFFFFFFFFFFFFFFFFFFFFFFFFFFFFFFFFFFFFFFF MUL NOT AND SWAP1 DUP4 PUSH20 0xFFFFFFFFFFFFFFFFFFFFFFFFFFFFFFFFFFFFFFFF AND MUL OR SWAP1 SSTORE POP PUSH2 0x67A DUP1 PUSH2 0x60 PUSH1 0x0 CODECOPY PUSH1 0x0 RETURN INVALID PUSH1 0x80 PUSH1 0x40 MSTORE CALLVALUE DUP1 ISZERO PUSH2 0x10 JUMPI PUSH1 0x0 DUP1 REVERT JUMPDEST POP PUSH1 0x4 CALLDATASIZE LT PUSH2 0x36 JUMPI PUSH1 0x0 CALLDATALOAD PUSH1 0xE0 SHR DUP1 PUSH4 0x5784A16D EQ PUSH2 0x3B JUMPI DUP1 PUSH4 0xC1BEA1DB EQ PUSH2 0x57 JUMPI JUMPDEST PUSH1 0x0 DUP1 REVERT JUMPDEST PUSH2 0x55 PUSH1 0x4 DUP1 CALLDATASIZE SUB DUP2 ADD SWAP1 PUSH2 0x50 SWAP2 SWAP1 PUSH2 0x3B8 JUMP JUMPDEST PUSH2 0x73 JUMP JUMPDEST STOP JUMPDEST PUSH2 0x71 PUSH1 0x4 DUP1 CALLDATASIZE SUB DUP2 ADD SWAP1 PUSH2 0x6C SWAP2 SWAP1 PUSH2 0x44B JUMP JUMPDEST PUSH2 0x1A5 JUMP JUMPDEST STOP JUMPDEST CALLER PUSH20 0xFFFFFFFFFFFFFFFFFFFFFFFFFFFFFFFFFFFFFFFF AND PUSH1 0x0 DUP1 SLOAD SWAP1 PUSH2 0x100 EXP SWAP1 DIV PUSH20 0xFFFFFFFFFFFFFFFFFFFFFFFFFFFFFFFFFFFFFFFF AND PUSH20 0xFFFFFFFFFFFFFFFFFFFFFFFFFFFFFFFFFFFFFFFF AND EQ PUSH2 0x101 JUMPI PUSH1 0x40 MLOAD PUSH32 0x8C379A000000000000000000000000000000000000000000000000000000000 DUP2 MSTORE PUSH1 0x4 ADD PUSH2 0xF8 SWAP1 PUSH2 0x4F2 JUMP JUMPDEST PUSH1 0x40 MLOAD DUP1 SWAP2 SUB SWAP1 REVERT JUMPDEST PUSH1 0x2 DUP5 SWAP1 DUP1 PUSH1 0x1 DUP2 SLOAD ADD DUP1 DUP3 SSTORE DUP1 SWAP2 POP POP PUSH1 0x1 SWAP1 SUB SWAP1 PUSH1 0x0 MSTORE PUSH1 0x20 PUSH1 0x0 KECCAK256 ADD PUSH1 0x0 SWAP1 SWAP2 SWAP1 SWAP2 SWAP1 SWAP2 POP SSTORE PUSH1 0x40 MLOAD DUP1 PUSH1 0x60 ADD PUSH1 0x40 MSTORE DUP1 DUP5 DUP2 MSTORE PUSH1 0x20 ADD DUP4 DUP2 MSTORE PUSH1 0x20 ADD DUP3 DUP2 MSTORE POP PUSH1 0x1 PUSH1 0x0 DUP7 DUP2 MSTORE PUSH1 0x20 ADD SWAP1 DUP2 MSTORE PUSH1 0x20 ADD PUSH1 0x0 KECCAK256 PUSH1 0x0 DUP3 ADD MLOAD DUP2 PUSH1 0x0 ADD SWAP1 DUP1 MLOAD SWAP1 PUSH1 0x20 ADD SWAP1 PUSH2 0x174 SWAP3 SWAP2 SWAP1 PUSH2 0x298 JUMP JUMPDEST POP PUSH1 0x20 DUP3 ADD MLOAD DUP2 PUSH1 0x1 ADD SWAP1 DUP1 MLOAD SWAP1 PUSH1 0x20 ADD SWAP1 PUSH2 0x191 SWAP3 SWAP2 SWAP1 PUSH2 0x298 JUMP JUMPDEST POP PUSH1 0x40 DUP3 ADD MLOAD DUP2 PUSH1 0x2 ADD SSTORE SWAP1 POP POP POP POP POP POP JUMP JUMPDEST PUSH1 0x4 DUP4 SWAP1 DUP1 PUSH1 0x1 DUP2 SLOAD ADD DUP1 DUP3 SSTORE DUP1 SWAP2 POP POP PUSH1 0x1 SWAP1 SUB SWAP1 PUSH1 0x0 MSTORE PUSH1 0x20 PUSH1 0x0 KECCAK256 ADD PUSH1 0x0 SWAP1 SWAP2 SWAP1 SWAP2 SWAP1 SWAP2 POP SSTORE PUSH1 0x40 MLOAD DUP1 PUSH1 0x80 ADD PUSH1 0x40 MSTORE DUP1 DUP5 DUP2 MSTORE PUSH1 0x20 ADD DUP4 DUP2 MSTORE PUSH1 0x20 ADD DUP3 DUP2 MSTORE PUSH1 0x20 ADD CALLER PUSH20 0xFFFFFFFFFFFFFFFFFFFFFFFFFFFFFFFFFFFFFFFF AND DUP2 MSTORE POP PUSH1 0x3 PUSH1 0x0 DUP6 DUP2 MSTORE PUSH1 0x20 ADD SWAP1 DUP2 MSTORE PUSH1 0x20 ADD PUSH1 0x0 KECCAK256 PUSH1 0x0 DUP3 ADD MLOAD DUP2 PUSH1 0x0 ADD SSTORE PUSH1 0x20 DUP3 ADD MLOAD DUP2 PUSH1 0x1 ADD SWAP1 DUP1 MLOAD SWAP1 PUSH1 0x20 ADD SWAP1 PUSH2 0x23E SWAP3 SWAP2 SWAP1 PUSH2 0x298 JUMP JUMPDEST POP PUSH1 0x40 DUP3 ADD MLOAD DUP2 PUSH1 0x2 ADD SSTORE PUSH1 0x60 DUP3 ADD MLOAD DUP2 PUSH1 0x3 ADD PUSH1 0x0 PUSH2 0x100 EXP DUP2 SLOAD DUP2 PUSH20 0xFFFFFFFFFFFFFFFFFFFFFFFFFFFFFFFFFFFFFFFF MUL NOT AND SWAP1 DUP4 PUSH20 0xFFFFFFFFFFFFFFFFFFFFFFFFFFFFFFFFFFFFFFFF AND MUL OR SWAP1 SSTORE POP SWAP1 POP POP POP POP POP JUMP JUMPDEST DUP3 DUP1 SLOAD PUSH2 0x2A4 SWAP1 PUSH2 0x59D JUMP JUMPDEST SWAP1 PUSH1 0x0 MSTORE PUSH1 0x20 PUSH1 0x0 KECCAK256 SWAP1 PUSH1 0x1F ADD PUSH1 0x20 SWAP1 DIV DUP2 ADD SWAP3 DUP3 PUSH2 0x2C6 JUMPI PUSH1 0x0 DUP6 SSTORE PUSH2 0x30D JUMP JUMPDEST DUP3 PUSH1 0x1F LT PUSH2 0x2DF JUMPI DUP1 MLOAD PUSH1 0xFF NOT AND DUP4 DUP1 ADD OR DUP6 SSTORE PUSH2 0x30D JUMP JUMPDEST DUP3 DUP1 ADD PUSH1 0x1 ADD DUP6 SSTORE DUP3 ISZERO PUSH2 0x30D JUMPI SWAP2 DUP3 ADD JUMPDEST DUP3 DUP2 GT ISZERO PUSH2 0x30C JUMPI DUP3 MLOAD DUP3 SSTORE SWAP2 PUSH1 0x20 ADD SWAP2 SWAP1 PUSH1 0x1 ADD SWAP1 PUSH2 0x2F1 JUMP JUMPDEST JUMPDEST POP SWAP1 POP PUSH2 0x31A SWAP2 SWAP1 PUSH2 0x31E JUMP JUMPDEST POP SWAP1 JUMP JUMPDEST JUMPDEST DUP1 DUP3 GT ISZERO PUSH2 0x337 JUMPI PUSH1 0x0 DUP2 PUSH1 0x0 SWAP1 SSTORE POP PUSH1 0x1 ADD PUSH2 0x31F JUMP JUMPDEST POP SWAP1 JUMP JUMPDEST PUSH1 0x0 PUSH2 0x34E PUSH2 0x349 DUP5 PUSH2 0x543 JUMP JUMPDEST PUSH2 0x512 JUMP JUMPDEST SWAP1 POP DUP3 DUP2 MSTORE PUSH1 0x20 DUP2 ADD DUP5 DUP5 DUP5 ADD GT ISZERO PUSH2 0x366 JUMPI PUSH1 0x0 DUP1 REVERT JUMPDEST PUSH2 0x371 DUP5 DUP3 DUP6 PUSH2 0x58E JUMP JUMPDEST POP SWAP4 SWAP3 POP POP POP JUMP JUMPDEST PUSH1 0x0 DUP3 PUSH1 0x1F DUP4 ADD SLT PUSH2 0x38A JUMPI PUSH1 0x0 DUP1 REVERT JUMPDEST DUP2 CALLDATALOAD PUSH2 0x39A DUP5 DUP3 PUSH1 0x20 DUP7 ADD PUSH2 0x33B JUMP JUMPDEST SWAP2 POP POP SWAP3 SWAP2 POP POP JUMP JUMPDEST PUSH1 0x0 DUP2 CALLDATALOAD SWAP1 POP PUSH2 0x3B2 DUP2 PUSH2 0x62D JUMP JUMPDEST SWAP3 SWAP2 POP POP JUMP JUMPDEST PUSH1 0x0 DUP1 PUSH1 0x0 DUP1 PUSH1 0x80 DUP6 DUP8 SUB SLT ISZERO PUSH2 0x3CE JUMPI PUSH1 0x0 DUP1 REVERT JUMPDEST PUSH1 0x0 PUSH2 0x3DC DUP8 DUP3 DUP9 ADD PUSH2 0x3A3 JUMP JUMPDEST SWAP5 POP POP PUSH1 0x20 DUP6 ADD CALLDATALOAD PUSH8 0xFFFFFFFFFFFFFFFF DUP2 GT ISZERO PUSH2 0x3F9 JUMPI PUSH1 0x0 DUP1 REVERT JUMPDEST PUSH2 0x405 DUP8 DUP3 DUP9 ADD PUSH2 0x379 JUMP JUMPDEST SWAP4 POP POP PUSH1 0x40 DUP6 ADD CALLDATALOAD PUSH8 0xFFFFFFFFFFFFFFFF DUP2 GT ISZERO PUSH2 0x422 JUMPI PUSH1 0x0 DUP1 REVERT JUMPDEST PUSH2 0x42E DUP8 DUP3 DUP9 ADD PUSH2 0x379 JUMP JUMPDEST SWAP3 POP POP PUSH1 0x60 PUSH2 0x43F DUP8 DUP3 DUP9 ADD PUSH2 0x3A3 JUMP JUMPDEST SWAP2 POP POP SWAP3 SWAP6 SWAP2 SWAP5 POP SWAP3 POP JUMP JUMPDEST PUSH1 0x0 DUP1 PUSH1 0x0 PUSH1 0x60 DUP5 DUP7 SUB SLT ISZERO PUSH2 0x460 JUMPI PUSH1 0x0 DUP1 REVERT JUMPDEST PUSH1 0x0 PUSH2 0x46E DUP7 DUP3 DUP8 ADD PUSH2 0x3A3 JUMP JUMPDEST SWAP4 POP POP PUSH1 0x20 DUP5 ADD CALLDATALOAD PUSH8 0xFFFFFFFFFFFFFFFF DUP2 GT ISZERO PUSH2 0x48B JUMPI PUSH1 0x0 DUP1 REVERT JUMPDEST PUSH2 0x497 DUP7 DUP3 DUP8 ADD PUSH2 0x379 JUMP JUMPDEST SWAP3 POP POP PUSH1 0x40 PUSH2 0x4A8 DUP7 DUP3 DUP8 ADD PUSH2 0x3A3 JUMP JUMPDEST SWAP2 POP POP SWAP3 POP SWAP3 POP SWAP3 JUMP JUMPDEST PUSH1 0x0 PUSH2 0x4BF PUSH1 0xD DUP4 PUSH2 0x573 JUMP JUMPDEST SWAP2 POP PUSH32 0x4163636573732044656E69656400000000000000000000000000000000000000 PUSH1 0x0 DUP4 ADD MSTORE PUSH1 0x20 DUP3 ADD SWAP1 POP SWAP2 SWAP1 POP JUMP JUMPDEST PUSH1 0x0 PUSH1 0x20 DUP3 ADD SWAP1 POP DUP2 DUP2 SUB PUSH1 0x0 DUP4 ADD MSTORE PUSH2 0x50B DUP2 PUSH2 0x4B2 JUMP JUMPDEST SWAP1 POP SWAP2 SWAP1 POP JUMP JUMPDEST PUSH1 0x0 PUSH1 0x40 MLOAD SWAP1 POP DUP2 DUP2 ADD DUP2 DUP2 LT PUSH8 0xFFFFFFFFFFFFFFFF DUP3 GT OR ISZERO PUSH2 0x539 JUMPI PUSH2 0x538 PUSH2 0x5FE JUMP JUMPDEST JUMPDEST DUP1 PUSH1 0x40 MSTORE POP SWAP2 SWAP1 POP JUMP JUMPDEST PUSH1 0x0 PUSH8 0xFFFFFFFFFFFFFFFF DUP3 GT ISZERO PUSH2 0x55E JUMPI PUSH2 0x55D PUSH2 0x5FE JUMP JUMPDEST JUMPDEST PUSH1 0x1F NOT PUSH1 0x1F DUP4 ADD AND SWAP1 POP PUSH1 0x20 DUP2 ADD SWAP1 POP SWAP2 SWAP1 POP JUMP JUMPDEST PUSH1 0x0 DUP3 DUP3 MSTORE PUSH1 0x20 DUP3 ADD SWAP1 POP SWAP3 SWAP2 POP POP JUMP JUMPDEST PUSH1 0x0 DUP2 SWAP1 POP SWAP2 SWAP1 POP JUMP JUMPDEST DUP3 DUP2 DUP4 CALLDATACOPY PUSH1 0x0 DUP4 DUP4 ADD MSTORE POP POP POP JUMP JUMPDEST PUSH1 0x0 PUSH1 0x2 DUP3 DIV SWAP1 POP PUSH1 0x1 DUP3 AND DUP1 PUSH2 0x5B5 JUMPI PUSH1 0x7F DUP3 AND SWAP2 POP JUMPDEST PUSH1 0x20 DUP3 LT DUP2 EQ ISZERO PUSH2 0x5C9 JUMPI PUSH2 0x5C8 PUSH2 0x5CF JUMP JUMPDEST JUMPDEST POP SWAP2 SWAP1 POP JUMP JUMPDEST PUSH32 0x4E487B7100000000000000000000000000000000000000000000000000000000 PUSH1 0x0 MSTORE PUSH1 0x22 PUSH1 0x4 MSTORE PUSH1 0x24 PUSH1 0x0 REVERT JUMPDEST PUSH32 0x4E487B7100000000000000000000000000000000000000000000000000000000 PUSH1 0x0 MSTORE PUSH1 0x41 PUSH1 0x4 MSTORE PUSH1 0x24 PUSH1 0x0 REVERT JUMPDEST PUSH2 0x636 DUP2 PUSH2 0x584 JUMP JUMPDEST DUP2 EQ PUSH2 0x641 JUMPI PUSH1 0x0 DUP1 REVERT JUMPDEST POP JUMP INVALID LOG2 PUSH5 0x6970667358 0x22 SLT KECCAK256 0xC1 DUP9 0xA5 0xE2 0xA9 0xB5 0xB8 DIV SLT 0xC2 0xDB 0xC8 DUP13 SWAP14 CALL EXTCODESIZE 0xB8 SLOAD CALLCODE CALLDATASIZE DUP6 0x48 XOR BLOCKHASH PUSH6 0x5E8D440D93CF 0x24 PUSH5 0x736F6C6343 STOP ADDMOD STOP STOP CALLER "
				},
				"gasEstimates": {
					"creation": {
						"codeDepositCost": "331600",
						"executionCost": "21234",
						"totalCost": "352834"
					},
					"external": {
						"addCourse(uint256,string,string,uint256)": "infinite",
						"addStudent(uint256,string,uint256)": "infinite"
					}
				},
				"methodIdentifiers": {
					"addCourse(uint256,string,string,uint256)": "5784a16d",
					"addStudent(uint256,string,uint256)": "c1bea1db"
				}
			},
			"storageLayout": {
				"storage": [
					{
						"astId": 40,
						"contract": "learning/CourseSelling.sol:CourseSelling",
						"label": "owner",
						"offset": 0,
						"slot": "0",
						"type": "t_address"
					},
					{
						"astId": 73,
						"contract": "learning/CourseSelling.sol:CourseSelling",
						"label": "courses",
						"offset": 0,
						"slot": "1",
						"type": "t_mapping(t_uint256,t_struct(course)68_storage)"
					},
					{
						"astId": 76,
						"contract": "learning/CourseSelling.sol:CourseSelling",
						"label": "allCourseIds",
						"offset": 0,
						"slot": "2",
						"type": "t_array(t_uint256)dyn_storage"
					},
					{
						"astId": 120,
						"contract": "learning/CourseSelling.sol:CourseSelling",
						"label": "students",
						"offset": 0,
						"slot": "3",
						"type": "t_mapping(t_uint256,t_struct(student)115_storage)"
					},
					{
						"astId": 123,
						"contract": "learning/CourseSelling.sol:CourseSelling",
						"label": "allStudentsIds",
						"offset": 0,
						"slot": "4",
						"type": "t_array(t_uint256)dyn_storage"
					}
				],
				"types": {
					"t_address": {
						"encoding": "inplace",
						"label": "address",
						"numberOfBytes": "20"
					},
					"t_array(t_uint256)dyn_storage": {
						"base": "t_uint256",
						"encoding": "dynamic_array",
						"label": "uint256[]",
						"numberOfBytes": "32"
					},
					"t_mapping(t_uint256,t_struct(course)68_storage)": {
						"encoding": "mapping",
						"key": "t_uint256",
						"label": "mapping(uint256 => struct CourseSelling.course)",
						"numberOfBytes": "32",
						"value": "t_struct(course)68_storage"
					},
					"t_mapping(t_uint256,t_struct(student)115_storage)": {
						"encoding": "mapping",
						"key": "t_uint256",
						"label": "mapping(uint256 => struct CourseSelling.student)",
						"numberOfBytes": "32",
						"value": "t_struct(student)115_storage"
					},
					"t_string_storage": {
						"encoding": "bytes",
						"label": "string",
						"numberOfBytes": "32"
					},
					"t_struct(course)68_storage": {
						"encoding": "inplace",
						"label": "struct CourseSelling.course",
						"members": [
							{
								"astId": 63,
								"contract": "learning/CourseSelling.sol:CourseSelling",
								"label": "courseName",
								"offset": 0,
								"slot": "0",
								"type": "t_string_storage"
							},
							{
								"astId": 65,
								"contract": "learning/CourseSelling.sol:CourseSelling",
								"label": "courseDuration",
								"offset": 0,
								"slot": "1",
								"type": "t_string_storage"
							},
							{
								"astId": 67,
								"contract": "learning/CourseSelling.sol:CourseSelling",
								"label": "fees",
								"offset": 0,
								"slot": "2",
								"type": "t_uint256"
							}
						],
						"numberOfBytes": "96"
					},
					"t_struct(student)115_storage": {
						"encoding": "inplace",
						"label": "struct CourseSelling.student",
						"members": [
							{
								"astId": 108,
								"contract": "learning/CourseSelling.sol:CourseSelling",
								"label": "id",
								"offset": 0,
								"slot": "0",
								"type": "t_uint256"
							},
							{
								"astId": 110,
								"contract": "learning/CourseSelling.sol:CourseSelling",
								"label": "studentName",
								"offset": 0,
								"slot": "1",
								"type": "t_string_storage"
							},
							{
								"astId": 112,
								"contract": "learning/CourseSelling.sol:CourseSelling",
								"label": "demandFees",
								"offset": 0,
								"slot": "2",
								"type": "t_uint256"
							},
							{
								"astId": 114,
								"contract": "learning/CourseSelling.sol:CourseSelling",
								"label": "wallet",
								"offset": 0,
								"slot": "3",
								"type": "t_address"
							}
						],
						"numberOfBytes": "128"
					},
					"t_uint256": {
						"encoding": "inplace",
						"label": "uint256",
						"numberOfBytes": "32"
					}
				}
			},
			"userdoc": {
				"kind": "user",
				"methods": {},
				"version": 1
			}
		}
	}
}