{
	"first.sol": {
		"First": {
			"abi": [
				{
					"inputs": [],
					"name": "sum",
					"outputs": [
						{
							"internalType": "uint256",
							"name": "",
							"type": "uint256"
						}
					],
					"stateMutability": "view",
					"type": "function"
				},
				{
					"inputs": [],
					"name": "sum_1",
					"outputs": [
						{
							"internalType": "int256",
							"name": "",
							"type": "int256"
						}
					],
					"stateMutability": "view",
					"type": "function"
				}
			],
			"devdoc": {
				"kind": "dev",
				"methods": {},
				"version": 1
			},
			"evm": {
				"assembly": "    /* \"first.sol\":60:248  contract First{... */\n  mstore(0x40, 0x80)\n    /* \"first.sol\":93:96  555 */\n  0x022b\n    /* \"first.sol\":81:96  uint num1 = 555 */\n  0x00\n  sstore\n    /* \"first.sol\":115:117  55 */\n  0x37\n    /* \"first.sol\":103:117  uint num2 = 55 */\n  0x01\n  sstore\n    /* \"first.sol\":138:141  -55 */\n  0xffffffffffffffffffffffffffffffffffffffffffffffffffffffffffffffc9\n    /* \"first.sol\":126:141  int num_1 = -55 */\n  0x02\n  sstore\n    /* \"first.sol\":160:163  555 */\n  0x022b\n    /* \"first.sol\":148:163  int num_2 = 555 */\n  0x03\n  sstore\n    /* \"first.sol\":197:201  num2 */\n  sload(0x01)\n    /* \"first.sol\":190:194  num1 */\n  sload(0x00)\n    /* \"first.sol\":190:201  num1 + num2 */\n  tag_1\n  swap2\n  swap1\n  tag_2\n  jump\t// in\ntag_1:\n    /* \"first.sol\":172:201  uint public sum = num1 + num2 */\n  0x04\n  sstore\n    /* \"first.sol\":237:242  num_2 */\n  sload(0x03)\n    /* \"first.sol\":229:234  num_1 */\n  sload(0x02)\n    /* \"first.sol\":229:242  num_1 + num_2 */\n  tag_3\n  swap2\n  swap1\n  tag_4\n  jump\t// in\ntag_3:\n    /* \"first.sol\":210:242  int public sum_1 = num_1 + num_2 */\n  0x05\n  sstore\n    /* \"first.sol\":60:248  contract First{... */\n  callvalue\n  dup1\n  iszero\n  tag_5\n  jumpi\n  revert(0x00, 0x00)\ntag_5:\n  pop\n  jump(tag_6)\n    /* \"#utility.yul\":7:84   */\ntag_7:\n    /* \"#utility.yul\":44:51   */\n  0x00\n    /* \"#utility.yul\":73:78   */\n  dup2\n    /* \"#utility.yul\":62:78   */\n  swap1\n  pop\n    /* \"#utility.yul\":7:84   */\n  swap2\n  swap1\n  pop\n  jump\t// out\n    /* \"#utility.yul\":90:270   */\ntag_8:\n    /* \"#utility.yul\":138:215   */\n  0x4e487b7100000000000000000000000000000000000000000000000000000000\n    /* \"#utility.yul\":135:136   */\n  0x00\n    /* \"#utility.yul\":128:216   */\n  mstore\n    /* \"#utility.yul\":235:239   */\n  0x11\n    /* \"#utility.yul\":232:233   */\n  0x04\n    /* \"#utility.yul\":225:240   */\n  mstore\n    /* \"#utility.yul\":259:263   */\n  0x24\n    /* \"#utility.yul\":256:257   */\n  0x00\n    /* \"#utility.yul\":249:264   */\n  revert\n    /* \"#utility.yul\":276:467   */\ntag_2:\n    /* \"#utility.yul\":316:319   */\n  0x00\n    /* \"#utility.yul\":335:355   */\n  tag_14\n    /* \"#utility.yul\":353:354   */\n  dup3\n    /* \"#utility.yul\":335:355   */\n  tag_7\n  jump\t// in\ntag_14:\n    /* \"#utility.yul\":330:355   */\n  swap2\n  pop\n    /* \"#utility.yul\":369:389   */\n  tag_15\n    /* \"#utility.yul\":387:388   */\n  dup4\n    /* \"#utility.yul\":369:389   */\n  tag_7\n  jump\t// in\ntag_15:\n    /* \"#utility.yul\":364:389   */\n  swap3\n  pop\n    /* \"#utility.yul\":412:413   */\n  dup3\n    /* \"#utility.yul\":409:410   */\n  dup3\n    /* \"#utility.yul\":405:414   */\n  add\n    /* \"#utility.yul\":398:414   */\n  swap1\n  pop\n    /* \"#utility.yul\":433:436   */\n  dup1\n    /* \"#utility.yul\":430:431   */\n  dup3\n    /* \"#utility.yul\":427:437   */\n  gt\n    /* \"#utility.yul\":424:460   */\n  iszero\n  tag_16\n  jumpi\n    /* \"#utility.yul\":440:458   */\n  tag_17\n  tag_8\n  jump\t// in\ntag_17:\n    /* \"#utility.yul\":424:460   */\ntag_16:\n    /* \"#utility.yul\":276:467   */\n  swap3\n  swap2\n  pop\n  pop\n  jump\t// out\n    /* \"#utility.yul\":473:549   */\ntag_9:\n    /* \"#utility.yul\":509:516   */\n  0x00\n    /* \"#utility.yul\":538:543   */\n  dup2\n    /* \"#utility.yul\":527:543   */\n  swap1\n  pop\n    /* \"#utility.yul\":473:549   */\n  swap2\n  swap1\n  pop\n  jump\t// out\n    /* \"#utility.yul\":555:930   */\ntag_4:\n    /* \"#utility.yul\":594:597   */\n  0x00\n    /* \"#utility.yul\":613:632   */\n  tag_20\n    /* \"#utility.yul\":630:631   */\n  dup3\n    /* \"#utility.yul\":613:632   */\n  tag_9\n  jump\t// in\ntag_20:\n    /* \"#utility.yul\":608:632   */\n  swap2\n  pop\n    /* \"#utility.yul\":646:665   */\n  tag_21\n    /* \"#utility.yul\":663:664   */\n  dup4\n    /* \"#utility.yul\":646:665   */\n  tag_9\n  jump\t// in\ntag_21:\n    /* \"#utility.yul\":641:665   */\n  swap3\n  pop\n    /* \"#utility.yul\":688:689   */\n  dup3\n    /* \"#utility.yul\":685:686   */\n  dup3\n    /* \"#utility.yul\":681:690   */\n  add\n    /* \"#utility.yul\":674:690   */\n  swap1\n  pop\n    /* \"#utility.yul\":886:887   */\n  dup3\n    /* \"#utility.yul\":881:884   */\n  dup2\n    /* \"#utility.yul\":877:888   */\n  slt\n    /* \"#utility.yul\":870:889   */\n  iszero\n    /* \"#utility.yul\":866:867   */\n  0x00\n    /* \"#utility.yul\":863:864   */\n  dup4\n    /* \"#utility.yul\":859:868   */\n  slt\n    /* \"#utility.yul\":855:890   */\n  and\n    /* \"#utility.yul\":838:839   */\n  dup4\n    /* \"#utility.yul\":833:836   */\n  dup3\n    /* \"#utility.yul\":829:840   */\n  slt\n    /* \"#utility.yul\":824:825   */\n  0x00\n    /* \"#utility.yul\":821:822   */\n  dup5\n    /* \"#utility.yul\":817:826   */\n  slt\n    /* \"#utility.yul\":810:827   */\n  iszero\n    /* \"#utility.yul\":806:841   */\n  and\n    /* \"#utility.yul\":790:900   */\n  or\n    /* \"#utility.yul\":787:923   */\n  iszero\n  tag_22\n  jumpi\n    /* \"#utility.yul\":903:921   */\n  tag_23\n  tag_8\n  jump\t// in\ntag_23:\n    /* \"#utility.yul\":787:923   */\ntag_22:\n    /* \"#utility.yul\":555:930   */\n  swap3\n  swap2\n  pop\n  pop\n  jump\t// out\n    /* \"first.sol\":60:248  contract First{... */\ntag_6:\n  dataSize(sub_0)\n  dup1\n  dataOffset(sub_0)\n  0x00\n  codecopy\n  0x00\n  return\nstop\n\nsub_0: assembly {\n        /* \"first.sol\":60:248  contract First{... */\n      mstore(0x40, 0x80)\n      callvalue\n      dup1\n      iszero\n      tag_1\n      jumpi\n      revert(0x00, 0x00)\n    tag_1:\n      pop\n      jumpi(tag_2, lt(calldatasize, 0x04))\n      shr(0xe0, calldataload(0x00))\n      dup1\n      0x853255cc\n      eq\n      tag_3\n      jumpi\n      dup1\n      0xa596f13b\n      eq\n      tag_4\n      jumpi\n    tag_2:\n      revert(0x00, 0x00)\n        /* \"first.sol\":172:201  uint public sum = num1 + num2 */\n    tag_3:\n      tag_5\n      tag_6\n      jump\t// in\n    tag_5:\n      mload(0x40)\n      tag_7\n      swap2\n      swap1\n      tag_8\n      jump\t// in\n    tag_7:\n      mload(0x40)\n      dup1\n      swap2\n      sub\n      swap1\n      return\n        /* \"first.sol\":210:242  int public sum_1 = num_1 + num_2 */\n    tag_4:\n      tag_9\n      tag_10\n      jump\t// in\n    tag_9:\n      mload(0x40)\n      tag_11\n      swap2\n      swap1\n      tag_12\n      jump\t// in\n    tag_11:\n      mload(0x40)\n      dup1\n      swap2\n      sub\n      swap1\n      return\n        /* \"first.sol\":172:201  uint public sum = num1 + num2 */\n    tag_6:\n      sload(0x04)\n      dup2\n      jump\t// out\n        /* \"first.sol\":210:242  int public sum_1 = num_1 + num_2 */\n    tag_10:\n      sload(0x05)\n      dup2\n      jump\t// out\n        /* \"#utility.yul\":7:84   */\n    tag_13:\n        /* \"#utility.yul\":44:51   */\n      0x00\n        /* \"#utility.yul\":73:78   */\n      dup2\n        /* \"#utility.yul\":62:78   */\n      swap1\n      pop\n        /* \"#utility.yul\":7:84   */\n      swap2\n      swap1\n      pop\n      jump\t// out\n        /* \"#utility.yul\":90:208   */\n    tag_14:\n        /* \"#utility.yul\":177:201   */\n      tag_20\n        /* \"#utility.yul\":195:200   */\n      dup2\n        /* \"#utility.yul\":177:201   */\n      tag_13\n      jump\t// in\n    tag_20:\n        /* \"#utility.yul\":172:175   */\n      dup3\n        /* \"#utility.yul\":165:202   */\n      mstore\n        /* \"#utility.yul\":90:208   */\n      pop\n      pop\n      jump\t// out\n        /* \"#utility.yul\":214:436   */\n    tag_8:\n        /* \"#utility.yul\":307:311   */\n      0x00\n        /* \"#utility.yul\":345:347   */\n      0x20\n        /* \"#utility.yul\":334:343   */\n      dup3\n        /* \"#utility.yul\":330:348   */\n      add\n        /* \"#utility.yul\":322:348   */\n      swap1\n      pop\n        /* \"#utility.yul\":358:429   */\n      tag_22\n        /* \"#utility.yul\":426:427   */\n      0x00\n        /* \"#utility.yul\":415:424   */\n      dup4\n        /* \"#utility.yul\":411:428   */\n      add\n        /* \"#utility.yul\":402:408   */\n      dup5\n        /* \"#utility.yul\":358:429   */\n      tag_14\n      jump\t// in\n    tag_22:\n        /* \"#utility.yul\":214:436   */\n      swap3\n      swap2\n      pop\n      pop\n      jump\t// out\n        /* \"#utility.yul\":442:518   */\n    tag_15:\n        /* \"#utility.yul\":478:485   */\n      0x00\n        /* \"#utility.yul\":507:512   */\n      dup2\n        /* \"#utility.yul\":496:512   */\n      swap1\n      pop\n        /* \"#utility.yul\":442:518   */\n      swap2\n      swap1\n      pop\n      jump\t// out\n        /* \"#utility.yul\":524:639   */\n    tag_16:\n        /* \"#utility.yul\":609:632   */\n      tag_25\n        /* \"#utility.yul\":626:631   */\n      dup2\n        /* \"#utility.yul\":609:632   */\n      tag_15\n      jump\t// in\n    tag_25:\n        /* \"#utility.yul\":604:607   */\n      dup3\n        /* \"#utility.yul\":597:633   */\n      mstore\n        /* \"#utility.yul\":524:639   */\n      pop\n      pop\n      jump\t// out\n        /* \"#utility.yul\":645:863   */\n    tag_12:\n        /* \"#utility.yul\":736:740   */\n      0x00\n        /* \"#utility.yul\":774:776   */\n      0x20\n        /* \"#utility.yul\":763:772   */\n      dup3\n        /* \"#utility.yul\":759:777   */\n      add\n        /* \"#utility.yul\":751:777   */\n      swap1\n      pop\n        /* \"#utility.yul\":787:856   */\n      tag_27\n        /* \"#utility.yul\":853:854   */\n      0x00\n        /* \"#utility.yul\":842:851   */\n      dup4\n        /* \"#utility.yul\":838:855   */\n      add\n        /* \"#utility.yul\":829:835   */\n      dup5\n        /* \"#utility.yul\":787:856   */\n      tag_16\n      jump\t// in\n    tag_27:\n        /* \"#utility.yul\":645:863   */\n      swap3\n      swap2\n      pop\n      pop\n      jump\t// out\n\n    auxdata: 0xa26469706673582212208f3532cc9daa029a5ea57b9935f5a78d4d1156aafa37090c05032a2753ba55ec64736f6c63430008220033\n}\n",
				"bytecode": {
					"linkReferences": {},
					"object": "608060405261022b5f5560376001557fffffffffffffffffffffffffffffffffffffffffffffffffffffffffffffffc960025561022b6003556001545f5461004791906100a4565b60045560035460025461005a91906100e0565b600555348015610068575f5ffd5b50610121565b5f819050919050565b7f4e487b71000000000000000000000000000000000000000000000000000000005f52601160045260245ffd5b5f6100ae8261006e565b91506100b98361006e565b92508282019050808211156100d1576100d0610077565b5b92915050565b5f819050919050565b5f6100ea826100d7565b91506100f5836100d7565b92508282019050828112155f8312168382125f84121516171561011b5761011a610077565b5b92915050565b6101048061012e5f395ff3fe6080604052348015600e575f5ffd5b50600436106030575f3560e01c8063853255cc146034578063a596f13b14604e575b5f5ffd5b603a6068565b60405160459190608a565b60405180910390f35b6054606e565b604051605f919060b7565b60405180910390f35b60045481565b60055481565b5f819050919050565b6084816074565b82525050565b5f602082019050609b5f830184607d565b92915050565b5f819050919050565b60b18160a1565b82525050565b5f60208201905060c85f83018460aa565b9291505056fea26469706673582212208f3532cc9daa029a5ea57b9935f5a78d4d1156aafa37090c05032a2753ba55ec64736f6c63430008220033",
					"opcodes": "PUSH1 0x80 PUSH1 0x40 MSTORE PUSH2 0x22B PUSH0 SSTORE PUSH1 0x37 PUSH1 0x1 SSTORE PUSH32 0xFFFFFFFFFFFFFFFFFFFFFFFFFFFFFFFFFFFFFFFFFFFFFFFFFFFFFFFFFFFFFFC9 PUSH1 0x2 SSTORE PUSH2 0x22B PUSH1 0x3 SSTORE PUSH1 0x1 SLOAD PUSH0 SLOAD PUSH2 0x47 SWAP2 SWAP1 PUSH2 0xA4 JUMP JUMPDEST PUSH1 0x4 SSTORE PUSH1 0x3 SLOAD PUSH1 0x2 SLOAD PUSH2 0x5A SWAP2 SWAP1 PUSH2 0xE0 JUMP JUMPDEST PUSH1 0x5 SSTORE CALLVALUE DUP1 ISZERO PUSH2 0x68 JUMPI PUSH0 PUSH0 REVERT JUMPDEST POP PUSH2 0x121 JUMP JUMPDEST PUSH0 DUP2 SWAP1 POP SWAP2 SWAP1 POP JUMP JUMPDEST PUSH32 0x4E487B7100000000000000000000000000000000000000000000000000000000 PUSH0 MSTORE PUSH1 0x11 PUSH1 0x4 MSTORE PUSH1 0x24 PUSH0 REVERT JUMPDEST PUSH0 PUSH2 0xAE DUP3 PUSH2 0x6E JUMP JUMPDEST SWAP2 POP PUSH2 0xB9 DUP4 PUSH2 0x6E JUMP JUMPDEST SWAP3 POP DUP3 DUP3 ADD SWAP1 POP DUP1 DUP3 GT ISZERO PUSH2 0xD1 JUMPI PUSH2 0xD0 PUSH2 0x77 JUMP JUMPDEST JUMPDEST SWAP3 SWAP2 POP POP JUMP JUMPDEST PUSH0 DUP2 SWAP1 POP SWAP2 SWAP1 POP JUMP JUMPDEST PUSH0 PUSH2 0xEA DUP3 PUSH2 0xD7 JUMP JUMPDEST SWAP2 POP PUSH2 0xF5 DUP4 PUSH2 0xD7 JUMP JUMPDEST SWAP3 POP DUP3 DUP3 ADD SWAP1 POP DUP3 DUP2 SLT ISZERO PUSH0 DUP4 SLT AND DUP4 DUP3 SLT PUSH0 DUP5 SLT ISZERO AND OR ISZERO PUSH2 0x11B JUMPI PUSH2 0x11A PUSH2 0x77 JUMP JUMPDEST JUMPDEST SWAP3 SWAP2 POP POP JUMP JUMPDEST PUSH2 0x104 DUP1 PUSH2 0x12E PUSH0 CODECOPY PUSH0 RETURN INVALID PUSH1 0x80 PUSH1 0x40 MSTORE CALLVALUE DUP1 ISZERO PUSH1 0xE JUMPI PUSH0 PUSH0 REVERT JUMPDEST POP PUSH1 0x4 CALLDATASIZE LT PUSH1 0x30 JUMPI PUSH0 CALLDATALOAD PUSH1 0xE0 SHR DUP1 PUSH4 0x853255CC EQ PUSH1 0x34 JUMPI DUP1 PUSH4 0xA596F13B EQ PUSH1 0x4E JUMPI JUMPDEST PUSH0 PUSH0 REVERT JUMPDEST PUSH1 0x3A PUSH1 0x68 JUMP JUMPDEST PUSH1 0x40 MLOAD PUSH1 0x45 SWAP2 SWAP1 PUSH1 0x8A JUMP JUMPDEST PUSH1 0x40 MLOAD DUP1 SWAP2 SUB SWAP1 RETURN JUMPDEST PUSH1 0x54 PUSH1 0x6E JUMP JUMPDEST PUSH1 0x40 MLOAD PUSH1 0x5F SWAP2 SWAP1 PUSH1 0xB7 JUMP JUMPDEST PUSH1 0x40 MLOAD DUP1 SWAP2 SUB SWAP1 RETURN JUMPDEST PUSH1 0x4 SLOAD DUP2 JUMP JUMPDEST PUSH1 0x5 SLOAD DUP2 JUMP JUMPDEST PUSH0 DUP2 SWAP1 POP SWAP2 SWAP1 POP JUMP JUMPDEST PUSH1 0x84 DUP2 PUSH1 0x74 JUMP JUMPDEST DUP3 MSTORE POP POP JUMP JUMPDEST PUSH0 PUSH1 0x20 DUP3 ADD SWAP1 POP PUSH1 0x9B PUSH0 DUP4 ADD DUP5 PUSH1 0x7D JUMP JUMPDEST SWAP3 SWAP2 POP POP JUMP JUMPDEST PUSH0 DUP2 SWAP1 POP SWAP2 SWAP1 POP JUMP JUMPDEST PUSH1 0xB1 DUP2 PUSH1 0xA1 JUMP JUMPDEST DUP3 MSTORE POP POP JUMP JUMPDEST PUSH0 PUSH1 0x20 DUP3 ADD SWAP1 POP PUSH1 0xC8 PUSH0 DUP4 ADD DUP5 PUSH1 0xAA JUMP JUMPDEST SWAP3 SWAP2 POP POP JUMP INVALID LOG2 PUSH5 0x6970667358 0x22 SLT KECCAK256 DUP16 CALLDATALOAD ORIGIN 0xCC SWAP14 0xAA MUL SWAP11 MCOPY 0xA5 PUSH28 0x9935F5A78D4D1156AAFA37090C05032A2753BA55EC64736F6C634300 ADDMOD 0x22 STOP CALLER "
				},
				"gasEstimates": {
					"creation": {
						"codeDepositCost": "52000",
						"executionCost": "infinite",
						"totalCost": "infinite"
					},
					"external": {
						"sum()": "2403",
						"sum_1()": "2425"
					}
				},
				"methodIdentifiers": {
					"sum()": "853255cc",
					"sum_1()": "a596f13b"
				}
			},
			"storageLayout": {
				"storage": [
					{
						"astId": 4,
						"contract": "first.sol:First",
						"label": "num1",
						"offset": 0,
						"slot": "0",
						"type": "t_uint256"
					},
					{
						"astId": 7,
						"contract": "first.sol:First",
						"label": "num2",
						"offset": 0,
						"slot": "1",
						"type": "t_uint256"
					},
					{
						"astId": 11,
						"contract": "first.sol:First",
						"label": "num_1",
						"offset": 0,
						"slot": "2",
						"type": "t_int256"
					},
					{
						"astId": 14,
						"contract": "first.sol:First",
						"label": "num_2",
						"offset": 0,
						"slot": "3",
						"type": "t_int256"
					},
					{
						"astId": 19,
						"contract": "first.sol:First",
						"label": "sum",
						"offset": 0,
						"slot": "4",
						"type": "t_uint256"
					},
					{
						"astId": 24,
						"contract": "first.sol:First",
						"label": "sum_1",
						"offset": 0,
						"slot": "5",
						"type": "t_int256"
					}
				],
				"types": {
					"t_int256": {
						"encoding": "inplace",
						"label": "int256",
						"numberOfBytes": "32"
					},
					"t_uint256": {
						"encoding": "inplace",
						"label": "uint256",
						"numberOfBytes": "32"
					}
				}
			},
			"userdoc": {
				"kind": "user",
				"methods": {},
				"version": 1
			}
		}
	}
}