{
	"Practice/Voting_Struct.sol": {
		"Voting_Struct": {
			"abi": [
				{
					"inputs": [],
					"stateMutability": "nonpayable",
					"type": "constructor"
				},
				{
					"inputs": [
						{
							"internalType": "uint256",
							"name": "id",
							"type": "uint256"
						},
						{
							"internalType": "string",
							"name": "name",
							"type": "string"
						}
					],
					"name": "addParty",
					"outputs": [],
					"stateMutability": "nonpayable",
					"type": "function"
				},
				{
					"inputs": [
						{
							"internalType": "uint256",
							"name": "id",
							"type": "uint256"
						},
						{
							"internalType": "string",
							"name": "name",
							"type": "string"
						}
					],
					"name": "addVoter",
					"outputs": [],
					"stateMutability": "nonpayable",
					"type": "function"
				},
				{
					"inputs": [
						{
							"internalType": "uint256",
							"name": "partyId",
							"type": "uint256"
						}
					],
					"name": "getPartyVotes",
					"outputs": [
						{
							"internalType": "string",
							"name": "",
							"type": "string"
						},
						{
							"internalType": "uint256",
							"name": "",
							"type": "uint256"
						}
					],
					"stateMutability": "view",
					"type": "function"
				},
				{
					"inputs": [
						{
							"internalType": "uint256",
							"name": "partyId",
							"type": "uint256"
						}
					],
					"name": "vote",
					"outputs": [],
					"stateMutability": "nonpayable",
					"type": "function"
				}
			],
			"devdoc": {
				"kind": "dev",
				"methods": {},
				"version": 1
			},
			"evm": {
				"assembly": "    /* \"Practice/Voting_Struct.sol\":66:1941  contract Voting_Struct{\r... */\n  mstore(0x40, 0x80)\n    /* \"Practice/Voting_Struct.sol\":115:163  constructor(){\r... */\n  callvalue\n  dup1\n  iszero\n  tag_1\n  jumpi\n  0x00\n  dup1\n  revert\ntag_1:\n  pop\n    /* \"Practice/Voting_Struct.sol\":145:155  msg.sender */\n  caller\n    /* \"Practice/Voting_Struct.sol\":139:144  owner */\n  0x00\n  dup1\n    /* \"Practice/Voting_Struct.sol\":139:155  owner=msg.sender */\n  0x0100\n  exp\n  dup2\n  sload\n  dup2\n  0xffffffffffffffffffffffffffffffffffffffff\n  mul\n  not\n  and\n  swap1\n  dup4\n  0xffffffffffffffffffffffffffffffffffffffff\n  and\n  mul\n  or\n  swap1\n  sstore\n  pop\n    /* \"Practice/Voting_Struct.sol\":66:1941  contract Voting_Struct{\r... */\n  dataSize(sub_0)\n  dup1\n  dataOffset(sub_0)\n  0x00\n  codecopy\n  0x00\n  return\nstop\n\nsub_0: assembly {\n        /* \"Practice/Voting_Struct.sol\":66:1941  contract Voting_Struct{\r... */\n      mstore(0x40, 0x80)\n      callvalue\n      dup1\n      iszero\n      tag_1\n      jumpi\n      0x00\n      dup1\n      revert\n    tag_1:\n      pop\n      jumpi(tag_2, lt(calldatasize, 0x04))\n      shr(0xe0, calldataload(0x00))\n      dup1\n      0x0121b93f\n      eq\n      tag_3\n      jumpi\n      dup1\n      0x2acf6304\n      eq\n      tag_4\n      jumpi\n      dup1\n      0x5129ff1a\n      eq\n      tag_5\n      jumpi\n      dup1\n      0xf5ea0106\n      eq\n      tag_6\n      jumpi\n    tag_2:\n      0x00\n      dup1\n      revert\n        /* \"Practice/Voting_Struct.sol\":1386:1696  function vote(uint partyId) public {\r... */\n    tag_3:\n      tag_7\n      0x04\n      dup1\n      calldatasize\n      sub\n      dup2\n      add\n      swap1\n      tag_8\n      swap2\n      swap1\n      tag_9\n      jump\t// in\n    tag_8:\n      tag_10\n      jump\t// in\n    tag_7:\n      stop\n        /* \"Practice/Voting_Struct.sol\":1705:1936  function getPartyVotes(uint partyId) public view returns (string memory, uint){\r... */\n    tag_4:\n      tag_11\n      0x04\n      dup1\n      calldatasize\n      sub\n      dup2\n      add\n      swap1\n      tag_12\n      swap2\n      swap1\n      tag_9\n      jump\t// in\n    tag_12:\n      tag_13\n      jump\t// in\n    tag_11:\n      mload(0x40)\n      tag_14\n      swap3\n      swap2\n      swap1\n      tag_15\n      jump\t// in\n    tag_14:\n      mload(0x40)\n      dup1\n      swap2\n      sub\n      swap1\n      return\n        /* \"Practice/Voting_Struct.sol\":1024:1378  function addVoter(uint id, string memory name) public{\r... */\n    tag_5:\n      tag_16\n      0x04\n      dup1\n      calldatasize\n      sub\n      dup2\n      add\n      swap1\n      tag_17\n      swap2\n      swap1\n      tag_18\n      jump\t// in\n    tag_17:\n      tag_19\n      jump\t// in\n    tag_16:\n      stop\n        /* \"Practice/Voting_Struct.sol\":467:704  function addParty(uint id, string memory name) public checkOwner{\r... */\n    tag_6:\n      tag_20\n      0x04\n      dup1\n      calldatasize\n      sub\n      dup2\n      add\n      swap1\n      tag_21\n      swap2\n      swap1\n      tag_18\n      jump\t// in\n    tag_21:\n      tag_22\n      jump\t// in\n    tag_20:\n      stop\n        /* \"Practice/Voting_Struct.sol\":1386:1696  function vote(uint partyId) public {\r... */\n    tag_10:\n        /* \"Practice/Voting_Struct.sol\":1440:1453  hasRegistered */\n      0x06\n        /* \"Practice/Voting_Struct.sol\":1440:1465  hasRegistered[msg.sender] */\n      0x00\n        /* \"Practice/Voting_Struct.sol\":1454:1464  msg.sender */\n      caller\n        /* \"Practice/Voting_Struct.sol\":1440:1465  hasRegistered[msg.sender] */\n      0xffffffffffffffffffffffffffffffffffffffff\n      and\n      0xffffffffffffffffffffffffffffffffffffffff\n      and\n      dup2\n      mstore\n      0x20\n      add\n      swap1\n      dup2\n      mstore\n      0x20\n      add\n      0x00\n      keccak256\n      0x00\n      swap1\n      sload\n      swap1\n      0x0100\n      exp\n      swap1\n      div\n      0xff\n      and\n        /* \"Practice/Voting_Struct.sol\":1432:1493  require(hasRegistered[msg.sender], \"Not registered as voter\") */\n      tag_24\n      jumpi\n      mload(0x40)\n      0x08c379a000000000000000000000000000000000000000000000000000000000\n      dup2\n      mstore\n      0x04\n      add\n      tag_25\n      swap1\n      tag_26\n      jump\t// in\n    tag_25:\n      mload(0x40)\n      dup1\n      swap2\n      sub\n      swap1\n      revert\n    tag_24:\n        /* \"Practice/Voting_Struct.sol\":1513:1521  hasVoted */\n      0x07\n        /* \"Practice/Voting_Struct.sol\":1513:1533  hasVoted[msg.sender] */\n      0x00\n        /* \"Practice/Voting_Struct.sol\":1522:1532  msg.sender */\n      caller\n        /* \"Practice/Voting_Struct.sol\":1513:1533  hasVoted[msg.sender] */\n      0xffffffffffffffffffffffffffffffffffffffff\n      and\n      0xffffffffffffffffffffffffffffffffffffffff\n      and\n      dup2\n      mstore\n      0x20\n      add\n      swap1\n      dup2\n      mstore\n      0x20\n      add\n      0x00\n      keccak256\n      0x00\n      swap1\n      sload\n      swap1\n      0x0100\n      exp\n      swap1\n      div\n      0xff\n      and\n        /* \"Practice/Voting_Struct.sol\":1512:1533  !hasVoted[msg.sender] */\n      iszero\n        /* \"Practice/Voting_Struct.sol\":1504:1551  require(!hasVoted[msg.sender], \"Already voted\") */\n      tag_27\n      jumpi\n      mload(0x40)\n      0x08c379a000000000000000000000000000000000000000000000000000000000\n      dup2\n      mstore\n      0x04\n      add\n      tag_28\n      swap1\n      tag_29\n      jump\t// in\n    tag_28:\n      mload(0x40)\n      dup1\n      swap2\n      sub\n      swap1\n      revert\n    tag_27:\n        /* \"Practice/Voting_Struct.sol\":1570:1582  isPartyExist */\n      0x02\n        /* \"Practice/Voting_Struct.sol\":1570:1591  isPartyExist[partyId] */\n      0x00\n        /* \"Practice/Voting_Struct.sol\":1583:1590  partyId */\n      dup3\n        /* \"Practice/Voting_Struct.sol\":1570:1591  isPartyExist[partyId] */\n      dup2\n      mstore\n      0x20\n      add\n      swap1\n      dup2\n      mstore\n      0x20\n      add\n      0x00\n      keccak256\n      0x00\n      swap1\n      sload\n      swap1\n      0x0100\n      exp\n      swap1\n      div\n      0xff\n      and\n        /* \"Practice/Voting_Struct.sol\":1562:1609  require(isPartyExist[partyId], \"Invalid party\") */\n      tag_30\n      jumpi\n      mload(0x40)\n      0x08c379a000000000000000000000000000000000000000000000000000000000\n      dup2\n      mstore\n      0x04\n      add\n      tag_31\n      swap1\n      tag_32\n      jump\t// in\n    tag_31:\n      mload(0x40)\n      dup1\n      swap2\n      sub\n      swap1\n      revert\n    tag_30:\n        /* \"Practice/Voting_Struct.sol\":1622:1629  parties */\n      0x01\n        /* \"Practice/Voting_Struct.sol\":1622:1638  parties[partyId] */\n      0x00\n        /* \"Practice/Voting_Struct.sol\":1630:1637  partyId */\n      dup3\n        /* \"Practice/Voting_Struct.sol\":1622:1638  parties[partyId] */\n      dup2\n      mstore\n      0x20\n      add\n      swap1\n      dup2\n      mstore\n      0x20\n      add\n      0x00\n      keccak256\n        /* \"Practice/Voting_Struct.sol\":1622:1648  parties[partyId].voteCount */\n      0x02\n      add\n      0x00\n        /* \"Practice/Voting_Struct.sol\":1622:1650  parties[partyId].voteCount++ */\n      dup2\n      sload\n      dup1\n      swap3\n      swap2\n      swap1\n      tag_33\n      swap1\n      tag_34\n      jump\t// in\n    tag_33:\n      swap2\n      swap1\n      pop\n      sstore\n      pop\n        /* \"Practice/Voting_Struct.sol\":1684:1688  true */\n      0x01\n        /* \"Practice/Voting_Struct.sol\":1661:1669  hasVoted */\n      0x07\n        /* \"Practice/Voting_Struct.sol\":1661:1681  hasVoted[msg.sender] */\n      0x00\n        /* \"Practice/Voting_Struct.sol\":1670:1680  msg.sender */\n      caller\n        /* \"Practice/Voting_Struct.sol\":1661:1681  hasVoted[msg.sender] */\n      0xffffffffffffffffffffffffffffffffffffffff\n      and\n      0xffffffffffffffffffffffffffffffffffffffff\n      and\n      dup2\n      mstore\n      0x20\n      add\n      swap1\n      dup2\n      mstore\n      0x20\n      add\n      0x00\n      keccak256\n      0x00\n        /* \"Practice/Voting_Struct.sol\":1661:1688  hasVoted[msg.sender] = true */\n      0x0100\n      exp\n      dup2\n      sload\n      dup2\n      0xff\n      mul\n      not\n      and\n      swap1\n      dup4\n      iszero\n      iszero\n      mul\n      or\n      swap1\n      sstore\n      pop\n        /* \"Practice/Voting_Struct.sol\":1386:1696  function vote(uint partyId) public {\r... */\n      pop\n      jump\t// out\n        /* \"Practice/Voting_Struct.sol\":1705:1936  function getPartyVotes(uint partyId) public view returns (string memory, uint){\r... */\n    tag_13:\n        /* \"Practice/Voting_Struct.sol\":1763:1776  string memory */\n      0x60\n        /* \"Practice/Voting_Struct.sol\":1778:1782  uint */\n      0x00\n        /* \"Practice/Voting_Struct.sol\":1802:1814  isPartyExist */\n      0x02\n        /* \"Practice/Voting_Struct.sol\":1802:1823  isPartyExist[partyId] */\n      0x00\n        /* \"Practice/Voting_Struct.sol\":1815:1822  partyId */\n      dup5\n        /* \"Practice/Voting_Struct.sol\":1802:1823  isPartyExist[partyId] */\n      dup2\n      mstore\n      0x20\n      add\n      swap1\n      dup2\n      mstore\n      0x20\n      add\n      0x00\n      keccak256\n      0x00\n      swap1\n      sload\n      swap1\n      0x0100\n      exp\n      swap1\n      div\n      0xff\n      and\n        /* \"Practice/Voting_Struct.sol\":1794:1843  require(isPartyExist[partyId], \"Party not found\") */\n      tag_36\n      jumpi\n      mload(0x40)\n      0x08c379a000000000000000000000000000000000000000000000000000000000\n      dup2\n      mstore\n      0x04\n      add\n      tag_37\n      swap1\n      tag_38\n      jump\t// in\n    tag_37:\n      mload(0x40)\n      dup1\n      swap2\n      sub\n      swap1\n      revert\n    tag_36:\n        /* \"Practice/Voting_Struct.sol\":1856:1870  Party memory p */\n      0x00\n        /* \"Practice/Voting_Struct.sol\":1873:1880  parties */\n      0x01\n        /* \"Practice/Voting_Struct.sol\":1873:1889  parties[partyId] */\n      0x00\n        /* \"Practice/Voting_Struct.sol\":1881:1888  partyId */\n      dup6\n        /* \"Practice/Voting_Struct.sol\":1873:1889  parties[partyId] */\n      dup2\n      mstore\n      0x20\n      add\n      swap1\n      dup2\n      mstore\n      0x20\n      add\n      0x00\n      keccak256\n        /* \"Practice/Voting_Struct.sol\":1856:1889  Party memory p = parties[partyId] */\n      mload(0x40)\n      dup1\n      0x60\n      add\n      0x40\n      mstore\n      swap1\n      dup2\n      0x00\n      dup3\n      add\n      sload\n      dup2\n      mstore\n      0x20\n      add\n      0x01\n      dup3\n      add\n      dup1\n      sload\n      tag_39\n      swap1\n      tag_40\n      jump\t// in\n    tag_39:\n      dup1\n      0x1f\n      add\n      0x20\n      dup1\n      swap2\n      div\n      mul\n      0x20\n      add\n      mload(0x40)\n      swap1\n      dup2\n      add\n      0x40\n      mstore\n      dup1\n      swap3\n      swap2\n      swap1\n      dup2\n      dup2\n      mstore\n      0x20\n      add\n      dup3\n      dup1\n      sload\n      tag_41\n      swap1\n      tag_40\n      jump\t// in\n    tag_41:\n      dup1\n      iszero\n      tag_42\n      jumpi\n      dup1\n      0x1f\n      lt\n      tag_43\n      jumpi\n      0x0100\n      dup1\n      dup4\n      sload\n      div\n      mul\n      dup4\n      mstore\n      swap2\n      0x20\n      add\n      swap2\n      jump(tag_42)\n    tag_43:\n      dup3\n      add\n      swap2\n      swap1\n      0x00\n      mstore\n      keccak256(0x00, 0x20)\n      swap1\n    tag_44:\n      dup2\n      sload\n      dup2\n      mstore\n      swap1\n      0x01\n      add\n      swap1\n      0x20\n      add\n      dup1\n      dup4\n      gt\n      tag_44\n      jumpi\n      dup3\n      swap1\n      sub\n      0x1f\n      and\n      dup3\n      add\n      swap2\n    tag_42:\n      pop\n      pop\n      pop\n      pop\n      pop\n      dup2\n      mstore\n      0x20\n      add\n      0x02\n      dup3\n      add\n      sload\n      dup2\n      mstore\n      pop\n      pop\n      swap1\n      pop\n        /* \"Practice/Voting_Struct.sol\":1908:1909  p */\n      dup1\n        /* \"Practice/Voting_Struct.sol\":1908:1914  p.name */\n      0x20\n      add\n      mload\n        /* \"Practice/Voting_Struct.sol\":1916:1917  p */\n      dup2\n        /* \"Practice/Voting_Struct.sol\":1916:1927  p.voteCount */\n      0x40\n      add\n      mload\n        /* \"Practice/Voting_Struct.sol\":1900:1928  return (p.name, p.voteCount) */\n      swap3\n      pop\n      swap3\n      pop\n      pop\n        /* \"Practice/Voting_Struct.sol\":1705:1936  function getPartyVotes(uint partyId) public view returns (string memory, uint){\r... */\n      swap2\n      pop\n      swap2\n      jump\t// out\n        /* \"Practice/Voting_Struct.sol\":1024:1378  function addVoter(uint id, string memory name) public{\r... */\n    tag_19:\n        /* \"Practice/Voting_Struct.sol\":1097:1111  isVoterExisted */\n      0x05\n        /* \"Practice/Voting_Struct.sol\":1097:1115  isVoterExisted[id] */\n      0x00\n        /* \"Practice/Voting_Struct.sol\":1112:1114  id */\n      dup4\n        /* \"Practice/Voting_Struct.sol\":1097:1115  isVoterExisted[id] */\n      dup2\n      mstore\n      0x20\n      add\n      swap1\n      dup2\n      mstore\n      0x20\n      add\n      0x00\n      keccak256\n      0x00\n      swap1\n      sload\n      swap1\n      0x0100\n      exp\n      swap1\n      div\n      0xff\n      and\n        /* \"Practice/Voting_Struct.sol\":1096:1115  !isVoterExisted[id] */\n      iszero\n        /* \"Practice/Voting_Struct.sol\":1088:1140  require(!isVoterExisted[id],\"Voter already existed\") */\n      tag_46\n      jumpi\n      mload(0x40)\n      0x08c379a000000000000000000000000000000000000000000000000000000000\n      dup2\n      mstore\n      0x04\n      add\n      tag_47\n      swap1\n      tag_48\n      jump\t// in\n    tag_47:\n      mload(0x40)\n      dup1\n      swap2\n      sub\n      swap1\n      revert\n    tag_46:\n        /* \"Practice/Voting_Struct.sol\":1160:1173  hasRegistered */\n      0x06\n        /* \"Practice/Voting_Struct.sol\":1160:1185  hasRegistered[msg.sender] */\n      0x00\n        /* \"Practice/Voting_Struct.sol\":1174:1184  msg.sender */\n      caller\n        /* \"Practice/Voting_Struct.sol\":1160:1185  hasRegistered[msg.sender] */\n      0xffffffffffffffffffffffffffffffffffffffff\n      and\n      0xffffffffffffffffffffffffffffffffffffffff\n      and\n      dup2\n      mstore\n      0x20\n      add\n      swap1\n      dup2\n      mstore\n      0x20\n      add\n      0x00\n      keccak256\n      0x00\n      swap1\n      sload\n      swap1\n      0x0100\n      exp\n      swap1\n      div\n      0xff\n      and\n        /* \"Practice/Voting_Struct.sol\":1159:1185  !hasRegistered[msg.sender] */\n      iszero\n        /* \"Practice/Voting_Struct.sol\":1151:1211  require(!hasRegistered[msg.sender], \"Voter already existed\") */\n      tag_49\n      jumpi\n      mload(0x40)\n      0x08c379a000000000000000000000000000000000000000000000000000000000\n      dup2\n      mstore\n      0x04\n      add\n      tag_50\n      swap1\n      tag_48\n      jump\t// in\n    tag_50:\n      mload(0x40)\n      dup1\n      swap2\n      sub\n      swap1\n      revert\n    tag_49:\n        /* \"Practice/Voting_Struct.sol\":1222:1231  allVoters */\n      0x08\n        /* \"Practice/Voting_Struct.sol\":1237:1239  id */\n      dup3\n        /* \"Practice/Voting_Struct.sol\":1222:1240  allVoters.push(id) */\n      swap1\n      dup1\n      0x01\n      dup2\n      sload\n      add\n      dup1\n      dup3\n      sstore\n      dup1\n      swap2\n      pop\n      pop\n      0x01\n      swap1\n      sub\n      swap1\n      0x00\n      mstore\n      keccak256(0x00, 0x20)\n      add\n      0x00\n      swap1\n      swap2\n      swap1\n      swap2\n      swap1\n      swap2\n      pop\n      sstore\n        /* \"Practice/Voting_Struct.sol\":1270:1274  true */\n      0x01\n        /* \"Practice/Voting_Struct.sol\":1251:1265  isVoterExisted */\n      0x05\n        /* \"Practice/Voting_Struct.sol\":1251:1269  isVoterExisted[id] */\n      0x00\n        /* \"Practice/Voting_Struct.sol\":1266:1268  id */\n      dup5\n        /* \"Practice/Voting_Struct.sol\":1251:1269  isVoterExisted[id] */\n      dup2\n      mstore\n      0x20\n      add\n      swap1\n      dup2\n      mstore\n      0x20\n      add\n      0x00\n      keccak256\n      0x00\n        /* \"Practice/Voting_Struct.sol\":1251:1274  isVoterExisted[id]=true */\n      0x0100\n      exp\n      dup2\n      sload\n      dup2\n      0xff\n      mul\n      not\n      and\n      swap1\n      dup4\n      iszero\n      iszero\n      mul\n      or\n      swap1\n      sstore\n      pop\n        /* \"Practice/Voting_Struct.sol\":1311:1315  true */\n      0x01\n        /* \"Practice/Voting_Struct.sol\":1285:1298  hasRegistered */\n      0x06\n        /* \"Practice/Voting_Struct.sol\":1285:1310  hasRegistered[msg.sender] */\n      0x00\n        /* \"Practice/Voting_Struct.sol\":1299:1309  msg.sender */\n      caller\n        /* \"Practice/Voting_Struct.sol\":1285:1310  hasRegistered[msg.sender] */\n      0xffffffffffffffffffffffffffffffffffffffff\n      and\n      0xffffffffffffffffffffffffffffffffffffffff\n      and\n      dup2\n      mstore\n      0x20\n      add\n      swap1\n      dup2\n      mstore\n      0x20\n      add\n      0x00\n      keccak256\n      0x00\n        /* \"Practice/Voting_Struct.sol\":1285:1315  hasRegistered[msg.sender]=true */\n      0x0100\n      exp\n      dup2\n      sload\n      dup2\n      0xff\n      mul\n      not\n      and\n      swap1\n      dup4\n      iszero\n      iszero\n      mul\n      or\n      swap1\n      sstore\n      pop\n        /* \"Practice/Voting_Struct.sol\":1339:1370  Voter(id,name,false,msg.sender) */\n      mload(0x40)\n      dup1\n      0x80\n      add\n      0x40\n      mstore\n      dup1\n        /* \"Practice/Voting_Struct.sol\":1345:1347  id */\n      dup4\n        /* \"Practice/Voting_Struct.sol\":1339:1370  Voter(id,name,false,msg.sender) */\n      dup2\n      mstore\n      0x20\n      add\n        /* \"Practice/Voting_Struct.sol\":1348:1352  name */\n      dup3\n        /* \"Practice/Voting_Struct.sol\":1339:1370  Voter(id,name,false,msg.sender) */\n      dup2\n      mstore\n      0x20\n      add\n        /* \"Practice/Voting_Struct.sol\":1353:1358  false */\n      0x00\n        /* \"Practice/Voting_Struct.sol\":1339:1370  Voter(id,name,false,msg.sender) */\n      iszero\n      iszero\n      dup2\n      mstore\n      0x20\n      add\n        /* \"Practice/Voting_Struct.sol\":1359:1369  msg.sender */\n      caller\n        /* \"Practice/Voting_Struct.sol\":1339:1370  Voter(id,name,false,msg.sender) */\n      0xffffffffffffffffffffffffffffffffffffffff\n      and\n      dup2\n      mstore\n      pop\n        /* \"Practice/Voting_Struct.sol\":1326:1332  Voters */\n      0x04\n        /* \"Practice/Voting_Struct.sol\":1326:1336  Voters[id] */\n      0x00\n        /* \"Practice/Voting_Struct.sol\":1333:1335  id */\n      dup5\n        /* \"Practice/Voting_Struct.sol\":1326:1336  Voters[id] */\n      dup2\n      mstore\n      0x20\n      add\n      swap1\n      dup2\n      mstore\n      0x20\n      add\n      0x00\n      keccak256\n        /* \"Practice/Voting_Struct.sol\":1326:1370  Voters[id] = Voter(id,name,false,msg.sender) */\n      0x00\n      dup3\n      add\n      mload\n      dup2\n      0x00\n      add\n      sstore\n      0x20\n      dup3\n      add\n      mload\n      dup2\n      0x01\n      add\n      swap1\n      dup1\n      mload\n      swap1\n      0x20\n      add\n      swap1\n      tag_52\n      swap3\n      swap2\n      swap1\n      tag_53\n      jump\t// in\n    tag_52:\n      pop\n      0x40\n      dup3\n      add\n      mload\n      dup2\n      0x02\n      add\n      exp(0x0100, 0x00)\n      dup2\n      sload\n      dup2\n      0xff\n      mul\n      not\n      and\n      swap1\n      dup4\n      iszero\n      iszero\n      mul\n      or\n      swap1\n      sstore\n      pop\n      0x60\n      dup3\n      add\n      mload\n      dup2\n      0x02\n      add\n      exp(0x0100, 0x01)\n      dup2\n      sload\n      dup2\n      0xffffffffffffffffffffffffffffffffffffffff\n      mul\n      not\n      and\n      swap1\n      dup4\n      0xffffffffffffffffffffffffffffffffffffffff\n      and\n      mul\n      or\n      swap1\n      sstore\n      pop\n      swap1\n      pop\n      pop\n        /* \"Practice/Voting_Struct.sol\":1024:1378  function addVoter(uint id, string memory name) public{\r... */\n      pop\n      pop\n      jump\t// out\n        /* \"Practice/Voting_Struct.sol\":467:704  function addParty(uint id, string memory name) public checkOwner{\r... */\n    tag_22:\n        /* \"Practice/Voting_Struct.sol\":214:224  msg.sender */\n      caller\n        /* \"Practice/Voting_Struct.sol\":207:224  owner==msg.sender */\n      0xffffffffffffffffffffffffffffffffffffffff\n      and\n        /* \"Practice/Voting_Struct.sol\":207:212  owner */\n      0x00\n      dup1\n      sload\n      swap1\n      0x0100\n      exp\n      swap1\n      div\n      0xffffffffffffffffffffffffffffffffffffffff\n      and\n        /* \"Practice/Voting_Struct.sol\":207:224  owner==msg.sender */\n      0xffffffffffffffffffffffffffffffffffffffff\n      and\n      eq\n        /* \"Practice/Voting_Struct.sol\":199:241  require(owner==msg.sender,\"Access Denied\") */\n      tag_55\n      jumpi\n      mload(0x40)\n      0x08c379a000000000000000000000000000000000000000000000000000000000\n      dup2\n      mstore\n      0x04\n      add\n      tag_56\n      swap1\n      tag_57\n      jump\t// in\n    tag_56:\n      mload(0x40)\n      dup1\n      swap2\n      sub\n      swap1\n      revert\n    tag_55:\n        /* \"Practice/Voting_Struct.sol\":551:563  isPartyExist */\n      0x02\n        /* \"Practice/Voting_Struct.sol\":551:567  isPartyExist[id] */\n      0x00\n        /* \"Practice/Voting_Struct.sol\":564:566  id */\n      dup4\n        /* \"Practice/Voting_Struct.sol\":551:567  isPartyExist[id] */\n      dup2\n      mstore\n      0x20\n      add\n      swap1\n      dup2\n      mstore\n      0x20\n      add\n      0x00\n      keccak256\n      0x00\n      swap1\n      sload\n      swap1\n      0x0100\n      exp\n      swap1\n      div\n      0xff\n      and\n        /* \"Practice/Voting_Struct.sol\":550:567  !isPartyExist[id] */\n      iszero\n        /* \"Practice/Voting_Struct.sol\":542:592  require(!isPartyExist[id],\"Party already existed\") */\n      tag_59\n      jumpi\n      mload(0x40)\n      0x08c379a000000000000000000000000000000000000000000000000000000000\n      dup2\n      mstore\n      0x04\n      add\n      tag_60\n      swap1\n      tag_61\n      jump\t// in\n    tag_60:\n      mload(0x40)\n      dup1\n      swap2\n      sub\n      swap1\n      revert\n    tag_59:\n        /* \"Practice/Voting_Struct.sol\":603:614  allPartyIds */\n      0x03\n        /* \"Practice/Voting_Struct.sol\":620:622  id */\n      dup3\n        /* \"Practice/Voting_Struct.sol\":603:623  allPartyIds.push(id) */\n      swap1\n      dup1\n      0x01\n      dup2\n      sload\n      add\n      dup1\n      dup3\n      sstore\n      dup1\n      swap2\n      pop\n      pop\n      0x01\n      swap1\n      sub\n      swap1\n      0x00\n      mstore\n      keccak256(0x00, 0x20)\n      add\n      0x00\n      swap1\n      swap2\n      swap1\n      swap2\n      swap1\n      swap2\n      pop\n      sstore\n        /* \"Practice/Voting_Struct.sol\":651:655  true */\n      0x01\n        /* \"Practice/Voting_Struct.sol\":634:646  isPartyExist */\n      0x02\n        /* \"Practice/Voting_Struct.sol\":634:650  isPartyExist[id] */\n      0x00\n        /* \"Practice/Voting_Struct.sol\":647:649  id */\n      dup5\n        /* \"Practice/Voting_Struct.sol\":634:650  isPartyExist[id] */\n      dup2\n      mstore\n      0x20\n      add\n      swap1\n      dup2\n      mstore\n      0x20\n      add\n      0x00\n      keccak256\n      0x00\n        /* \"Practice/Voting_Struct.sol\":634:655  isPartyExist[id]=true */\n      0x0100\n      exp\n      dup2\n      sload\n      dup2\n      0xff\n      mul\n      not\n      and\n      swap1\n      dup4\n      iszero\n      iszero\n      mul\n      or\n      swap1\n      sstore\n      pop\n        /* \"Practice/Voting_Struct.sol\":680:696  Party(id,name,0) */\n      mload(0x40)\n      dup1\n      0x60\n      add\n      0x40\n      mstore\n      dup1\n        /* \"Practice/Voting_Struct.sol\":686:688  id */\n      dup4\n        /* \"Practice/Voting_Struct.sol\":680:696  Party(id,name,0) */\n      dup2\n      mstore\n      0x20\n      add\n        /* \"Practice/Voting_Struct.sol\":689:693  name */\n      dup3\n        /* \"Practice/Voting_Struct.sol\":680:696  Party(id,name,0) */\n      dup2\n      mstore\n      0x20\n      add\n        /* \"Practice/Voting_Struct.sol\":694:695  0 */\n      0x00\n        /* \"Practice/Voting_Struct.sol\":680:696  Party(id,name,0) */\n      dup2\n      mstore\n      pop\n        /* \"Practice/Voting_Struct.sol\":666:673  parties */\n      0x01\n        /* \"Practice/Voting_Struct.sol\":666:677  parties[id] */\n      0x00\n        /* \"Practice/Voting_Struct.sol\":674:676  id */\n      dup5\n        /* \"Practice/Voting_Struct.sol\":666:677  parties[id] */\n      dup2\n      mstore\n      0x20\n      add\n      swap1\n      dup2\n      mstore\n      0x20\n      add\n      0x00\n      keccak256\n        /* \"Practice/Voting_Struct.sol\":666:696  parties[id] = Party(id,name,0) */\n      0x00\n      dup3\n      add\n      mload\n      dup2\n      0x00\n      add\n      sstore\n      0x20\n      dup3\n      add\n      mload\n      dup2\n      0x01\n      add\n      swap1\n      dup1\n      mload\n      swap1\n      0x20\n      add\n      swap1\n      tag_63\n      swap3\n      swap2\n      swap1\n      tag_53\n      jump\t// in\n    tag_63:\n      pop\n      0x40\n      dup3\n      add\n      mload\n      dup2\n      0x02\n      add\n      sstore\n      swap1\n      pop\n      pop\n        /* \"Practice/Voting_Struct.sol\":467:704  function addParty(uint id, string memory name) public checkOwner{\r... */\n      pop\n      pop\n      jump\t// out\n    tag_53:\n      dup3\n      dup1\n      sload\n      tag_64\n      swap1\n      tag_40\n      jump\t// in\n    tag_64:\n      swap1\n      0x00\n      mstore\n      keccak256(0x00, 0x20)\n      swap1\n      0x1f\n      add\n      0x20\n      swap1\n      div\n      dup2\n      add\n      swap3\n      dup3\n      tag_66\n      jumpi\n      0x00\n      dup6\n      sstore\n      jump(tag_65)\n    tag_66:\n      dup3\n      0x1f\n      lt\n      tag_67\n      jumpi\n      dup1\n      mload\n      not(0xff)\n      and\n      dup4\n      dup1\n      add\n      or\n      dup6\n      sstore\n      jump(tag_65)\n    tag_67:\n      dup3\n      dup1\n      add\n      0x01\n      add\n      dup6\n      sstore\n      dup3\n      iszero\n      tag_65\n      jumpi\n      swap2\n      dup3\n      add\n    tag_68:\n      dup3\n      dup2\n      gt\n      iszero\n      tag_69\n      jumpi\n      dup3\n      mload\n      dup3\n      sstore\n      swap2\n      0x20\n      add\n      swap2\n      swap1\n      0x01\n      add\n      swap1\n      jump(tag_68)\n    tag_69:\n    tag_65:\n      pop\n      swap1\n      pop\n      tag_70\n      swap2\n      swap1\n      tag_71\n      jump\t// in\n    tag_70:\n      pop\n      swap1\n      jump\t// out\n    tag_71:\n    tag_72:\n      dup1\n      dup3\n      gt\n      iszero\n      tag_73\n      jumpi\n      0x00\n      dup2\n      0x00\n      swap1\n      sstore\n      pop\n      0x01\n      add\n      jump(tag_72)\n    tag_73:\n      pop\n      swap1\n      jump\t// out\n        /* \"#utility.yul\":7:351   */\n    tag_75:\n      0x00\n        /* \"#utility.yul\":110:175   */\n      tag_77\n        /* \"#utility.yul\":125:174   */\n      tag_78\n        /* \"#utility.yul\":167:173   */\n      dup5\n        /* \"#utility.yul\":125:174   */\n      tag_79\n      jump\t// in\n    tag_78:\n        /* \"#utility.yul\":110:175   */\n      tag_80\n      jump\t// in\n    tag_77:\n        /* \"#utility.yul\":101:175   */\n      swap1\n      pop\n        /* \"#utility.yul\":198:204   */\n      dup3\n        /* \"#utility.yul\":191:196   */\n      dup2\n        /* \"#utility.yul\":184:205   */\n      mstore\n        /* \"#utility.yul\":236:240   */\n      0x20\n        /* \"#utility.yul\":229:234   */\n      dup2\n        /* \"#utility.yul\":225:241   */\n      add\n        /* \"#utility.yul\":274:277   */\n      dup5\n        /* \"#utility.yul\":265:271   */\n      dup5\n        /* \"#utility.yul\":260:263   */\n      dup5\n        /* \"#utility.yul\":256:272   */\n      add\n        /* \"#utility.yul\":253:278   */\n      gt\n        /* \"#utility.yul\":250:252   */\n      iszero\n      tag_81\n      jumpi\n        /* \"#utility.yul\":291:292   */\n      0x00\n        /* \"#utility.yul\":288:289   */\n      dup1\n        /* \"#utility.yul\":281:293   */\n      revert\n        /* \"#utility.yul\":250:252   */\n    tag_81:\n        /* \"#utility.yul\":304:345   */\n      tag_82\n        /* \"#utility.yul\":338:344   */\n      dup5\n        /* \"#utility.yul\":333:336   */\n      dup3\n        /* \"#utility.yul\":328:331   */\n      dup6\n        /* \"#utility.yul\":304:345   */\n      tag_83\n      jump\t// in\n    tag_82:\n        /* \"#utility.yul\":91:351   */\n      pop\n      swap4\n      swap3\n      pop\n      pop\n      pop\n      jump\t// out\n        /* \"#utility.yul\":371:644   */\n    tag_84:\n      0x00\n        /* \"#utility.yul\":476:479   */\n      dup3\n        /* \"#utility.yul\":469:473   */\n      0x1f\n        /* \"#utility.yul\":461:467   */\n      dup4\n        /* \"#utility.yul\":457:474   */\n      add\n        /* \"#utility.yul\":453:480   */\n      slt\n        /* \"#utility.yul\":443:445   */\n      tag_86\n      jumpi\n        /* \"#utility.yul\":494:495   */\n      0x00\n        /* \"#utility.yul\":491:492   */\n      dup1\n        /* \"#utility.yul\":484:496   */\n      revert\n        /* \"#utility.yul\":443:445   */\n    tag_86:\n        /* \"#utility.yul\":534:540   */\n      dup2\n        /* \"#utility.yul\":521:541   */\n      calldataload\n        /* \"#utility.yul\":559:638   */\n      tag_87\n        /* \"#utility.yul\":634:637   */\n      dup5\n        /* \"#utility.yul\":626:632   */\n      dup3\n        /* \"#utility.yul\":619:623   */\n      0x20\n        /* \"#utility.yul\":611:617   */\n      dup7\n        /* \"#utility.yul\":607:624   */\n      add\n        /* \"#utility.yul\":559:638   */\n      tag_75\n      jump\t// in\n    tag_87:\n        /* \"#utility.yul\":550:638   */\n      swap2\n      pop\n        /* \"#utility.yul\":433:644   */\n      pop\n      swap3\n      swap2\n      pop\n      pop\n      jump\t// out\n        /* \"#utility.yul\":650:789   */\n    tag_88:\n      0x00\n        /* \"#utility.yul\":734:740   */\n      dup2\n        /* \"#utility.yul\":721:741   */\n      calldataload\n        /* \"#utility.yul\":712:741   */\n      swap1\n      pop\n        /* \"#utility.yul\":750:783   */\n      tag_90\n        /* \"#utility.yul\":777:782   */\n      dup2\n        /* \"#utility.yul\":750:783   */\n      tag_91\n      jump\t// in\n    tag_90:\n        /* \"#utility.yul\":702:789   */\n      swap3\n      swap2\n      pop\n      pop\n      jump\t// out\n        /* \"#utility.yul\":795:1057   */\n    tag_9:\n      0x00\n        /* \"#utility.yul\":903:905   */\n      0x20\n        /* \"#utility.yul\":891:900   */\n      dup3\n        /* \"#utility.yul\":882:889   */\n      dup5\n        /* \"#utility.yul\":878:901   */\n      sub\n        /* \"#utility.yul\":874:906   */\n      slt\n        /* \"#utility.yul\":871:873   */\n      iszero\n      tag_93\n      jumpi\n        /* \"#utility.yul\":919:920   */\n      0x00\n        /* \"#utility.yul\":916:917   */\n      dup1\n        /* \"#utility.yul\":909:921   */\n      revert\n        /* \"#utility.yul\":871:873   */\n    tag_93:\n        /* \"#utility.yul\":962:963   */\n      0x00\n        /* \"#utility.yul\":987:1040   */\n      tag_94\n        /* \"#utility.yul\":1032:1039   */\n      dup5\n        /* \"#utility.yul\":1023:1029   */\n      dup3\n        /* \"#utility.yul\":1012:1021   */\n      dup6\n        /* \"#utility.yul\":1008:1030   */\n      add\n        /* \"#utility.yul\":987:1040   */\n      tag_88\n      jump\t// in\n    tag_94:\n        /* \"#utility.yul\":977:1040   */\n      swap2\n      pop\n        /* \"#utility.yul\":933:1050   */\n      pop\n        /* \"#utility.yul\":861:1057   */\n      swap3\n      swap2\n      pop\n      pop\n      jump\t// out\n        /* \"#utility.yul\":1063:1583   */\n    tag_18:\n      0x00\n      dup1\n        /* \"#utility.yul\":1198:1200   */\n      0x40\n        /* \"#utility.yul\":1186:1195   */\n      dup4\n        /* \"#utility.yul\":1177:1184   */\n      dup6\n        /* \"#utility.yul\":1173:1196   */\n      sub\n        /* \"#utility.yul\":1169:1201   */\n      slt\n        /* \"#utility.yul\":1166:1168   */\n      iszero\n      tag_96\n      jumpi\n        /* \"#utility.yul\":1214:1215   */\n      0x00\n        /* \"#utility.yul\":1211:1212   */\n      dup1\n        /* \"#utility.yul\":1204:1216   */\n      revert\n        /* \"#utility.yul\":1166:1168   */\n    tag_96:\n        /* \"#utility.yul\":1257:1258   */\n      0x00\n        /* \"#utility.yul\":1282:1335   */\n      tag_97\n        /* \"#utility.yul\":1327:1334   */\n      dup6\n        /* \"#utility.yul\":1318:1324   */\n      dup3\n        /* \"#utility.yul\":1307:1316   */\n      dup7\n        /* \"#utility.yul\":1303:1325   */\n      add\n        /* \"#utility.yul\":1282:1335   */\n      tag_88\n      jump\t// in\n    tag_97:\n        /* \"#utility.yul\":1272:1335   */\n      swap3\n      pop\n        /* \"#utility.yul\":1228:1345   */\n      pop\n        /* \"#utility.yul\":1412:1414   */\n      0x20\n        /* \"#utility.yul\":1401:1410   */\n      dup4\n        /* \"#utility.yul\":1397:1415   */\n      add\n        /* \"#utility.yul\":1384:1416   */\n      calldataload\n        /* \"#utility.yul\":1443:1461   */\n      0xffffffffffffffff\n        /* \"#utility.yul\":1435:1441   */\n      dup2\n        /* \"#utility.yul\":1432:1462   */\n      gt\n        /* \"#utility.yul\":1429:1431   */\n      iszero\n      tag_98\n      jumpi\n        /* \"#utility.yul\":1475:1476   */\n      0x00\n        /* \"#utility.yul\":1472:1473   */\n      dup1\n        /* \"#utility.yul\":1465:1477   */\n      revert\n        /* \"#utility.yul\":1429:1431   */\n    tag_98:\n        /* \"#utility.yul\":1503:1566   */\n      tag_99\n        /* \"#utility.yul\":1558:1565   */\n      dup6\n        /* \"#utility.yul\":1549:1555   */\n      dup3\n        /* \"#utility.yul\":1538:1547   */\n      dup7\n        /* \"#utility.yul\":1534:1556   */\n      add\n        /* \"#utility.yul\":1503:1566   */\n      tag_84\n      jump\t// in\n    tag_99:\n        /* \"#utility.yul\":1493:1566   */\n      swap2\n      pop\n        /* \"#utility.yul\":1355:1576   */\n      pop\n        /* \"#utility.yul\":1156:1583   */\n      swap3\n      pop\n      swap3\n      swap1\n      pop\n      jump\t// out\n        /* \"#utility.yul\":1589:1953   */\n    tag_100:\n      0x00\n        /* \"#utility.yul\":1705:1744   */\n      tag_102\n        /* \"#utility.yul\":1738:1743   */\n      dup3\n        /* \"#utility.yul\":1705:1744   */\n      tag_103\n      jump\t// in\n    tag_102:\n        /* \"#utility.yul\":1760:1831   */\n      tag_104\n        /* \"#utility.yul\":1824:1830   */\n      dup2\n        /* \"#utility.yul\":1819:1822   */\n      dup6\n        /* \"#utility.yul\":1760:1831   */\n      tag_105\n      jump\t// in\n    tag_104:\n        /* \"#utility.yul\":1753:1831   */\n      swap4\n      pop\n        /* \"#utility.yul\":1840:1892   */\n      tag_106\n        /* \"#utility.yul\":1885:1891   */\n      dup2\n        /* \"#utility.yul\":1880:1883   */\n      dup6\n        /* \"#utility.yul\":1873:1877   */\n      0x20\n        /* \"#utility.yul\":1866:1871   */\n      dup7\n        /* \"#utility.yul\":1862:1878   */\n      add\n        /* \"#utility.yul\":1840:1892   */\n      tag_107\n      jump\t// in\n    tag_106:\n        /* \"#utility.yul\":1917:1946   */\n      tag_108\n        /* \"#utility.yul\":1939:1945   */\n      dup2\n        /* \"#utility.yul\":1917:1946   */\n      tag_109\n      jump\t// in\n    tag_108:\n        /* \"#utility.yul\":1912:1915   */\n      dup5\n        /* \"#utility.yul\":1908:1947   */\n      add\n        /* \"#utility.yul\":1901:1947   */\n      swap2\n      pop\n        /* \"#utility.yul\":1681:1953   */\n      pop\n      swap3\n      swap2\n      pop\n      pop\n      jump\t// out\n        /* \"#utility.yul\":1959:2278   */\n    tag_110:\n      0x00\n        /* \"#utility.yul\":2122:2189   */\n      tag_112\n        /* \"#utility.yul\":2186:2188   */\n      0x15\n        /* \"#utility.yul\":2181:2184   */\n      dup4\n        /* \"#utility.yul\":2122:2189   */\n      tag_105\n      jump\t// in\n    tag_112:\n        /* \"#utility.yul\":2115:2189   */\n      swap2\n      pop\n        /* \"#utility.yul\":2219:2242   */\n      0x566f74657220616c726561647920657869737465640000000000000000000000\n        /* \"#utility.yul\":2215:2216   */\n      0x00\n        /* \"#utility.yul\":2210:2213   */\n      dup4\n        /* \"#utility.yul\":2206:2217   */\n      add\n        /* \"#utility.yul\":2199:2243   */\n      mstore\n        /* \"#utility.yul\":2269:2271   */\n      0x20\n        /* \"#utility.yul\":2264:2267   */\n      dup3\n        /* \"#utility.yul\":2260:2272   */\n      add\n        /* \"#utility.yul\":2253:2272   */\n      swap1\n      pop\n        /* \"#utility.yul\":2105:2278   */\n      swap2\n      swap1\n      pop\n      jump\t// out\n        /* \"#utility.yul\":2284:2595   */\n    tag_113:\n      0x00\n        /* \"#utility.yul\":2447:2514   */\n      tag_115\n        /* \"#utility.yul\":2511:2513   */\n      0x0d\n        /* \"#utility.yul\":2506:2509   */\n      dup4\n        /* \"#utility.yul\":2447:2514   */\n      tag_105\n      jump\t// in\n    tag_115:\n        /* \"#utility.yul\":2440:2514   */\n      swap2\n      pop\n        /* \"#utility.yul\":2544:2559   */\n      0x4163636573732044656e69656400000000000000000000000000000000000000\n        /* \"#utility.yul\":2540:2541   */\n      0x00\n        /* \"#utility.yul\":2535:2538   */\n      dup4\n        /* \"#utility.yul\":2531:2542   */\n      add\n        /* \"#utility.yul\":2524:2560   */\n      mstore\n        /* \"#utility.yul\":2586:2588   */\n      0x20\n        /* \"#utility.yul\":2581:2584   */\n      dup3\n        /* \"#utility.yul\":2577:2589   */\n      add\n        /* \"#utility.yul\":2570:2589   */\n      swap1\n      pop\n        /* \"#utility.yul\":2430:2595   */\n      swap2\n      swap1\n      pop\n      jump\t// out\n        /* \"#utility.yul\":2601:2912   */\n    tag_116:\n      0x00\n        /* \"#utility.yul\":2764:2831   */\n      tag_118\n        /* \"#utility.yul\":2828:2830   */\n      0x0d\n        /* \"#utility.yul\":2823:2826   */\n      dup4\n        /* \"#utility.yul\":2764:2831   */\n      tag_105\n      jump\t// in\n    tag_118:\n        /* \"#utility.yul\":2757:2831   */\n      swap2\n      pop\n        /* \"#utility.yul\":2861:2876   */\n      0x416c726561647920766f74656400000000000000000000000000000000000000\n        /* \"#utility.yul\":2857:2858   */\n      0x00\n        /* \"#utility.yul\":2852:2855   */\n      dup4\n        /* \"#utility.yul\":2848:2859   */\n      add\n        /* \"#utility.yul\":2841:2877   */\n      mstore\n        /* \"#utility.yul\":2903:2905   */\n      0x20\n        /* \"#utility.yul\":2898:2901   */\n      dup3\n        /* \"#utility.yul\":2894:2906   */\n      add\n        /* \"#utility.yul\":2887:2906   */\n      swap1\n      pop\n        /* \"#utility.yul\":2747:2912   */\n      swap2\n      swap1\n      pop\n      jump\t// out\n        /* \"#utility.yul\":2918:3239   */\n    tag_119:\n      0x00\n        /* \"#utility.yul\":3081:3148   */\n      tag_121\n        /* \"#utility.yul\":3145:3147   */\n      0x17\n        /* \"#utility.yul\":3140:3143   */\n      dup4\n        /* \"#utility.yul\":3081:3148   */\n      tag_105\n      jump\t// in\n    tag_121:\n        /* \"#utility.yul\":3074:3148   */\n      swap2\n      pop\n        /* \"#utility.yul\":3178:3203   */\n      0x4e6f74207265676973746572656420617320766f746572000000000000000000\n        /* \"#utility.yul\":3174:3175   */\n      0x00\n        /* \"#utility.yul\":3169:3172   */\n      dup4\n        /* \"#utility.yul\":3165:3176   */\n      add\n        /* \"#utility.yul\":3158:3204   */\n      mstore\n        /* \"#utility.yul\":3230:3232   */\n      0x20\n        /* \"#utility.yul\":3225:3228   */\n      dup3\n        /* \"#utility.yul\":3221:3233   */\n      add\n        /* \"#utility.yul\":3214:3233   */\n      swap1\n      pop\n        /* \"#utility.yul\":3064:3239   */\n      swap2\n      swap1\n      pop\n      jump\t// out\n        /* \"#utility.yul\":3245:3556   */\n    tag_122:\n      0x00\n        /* \"#utility.yul\":3408:3475   */\n      tag_124\n        /* \"#utility.yul\":3472:3474   */\n      0x0d\n        /* \"#utility.yul\":3467:3470   */\n      dup4\n        /* \"#utility.yul\":3408:3475   */\n      tag_105\n      jump\t// in\n    tag_124:\n        /* \"#utility.yul\":3401:3475   */\n      swap2\n      pop\n        /* \"#utility.yul\":3505:3520   */\n      0x496e76616c696420706172747900000000000000000000000000000000000000\n        /* \"#utility.yul\":3501:3502   */\n      0x00\n        /* \"#utility.yul\":3496:3499   */\n      dup4\n        /* \"#utility.yul\":3492:3503   */\n      add\n        /* \"#utility.yul\":3485:3521   */\n      mstore\n        /* \"#utility.yul\":3547:3549   */\n      0x20\n        /* \"#utility.yul\":3542:3545   */\n      dup3\n        /* \"#utility.yul\":3538:3550   */\n      add\n        /* \"#utility.yul\":3531:3550   */\n      swap1\n      pop\n        /* \"#utility.yul\":3391:3556   */\n      swap2\n      swap1\n      pop\n      jump\t// out\n        /* \"#utility.yul\":3562:3881   */\n    tag_125:\n      0x00\n        /* \"#utility.yul\":3725:3792   */\n      tag_127\n        /* \"#utility.yul\":3789:3791   */\n      0x15\n        /* \"#utility.yul\":3784:3787   */\n      dup4\n        /* \"#utility.yul\":3725:3792   */\n      tag_105\n      jump\t// in\n    tag_127:\n        /* \"#utility.yul\":3718:3792   */\n      swap2\n      pop\n        /* \"#utility.yul\":3822:3845   */\n      0x506172747920616c726561647920657869737465640000000000000000000000\n        /* \"#utility.yul\":3818:3819   */\n      0x00\n        /* \"#utility.yul\":3813:3816   */\n      dup4\n        /* \"#utility.yul\":3809:3820   */\n      add\n        /* \"#utility.yul\":3802:3846   */\n      mstore\n        /* \"#utility.yul\":3872:3874   */\n      0x20\n        /* \"#utility.yul\":3867:3870   */\n      dup3\n        /* \"#utility.yul\":3863:3875   */\n      add\n        /* \"#utility.yul\":3856:3875   */\n      swap1\n      pop\n        /* \"#utility.yul\":3708:3881   */\n      swap2\n      swap1\n      pop\n      jump\t// out\n        /* \"#utility.yul\":3887:4200   */\n    tag_128:\n      0x00\n        /* \"#utility.yul\":4050:4117   */\n      tag_130\n        /* \"#utility.yul\":4114:4116   */\n      0x0f\n        /* \"#utility.yul\":4109:4112   */\n      dup4\n        /* \"#utility.yul\":4050:4117   */\n      tag_105\n      jump\t// in\n    tag_130:\n        /* \"#utility.yul\":4043:4117   */\n      swap2\n      pop\n        /* \"#utility.yul\":4147:4164   */\n      0x5061727479206e6f7420666f756e640000000000000000000000000000000000\n        /* \"#utility.yul\":4143:4144   */\n      0x00\n        /* \"#utility.yul\":4138:4141   */\n      dup4\n        /* \"#utility.yul\":4134:4145   */\n      add\n        /* \"#utility.yul\":4127:4165   */\n      mstore\n        /* \"#utility.yul\":4191:4193   */\n      0x20\n        /* \"#utility.yul\":4186:4189   */\n      dup3\n        /* \"#utility.yul\":4182:4194   */\n      add\n        /* \"#utility.yul\":4175:4194   */\n      swap1\n      pop\n        /* \"#utility.yul\":4033:4200   */\n      swap2\n      swap1\n      pop\n      jump\t// out\n        /* \"#utility.yul\":4206:4324   */\n    tag_131:\n        /* \"#utility.yul\":4293:4317   */\n      tag_133\n        /* \"#utility.yul\":4311:4316   */\n      dup2\n        /* \"#utility.yul\":4293:4317   */\n      tag_134\n      jump\t// in\n    tag_133:\n        /* \"#utility.yul\":4288:4291   */\n      dup3\n        /* \"#utility.yul\":4281:4318   */\n      mstore\n        /* \"#utility.yul\":4271:4324   */\n      pop\n      pop\n      jump\t// out\n        /* \"#utility.yul\":4330:4753   */\n    tag_15:\n      0x00\n        /* \"#utility.yul\":4509:4511   */\n      0x40\n        /* \"#utility.yul\":4498:4507   */\n      dup3\n        /* \"#utility.yul\":4494:4512   */\n      add\n        /* \"#utility.yul\":4486:4512   */\n      swap1\n      pop\n        /* \"#utility.yul\":4558:4567   */\n      dup2\n        /* \"#utility.yul\":4552:4556   */\n      dup2\n        /* \"#utility.yul\":4548:4568   */\n      sub\n        /* \"#utility.yul\":4544:4545   */\n      0x00\n        /* \"#utility.yul\":4533:4542   */\n      dup4\n        /* \"#utility.yul\":4529:4546   */\n      add\n        /* \"#utility.yul\":4522:4569   */\n      mstore\n        /* \"#utility.yul\":4586:4664   */\n      tag_136\n        /* \"#utility.yul\":4659:4663   */\n      dup2\n        /* \"#utility.yul\":4650:4656   */\n      dup6\n        /* \"#utility.yul\":4586:4664   */\n      tag_100\n      jump\t// in\n    tag_136:\n        /* \"#utility.yul\":4578:4664   */\n      swap1\n      pop\n        /* \"#utility.yul\":4674:4746   */\n      tag_137\n        /* \"#utility.yul\":4742:4744   */\n      0x20\n        /* \"#utility.yul\":4731:4740   */\n      dup4\n        /* \"#utility.yul\":4727:4745   */\n      add\n        /* \"#utility.yul\":4718:4724   */\n      dup5\n        /* \"#utility.yul\":4674:4746   */\n      tag_131\n      jump\t// in\n    tag_137:\n        /* \"#utility.yul\":4476:4753   */\n      swap4\n      swap3\n      pop\n      pop\n      pop\n      jump\t// out\n        /* \"#utility.yul\":4759:5178   */\n    tag_48:\n      0x00\n        /* \"#utility.yul\":4963:4965   */\n      0x20\n        /* \"#utility.yul\":4952:4961   */\n      dup3\n        /* \"#utility.yul\":4948:4966   */\n      add\n        /* \"#utility.yul\":4940:4966   */\n      swap1\n      pop\n        /* \"#utility.yul\":5012:5021   */\n      dup2\n        /* \"#utility.yul\":5006:5010   */\n      dup2\n        /* \"#utility.yul\":5002:5022   */\n      sub\n        /* \"#utility.yul\":4998:4999   */\n      0x00\n        /* \"#utility.yul\":4987:4996   */\n      dup4\n        /* \"#utility.yul\":4983:5000   */\n      add\n        /* \"#utility.yul\":4976:5023   */\n      mstore\n        /* \"#utility.yul\":5040:5171   */\n      tag_139\n        /* \"#utility.yul\":5166:5170   */\n      dup2\n        /* \"#utility.yul\":5040:5171   */\n      tag_110\n      jump\t// in\n    tag_139:\n        /* \"#utility.yul\":5032:5171   */\n      swap1\n      pop\n        /* \"#utility.yul\":4930:5178   */\n      swap2\n      swap1\n      pop\n      jump\t// out\n        /* \"#utility.yul\":5184:5603   */\n    tag_57:\n      0x00\n        /* \"#utility.yul\":5388:5390   */\n      0x20\n        /* \"#utility.yul\":5377:5386   */\n      dup3\n        /* \"#utility.yul\":5373:5391   */\n      add\n        /* \"#utility.yul\":5365:5391   */\n      swap1\n      pop\n        /* \"#utility.yul\":5437:5446   */\n      dup2\n        /* \"#utility.yul\":5431:5435   */\n      dup2\n        /* \"#utility.yul\":5427:5447   */\n      sub\n        /* \"#utility.yul\":5423:5424   */\n      0x00\n        /* \"#utility.yul\":5412:5421   */\n      dup4\n        /* \"#utility.yul\":5408:5425   */\n      add\n        /* \"#utility.yul\":5401:5448   */\n      mstore\n        /* \"#utility.yul\":5465:5596   */\n      tag_141\n        /* \"#utility.yul\":5591:5595   */\n      dup2\n        /* \"#utility.yul\":5465:5596   */\n      tag_113\n      jump\t// in\n    tag_141:\n        /* \"#utility.yul\":5457:5596   */\n      swap1\n      pop\n        /* \"#utility.yul\":5355:5603   */\n      swap2\n      swap1\n      pop\n      jump\t// out\n        /* \"#utility.yul\":5609:6028   */\n    tag_29:\n      0x00\n        /* \"#utility.yul\":5813:5815   */\n      0x20\n        /* \"#utility.yul\":5802:5811   */\n      dup3\n        /* \"#utility.yul\":5798:5816   */\n      add\n        /* \"#utility.yul\":5790:5816   */\n      swap1\n      pop\n        /* \"#utility.yul\":5862:5871   */\n      dup2\n        /* \"#utility.yul\":5856:5860   */\n      dup2\n        /* \"#utility.yul\":5852:5872   */\n      sub\n        /* \"#utility.yul\":5848:5849   */\n      0x00\n        /* \"#utility.yul\":5837:5846   */\n      dup4\n        /* \"#utility.yul\":5833:5850   */\n      add\n        /* \"#utility.yul\":5826:5873   */\n      mstore\n        /* \"#utility.yul\":5890:6021   */\n      tag_143\n        /* \"#utility.yul\":6016:6020   */\n      dup2\n        /* \"#utility.yul\":5890:6021   */\n      tag_116\n      jump\t// in\n    tag_143:\n        /* \"#utility.yul\":5882:6021   */\n      swap1\n      pop\n        /* \"#utility.yul\":5780:6028   */\n      swap2\n      swap1\n      pop\n      jump\t// out\n        /* \"#utility.yul\":6034:6453   */\n    tag_26:\n      0x00\n        /* \"#utility.yul\":6238:6240   */\n      0x20\n        /* \"#utility.yul\":6227:6236   */\n      dup3\n        /* \"#utility.yul\":6223:6241   */\n      add\n        /* \"#utility.yul\":6215:6241   */\n      swap1\n      pop\n        /* \"#utility.yul\":6287:6296   */\n      dup2\n        /* \"#utility.yul\":6281:6285   */\n      dup2\n        /* \"#utility.yul\":6277:6297   */\n      sub\n        /* \"#utility.yul\":6273:6274   */\n      0x00\n        /* \"#utility.yul\":6262:6271   */\n      dup4\n        /* \"#utility.yul\":6258:6275   */\n      add\n        /* \"#utility.yul\":6251:6298   */\n      mstore\n        /* \"#utility.yul\":6315:6446   */\n      tag_145\n        /* \"#utility.yul\":6441:6445   */\n      dup2\n        /* \"#utility.yul\":6315:6446   */\n      tag_119\n      jump\t// in\n    tag_145:\n        /* \"#utility.yul\":6307:6446   */\n      swap1\n      pop\n        /* \"#utility.yul\":6205:6453   */\n      swap2\n      swap1\n      pop\n      jump\t// out\n        /* \"#utility.yul\":6459:6878   */\n    tag_32:\n      0x00\n        /* \"#utility.yul\":6663:6665   */\n      0x20\n        /* \"#utility.yul\":6652:6661   */\n      dup3\n        /* \"#utility.yul\":6648:6666   */\n      add\n        /* \"#utility.yul\":6640:6666   */\n      swap1\n      pop\n        /* \"#utility.yul\":6712:6721   */\n      dup2\n        /* \"#utility.yul\":6706:6710   */\n      dup2\n        /* \"#utility.yul\":6702:6722   */\n      sub\n        /* \"#utility.yul\":6698:6699   */\n      0x00\n        /* \"#utility.yul\":6687:6696   */\n      dup4\n        /* \"#utility.yul\":6683:6700   */\n      add\n        /* \"#utility.yul\":6676:6723   */\n      mstore\n        /* \"#utility.yul\":6740:6871   */\n      tag_147\n        /* \"#utility.yul\":6866:6870   */\n      dup2\n        /* \"#utility.yul\":6740:6871   */\n      tag_122\n      jump\t// in\n    tag_147:\n        /* \"#utility.yul\":6732:6871   */\n      swap1\n      pop\n        /* \"#utility.yul\":6630:6878   */\n      swap2\n      swap1\n      pop\n      jump\t// out\n        /* \"#utility.yul\":6884:7303   */\n    tag_61:\n      0x00\n        /* \"#utility.yul\":7088:7090   */\n      0x20\n        /* \"#utility.yul\":7077:7086   */\n      dup3\n        /* \"#utility.yul\":7073:7091   */\n      add\n        /* \"#utility.yul\":7065:7091   */\n      swap1\n      pop\n        /* \"#utility.yul\":7137:7146   */\n      dup2\n        /* \"#utility.yul\":7131:7135   */\n      dup2\n        /* \"#utility.yul\":7127:7147   */\n      sub\n        /* \"#utility.yul\":7123:7124   */\n      0x00\n        /* \"#utility.yul\":7112:7121   */\n      dup4\n        /* \"#utility.yul\":7108:7125   */\n      add\n        /* \"#utility.yul\":7101:7148   */\n      mstore\n        /* \"#utility.yul\":7165:7296   */\n      tag_149\n        /* \"#utility.yul\":7291:7295   */\n      dup2\n        /* \"#utility.yul\":7165:7296   */\n      tag_125\n      jump\t// in\n    tag_149:\n        /* \"#utility.yul\":7157:7296   */\n      swap1\n      pop\n        /* \"#utility.yul\":7055:7303   */\n      swap2\n      swap1\n      pop\n      jump\t// out\n        /* \"#utility.yul\":7309:7728   */\n    tag_38:\n      0x00\n        /* \"#utility.yul\":7513:7515   */\n      0x20\n        /* \"#utility.yul\":7502:7511   */\n      dup3\n        /* \"#utility.yul\":7498:7516   */\n      add\n        /* \"#utility.yul\":7490:7516   */\n      swap1\n      pop\n        /* \"#utility.yul\":7562:7571   */\n      dup2\n        /* \"#utility.yul\":7556:7560   */\n      dup2\n        /* \"#utility.yul\":7552:7572   */\n      sub\n        /* \"#utility.yul\":7548:7549   */\n      0x00\n        /* \"#utility.yul\":7537:7546   */\n      dup4\n        /* \"#utility.yul\":7533:7550   */\n      add\n        /* \"#utility.yul\":7526:7573   */\n      mstore\n        /* \"#utility.yul\":7590:7721   */\n      tag_151\n        /* \"#utility.yul\":7716:7720   */\n      dup2\n        /* \"#utility.yul\":7590:7721   */\n      tag_128\n      jump\t// in\n    tag_151:\n        /* \"#utility.yul\":7582:7721   */\n      swap1\n      pop\n        /* \"#utility.yul\":7480:7728   */\n      swap2\n      swap1\n      pop\n      jump\t// out\n        /* \"#utility.yul\":7734:8017   */\n    tag_80:\n      0x00\n        /* \"#utility.yul\":7800:7802   */\n      0x40\n        /* \"#utility.yul\":7794:7803   */\n      mload\n        /* \"#utility.yul\":7784:7803   */\n      swap1\n      pop\n        /* \"#utility.yul\":7842:7846   */\n      dup2\n        /* \"#utility.yul\":7834:7840   */\n      dup2\n        /* \"#utility.yul\":7830:7847   */\n      add\n        /* \"#utility.yul\":7949:7955   */\n      dup2\n        /* \"#utility.yul\":7937:7947   */\n      dup2\n        /* \"#utility.yul\":7934:7956   */\n      lt\n        /* \"#utility.yul\":7913:7931   */\n      0xffffffffffffffff\n        /* \"#utility.yul\":7901:7911   */\n      dup3\n        /* \"#utility.yul\":7898:7932   */\n      gt\n        /* \"#utility.yul\":7895:7957   */\n      or\n        /* \"#utility.yul\":7892:7894   */\n      iszero\n      tag_153\n      jumpi\n        /* \"#utility.yul\":7960:7978   */\n      tag_154\n      tag_155\n      jump\t// in\n    tag_154:\n        /* \"#utility.yul\":7892:7894   */\n    tag_153:\n        /* \"#utility.yul\":8000:8010   */\n      dup1\n        /* \"#utility.yul\":7996:7998   */\n      0x40\n        /* \"#utility.yul\":7989:8011   */\n      mstore\n        /* \"#utility.yul\":7774:8017   */\n      pop\n      swap2\n      swap1\n      pop\n      jump\t// out\n        /* \"#utility.yul\":8023:8355   */\n    tag_79:\n      0x00\n        /* \"#utility.yul\":8175:8193   */\n      0xffffffffffffffff\n        /* \"#utility.yul\":8167:8173   */\n      dup3\n        /* \"#utility.yul\":8164:8194   */\n      gt\n        /* \"#utility.yul\":8161:8163   */\n      iszero\n      tag_157\n      jumpi\n        /* \"#utility.yul\":8197:8215   */\n      tag_158\n      tag_155\n      jump\t// in\n    tag_158:\n        /* \"#utility.yul\":8161:8163   */\n    tag_157:\n        /* \"#utility.yul\":8282:8286   */\n      0x1f\n        /* \"#utility.yul\":8278:8287   */\n      not\n        /* \"#utility.yul\":8271:8275   */\n      0x1f\n        /* \"#utility.yul\":8263:8269   */\n      dup4\n        /* \"#utility.yul\":8259:8276   */\n      add\n        /* \"#utility.yul\":8255:8288   */\n      and\n        /* \"#utility.yul\":8247:8288   */\n      swap1\n      pop\n        /* \"#utility.yul\":8343:8347   */\n      0x20\n        /* \"#utility.yul\":8337:8341   */\n      dup2\n        /* \"#utility.yul\":8333:8348   */\n      add\n        /* \"#utility.yul\":8325:8348   */\n      swap1\n      pop\n        /* \"#utility.yul\":8090:8355   */\n      swap2\n      swap1\n      pop\n      jump\t// out\n        /* \"#utility.yul\":8361:8460   */\n    tag_103:\n      0x00\n        /* \"#utility.yul\":8447:8452   */\n      dup2\n        /* \"#utility.yul\":8441:8453   */\n      mload\n        /* \"#utility.yul\":8431:8453   */\n      swap1\n      pop\n        /* \"#utility.yul\":8420:8460   */\n      swap2\n      swap1\n      pop\n      jump\t// out\n        /* \"#utility.yul\":8466:8635   */\n    tag_105:\n      0x00\n        /* \"#utility.yul\":8584:8590   */\n      dup3\n        /* \"#utility.yul\":8579:8582   */\n      dup3\n        /* \"#utility.yul\":8572:8591   */\n      mstore\n        /* \"#utility.yul\":8624:8628   */\n      0x20\n        /* \"#utility.yul\":8619:8622   */\n      dup3\n        /* \"#utility.yul\":8615:8629   */\n      add\n        /* \"#utility.yul\":8600:8629   */\n      swap1\n      pop\n        /* \"#utility.yul\":8562:8635   */\n      swap3\n      swap2\n      pop\n      pop\n      jump\t// out\n        /* \"#utility.yul\":8641:8718   */\n    tag_134:\n      0x00\n        /* \"#utility.yul\":8707:8712   */\n      dup2\n        /* \"#utility.yul\":8696:8712   */\n      swap1\n      pop\n        /* \"#utility.yul\":8686:8718   */\n      swap2\n      swap1\n      pop\n      jump\t// out\n        /* \"#utility.yul\":8724:8878   */\n    tag_83:\n        /* \"#utility.yul\":8808:8814   */\n      dup3\n        /* \"#utility.yul\":8803:8806   */\n      dup2\n        /* \"#utility.yul\":8798:8801   */\n      dup4\n        /* \"#utility.yul\":8785:8815   */\n      calldatacopy\n        /* \"#utility.yul\":8870:8871   */\n      0x00\n        /* \"#utility.yul\":8861:8867   */\n      dup4\n        /* \"#utility.yul\":8856:8859   */\n      dup4\n        /* \"#utility.yul\":8852:8868   */\n      add\n        /* \"#utility.yul\":8845:8872   */\n      mstore\n        /* \"#utility.yul\":8775:8878   */\n      pop\n      pop\n      pop\n      jump\t// out\n        /* \"#utility.yul\":8884:9191   */\n    tag_107:\n        /* \"#utility.yul\":8952:8953   */\n      0x00\n        /* \"#utility.yul\":8962:9075   */\n    tag_164:\n        /* \"#utility.yul\":8976:8982   */\n      dup4\n        /* \"#utility.yul\":8973:8974   */\n      dup2\n        /* \"#utility.yul\":8970:8983   */\n      lt\n        /* \"#utility.yul\":8962:9075   */\n      iszero\n      tag_166\n      jumpi\n        /* \"#utility.yul\":9061:9062   */\n      dup1\n        /* \"#utility.yul\":9056:9059   */\n      dup3\n        /* \"#utility.yul\":9052:9063   */\n      add\n        /* \"#utility.yul\":9046:9064   */\n      mload\n        /* \"#utility.yul\":9042:9043   */\n      dup2\n        /* \"#utility.yul\":9037:9040   */\n      dup5\n        /* \"#utility.yul\":9033:9044   */\n      add\n        /* \"#utility.yul\":9026:9065   */\n      mstore\n        /* \"#utility.yul\":8998:9000   */\n      0x20\n        /* \"#utility.yul\":8995:8996   */\n      dup2\n        /* \"#utility.yul\":8991:9001   */\n      add\n        /* \"#utility.yul\":8986:9001   */\n      swap1\n      pop\n        /* \"#utility.yul\":8962:9075   */\n      jump(tag_164)\n    tag_166:\n        /* \"#utility.yul\":9093:9099   */\n      dup4\n        /* \"#utility.yul\":9090:9091   */\n      dup2\n        /* \"#utility.yul\":9087:9100   */\n      gt\n        /* \"#utility.yul\":9084:9086   */\n      iszero\n      tag_167\n      jumpi\n        /* \"#utility.yul\":9173:9174   */\n      0x00\n        /* \"#utility.yul\":9164:9170   */\n      dup5\n        /* \"#utility.yul\":9159:9162   */\n      dup5\n        /* \"#utility.yul\":9155:9171   */\n      add\n        /* \"#utility.yul\":9148:9175   */\n      mstore\n        /* \"#utility.yul\":9084:9086   */\n    tag_167:\n        /* \"#utility.yul\":8933:9191   */\n      pop\n      pop\n      pop\n      pop\n      jump\t// out\n        /* \"#utility.yul\":9197:9517   */\n    tag_40:\n      0x00\n        /* \"#utility.yul\":9278:9279   */\n      0x02\n        /* \"#utility.yul\":9272:9276   */\n      dup3\n        /* \"#utility.yul\":9268:9280   */\n      div\n        /* \"#utility.yul\":9258:9280   */\n      swap1\n      pop\n        /* \"#utility.yul\":9325:9326   */\n      0x01\n        /* \"#utility.yul\":9319:9323   */\n      dup3\n        /* \"#utility.yul\":9315:9327   */\n      and\n        /* \"#utility.yul\":9346:9364   */\n      dup1\n        /* \"#utility.yul\":9336:9338   */\n      tag_169\n      jumpi\n        /* \"#utility.yul\":9402:9406   */\n      0x7f\n        /* \"#utility.yul\":9394:9400   */\n      dup3\n        /* \"#utility.yul\":9390:9407   */\n      and\n        /* \"#utility.yul\":9380:9407   */\n      swap2\n      pop\n        /* \"#utility.yul\":9336:9338   */\n    tag_169:\n        /* \"#utility.yul\":9464:9466   */\n      0x20\n        /* \"#utility.yul\":9456:9462   */\n      dup3\n        /* \"#utility.yul\":9453:9467   */\n      lt\n        /* \"#utility.yul\":9433:9451   */\n      dup2\n        /* \"#utility.yul\":9430:9468   */\n      eq\n        /* \"#utility.yul\":9427:9429   */\n      iszero\n      tag_170\n      jumpi\n        /* \"#utility.yul\":9483:9501   */\n      tag_171\n      tag_172\n      jump\t// in\n    tag_171:\n        /* \"#utility.yul\":9427:9429   */\n    tag_170:\n        /* \"#utility.yul\":9248:9517   */\n      pop\n      swap2\n      swap1\n      pop\n      jump\t// out\n        /* \"#utility.yul\":9523:9756   */\n    tag_34:\n      0x00\n        /* \"#utility.yul\":9585:9609   */\n      tag_174\n        /* \"#utility.yul\":9603:9608   */\n      dup3\n        /* \"#utility.yul\":9585:9609   */\n      tag_134\n      jump\t// in\n    tag_174:\n        /* \"#utility.yul\":9576:9609   */\n      swap2\n      pop\n        /* \"#utility.yul\":9631:9697   */\n      0xffffffffffffffffffffffffffffffffffffffffffffffffffffffffffffffff\n        /* \"#utility.yul\":9624:9629   */\n      dup3\n        /* \"#utility.yul\":9621:9698   */\n      eq\n        /* \"#utility.yul\":9618:9620   */\n      iszero\n      tag_175\n      jumpi\n        /* \"#utility.yul\":9701:9719   */\n      tag_176\n      tag_177\n      jump\t// in\n    tag_176:\n        /* \"#utility.yul\":9618:9620   */\n    tag_175:\n        /* \"#utility.yul\":9748:9749   */\n      0x01\n        /* \"#utility.yul\":9741:9746   */\n      dup3\n        /* \"#utility.yul\":9737:9750   */\n      add\n        /* \"#utility.yul\":9730:9750   */\n      swap1\n      pop\n        /* \"#utility.yul\":9566:9756   */\n      swap2\n      swap1\n      pop\n      jump\t// out\n        /* \"#utility.yul\":9762:9942   */\n    tag_177:\n        /* \"#utility.yul\":9810:9887   */\n      0x4e487b7100000000000000000000000000000000000000000000000000000000\n        /* \"#utility.yul\":9807:9808   */\n      0x00\n        /* \"#utility.yul\":9800:9888   */\n      mstore\n        /* \"#utility.yul\":9907:9911   */\n      0x11\n        /* \"#utility.yul\":9904:9905   */\n      0x04\n        /* \"#utility.yul\":9897:9912   */\n      mstore\n        /* \"#utility.yul\":9931:9935   */\n      0x24\n        /* \"#utility.yul\":9928:9929   */\n      0x00\n        /* \"#utility.yul\":9921:9936   */\n      revert\n        /* \"#utility.yul\":9948:10128   */\n    tag_172:\n        /* \"#utility.yul\":9996:10073   */\n      0x4e487b7100000000000000000000000000000000000000000000000000000000\n        /* \"#utility.yul\":9993:9994   */\n      0x00\n        /* \"#utility.yul\":9986:10074   */\n      mstore\n        /* \"#utility.yul\":10093:10097   */\n      0x22\n        /* \"#utility.yul\":10090:10091   */\n      0x04\n        /* \"#utility.yul\":10083:10098   */\n      mstore\n        /* \"#utility.yul\":10117:10121   */\n      0x24\n        /* \"#utility.yul\":10114:10115   */\n      0x00\n        /* \"#utility.yul\":10107:10122   */\n      revert\n        /* \"#utility.yul\":10134:10314   */\n    tag_155:\n        /* \"#utility.yul\":10182:10259   */\n      0x4e487b7100000000000000000000000000000000000000000000000000000000\n        /* \"#utility.yul\":10179:10180   */\n      0x00\n        /* \"#utility.yul\":10172:10260   */\n      mstore\n        /* \"#utility.yul\":10279:10283   */\n      0x41\n        /* \"#utility.yul\":10276:10277   */\n      0x04\n        /* \"#utility.yul\":10269:10284   */\n      mstore\n        /* \"#utility.yul\":10303:10307   */\n      0x24\n        /* \"#utility.yul\":10300:10301   */\n      0x00\n        /* \"#utility.yul\":10293:10308   */\n      revert\n        /* \"#utility.yul\":10320:10422   */\n    tag_109:\n      0x00\n        /* \"#utility.yul\":10412:10414   */\n      0x1f\n        /* \"#utility.yul\":10408:10415   */\n      not\n        /* \"#utility.yul\":10403:10405   */\n      0x1f\n        /* \"#utility.yul\":10396:10401   */\n      dup4\n        /* \"#utility.yul\":10392:10406   */\n      add\n        /* \"#utility.yul\":10388:10416   */\n      and\n        /* \"#utility.yul\":10378:10416   */\n      swap1\n      pop\n        /* \"#utility.yul\":10368:10422   */\n      swap2\n      swap1\n      pop\n      jump\t// out\n        /* \"#utility.yul\":10428:10550   */\n    tag_91:\n        /* \"#utility.yul\":10501:10525   */\n      tag_183\n        /* \"#utility.yul\":10519:10524   */\n      dup2\n        /* \"#utility.yul\":10501:10525   */\n      tag_134\n      jump\t// in\n    tag_183:\n        /* \"#utility.yul\":10494:10499   */\n      dup2\n        /* \"#utility.yul\":10491:10526   */\n      eq\n        /* \"#utility.yul\":10481:10483   */\n      tag_184\n      jumpi\n        /* \"#utility.yul\":10540:10541   */\n      0x00\n        /* \"#utility.yul\":10537:10538   */\n      dup1\n        /* \"#utility.yul\":10530:10542   */\n      revert\n        /* \"#utility.yul\":10481:10483   */\n    tag_184:\n        /* \"#utility.yul\":10471:10550   */\n      pop\n      jump\t// out\n\n    auxdata: 0xa2646970667358221220fd35c8bf2a28b319bd80bf8c4a0e2c22d13eaa82c6cb9500097064136dac919964736f6c63430008000033\n}\n",
				"bytecode": {
					"linkReferences": {},
					"object": "608060405234801561001057600080fd5b50336000806101000a81548173ffffffffffffffffffffffffffffffffffffffff021916908373ffffffffffffffffffffffffffffffffffffffff160217905550610f22806100606000396000f3fe608060405234801561001057600080fd5b506004361061004c5760003560e01c80630121b93f146100515780632acf63041461006d5780635129ff1a1461009e578063f5ea0106146100ba575b600080fd5b61006b6004803603810190610066919061095e565b6100d6565b005b6100876004803603810190610082919061095e565b6102d6565b604051610095929190610be3565b60405180910390f35b6100b860048036038101906100b39190610987565b610416565b005b6100d460048036038101906100cf9190610987565b610693565b005b600660003373ffffffffffffffffffffffffffffffffffffffff1673ffffffffffffffffffffffffffffffffffffffff16815260200190815260200160002060009054906101000a900460ff16610162576040517f08c379a000000000000000000000000000000000000000000000000000000000815260040161015990610c73565b60405180910390fd5b600760003373ffffffffffffffffffffffffffffffffffffffff1673ffffffffffffffffffffffffffffffffffffffff16815260200190815260200160002060009054906101000a900460ff16156101ef576040517f08c379a00000000000000000000000000000000000000000000000000000000081526004016101e690610c53565b60405180910390fd5b6002600082815260200190815260200160002060009054906101000a900460ff1661024f576040517f08c379a000000000000000000000000000000000000000000000000000000000815260040161024690610c93565b60405180910390fd5b60016000828152602001908152602001600020600201600081548092919061027690610dee565b91905055506001600760003373ffffffffffffffffffffffffffffffffffffffff1673ffffffffffffffffffffffffffffffffffffffff16815260200190815260200160002060006101000a81548160ff02191690831515021790555050565b606060006002600084815260200190815260200160002060009054906101000a900460ff1661033a576040517f08c379a000000000000000000000000000000000000000000000000000000000815260040161033190610cd3565b60405180910390fd5b6000600160008581526020019081526020016000206040518060600160405290816000820154815260200160018201805461037490610dbc565b80601f01602080910402602001604051908101604052809291908181526020018280546103a090610dbc565b80156103ed5780601f106103c2576101008083540402835291602001916103ed565b820191906000526020600020905b8154815290600101906020018083116103d057829003601f168201915b505050505081526020016002820154815250509050806020015181604001519250925050915091565b6005600083815260200190815260200160002060009054906101000a900460ff1615610477576040517f08c379a000000000000000000000000000000000000000000000000000000000815260040161046e90610c13565b60405180910390fd5b600660003373ffffffffffffffffffffffffffffffffffffffff1673ffffffffffffffffffffffffffffffffffffffff16815260200190815260200160002060009054906101000a900460ff1615610504576040517f08c379a00000000000000000000000000000000000000000000000000000000081526004016104fb90610c13565b60405180910390fd5b600882908060018154018082558091505060019003906000526020600020016000909190919091505560016005600084815260200190815260200160002060006101000a81548160ff0219169083151502179055506001600660003373ffffffffffffffffffffffffffffffffffffffff1673ffffffffffffffffffffffffffffffffffffffff16815260200190815260200160002060006101000a81548160ff02191690831515021790555060405180608001604052808381526020018281526020016000151581526020013373ffffffffffffffffffffffffffffffffffffffff168152506004600084815260200190815260200160002060008201518160000155602082015181600101908051906020019061062492919061083e565b5060408201518160020160006101000a81548160ff02191690831515021790555060608201518160020160016101000a81548173ffffffffffffffffffffffffffffffffffffffff021916908373ffffffffffffffffffffffffffffffffffffffff1602179055509050505050565b3373ffffffffffffffffffffffffffffffffffffffff1660008054906101000a900473ffffffffffffffffffffffffffffffffffffffff1673ffffffffffffffffffffffffffffffffffffffff1614610721576040517f08c379a000000000000000000000000000000000000000000000000000000000815260040161071890610c33565b60405180910390fd5b6002600083815260200190815260200160002060009054906101000a900460ff1615610782576040517f08c379a000000000000000000000000000000000000000000000000000000000815260040161077990610cb3565b60405180910390fd5b600382908060018154018082558091505060019003906000526020600020016000909190919091505560016002600084815260200190815260200160002060006101000a81548160ff021916908315150217905550604051806060016040528083815260200182815260200160008152506001600084815260200190815260200160002060008201518160000155602082015181600101908051906020019061082c92919061083e565b50604082015181600201559050505050565b82805461084a90610dbc565b90600052602060002090601f01602090048101928261086c57600085556108b3565b82601f1061088557805160ff19168380011785556108b3565b828001600101855582156108b3579182015b828111156108b2578251825591602001919060010190610897565b5b5090506108c091906108c4565b5090565b5b808211156108dd5760008160009055506001016108c5565b5090565b60006108f46108ef84610d24565b610cf3565b90508281526020810184848401111561090c57600080fd5b610917848285610d7a565b509392505050565b600082601f83011261093057600080fd5b81356109408482602086016108e1565b91505092915050565b60008135905061095881610ed5565b92915050565b60006020828403121561097057600080fd5b600061097e84828501610949565b91505092915050565b6000806040838503121561099a57600080fd5b60006109a885828601610949565b925050602083013567ffffffffffffffff8111156109c557600080fd5b6109d18582860161091f565b9150509250929050565b60006109e682610d54565b6109f08185610d5f565b9350610a00818560208601610d89565b610a0981610ec4565b840191505092915050565b6000610a21601583610d5f565b91507f566f74657220616c7265616479206578697374656400000000000000000000006000830152602082019050919050565b6000610a61600d83610d5f565b91507f4163636573732044656e696564000000000000000000000000000000000000006000830152602082019050919050565b6000610aa1600d83610d5f565b91507f416c726561647920766f746564000000000000000000000000000000000000006000830152602082019050919050565b6000610ae1601783610d5f565b91507f4e6f74207265676973746572656420617320766f7465720000000000000000006000830152602082019050919050565b6000610b21600d83610d5f565b91507f496e76616c6964207061727479000000000000000000000000000000000000006000830152602082019050919050565b6000610b61601583610d5f565b91507f506172747920616c7265616479206578697374656400000000000000000000006000830152602082019050919050565b6000610ba1600f83610d5f565b91507f5061727479206e6f7420666f756e6400000000000000000000000000000000006000830152602082019050919050565b610bdd81610d70565b82525050565b60006040820190508181036000830152610bfd81856109db565b9050610c0c6020830184610bd4565b9392505050565b60006020820190508181036000830152610c2c81610a14565b9050919050565b60006020820190508181036000830152610c4c81610a54565b9050919050565b60006020820190508181036000830152610c6c81610a94565b9050919050565b60006020820190508181036000830152610c8c81610ad4565b9050919050565b60006020820190508181036000830152610cac81610b14565b9050919050565b60006020820190508181036000830152610ccc81610b54565b9050919050565b60006020820190508181036000830152610cec81610b94565b9050919050565b6000604051905081810181811067ffffffffffffffff82111715610d1a57610d19610e95565b5b8060405250919050565b600067ffffffffffffffff821115610d3f57610d3e610e95565b5b601f19601f8301169050602081019050919050565b600081519050919050565b600082825260208201905092915050565b6000819050919050565b82818337600083830152505050565b60005b83811015610da7578082015181840152602081019050610d8c565b83811115610db6576000848401525b50505050565b60006002820490506001821680610dd457607f821691505b60208210811415610de857610de7610e66565b5b50919050565b6000610df982610d70565b91507fffffffffffffffffffffffffffffffffffffffffffffffffffffffffffffffff821415610e2c57610e2b610e37565b5b600182019050919050565b7f4e487b7100000000000000000000000000000000000000000000000000000000600052601160045260246000fd5b7f4e487b7100000000000000000000000000000000000000000000000000000000600052602260045260246000fd5b7f4e487b7100000000000000000000000000000000000000000000000000000000600052604160045260246000fd5b6000601f19601f8301169050919050565b610ede81610d70565b8114610ee957600080fd5b5056fea2646970667358221220fd35c8bf2a28b319bd80bf8c4a0e2c22d13eaa82c6cb9500097064136dac919964736f6c63430008000033",
					"opcodes": "PUSH1 0x80 PUSH1 0x40 MSTORE CALLVALUE DUP1 ISZERO PUSH2 0x10 JUMPI PUSH1 0x0 DUP1 REVERT JUMPDEST POP CALLER PUSH1 0x0 DUP1 PUSH2 0x100 EXP DUP2 SLOAD DUP2 PUSH20 0xFFFFFFFFFFFFFFFFFFFFFFFFFFFFFFFFFFFFFFFF MUL NOT AND SWAP1 DUP4 PUSH20 0xFFFFFFFFFFFFFFFFFFFFFFFFFFFFFFFFFFFFFFFF AND MUL OR SWAP1 SSTORE POP PUSH2 0xF22 DUP1 PUSH2 0x60 PUSH1 0x0 CODECOPY PUSH1 0x0 RETURN INVALID PUSH1 0x80 PUSH1 0x40 MSTORE CALLVALUE DUP1 ISZERO PUSH2 0x10 JUMPI PUSH1 0x0 DUP1 REVERT JUMPDEST POP PUSH1 0x4 CALLDATASIZE LT PUSH2 0x4C JUMPI PUSH1 0x0 CALLDATALOAD PUSH1 0xE0 SHR DUP1 PUSH4 0x121B93F EQ PUSH2 0x51 JUMPI DUP1 PUSH4 0x2ACF6304 EQ PUSH2 0x6D JUMPI DUP1 PUSH4 0x5129FF1A EQ PUSH2 0x9E JUMPI DUP1 PUSH4 0xF5EA0106 EQ PUSH2 0xBA JUMPI JUMPDEST PUSH1 0x0 DUP1 REVERT JUMPDEST PUSH2 0x6B PUSH1 0x4 DUP1 CALLDATASIZE SUB DUP2 ADD SWAP1 PUSH2 0x66 SWAP2 SWAP1 PUSH2 0x95E JUMP JUMPDEST PUSH2 0xD6 JUMP JUMPDEST STOP JUMPDEST PUSH2 0x87 PUSH1 0x4 DUP1 CALLDATASIZE SUB DUP2 ADD SWAP1 PUSH2 0x82 SWAP2 SWAP1 PUSH2 0x95E JUMP JUMPDEST PUSH2 0x2D6 JUMP JUMPDEST PUSH1 0x40 MLOAD PUSH2 0x95 SWAP3 SWAP2 SWAP1 PUSH2 0xBE3 JUMP JUMPDEST PUSH1 0x40 MLOAD DUP1 SWAP2 SUB SWAP1 RETURN JUMPDEST PUSH2 0xB8 PUSH1 0x4 DUP1 CALLDATASIZE SUB DUP2 ADD SWAP1 PUSH2 0xB3 SWAP2 SWAP1 PUSH2 0x987 JUMP JUMPDEST PUSH2 0x416 JUMP JUMPDEST STOP JUMPDEST PUSH2 0xD4 PUSH1 0x4 DUP1 CALLDATASIZE SUB DUP2 ADD SWAP1 PUSH2 0xCF SWAP2 SWAP1 PUSH2 0x987 JUMP JUMPDEST PUSH2 0x693 JUMP JUMPDEST STOP JUMPDEST PUSH1 0x6 PUSH1 0x0 CALLER PUSH20 0xFFFFFFFFFFFFFFFFFFFFFFFFFFFFFFFFFFFFFFFF AND PUSH20 0xFFFFFFFFFFFFFFFFFFFFFFFFFFFFFFFFFFFFFFFF AND DUP2 MSTORE PUSH1 0x20 ADD SWAP1 DUP2 MSTORE PUSH1 0x20 ADD PUSH1 0x0 KECCAK256 PUSH1 0x0 SWAP1 SLOAD SWAP1 PUSH2 0x100 EXP SWAP1 DIV PUSH1 0xFF AND PUSH2 0x162 JUMPI PUSH1 0x40 MLOAD PUSH32 0x8C379A000000000000000000000000000000000000000000000000000000000 DUP2 MSTORE PUSH1 0x4 ADD PUSH2 0x159 SWAP1 PUSH2 0xC73 JUMP JUMPDEST PUSH1 0x40 MLOAD DUP1 SWAP2 SUB SWAP1 REVERT JUMPDEST PUSH1 0x7 PUSH1 0x0 CALLER PUSH20 0xFFFFFFFFFFFFFFFFFFFFFFFFFFFFFFFFFFFFFFFF AND PUSH20 0xFFFFFFFFFFFFFFFFFFFFFFFFFFFFFFFFFFFFFFFF AND DUP2 MSTORE PUSH1 0x20 ADD SWAP1 DUP2 MSTORE PUSH1 0x20 ADD PUSH1 0x0 KECCAK256 PUSH1 0x0 SWAP1 SLOAD SWAP1 PUSH2 0x100 EXP SWAP1 DIV PUSH1 0xFF AND ISZERO PUSH2 0x1EF JUMPI PUSH1 0x40 MLOAD PUSH32 0x8C379A000000000000000000000000000000000000000000000000000000000 DUP2 MSTORE PUSH1 0x4 ADD PUSH2 0x1E6 SWAP1 PUSH2 0xC53 JUMP JUMPDEST PUSH1 0x40 MLOAD DUP1 SWAP2 SUB SWAP1 REVERT JUMPDEST PUSH1 0x2 PUSH1 0x0 DUP3 DUP2 MSTORE PUSH1 0x20 ADD SWAP1 DUP2 MSTORE PUSH1 0x20 ADD PUSH1 0x0 KECCAK256 PUSH1 0x0 SWAP1 SLOAD SWAP1 PUSH2 0x100 EXP SWAP1 DIV PUSH1 0xFF AND PUSH2 0x24F JUMPI PUSH1 0x40 MLOAD PUSH32 0x8C379A000000000000000000000000000000000000000000000000000000000 DUP2 MSTORE PUSH1 0x4 ADD PUSH2 0x246 SWAP1 PUSH2 0xC93 JUMP JUMPDEST PUSH1 0x40 MLOAD DUP1 SWAP2 SUB SWAP1 REVERT JUMPDEST PUSH1 0x1 PUSH1 0x0 DUP3 DUP2 MSTORE PUSH1 0x20 ADD SWAP1 DUP2 MSTORE PUSH1 0x20 ADD PUSH1 0x0 KECCAK256 PUSH1 0x2 ADD PUSH1 0x0 DUP2 SLOAD DUP1 SWAP3 SWAP2 SWAP1 PUSH2 0x276 SWAP1 PUSH2 0xDEE JUMP JUMPDEST SWAP2 SWAP1 POP SSTORE POP PUSH1 0x1 PUSH1 0x7 PUSH1 0x0 CALLER PUSH20 0xFFFFFFFFFFFFFFFFFFFFFFFFFFFFFFFFFFFFFFFF AND PUSH20 0xFFFFFFFFFFFFFFFFFFFFFFFFFFFFFFFFFFFFFFFF AND DUP2 MSTORE PUSH1 0x20 ADD SWAP1 DUP2 MSTORE PUSH1 0x20 ADD PUSH1 0x0 KECCAK256 PUSH1 0x0 PUSH2 0x100 EXP DUP2 SLOAD DUP2 PUSH1 0xFF MUL NOT AND SWAP1 DUP4 ISZERO ISZERO MUL OR SWAP1 SSTORE POP POP JUMP JUMPDEST PUSH1 0x60 PUSH1 0x0 PUSH1 0x2 PUSH1 0x0 DUP5 DUP2 MSTORE PUSH1 0x20 ADD SWAP1 DUP2 MSTORE PUSH1 0x20 ADD PUSH1 0x0 KECCAK256 PUSH1 0x0 SWAP1 SLOAD SWAP1 PUSH2 0x100 EXP SWAP1 DIV PUSH1 0xFF AND PUSH2 0x33A JUMPI PUSH1 0x40 MLOAD PUSH32 0x8C379A000000000000000000000000000000000000000000000000000000000 DUP2 MSTORE PUSH1 0x4 ADD PUSH2 0x331 SWAP1 PUSH2 0xCD3 JUMP JUMPDEST PUSH1 0x40 MLOAD DUP1 SWAP2 SUB SWAP1 REVERT JUMPDEST PUSH1 0x0 PUSH1 0x1 PUSH1 0x0 DUP6 DUP2 MSTORE PUSH1 0x20 ADD SWAP1 DUP2 MSTORE PUSH1 0x20 ADD PUSH1 0x0 KECCAK256 PUSH1 0x40 MLOAD DUP1 PUSH1 0x60 ADD PUSH1 0x40 MSTORE SWAP1 DUP2 PUSH1 0x0 DUP3 ADD SLOAD DUP2 MSTORE PUSH1 0x20 ADD PUSH1 0x1 DUP3 ADD DUP1 SLOAD PUSH2 0x374 SWAP1 PUSH2 0xDBC JUMP JUMPDEST DUP1 PUSH1 0x1F ADD PUSH1 0x20 DUP1 SWAP2 DIV MUL PUSH1 0x20 ADD PUSH1 0x40 MLOAD SWAP1 DUP2 ADD PUSH1 0x40 MSTORE DUP1 SWAP3 SWAP2 SWAP1 DUP2 DUP2 MSTORE PUSH1 0x20 ADD DUP3 DUP1 SLOAD PUSH2 0x3A0 SWAP1 PUSH2 0xDBC JUMP JUMPDEST DUP1 ISZERO PUSH2 0x3ED JUMPI DUP1 PUSH1 0x1F LT PUSH2 0x3C2 JUMPI PUSH2 0x100 DUP1 DUP4 SLOAD DIV MUL DUP4 MSTORE SWAP2 PUSH1 0x20 ADD SWAP2 PUSH2 0x3ED JUMP JUMPDEST DUP3 ADD SWAP2 SWAP1 PUSH1 0x0 MSTORE PUSH1 0x20 PUSH1 0x0 KECCAK256 SWAP1 JUMPDEST DUP2 SLOAD DUP2 MSTORE SWAP1 PUSH1 0x1 ADD SWAP1 PUSH1 0x20 ADD DUP1 DUP4 GT PUSH2 0x3D0 JUMPI DUP3 SWAP1 SUB PUSH1 0x1F AND DUP3 ADD SWAP2 JUMPDEST POP POP POP POP POP DUP2 MSTORE PUSH1 0x20 ADD PUSH1 0x2 DUP3 ADD SLOAD DUP2 MSTORE POP POP SWAP1 POP DUP1 PUSH1 0x20 ADD MLOAD DUP2 PUSH1 0x40 ADD MLOAD SWAP3 POP SWAP3 POP POP SWAP2 POP SWAP2 JUMP JUMPDEST PUSH1 0x5 PUSH1 0x0 DUP4 DUP2 MSTORE PUSH1 0x20 ADD SWAP1 DUP2 MSTORE PUSH1 0x20 ADD PUSH1 0x0 KECCAK256 PUSH1 0x0 SWAP1 SLOAD SWAP1 PUSH2 0x100 EXP SWAP1 DIV PUSH1 0xFF AND ISZERO PUSH2 0x477 JUMPI PUSH1 0x40 MLOAD PUSH32 0x8C379A000000000000000000000000000000000000000000000000000000000 DUP2 MSTORE PUSH1 0x4 ADD PUSH2 0x46E SWAP1 PUSH2 0xC13 JUMP JUMPDEST PUSH1 0x40 MLOAD DUP1 SWAP2 SUB SWAP1 REVERT JUMPDEST PUSH1 0x6 PUSH1 0x0 CALLER PUSH20 0xFFFFFFFFFFFFFFFFFFFFFFFFFFFFFFFFFFFFFFFF AND PUSH20 0xFFFFFFFFFFFFFFFFFFFFFFFFFFFFFFFFFFFFFFFF AND DUP2 MSTORE PUSH1 0x20 ADD SWAP1 DUP2 MSTORE PUSH1 0x20 ADD PUSH1 0x0 KECCAK256 PUSH1 0x0 SWAP1 SLOAD SWAP1 PUSH2 0x100 EXP SWAP1 DIV PUSH1 0xFF AND ISZERO PUSH2 0x504 JUMPI PUSH1 0x40 MLOAD PUSH32 0x8C379A000000000000000000000000000000000000000000000000000000000 DUP2 MSTORE PUSH1 0x4 ADD PUSH2 0x4FB SWAP1 PUSH2 0xC13 JUMP JUMPDEST PUSH1 0x40 MLOAD DUP1 SWAP2 SUB SWAP1 REVERT JUMPDEST PUSH1 0x8 DUP3 SWAP1 DUP1 PUSH1 0x1 DUP2 SLOAD ADD DUP1 DUP3 SSTORE DUP1 SWAP2 POP POP PUSH1 0x1 SWAP1 SUB SWAP1 PUSH1 0x0 MSTORE PUSH1 0x20 PUSH1 0x0 KECCAK256 ADD PUSH1 0x0 SWAP1 SWAP2 SWAP1 SWAP2 SWAP1 SWAP2 POP SSTORE PUSH1 0x1 PUSH1 0x5 PUSH1 0x0 DUP5 DUP2 MSTORE PUSH1 0x20 ADD SWAP1 DUP2 MSTORE PUSH1 0x20 ADD PUSH1 0x0 KECCAK256 PUSH1 0x0 PUSH2 0x100 EXP DUP2 SLOAD DUP2 PUSH1 0xFF MUL NOT AND SWAP1 DUP4 ISZERO ISZERO MUL OR SWAP1 SSTORE POP PUSH1 0x1 PUSH1 0x6 PUSH1 0x0 CALLER PUSH20 0xFFFFFFFFFFFFFFFFFFFFFFFFFFFFFFFFFFFFFFFF AND PUSH20 0xFFFFFFFFFFFFFFFFFFFFFFFFFFFFFFFFFFFFFFFF AND DUP2 MSTORE PUSH1 0x20 ADD SWAP1 DUP2 MSTORE PUSH1 0x20 ADD PUSH1 0x0 KECCAK256 PUSH1 0x0 PUSH2 0x100 EXP DUP2 SLOAD DUP2 PUSH1 0xFF MUL NOT AND SWAP1 DUP4 ISZERO ISZERO MUL OR SWAP1 SSTORE POP PUSH1 0x40 MLOAD DUP1 PUSH1 0x80 ADD PUSH1 0x40 MSTORE DUP1 DUP4 DUP2 MSTORE PUSH1 0x20 ADD DUP3 DUP2 MSTORE PUSH1 0x20 ADD PUSH1 0x0 ISZERO ISZERO DUP2 MSTORE PUSH1 0x20 ADD CALLER PUSH20 0xFFFFFFFFFFFFFFFFFFFFFFFFFFFFFFFFFFFFFFFF AND DUP2 MSTORE POP PUSH1 0x4 PUSH1 0x0 DUP5 DUP2 MSTORE PUSH1 0x20 ADD SWAP1 DUP2 MSTORE PUSH1 0x20 ADD PUSH1 0x0 KECCAK256 PUSH1 0x0 DUP3 ADD MLOAD DUP2 PUSH1 0x0 ADD SSTORE PUSH1 0x20 DUP3 ADD MLOAD DUP2 PUSH1 0x1 ADD SWAP1 DUP1 MLOAD SWAP1 PUSH1 0x20 ADD SWAP1 PUSH2 0x624 SWAP3 SWAP2 SWAP1 PUSH2 0x83E JUMP JUMPDEST POP PUSH1 0x40 DUP3 ADD MLOAD DUP2 PUSH1 0x2 ADD PUSH1 0x0 PUSH2 0x100 EXP DUP2 SLOAD DUP2 PUSH1 0xFF MUL NOT AND SWAP1 DUP4 ISZERO ISZERO MUL OR SWAP1 SSTORE POP PUSH1 0x60 DUP3 ADD MLOAD DUP2 PUSH1 0x2 ADD PUSH1 0x1 PUSH2 0x100 EXP DUP2 SLOAD DUP2 PUSH20 0xFFFFFFFFFFFFFFFFFFFFFFFFFFFFFFFFFFFFFFFF MUL NOT AND SWAP1 DUP4 PUSH20 0xFFFFFFFFFFFFFFFFFFFFFFFFFFFFFFFFFFFFFFFF AND MUL OR SWAP1 SSTORE POP SWAP1 POP POP POP POP JUMP JUMPDEST CALLER PUSH20 0xFFFFFFFFFFFFFFFFFFFFFFFFFFFFFFFFFFFFFFFF AND PUSH1 0x0 DUP1 SLOAD SWAP1 PUSH2 0x100 EXP SWAP1 DIV PUSH20 0xFFFFFFFFFFFFFFFFFFFFFFFFFFFFFFFFFFFFFFFF AND PUSH20 0xFFFFFFFFFFFFFFFFFFFFFFFFFFFFFFFFFFFFFFFF AND EQ PUSH2 0x721 JUMPI PUSH1 0x40 MLOAD PUSH32 0x8C379A000000000000000000000000000000000000000000000000000000000 DUP2 MSTORE PUSH1 0x4 ADD PUSH2 0x718 SWAP1 PUSH2 0xC33 JUMP JUMPDEST PUSH1 0x40 MLOAD DUP1 SWAP2 SUB SWAP1 REVERT JUMPDEST PUSH1 0x2 PUSH1 0x0 DUP4 DUP2 MSTORE PUSH1 0x20 ADD SWAP1 DUP2 MSTORE PUSH1 0x20 ADD PUSH1 0x0 KECCAK256 PUSH1 0x0 SWAP1 SLOAD SWAP1 PUSH2 0x100 EXP SWAP1 DIV PUSH1 0xFF AND ISZERO PUSH2 0x782 JUMPI PUSH1 0x40 MLOAD PUSH32 0x8C379A000000000000000000000000000000000000000000000000000000000 DUP2 MSTORE PUSH1 0x4 ADD PUSH2 0x779 SWAP1 PUSH2 0xCB3 JUMP JUMPDEST PUSH1 0x40 MLOAD DUP1 SWAP2 SUB SWAP1 REVERT JUMPDEST PUSH1 0x3 DUP3 SWAP1 DUP1 PUSH1 0x1 DUP2 SLOAD ADD DUP1 DUP3 SSTORE DUP1 SWAP2 POP POP PUSH1 0x1 SWAP1 SUB SWAP1 PUSH1 0x0 MSTORE PUSH1 0x20 PUSH1 0x0 KECCAK256 ADD PUSH1 0x0 SWAP1 SWAP2 SWAP1 SWAP2 SWAP1 SWAP2 POP SSTORE PUSH1 0x1 PUSH1 0x2 PUSH1 0x0 DUP5 DUP2 MSTORE PUSH1 0x20 ADD SWAP1 DUP2 MSTORE PUSH1 0x20 ADD PUSH1 0x0 KECCAK256 PUSH1 0x0 PUSH2 0x100 EXP DUP2 SLOAD DUP2 PUSH1 0xFF MUL NOT AND SWAP1 DUP4 ISZERO ISZERO MUL OR SWAP1 SSTORE POP PUSH1 0x40 MLOAD DUP1 PUSH1 0x60 ADD PUSH1 0x40 MSTORE DUP1 DUP4 DUP2 MSTORE PUSH1 0x20 ADD DUP3 DUP2 MSTORE PUSH1 0x20 ADD PUSH1 0x0 DUP2 MSTORE POP PUSH1 0x1 PUSH1 0x0 DUP5 DUP2 MSTORE PUSH1 0x20 ADD SWAP1 DUP2 MSTORE PUSH1 0x20 ADD PUSH1 0x0 KECCAK256 PUSH1 0x0 DUP3 ADD MLOAD DUP2 PUSH1 0x0 ADD SSTORE PUSH1 0x20 DUP3 ADD MLOAD DUP2 PUSH1 0x1 ADD SWAP1 DUP1 MLOAD SWAP1 PUSH1 0x20 ADD SWAP1 PUSH2 0x82C SWAP3 SWAP2 SWAP1 PUSH2 0x83E JUMP JUMPDEST POP PUSH1 0x40 DUP3 ADD MLOAD DUP2 PUSH1 0x2 ADD SSTORE SWAP1 POP POP POP POP JUMP JUMPDEST DUP3 DUP1 SLOAD PUSH2 0x84A SWAP1 PUSH2 0xDBC JUMP JUMPDEST SWAP1 PUSH1 0x0 MSTORE PUSH1 0x20 PUSH1 0x0 KECCAK256 SWAP1 PUSH1 0x1F ADD PUSH1 0x20 SWAP1 DIV DUP2 ADD SWAP3 DUP3 PUSH2 0x86C JUMPI PUSH1 0x0 DUP6 SSTORE PUSH2 0x8B3 JUMP JUMPDEST DUP3 PUSH1 0x1F LT PUSH2 0x885 JUMPI DUP1 MLOAD PUSH1 0xFF NOT AND DUP4 DUP1 ADD OR DUP6 SSTORE PUSH2 0x8B3 JUMP JUMPDEST DUP3 DUP1 ADD PUSH1 0x1 ADD DUP6 SSTORE DUP3 ISZERO PUSH2 0x8B3 JUMPI SWAP2 DUP3 ADD JUMPDEST DUP3 DUP2 GT ISZERO PUSH2 0x8B2 JUMPI DUP3 MLOAD DUP3 SSTORE SWAP2 PUSH1 0x20 ADD SWAP2 SWAP1 PUSH1 0x1 ADD SWAP1 PUSH2 0x897 JUMP JUMPDEST JUMPDEST POP SWAP1 POP PUSH2 0x8C0 SWAP2 SWAP1 PUSH2 0x8C4 JUMP JUMPDEST POP SWAP1 JUMP JUMPDEST JUMPDEST DUP1 DUP3 GT ISZERO PUSH2 0x8DD JUMPI PUSH1 0x0 DUP2 PUSH1 0x0 SWAP1 SSTORE POP PUSH1 0x1 ADD PUSH2 0x8C5 JUMP JUMPDEST POP SWAP1 JUMP JUMPDEST PUSH1 0x0 PUSH2 0x8F4 PUSH2 0x8EF DUP5 PUSH2 0xD24 JUMP JUMPDEST PUSH2 0xCF3 JUMP JUMPDEST SWAP1 POP DUP3 DUP2 MSTORE PUSH1 0x20 DUP2 ADD DUP5 DUP5 DUP5 ADD GT ISZERO PUSH2 0x90C JUMPI PUSH1 0x0 DUP1 REVERT JUMPDEST PUSH2 0x917 DUP5 DUP3 DUP6 PUSH2 0xD7A JUMP JUMPDEST POP SWAP4 SWAP3 POP POP POP JUMP JUMPDEST PUSH1 0x0 DUP3 PUSH1 0x1F DUP4 ADD SLT PUSH2 0x930 JUMPI PUSH1 0x0 DUP1 REVERT JUMPDEST DUP2 CALLDATALOAD PUSH2 0x940 DUP5 DUP3 PUSH1 0x20 DUP7 ADD PUSH2 0x8E1 JUMP JUMPDEST SWAP2 POP POP SWAP3 SWAP2 POP POP JUMP JUMPDEST PUSH1 0x0 DUP2 CALLDATALOAD SWAP1 POP PUSH2 0x958 DUP2 PUSH2 0xED5 JUMP JUMPDEST SWAP3 SWAP2 POP POP JUMP JUMPDEST PUSH1 0x0 PUSH1 0x20 DUP3 DUP5 SUB SLT ISZERO PUSH2 0x970 JUMPI PUSH1 0x0 DUP1 REVERT JUMPDEST PUSH1 0x0 PUSH2 0x97E DUP5 DUP3 DUP6 ADD PUSH2 0x949 JUMP JUMPDEST SWAP2 POP POP SWAP3 SWAP2 POP POP JUMP JUMPDEST PUSH1 0x0 DUP1 PUSH1 0x40 DUP4 DUP6 SUB SLT ISZERO PUSH2 0x99A JUMPI PUSH1 0x0 DUP1 REVERT JUMPDEST PUSH1 0x0 PUSH2 0x9A8 DUP6 DUP3 DUP7 ADD PUSH2 0x949 JUMP JUMPDEST SWAP3 POP POP PUSH1 0x20 DUP4 ADD CALLDATALOAD PUSH8 0xFFFFFFFFFFFFFFFF DUP2 GT ISZERO PUSH2 0x9C5 JUMPI PUSH1 0x0 DUP1 REVERT JUMPDEST PUSH2 0x9D1 DUP6 DUP3 DUP7 ADD PUSH2 0x91F JUMP JUMPDEST SWAP2 POP POP SWAP3 POP SWAP3 SWAP1 POP JUMP JUMPDEST PUSH1 0x0 PUSH2 0x9E6 DUP3 PUSH2 0xD54 JUMP JUMPDEST PUSH2 0x9F0 DUP2 DUP6 PUSH2 0xD5F JUMP JUMPDEST SWAP4 POP PUSH2 0xA00 DUP2 DUP6 PUSH1 0x20 DUP7 ADD PUSH2 0xD89 JUMP JUMPDEST PUSH2 0xA09 DUP2 PUSH2 0xEC4 JUMP JUMPDEST DUP5 ADD SWAP2 POP POP SWAP3 SWAP2 POP POP JUMP JUMPDEST PUSH1 0x0 PUSH2 0xA21 PUSH1 0x15 DUP4 PUSH2 0xD5F JUMP JUMPDEST SWAP2 POP PUSH32 0x566F74657220616C726561647920657869737465640000000000000000000000 PUSH1 0x0 DUP4 ADD MSTORE PUSH1 0x20 DUP3 ADD SWAP1 POP SWAP2 SWAP1 POP JUMP JUMPDEST PUSH1 0x0 PUSH2 0xA61 PUSH1 0xD DUP4 PUSH2 0xD5F JUMP JUMPDEST SWAP2 POP PUSH32 0x4163636573732044656E69656400000000000000000000000000000000000000 PUSH1 0x0 DUP4 ADD MSTORE PUSH1 0x20 DUP3 ADD SWAP1 POP SWAP2 SWAP1 POP JUMP JUMPDEST PUSH1 0x0 PUSH2 0xAA1 PUSH1 0xD DUP4 PUSH2 0xD5F JUMP JUMPDEST SWAP2 POP PUSH32 0x416C726561647920766F74656400000000000000000000000000000000000000 PUSH1 0x0 DUP4 ADD MSTORE PUSH1 0x20 DUP3 ADD SWAP1 POP SWAP2 SWAP1 POP JUMP JUMPDEST PUSH1 0x0 PUSH2 0xAE1 PUSH1 0x17 DUP4 PUSH2 0xD5F JUMP JUMPDEST SWAP2 POP PUSH32 0x4E6F74207265676973746572656420617320766F746572000000000000000000 PUSH1 0x0 DUP4 ADD MSTORE PUSH1 0x20 DUP3 ADD SWAP1 POP SWAP2 SWAP1 POP JUMP JUMPDEST PUSH1 0x0 PUSH2 0xB21 PUSH1 0xD DUP4 PUSH2 0xD5F JUMP JUMPDEST SWAP2 POP PUSH32 0x496E76616C696420706172747900000000000000000000000000000000000000 PUSH1 0x0 DUP4 ADD MSTORE PUSH1 0x20 DUP3 ADD SWAP1 POP SWAP2 SWAP1 POP JUMP JUMPDEST PUSH1 0x0 PUSH2 0xB61 PUSH1 0x15 DUP4 PUSH2 0xD5F JUMP JUMPDEST SWAP2 POP PUSH32 0x506172747920616C726561647920657869737465640000000000000000000000 PUSH1 0x0 DUP4 ADD MSTORE PUSH1 0x20 DUP3 ADD SWAP1 POP SWAP2 SWAP1 POP JUMP JUMPDEST PUSH1 0x0 PUSH2 0xBA1 PUSH1 0xF DUP4 PUSH2 0xD5F JUMP JUMPDEST SWAP2 POP PUSH32 0x5061727479206E6F7420666F756E640000000000000000000000000000000000 PUSH1 0x0 DUP4 ADD MSTORE PUSH1 0x20 DUP3 ADD SWAP1 POP SWAP2 SWAP1 POP JUMP JUMPDEST PUSH2 0xBDD DUP2 PUSH2 0xD70 JUMP JUMPDEST DUP3 MSTORE POP POP JUMP JUMPDEST PUSH1 0x0 PUSH1 0x40 DUP3 ADD SWAP1 POP DUP2 DUP2 SUB PUSH1 0x0 DUP4 ADD MSTORE PUSH2 0xBFD DUP2 DUP6 PUSH2 0x9DB JUMP JUMPDEST SWAP1 POP PUSH2 0xC0C PUSH1 0x20 DUP4 ADD DUP5 PUSH2 0xBD4 JUMP JUMPDEST SWAP4 SWAP3 POP POP POP JUMP JUMPDEST PUSH1 0x0 PUSH1 0x20 DUP3 ADD SWAP1 POP DUP2 DUP2 SUB PUSH1 0x0 DUP4 ADD MSTORE PUSH2 0xC2C DUP2 PUSH2 0xA14 JUMP JUMPDEST SWAP1 POP SWAP2 SWAP1 POP JUMP JUMPDEST PUSH1 0x0 PUSH1 0x20 DUP3 ADD SWAP1 POP DUP2 DUP2 SUB PUSH1 0x0 DUP4 ADD MSTORE PUSH2 0xC4C DUP2 PUSH2 0xA54 JUMP JUMPDEST SWAP1 POP SWAP2 SWAP1 POP JUMP JUMPDEST PUSH1 0x0 PUSH1 0x20 DUP3 ADD SWAP1 POP DUP2 DUP2 SUB PUSH1 0x0 DUP4 ADD MSTORE PUSH2 0xC6C DUP2 PUSH2 0xA94 JUMP JUMPDEST SWAP1 POP SWAP2 SWAP1 POP JUMP JUMPDEST PUSH1 0x0 PUSH1 0x20 DUP3 ADD SWAP1 POP DUP2 DUP2 SUB PUSH1 0x0 DUP4 ADD MSTORE PUSH2 0xC8C DUP2 PUSH2 0xAD4 JUMP JUMPDEST SWAP1 POP SWAP2 SWAP1 POP JUMP JUMPDEST PUSH1 0x0 PUSH1 0x20 DUP3 ADD SWAP1 POP DUP2 DUP2 SUB PUSH1 0x0 DUP4 ADD MSTORE PUSH2 0xCAC DUP2 PUSH2 0xB14 JUMP JUMPDEST SWAP1 POP SWAP2 SWAP1 POP JUMP JUMPDEST PUSH1 0x0 PUSH1 0x20 DUP3 ADD SWAP1 POP DUP2 DUP2 SUB PUSH1 0x0 DUP4 ADD MSTORE PUSH2 0xCCC DUP2 PUSH2 0xB54 JUMP JUMPDEST SWAP1 POP SWAP2 SWAP1 POP JUMP JUMPDEST PUSH1 0x0 PUSH1 0x20 DUP3 ADD SWAP1 POP DUP2 DUP2 SUB PUSH1 0x0 DUP4 ADD MSTORE PUSH2 0xCEC DUP2 PUSH2 0xB94 JUMP JUMPDEST SWAP1 POP SWAP2 SWAP1 POP JUMP JUMPDEST PUSH1 0x0 PUSH1 0x40 MLOAD SWAP1 POP DUP2 DUP2 ADD DUP2 DUP2 LT PUSH8 0xFFFFFFFFFFFFFFFF DUP3 GT OR ISZERO PUSH2 0xD1A JUMPI PUSH2 0xD19 PUSH2 0xE95 JUMP JUMPDEST JUMPDEST DUP1 PUSH1 0x40 MSTORE POP SWAP2 SWAP1 POP JUMP JUMPDEST PUSH1 0x0 PUSH8 0xFFFFFFFFFFFFFFFF DUP3 GT ISZERO PUSH2 0xD3F JUMPI PUSH2 0xD3E PUSH2 0xE95 JUMP JUMPDEST JUMPDEST PUSH1 0x1F NOT PUSH1 0x1F DUP4 ADD AND SWAP1 POP PUSH1 0x20 DUP2 ADD SWAP1 POP SWAP2 SWAP1 POP JUMP JUMPDEST PUSH1 0x0 DUP2 MLOAD SWAP1 POP SWAP2 SWAP1 POP JUMP JUMPDEST PUSH1 0x0 DUP3 DUP3 MSTORE PUSH1 0x20 DUP3 ADD SWAP1 POP SWAP3 SWAP2 POP POP JUMP JUMPDEST PUSH1 0x0 DUP2 SWAP1 POP SWAP2 SWAP1 POP JUMP JUMPDEST DUP3 DUP2 DUP4 CALLDATACOPY PUSH1 0x0 DUP4 DUP4 ADD MSTORE POP POP POP JUMP JUMPDEST PUSH1 0x0 JUMPDEST DUP4 DUP2 LT ISZERO PUSH2 0xDA7 JUMPI DUP1 DUP3 ADD MLOAD DUP2 DUP5 ADD MSTORE PUSH1 0x20 DUP2 ADD SWAP1 POP PUSH2 0xD8C JUMP JUMPDEST DUP4 DUP2 GT ISZERO PUSH2 0xDB6 JUMPI PUSH1 0x0 DUP5 DUP5 ADD MSTORE JUMPDEST POP POP POP POP JUMP JUMPDEST PUSH1 0x0 PUSH1 0x2 DUP3 DIV SWAP1 POP PUSH1 0x1 DUP3 AND DUP1 PUSH2 0xDD4 JUMPI PUSH1 0x7F DUP3 AND SWAP2 POP JUMPDEST PUSH1 0x20 DUP3 LT DUP2 EQ ISZERO PUSH2 0xDE8 JUMPI PUSH2 0xDE7 PUSH2 0xE66 JUMP JUMPDEST JUMPDEST POP SWAP2 SWAP1 POP JUMP JUMPDEST PUSH1 0x0 PUSH2 0xDF9 DUP3 PUSH2 0xD70 JUMP JUMPDEST SWAP2 POP PUSH32 0xFFFFFFFFFFFFFFFFFFFFFFFFFFFFFFFFFFFFFFFFFFFFFFFFFFFFFFFFFFFFFFFF DUP3 EQ ISZERO PUSH2 0xE2C JUMPI PUSH2 0xE2B PUSH2 0xE37 JUMP JUMPDEST JUMPDEST PUSH1 0x1 DUP3 ADD SWAP1 POP SWAP2 SWAP1 POP JUMP JUMPDEST PUSH32 0x4E487B7100000000000000000000000000000000000000000000000000000000 PUSH1 0x0 MSTORE PUSH1 0x11 PUSH1 0x4 MSTORE PUSH1 0x24 PUSH1 0x0 REVERT JUMPDEST PUSH32 0x4E487B7100000000000000000000000000000000000000000000000000000000 PUSH1 0x0 MSTORE PUSH1 0x22 PUSH1 0x4 MSTORE PUSH1 0x24 PUSH1 0x0 REVERT JUMPDEST PUSH32 0x4E487B7100000000000000000000000000000000000000000000000000000000 PUSH1 0x0 MSTORE PUSH1 0x41 PUSH1 0x4 MSTORE PUSH1 0x24 PUSH1 0x0 REVERT JUMPDEST PUSH1 0x0 PUSH1 0x1F NOT PUSH1 0x1F DUP4 ADD AND SWAP1 POP SWAP2 SWAP1 POP JUMP JUMPDEST PUSH2 0xEDE DUP2 PUSH2 0xD70 JUMP JUMPDEST DUP2 EQ PUSH2 0xEE9 JUMPI PUSH1 0x0 DUP1 REVERT JUMPDEST POP JUMP INVALID LOG2 PUSH5 0x6970667358 0x22 SLT KECCAK256 REVERT CALLDATALOAD 0xC8 0xBF 0x2A 0x28 0xB3 NOT 0xBD DUP1 0xBF DUP13 0x4A 0xE 0x2C 0x22 0xD1 RETURNDATACOPY 0xAA DUP3 0xC6 0xCB SWAP6 STOP MULMOD PUSH17 0x64136DAC919964736F6C63430008000033 "
				},
				"gasEstimates": {
					"creation": {
						"codeDepositCost": "774800",
						"executionCost": "21678",
						"totalCost": "796478"
					},
					"external": {
						"addParty(uint256,string)": "infinite",
						"addVoter(uint256,string)": "infinite",
						"getPartyVotes(uint256)": "infinite",
						"vote(uint256)": "infinite"
					}
				},
				"methodIdentifiers": {
					"addParty(uint256,string)": "f5ea0106",
					"addVoter(uint256,string)": "5129ff1a",
					"getPartyVotes(uint256)": "2acf6304",
					"vote(uint256)": "0121b93f"
				}
			},
			"storageLayout": {
				"storage": [
					{
						"astId": 3,
						"contract": "Practice/Voting_Struct.sol:Voting_Struct",
						"label": "owner",
						"offset": 0,
						"slot": "0",
						"type": "t_address"
					},
					{
						"astId": 36,
						"contract": "Practice/Voting_Struct.sol:Voting_Struct",
						"label": "parties",
						"offset": 0,
						"slot": "1",
						"type": "t_mapping(t_uint256,t_struct(Party)31_storage)"
					},
					{
						"astId": 40,
						"contract": "Practice/Voting_Struct.sol:Voting_Struct",
						"label": "isPartyExist",
						"offset": 0,
						"slot": "2",
						"type": "t_mapping(t_uint256,t_bool)"
					},
					{
						"astId": 43,
						"contract": "Practice/Voting_Struct.sol:Voting_Struct",
						"label": "allPartyIds",
						"offset": 0,
						"slot": "3",
						"type": "t_array(t_uint256)dyn_storage"
					},
					{
						"astId": 97,
						"contract": "Practice/Voting_Struct.sol:Voting_Struct",
						"label": "Voters",
						"offset": 0,
						"slot": "4",
						"type": "t_mapping(t_uint256,t_struct(Voter)92_storage)"
					},
					{
						"astId": 101,
						"contract": "Practice/Voting_Struct.sol:Voting_Struct",
						"label": "isVoterExisted",
						"offset": 0,
						"slot": "5",
						"type": "t_mapping(t_uint256,t_bool)"
					},
					{
						"astId": 105,
						"contract": "Practice/Voting_Struct.sol:Voting_Struct",
						"label": "hasRegistered",
						"offset": 0,
						"slot": "6",
						"type": "t_mapping(t_address,t_bool)"
					},
					{
						"astId": 109,
						"contract": "Practice/Voting_Struct.sol:Voting_Struct",
						"label": "hasVoted",
						"offset": 0,
						"slot": "7",
						"type": "t_mapping(t_address,t_bool)"
					},
					{
						"astId": 112,
						"contract": "Practice/Voting_Struct.sol:Voting_Struct",
						"label": "allVoters",
						"offset": 0,
						"slot": "8",
						"type": "t_array(t_uint256)dyn_storage"
					}
				],
				"types": {
					"t_address": {
						"encoding": "inplace",
						"label": "address",
						"numberOfBytes": "20"
					},
					"t_array(t_uint256)dyn_storage": {
						"base": "t_uint256",
						"encoding": "dynamic_array",
						"label": "uint256[]",
						"numberOfBytes": "32"
					},
					"t_bool": {
						"encoding": "inplace",
						"label": "bool",
						"numberOfBytes": "1"
					},
					"t_mapping(t_address,t_bool)": {
						"encoding": "mapping",
						"key": "t_address",
						"label": "mapping(address => bool)",
						"numberOfBytes": "32",
						"value": "t_bool"
					},
					"t_mapping(t_uint256,t_bool)": {
						"encoding": "mapping",
						"key": "t_uint256",
						"label": "mapping(uint256 => bool)",
						"numberOfBytes": "32",
						"value": "t_bool"
					},
					"t_mapping(t_uint256,t_struct(Party)31_storage)": {
						"encoding": "mapping",
						"key": "t_uint256",
						"label": "mapping(uint256 => struct Voting_Struct.Party)",
						"numberOfBytes": "32",
						"value": "t_struct(Party)31_storage"
					},
					"t_mapping(t_uint256,t_struct(Voter)92_storage)": {
						"encoding": "mapping",
						"key": "t_uint256",
						"label": "mapping(uint256 => struct Voting_Struct.Voter)",
						"numberOfBytes": "32",
						"value": "t_struct(Voter)92_storage"
					},
					"t_string_storage": {
						"encoding": "bytes",
						"label": "string",
						"numberOfBytes": "32"
					},
					"t_struct(Party)31_storage": {
						"encoding": "inplace",
						"label": "struct Voting_Struct.Party",
						"members": [
							{
								"astId": 26,
								"contract": "Practice/Voting_Struct.sol:Voting_Struct",
								"label": "id",
								"offset": 0,
								"slot": "0",
								"type": "t_uint256"
							},
							{
								"astId": 28,
								"contract": "Practice/Voting_Struct.sol:Voting_Struct",
								"label": "name",
								"offset": 0,
								"slot": "1",
								"type": "t_string_storage"
							},
							{
								"astId": 30,
								"contract": "Practice/Voting_Struct.sol:Voting_Struct",
								"label": "voteCount",
								"offset": 0,
								"slot": "2",
								"type": "t_uint256"
							}
						],
						"numberOfBytes": "96"
					},
					"t_struct(Voter)92_storage": {
						"encoding": "inplace",
						"label": "struct Voting_Struct.Voter",
						"members": [
							{
								"astId": 85,
								"contract": "Practice/Voting_Struct.sol:Voting_Struct",
								"label": "id",
								"offset": 0,
								"slot": "0",
								"type": "t_uint256"
							},
							{
								"astId": 87,
								"contract": "Practice/Voting_Struct.sol:Voting_Struct",
								"label": "name",
								"offset": 0,
								"slot": "1",
								"type": "t_string_storage"
							},
							{
								"astId": 89,
								"contract": "Practice/Voting_Struct.sol:Voting_Struct",
								"label": "isVoted",
								"offset": 0,
								"slot": "2",
								"type": "t_bool"
							},
							{
								"astId": 91,
								"contract": "Practice/Voting_Struct.sol:Voting_Struct",
								"label": "wallet",
								"offset": 1,
								"slot": "2",
								"type": "t_address"
							}
						],
						"numberOfBytes": "96"
					},
					"t_uint256": {
						"encoding": "inplace",
						"label": "uint256",
						"numberOfBytes": "32"
					}
				}
			},
			"userdoc": {
				"kind": "user",
				"methods": {},
				"version": 1
			}
		}
	}
}