{
	"learning/struct2nd.sol": {
		"struct_2nd": {
			"abi": [
				{
					"inputs": [
						{
							"internalType": "uint256",
							"name": "id",
							"type": "uint256"
						},
						{
							"internalType": "string",
							"name": "name",
							"type": "string"
						},
						{
							"internalType": "bool",
							"name": "expired",
							"type": "bool"
						}
					],
					"name": "add_products",
					"outputs": [],
					"stateMutability": "nonpayable",
					"type": "function"
				},
				{
					"inputs": [
						{
							"internalType": "uint256",
							"name": "id",
							"type": "uint256"
						},
						{
							"internalType": "string",
							"name": "name",
							"type": "string"
						},
						{
							"internalType": "bool",
							"name": "expired",
							"type": "bool"
						}
					],
					"name": "addproduct",
					"outputs": [],
					"stateMutability": "nonpayable",
					"type": "function"
				},
				{
					"inputs": [],
					"name": "alwaysAvailable",
					"outputs": [],
					"stateMutability": "nonpayable",
					"type": "function"
				},
				{
					"inputs": [
						{
							"internalType": "uint256",
							"name": "_id",
							"type": "uint256"
						},
						{
							"internalType": "string",
							"name": "_name",
							"type": "string"
						},
						{
							"internalType": "bool",
							"name": "_expired",
							"type": "bool"
						}
					],
					"name": "changeProduct",
					"outputs": [],
					"stateMutability": "nonpayable",
					"type": "function"
				},
				{
					"inputs": [],
					"name": "getproduct",
					"outputs": [
						{
							"components": [
								{
									"internalType": "uint256",
									"name": "id",
									"type": "uint256"
								},
								{
									"internalType": "string",
									"name": "name",
									"type": "string"
								},
								{
									"internalType": "bool",
									"name": "expired",
									"type": "bool"
								}
							],
							"internalType": "struct struct_2nd.product",
							"name": "",
							"type": "tuple"
						}
					],
					"stateMutability": "view",
					"type": "function"
				},
				{
					"inputs": [
						{
							"internalType": "uint256",
							"name": "",
							"type": "uint256"
						}
					],
					"name": "products",
					"outputs": [
						{
							"internalType": "uint256",
							"name": "id",
							"type": "uint256"
						},
						{
							"internalType": "string",
							"name": "name",
							"type": "string"
						},
						{
							"internalType": "bool",
							"name": "expired",
							"type": "bool"
						}
					],
					"stateMutability": "view",
					"type": "function"
				},
				{
					"inputs": [],
					"name": "products1",
					"outputs": [
						{
							"internalType": "uint256",
							"name": "id",
							"type": "uint256"
						},
						{
							"internalType": "string",
							"name": "name",
							"type": "string"
						},
						{
							"internalType": "bool",
							"name": "expired",
							"type": "bool"
						}
					],
					"stateMutability": "view",
					"type": "function"
				}
			],
			"devdoc": {
				"kind": "dev",
				"methods": {},
				"version": 1
			},
			"evm": {
				"assembly": "    /* \"learning/struct2nd.sol\":60:882  contract struct_2nd{\r... */\n  mstore(0x40, 0x80)\n  callvalue\n  dup1\n  iszero\n  tag_1\n  jumpi\n  0x00\n  dup1\n  revert\ntag_1:\n  pop\n  dataSize(sub_0)\n  dup1\n  dataOffset(sub_0)\n  0x00\n  codecopy\n  0x00\n  return\nstop\n\nsub_0: assembly {\n        /* \"learning/struct2nd.sol\":60:882  contract struct_2nd{\r... */\n      mstore(0x40, 0x80)\n      callvalue\n      dup1\n      iszero\n      tag_1\n      jumpi\n      0x00\n      dup1\n      revert\n    tag_1:\n      pop\n      jumpi(tag_2, lt(calldatasize, 0x04))\n      shr(0xe0, calldataload(0x00))\n      dup1\n      0x7acc0b20\n      gt\n      tag_10\n      jumpi\n      dup1\n      0x7acc0b20\n      eq\n      tag_6\n      jumpi\n      dup1\n      0x7c3bd8fb\n      eq\n      tag_7\n      jumpi\n      dup1\n      0xc05695e2\n      eq\n      tag_8\n      jumpi\n      dup1\n      0xf1d21a68\n      eq\n      tag_9\n      jumpi\n      jump(tag_2)\n    tag_10:\n      dup1\n      0x035a0484\n      eq\n      tag_3\n      jumpi\n      dup1\n      0x088150ea\n      eq\n      tag_4\n      jumpi\n      dup1\n      0x0bade33f\n      eq\n      tag_5\n      jumpi\n    tag_2:\n      0x00\n      dup1\n      revert\n        /* \"learning/struct2nd.sol\":573:658  function getproduct() view public returns(product memory){\r... */\n    tag_3:\n      tag_11\n      tag_12\n      jump\t// in\n    tag_11:\n      mload(0x40)\n      tag_13\n      swap2\n      swap1\n      tag_14\n      jump\t// in\n    tag_13:\n      mload(0x40)\n      dup1\n      swap2\n      sub\n      swap1\n      return\n        /* \"learning/struct2nd.sol\":453:569  function addproduct(uint id, string memory name, bool expired) public{\r... */\n    tag_4:\n      tag_15\n      0x04\n      dup1\n      calldatasize\n      sub\n      dup2\n      add\n      swap1\n      tag_16\n      swap2\n      swap1\n      tag_17\n      jump\t// in\n    tag_16:\n      tag_18\n      jump\t// in\n    tag_15:\n      stop\n        /* \"learning/struct2nd.sol\":745:865  function add_products(uint id, string memory name, bool expired) public{\r... */\n    tag_5:\n      tag_19\n      0x04\n      dup1\n      calldatasize\n      sub\n      dup2\n      add\n      swap1\n      tag_20\n      swap2\n      swap1\n      tag_17\n      jump\t// in\n    tag_20:\n      tag_21\n      jump\t// in\n    tag_19:\n      stop\n        /* \"learning/struct2nd.sol\":163:188  product[] public products */\n    tag_6:\n      tag_22\n      0x04\n      dup1\n      calldatasize\n      sub\n      dup2\n      add\n      swap1\n      tag_23\n      swap2\n      swap1\n      tag_24\n      jump\t// in\n    tag_23:\n      tag_25\n      jump\t// in\n    tag_22:\n      mload(0x40)\n      tag_26\n      swap4\n      swap3\n      swap2\n      swap1\n      tag_27\n      jump\t// in\n    tag_26:\n      mload(0x40)\n      dup1\n      swap2\n      sub\n      swap1\n      return\n        /* \"learning/struct2nd.sol\":221:449  function changeProduct(uint _id,string memory _name, bool _expired) public{\r... */\n    tag_7:\n      tag_28\n      0x04\n      dup1\n      calldatasize\n      sub\n      dup2\n      add\n      swap1\n      tag_29\n      swap2\n      swap1\n      tag_17\n      jump\t// in\n    tag_29:\n      tag_30\n      jump\t// in\n    tag_28:\n      stop\n        /* \"learning/struct2nd.sol\":662:741  function alwaysAvailable() public{\r... */\n    tag_8:\n      tag_31\n      tag_32\n      jump\t// in\n    tag_31:\n      stop\n        /* \"learning/struct2nd.sol\":191:216  product public  products1 */\n    tag_9:\n      tag_33\n      tag_34\n      jump\t// in\n    tag_33:\n      mload(0x40)\n      tag_35\n      swap4\n      swap3\n      swap2\n      swap1\n      tag_27\n      jump\t// in\n    tag_35:\n      mload(0x40)\n      dup1\n      swap2\n      sub\n      swap1\n      return\n        /* \"learning/struct2nd.sol\":573:658  function getproduct() view public returns(product memory){\r... */\n    tag_12:\n        /* \"learning/struct2nd.sol\":615:629  product memory */\n      tag_36\n      tag_37\n      jump\t// in\n    tag_36:\n        /* \"learning/struct2nd.sol\":645:654  products1 */\n      0x01\n        /* \"learning/struct2nd.sol\":638:654  return products1 */\n      mload(0x40)\n      dup1\n      0x60\n      add\n      0x40\n      mstore\n      swap1\n      dup2\n      0x00\n      dup3\n      add\n      sload\n      dup2\n      mstore\n      0x20\n      add\n      0x01\n      dup3\n      add\n      dup1\n      sload\n      tag_39\n      swap1\n      tag_40\n      jump\t// in\n    tag_39:\n      dup1\n      0x1f\n      add\n      0x20\n      dup1\n      swap2\n      div\n      mul\n      0x20\n      add\n      mload(0x40)\n      swap1\n      dup2\n      add\n      0x40\n      mstore\n      dup1\n      swap3\n      swap2\n      swap1\n      dup2\n      dup2\n      mstore\n      0x20\n      add\n      dup3\n      dup1\n      sload\n      tag_41\n      swap1\n      tag_40\n      jump\t// in\n    tag_41:\n      dup1\n      iszero\n      tag_42\n      jumpi\n      dup1\n      0x1f\n      lt\n      tag_43\n      jumpi\n      0x0100\n      dup1\n      dup4\n      sload\n      div\n      mul\n      dup4\n      mstore\n      swap2\n      0x20\n      add\n      swap2\n      jump(tag_42)\n    tag_43:\n      dup3\n      add\n      swap2\n      swap1\n      0x00\n      mstore\n      keccak256(0x00, 0x20)\n      swap1\n    tag_44:\n      dup2\n      sload\n      dup2\n      mstore\n      swap1\n      0x01\n      add\n      swap1\n      0x20\n      add\n      dup1\n      dup4\n      gt\n      tag_44\n      jumpi\n      dup3\n      swap1\n      sub\n      0x1f\n      and\n      dup3\n      add\n      swap2\n    tag_42:\n      pop\n      pop\n      pop\n      pop\n      pop\n      dup2\n      mstore\n      0x20\n      add\n      0x02\n      dup3\n      add\n      0x00\n      swap1\n      sload\n      swap1\n      0x0100\n      exp\n      swap1\n      div\n      0xff\n      and\n      iszero\n      iszero\n      iszero\n      iszero\n      dup2\n      mstore\n      pop\n      pop\n      swap1\n      pop\n        /* \"learning/struct2nd.sol\":573:658  function getproduct() view public returns(product memory){\r... */\n      swap1\n      jump\t// out\n        /* \"learning/struct2nd.sol\":453:569  function addproduct(uint id, string memory name, bool expired) public{\r... */\n    tag_18:\n        /* \"learning/struct2nd.sol\":541:565  product(id,name,expired) */\n      mload(0x40)\n      dup1\n      0x60\n      add\n      0x40\n      mstore\n      dup1\n        /* \"learning/struct2nd.sol\":549:551  id */\n      dup5\n        /* \"learning/struct2nd.sol\":541:565  product(id,name,expired) */\n      dup2\n      mstore\n      0x20\n      add\n        /* \"learning/struct2nd.sol\":552:556  name */\n      dup4\n        /* \"learning/struct2nd.sol\":541:565  product(id,name,expired) */\n      dup2\n      mstore\n      0x20\n      add\n        /* \"learning/struct2nd.sol\":557:564  expired */\n      dup3\n        /* \"learning/struct2nd.sol\":541:565  product(id,name,expired) */\n      iszero\n      iszero\n      dup2\n      mstore\n      pop\n        /* \"learning/struct2nd.sol\":528:537  products1 */\n      0x01\n        /* \"learning/struct2nd.sol\":528:565  products1 =  product(id,name,expired) */\n      0x00\n      dup3\n      add\n      mload\n      dup2\n      0x00\n      add\n      sstore\n      0x20\n      dup3\n      add\n      mload\n      dup2\n      0x01\n      add\n      swap1\n      dup1\n      mload\n      swap1\n      0x20\n      add\n      swap1\n      tag_46\n      swap3\n      swap2\n      swap1\n      tag_47\n      jump\t// in\n    tag_46:\n      pop\n      0x40\n      dup3\n      add\n      mload\n      dup2\n      0x02\n      add\n      exp(0x0100, 0x00)\n      dup2\n      sload\n      dup2\n      0xff\n      mul\n      not\n      and\n      swap1\n      dup4\n      iszero\n      iszero\n      mul\n      or\n      swap1\n      sstore\n      pop\n      swap1\n      pop\n      pop\n        /* \"learning/struct2nd.sol\":453:569  function addproduct(uint id, string memory name, bool expired) public{\r... */\n      pop\n      pop\n      pop\n      jump\t// out\n        /* \"learning/struct2nd.sol\":745:865  function add_products(uint id, string memory name, bool expired) public{\r... */\n    tag_21:\n        /* \"learning/struct2nd.sol\":822:830  products */\n      0x00\n        /* \"learning/struct2nd.sol\":836:860  product(id,name,expired) */\n      mload(0x40)\n      dup1\n      0x60\n      add\n      0x40\n      mstore\n      dup1\n        /* \"learning/struct2nd.sol\":844:846  id */\n      dup6\n        /* \"learning/struct2nd.sol\":836:860  product(id,name,expired) */\n      dup2\n      mstore\n      0x20\n      add\n        /* \"learning/struct2nd.sol\":847:851  name */\n      dup5\n        /* \"learning/struct2nd.sol\":836:860  product(id,name,expired) */\n      dup2\n      mstore\n      0x20\n      add\n        /* \"learning/struct2nd.sol\":852:859  expired */\n      dup4\n        /* \"learning/struct2nd.sol\":836:860  product(id,name,expired) */\n      iszero\n      iszero\n      dup2\n      mstore\n      pop\n        /* \"learning/struct2nd.sol\":822:861  products.push(product(id,name,expired)) */\n      swap1\n      dup1\n      0x01\n      dup2\n      sload\n      add\n      dup1\n      dup3\n      sstore\n      dup1\n      swap2\n      pop\n      pop\n      0x01\n      swap1\n      sub\n      swap1\n      0x00\n      mstore\n      keccak256(0x00, 0x20)\n      swap1\n      0x03\n      mul\n      add\n      0x00\n      swap1\n      swap2\n      swap1\n      swap2\n      swap1\n      swap2\n      pop\n      0x00\n      dup3\n      add\n      mload\n      dup2\n      0x00\n      add\n      sstore\n      0x20\n      dup3\n      add\n      mload\n      dup2\n      0x01\n      add\n      swap1\n      dup1\n      mload\n      swap1\n      0x20\n      add\n      swap1\n      tag_50\n      swap3\n      swap2\n      swap1\n      tag_47\n      jump\t// in\n    tag_50:\n      pop\n      0x40\n      dup3\n      add\n      mload\n      dup2\n      0x02\n      add\n      exp(0x0100, 0x00)\n      dup2\n      sload\n      dup2\n      0xff\n      mul\n      not\n      and\n      swap1\n      dup4\n      iszero\n      iszero\n      mul\n      or\n      swap1\n      sstore\n      pop\n      pop\n      pop\n        /* \"learning/struct2nd.sol\":745:865  function add_products(uint id, string memory name, bool expired) public{\r... */\n      pop\n      pop\n      pop\n      jump\t// out\n        /* \"learning/struct2nd.sol\":163:188  product[] public products */\n    tag_25:\n      0x00\n      dup2\n      dup2\n      sload\n      dup2\n      lt\n      tag_51\n      jumpi\n      0x00\n      dup1\n      revert\n    tag_51:\n      swap1\n      0x00\n      mstore\n      keccak256(0x00, 0x20)\n      swap1\n      0x03\n      mul\n      add\n      0x00\n      swap2\n      pop\n      swap1\n      pop\n      dup1\n      0x00\n      add\n      sload\n      swap1\n      dup1\n      0x01\n      add\n      dup1\n      sload\n      tag_53\n      swap1\n      tag_40\n      jump\t// in\n    tag_53:\n      dup1\n      0x1f\n      add\n      0x20\n      dup1\n      swap2\n      div\n      mul\n      0x20\n      add\n      mload(0x40)\n      swap1\n      dup2\n      add\n      0x40\n      mstore\n      dup1\n      swap3\n      swap2\n      swap1\n      dup2\n      dup2\n      mstore\n      0x20\n      add\n      dup3\n      dup1\n      sload\n      tag_54\n      swap1\n      tag_40\n      jump\t// in\n    tag_54:\n      dup1\n      iszero\n      tag_55\n      jumpi\n      dup1\n      0x1f\n      lt\n      tag_56\n      jumpi\n      0x0100\n      dup1\n      dup4\n      sload\n      div\n      mul\n      dup4\n      mstore\n      swap2\n      0x20\n      add\n      swap2\n      jump(tag_55)\n    tag_56:\n      dup3\n      add\n      swap2\n      swap1\n      0x00\n      mstore\n      keccak256(0x00, 0x20)\n      swap1\n    tag_57:\n      dup2\n      sload\n      dup2\n      mstore\n      swap1\n      0x01\n      add\n      swap1\n      0x20\n      add\n      dup1\n      dup4\n      gt\n      tag_57\n      jumpi\n      dup3\n      swap1\n      sub\n      0x1f\n      and\n      dup3\n      add\n      swap2\n    tag_55:\n      pop\n      pop\n      pop\n      pop\n      pop\n      swap1\n      dup1\n      0x02\n      add\n      0x00\n      swap1\n      sload\n      swap1\n      0x0100\n      exp\n      swap1\n      div\n      0xff\n      and\n      swap1\n      pop\n      dup4\n      jump\t// out\n        /* \"learning/struct2nd.sol\":221:449  function changeProduct(uint _id,string memory _name, bool _expired) public{\r... */\n    tag_30:\n        /* \"learning/struct2nd.sol\":302:328  product memory new_product */\n      0x00\n        /* \"learning/struct2nd.sol\":331:415  product({\r... */\n      mload(0x40)\n      dup1\n      0x60\n      add\n      0x40\n      mstore\n      dup1\n        /* \"learning/struct2nd.sol\":354:357  _id */\n      dup6\n        /* \"learning/struct2nd.sol\":331:415  product({\r... */\n      dup2\n      mstore\n      0x20\n      add\n        /* \"learning/struct2nd.sol\":374:379  _name */\n      dup5\n        /* \"learning/struct2nd.sol\":331:415  product({\r... */\n      dup2\n      mstore\n      0x20\n      add\n        /* \"learning/struct2nd.sol\":399:407  _expired */\n      dup4\n        /* \"learning/struct2nd.sol\":331:415  product({\r... */\n      iszero\n      iszero\n      dup2\n      mstore\n      pop\n        /* \"learning/struct2nd.sol\":302:415  product memory new_product = product({\r... */\n      swap1\n      pop\n        /* \"learning/struct2nd.sol\":434:445  new_product */\n      dup1\n        /* \"learning/struct2nd.sol\":422:431  products1 */\n      0x01\n        /* \"learning/struct2nd.sol\":422:445  products1 = new_product */\n      0x00\n      dup3\n      add\n      mload\n      dup2\n      0x00\n      add\n      sstore\n      0x20\n      dup3\n      add\n      mload\n      dup2\n      0x01\n      add\n      swap1\n      dup1\n      mload\n      swap1\n      0x20\n      add\n      swap1\n      tag_59\n      swap3\n      swap2\n      swap1\n      tag_47\n      jump\t// in\n    tag_59:\n      pop\n      0x40\n      dup3\n      add\n      mload\n      dup2\n      0x02\n      add\n      exp(0x0100, 0x00)\n      dup2\n      sload\n      dup2\n      0xff\n      mul\n      not\n      and\n      swap1\n      dup4\n      iszero\n      iszero\n      mul\n      or\n      swap1\n      sstore\n      pop\n      swap1\n      pop\n      pop\n        /* \"learning/struct2nd.sol\":221:449  function changeProduct(uint _id,string memory _name, bool _expired) public{\r... */\n      pop\n      pop\n      pop\n      pop\n      jump\t// out\n        /* \"learning/struct2nd.sol\":662:741  function alwaysAvailable() public{\r... */\n    tag_32:\n        /* \"learning/struct2nd.sol\":701:709  products */\n      0x00\n        /* \"learning/struct2nd.sol\":715:736  product(1,\"sam\",true) */\n      mload(0x40)\n      dup1\n      0x60\n      add\n      0x40\n      mstore\n      dup1\n        /* \"learning/struct2nd.sol\":723:724  1 */\n      0x01\n        /* \"learning/struct2nd.sol\":715:736  product(1,\"sam\",true) */\n      dup2\n      mstore\n      0x20\n      add\n      mload(0x40)\n      dup1\n      0x40\n      add\n      0x40\n      mstore\n      dup1\n      0x03\n      dup2\n      mstore\n      0x20\n      add\n      0x73616d0000000000000000000000000000000000000000000000000000000000\n      dup2\n      mstore\n      pop\n      dup2\n      mstore\n      0x20\n      add\n        /* \"learning/struct2nd.sol\":731:735  true */\n      0x01\n        /* \"learning/struct2nd.sol\":715:736  product(1,\"sam\",true) */\n      iszero\n      iszero\n      dup2\n      mstore\n      pop\n        /* \"learning/struct2nd.sol\":701:737  products.push(product(1,\"sam\",true)) */\n      swap1\n      dup1\n      0x01\n      dup2\n      sload\n      add\n      dup1\n      dup3\n      sstore\n      dup1\n      swap2\n      pop\n      pop\n      0x01\n      swap1\n      sub\n      swap1\n      0x00\n      mstore\n      keccak256(0x00, 0x20)\n      swap1\n      0x03\n      mul\n      add\n      0x00\n      swap1\n      swap2\n      swap1\n      swap2\n      swap1\n      swap2\n      pop\n      0x00\n      dup3\n      add\n      mload\n      dup2\n      0x00\n      add\n      sstore\n      0x20\n      dup3\n      add\n      mload\n      dup2\n      0x01\n      add\n      swap1\n      dup1\n      mload\n      swap1\n      0x20\n      add\n      swap1\n      tag_62\n      swap3\n      swap2\n      swap1\n      tag_47\n      jump\t// in\n    tag_62:\n      pop\n      0x40\n      dup3\n      add\n      mload\n      dup2\n      0x02\n      add\n      exp(0x0100, 0x00)\n      dup2\n      sload\n      dup2\n      0xff\n      mul\n      not\n      and\n      swap1\n      dup4\n      iszero\n      iszero\n      mul\n      or\n      swap1\n      sstore\n      pop\n      pop\n      pop\n        /* \"learning/struct2nd.sol\":662:741  function alwaysAvailable() public{\r... */\n      jump\t// out\n        /* \"learning/struct2nd.sol\":191:216  product public  products1 */\n    tag_34:\n      0x01\n      dup1\n      0x00\n      add\n      sload\n      swap1\n      dup1\n      0x01\n      add\n      dup1\n      sload\n      tag_63\n      swap1\n      tag_40\n      jump\t// in\n    tag_63:\n      dup1\n      0x1f\n      add\n      0x20\n      dup1\n      swap2\n      div\n      mul\n      0x20\n      add\n      mload(0x40)\n      swap1\n      dup2\n      add\n      0x40\n      mstore\n      dup1\n      swap3\n      swap2\n      swap1\n      dup2\n      dup2\n      mstore\n      0x20\n      add\n      dup3\n      dup1\n      sload\n      tag_64\n      swap1\n      tag_40\n      jump\t// in\n    tag_64:\n      dup1\n      iszero\n      tag_65\n      jumpi\n      dup1\n      0x1f\n      lt\n      tag_66\n      jumpi\n      0x0100\n      dup1\n      dup4\n      sload\n      div\n      mul\n      dup4\n      mstore\n      swap2\n      0x20\n      add\n      swap2\n      jump(tag_65)\n    tag_66:\n      dup3\n      add\n      swap2\n      swap1\n      0x00\n      mstore\n      keccak256(0x00, 0x20)\n      swap1\n    tag_67:\n      dup2\n      sload\n      dup2\n      mstore\n      swap1\n      0x01\n      add\n      swap1\n      0x20\n      add\n      dup1\n      dup4\n      gt\n      tag_67\n      jumpi\n      dup3\n      swap1\n      sub\n      0x1f\n      and\n      dup3\n      add\n      swap2\n    tag_65:\n      pop\n      pop\n      pop\n      pop\n      pop\n      swap1\n      dup1\n      0x02\n      add\n      0x00\n      swap1\n      sload\n      swap1\n      0x0100\n      exp\n      swap1\n      div\n      0xff\n      and\n      swap1\n      pop\n      dup4\n      jump\t// out\n    tag_37:\n      mload(0x40)\n      dup1\n      0x60\n      add\n      0x40\n      mstore\n      dup1\n      0x00\n      dup2\n      mstore\n      0x20\n      add\n      0x60\n      dup2\n      mstore\n      0x20\n      add\n      iszero(iszero(0x00))\n      dup2\n      mstore\n      pop\n      swap1\n      jump\t// out\n    tag_47:\n      dup3\n      dup1\n      sload\n      tag_68\n      swap1\n      tag_40\n      jump\t// in\n    tag_68:\n      swap1\n      0x00\n      mstore\n      keccak256(0x00, 0x20)\n      swap1\n      0x1f\n      add\n      0x20\n      swap1\n      div\n      dup2\n      add\n      swap3\n      dup3\n      tag_70\n      jumpi\n      0x00\n      dup6\n      sstore\n      jump(tag_69)\n    tag_70:\n      dup3\n      0x1f\n      lt\n      tag_71\n      jumpi\n      dup1\n      mload\n      not(0xff)\n      and\n      dup4\n      dup1\n      add\n      or\n      dup6\n      sstore\n      jump(tag_69)\n    tag_71:\n      dup3\n      dup1\n      add\n      0x01\n      add\n      dup6\n      sstore\n      dup3\n      iszero\n      tag_69\n      jumpi\n      swap2\n      dup3\n      add\n    tag_72:\n      dup3\n      dup2\n      gt\n      iszero\n      tag_73\n      jumpi\n      dup3\n      mload\n      dup3\n      sstore\n      swap2\n      0x20\n      add\n      swap2\n      swap1\n      0x01\n      add\n      swap1\n      jump(tag_72)\n    tag_73:\n    tag_69:\n      pop\n      swap1\n      pop\n      tag_74\n      swap2\n      swap1\n      tag_75\n      jump\t// in\n    tag_74:\n      pop\n      swap1\n      jump\t// out\n    tag_75:\n    tag_76:\n      dup1\n      dup3\n      gt\n      iszero\n      tag_77\n      jumpi\n      0x00\n      dup2\n      0x00\n      swap1\n      sstore\n      pop\n      0x01\n      add\n      jump(tag_76)\n    tag_77:\n      pop\n      swap1\n      jump\t// out\n        /* \"#utility.yul\":7:351   */\n    tag_79:\n      0x00\n        /* \"#utility.yul\":110:175   */\n      tag_81\n        /* \"#utility.yul\":125:174   */\n      tag_82\n        /* \"#utility.yul\":167:173   */\n      dup5\n        /* \"#utility.yul\":125:174   */\n      tag_83\n      jump\t// in\n    tag_82:\n        /* \"#utility.yul\":110:175   */\n      tag_84\n      jump\t// in\n    tag_81:\n        /* \"#utility.yul\":101:175   */\n      swap1\n      pop\n        /* \"#utility.yul\":198:204   */\n      dup3\n        /* \"#utility.yul\":191:196   */\n      dup2\n        /* \"#utility.yul\":184:205   */\n      mstore\n        /* \"#utility.yul\":236:240   */\n      0x20\n        /* \"#utility.yul\":229:234   */\n      dup2\n        /* \"#utility.yul\":225:241   */\n      add\n        /* \"#utility.yul\":274:277   */\n      dup5\n        /* \"#utility.yul\":265:271   */\n      dup5\n        /* \"#utility.yul\":260:263   */\n      dup5\n        /* \"#utility.yul\":256:272   */\n      add\n        /* \"#utility.yul\":253:278   */\n      gt\n        /* \"#utility.yul\":250:252   */\n      iszero\n      tag_85\n      jumpi\n        /* \"#utility.yul\":291:292   */\n      0x00\n        /* \"#utility.yul\":288:289   */\n      dup1\n        /* \"#utility.yul\":281:293   */\n      revert\n        /* \"#utility.yul\":250:252   */\n    tag_85:\n        /* \"#utility.yul\":304:345   */\n      tag_86\n        /* \"#utility.yul\":338:344   */\n      dup5\n        /* \"#utility.yul\":333:336   */\n      dup3\n        /* \"#utility.yul\":328:331   */\n      dup6\n        /* \"#utility.yul\":304:345   */\n      tag_87\n      jump\t// in\n    tag_86:\n        /* \"#utility.yul\":91:351   */\n      pop\n      swap4\n      swap3\n      pop\n      pop\n      pop\n      jump\t// out\n        /* \"#utility.yul\":357:490   */\n    tag_88:\n      0x00\n        /* \"#utility.yul\":438:444   */\n      dup2\n        /* \"#utility.yul\":425:445   */\n      calldataload\n        /* \"#utility.yul\":416:445   */\n      swap1\n      pop\n        /* \"#utility.yul\":454:484   */\n      tag_90\n        /* \"#utility.yul\":478:483   */\n      dup2\n        /* \"#utility.yul\":454:484   */\n      tag_91\n      jump\t// in\n    tag_90:\n        /* \"#utility.yul\":406:490   */\n      swap3\n      swap2\n      pop\n      pop\n      jump\t// out\n        /* \"#utility.yul\":510:783   */\n    tag_92:\n      0x00\n        /* \"#utility.yul\":615:618   */\n      dup3\n        /* \"#utility.yul\":608:612   */\n      0x1f\n        /* \"#utility.yul\":600:606   */\n      dup4\n        /* \"#utility.yul\":596:613   */\n      add\n        /* \"#utility.yul\":592:619   */\n      slt\n        /* \"#utility.yul\":582:584   */\n      tag_94\n      jumpi\n        /* \"#utility.yul\":633:634   */\n      0x00\n        /* \"#utility.yul\":630:631   */\n      dup1\n        /* \"#utility.yul\":623:635   */\n      revert\n        /* \"#utility.yul\":582:584   */\n    tag_94:\n        /* \"#utility.yul\":673:679   */\n      dup2\n        /* \"#utility.yul\":660:680   */\n      calldataload\n        /* \"#utility.yul\":698:777   */\n      tag_95\n        /* \"#utility.yul\":773:776   */\n      dup5\n        /* \"#utility.yul\":765:771   */\n      dup3\n        /* \"#utility.yul\":758:762   */\n      0x20\n        /* \"#utility.yul\":750:756   */\n      dup7\n        /* \"#utility.yul\":746:763   */\n      add\n        /* \"#utility.yul\":698:777   */\n      tag_79\n      jump\t// in\n    tag_95:\n        /* \"#utility.yul\":689:777   */\n      swap2\n      pop\n        /* \"#utility.yul\":572:783   */\n      pop\n      swap3\n      swap2\n      pop\n      pop\n      jump\t// out\n        /* \"#utility.yul\":789:928   */\n    tag_96:\n      0x00\n        /* \"#utility.yul\":873:879   */\n      dup2\n        /* \"#utility.yul\":860:880   */\n      calldataload\n        /* \"#utility.yul\":851:880   */\n      swap1\n      pop\n        /* \"#utility.yul\":889:922   */\n      tag_98\n        /* \"#utility.yul\":916:921   */\n      dup2\n        /* \"#utility.yul\":889:922   */\n      tag_99\n      jump\t// in\n    tag_98:\n        /* \"#utility.yul\":841:928   */\n      swap3\n      swap2\n      pop\n      pop\n      jump\t// out\n        /* \"#utility.yul\":934:1196   */\n    tag_24:\n      0x00\n        /* \"#utility.yul\":1042:1044   */\n      0x20\n        /* \"#utility.yul\":1030:1039   */\n      dup3\n        /* \"#utility.yul\":1021:1028   */\n      dup5\n        /* \"#utility.yul\":1017:1040   */\n      sub\n        /* \"#utility.yul\":1013:1045   */\n      slt\n        /* \"#utility.yul\":1010:1012   */\n      iszero\n      tag_101\n      jumpi\n        /* \"#utility.yul\":1058:1059   */\n      0x00\n        /* \"#utility.yul\":1055:1056   */\n      dup1\n        /* \"#utility.yul\":1048:1060   */\n      revert\n        /* \"#utility.yul\":1010:1012   */\n    tag_101:\n        /* \"#utility.yul\":1101:1102   */\n      0x00\n        /* \"#utility.yul\":1126:1179   */\n      tag_102\n        /* \"#utility.yul\":1171:1178   */\n      dup5\n        /* \"#utility.yul\":1162:1168   */\n      dup3\n        /* \"#utility.yul\":1151:1160   */\n      dup6\n        /* \"#utility.yul\":1147:1169   */\n      add\n        /* \"#utility.yul\":1126:1179   */\n      tag_96\n      jump\t// in\n    tag_102:\n        /* \"#utility.yul\":1116:1179   */\n      swap2\n      pop\n        /* \"#utility.yul\":1072:1189   */\n      pop\n        /* \"#utility.yul\":1000:1196   */\n      swap3\n      swap2\n      pop\n      pop\n      jump\t// out\n        /* \"#utility.yul\":1202:1861   */\n    tag_17:\n      0x00\n      dup1\n      0x00\n        /* \"#utility.yul\":1351:1353   */\n      0x60\n        /* \"#utility.yul\":1339:1348   */\n      dup5\n        /* \"#utility.yul\":1330:1337   */\n      dup7\n        /* \"#utility.yul\":1326:1349   */\n      sub\n        /* \"#utility.yul\":1322:1354   */\n      slt\n        /* \"#utility.yul\":1319:1321   */\n      iszero\n      tag_104\n      jumpi\n        /* \"#utility.yul\":1367:1368   */\n      0x00\n        /* \"#utility.yul\":1364:1365   */\n      dup1\n        /* \"#utility.yul\":1357:1369   */\n      revert\n        /* \"#utility.yul\":1319:1321   */\n    tag_104:\n        /* \"#utility.yul\":1410:1411   */\n      0x00\n        /* \"#utility.yul\":1435:1488   */\n      tag_105\n        /* \"#utility.yul\":1480:1487   */\n      dup7\n        /* \"#utility.yul\":1471:1477   */\n      dup3\n        /* \"#utility.yul\":1460:1469   */\n      dup8\n        /* \"#utility.yul\":1456:1478   */\n      add\n        /* \"#utility.yul\":1435:1488   */\n      tag_96\n      jump\t// in\n    tag_105:\n        /* \"#utility.yul\":1425:1488   */\n      swap4\n      pop\n        /* \"#utility.yul\":1381:1498   */\n      pop\n        /* \"#utility.yul\":1565:1567   */\n      0x20\n        /* \"#utility.yul\":1554:1563   */\n      dup5\n        /* \"#utility.yul\":1550:1568   */\n      add\n        /* \"#utility.yul\":1537:1569   */\n      calldataload\n        /* \"#utility.yul\":1596:1614   */\n      0xffffffffffffffff\n        /* \"#utility.yul\":1588:1594   */\n      dup2\n        /* \"#utility.yul\":1585:1615   */\n      gt\n        /* \"#utility.yul\":1582:1584   */\n      iszero\n      tag_106\n      jumpi\n        /* \"#utility.yul\":1628:1629   */\n      0x00\n        /* \"#utility.yul\":1625:1626   */\n      dup1\n        /* \"#utility.yul\":1618:1630   */\n      revert\n        /* \"#utility.yul\":1582:1584   */\n    tag_106:\n        /* \"#utility.yul\":1656:1719   */\n      tag_107\n        /* \"#utility.yul\":1711:1718   */\n      dup7\n        /* \"#utility.yul\":1702:1708   */\n      dup3\n        /* \"#utility.yul\":1691:1700   */\n      dup8\n        /* \"#utility.yul\":1687:1709   */\n      add\n        /* \"#utility.yul\":1656:1719   */\n      tag_92\n      jump\t// in\n    tag_107:\n        /* \"#utility.yul\":1646:1719   */\n      swap3\n      pop\n        /* \"#utility.yul\":1508:1729   */\n      pop\n        /* \"#utility.yul\":1768:1770   */\n      0x40\n        /* \"#utility.yul\":1794:1844   */\n      tag_108\n        /* \"#utility.yul\":1836:1843   */\n      dup7\n        /* \"#utility.yul\":1827:1833   */\n      dup3\n        /* \"#utility.yul\":1816:1825   */\n      dup8\n        /* \"#utility.yul\":1812:1834   */\n      add\n        /* \"#utility.yul\":1794:1844   */\n      tag_88\n      jump\t// in\n    tag_108:\n        /* \"#utility.yul\":1784:1844   */\n      swap2\n      pop\n        /* \"#utility.yul\":1739:1854   */\n      pop\n        /* \"#utility.yul\":1309:1861   */\n      swap3\n      pop\n      swap3\n      pop\n      swap3\n      jump\t// out\n        /* \"#utility.yul\":1867:1966   */\n    tag_109:\n        /* \"#utility.yul\":1938:1959   */\n      tag_111\n        /* \"#utility.yul\":1953:1958   */\n      dup2\n        /* \"#utility.yul\":1938:1959   */\n      tag_112\n      jump\t// in\n    tag_111:\n        /* \"#utility.yul\":1933:1936   */\n      dup3\n        /* \"#utility.yul\":1926:1960   */\n      mstore\n        /* \"#utility.yul\":1916:1966   */\n      pop\n      pop\n      jump\t// out\n        /* \"#utility.yul\":1972:2081   */\n    tag_113:\n        /* \"#utility.yul\":2053:2074   */\n      tag_115\n        /* \"#utility.yul\":2068:2073   */\n      dup2\n        /* \"#utility.yul\":2053:2074   */\n      tag_112\n      jump\t// in\n    tag_115:\n        /* \"#utility.yul\":2048:2051   */\n      dup3\n        /* \"#utility.yul\":2041:2075   */\n      mstore\n        /* \"#utility.yul\":2031:2081   */\n      pop\n      pop\n      jump\t// out\n        /* \"#utility.yul\":2087:2431   */\n    tag_116:\n      0x00\n        /* \"#utility.yul\":2193:2232   */\n      tag_118\n        /* \"#utility.yul\":2226:2231   */\n      dup3\n        /* \"#utility.yul\":2193:2232   */\n      tag_119\n      jump\t// in\n    tag_118:\n        /* \"#utility.yul\":2248:2309   */\n      tag_120\n        /* \"#utility.yul\":2302:2308   */\n      dup2\n        /* \"#utility.yul\":2297:2300   */\n      dup6\n        /* \"#utility.yul\":2248:2309   */\n      tag_121\n      jump\t// in\n    tag_120:\n        /* \"#utility.yul\":2241:2309   */\n      swap4\n      pop\n        /* \"#utility.yul\":2318:2370   */\n      tag_122\n        /* \"#utility.yul\":2363:2369   */\n      dup2\n        /* \"#utility.yul\":2358:2361   */\n      dup6\n        /* \"#utility.yul\":2351:2355   */\n      0x20\n        /* \"#utility.yul\":2344:2349   */\n      dup7\n        /* \"#utility.yul\":2340:2356   */\n      add\n        /* \"#utility.yul\":2318:2370   */\n      tag_123\n      jump\t// in\n    tag_122:\n        /* \"#utility.yul\":2395:2424   */\n      tag_124\n        /* \"#utility.yul\":2417:2423   */\n      dup2\n        /* \"#utility.yul\":2395:2424   */\n      tag_125\n      jump\t// in\n    tag_124:\n        /* \"#utility.yul\":2390:2393   */\n      dup5\n        /* \"#utility.yul\":2386:2425   */\n      add\n        /* \"#utility.yul\":2379:2425   */\n      swap2\n      pop\n        /* \"#utility.yul\":2169:2431   */\n      pop\n      swap3\n      swap2\n      pop\n      pop\n      jump\t// out\n        /* \"#utility.yul\":2437:2801   */\n    tag_126:\n      0x00\n        /* \"#utility.yul\":2553:2592   */\n      tag_128\n        /* \"#utility.yul\":2586:2591   */\n      dup3\n        /* \"#utility.yul\":2553:2592   */\n      tag_119\n      jump\t// in\n    tag_128:\n        /* \"#utility.yul\":2608:2679   */\n      tag_129\n        /* \"#utility.yul\":2672:2678   */\n      dup2\n        /* \"#utility.yul\":2667:2670   */\n      dup6\n        /* \"#utility.yul\":2608:2679   */\n      tag_130\n      jump\t// in\n    tag_129:\n        /* \"#utility.yul\":2601:2679   */\n      swap4\n      pop\n        /* \"#utility.yul\":2688:2740   */\n      tag_131\n        /* \"#utility.yul\":2733:2739   */\n      dup2\n        /* \"#utility.yul\":2728:2731   */\n      dup6\n        /* \"#utility.yul\":2721:2725   */\n      0x20\n        /* \"#utility.yul\":2714:2719   */\n      dup7\n        /* \"#utility.yul\":2710:2726   */\n      add\n        /* \"#utility.yul\":2688:2740   */\n      tag_123\n      jump\t// in\n    tag_131:\n        /* \"#utility.yul\":2765:2794   */\n      tag_132\n        /* \"#utility.yul\":2787:2793   */\n      dup2\n        /* \"#utility.yul\":2765:2794   */\n      tag_125\n      jump\t// in\n    tag_132:\n        /* \"#utility.yul\":2760:2763   */\n      dup5\n        /* \"#utility.yul\":2756:2795   */\n      add\n        /* \"#utility.yul\":2749:2795   */\n      swap2\n      pop\n        /* \"#utility.yul\":2529:2801   */\n      pop\n      swap3\n      swap2\n      pop\n      pop\n      jump\t// out\n        /* \"#utility.yul\":2869:3638   */\n    tag_133:\n      0x00\n        /* \"#utility.yul\":3018:3022   */\n      0x60\n        /* \"#utility.yul\":3013:3016   */\n      dup4\n        /* \"#utility.yul\":3009:3023   */\n      add\n        /* \"#utility.yul\":3103:3107   */\n      0x00\n        /* \"#utility.yul\":3096:3101   */\n      dup4\n        /* \"#utility.yul\":3092:3108   */\n      add\n        /* \"#utility.yul\":3086:3109   */\n      mload\n        /* \"#utility.yul\":3122:3185   */\n      tag_135\n        /* \"#utility.yul\":3179:3183   */\n      0x00\n        /* \"#utility.yul\":3174:3177   */\n      dup7\n        /* \"#utility.yul\":3170:3184   */\n      add\n        /* \"#utility.yul\":3156:3168   */\n      dup3\n        /* \"#utility.yul\":3122:3185   */\n      tag_136\n      jump\t// in\n    tag_135:\n        /* \"#utility.yul\":3033:3195   */\n      pop\n        /* \"#utility.yul\":3277:3281   */\n      0x20\n        /* \"#utility.yul\":3270:3275   */\n      dup4\n        /* \"#utility.yul\":3266:3282   */\n      add\n        /* \"#utility.yul\":3260:3283   */\n      mload\n        /* \"#utility.yul\":3330:3333   */\n      dup5\n        /* \"#utility.yul\":3324:3328   */\n      dup3\n        /* \"#utility.yul\":3320:3334   */\n      sub\n        /* \"#utility.yul\":3313:3317   */\n      0x20\n        /* \"#utility.yul\":3308:3311   */\n      dup7\n        /* \"#utility.yul\":3304:3318   */\n      add\n        /* \"#utility.yul\":3297:3335   */\n      mstore\n        /* \"#utility.yul\":3356:3429   */\n      tag_137\n        /* \"#utility.yul\":3424:3428   */\n      dup3\n        /* \"#utility.yul\":3410:3422   */\n      dup3\n        /* \"#utility.yul\":3356:3429   */\n      tag_116\n      jump\t// in\n    tag_137:\n        /* \"#utility.yul\":3348:3429   */\n      swap2\n      pop\n        /* \"#utility.yul\":3205:3440   */\n      pop\n        /* \"#utility.yul\":3525:3529   */\n      0x40\n        /* \"#utility.yul\":3518:3523   */\n      dup4\n        /* \"#utility.yul\":3514:3530   */\n      add\n        /* \"#utility.yul\":3508:3531   */\n      mload\n        /* \"#utility.yul\":3544:3601   */\n      tag_138\n        /* \"#utility.yul\":3595:3599   */\n      0x40\n        /* \"#utility.yul\":3590:3593   */\n      dup7\n        /* \"#utility.yul\":3586:3600   */\n      add\n        /* \"#utility.yul\":3572:3584   */\n      dup3\n        /* \"#utility.yul\":3544:3601   */\n      tag_109\n      jump\t// in\n    tag_138:\n        /* \"#utility.yul\":3450:3611   */\n      pop\n        /* \"#utility.yul\":3628:3632   */\n      dup1\n        /* \"#utility.yul\":3621:3632   */\n      swap2\n      pop\n        /* \"#utility.yul\":2987:3638   */\n      pop\n      swap3\n      swap2\n      pop\n      pop\n      jump\t// out\n        /* \"#utility.yul\":3644:3752   */\n    tag_136:\n        /* \"#utility.yul\":3721:3745   */\n      tag_140\n        /* \"#utility.yul\":3739:3744   */\n      dup2\n        /* \"#utility.yul\":3721:3745   */\n      tag_141\n      jump\t// in\n    tag_140:\n        /* \"#utility.yul\":3716:3719   */\n      dup3\n        /* \"#utility.yul\":3709:3746   */\n      mstore\n        /* \"#utility.yul\":3699:3752   */\n      pop\n      pop\n      jump\t// out\n        /* \"#utility.yul\":3758:3876   */\n    tag_142:\n        /* \"#utility.yul\":3845:3869   */\n      tag_144\n        /* \"#utility.yul\":3863:3868   */\n      dup2\n        /* \"#utility.yul\":3845:3869   */\n      tag_141\n      jump\t// in\n    tag_144:\n        /* \"#utility.yul\":3840:3843   */\n      dup3\n        /* \"#utility.yul\":3833:3870   */\n      mstore\n        /* \"#utility.yul\":3823:3876   */\n      pop\n      pop\n      jump\t// out\n        /* \"#utility.yul\":3882:4243   */\n    tag_14:\n      0x00\n        /* \"#utility.yul\":4057:4059   */\n      0x20\n        /* \"#utility.yul\":4046:4055   */\n      dup3\n        /* \"#utility.yul\":4042:4060   */\n      add\n        /* \"#utility.yul\":4034:4060   */\n      swap1\n      pop\n        /* \"#utility.yul\":4106:4115   */\n      dup2\n        /* \"#utility.yul\":4100:4104   */\n      dup2\n        /* \"#utility.yul\":4096:4116   */\n      sub\n        /* \"#utility.yul\":4092:4093   */\n      0x00\n        /* \"#utility.yul\":4081:4090   */\n      dup4\n        /* \"#utility.yul\":4077:4094   */\n      add\n        /* \"#utility.yul\":4070:4117   */\n      mstore\n        /* \"#utility.yul\":4134:4236   */\n      tag_146\n        /* \"#utility.yul\":4231:4235   */\n      dup2\n        /* \"#utility.yul\":4222:4228   */\n      dup5\n        /* \"#utility.yul\":4134:4236   */\n      tag_133\n      jump\t// in\n    tag_146:\n        /* \"#utility.yul\":4126:4236   */\n      swap1\n      pop\n        /* \"#utility.yul\":4024:4243   */\n      swap3\n      swap2\n      pop\n      pop\n      jump\t// out\n        /* \"#utility.yul\":4249:4770   */\n    tag_27:\n      0x00\n        /* \"#utility.yul\":4450:4452   */\n      0x60\n        /* \"#utility.yul\":4439:4448   */\n      dup3\n        /* \"#utility.yul\":4435:4453   */\n      add\n        /* \"#utility.yul\":4427:4453   */\n      swap1\n      pop\n        /* \"#utility.yul\":4463:4534   */\n      tag_148\n        /* \"#utility.yul\":4531:4532   */\n      0x00\n        /* \"#utility.yul\":4520:4529   */\n      dup4\n        /* \"#utility.yul\":4516:4533   */\n      add\n        /* \"#utility.yul\":4507:4513   */\n      dup7\n        /* \"#utility.yul\":4463:4534   */\n      tag_142\n      jump\t// in\n    tag_148:\n        /* \"#utility.yul\":4581:4590   */\n      dup2\n        /* \"#utility.yul\":4575:4579   */\n      dup2\n        /* \"#utility.yul\":4571:4591   */\n      sub\n        /* \"#utility.yul\":4566:4568   */\n      0x20\n        /* \"#utility.yul\":4555:4564   */\n      dup4\n        /* \"#utility.yul\":4551:4569   */\n      add\n        /* \"#utility.yul\":4544:4592   */\n      mstore\n        /* \"#utility.yul\":4609:4687   */\n      tag_149\n        /* \"#utility.yul\":4682:4686   */\n      dup2\n        /* \"#utility.yul\":4673:4679   */\n      dup6\n        /* \"#utility.yul\":4609:4687   */\n      tag_126\n      jump\t// in\n    tag_149:\n        /* \"#utility.yul\":4601:4687   */\n      swap1\n      pop\n        /* \"#utility.yul\":4697:4763   */\n      tag_150\n        /* \"#utility.yul\":4759:4761   */\n      0x40\n        /* \"#utility.yul\":4748:4757   */\n      dup4\n        /* \"#utility.yul\":4744:4762   */\n      add\n        /* \"#utility.yul\":4735:4741   */\n      dup5\n        /* \"#utility.yul\":4697:4763   */\n      tag_113\n      jump\t// in\n    tag_150:\n        /* \"#utility.yul\":4417:4770   */\n      swap5\n      swap4\n      pop\n      pop\n      pop\n      pop\n      jump\t// out\n        /* \"#utility.yul\":4776:5059   */\n    tag_84:\n      0x00\n        /* \"#utility.yul\":4842:4844   */\n      0x40\n        /* \"#utility.yul\":4836:4845   */\n      mload\n        /* \"#utility.yul\":4826:4845   */\n      swap1\n      pop\n        /* \"#utility.yul\":4884:4888   */\n      dup2\n        /* \"#utility.yul\":4876:4882   */\n      dup2\n        /* \"#utility.yul\":4872:4889   */\n      add\n        /* \"#utility.yul\":4991:4997   */\n      dup2\n        /* \"#utility.yul\":4979:4989   */\n      dup2\n        /* \"#utility.yul\":4976:4998   */\n      lt\n        /* \"#utility.yul\":4955:4973   */\n      0xffffffffffffffff\n        /* \"#utility.yul\":4943:4953   */\n      dup3\n        /* \"#utility.yul\":4940:4974   */\n      gt\n        /* \"#utility.yul\":4937:4999   */\n      or\n        /* \"#utility.yul\":4934:4936   */\n      iszero\n      tag_152\n      jumpi\n        /* \"#utility.yul\":5002:5020   */\n      tag_153\n      tag_154\n      jump\t// in\n    tag_153:\n        /* \"#utility.yul\":4934:4936   */\n    tag_152:\n        /* \"#utility.yul\":5042:5052   */\n      dup1\n        /* \"#utility.yul\":5038:5040   */\n      0x40\n        /* \"#utility.yul\":5031:5053   */\n      mstore\n        /* \"#utility.yul\":4816:5059   */\n      pop\n      swap2\n      swap1\n      pop\n      jump\t// out\n        /* \"#utility.yul\":5065:5397   */\n    tag_83:\n      0x00\n        /* \"#utility.yul\":5217:5235   */\n      0xffffffffffffffff\n        /* \"#utility.yul\":5209:5215   */\n      dup3\n        /* \"#utility.yul\":5206:5236   */\n      gt\n        /* \"#utility.yul\":5203:5205   */\n      iszero\n      tag_156\n      jumpi\n        /* \"#utility.yul\":5239:5257   */\n      tag_157\n      tag_154\n      jump\t// in\n    tag_157:\n        /* \"#utility.yul\":5203:5205   */\n    tag_156:\n        /* \"#utility.yul\":5324:5328   */\n      0x1f\n        /* \"#utility.yul\":5320:5329   */\n      not\n        /* \"#utility.yul\":5313:5317   */\n      0x1f\n        /* \"#utility.yul\":5305:5311   */\n      dup4\n        /* \"#utility.yul\":5301:5318   */\n      add\n        /* \"#utility.yul\":5297:5330   */\n      and\n        /* \"#utility.yul\":5289:5330   */\n      swap1\n      pop\n        /* \"#utility.yul\":5385:5389   */\n      0x20\n        /* \"#utility.yul\":5379:5383   */\n      dup2\n        /* \"#utility.yul\":5375:5390   */\n      add\n        /* \"#utility.yul\":5367:5390   */\n      swap1\n      pop\n        /* \"#utility.yul\":5132:5397   */\n      swap2\n      swap1\n      pop\n      jump\t// out\n        /* \"#utility.yul\":5403:5502   */\n    tag_119:\n      0x00\n        /* \"#utility.yul\":5489:5494   */\n      dup2\n        /* \"#utility.yul\":5483:5495   */\n      mload\n        /* \"#utility.yul\":5473:5495   */\n      swap1\n      pop\n        /* \"#utility.yul\":5462:5502   */\n      swap2\n      swap1\n      pop\n      jump\t// out\n        /* \"#utility.yul\":5508:5667   */\n    tag_121:\n      0x00\n        /* \"#utility.yul\":5616:5622   */\n      dup3\n        /* \"#utility.yul\":5611:5614   */\n      dup3\n        /* \"#utility.yul\":5604:5623   */\n      mstore\n        /* \"#utility.yul\":5656:5660   */\n      0x20\n        /* \"#utility.yul\":5651:5654   */\n      dup3\n        /* \"#utility.yul\":5647:5661   */\n      add\n        /* \"#utility.yul\":5632:5661   */\n      swap1\n      pop\n        /* \"#utility.yul\":5594:5667   */\n      swap3\n      swap2\n      pop\n      pop\n      jump\t// out\n        /* \"#utility.yul\":5673:5842   */\n    tag_130:\n      0x00\n        /* \"#utility.yul\":5791:5797   */\n      dup3\n        /* \"#utility.yul\":5786:5789   */\n      dup3\n        /* \"#utility.yul\":5779:5798   */\n      mstore\n        /* \"#utility.yul\":5831:5835   */\n      0x20\n        /* \"#utility.yul\":5826:5829   */\n      dup3\n        /* \"#utility.yul\":5822:5836   */\n      add\n        /* \"#utility.yul\":5807:5836   */\n      swap1\n      pop\n        /* \"#utility.yul\":5769:5842   */\n      swap3\n      swap2\n      pop\n      pop\n      jump\t// out\n        /* \"#utility.yul\":5848:5938   */\n    tag_112:\n      0x00\n        /* \"#utility.yul\":5925:5930   */\n      dup2\n        /* \"#utility.yul\":5918:5931   */\n      iszero\n        /* \"#utility.yul\":5911:5932   */\n      iszero\n        /* \"#utility.yul\":5900:5932   */\n      swap1\n      pop\n        /* \"#utility.yul\":5890:5938   */\n      swap2\n      swap1\n      pop\n      jump\t// out\n        /* \"#utility.yul\":5944:6021   */\n    tag_141:\n      0x00\n        /* \"#utility.yul\":6010:6015   */\n      dup2\n        /* \"#utility.yul\":5999:6015   */\n      swap1\n      pop\n        /* \"#utility.yul\":5989:6021   */\n      swap2\n      swap1\n      pop\n      jump\t// out\n        /* \"#utility.yul\":6027:6181   */\n    tag_87:\n        /* \"#utility.yul\":6111:6117   */\n      dup3\n        /* \"#utility.yul\":6106:6109   */\n      dup2\n        /* \"#utility.yul\":6101:6104   */\n      dup4\n        /* \"#utility.yul\":6088:6118   */\n      calldatacopy\n        /* \"#utility.yul\":6173:6174   */\n      0x00\n        /* \"#utility.yul\":6164:6170   */\n      dup4\n        /* \"#utility.yul\":6159:6162   */\n      dup4\n        /* \"#utility.yul\":6155:6171   */\n      add\n        /* \"#utility.yul\":6148:6175   */\n      mstore\n        /* \"#utility.yul\":6078:6181   */\n      pop\n      pop\n      pop\n      jump\t// out\n        /* \"#utility.yul\":6187:6494   */\n    tag_123:\n        /* \"#utility.yul\":6255:6256   */\n      0x00\n        /* \"#utility.yul\":6265:6378   */\n    tag_165:\n        /* \"#utility.yul\":6279:6285   */\n      dup4\n        /* \"#utility.yul\":6276:6277   */\n      dup2\n        /* \"#utility.yul\":6273:6286   */\n      lt\n        /* \"#utility.yul\":6265:6378   */\n      iszero\n      tag_167\n      jumpi\n        /* \"#utility.yul\":6364:6365   */\n      dup1\n        /* \"#utility.yul\":6359:6362   */\n      dup3\n        /* \"#utility.yul\":6355:6366   */\n      add\n        /* \"#utility.yul\":6349:6367   */\n      mload\n        /* \"#utility.yul\":6345:6346   */\n      dup2\n        /* \"#utility.yul\":6340:6343   */\n      dup5\n        /* \"#utility.yul\":6336:6347   */\n      add\n        /* \"#utility.yul\":6329:6368   */\n      mstore\n        /* \"#utility.yul\":6301:6303   */\n      0x20\n        /* \"#utility.yul\":6298:6299   */\n      dup2\n        /* \"#utility.yul\":6294:6304   */\n      add\n        /* \"#utility.yul\":6289:6304   */\n      swap1\n      pop\n        /* \"#utility.yul\":6265:6378   */\n      jump(tag_165)\n    tag_167:\n        /* \"#utility.yul\":6396:6402   */\n      dup4\n        /* \"#utility.yul\":6393:6394   */\n      dup2\n        /* \"#utility.yul\":6390:6403   */\n      gt\n        /* \"#utility.yul\":6387:6389   */\n      iszero\n      tag_168\n      jumpi\n        /* \"#utility.yul\":6476:6477   */\n      0x00\n        /* \"#utility.yul\":6467:6473   */\n      dup5\n        /* \"#utility.yul\":6462:6465   */\n      dup5\n        /* \"#utility.yul\":6458:6474   */\n      add\n        /* \"#utility.yul\":6451:6478   */\n      mstore\n        /* \"#utility.yul\":6387:6389   */\n    tag_168:\n        /* \"#utility.yul\":6236:6494   */\n      pop\n      pop\n      pop\n      pop\n      jump\t// out\n        /* \"#utility.yul\":6500:6820   */\n    tag_40:\n      0x00\n        /* \"#utility.yul\":6581:6582   */\n      0x02\n        /* \"#utility.yul\":6575:6579   */\n      dup3\n        /* \"#utility.yul\":6571:6583   */\n      div\n        /* \"#utility.yul\":6561:6583   */\n      swap1\n      pop\n        /* \"#utility.yul\":6628:6629   */\n      0x01\n        /* \"#utility.yul\":6622:6626   */\n      dup3\n        /* \"#utility.yul\":6618:6630   */\n      and\n        /* \"#utility.yul\":6649:6667   */\n      dup1\n        /* \"#utility.yul\":6639:6641   */\n      tag_170\n      jumpi\n        /* \"#utility.yul\":6705:6709   */\n      0x7f\n        /* \"#utility.yul\":6697:6703   */\n      dup3\n        /* \"#utility.yul\":6693:6710   */\n      and\n        /* \"#utility.yul\":6683:6710   */\n      swap2\n      pop\n        /* \"#utility.yul\":6639:6641   */\n    tag_170:\n        /* \"#utility.yul\":6767:6769   */\n      0x20\n        /* \"#utility.yul\":6759:6765   */\n      dup3\n        /* \"#utility.yul\":6756:6770   */\n      lt\n        /* \"#utility.yul\":6736:6754   */\n      dup2\n        /* \"#utility.yul\":6733:6771   */\n      eq\n        /* \"#utility.yul\":6730:6732   */\n      iszero\n      tag_171\n      jumpi\n        /* \"#utility.yul\":6786:6804   */\n      tag_172\n      tag_173\n      jump\t// in\n    tag_172:\n        /* \"#utility.yul\":6730:6732   */\n    tag_171:\n        /* \"#utility.yul\":6551:6820   */\n      pop\n      swap2\n      swap1\n      pop\n      jump\t// out\n        /* \"#utility.yul\":6826:7006   */\n    tag_173:\n        /* \"#utility.yul\":6874:6951   */\n      0x4e487b7100000000000000000000000000000000000000000000000000000000\n        /* \"#utility.yul\":6871:6872   */\n      0x00\n        /* \"#utility.yul\":6864:6952   */\n      mstore\n        /* \"#utility.yul\":6971:6975   */\n      0x22\n        /* \"#utility.yul\":6968:6969   */\n      0x04\n        /* \"#utility.yul\":6961:6976   */\n      mstore\n        /* \"#utility.yul\":6995:6999   */\n      0x24\n        /* \"#utility.yul\":6992:6993   */\n      0x00\n        /* \"#utility.yul\":6985:7000   */\n      revert\n        /* \"#utility.yul\":7012:7192   */\n    tag_154:\n        /* \"#utility.yul\":7060:7137   */\n      0x4e487b7100000000000000000000000000000000000000000000000000000000\n        /* \"#utility.yul\":7057:7058   */\n      0x00\n        /* \"#utility.yul\":7050:7138   */\n      mstore\n        /* \"#utility.yul\":7157:7161   */\n      0x41\n        /* \"#utility.yul\":7154:7155   */\n      0x04\n        /* \"#utility.yul\":7147:7162   */\n      mstore\n        /* \"#utility.yul\":7181:7185   */\n      0x24\n        /* \"#utility.yul\":7178:7179   */\n      0x00\n        /* \"#utility.yul\":7171:7186   */\n      revert\n        /* \"#utility.yul\":7198:7300   */\n    tag_125:\n      0x00\n        /* \"#utility.yul\":7290:7292   */\n      0x1f\n        /* \"#utility.yul\":7286:7293   */\n      not\n        /* \"#utility.yul\":7281:7283   */\n      0x1f\n        /* \"#utility.yul\":7274:7279   */\n      dup4\n        /* \"#utility.yul\":7270:7284   */\n      add\n        /* \"#utility.yul\":7266:7294   */\n      and\n        /* \"#utility.yul\":7256:7294   */\n      swap1\n      pop\n        /* \"#utility.yul\":7246:7300   */\n      swap2\n      swap1\n      pop\n      jump\t// out\n        /* \"#utility.yul\":7306:7422   */\n    tag_91:\n        /* \"#utility.yul\":7376:7397   */\n      tag_178\n        /* \"#utility.yul\":7391:7396   */\n      dup2\n        /* \"#utility.yul\":7376:7397   */\n      tag_112\n      jump\t// in\n    tag_178:\n        /* \"#utility.yul\":7369:7374   */\n      dup2\n        /* \"#utility.yul\":7366:7398   */\n      eq\n        /* \"#utility.yul\":7356:7358   */\n      tag_179\n      jumpi\n        /* \"#utility.yul\":7412:7413   */\n      0x00\n        /* \"#utility.yul\":7409:7410   */\n      dup1\n        /* \"#utility.yul\":7402:7414   */\n      revert\n        /* \"#utility.yul\":7356:7358   */\n    tag_179:\n        /* \"#utility.yul\":7346:7422   */\n      pop\n      jump\t// out\n        /* \"#utility.yul\":7428:7550   */\n    tag_99:\n        /* \"#utility.yul\":7501:7525   */\n      tag_181\n        /* \"#utility.yul\":7519:7524   */\n      dup2\n        /* \"#utility.yul\":7501:7525   */\n      tag_141\n      jump\t// in\n    tag_181:\n        /* \"#utility.yul\":7494:7499   */\n      dup2\n        /* \"#utility.yul\":7491:7526   */\n      eq\n        /* \"#utility.yul\":7481:7483   */\n      tag_182\n      jumpi\n        /* \"#utility.yul\":7540:7541   */\n      0x00\n        /* \"#utility.yul\":7537:7538   */\n      dup1\n        /* \"#utility.yul\":7530:7542   */\n      revert\n        /* \"#utility.yul\":7481:7483   */\n    tag_182:\n        /* \"#utility.yul\":7471:7550   */\n      pop\n      jump\t// out\n\n    auxdata: 0xa26469706673582212200a22f646f3c1ba83535ba5e2160c41045533e9172fa6adecf6e4cc6267ea9f4064736f6c63430008000033\n}\n",
				"bytecode": {
					"linkReferences": {},
					"object": "608060405234801561001057600080fd5b50610b10806100206000396000f3fe608060405234801561001057600080fd5b506004361061007d5760003560e01c80637acc0b201161005b5780637acc0b20146100d85780637c3bd8fb1461010a578063c05695e214610126578063f1d21a68146101305761007d565b8063035a048414610082578063088150ea146100a05780630bade33f146100bc575b600080fd5b61008a610150565b60405161009791906108c5565b60405180910390f35b6100ba60048036038101906100b59190610760565b610221565b005b6100d660048036038101906100d19190610760565b61028f565b005b6100f260048036038101906100ed9190610737565b610325565b604051610101939291906108e7565b60405180910390f35b610124600480360381019061011f9190610760565b6103f4565b005b61012e610468565b005b610138610532565b604051610147939291906108e7565b60405180910390f35b6101586105df565b60016040518060600160405290816000820154815260200160018201805461017f90610a0b565b80601f01602080910402602001604051908101604052809291908181526020018280546101ab90610a0b565b80156101f85780601f106101cd576101008083540402835291602001916101f8565b820191906000526020600020905b8154815290600101906020018083116101db57829003601f168201915b505050505081526020016002820160009054906101000a900460ff161515151581525050905090565b60405180606001604052808481526020018381526020018215158152506001600082015181600001556020820151816001019080519060200190610266929190610602565b5060408201518160020160006101000a81548160ff021916908315150217905550905050505050565b6000604051806060016040528085815260200184815260200183151581525090806001815401808255809150506001900390600052602060002090600302016000909190919091506000820151816000015560208201518160010190805190602001906102fd929190610602565b5060408201518160020160006101000a81548160ff0219169083151502179055505050505050565b6000818154811061033557600080fd5b906000526020600020906003020160009150905080600001549080600101805461035e90610a0b565b80601f016020809104026020016040519081016040528092919081815260200182805461038a90610a0b565b80156103d75780601f106103ac576101008083540402835291602001916103d7565b820191906000526020600020905b8154815290600101906020018083116103ba57829003601f168201915b5050505050908060020160009054906101000a900460ff16905083565b60006040518060600160405280858152602001848152602001831515815250905080600160008201518160000155602082015181600101908051906020019061043e929190610602565b5060408201518160020160006101000a81548160ff02191690831515021790555090505050505050565b60006040518060600160405280600181526020016040518060400160405280600381526020017f73616d0000000000000000000000000000000000000000000000000000000000815250815260200160011515815250908060018154018082558091505060019003906000526020600020906003020160009091909190915060008201518160000155602082015181600101908051906020019061050d929190610602565b5060408201518160020160006101000a81548160ff0219169083151502179055505050565b600180600001549080600101805461054990610a0b565b80601f016020809104026020016040519081016040528092919081815260200182805461057590610a0b565b80156105c25780601f10610597576101008083540402835291602001916105c2565b820191906000526020600020905b8154815290600101906020018083116105a557829003601f168201915b5050505050908060020160009054906101000a900460ff16905083565b604051806060016040528060008152602001606081526020016000151581525090565b82805461060e90610a0b565b90600052602060002090601f0160209004810192826106305760008555610677565b82601f1061064957805160ff1916838001178555610677565b82800160010185558215610677579182015b8281111561067657825182559160200191906001019061065b565b5b5090506106849190610688565b5090565b5b808211156106a1576000816000905550600101610689565b5090565b60006106b86106b384610956565b610925565b9050828152602081018484840111156106d057600080fd5b6106db8482856109c9565b509392505050565b6000813590506106f281610aac565b92915050565b600082601f83011261070957600080fd5b81356107198482602086016106a5565b91505092915050565b60008135905061073181610ac3565b92915050565b60006020828403121561074957600080fd5b600061075784828501610722565b91505092915050565b60008060006060848603121561077557600080fd5b600061078386828701610722565b935050602084013567ffffffffffffffff8111156107a057600080fd5b6107ac868287016106f8565b92505060406107bd868287016106e3565b9150509250925092565b6107d0816109b3565b82525050565b6107df816109b3565b82525050565b60006107f082610986565b6107fa8185610991565b935061080a8185602086016109d8565b61081381610a9b565b840191505092915050565b600061082982610986565b61083381856109a2565b93506108438185602086016109d8565b61084c81610a9b565b840191505092915050565b600060608301600083015161086f60008601826108a7565b506020830151848203602086015261088782826107e5565b915050604083015161089c60408601826107c7565b508091505092915050565b6108b0816109bf565b82525050565b6108bf816109bf565b82525050565b600060208201905081810360008301526108df8184610857565b905092915050565b60006060820190506108fc60008301866108b6565b818103602083015261090e818561081e565b905061091d60408301846107d6565b949350505050565b6000604051905081810181811067ffffffffffffffff8211171561094c5761094b610a6c565b5b8060405250919050565b600067ffffffffffffffff82111561097157610970610a6c565b5b601f19601f8301169050602081019050919050565b600081519050919050565b600082825260208201905092915050565b600082825260208201905092915050565b60008115159050919050565b6000819050919050565b82818337600083830152505050565b60005b838110156109f65780820151818401526020810190506109db565b83811115610a05576000848401525b50505050565b60006002820490506001821680610a2357607f821691505b60208210811415610a3757610a36610a3d565b5b50919050565b7f4e487b7100000000000000000000000000000000000000000000000000000000600052602260045260246000fd5b7f4e487b7100000000000000000000000000000000000000000000000000000000600052604160045260246000fd5b6000601f19601f8301169050919050565b610ab5816109b3565b8114610ac057600080fd5b50565b610acc816109bf565b8114610ad757600080fd5b5056fea26469706673582212200a22f646f3c1ba83535ba5e2160c41045533e9172fa6adecf6e4cc6267ea9f4064736f6c63430008000033",
					"opcodes": "PUSH1 0x80 PUSH1 0x40 MSTORE CALLVALUE DUP1 ISZERO PUSH2 0x10 JUMPI PUSH1 0x0 DUP1 REVERT JUMPDEST POP PUSH2 0xB10 DUP1 PUSH2 0x20 PUSH1 0x0 CODECOPY PUSH1 0x0 RETURN INVALID PUSH1 0x80 PUSH1 0x40 MSTORE CALLVALUE DUP1 ISZERO PUSH2 0x10 JUMPI PUSH1 0x0 DUP1 REVERT JUMPDEST POP PUSH1 0x4 CALLDATASIZE LT PUSH2 0x7D JUMPI PUSH1 0x0 CALLDATALOAD PUSH1 0xE0 SHR DUP1 PUSH4 0x7ACC0B20 GT PUSH2 0x5B JUMPI DUP1 PUSH4 0x7ACC0B20 EQ PUSH2 0xD8 JUMPI DUP1 PUSH4 0x7C3BD8FB EQ PUSH2 0x10A JUMPI DUP1 PUSH4 0xC05695E2 EQ PUSH2 0x126 JUMPI DUP1 PUSH4 0xF1D21A68 EQ PUSH2 0x130 JUMPI PUSH2 0x7D JUMP JUMPDEST DUP1 PUSH4 0x35A0484 EQ PUSH2 0x82 JUMPI DUP1 PUSH4 0x88150EA EQ PUSH2 0xA0 JUMPI DUP1 PUSH4 0xBADE33F EQ PUSH2 0xBC JUMPI JUMPDEST PUSH1 0x0 DUP1 REVERT JUMPDEST PUSH2 0x8A PUSH2 0x150 JUMP JUMPDEST PUSH1 0x40 MLOAD PUSH2 0x97 SWAP2 SWAP1 PUSH2 0x8C5 JUMP JUMPDEST PUSH1 0x40 MLOAD DUP1 SWAP2 SUB SWAP1 RETURN JUMPDEST PUSH2 0xBA PUSH1 0x4 DUP1 CALLDATASIZE SUB DUP2 ADD SWAP1 PUSH2 0xB5 SWAP2 SWAP1 PUSH2 0x760 JUMP JUMPDEST PUSH2 0x221 JUMP JUMPDEST STOP JUMPDEST PUSH2 0xD6 PUSH1 0x4 DUP1 CALLDATASIZE SUB DUP2 ADD SWAP1 PUSH2 0xD1 SWAP2 SWAP1 PUSH2 0x760 JUMP JUMPDEST PUSH2 0x28F JUMP JUMPDEST STOP JUMPDEST PUSH2 0xF2 PUSH1 0x4 DUP1 CALLDATASIZE SUB DUP2 ADD SWAP1 PUSH2 0xED SWAP2 SWAP1 PUSH2 0x737 JUMP JUMPDEST PUSH2 0x325 JUMP JUMPDEST PUSH1 0x40 MLOAD PUSH2 0x101 SWAP4 SWAP3 SWAP2 SWAP1 PUSH2 0x8E7 JUMP JUMPDEST PUSH1 0x40 MLOAD DUP1 SWAP2 SUB SWAP1 RETURN JUMPDEST PUSH2 0x124 PUSH1 0x4 DUP1 CALLDATASIZE SUB DUP2 ADD SWAP1 PUSH2 0x11F SWAP2 SWAP1 PUSH2 0x760 JUMP JUMPDEST PUSH2 0x3F4 JUMP JUMPDEST STOP JUMPDEST PUSH2 0x12E PUSH2 0x468 JUMP JUMPDEST STOP JUMPDEST PUSH2 0x138 PUSH2 0x532 JUMP JUMPDEST PUSH1 0x40 MLOAD PUSH2 0x147 SWAP4 SWAP3 SWAP2 SWAP1 PUSH2 0x8E7 JUMP JUMPDEST PUSH1 0x40 MLOAD DUP1 SWAP2 SUB SWAP1 RETURN JUMPDEST PUSH2 0x158 PUSH2 0x5DF JUMP JUMPDEST PUSH1 0x1 PUSH1 0x40 MLOAD DUP1 PUSH1 0x60 ADD PUSH1 0x40 MSTORE SWAP1 DUP2 PUSH1 0x0 DUP3 ADD SLOAD DUP2 MSTORE PUSH1 0x20 ADD PUSH1 0x1 DUP3 ADD DUP1 SLOAD PUSH2 0x17F SWAP1 PUSH2 0xA0B JUMP JUMPDEST DUP1 PUSH1 0x1F ADD PUSH1 0x20 DUP1 SWAP2 DIV MUL PUSH1 0x20 ADD PUSH1 0x40 MLOAD SWAP1 DUP2 ADD PUSH1 0x40 MSTORE DUP1 SWAP3 SWAP2 SWAP1 DUP2 DUP2 MSTORE PUSH1 0x20 ADD DUP3 DUP1 SLOAD PUSH2 0x1AB SWAP1 PUSH2 0xA0B JUMP JUMPDEST DUP1 ISZERO PUSH2 0x1F8 JUMPI DUP1 PUSH1 0x1F LT PUSH2 0x1CD JUMPI PUSH2 0x100 DUP1 DUP4 SLOAD DIV MUL DUP4 MSTORE SWAP2 PUSH1 0x20 ADD SWAP2 PUSH2 0x1F8 JUMP JUMPDEST DUP3 ADD SWAP2 SWAP1 PUSH1 0x0 MSTORE PUSH1 0x20 PUSH1 0x0 KECCAK256 SWAP1 JUMPDEST DUP2 SLOAD DUP2 MSTORE SWAP1 PUSH1 0x1 ADD SWAP1 PUSH1 0x20 ADD DUP1 DUP4 GT PUSH2 0x1DB JUMPI DUP3 SWAP1 SUB PUSH1 0x1F AND DUP3 ADD SWAP2 JUMPDEST POP POP POP POP POP DUP2 MSTORE PUSH1 0x20 ADD PUSH1 0x2 DUP3 ADD PUSH1 0x0 SWAP1 SLOAD SWAP1 PUSH2 0x100 EXP SWAP1 DIV PUSH1 0xFF AND ISZERO ISZERO ISZERO ISZERO DUP2 MSTORE POP POP SWAP1 POP SWAP1 JUMP JUMPDEST PUSH1 0x40 MLOAD DUP1 PUSH1 0x60 ADD PUSH1 0x40 MSTORE DUP1 DUP5 DUP2 MSTORE PUSH1 0x20 ADD DUP4 DUP2 MSTORE PUSH1 0x20 ADD DUP3 ISZERO ISZERO DUP2 MSTORE POP PUSH1 0x1 PUSH1 0x0 DUP3 ADD MLOAD DUP2 PUSH1 0x0 ADD SSTORE PUSH1 0x20 DUP3 ADD MLOAD DUP2 PUSH1 0x1 ADD SWAP1 DUP1 MLOAD SWAP1 PUSH1 0x20 ADD SWAP1 PUSH2 0x266 SWAP3 SWAP2 SWAP1 PUSH2 0x602 JUMP JUMPDEST POP PUSH1 0x40 DUP3 ADD MLOAD DUP2 PUSH1 0x2 ADD PUSH1 0x0 PUSH2 0x100 EXP DUP2 SLOAD DUP2 PUSH1 0xFF MUL NOT AND SWAP1 DUP4 ISZERO ISZERO MUL OR SWAP1 SSTORE POP SWAP1 POP POP POP POP POP JUMP JUMPDEST PUSH1 0x0 PUSH1 0x40 MLOAD DUP1 PUSH1 0x60 ADD PUSH1 0x40 MSTORE DUP1 DUP6 DUP2 MSTORE PUSH1 0x20 ADD DUP5 DUP2 MSTORE PUSH1 0x20 ADD DUP4 ISZERO ISZERO DUP2 MSTORE POP SWAP1 DUP1 PUSH1 0x1 DUP2 SLOAD ADD DUP1 DUP3 SSTORE DUP1 SWAP2 POP POP PUSH1 0x1 SWAP1 SUB SWAP1 PUSH1 0x0 MSTORE PUSH1 0x20 PUSH1 0x0 KECCAK256 SWAP1 PUSH1 0x3 MUL ADD PUSH1 0x0 SWAP1 SWAP2 SWAP1 SWAP2 SWAP1 SWAP2 POP PUSH1 0x0 DUP3 ADD MLOAD DUP2 PUSH1 0x0 ADD SSTORE PUSH1 0x20 DUP3 ADD MLOAD DUP2 PUSH1 0x1 ADD SWAP1 DUP1 MLOAD SWAP1 PUSH1 0x20 ADD SWAP1 PUSH2 0x2FD SWAP3 SWAP2 SWAP1 PUSH2 0x602 JUMP JUMPDEST POP PUSH1 0x40 DUP3 ADD MLOAD DUP2 PUSH1 0x2 ADD PUSH1 0x0 PUSH2 0x100 EXP DUP2 SLOAD DUP2 PUSH1 0xFF MUL NOT AND SWAP1 DUP4 ISZERO ISZERO MUL OR SWAP1 SSTORE POP POP POP POP POP POP JUMP JUMPDEST PUSH1 0x0 DUP2 DUP2 SLOAD DUP2 LT PUSH2 0x335 JUMPI PUSH1 0x0 DUP1 REVERT JUMPDEST SWAP1 PUSH1 0x0 MSTORE PUSH1 0x20 PUSH1 0x0 KECCAK256 SWAP1 PUSH1 0x3 MUL ADD PUSH1 0x0 SWAP2 POP SWAP1 POP DUP1 PUSH1 0x0 ADD SLOAD SWAP1 DUP1 PUSH1 0x1 ADD DUP1 SLOAD PUSH2 0x35E SWAP1 PUSH2 0xA0B JUMP JUMPDEST DUP1 PUSH1 0x1F ADD PUSH1 0x20 DUP1 SWAP2 DIV MUL PUSH1 0x20 ADD PUSH1 0x40 MLOAD SWAP1 DUP2 ADD PUSH1 0x40 MSTORE DUP1 SWAP3 SWAP2 SWAP1 DUP2 DUP2 MSTORE PUSH1 0x20 ADD DUP3 DUP1 SLOAD PUSH2 0x38A SWAP1 PUSH2 0xA0B JUMP JUMPDEST DUP1 ISZERO PUSH2 0x3D7 JUMPI DUP1 PUSH1 0x1F LT PUSH2 0x3AC JUMPI PUSH2 0x100 DUP1 DUP4 SLOAD DIV MUL DUP4 MSTORE SWAP2 PUSH1 0x20 ADD SWAP2 PUSH2 0x3D7 JUMP JUMPDEST DUP3 ADD SWAP2 SWAP1 PUSH1 0x0 MSTORE PUSH1 0x20 PUSH1 0x0 KECCAK256 SWAP1 JUMPDEST DUP2 SLOAD DUP2 MSTORE SWAP1 PUSH1 0x1 ADD SWAP1 PUSH1 0x20 ADD DUP1 DUP4 GT PUSH2 0x3BA JUMPI DUP3 SWAP1 SUB PUSH1 0x1F AND DUP3 ADD SWAP2 JUMPDEST POP POP POP POP POP SWAP1 DUP1 PUSH1 0x2 ADD PUSH1 0x0 SWAP1 SLOAD SWAP1 PUSH2 0x100 EXP SWAP1 DIV PUSH1 0xFF AND SWAP1 POP DUP4 JUMP JUMPDEST PUSH1 0x0 PUSH1 0x40 MLOAD DUP1 PUSH1 0x60 ADD PUSH1 0x40 MSTORE DUP1 DUP6 DUP2 MSTORE PUSH1 0x20 ADD DUP5 DUP2 MSTORE PUSH1 0x20 ADD DUP4 ISZERO ISZERO DUP2 MSTORE POP SWAP1 POP DUP1 PUSH1 0x1 PUSH1 0x0 DUP3 ADD MLOAD DUP2 PUSH1 0x0 ADD SSTORE PUSH1 0x20 DUP3 ADD MLOAD DUP2 PUSH1 0x1 ADD SWAP1 DUP1 MLOAD SWAP1 PUSH1 0x20 ADD SWAP1 PUSH2 0x43E SWAP3 SWAP2 SWAP1 PUSH2 0x602 JUMP JUMPDEST POP PUSH1 0x40 DUP3 ADD MLOAD DUP2 PUSH1 0x2 ADD PUSH1 0x0 PUSH2 0x100 EXP DUP2 SLOAD DUP2 PUSH1 0xFF MUL NOT AND SWAP1 DUP4 ISZERO ISZERO MUL OR SWAP1 SSTORE POP SWAP1 POP POP POP POP POP POP JUMP JUMPDEST PUSH1 0x0 PUSH1 0x40 MLOAD DUP1 PUSH1 0x60 ADD PUSH1 0x40 MSTORE DUP1 PUSH1 0x1 DUP2 MSTORE PUSH1 0x20 ADD PUSH1 0x40 MLOAD DUP1 PUSH1 0x40 ADD PUSH1 0x40 MSTORE DUP1 PUSH1 0x3 DUP2 MSTORE PUSH1 0x20 ADD PUSH32 0x73616D0000000000000000000000000000000000000000000000000000000000 DUP2 MSTORE POP DUP2 MSTORE PUSH1 0x20 ADD PUSH1 0x1 ISZERO ISZERO DUP2 MSTORE POP SWAP1 DUP1 PUSH1 0x1 DUP2 SLOAD ADD DUP1 DUP3 SSTORE DUP1 SWAP2 POP POP PUSH1 0x1 SWAP1 SUB SWAP1 PUSH1 0x0 MSTORE PUSH1 0x20 PUSH1 0x0 KECCAK256 SWAP1 PUSH1 0x3 MUL ADD PUSH1 0x0 SWAP1 SWAP2 SWAP1 SWAP2 SWAP1 SWAP2 POP PUSH1 0x0 DUP3 ADD MLOAD DUP2 PUSH1 0x0 ADD SSTORE PUSH1 0x20 DUP3 ADD MLOAD DUP2 PUSH1 0x1 ADD SWAP1 DUP1 MLOAD SWAP1 PUSH1 0x20 ADD SWAP1 PUSH2 0x50D SWAP3 SWAP2 SWAP1 PUSH2 0x602 JUMP JUMPDEST POP PUSH1 0x40 DUP3 ADD MLOAD DUP2 PUSH1 0x2 ADD PUSH1 0x0 PUSH2 0x100 EXP DUP2 SLOAD DUP2 PUSH1 0xFF MUL NOT AND SWAP1 DUP4 ISZERO ISZERO MUL OR SWAP1 SSTORE POP POP POP JUMP JUMPDEST PUSH1 0x1 DUP1 PUSH1 0x0 ADD SLOAD SWAP1 DUP1 PUSH1 0x1 ADD DUP1 SLOAD PUSH2 0x549 SWAP1 PUSH2 0xA0B JUMP JUMPDEST DUP1 PUSH1 0x1F ADD PUSH1 0x20 DUP1 SWAP2 DIV MUL PUSH1 0x20 ADD PUSH1 0x40 MLOAD SWAP1 DUP2 ADD PUSH1 0x40 MSTORE DUP1 SWAP3 SWAP2 SWAP1 DUP2 DUP2 MSTORE PUSH1 0x20 ADD DUP3 DUP1 SLOAD PUSH2 0x575 SWAP1 PUSH2 0xA0B JUMP JUMPDEST DUP1 ISZERO PUSH2 0x5C2 JUMPI DUP1 PUSH1 0x1F LT PUSH2 0x597 JUMPI PUSH2 0x100 DUP1 DUP4 SLOAD DIV MUL DUP4 MSTORE SWAP2 PUSH1 0x20 ADD SWAP2 PUSH2 0x5C2 JUMP JUMPDEST DUP3 ADD SWAP2 SWAP1 PUSH1 0x0 MSTORE PUSH1 0x20 PUSH1 0x0 KECCAK256 SWAP1 JUMPDEST DUP2 SLOAD DUP2 MSTORE SWAP1 PUSH1 0x1 ADD SWAP1 PUSH1 0x20 ADD DUP1 DUP4 GT PUSH2 0x5A5 JUMPI DUP3 SWAP1 SUB PUSH1 0x1F AND DUP3 ADD SWAP2 JUMPDEST POP POP POP POP POP SWAP1 DUP1 PUSH1 0x2 ADD PUSH1 0x0 SWAP1 SLOAD SWAP1 PUSH2 0x100 EXP SWAP1 DIV PUSH1 0xFF AND SWAP1 POP DUP4 JUMP JUMPDEST PUSH1 0x40 MLOAD DUP1 PUSH1 0x60 ADD PUSH1 0x40 MSTORE DUP1 PUSH1 0x0 DUP2 MSTORE PUSH1 0x20 ADD PUSH1 0x60 DUP2 MSTORE PUSH1 0x20 ADD PUSH1 0x0 ISZERO ISZERO DUP2 MSTORE POP SWAP1 JUMP JUMPDEST DUP3 DUP1 SLOAD PUSH2 0x60E SWAP1 PUSH2 0xA0B JUMP JUMPDEST SWAP1 PUSH1 0x0 MSTORE PUSH1 0x20 PUSH1 0x0 KECCAK256 SWAP1 PUSH1 0x1F ADD PUSH1 0x20 SWAP1 DIV DUP2 ADD SWAP3 DUP3 PUSH2 0x630 JUMPI PUSH1 0x0 DUP6 SSTORE PUSH2 0x677 JUMP JUMPDEST DUP3 PUSH1 0x1F LT PUSH2 0x649 JUMPI DUP1 MLOAD PUSH1 0xFF NOT AND DUP4 DUP1 ADD OR DUP6 SSTORE PUSH2 0x677 JUMP JUMPDEST DUP3 DUP1 ADD PUSH1 0x1 ADD DUP6 SSTORE DUP3 ISZERO PUSH2 0x677 JUMPI SWAP2 DUP3 ADD JUMPDEST DUP3 DUP2 GT ISZERO PUSH2 0x676 JUMPI DUP3 MLOAD DUP3 SSTORE SWAP2 PUSH1 0x20 ADD SWAP2 SWAP1 PUSH1 0x1 ADD SWAP1 PUSH2 0x65B JUMP JUMPDEST JUMPDEST POP SWAP1 POP PUSH2 0x684 SWAP2 SWAP1 PUSH2 0x688 JUMP JUMPDEST POP SWAP1 JUMP JUMPDEST JUMPDEST DUP1 DUP3 GT ISZERO PUSH2 0x6A1 JUMPI PUSH1 0x0 DUP2 PUSH1 0x0 SWAP1 SSTORE POP PUSH1 0x1 ADD PUSH2 0x689 JUMP JUMPDEST POP SWAP1 JUMP JUMPDEST PUSH1 0x0 PUSH2 0x6B8 PUSH2 0x6B3 DUP5 PUSH2 0x956 JUMP JUMPDEST PUSH2 0x925 JUMP JUMPDEST SWAP1 POP DUP3 DUP2 MSTORE PUSH1 0x20 DUP2 ADD DUP5 DUP5 DUP5 ADD GT ISZERO PUSH2 0x6D0 JUMPI PUSH1 0x0 DUP1 REVERT JUMPDEST PUSH2 0x6DB DUP5 DUP3 DUP6 PUSH2 0x9C9 JUMP JUMPDEST POP SWAP4 SWAP3 POP POP POP JUMP JUMPDEST PUSH1 0x0 DUP2 CALLDATALOAD SWAP1 POP PUSH2 0x6F2 DUP2 PUSH2 0xAAC JUMP JUMPDEST SWAP3 SWAP2 POP POP JUMP JUMPDEST PUSH1 0x0 DUP3 PUSH1 0x1F DUP4 ADD SLT PUSH2 0x709 JUMPI PUSH1 0x0 DUP1 REVERT JUMPDEST DUP2 CALLDATALOAD PUSH2 0x719 DUP5 DUP3 PUSH1 0x20 DUP7 ADD PUSH2 0x6A5 JUMP JUMPDEST SWAP2 POP POP SWAP3 SWAP2 POP POP JUMP JUMPDEST PUSH1 0x0 DUP2 CALLDATALOAD SWAP1 POP PUSH2 0x731 DUP2 PUSH2 0xAC3 JUMP JUMPDEST SWAP3 SWAP2 POP POP JUMP JUMPDEST PUSH1 0x0 PUSH1 0x20 DUP3 DUP5 SUB SLT ISZERO PUSH2 0x749 JUMPI PUSH1 0x0 DUP1 REVERT JUMPDEST PUSH1 0x0 PUSH2 0x757 DUP5 DUP3 DUP6 ADD PUSH2 0x722 JUMP JUMPDEST SWAP2 POP POP SWAP3 SWAP2 POP POP JUMP JUMPDEST PUSH1 0x0 DUP1 PUSH1 0x0 PUSH1 0x60 DUP5 DUP7 SUB SLT ISZERO PUSH2 0x775 JUMPI PUSH1 0x0 DUP1 REVERT JUMPDEST PUSH1 0x0 PUSH2 0x783 DUP7 DUP3 DUP8 ADD PUSH2 0x722 JUMP JUMPDEST SWAP4 POP POP PUSH1 0x20 DUP5 ADD CALLDATALOAD PUSH8 0xFFFFFFFFFFFFFFFF DUP2 GT ISZERO PUSH2 0x7A0 JUMPI PUSH1 0x0 DUP1 REVERT JUMPDEST PUSH2 0x7AC DUP7 DUP3 DUP8 ADD PUSH2 0x6F8 JUMP JUMPDEST SWAP3 POP POP PUSH1 0x40 PUSH2 0x7BD DUP7 DUP3 DUP8 ADD PUSH2 0x6E3 JUMP JUMPDEST SWAP2 POP POP SWAP3 POP SWAP3 POP SWAP3 JUMP JUMPDEST PUSH2 0x7D0 DUP2 PUSH2 0x9B3 JUMP JUMPDEST DUP3 MSTORE POP POP JUMP JUMPDEST PUSH2 0x7DF DUP2 PUSH2 0x9B3 JUMP JUMPDEST DUP3 MSTORE POP POP JUMP JUMPDEST PUSH1 0x0 PUSH2 0x7F0 DUP3 PUSH2 0x986 JUMP JUMPDEST PUSH2 0x7FA DUP2 DUP6 PUSH2 0x991 JUMP JUMPDEST SWAP4 POP PUSH2 0x80A DUP2 DUP6 PUSH1 0x20 DUP7 ADD PUSH2 0x9D8 JUMP JUMPDEST PUSH2 0x813 DUP2 PUSH2 0xA9B JUMP JUMPDEST DUP5 ADD SWAP2 POP POP SWAP3 SWAP2 POP POP JUMP JUMPDEST PUSH1 0x0 PUSH2 0x829 DUP3 PUSH2 0x986 JUMP JUMPDEST PUSH2 0x833 DUP2 DUP6 PUSH2 0x9A2 JUMP JUMPDEST SWAP4 POP PUSH2 0x843 DUP2 DUP6 PUSH1 0x20 DUP7 ADD PUSH2 0x9D8 JUMP JUMPDEST PUSH2 0x84C DUP2 PUSH2 0xA9B JUMP JUMPDEST DUP5 ADD SWAP2 POP POP SWAP3 SWAP2 POP POP JUMP JUMPDEST PUSH1 0x0 PUSH1 0x60 DUP4 ADD PUSH1 0x0 DUP4 ADD MLOAD PUSH2 0x86F PUSH1 0x0 DUP7 ADD DUP3 PUSH2 0x8A7 JUMP JUMPDEST POP PUSH1 0x20 DUP4 ADD MLOAD DUP5 DUP3 SUB PUSH1 0x20 DUP7 ADD MSTORE PUSH2 0x887 DUP3 DUP3 PUSH2 0x7E5 JUMP JUMPDEST SWAP2 POP POP PUSH1 0x40 DUP4 ADD MLOAD PUSH2 0x89C PUSH1 0x40 DUP7 ADD DUP3 PUSH2 0x7C7 JUMP JUMPDEST POP DUP1 SWAP2 POP POP SWAP3 SWAP2 POP POP JUMP JUMPDEST PUSH2 0x8B0 DUP2 PUSH2 0x9BF JUMP JUMPDEST DUP3 MSTORE POP POP JUMP JUMPDEST PUSH2 0x8BF DUP2 PUSH2 0x9BF JUMP JUMPDEST DUP3 MSTORE POP POP JUMP JUMPDEST PUSH1 0x0 PUSH1 0x20 DUP3 ADD SWAP1 POP DUP2 DUP2 SUB PUSH1 0x0 DUP4 ADD MSTORE PUSH2 0x8DF DUP2 DUP5 PUSH2 0x857 JUMP JUMPDEST SWAP1 POP SWAP3 SWAP2 POP POP JUMP JUMPDEST PUSH1 0x0 PUSH1 0x60 DUP3 ADD SWAP1 POP PUSH2 0x8FC PUSH1 0x0 DUP4 ADD DUP7 PUSH2 0x8B6 JUMP JUMPDEST DUP2 DUP2 SUB PUSH1 0x20 DUP4 ADD MSTORE PUSH2 0x90E DUP2 DUP6 PUSH2 0x81E JUMP JUMPDEST SWAP1 POP PUSH2 0x91D PUSH1 0x40 DUP4 ADD DUP5 PUSH2 0x7D6 JUMP JUMPDEST SWAP5 SWAP4 POP POP POP POP JUMP JUMPDEST PUSH1 0x0 PUSH1 0x40 MLOAD SWAP1 POP DUP2 DUP2 ADD DUP2 DUP2 LT PUSH8 0xFFFFFFFFFFFFFFFF DUP3 GT OR ISZERO PUSH2 0x94C JUMPI PUSH2 0x94B PUSH2 0xA6C JUMP JUMPDEST JUMPDEST DUP1 PUSH1 0x40 MSTORE POP SWAP2 SWAP1 POP JUMP JUMPDEST PUSH1 0x0 PUSH8 0xFFFFFFFFFFFFFFFF DUP3 GT ISZERO PUSH2 0x971 JUMPI PUSH2 0x970 PUSH2 0xA6C JUMP JUMPDEST JUMPDEST PUSH1 0x1F NOT PUSH1 0x1F DUP4 ADD AND SWAP1 POP PUSH1 0x20 DUP2 ADD SWAP1 POP SWAP2 SWAP1 POP JUMP JUMPDEST PUSH1 0x0 DUP2 MLOAD SWAP1 POP SWAP2 SWAP1 POP JUMP JUMPDEST PUSH1 0x0 DUP3 DUP3 MSTORE PUSH1 0x20 DUP3 ADD SWAP1 POP SWAP3 SWAP2 POP POP JUMP JUMPDEST PUSH1 0x0 DUP3 DUP3 MSTORE PUSH1 0x20 DUP3 ADD SWAP1 POP SWAP3 SWAP2 POP POP JUMP JUMPDEST PUSH1 0x0 DUP2 ISZERO ISZERO SWAP1 POP SWAP2 SWAP1 POP JUMP JUMPDEST PUSH1 0x0 DUP2 SWAP1 POP SWAP2 SWAP1 POP JUMP JUMPDEST DUP3 DUP2 DUP4 CALLDATACOPY PUSH1 0x0 DUP4 DUP4 ADD MSTORE POP POP POP JUMP JUMPDEST PUSH1 0x0 JUMPDEST DUP4 DUP2 LT ISZERO PUSH2 0x9F6 JUMPI DUP1 DUP3 ADD MLOAD DUP2 DUP5 ADD MSTORE PUSH1 0x20 DUP2 ADD SWAP1 POP PUSH2 0x9DB JUMP JUMPDEST DUP4 DUP2 GT ISZERO PUSH2 0xA05 JUMPI PUSH1 0x0 DUP5 DUP5 ADD MSTORE JUMPDEST POP POP POP POP JUMP JUMPDEST PUSH1 0x0 PUSH1 0x2 DUP3 DIV SWAP1 POP PUSH1 0x1 DUP3 AND DUP1 PUSH2 0xA23 JUMPI PUSH1 0x7F DUP3 AND SWAP2 POP JUMPDEST PUSH1 0x20 DUP3 LT DUP2 EQ ISZERO PUSH2 0xA37 JUMPI PUSH2 0xA36 PUSH2 0xA3D JUMP JUMPDEST JUMPDEST POP SWAP2 SWAP1 POP JUMP JUMPDEST PUSH32 0x4E487B7100000000000000000000000000000000000000000000000000000000 PUSH1 0x0 MSTORE PUSH1 0x22 PUSH1 0x4 MSTORE PUSH1 0x24 PUSH1 0x0 REVERT JUMPDEST PUSH32 0x4E487B7100000000000000000000000000000000000000000000000000000000 PUSH1 0x0 MSTORE PUSH1 0x41 PUSH1 0x4 MSTORE PUSH1 0x24 PUSH1 0x0 REVERT JUMPDEST PUSH1 0x0 PUSH1 0x1F NOT PUSH1 0x1F DUP4 ADD AND SWAP1 POP SWAP2 SWAP1 POP JUMP JUMPDEST PUSH2 0xAB5 DUP2 PUSH2 0x9B3 JUMP JUMPDEST DUP2 EQ PUSH2 0xAC0 JUMPI PUSH1 0x0 DUP1 REVERT JUMPDEST POP JUMP JUMPDEST PUSH2 0xACC DUP2 PUSH2 0x9BF JUMP JUMPDEST DUP2 EQ PUSH2 0xAD7 JUMPI PUSH1 0x0 DUP1 REVERT JUMPDEST POP JUMP INVALID LOG2 PUSH5 0x6970667358 0x22 SLT KECCAK256 EXP 0x22 0xF6 CHAINID RETURN 0xC1 0xBA DUP4 MSTORE8 JUMPDEST 0xA5 0xE2 AND 0xC COINBASE DIV SSTORE CALLER 0xE9 OR 0x2F 0xA6 0xAD 0xEC 0xF6 0xE4 0xCC PUSH3 0x67EA9F BLOCKHASH PUSH5 0x736F6C6343 STOP ADDMOD STOP STOP CALLER "
				},
				"gasEstimates": {
					"creation": {
						"codeDepositCost": "566400",
						"executionCost": "600",
						"totalCost": "567000"
					},
					"external": {
						"add_products(uint256,string,bool)": "infinite",
						"addproduct(uint256,string,bool)": "infinite",
						"alwaysAvailable()": "infinite",
						"changeProduct(uint256,string,bool)": "infinite",
						"getproduct()": "infinite",
						"products(uint256)": "infinite",
						"products1()": "infinite"
					}
				},
				"methodIdentifiers": {
					"add_products(uint256,string,bool)": "0bade33f",
					"addproduct(uint256,string,bool)": "088150ea",
					"alwaysAvailable()": "c05695e2",
					"changeProduct(uint256,string,bool)": "7c3bd8fb",
					"getproduct()": "035a0484",
					"products(uint256)": "7acc0b20",
					"products1()": "f1d21a68"
				}
			},
			"storageLayout": {
				"storage": [
					{
						"astId": 12,
						"contract": "learning/struct2nd.sol:struct_2nd",
						"label": "products",
						"offset": 0,
						"slot": "0",
						"type": "t_array(t_struct(product)8_storage)dyn_storage"
					},
					{
						"astId": 15,
						"contract": "learning/struct2nd.sol:struct_2nd",
						"label": "products1",
						"offset": 0,
						"slot": "1",
						"type": "t_struct(product)8_storage"
					}
				],
				"types": {
					"t_array(t_struct(product)8_storage)dyn_storage": {
						"base": "t_struct(product)8_storage",
						"encoding": "dynamic_array",
						"label": "struct struct_2nd.product[]",
						"numberOfBytes": "32"
					},
					"t_bool": {
						"encoding": "inplace",
						"label": "bool",
						"numberOfBytes": "1"
					},
					"t_string_storage": {
						"encoding": "bytes",
						"label": "string",
						"numberOfBytes": "32"
					},
					"t_struct(product)8_storage": {
						"encoding": "inplace",
						"label": "struct struct_2nd.product",
						"members": [
							{
								"astId": 3,
								"contract": "learning/struct2nd.sol:struct_2nd",
								"label": "id",
								"offset": 0,
								"slot": "0",
								"type": "t_uint256"
							},
							{
								"astId": 5,
								"contract": "learning/struct2nd.sol:struct_2nd",
								"label": "name",
								"offset": 0,
								"slot": "1",
								"type": "t_string_storage"
							},
							{
								"astId": 7,
								"contract": "learning/struct2nd.sol:struct_2nd",
								"label": "expired",
								"offset": 0,
								"slot": "2",
								"type": "t_bool"
							}
						],
						"numberOfBytes": "96"
					},
					"t_uint256": {
						"encoding": "inplace",
						"label": "uint256",
						"numberOfBytes": "32"
					}
				}
			},
			"userdoc": {
				"kind": "user",
				"methods": {},
				"version": 1
			}
		}
	}
}