{
	"learning/20may/thousandToword.sol": {
		"HundredToWord": {
			"abi": [
				{
					"inputs": [
						{
							"internalType": "uint256",
							"name": "num",
							"type": "uint256"
						}
					],
					"name": "NumToWord_rupees",
					"outputs": [
						{
							"internalType": "string",
							"name": "",
							"type": "string"
						}
					],
					"stateMutability": "view",
					"type": "function"
				}
			],
			"devdoc": {
				"kind": "dev",
				"methods": {},
				"version": 1
			},
			"evm": {
				"assembly": "    /* \"learning/20may/thousandToword.sol\":60:1101  contract HundredToWord{\r... */\n  mstore(0x40, 0x80)\n    /* \"learning/20may/thousandToword.sol\":89:279  string[20] units = [\"Zero\",\"One\",\"Two\",\"Three\",\"Four\",\"Five\",\"Six\",\"Seven\",\"Eight\",\"Nine\",\"Ten\",\"Eleven\",\"Twelve\",\"Thirteen\",\"Fourteen\",\"Fifteen\",\"Sixteen\",\"Seventeen\",\"Eighteen\",\"Nineteen\"] */\n  mload(0x40)\n  dup1\n  0x0280\n  add\n  0x40\n  mstore\n  dup1\n  mload(0x40)\n  dup1\n  0x40\n  add\n  0x40\n  mstore\n  dup1\n  0x04\n  dup2\n  mstore\n  0x20\n  add\n  0x5a65726f00000000000000000000000000000000000000000000000000000000\n  dup2\n  mstore\n  pop\n  dup2\n  mstore\n  0x20\n  add\n  mload(0x40)\n  dup1\n  0x40\n  add\n  0x40\n  mstore\n  dup1\n  0x03\n  dup2\n  mstore\n  0x20\n  add\n  0x4f6e650000000000000000000000000000000000000000000000000000000000\n  dup2\n  mstore\n  pop\n  dup2\n  mstore\n  0x20\n  add\n  mload(0x40)\n  dup1\n  0x40\n  add\n  0x40\n  mstore\n  dup1\n  0x03\n  dup2\n  mstore\n  0x20\n  add\n  0x54776f0000000000000000000000000000000000000000000000000000000000\n  dup2\n  mstore\n  pop\n  dup2\n  mstore\n  0x20\n  add\n  mload(0x40)\n  dup1\n  0x40\n  add\n  0x40\n  mstore\n  dup1\n  0x05\n  dup2\n  mstore\n  0x20\n  add\n  0x5468726565000000000000000000000000000000000000000000000000000000\n  dup2\n  mstore\n  pop\n  dup2\n  mstore\n  0x20\n  add\n  mload(0x40)\n  dup1\n  0x40\n  add\n  0x40\n  mstore\n  dup1\n  0x04\n  dup2\n  mstore\n  0x20\n  add\n  0x466f757200000000000000000000000000000000000000000000000000000000\n  dup2\n  mstore\n  pop\n  dup2\n  mstore\n  0x20\n  add\n  mload(0x40)\n  dup1\n  0x40\n  add\n  0x40\n  mstore\n  dup1\n  0x04\n  dup2\n  mstore\n  0x20\n  add\n  0x4669766500000000000000000000000000000000000000000000000000000000\n  dup2\n  mstore\n  pop\n  dup2\n  mstore\n  0x20\n  add\n  mload(0x40)\n  dup1\n  0x40\n  add\n  0x40\n  mstore\n  dup1\n  0x03\n  dup2\n  mstore\n  0x20\n  add\n  0x5369780000000000000000000000000000000000000000000000000000000000\n  dup2\n  mstore\n  pop\n  dup2\n  mstore\n  0x20\n  add\n  mload(0x40)\n  dup1\n  0x40\n  add\n  0x40\n  mstore\n  dup1\n  0x05\n  dup2\n  mstore\n  0x20\n  add\n  0x536576656e000000000000000000000000000000000000000000000000000000\n  dup2\n  mstore\n  pop\n  dup2\n  mstore\n  0x20\n  add\n  mload(0x40)\n  dup1\n  0x40\n  add\n  0x40\n  mstore\n  dup1\n  0x05\n  dup2\n  mstore\n  0x20\n  add\n  0x4569676874000000000000000000000000000000000000000000000000000000\n  dup2\n  mstore\n  pop\n  dup2\n  mstore\n  0x20\n  add\n  mload(0x40)\n  dup1\n  0x40\n  add\n  0x40\n  mstore\n  dup1\n  0x04\n  dup2\n  mstore\n  0x20\n  add\n  0x4e696e6500000000000000000000000000000000000000000000000000000000\n  dup2\n  mstore\n  pop\n  dup2\n  mstore\n  0x20\n  add\n  mload(0x40)\n  dup1\n  0x40\n  add\n  0x40\n  mstore\n  dup1\n  0x03\n  dup2\n  mstore\n  0x20\n  add\n  0x54656e0000000000000000000000000000000000000000000000000000000000\n  dup2\n  mstore\n  pop\n  dup2\n  mstore\n  0x20\n  add\n  mload(0x40)\n  dup1\n  0x40\n  add\n  0x40\n  mstore\n  dup1\n  0x06\n  dup2\n  mstore\n  0x20\n  add\n  0x456c6576656e0000000000000000000000000000000000000000000000000000\n  dup2\n  mstore\n  pop\n  dup2\n  mstore\n  0x20\n  add\n  mload(0x40)\n  dup1\n  0x40\n  add\n  0x40\n  mstore\n  dup1\n  0x06\n  dup2\n  mstore\n  0x20\n  add\n  0x5477656c76650000000000000000000000000000000000000000000000000000\n  dup2\n  mstore\n  pop\n  dup2\n  mstore\n  0x20\n  add\n  mload(0x40)\n  dup1\n  0x40\n  add\n  0x40\n  mstore\n  dup1\n  0x08\n  dup2\n  mstore\n  0x20\n  add\n  0x546869727465656e000000000000000000000000000000000000000000000000\n  dup2\n  mstore\n  pop\n  dup2\n  mstore\n  0x20\n  add\n  mload(0x40)\n  dup1\n  0x40\n  add\n  0x40\n  mstore\n  dup1\n  0x08\n  dup2\n  mstore\n  0x20\n  add\n  0x466f75727465656e000000000000000000000000000000000000000000000000\n  dup2\n  mstore\n  pop\n  dup2\n  mstore\n  0x20\n  add\n  mload(0x40)\n  dup1\n  0x40\n  add\n  0x40\n  mstore\n  dup1\n  0x07\n  dup2\n  mstore\n  0x20\n  add\n  0x4669667465656e00000000000000000000000000000000000000000000000000\n  dup2\n  mstore\n  pop\n  dup2\n  mstore\n  0x20\n  add\n  mload(0x40)\n  dup1\n  0x40\n  add\n  0x40\n  mstore\n  dup1\n  0x07\n  dup2\n  mstore\n  0x20\n  add\n  0x5369787465656e00000000000000000000000000000000000000000000000000\n  dup2\n  mstore\n  pop\n  dup2\n  mstore\n  0x20\n  add\n  mload(0x40)\n  dup1\n  0x40\n  add\n  0x40\n  mstore\n  dup1\n  0x09\n  dup2\n  mstore\n  0x20\n  add\n  0x536576656e7465656e0000000000000000000000000000000000000000000000\n  dup2\n  mstore\n  pop\n  dup2\n  mstore\n  0x20\n  add\n  mload(0x40)\n  dup1\n  0x40\n  add\n  0x40\n  mstore\n  dup1\n  0x08\n  dup2\n  mstore\n  0x20\n  add\n  0x456967687465656e000000000000000000000000000000000000000000000000\n  dup2\n  mstore\n  pop\n  dup2\n  mstore\n  0x20\n  add\n  mload(0x40)\n  dup1\n  0x40\n  add\n  0x40\n  mstore\n  dup1\n  0x08\n  dup2\n  mstore\n  0x20\n  add\n  0x4e696e657465656e000000000000000000000000000000000000000000000000\n  dup2\n  mstore\n  pop\n  dup2\n  mstore\n  pop\n  0x00\n  swap1\n  0x14\n  tag_1\n  swap3\n  swap2\n  swap1\n  tag_2\n  jump\t// in\ntag_1:\n  pop\n    /* \"learning/20may/thousandToword.sol\":286:381  string[10] tens = [\"\",\"\",\"Twenty\",\"Thirty\",\"Forty\",\"Fifty\",\"Sixty\",\"Seventy\",\"Eighty\",\"Ninety\"] */\n  mload(0x40)\n  dup1\n  0x0140\n  add\n  0x40\n  mstore\n  dup1\n  mload(0x40)\n  dup1\n  0x20\n  add\n  0x40\n  mstore\n  dup1\n  0x00\n  dup2\n  mstore\n  pop\n  dup2\n  mstore\n  0x20\n  add\n  mload(0x40)\n  dup1\n  0x20\n  add\n  0x40\n  mstore\n  dup1\n  0x00\n  dup2\n  mstore\n  pop\n  dup2\n  mstore\n  0x20\n  add\n  mload(0x40)\n  dup1\n  0x40\n  add\n  0x40\n  mstore\n  dup1\n  0x06\n  dup2\n  mstore\n  0x20\n  add\n  0x5477656e74790000000000000000000000000000000000000000000000000000\n  dup2\n  mstore\n  pop\n  dup2\n  mstore\n  0x20\n  add\n  mload(0x40)\n  dup1\n  0x40\n  add\n  0x40\n  mstore\n  dup1\n  0x06\n  dup2\n  mstore\n  0x20\n  add\n  0x5468697274790000000000000000000000000000000000000000000000000000\n  dup2\n  mstore\n  pop\n  dup2\n  mstore\n  0x20\n  add\n  mload(0x40)\n  dup1\n  0x40\n  add\n  0x40\n  mstore\n  dup1\n  0x05\n  dup2\n  mstore\n  0x20\n  add\n  0x466f727479000000000000000000000000000000000000000000000000000000\n  dup2\n  mstore\n  pop\n  dup2\n  mstore\n  0x20\n  add\n  mload(0x40)\n  dup1\n  0x40\n  add\n  0x40\n  mstore\n  dup1\n  0x05\n  dup2\n  mstore\n  0x20\n  add\n  0x4669667479000000000000000000000000000000000000000000000000000000\n  dup2\n  mstore\n  pop\n  dup2\n  mstore\n  0x20\n  add\n  mload(0x40)\n  dup1\n  0x40\n  add\n  0x40\n  mstore\n  dup1\n  0x05\n  dup2\n  mstore\n  0x20\n  add\n  0x5369787479000000000000000000000000000000000000000000000000000000\n  dup2\n  mstore\n  pop\n  dup2\n  mstore\n  0x20\n  add\n  mload(0x40)\n  dup1\n  0x40\n  add\n  0x40\n  mstore\n  dup1\n  0x07\n  dup2\n  mstore\n  0x20\n  add\n  0x536576656e747900000000000000000000000000000000000000000000000000\n  dup2\n  mstore\n  pop\n  dup2\n  mstore\n  0x20\n  add\n  mload(0x40)\n  dup1\n  0x40\n  add\n  0x40\n  mstore\n  dup1\n  0x06\n  dup2\n  mstore\n  0x20\n  add\n  0x4569676874790000000000000000000000000000000000000000000000000000\n  dup2\n  mstore\n  pop\n  dup2\n  mstore\n  0x20\n  add\n  mload(0x40)\n  dup1\n  0x40\n  add\n  0x40\n  mstore\n  dup1\n  0x06\n  dup2\n  mstore\n  0x20\n  add\n  0x4e696e6574790000000000000000000000000000000000000000000000000000\n  dup2\n  mstore\n  pop\n  dup2\n  mstore\n  pop\n  0x14\n  swap1\n  0x0a\n  tag_3\n  swap3\n  swap2\n  swap1\n  tag_4\n  jump\t// in\ntag_3:\n  pop\n    /* \"learning/20may/thousandToword.sol\":60:1101  contract HundredToWord{\r... */\n  callvalue\n  dup1\n  iszero\n  tag_5\n  jumpi\n  0x00\n  dup1\n  revert\ntag_5:\n  pop\n  jump(tag_6)\ntag_2:\n  dup3\n  0x14\n  dup2\n  add\n  swap3\n  dup3\n  iszero\n  tag_7\n  jumpi\n  swap2\n  0x20\n  mul\n  dup3\n  add\ntag_8:\n  dup3\n  dup2\n  gt\n  iszero\n  tag_9\n  jumpi\n  dup3\n  mload\n  dup3\n  swap1\n  dup1\n  mload\n  swap1\n  0x20\n  add\n  swap1\n  tag_10\n  swap3\n  swap2\n  swap1\n  tag_11\n  jump\t// in\ntag_10:\n  pop\n  swap2\n  0x20\n  add\n  swap2\n  swap1\n  0x01\n  add\n  swap1\n  jump(tag_8)\ntag_9:\ntag_7:\n  pop\n  swap1\n  pop\n  tag_12\n  swap2\n  swap1\n  tag_13\n  jump\t// in\ntag_12:\n  pop\n  swap1\n  jump\t// out\ntag_4:\n  dup3\n  0x0a\n  dup2\n  add\n  swap3\n  dup3\n  iszero\n  tag_14\n  jumpi\n  swap2\n  0x20\n  mul\n  dup3\n  add\ntag_15:\n  dup3\n  dup2\n  gt\n  iszero\n  tag_16\n  jumpi\n  dup3\n  mload\n  dup3\n  swap1\n  dup1\n  mload\n  swap1\n  0x20\n  add\n  swap1\n  tag_17\n  swap3\n  swap2\n  swap1\n  tag_11\n  jump\t// in\ntag_17:\n  pop\n  swap2\n  0x20\n  add\n  swap2\n  swap1\n  0x01\n  add\n  swap1\n  jump(tag_15)\ntag_16:\ntag_14:\n  pop\n  swap1\n  pop\n  tag_18\n  swap2\n  swap1\n  tag_13\n  jump\t// in\ntag_18:\n  pop\n  swap1\n  jump\t// out\ntag_11:\n  dup3\n  dup1\n  sload\n  tag_19\n  swap1\n  tag_20\n  jump\t// in\ntag_19:\n  swap1\n  0x00\n  mstore\n  keccak256(0x00, 0x20)\n  swap1\n  0x1f\n  add\n  0x20\n  swap1\n  div\n  dup2\n  add\n  swap3\n  dup3\n  tag_22\n  jumpi\n  0x00\n  dup6\n  sstore\n  jump(tag_21)\ntag_22:\n  dup3\n  0x1f\n  lt\n  tag_23\n  jumpi\n  dup1\n  mload\n  not(0xff)\n  and\n  dup4\n  dup1\n  add\n  or\n  dup6\n  sstore\n  jump(tag_21)\ntag_23:\n  dup3\n  dup1\n  add\n  0x01\n  add\n  dup6\n  sstore\n  dup3\n  iszero\n  tag_21\n  jumpi\n  swap2\n  dup3\n  add\ntag_24:\n  dup3\n  dup2\n  gt\n  iszero\n  tag_25\n  jumpi\n  dup3\n  mload\n  dup3\n  sstore\n  swap2\n  0x20\n  add\n  swap2\n  swap1\n  0x01\n  add\n  swap1\n  jump(tag_24)\ntag_25:\ntag_21:\n  pop\n  swap1\n  pop\n  tag_26\n  swap2\n  swap1\n  tag_27\n  jump\t// in\ntag_26:\n  pop\n  swap1\n  jump\t// out\ntag_13:\ntag_28:\n  dup1\n  dup3\n  gt\n  iszero\n  tag_29\n  jumpi\n  0x00\n  dup2\n  dup2\n  tag_30\n  swap2\n  swap1\n  tag_31\n  jump\t// in\ntag_30:\n  pop\n  0x01\n  add\n  jump(tag_28)\ntag_29:\n  pop\n  swap1\n  jump\t// out\ntag_27:\ntag_32:\n  dup1\n  dup3\n  gt\n  iszero\n  tag_33\n  jumpi\n  0x00\n  dup2\n  0x00\n  swap1\n  sstore\n  pop\n  0x01\n  add\n  jump(tag_32)\ntag_33:\n  pop\n  swap1\n  jump\t// out\ntag_31:\n  pop\n  dup1\n  sload\n  tag_34\n  swap1\n  tag_20\n  jump\t// in\ntag_34:\n  0x00\n  dup3\n  sstore\n  dup1\n  0x1f\n  lt\n  tag_36\n  jumpi\n  pop\n  jump(tag_35)\ntag_36:\n  0x1f\n  add\n  0x20\n  swap1\n  div\n  swap1\n  0x00\n  mstore\n  keccak256(0x00, 0x20)\n  swap1\n  dup2\n  add\n  swap1\n  tag_37\n  swap2\n  swap1\n  tag_27\n  jump\t// in\ntag_37:\ntag_35:\n  pop\n  jump\t// out\n    /* \"#utility.yul\":7:327   */\ntag_20:\n  0x00\n    /* \"#utility.yul\":88:89   */\n  0x02\n    /* \"#utility.yul\":82:86   */\n  dup3\n    /* \"#utility.yul\":78:90   */\n  div\n    /* \"#utility.yul\":68:90   */\n  swap1\n  pop\n    /* \"#utility.yul\":135:136   */\n  0x01\n    /* \"#utility.yul\":129:133   */\n  dup3\n    /* \"#utility.yul\":125:137   */\n  and\n    /* \"#utility.yul\":156:174   */\n  dup1\n    /* \"#utility.yul\":146:148   */\n  tag_40\n  jumpi\n    /* \"#utility.yul\":212:216   */\n  0x7f\n    /* \"#utility.yul\":204:210   */\n  dup3\n    /* \"#utility.yul\":200:217   */\n  and\n    /* \"#utility.yul\":190:217   */\n  swap2\n  pop\n    /* \"#utility.yul\":146:148   */\ntag_40:\n    /* \"#utility.yul\":274:276   */\n  0x20\n    /* \"#utility.yul\":266:272   */\n  dup3\n    /* \"#utility.yul\":263:277   */\n  lt\n    /* \"#utility.yul\":243:261   */\n  dup2\n    /* \"#utility.yul\":240:278   */\n  eq\n    /* \"#utility.yul\":237:239   */\n  iszero\n  tag_41\n  jumpi\n    /* \"#utility.yul\":293:311   */\n  tag_42\n  tag_43\n  jump\t// in\ntag_42:\n    /* \"#utility.yul\":237:239   */\ntag_41:\n    /* \"#utility.yul\":58:327   */\n  pop\n  swap2\n  swap1\n  pop\n  jump\t// out\n    /* \"#utility.yul\":333:513   */\ntag_43:\n    /* \"#utility.yul\":381:458   */\n  0x4e487b7100000000000000000000000000000000000000000000000000000000\n    /* \"#utility.yul\":378:379   */\n  0x00\n    /* \"#utility.yul\":371:459   */\n  mstore\n    /* \"#utility.yul\":478:482   */\n  0x22\n    /* \"#utility.yul\":475:476   */\n  0x04\n    /* \"#utility.yul\":468:483   */\n  mstore\n    /* \"#utility.yul\":502:506   */\n  0x24\n    /* \"#utility.yul\":499:500   */\n  0x00\n    /* \"#utility.yul\":492:507   */\n  revert\n    /* \"learning/20may/thousandToword.sol\":60:1101  contract HundredToWord{\r... */\ntag_6:\n  dataSize(sub_0)\n  dup1\n  dataOffset(sub_0)\n  0x00\n  codecopy\n  0x00\n  return\nstop\n\nsub_0: assembly {\n        /* \"learning/20may/thousandToword.sol\":60:1101  contract HundredToWord{\r... */\n      mstore(0x40, 0x80)\n      callvalue\n      dup1\n      iszero\n      tag_1\n      jumpi\n      0x00\n      dup1\n      revert\n    tag_1:\n      pop\n      jumpi(tag_2, lt(calldatasize, 0x04))\n      shr(0xe0, calldataload(0x00))\n      dup1\n      0x8a61b8\n      eq\n      tag_3\n      jumpi\n    tag_2:\n      0x00\n      dup1\n      revert\n        /* \"learning/20may/thousandToword.sol\":390:1098  function NumToWord_rupees(uint num)public view returns(string memory){\r... */\n    tag_3:\n      tag_4\n      0x04\n      dup1\n      calldatasize\n      sub\n      dup2\n      add\n      swap1\n      tag_5\n      swap2\n      swap1\n      tag_6\n      jump\t// in\n    tag_5:\n      tag_7\n      jump\t// in\n    tag_4:\n      mload(0x40)\n      tag_8\n      swap2\n      swap1\n      tag_9\n      jump\t// in\n    tag_8:\n      mload(0x40)\n      dup1\n      swap2\n      sub\n      swap1\n      return\n    tag_7:\n        /* \"learning/20may/thousandToword.sol\":445:458  string memory */\n      0x60\n        /* \"learning/20may/thousandToword.sol\":501:503  20 */\n      0x14\n        /* \"learning/20may/thousandToword.sol\":495:498  num */\n      dup3\n        /* \"learning/20may/thousandToword.sol\":495:503  num < 20 */\n      lt\n        /* \"learning/20may/thousandToword.sol\":491:588  if (num < 20) {\r... */\n      iszero\n      tag_11\n      jumpi\n        /* \"learning/20may/thousandToword.sol\":551:556  units */\n      0x00\n        /* \"learning/20may/thousandToword.sol\":557:560  num */\n      dup3\n        /* \"learning/20may/thousandToword.sol\":551:561  units[num] */\n      0x14\n      dup2\n      lt\n      tag_12\n      jumpi\n      mstore(0x00, 0x4e487b7100000000000000000000000000000000000000000000000000000000)\n      mstore(0x04, 0x32)\n      revert(0x00, 0x24)\n    tag_12:\n      add\n        /* \"learning/20may/thousandToword.sol\":534:575  abi.encodePacked(units[num],\" \",\"Rupees\") */\n      add(0x20, mload(0x40))\n      tag_14\n      swap2\n      swap1\n      tag_15\n      jump\t// in\n    tag_14:\n      mload(0x40)\n      0x20\n      dup2\n      dup4\n      sub\n      sub\n      dup2\n      mstore\n      swap1\n      0x40\n      mstore\n        /* \"learning/20may/thousandToword.sol\":520:576  return string(abi.encodePacked(units[num],\" \",\"Rupees\")) */\n      swap1\n      pop\n      jump(tag_10)\n        /* \"learning/20may/thousandToword.sol\":491:588  if (num < 20) {\r... */\n    tag_11:\n        /* \"learning/20may/thousandToword.sol\":627:630  100 */\n      0x64\n        /* \"learning/20may/thousandToword.sol\":620:623  num */\n      dup3\n        /* \"learning/20may/thousandToword.sol\":620:630  num == 100 */\n      eq\n        /* \"learning/20may/thousandToword.sol\":616:679  if (num == 100) {\r... */\n      iszero\n      tag_16\n      jumpi\n        /* \"learning/20may/thousandToword.sol\":647:667  return \"One Hundred\" */\n      mload(0x40)\n      dup1\n      0x40\n      add\n      0x40\n      mstore\n      dup1\n      0x0b\n      dup2\n      mstore\n      0x20\n      add\n      0x4f6e652048756e64726564000000000000000000000000000000000000000000\n      dup2\n      mstore\n      pop\n      swap1\n      pop\n      jump(tag_10)\n        /* \"learning/20may/thousandToword.sol\":616:679  if (num == 100) {\r... */\n    tag_16:\n        /* \"learning/20may/thousandToword.sol\":711:720  uint256 t */\n      0x00\n        /* \"learning/20may/thousandToword.sol\":729:731  10 */\n      0x0a\n        /* \"learning/20may/thousandToword.sol\":723:726  num */\n      dup4\n        /* \"learning/20may/thousandToword.sol\":723:731  num / 10 */\n      tag_17\n      swap2\n      swap1\n      tag_18\n      jump\t// in\n    tag_17:\n        /* \"learning/20may/thousandToword.sol\":711:731  uint256 t = num / 10 */\n      swap1\n      pop\n        /* \"learning/20may/thousandToword.sol\":742:751  uint256 u */\n      0x00\n        /* \"learning/20may/thousandToword.sol\":760:762  10 */\n      0x0a\n        /* \"learning/20may/thousandToword.sol\":754:757  num */\n      dup5\n        /* \"learning/20may/thousandToword.sol\":754:762  num % 10 */\n      tag_19\n      swap2\n      swap1\n      tag_20\n      jump\t// in\n    tag_19:\n        /* \"learning/20may/thousandToword.sol\":742:762  uint256 u = num % 10 */\n      swap1\n      pop\n        /* \"learning/20may/thousandToword.sol\":784:785  0 */\n      0x00\n        /* \"learning/20may/thousandToword.sol\":779:780  u */\n      dup2\n        /* \"learning/20may/thousandToword.sol\":779:785  u == 0 */\n      eq\n        /* \"learning/20may/thousandToword.sol\":775:867  if (u == 0) {\r... */\n      iszero\n      tag_21\n      jumpi\n        /* \"learning/20may/thousandToword.sol\":833:837  tens */\n      0x14\n        /* \"learning/20may/thousandToword.sol\":838:839  t */\n      dup3\n        /* \"learning/20may/thousandToword.sol\":833:840  tens[t] */\n      0x0a\n      dup2\n      lt\n      tag_22\n      jumpi\n      mstore(0x00, 0x4e487b7100000000000000000000000000000000000000000000000000000000)\n      mstore(0x04, 0x32)\n      revert(0x00, 0x24)\n    tag_22:\n      add\n        /* \"learning/20may/thousandToword.sol\":816:854  abi.encodePacked(tens[t],\" \",\"Rupees\") */\n      add(0x20, mload(0x40))\n      tag_24\n      swap2\n      swap1\n      tag_15\n      jump\t// in\n    tag_24:\n      mload(0x40)\n      0x20\n      dup2\n      dup4\n      sub\n      sub\n      dup2\n      mstore\n      swap1\n      0x40\n      mstore\n        /* \"learning/20may/thousandToword.sol\":802:855  return string(abi.encodePacked(tens[t],\" \",\"Rupees\")) */\n      swap3\n      pop\n      pop\n      pop\n      jump(tag_10)\n        /* \"learning/20may/thousandToword.sol\":775:867  if (u == 0) {\r... */\n    tag_21:\n        /* \"learning/20may/thousandToword.sol\":882:884  10 */\n      0x0a\n        /* \"learning/20may/thousandToword.sol\":880:881  t */\n      dup3\n        /* \"learning/20may/thousandToword.sol\":880:884  t<10 */\n      lt\n        /* \"learning/20may/thousandToword.sol\":877:1090  if(t<10){\r... */\n      iszero\n      tag_25\n      jumpi\n        /* \"learning/20may/thousandToword.sol\":928:932  tens */\n      0x14\n        /* \"learning/20may/thousandToword.sol\":933:934  t */\n      dup3\n        /* \"learning/20may/thousandToword.sol\":928:935  tens[t] */\n      0x0a\n      dup2\n      lt\n      tag_26\n      jumpi\n      mstore(0x00, 0x4e487b7100000000000000000000000000000000000000000000000000000000)\n      mstore(0x04, 0x32)\n      revert(0x00, 0x24)\n    tag_26:\n      add\n        /* \"learning/20may/thousandToword.sol\":940:945  units */\n      0x00\n        /* \"learning/20may/thousandToword.sol\":946:947  u */\n      dup3\n        /* \"learning/20may/thousandToword.sol\":940:948  units[u] */\n      0x14\n      dup2\n      lt\n      tag_28\n      jumpi\n      mstore(0x00, 0x4e487b7100000000000000000000000000000000000000000000000000000000)\n      mstore(0x04, 0x32)\n      revert(0x00, 0x24)\n    tag_28:\n      add\n        /* \"learning/20may/thousandToword.sol\":911:962  abi.encodePacked(tens[t],\" \",units[u],\" \",\"Rupees\") */\n      add(0x20, mload(0x40))\n      tag_30\n      swap3\n      swap2\n      swap1\n      tag_31\n      jump\t// in\n    tag_30:\n      mload(0x40)\n      0x20\n      dup2\n      dup4\n      sub\n      sub\n      dup2\n      mstore\n      swap1\n      0x40\n      mstore\n        /* \"learning/20may/thousandToword.sol\":896:963  return string (abi.encodePacked(tens[t],\" \",units[u],\" \",\"Rupees\")) */\n      swap3\n      pop\n      pop\n      pop\n      jump(tag_10)\n        /* \"learning/20may/thousandToword.sol\":877:1090  if(t<10){\r... */\n    tag_25:\n        /* \"learning/20may/thousandToword.sol\":1024:1029  units */\n      0x00\n        /* \"learning/20may/thousandToword.sol\":1030:1031  u */\n      dup2\n        /* \"learning/20may/thousandToword.sol\":1024:1032  units[u] */\n      0x14\n      dup2\n      lt\n      tag_33\n      jumpi\n      mstore(0x00, 0x4e487b7100000000000000000000000000000000000000000000000000000000)\n      mstore(0x04, 0x32)\n      revert(0x00, 0x24)\n    tag_33:\n      add\n        /* \"learning/20may/thousandToword.sol\":1053:1057  tens */\n      0x14\n        /* \"learning/20may/thousandToword.sol\":1058:1059  u */\n      dup3\n        /* \"learning/20may/thousandToword.sol\":1053:1060  tens[u] */\n      0x0a\n      dup2\n      lt\n      tag_35\n      jumpi\n      mstore(0x00, 0x4e487b7100000000000000000000000000000000000000000000000000000000)\n      mstore(0x04, 0x32)\n      revert(0x00, 0x24)\n    tag_35:\n      add\n        /* \"learning/20may/thousandToword.sol\":1067:1072  units */\n      0x00\n        /* \"learning/20may/thousandToword.sol\":1073:1074  u */\n      dup4\n        /* \"learning/20may/thousandToword.sol\":1067:1075  units[u] */\n      0x14\n      dup2\n      lt\n      tag_37\n      jumpi\n      mstore(0x00, 0x4e487b7100000000000000000000000000000000000000000000000000000000)\n      mstore(0x04, 0x32)\n      revert(0x00, 0x24)\n    tag_37:\n      add\n        /* \"learning/20may/thousandToword.sol\":1007:1089  abi.encodePacked(units[u],\" \",\"Hundred\", \" \", tens[u], \" \", units[u],\" \",\"Rupees\") */\n      add(0x20, mload(0x40))\n      tag_39\n      swap4\n      swap3\n      swap2\n      swap1\n      tag_40\n      jump\t// in\n    tag_39:\n      mload(0x40)\n      0x20\n      dup2\n      dup4\n      sub\n      sub\n      dup2\n      mstore\n      swap1\n      0x40\n      mstore\n        /* \"learning/20may/thousandToword.sol\":993:1090  return string(abi.encodePacked(units[u],\" \",\"Hundred\", \" \", tens[u], \" \", units[u],\" \",\"Rupees\")) */\n      swap3\n      pop\n      pop\n      pop\n        /* \"learning/20may/thousandToword.sol\":390:1098  function NumToWord_rupees(uint num)public view returns(string memory){\r... */\n    tag_10:\n      swap2\n      swap1\n      pop\n      jump\t// out\n        /* \"#utility.yul\":7:146   */\n    tag_42:\n      0x00\n        /* \"#utility.yul\":91:97   */\n      dup2\n        /* \"#utility.yul\":78:98   */\n      calldataload\n        /* \"#utility.yul\":69:98   */\n      swap1\n      pop\n        /* \"#utility.yul\":107:140   */\n      tag_44\n        /* \"#utility.yul\":134:139   */\n      dup2\n        /* \"#utility.yul\":107:140   */\n      tag_45\n      jump\t// in\n    tag_44:\n        /* \"#utility.yul\":59:146   */\n      swap3\n      swap2\n      pop\n      pop\n      jump\t// out\n        /* \"#utility.yul\":152:414   */\n    tag_6:\n      0x00\n        /* \"#utility.yul\":260:262   */\n      0x20\n        /* \"#utility.yul\":248:257   */\n      dup3\n        /* \"#utility.yul\":239:246   */\n      dup5\n        /* \"#utility.yul\":235:258   */\n      sub\n        /* \"#utility.yul\":231:263   */\n      slt\n        /* \"#utility.yul\":228:230   */\n      iszero\n      tag_47\n      jumpi\n        /* \"#utility.yul\":276:277   */\n      0x00\n        /* \"#utility.yul\":273:274   */\n      dup1\n        /* \"#utility.yul\":266:278   */\n      revert\n        /* \"#utility.yul\":228:230   */\n    tag_47:\n        /* \"#utility.yul\":319:320   */\n      0x00\n        /* \"#utility.yul\":344:397   */\n      tag_48\n        /* \"#utility.yul\":389:396   */\n      dup5\n        /* \"#utility.yul\":380:386   */\n      dup3\n        /* \"#utility.yul\":369:378   */\n      dup6\n        /* \"#utility.yul\":365:387   */\n      add\n        /* \"#utility.yul\":344:397   */\n      tag_42\n      jump\t// in\n    tag_48:\n        /* \"#utility.yul\":334:397   */\n      swap2\n      pop\n        /* \"#utility.yul\":290:407   */\n      pop\n        /* \"#utility.yul\":218:414   */\n      swap3\n      swap2\n      pop\n      pop\n      jump\t// out\n        /* \"#utility.yul\":420:784   */\n    tag_49:\n      0x00\n        /* \"#utility.yul\":536:575   */\n      tag_51\n        /* \"#utility.yul\":569:574   */\n      dup3\n        /* \"#utility.yul\":536:575   */\n      tag_52\n      jump\t// in\n    tag_51:\n        /* \"#utility.yul\":591:662   */\n      tag_53\n        /* \"#utility.yul\":655:661   */\n      dup2\n        /* \"#utility.yul\":650:653   */\n      dup6\n        /* \"#utility.yul\":591:662   */\n      tag_54\n      jump\t// in\n    tag_53:\n        /* \"#utility.yul\":584:662   */\n      swap4\n      pop\n        /* \"#utility.yul\":671:723   */\n      tag_55\n        /* \"#utility.yul\":716:722   */\n      dup2\n        /* \"#utility.yul\":711:714   */\n      dup6\n        /* \"#utility.yul\":704:708   */\n      0x20\n        /* \"#utility.yul\":697:702   */\n      dup7\n        /* \"#utility.yul\":693:709   */\n      add\n        /* \"#utility.yul\":671:723   */\n      tag_56\n      jump\t// in\n    tag_55:\n        /* \"#utility.yul\":748:777   */\n      tag_57\n        /* \"#utility.yul\":770:776   */\n      dup2\n        /* \"#utility.yul\":748:777   */\n      tag_58\n      jump\t// in\n    tag_57:\n        /* \"#utility.yul\":743:746   */\n      dup5\n        /* \"#utility.yul\":739:778   */\n      add\n        /* \"#utility.yul\":732:778   */\n      swap2\n      pop\n        /* \"#utility.yul\":512:784   */\n      pop\n      swap3\n      swap2\n      pop\n      pop\n      jump\t// out\n        /* \"#utility.yul\":814:1659   */\n    tag_59:\n      0x00\n        /* \"#utility.yul\":954:959   */\n      dup2\n        /* \"#utility.yul\":948:960   */\n      sload\n        /* \"#utility.yul\":983:1019   */\n      tag_61\n        /* \"#utility.yul\":1009:1018   */\n      dup2\n        /* \"#utility.yul\":983:1019   */\n      tag_62\n      jump\t// in\n    tag_61:\n        /* \"#utility.yul\":1035:1124   */\n      tag_63\n        /* \"#utility.yul\":1117:1123   */\n      dup2\n        /* \"#utility.yul\":1112:1115   */\n      dup7\n        /* \"#utility.yul\":1035:1124   */\n      tag_64\n      jump\t// in\n    tag_63:\n        /* \"#utility.yul\":1028:1124   */\n      swap5\n      pop\n        /* \"#utility.yul\":1155:1156   */\n      0x01\n        /* \"#utility.yul\":1144:1153   */\n      dup3\n        /* \"#utility.yul\":1140:1157   */\n      and\n        /* \"#utility.yul\":1171:1172   */\n      0x00\n        /* \"#utility.yul\":1166:1303   */\n      dup2\n      eq\n      tag_66\n      jumpi\n        /* \"#utility.yul\":1317:1318   */\n      0x01\n        /* \"#utility.yul\":1312:1653   */\n      dup2\n      eq\n      tag_67\n      jumpi\n        /* \"#utility.yul\":1133:1653   */\n      jump(tag_65)\n        /* \"#utility.yul\":1166:1303   */\n    tag_66:\n        /* \"#utility.yul\":1250:1254   */\n      0xff\n        /* \"#utility.yul\":1246:1255   */\n      not\n        /* \"#utility.yul\":1235:1244   */\n      dup4\n        /* \"#utility.yul\":1231:1256   */\n      and\n        /* \"#utility.yul\":1226:1229   */\n      dup7\n        /* \"#utility.yul\":1219:1257   */\n      mstore\n        /* \"#utility.yul\":1286:1292   */\n      dup2\n        /* \"#utility.yul\":1281:1284   */\n      dup7\n        /* \"#utility.yul\":1277:1293   */\n      add\n        /* \"#utility.yul\":1270:1293   */\n      swap4\n      pop\n        /* \"#utility.yul\":1166:1303   */\n      jump(tag_65)\n        /* \"#utility.yul\":1312:1653   */\n    tag_67:\n        /* \"#utility.yul\":1379:1417   */\n      tag_68\n        /* \"#utility.yul\":1411:1416   */\n      dup6\n        /* \"#utility.yul\":1379:1417   */\n      tag_69\n      jump\t// in\n    tag_68:\n        /* \"#utility.yul\":1439:1440   */\n      0x00\n        /* \"#utility.yul\":1453:1607   */\n    tag_70:\n        /* \"#utility.yul\":1467:1473   */\n      dup4\n        /* \"#utility.yul\":1464:1465   */\n      dup2\n        /* \"#utility.yul\":1461:1474   */\n      lt\n        /* \"#utility.yul\":1453:1607   */\n      iszero\n      tag_72\n      jumpi\n        /* \"#utility.yul\":1541:1548   */\n      dup2\n        /* \"#utility.yul\":1535:1549   */\n      sload\n        /* \"#utility.yul\":1531:1532   */\n      dup2\n        /* \"#utility.yul\":1526:1529   */\n      dup10\n        /* \"#utility.yul\":1522:1533   */\n      add\n        /* \"#utility.yul\":1515:1550   */\n      mstore\n        /* \"#utility.yul\":1591:1592   */\n      0x01\n        /* \"#utility.yul\":1582:1589   */\n      dup3\n        /* \"#utility.yul\":1578:1593   */\n      add\n        /* \"#utility.yul\":1567:1593   */\n      swap2\n      pop\n        /* \"#utility.yul\":1489:1493   */\n      0x20\n        /* \"#utility.yul\":1486:1487   */\n      dup2\n        /* \"#utility.yul\":1482:1494   */\n      add\n        /* \"#utility.yul\":1477:1494   */\n      swap1\n      pop\n        /* \"#utility.yul\":1453:1607   */\n      jump(tag_70)\n    tag_72:\n        /* \"#utility.yul\":1636:1642   */\n      dup4\n        /* \"#utility.yul\":1631:1634   */\n      dup9\n        /* \"#utility.yul\":1627:1643   */\n      add\n        /* \"#utility.yul\":1620:1643   */\n      swap6\n      pop\n        /* \"#utility.yul\":1319:1653   */\n      pop\n      pop\n        /* \"#utility.yul\":1133:1653   */\n    tag_65:\n      pop\n        /* \"#utility.yul\":921:1659   */\n      pop\n      pop\n      swap3\n      swap2\n      pop\n      pop\n      jump\t// out\n        /* \"#utility.yul\":1665:1998   */\n    tag_73:\n      0x00\n        /* \"#utility.yul\":1846:1930   */\n      tag_75\n        /* \"#utility.yul\":1928:1929   */\n      0x01\n        /* \"#utility.yul\":1923:1926   */\n      dup4\n        /* \"#utility.yul\":1846:1930   */\n      tag_64\n      jump\t// in\n    tag_75:\n        /* \"#utility.yul\":1839:1930   */\n      swap2\n      pop\n        /* \"#utility.yul\":1960:1963   */\n      0x2000000000000000000000000000000000000000000000000000000000000000\n        /* \"#utility.yul\":1956:1957   */\n      0x00\n        /* \"#utility.yul\":1951:1954   */\n      dup4\n        /* \"#utility.yul\":1947:1958   */\n      add\n        /* \"#utility.yul\":1940:1964   */\n      mstore\n        /* \"#utility.yul\":1990:1991   */\n      0x01\n        /* \"#utility.yul\":1985:1988   */\n      dup3\n        /* \"#utility.yul\":1981:1992   */\n      add\n        /* \"#utility.yul\":1974:1992   */\n      swap1\n      pop\n        /* \"#utility.yul\":1829:1998   */\n      swap2\n      swap1\n      pop\n      jump\t// out\n        /* \"#utility.yul\":2004:2343   */\n    tag_76:\n      0x00\n        /* \"#utility.yul\":2185:2269   */\n      tag_78\n        /* \"#utility.yul\":2267:2268   */\n      0x07\n        /* \"#utility.yul\":2262:2265   */\n      dup4\n        /* \"#utility.yul\":2185:2269   */\n      tag_64\n      jump\t// in\n    tag_78:\n        /* \"#utility.yul\":2178:2269   */\n      swap2\n      pop\n        /* \"#utility.yul\":2299:2308   */\n      0x48756e6472656400000000000000000000000000000000000000000000000000\n        /* \"#utility.yul\":2295:2296   */\n      0x00\n        /* \"#utility.yul\":2290:2293   */\n      dup4\n        /* \"#utility.yul\":2286:2297   */\n      add\n        /* \"#utility.yul\":2279:2309   */\n      mstore\n        /* \"#utility.yul\":2335:2336   */\n      0x07\n        /* \"#utility.yul\":2330:2333   */\n      dup3\n        /* \"#utility.yul\":2326:2337   */\n      add\n        /* \"#utility.yul\":2319:2337   */\n      swap1\n      pop\n        /* \"#utility.yul\":2168:2343   */\n      swap2\n      swap1\n      pop\n      jump\t// out\n        /* \"#utility.yul\":2349:2687   */\n    tag_79:\n      0x00\n        /* \"#utility.yul\":2530:2614   */\n      tag_81\n        /* \"#utility.yul\":2612:2613   */\n      0x06\n        /* \"#utility.yul\":2607:2610   */\n      dup4\n        /* \"#utility.yul\":2530:2614   */\n      tag_64\n      jump\t// in\n    tag_81:\n        /* \"#utility.yul\":2523:2614   */\n      swap2\n      pop\n        /* \"#utility.yul\":2644:2652   */\n      0x5275706565730000000000000000000000000000000000000000000000000000\n        /* \"#utility.yul\":2640:2641   */\n      0x00\n        /* \"#utility.yul\":2635:2638   */\n      dup4\n        /* \"#utility.yul\":2631:2642   */\n      add\n        /* \"#utility.yul\":2624:2653   */\n      mstore\n        /* \"#utility.yul\":2679:2680   */\n      0x06\n        /* \"#utility.yul\":2674:2677   */\n      dup3\n        /* \"#utility.yul\":2670:2681   */\n      add\n        /* \"#utility.yul\":2663:2681   */\n      swap1\n      pop\n        /* \"#utility.yul\":2513:2687   */\n      swap2\n      swap1\n      pop\n      jump\t// out\n        /* \"#utility.yul\":2693:3914   */\n    tag_31:\n      0x00\n        /* \"#utility.yul\":3192:3284   */\n      tag_83\n        /* \"#utility.yul\":3280:3283   */\n      dup3\n        /* \"#utility.yul\":3271:3277   */\n      dup6\n        /* \"#utility.yul\":3192:3284   */\n      tag_59\n      jump\t// in\n    tag_83:\n        /* \"#utility.yul\":3185:3284   */\n      swap2\n      pop\n        /* \"#utility.yul\":3301:3449   */\n      tag_84\n        /* \"#utility.yul\":3445:3448   */\n      dup3\n        /* \"#utility.yul\":3301:3449   */\n      tag_73\n      jump\t// in\n    tag_84:\n        /* \"#utility.yul\":3294:3449   */\n      swap2\n      pop\n        /* \"#utility.yul\":3466:3558   */\n      tag_85\n        /* \"#utility.yul\":3554:3557   */\n      dup3\n        /* \"#utility.yul\":3545:3551   */\n      dup5\n        /* \"#utility.yul\":3466:3558   */\n      tag_59\n      jump\t// in\n    tag_85:\n        /* \"#utility.yul\":3459:3558   */\n      swap2\n      pop\n        /* \"#utility.yul\":3575:3723   */\n      tag_86\n        /* \"#utility.yul\":3719:3722   */\n      dup3\n        /* \"#utility.yul\":3575:3723   */\n      tag_73\n      jump\t// in\n    tag_86:\n        /* \"#utility.yul\":3568:3723   */\n      swap2\n      pop\n        /* \"#utility.yul\":3740:3888   */\n      tag_87\n        /* \"#utility.yul\":3884:3887   */\n      dup3\n        /* \"#utility.yul\":3740:3888   */\n      tag_79\n      jump\t// in\n    tag_87:\n        /* \"#utility.yul\":3733:3888   */\n      swap2\n      pop\n        /* \"#utility.yul\":3905:3908   */\n      dup2\n        /* \"#utility.yul\":3898:3908   */\n      swap1\n      pop\n        /* \"#utility.yul\":3174:3914   */\n      swap4\n      swap3\n      pop\n      pop\n      pop\n      jump\t// out\n        /* \"#utility.yul\":3920:6093   */\n    tag_40:\n      0x00\n        /* \"#utility.yul\":4767:4859   */\n      tag_89\n        /* \"#utility.yul\":4855:4858   */\n      dup3\n        /* \"#utility.yul\":4846:4852   */\n      dup7\n        /* \"#utility.yul\":4767:4859   */\n      tag_59\n      jump\t// in\n    tag_89:\n        /* \"#utility.yul\":4760:4859   */\n      swap2\n      pop\n        /* \"#utility.yul\":4876:5024   */\n      tag_90\n        /* \"#utility.yul\":5020:5023   */\n      dup3\n        /* \"#utility.yul\":4876:5024   */\n      tag_73\n      jump\t// in\n    tag_90:\n        /* \"#utility.yul\":4869:5024   */\n      swap2\n      pop\n        /* \"#utility.yul\":5041:5189   */\n      tag_91\n        /* \"#utility.yul\":5185:5188   */\n      dup3\n        /* \"#utility.yul\":5041:5189   */\n      tag_76\n      jump\t// in\n    tag_91:\n        /* \"#utility.yul\":5034:5189   */\n      swap2\n      pop\n        /* \"#utility.yul\":5206:5354   */\n      tag_92\n        /* \"#utility.yul\":5350:5353   */\n      dup3\n        /* \"#utility.yul\":5206:5354   */\n      tag_73\n      jump\t// in\n    tag_92:\n        /* \"#utility.yul\":5199:5354   */\n      swap2\n      pop\n        /* \"#utility.yul\":5371:5463   */\n      tag_93\n        /* \"#utility.yul\":5459:5462   */\n      dup3\n        /* \"#utility.yul\":5450:5456   */\n      dup6\n        /* \"#utility.yul\":5371:5463   */\n      tag_59\n      jump\t// in\n    tag_93:\n        /* \"#utility.yul\":5364:5463   */\n      swap2\n      pop\n        /* \"#utility.yul\":5480:5628   */\n      tag_94\n        /* \"#utility.yul\":5624:5627   */\n      dup3\n        /* \"#utility.yul\":5480:5628   */\n      tag_73\n      jump\t// in\n    tag_94:\n        /* \"#utility.yul\":5473:5628   */\n      swap2\n      pop\n        /* \"#utility.yul\":5645:5737   */\n      tag_95\n        /* \"#utility.yul\":5733:5736   */\n      dup3\n        /* \"#utility.yul\":5724:5730   */\n      dup5\n        /* \"#utility.yul\":5645:5737   */\n      tag_59\n      jump\t// in\n    tag_95:\n        /* \"#utility.yul\":5638:5737   */\n      swap2\n      pop\n        /* \"#utility.yul\":5754:5902   */\n      tag_96\n        /* \"#utility.yul\":5898:5901   */\n      dup3\n        /* \"#utility.yul\":5754:5902   */\n      tag_73\n      jump\t// in\n    tag_96:\n        /* \"#utility.yul\":5747:5902   */\n      swap2\n      pop\n        /* \"#utility.yul\":5919:6067   */\n      tag_97\n        /* \"#utility.yul\":6063:6066   */\n      dup3\n        /* \"#utility.yul\":5919:6067   */\n      tag_79\n      jump\t// in\n    tag_97:\n        /* \"#utility.yul\":5912:6067   */\n      swap2\n      pop\n        /* \"#utility.yul\":6084:6087   */\n      dup2\n        /* \"#utility.yul\":6077:6087   */\n      swap1\n      pop\n        /* \"#utility.yul\":4749:6093   */\n      swap5\n      swap4\n      pop\n      pop\n      pop\n      pop\n      jump\t// out\n        /* \"#utility.yul\":6099:6900   */\n    tag_15:\n      0x00\n        /* \"#utility.yul\":6452:6544   */\n      tag_99\n        /* \"#utility.yul\":6540:6543   */\n      dup3\n        /* \"#utility.yul\":6531:6537   */\n      dup5\n        /* \"#utility.yul\":6452:6544   */\n      tag_59\n      jump\t// in\n    tag_99:\n        /* \"#utility.yul\":6445:6544   */\n      swap2\n      pop\n        /* \"#utility.yul\":6561:6709   */\n      tag_100\n        /* \"#utility.yul\":6705:6708   */\n      dup3\n        /* \"#utility.yul\":6561:6709   */\n      tag_73\n      jump\t// in\n    tag_100:\n        /* \"#utility.yul\":6554:6709   */\n      swap2\n      pop\n        /* \"#utility.yul\":6726:6874   */\n      tag_101\n        /* \"#utility.yul\":6870:6873   */\n      dup3\n        /* \"#utility.yul\":6726:6874   */\n      tag_79\n      jump\t// in\n    tag_101:\n        /* \"#utility.yul\":6719:6874   */\n      swap2\n      pop\n        /* \"#utility.yul\":6891:6894   */\n      dup2\n        /* \"#utility.yul\":6884:6894   */\n      swap1\n      pop\n        /* \"#utility.yul\":6434:6900   */\n      swap3\n      swap2\n      pop\n      pop\n      jump\t// out\n        /* \"#utility.yul\":6906:7219   */\n    tag_9:\n      0x00\n        /* \"#utility.yul\":7057:7059   */\n      0x20\n        /* \"#utility.yul\":7046:7055   */\n      dup3\n        /* \"#utility.yul\":7042:7060   */\n      add\n        /* \"#utility.yul\":7034:7060   */\n      swap1\n      pop\n        /* \"#utility.yul\":7106:7115   */\n      dup2\n        /* \"#utility.yul\":7100:7104   */\n      dup2\n        /* \"#utility.yul\":7096:7116   */\n      sub\n        /* \"#utility.yul\":7092:7093   */\n      0x00\n        /* \"#utility.yul\":7081:7090   */\n      dup4\n        /* \"#utility.yul\":7077:7094   */\n      add\n        /* \"#utility.yul\":7070:7117   */\n      mstore\n        /* \"#utility.yul\":7134:7212   */\n      tag_103\n        /* \"#utility.yul\":7207:7211   */\n      dup2\n        /* \"#utility.yul\":7198:7204   */\n      dup5\n        /* \"#utility.yul\":7134:7212   */\n      tag_49\n      jump\t// in\n    tag_103:\n        /* \"#utility.yul\":7126:7212   */\n      swap1\n      pop\n        /* \"#utility.yul\":7024:7219   */\n      swap3\n      swap2\n      pop\n      pop\n      jump\t// out\n        /* \"#utility.yul\":7225:7366   */\n    tag_69:\n      0x00\n        /* \"#utility.yul\":7297:7300   */\n      dup2\n        /* \"#utility.yul\":7289:7300   */\n      swap1\n      pop\n        /* \"#utility.yul\":7320:7323   */\n      dup2\n        /* \"#utility.yul\":7317:7318   */\n      0x00\n        /* \"#utility.yul\":7310:7324   */\n      mstore\n        /* \"#utility.yul\":7354:7358   */\n      0x20\n        /* \"#utility.yul\":7351:7352   */\n      0x00\n        /* \"#utility.yul\":7341:7359   */\n      keccak256\n        /* \"#utility.yul\":7333:7359   */\n      swap1\n      pop\n        /* \"#utility.yul\":7279:7366   */\n      swap2\n      swap1\n      pop\n      jump\t// out\n        /* \"#utility.yul\":7372:7471   */\n    tag_52:\n      0x00\n        /* \"#utility.yul\":7458:7463   */\n      dup2\n        /* \"#utility.yul\":7452:7464   */\n      mload\n        /* \"#utility.yul\":7442:7464   */\n      swap1\n      pop\n        /* \"#utility.yul\":7431:7471   */\n      swap2\n      swap1\n      pop\n      jump\t// out\n        /* \"#utility.yul\":7477:7646   */\n    tag_54:\n      0x00\n        /* \"#utility.yul\":7595:7601   */\n      dup3\n        /* \"#utility.yul\":7590:7593   */\n      dup3\n        /* \"#utility.yul\":7583:7602   */\n      mstore\n        /* \"#utility.yul\":7635:7639   */\n      0x20\n        /* \"#utility.yul\":7630:7633   */\n      dup3\n        /* \"#utility.yul\":7626:7640   */\n      add\n        /* \"#utility.yul\":7611:7640   */\n      swap1\n      pop\n        /* \"#utility.yul\":7573:7646   */\n      swap3\n      swap2\n      pop\n      pop\n      jump\t// out\n        /* \"#utility.yul\":7652:7800   */\n    tag_64:\n      0x00\n        /* \"#utility.yul\":7791:7794   */\n      dup2\n        /* \"#utility.yul\":7776:7794   */\n      swap1\n      pop\n        /* \"#utility.yul\":7766:7800   */\n      swap3\n      swap2\n      pop\n      pop\n      jump\t// out\n        /* \"#utility.yul\":7806:7991   */\n    tag_18:\n      0x00\n        /* \"#utility.yul\":7863:7883   */\n      tag_109\n        /* \"#utility.yul\":7881:7882   */\n      dup3\n        /* \"#utility.yul\":7863:7883   */\n      tag_110\n      jump\t// in\n    tag_109:\n        /* \"#utility.yul\":7858:7883   */\n      swap2\n      pop\n        /* \"#utility.yul\":7897:7917   */\n      tag_111\n        /* \"#utility.yul\":7915:7916   */\n      dup4\n        /* \"#utility.yul\":7897:7917   */\n      tag_110\n      jump\t// in\n    tag_111:\n        /* \"#utility.yul\":7892:7917   */\n      swap3\n      pop\n        /* \"#utility.yul\":7936:7937   */\n      dup3\n        /* \"#utility.yul\":7926:7928   */\n      tag_112\n      jumpi\n        /* \"#utility.yul\":7941:7959   */\n      tag_113\n      tag_114\n      jump\t// in\n    tag_113:\n        /* \"#utility.yul\":7926:7928   */\n    tag_112:\n        /* \"#utility.yul\":7983:7984   */\n      dup3\n        /* \"#utility.yul\":7980:7981   */\n      dup3\n        /* \"#utility.yul\":7976:7985   */\n      div\n        /* \"#utility.yul\":7971:7985   */\n      swap1\n      pop\n        /* \"#utility.yul\":7848:7991   */\n      swap3\n      swap2\n      pop\n      pop\n      jump\t// out\n        /* \"#utility.yul\":7997:8074   */\n    tag_110:\n      0x00\n        /* \"#utility.yul\":8063:8068   */\n      dup2\n        /* \"#utility.yul\":8052:8068   */\n      swap1\n      pop\n        /* \"#utility.yul\":8042:8074   */\n      swap2\n      swap1\n      pop\n      jump\t// out\n        /* \"#utility.yul\":8080:8387   */\n    tag_56:\n        /* \"#utility.yul\":8148:8149   */\n      0x00\n        /* \"#utility.yul\":8158:8271   */\n    tag_117:\n        /* \"#utility.yul\":8172:8178   */\n      dup4\n        /* \"#utility.yul\":8169:8170   */\n      dup2\n        /* \"#utility.yul\":8166:8179   */\n      lt\n        /* \"#utility.yul\":8158:8271   */\n      iszero\n      tag_119\n      jumpi\n        /* \"#utility.yul\":8257:8258   */\n      dup1\n        /* \"#utility.yul\":8252:8255   */\n      dup3\n        /* \"#utility.yul\":8248:8259   */\n      add\n        /* \"#utility.yul\":8242:8260   */\n      mload\n        /* \"#utility.yul\":8238:8239   */\n      dup2\n        /* \"#utility.yul\":8233:8236   */\n      dup5\n        /* \"#utility.yul\":8229:8240   */\n      add\n        /* \"#utility.yul\":8222:8261   */\n      mstore\n        /* \"#utility.yul\":8194:8196   */\n      0x20\n        /* \"#utility.yul\":8191:8192   */\n      dup2\n        /* \"#utility.yul\":8187:8197   */\n      add\n        /* \"#utility.yul\":8182:8197   */\n      swap1\n      pop\n        /* \"#utility.yul\":8158:8271   */\n      jump(tag_117)\n    tag_119:\n        /* \"#utility.yul\":8289:8295   */\n      dup4\n        /* \"#utility.yul\":8286:8287   */\n      dup2\n        /* \"#utility.yul\":8283:8296   */\n      gt\n        /* \"#utility.yul\":8280:8282   */\n      iszero\n      tag_120\n      jumpi\n        /* \"#utility.yul\":8369:8370   */\n      0x00\n        /* \"#utility.yul\":8360:8366   */\n      dup5\n        /* \"#utility.yul\":8355:8358   */\n      dup5\n        /* \"#utility.yul\":8351:8367   */\n      add\n        /* \"#utility.yul\":8344:8371   */\n      mstore\n        /* \"#utility.yul\":8280:8282   */\n    tag_120:\n        /* \"#utility.yul\":8129:8387   */\n      pop\n      pop\n      pop\n      pop\n      jump\t// out\n        /* \"#utility.yul\":8393:8713   */\n    tag_62:\n      0x00\n        /* \"#utility.yul\":8474:8475   */\n      0x02\n        /* \"#utility.yul\":8468:8472   */\n      dup3\n        /* \"#utility.yul\":8464:8476   */\n      div\n        /* \"#utility.yul\":8454:8476   */\n      swap1\n      pop\n        /* \"#utility.yul\":8521:8522   */\n      0x01\n        /* \"#utility.yul\":8515:8519   */\n      dup3\n        /* \"#utility.yul\":8511:8523   */\n      and\n        /* \"#utility.yul\":8542:8560   */\n      dup1\n        /* \"#utility.yul\":8532:8534   */\n      tag_122\n      jumpi\n        /* \"#utility.yul\":8598:8602   */\n      0x7f\n        /* \"#utility.yul\":8590:8596   */\n      dup3\n        /* \"#utility.yul\":8586:8603   */\n      and\n        /* \"#utility.yul\":8576:8603   */\n      swap2\n      pop\n        /* \"#utility.yul\":8532:8534   */\n    tag_122:\n        /* \"#utility.yul\":8660:8662   */\n      0x20\n        /* \"#utility.yul\":8652:8658   */\n      dup3\n        /* \"#utility.yul\":8649:8663   */\n      lt\n        /* \"#utility.yul\":8629:8647   */\n      dup2\n        /* \"#utility.yul\":8626:8664   */\n      eq\n        /* \"#utility.yul\":8623:8625   */\n      iszero\n      tag_123\n      jumpi\n        /* \"#utility.yul\":8679:8697   */\n      tag_124\n      tag_125\n      jump\t// in\n    tag_124:\n        /* \"#utility.yul\":8623:8625   */\n    tag_123:\n        /* \"#utility.yul\":8444:8713   */\n      pop\n      swap2\n      swap1\n      pop\n      jump\t// out\n        /* \"#utility.yul\":8719:8895   */\n    tag_20:\n      0x00\n        /* \"#utility.yul\":8768:8788   */\n      tag_127\n        /* \"#utility.yul\":8786:8787   */\n      dup3\n        /* \"#utility.yul\":8768:8788   */\n      tag_110\n      jump\t// in\n    tag_127:\n        /* \"#utility.yul\":8763:8788   */\n      swap2\n      pop\n        /* \"#utility.yul\":8802:8822   */\n      tag_128\n        /* \"#utility.yul\":8820:8821   */\n      dup4\n        /* \"#utility.yul\":8802:8822   */\n      tag_110\n      jump\t// in\n    tag_128:\n        /* \"#utility.yul\":8797:8822   */\n      swap3\n      pop\n        /* \"#utility.yul\":8841:8842   */\n      dup3\n        /* \"#utility.yul\":8831:8833   */\n      tag_129\n      jumpi\n        /* \"#utility.yul\":8846:8864   */\n      tag_130\n      tag_114\n      jump\t// in\n    tag_130:\n        /* \"#utility.yul\":8831:8833   */\n    tag_129:\n        /* \"#utility.yul\":8887:8888   */\n      dup3\n        /* \"#utility.yul\":8884:8885   */\n      dup3\n        /* \"#utility.yul\":8880:8889   */\n      mod\n        /* \"#utility.yul\":8875:8889   */\n      swap1\n      pop\n        /* \"#utility.yul\":8753:8895   */\n      swap3\n      swap2\n      pop\n      pop\n      jump\t// out\n        /* \"#utility.yul\":9087:9267   */\n    tag_114:\n        /* \"#utility.yul\":9135:9212   */\n      0x4e487b7100000000000000000000000000000000000000000000000000000000\n        /* \"#utility.yul\":9132:9133   */\n      0x00\n        /* \"#utility.yul\":9125:9213   */\n      mstore\n        /* \"#utility.yul\":9232:9236   */\n      0x12\n        /* \"#utility.yul\":9229:9230   */\n      0x04\n        /* \"#utility.yul\":9222:9237   */\n      mstore\n        /* \"#utility.yul\":9256:9260   */\n      0x24\n        /* \"#utility.yul\":9253:9254   */\n      0x00\n        /* \"#utility.yul\":9246:9261   */\n      revert\n        /* \"#utility.yul\":9273:9453   */\n    tag_125:\n        /* \"#utility.yul\":9321:9398   */\n      0x4e487b7100000000000000000000000000000000000000000000000000000000\n        /* \"#utility.yul\":9318:9319   */\n      0x00\n        /* \"#utility.yul\":9311:9399   */\n      mstore\n        /* \"#utility.yul\":9418:9422   */\n      0x22\n        /* \"#utility.yul\":9415:9416   */\n      0x04\n        /* \"#utility.yul\":9408:9423   */\n      mstore\n        /* \"#utility.yul\":9442:9446   */\n      0x24\n        /* \"#utility.yul\":9439:9440   */\n      0x00\n        /* \"#utility.yul\":9432:9447   */\n      revert\n        /* \"#utility.yul\":9459:9561   */\n    tag_58:\n      0x00\n        /* \"#utility.yul\":9551:9553   */\n      0x1f\n        /* \"#utility.yul\":9547:9554   */\n      not\n        /* \"#utility.yul\":9542:9544   */\n      0x1f\n        /* \"#utility.yul\":9535:9540   */\n      dup4\n        /* \"#utility.yul\":9531:9545   */\n      add\n        /* \"#utility.yul\":9527:9555   */\n      and\n        /* \"#utility.yul\":9517:9555   */\n      swap1\n      pop\n        /* \"#utility.yul\":9507:9561   */\n      swap2\n      swap1\n      pop\n      jump\t// out\n        /* \"#utility.yul\":9567:9689   */\n    tag_45:\n        /* \"#utility.yul\":9640:9664   */\n      tag_137\n        /* \"#utility.yul\":9658:9663   */\n      dup2\n        /* \"#utility.yul\":9640:9664   */\n      tag_110\n      jump\t// in\n    tag_137:\n        /* \"#utility.yul\":9633:9638   */\n      dup2\n        /* \"#utility.yul\":9630:9665   */\n      eq\n        /* \"#utility.yul\":9620:9622   */\n      tag_138\n      jumpi\n        /* \"#utility.yul\":9679:9680   */\n      0x00\n        /* \"#utility.yul\":9676:9677   */\n      dup1\n        /* \"#utility.yul\":9669:9681   */\n      revert\n        /* \"#utility.yul\":9620:9622   */\n    tag_138:\n        /* \"#utility.yul\":9610:9689   */\n      pop\n      jump\t// out\n\n    auxdata: 0xa264697066735822122085deef4e0d5c74208bdd5c4f3c380efe28b2a2439cbfe89e870c61e3316724df64736f6c63430008000033\n}\n",
				"bytecode": {
					"linkReferences": {},
					"object": "60806040526040518061028001604052806040518060400160405280600481526020017f5a65726f0000000000000000000000000000000000000000000000000000000081525081526020016040518060400160405280600381526020017f4f6e65000000000000000000000000000000000000000000000000000000000081525081526020016040518060400160405280600381526020017f54776f000000000000000000000000000000000000000000000000000000000081525081526020016040518060400160405280600581526020017f546872656500000000000000000000000000000000000000000000000000000081525081526020016040518060400160405280600481526020017f466f75720000000000000000000000000000000000000000000000000000000081525081526020016040518060400160405280600481526020017f466976650000000000000000000000000000000000000000000000000000000081525081526020016040518060400160405280600381526020017f536978000000000000000000000000000000000000000000000000000000000081525081526020016040518060400160405280600581526020017f536576656e00000000000000000000000000000000000000000000000000000081525081526020016040518060400160405280600581526020017f456967687400000000000000000000000000000000000000000000000000000081525081526020016040518060400160405280600481526020017f4e696e650000000000000000000000000000000000000000000000000000000081525081526020016040518060400160405280600381526020017f54656e000000000000000000000000000000000000000000000000000000000081525081526020016040518060400160405280600681526020017f456c6576656e000000000000000000000000000000000000000000000000000081525081526020016040518060400160405280600681526020017f5477656c7665000000000000000000000000000000000000000000000000000081525081526020016040518060400160405280600881526020017f546869727465656e00000000000000000000000000000000000000000000000081525081526020016040518060400160405280600881526020017f466f75727465656e00000000000000000000000000000000000000000000000081525081526020016040518060400160405280600781526020017f4669667465656e0000000000000000000000000000000000000000000000000081525081526020016040518060400160405280600781526020017f5369787465656e0000000000000000000000000000000000000000000000000081525081526020016040518060400160405280600981526020017f536576656e7465656e000000000000000000000000000000000000000000000081525081526020016040518060400160405280600881526020017f456967687465656e00000000000000000000000000000000000000000000000081525081526020016040518060400160405280600881526020017f4e696e657465656e0000000000000000000000000000000000000000000000008152508152506000906014620004bc929190620006f0565b506040518061014001604052806040518060200160405280600081525081526020016040518060200160405280600081525081526020016040518060400160405280600681526020017f5477656e7479000000000000000000000000000000000000000000000000000081525081526020016040518060400160405280600681526020017f546869727479000000000000000000000000000000000000000000000000000081525081526020016040518060400160405280600581526020017f466f72747900000000000000000000000000000000000000000000000000000081525081526020016040518060400160405280600581526020017f466966747900000000000000000000000000000000000000000000000000000081525081526020016040518060400160405280600581526020017f536978747900000000000000000000000000000000000000000000000000000081525081526020016040518060400160405280600781526020017f536576656e74790000000000000000000000000000000000000000000000000081525081526020016040518060400160405280600681526020017f456967687479000000000000000000000000000000000000000000000000000081525081526020016040518060400160405280600681526020017f4e696e6574790000000000000000000000000000000000000000000000000000815250815250601490600a620006db9291906200074a565b50348015620006e957600080fd5b5062000927565b826014810192821562000737579160200282015b828111156200073657825182908051906020019062000725929190620007a4565b509160200191906001019062000704565b5b50905062000746919062000835565b5090565b82600a810192821562000791579160200282015b82811115620007905782518290805190602001906200077f929190620007a4565b50916020019190600101906200075e565b5b509050620007a0919062000835565b5090565b828054620007b290620008c2565b90600052602060002090601f016020900481019282620007d6576000855562000822565b82601f10620007f157805160ff191683800117855562000822565b8280016001018555821562000822579182015b828111156200082157825182559160200191906001019062000804565b5b5090506200083191906200085d565b5090565b5b808211156200085957600081816200084f91906200087c565b5060010162000836565b5090565b5b80821115620008785760008160009055506001016200085e565b5090565b5080546200088a90620008c2565b6000825580601f106200089e5750620008bf565b601f016020900490600052602060002090810190620008be91906200085d565b5b50565b60006002820490506001821680620008db57607f821691505b60208210811415620008f257620008f1620008f8565b5b50919050565b7f4e487b7100000000000000000000000000000000000000000000000000000000600052602260045260246000fd5b6107a980620009376000396000f3fe608060405234801561001057600080fd5b506004361061002a5760003560e01c80628a61b81461002f575b600080fd5b61004960048036038101906100449190610338565b61005f565b60405161005691906105be565b60405180910390f35b606060148210156100cb57600082601481106100a4577f4e487b7100000000000000000000000000000000000000000000000000000000600052603260045260246000fd5b016040516020016100b59190610591565b604051602081830303815290604052905061031e565b6064821415610111576040518060400160405280600b81526020017f4f6e652048756e64726564000000000000000000000000000000000000000000815250905061031e565b6000600a83610120919061061c565b90506000600a8461013191906106bc565b9050600081141561019f57601482600a8110610176577f4e487b7100000000000000000000000000000000000000000000000000000000600052603260045260246000fd5b016040516020016101879190610591565b6040516020818303038152906040529250505061031e565b600a82101561024757601482600a81106101e2577f4e487b7100000000000000000000000000000000000000000000000000000000600052603260045260246000fd5b016000826014811061021d577f4e487b7100000000000000000000000000000000000000000000000000000000600052603260045260246000fd5b0160405160200161022f9291906104d9565b6040516020818303038152906040529250505061031e565b60008160148110610281577f4e487b7100000000000000000000000000000000000000000000000000000000600052603260045260246000fd5b01601482600a81106102bc577f4e487b7100000000000000000000000000000000000000000000000000000000600052603260045260246000fd5b01600083601481106102f7577f4e487b7100000000000000000000000000000000000000000000000000000000600052603260045260246000fd5b0160405160200161030a9392919061051e565b604051602081830303815290604052925050505b919050565b6000813590506103328161075c565b92915050565b60006020828403121561034a57600080fd5b600061035884828501610323565b91505092915050565b600061036c826105f5565b6103768185610600565b9350610386818560208601610657565b61038f8161074b565b840191505092915050565b600081546103a78161068a565b6103b18186610611565b945060018216600081146103cc57600181146103dd57610410565b60ff19831686528186019350610410565b6103e6856105e0565b60005b83811015610408578154818901526001820191506020810190506103e9565b838801955050505b50505092915050565b6000610426600183610611565b91507f20000000000000000000000000000000000000000000000000000000000000006000830152600182019050919050565b6000610466600783610611565b91507f48756e64726564000000000000000000000000000000000000000000000000006000830152600782019050919050565b60006104a6600683610611565b91507f52757065657300000000000000000000000000000000000000000000000000006000830152600682019050919050565b60006104e5828561039a565b91506104f082610419565b91506104fc828461039a565b915061050782610419565b915061051282610499565b91508190509392505050565b600061052a828661039a565b915061053582610419565b915061054082610459565b915061054b82610419565b9150610557828561039a565b915061056282610419565b915061056e828461039a565b915061057982610419565b915061058482610499565b9150819050949350505050565b600061059d828461039a565b91506105a882610419565b91506105b382610499565b915081905092915050565b600060208201905081810360008301526105d88184610361565b905092915050565b60008190508160005260206000209050919050565b600081519050919050565b600082825260208201905092915050565b600081905092915050565b60006106278261064d565b91506106328361064d565b925082610642576106416106ed565b5b828204905092915050565b6000819050919050565b60005b8381101561067557808201518184015260208101905061065a565b83811115610684576000848401525b50505050565b600060028204905060018216806106a257607f821691505b602082108114156106b6576106b561071c565b5b50919050565b60006106c78261064d565b91506106d28361064d565b9250826106e2576106e16106ed565b5b828206905092915050565b7f4e487b7100000000000000000000000000000000000000000000000000000000600052601260045260246000fd5b7f4e487b7100000000000000000000000000000000000000000000000000000000600052602260045260246000fd5b6000601f19601f8301169050919050565b6107658161064d565b811461077057600080fd5b5056fea264697066735822122085deef4e0d5c74208bdd5c4f3c380efe28b2a2439cbfe89e870c61e3316724df64736f6c63430008000033",
					"opcodes": "PUSH1 0x80 PUSH1 0x40 MSTORE PUSH1 0x40 MLOAD DUP1 PUSH2 0x280 ADD PUSH1 0x40 MSTORE DUP1 PUSH1 0x40 MLOAD DUP1 PUSH1 0x40 ADD PUSH1 0x40 MSTORE DUP1 PUSH1 0x4 DUP2 MSTORE PUSH1 0x20 ADD PUSH32 0x5A65726F00000000000000000000000000000000000000000000000000000000 DUP2 MSTORE POP DUP2 MSTORE PUSH1 0x20 ADD PUSH1 0x40 MLOAD DUP1 PUSH1 0x40 ADD PUSH1 0x40 MSTORE DUP1 PUSH1 0x3 DUP2 MSTORE PUSH1 0x20 ADD PUSH32 0x4F6E650000000000000000000000000000000000000000000000000000000000 DUP2 MSTORE POP DUP2 MSTORE PUSH1 0x20 ADD PUSH1 0x40 MLOAD DUP1 PUSH1 0x40 ADD PUSH1 0x40 MSTORE DUP1 PUSH1 0x3 DUP2 MSTORE PUSH1 0x20 ADD PUSH32 0x54776F0000000000000000000000000000000000000000000000000000000000 DUP2 MSTORE POP DUP2 MSTORE PUSH1 0x20 ADD PUSH1 0x40 MLOAD DUP1 PUSH1 0x40 ADD PUSH1 0x40 MSTORE DUP1 PUSH1 0x5 DUP2 MSTORE PUSH1 0x20 ADD PUSH32 0x5468726565000000000000000000000000000000000000000000000000000000 DUP2 MSTORE POP DUP2 MSTORE PUSH1 0x20 ADD PUSH1 0x40 MLOAD DUP1 PUSH1 0x40 ADD PUSH1 0x40 MSTORE DUP1 PUSH1 0x4 DUP2 MSTORE PUSH1 0x20 ADD PUSH32 0x466F757200000000000000000000000000000000000000000000000000000000 DUP2 MSTORE POP DUP2 MSTORE PUSH1 0x20 ADD PUSH1 0x40 MLOAD DUP1 PUSH1 0x40 ADD PUSH1 0x40 MSTORE DUP1 PUSH1 0x4 DUP2 MSTORE PUSH1 0x20 ADD PUSH32 0x4669766500000000000000000000000000000000000000000000000000000000 DUP2 MSTORE POP DUP2 MSTORE PUSH1 0x20 ADD PUSH1 0x40 MLOAD DUP1 PUSH1 0x40 ADD PUSH1 0x40 MSTORE DUP1 PUSH1 0x3 DUP2 MSTORE PUSH1 0x20 ADD PUSH32 0x5369780000000000000000000000000000000000000000000000000000000000 DUP2 MSTORE POP DUP2 MSTORE PUSH1 0x20 ADD PUSH1 0x40 MLOAD DUP1 PUSH1 0x40 ADD PUSH1 0x40 MSTORE DUP1 PUSH1 0x5 DUP2 MSTORE PUSH1 0x20 ADD PUSH32 0x536576656E000000000000000000000000000000000000000000000000000000 DUP2 MSTORE POP DUP2 MSTORE PUSH1 0x20 ADD PUSH1 0x40 MLOAD DUP1 PUSH1 0x40 ADD PUSH1 0x40 MSTORE DUP1 PUSH1 0x5 DUP2 MSTORE PUSH1 0x20 ADD PUSH32 0x4569676874000000000000000000000000000000000000000000000000000000 DUP2 MSTORE POP DUP2 MSTORE PUSH1 0x20 ADD PUSH1 0x40 MLOAD DUP1 PUSH1 0x40 ADD PUSH1 0x40 MSTORE DUP1 PUSH1 0x4 DUP2 MSTORE PUSH1 0x20 ADD PUSH32 0x4E696E6500000000000000000000000000000000000000000000000000000000 DUP2 MSTORE POP DUP2 MSTORE PUSH1 0x20 ADD PUSH1 0x40 MLOAD DUP1 PUSH1 0x40 ADD PUSH1 0x40 MSTORE DUP1 PUSH1 0x3 DUP2 MSTORE PUSH1 0x20 ADD PUSH32 0x54656E0000000000000000000000000000000000000000000000000000000000 DUP2 MSTORE POP DUP2 MSTORE PUSH1 0x20 ADD PUSH1 0x40 MLOAD DUP1 PUSH1 0x40 ADD PUSH1 0x40 MSTORE DUP1 PUSH1 0x6 DUP2 MSTORE PUSH1 0x20 ADD PUSH32 0x456C6576656E0000000000000000000000000000000000000000000000000000 DUP2 MSTORE POP DUP2 MSTORE PUSH1 0x20 ADD PUSH1 0x40 MLOAD DUP1 PUSH1 0x40 ADD PUSH1 0x40 MSTORE DUP1 PUSH1 0x6 DUP2 MSTORE PUSH1 0x20 ADD PUSH32 0x5477656C76650000000000000000000000000000000000000000000000000000 DUP2 MSTORE POP DUP2 MSTORE PUSH1 0x20 ADD PUSH1 0x40 MLOAD DUP1 PUSH1 0x40 ADD PUSH1 0x40 MSTORE DUP1 PUSH1 0x8 DUP2 MSTORE PUSH1 0x20 ADD PUSH32 0x546869727465656E000000000000000000000000000000000000000000000000 DUP2 MSTORE POP DUP2 MSTORE PUSH1 0x20 ADD PUSH1 0x40 MLOAD DUP1 PUSH1 0x40 ADD PUSH1 0x40 MSTORE DUP1 PUSH1 0x8 DUP2 MSTORE PUSH1 0x20 ADD PUSH32 0x466F75727465656E000000000000000000000000000000000000000000000000 DUP2 MSTORE POP DUP2 MSTORE PUSH1 0x20 ADD PUSH1 0x40 MLOAD DUP1 PUSH1 0x40 ADD PUSH1 0x40 MSTORE DUP1 PUSH1 0x7 DUP2 MSTORE PUSH1 0x20 ADD PUSH32 0x4669667465656E00000000000000000000000000000000000000000000000000 DUP2 MSTORE POP DUP2 MSTORE PUSH1 0x20 ADD PUSH1 0x40 MLOAD DUP1 PUSH1 0x40 ADD PUSH1 0x40 MSTORE DUP1 PUSH1 0x7 DUP2 MSTORE PUSH1 0x20 ADD PUSH32 0x5369787465656E00000000000000000000000000000000000000000000000000 DUP2 MSTORE POP DUP2 MSTORE PUSH1 0x20 ADD PUSH1 0x40 MLOAD DUP1 PUSH1 0x40 ADD PUSH1 0x40 MSTORE DUP1 PUSH1 0x9 DUP2 MSTORE PUSH1 0x20 ADD PUSH32 0x536576656E7465656E0000000000000000000000000000000000000000000000 DUP2 MSTORE POP DUP2 MSTORE PUSH1 0x20 ADD PUSH1 0x40 MLOAD DUP1 PUSH1 0x40 ADD PUSH1 0x40 MSTORE DUP1 PUSH1 0x8 DUP2 MSTORE PUSH1 0x20 ADD PUSH32 0x456967687465656E000000000000000000000000000000000000000000000000 DUP2 MSTORE POP DUP2 MSTORE PUSH1 0x20 ADD PUSH1 0x40 MLOAD DUP1 PUSH1 0x40 ADD PUSH1 0x40 MSTORE DUP1 PUSH1 0x8 DUP2 MSTORE PUSH1 0x20 ADD PUSH32 0x4E696E657465656E000000000000000000000000000000000000000000000000 DUP2 MSTORE POP DUP2 MSTORE POP PUSH1 0x0 SWAP1 PUSH1 0x14 PUSH3 0x4BC SWAP3 SWAP2 SWAP1 PUSH3 0x6F0 JUMP JUMPDEST POP PUSH1 0x40 MLOAD DUP1 PUSH2 0x140 ADD PUSH1 0x40 MSTORE DUP1 PUSH1 0x40 MLOAD DUP1 PUSH1 0x20 ADD PUSH1 0x40 MSTORE DUP1 PUSH1 0x0 DUP2 MSTORE POP DUP2 MSTORE PUSH1 0x20 ADD PUSH1 0x40 MLOAD DUP1 PUSH1 0x20 ADD PUSH1 0x40 MSTORE DUP1 PUSH1 0x0 DUP2 MSTORE POP DUP2 MSTORE PUSH1 0x20 ADD PUSH1 0x40 MLOAD DUP1 PUSH1 0x40 ADD PUSH1 0x40 MSTORE DUP1 PUSH1 0x6 DUP2 MSTORE PUSH1 0x20 ADD PUSH32 0x5477656E74790000000000000000000000000000000000000000000000000000 DUP2 MSTORE POP DUP2 MSTORE PUSH1 0x20 ADD PUSH1 0x40 MLOAD DUP1 PUSH1 0x40 ADD PUSH1 0x40 MSTORE DUP1 PUSH1 0x6 DUP2 MSTORE PUSH1 0x20 ADD PUSH32 0x5468697274790000000000000000000000000000000000000000000000000000 DUP2 MSTORE POP DUP2 MSTORE PUSH1 0x20 ADD PUSH1 0x40 MLOAD DUP1 PUSH1 0x40 ADD PUSH1 0x40 MSTORE DUP1 PUSH1 0x5 DUP2 MSTORE PUSH1 0x20 ADD PUSH32 0x466F727479000000000000000000000000000000000000000000000000000000 DUP2 MSTORE POP DUP2 MSTORE PUSH1 0x20 ADD PUSH1 0x40 MLOAD DUP1 PUSH1 0x40 ADD PUSH1 0x40 MSTORE DUP1 PUSH1 0x5 DUP2 MSTORE PUSH1 0x20 ADD PUSH32 0x4669667479000000000000000000000000000000000000000000000000000000 DUP2 MSTORE POP DUP2 MSTORE PUSH1 0x20 ADD PUSH1 0x40 MLOAD DUP1 PUSH1 0x40 ADD PUSH1 0x40 MSTORE DUP1 PUSH1 0x5 DUP2 MSTORE PUSH1 0x20 ADD PUSH32 0x5369787479000000000000000000000000000000000000000000000000000000 DUP2 MSTORE POP DUP2 MSTORE PUSH1 0x20 ADD PUSH1 0x40 MLOAD DUP1 PUSH1 0x40 ADD PUSH1 0x40 MSTORE DUP1 PUSH1 0x7 DUP2 MSTORE PUSH1 0x20 ADD PUSH32 0x536576656E747900000000000000000000000000000000000000000000000000 DUP2 MSTORE POP DUP2 MSTORE PUSH1 0x20 ADD PUSH1 0x40 MLOAD DUP1 PUSH1 0x40 ADD PUSH1 0x40 MSTORE DUP1 PUSH1 0x6 DUP2 MSTORE PUSH1 0x20 ADD PUSH32 0x4569676874790000000000000000000000000000000000000000000000000000 DUP2 MSTORE POP DUP2 MSTORE PUSH1 0x20 ADD PUSH1 0x40 MLOAD DUP1 PUSH1 0x40 ADD PUSH1 0x40 MSTORE DUP1 PUSH1 0x6 DUP2 MSTORE PUSH1 0x20 ADD PUSH32 0x4E696E6574790000000000000000000000000000000000000000000000000000 DUP2 MSTORE POP DUP2 MSTORE POP PUSH1 0x14 SWAP1 PUSH1 0xA PUSH3 0x6DB SWAP3 SWAP2 SWAP1 PUSH3 0x74A JUMP JUMPDEST POP CALLVALUE DUP1 ISZERO PUSH3 0x6E9 JUMPI PUSH1 0x0 DUP1 REVERT JUMPDEST POP PUSH3 0x927 JUMP JUMPDEST DUP3 PUSH1 0x14 DUP2 ADD SWAP3 DUP3 ISZERO PUSH3 0x737 JUMPI SWAP2 PUSH1 0x20 MUL DUP3 ADD JUMPDEST DUP3 DUP2 GT ISZERO PUSH3 0x736 JUMPI DUP3 MLOAD DUP3 SWAP1 DUP1 MLOAD SWAP1 PUSH1 0x20 ADD SWAP1 PUSH3 0x725 SWAP3 SWAP2 SWAP1 PUSH3 0x7A4 JUMP JUMPDEST POP SWAP2 PUSH1 0x20 ADD SWAP2 SWAP1 PUSH1 0x1 ADD SWAP1 PUSH3 0x704 JUMP JUMPDEST JUMPDEST POP SWAP1 POP PUSH3 0x746 SWAP2 SWAP1 PUSH3 0x835 JUMP JUMPDEST POP SWAP1 JUMP JUMPDEST DUP3 PUSH1 0xA DUP2 ADD SWAP3 DUP3 ISZERO PUSH3 0x791 JUMPI SWAP2 PUSH1 0x20 MUL DUP3 ADD JUMPDEST DUP3 DUP2 GT ISZERO PUSH3 0x790 JUMPI DUP3 MLOAD DUP3 SWAP1 DUP1 MLOAD SWAP1 PUSH1 0x20 ADD SWAP1 PUSH3 0x77F SWAP3 SWAP2 SWAP1 PUSH3 0x7A4 JUMP JUMPDEST POP SWAP2 PUSH1 0x20 ADD SWAP2 SWAP1 PUSH1 0x1 ADD SWAP1 PUSH3 0x75E JUMP JUMPDEST JUMPDEST POP SWAP1 POP PUSH3 0x7A0 SWAP2 SWAP1 PUSH3 0x835 JUMP JUMPDEST POP SWAP1 JUMP JUMPDEST DUP3 DUP1 SLOAD PUSH3 0x7B2 SWAP1 PUSH3 0x8C2 JUMP JUMPDEST SWAP1 PUSH1 0x0 MSTORE PUSH1 0x20 PUSH1 0x0 KECCAK256 SWAP1 PUSH1 0x1F ADD PUSH1 0x20 SWAP1 DIV DUP2 ADD SWAP3 DUP3 PUSH3 0x7D6 JUMPI PUSH1 0x0 DUP6 SSTORE PUSH3 0x822 JUMP JUMPDEST DUP3 PUSH1 0x1F LT PUSH3 0x7F1 JUMPI DUP1 MLOAD PUSH1 0xFF NOT AND DUP4 DUP1 ADD OR DUP6 SSTORE PUSH3 0x822 JUMP JUMPDEST DUP3 DUP1 ADD PUSH1 0x1 ADD DUP6 SSTORE DUP3 ISZERO PUSH3 0x822 JUMPI SWAP2 DUP3 ADD JUMPDEST DUP3 DUP2 GT ISZERO PUSH3 0x821 JUMPI DUP3 MLOAD DUP3 SSTORE SWAP2 PUSH1 0x20 ADD SWAP2 SWAP1 PUSH1 0x1 ADD SWAP1 PUSH3 0x804 JUMP JUMPDEST JUMPDEST POP SWAP1 POP PUSH3 0x831 SWAP2 SWAP1 PUSH3 0x85D JUMP JUMPDEST POP SWAP1 JUMP JUMPDEST JUMPDEST DUP1 DUP3 GT ISZERO PUSH3 0x859 JUMPI PUSH1 0x0 DUP2 DUP2 PUSH3 0x84F SWAP2 SWAP1 PUSH3 0x87C JUMP JUMPDEST POP PUSH1 0x1 ADD PUSH3 0x836 JUMP JUMPDEST POP SWAP1 JUMP JUMPDEST JUMPDEST DUP1 DUP3 GT ISZERO PUSH3 0x878 JUMPI PUSH1 0x0 DUP2 PUSH1 0x0 SWAP1 SSTORE POP PUSH1 0x1 ADD PUSH3 0x85E JUMP JUMPDEST POP SWAP1 JUMP JUMPDEST POP DUP1 SLOAD PUSH3 0x88A SWAP1 PUSH3 0x8C2 JUMP JUMPDEST PUSH1 0x0 DUP3 SSTORE DUP1 PUSH1 0x1F LT PUSH3 0x89E JUMPI POP PUSH3 0x8BF JUMP JUMPDEST PUSH1 0x1F ADD PUSH1 0x20 SWAP1 DIV SWAP1 PUSH1 0x0 MSTORE PUSH1 0x20 PUSH1 0x0 KECCAK256 SWAP1 DUP2 ADD SWAP1 PUSH3 0x8BE SWAP2 SWAP1 PUSH3 0x85D JUMP JUMPDEST JUMPDEST POP JUMP JUMPDEST PUSH1 0x0 PUSH1 0x2 DUP3 DIV SWAP1 POP PUSH1 0x1 DUP3 AND DUP1 PUSH3 0x8DB JUMPI PUSH1 0x7F DUP3 AND SWAP2 POP JUMPDEST PUSH1 0x20 DUP3 LT DUP2 EQ ISZERO PUSH3 0x8F2 JUMPI PUSH3 0x8F1 PUSH3 0x8F8 JUMP JUMPDEST JUMPDEST POP SWAP2 SWAP1 POP JUMP JUMPDEST PUSH32 0x4E487B7100000000000000000000000000000000000000000000000000000000 PUSH1 0x0 MSTORE PUSH1 0x22 PUSH1 0x4 MSTORE PUSH1 0x24 PUSH1 0x0 REVERT JUMPDEST PUSH2 0x7A9 DUP1 PUSH3 0x937 PUSH1 0x0 CODECOPY PUSH1 0x0 RETURN INVALID PUSH1 0x80 PUSH1 0x40 MSTORE CALLVALUE DUP1 ISZERO PUSH2 0x10 JUMPI PUSH1 0x0 DUP1 REVERT JUMPDEST POP PUSH1 0x4 CALLDATASIZE LT PUSH2 0x2A JUMPI PUSH1 0x0 CALLDATALOAD PUSH1 0xE0 SHR DUP1 PUSH3 0x8A61B8 EQ PUSH2 0x2F JUMPI JUMPDEST PUSH1 0x0 DUP1 REVERT JUMPDEST PUSH2 0x49 PUSH1 0x4 DUP1 CALLDATASIZE SUB DUP2 ADD SWAP1 PUSH2 0x44 SWAP2 SWAP1 PUSH2 0x338 JUMP JUMPDEST PUSH2 0x5F JUMP JUMPDEST PUSH1 0x40 MLOAD PUSH2 0x56 SWAP2 SWAP1 PUSH2 0x5BE JUMP JUMPDEST PUSH1 0x40 MLOAD DUP1 SWAP2 SUB SWAP1 RETURN JUMPDEST PUSH1 0x60 PUSH1 0x14 DUP3 LT ISZERO PUSH2 0xCB JUMPI PUSH1 0x0 DUP3 PUSH1 0x14 DUP2 LT PUSH2 0xA4 JUMPI PUSH32 0x4E487B7100000000000000000000000000000000000000000000000000000000 PUSH1 0x0 MSTORE PUSH1 0x32 PUSH1 0x4 MSTORE PUSH1 0x24 PUSH1 0x0 REVERT JUMPDEST ADD PUSH1 0x40 MLOAD PUSH1 0x20 ADD PUSH2 0xB5 SWAP2 SWAP1 PUSH2 0x591 JUMP JUMPDEST PUSH1 0x40 MLOAD PUSH1 0x20 DUP2 DUP4 SUB SUB DUP2 MSTORE SWAP1 PUSH1 0x40 MSTORE SWAP1 POP PUSH2 0x31E JUMP JUMPDEST PUSH1 0x64 DUP3 EQ ISZERO PUSH2 0x111 JUMPI PUSH1 0x40 MLOAD DUP1 PUSH1 0x40 ADD PUSH1 0x40 MSTORE DUP1 PUSH1 0xB DUP2 MSTORE PUSH1 0x20 ADD PUSH32 0x4F6E652048756E64726564000000000000000000000000000000000000000000 DUP2 MSTORE POP SWAP1 POP PUSH2 0x31E JUMP JUMPDEST PUSH1 0x0 PUSH1 0xA DUP4 PUSH2 0x120 SWAP2 SWAP1 PUSH2 0x61C JUMP JUMPDEST SWAP1 POP PUSH1 0x0 PUSH1 0xA DUP5 PUSH2 0x131 SWAP2 SWAP1 PUSH2 0x6BC JUMP JUMPDEST SWAP1 POP PUSH1 0x0 DUP2 EQ ISZERO PUSH2 0x19F JUMPI PUSH1 0x14 DUP3 PUSH1 0xA DUP2 LT PUSH2 0x176 JUMPI PUSH32 0x4E487B7100000000000000000000000000000000000000000000000000000000 PUSH1 0x0 MSTORE PUSH1 0x32 PUSH1 0x4 MSTORE PUSH1 0x24 PUSH1 0x0 REVERT JUMPDEST ADD PUSH1 0x40 MLOAD PUSH1 0x20 ADD PUSH2 0x187 SWAP2 SWAP1 PUSH2 0x591 JUMP JUMPDEST PUSH1 0x40 MLOAD PUSH1 0x20 DUP2 DUP4 SUB SUB DUP2 MSTORE SWAP1 PUSH1 0x40 MSTORE SWAP3 POP POP POP PUSH2 0x31E JUMP JUMPDEST PUSH1 0xA DUP3 LT ISZERO PUSH2 0x247 JUMPI PUSH1 0x14 DUP3 PUSH1 0xA DUP2 LT PUSH2 0x1E2 JUMPI PUSH32 0x4E487B7100000000000000000000000000000000000000000000000000000000 PUSH1 0x0 MSTORE PUSH1 0x32 PUSH1 0x4 MSTORE PUSH1 0x24 PUSH1 0x0 REVERT JUMPDEST ADD PUSH1 0x0 DUP3 PUSH1 0x14 DUP2 LT PUSH2 0x21D JUMPI PUSH32 0x4E487B7100000000000000000000000000000000000000000000000000000000 PUSH1 0x0 MSTORE PUSH1 0x32 PUSH1 0x4 MSTORE PUSH1 0x24 PUSH1 0x0 REVERT JUMPDEST ADD PUSH1 0x40 MLOAD PUSH1 0x20 ADD PUSH2 0x22F SWAP3 SWAP2 SWAP1 PUSH2 0x4D9 JUMP JUMPDEST PUSH1 0x40 MLOAD PUSH1 0x20 DUP2 DUP4 SUB SUB DUP2 MSTORE SWAP1 PUSH1 0x40 MSTORE SWAP3 POP POP POP PUSH2 0x31E JUMP JUMPDEST PUSH1 0x0 DUP2 PUSH1 0x14 DUP2 LT PUSH2 0x281 JUMPI PUSH32 0x4E487B7100000000000000000000000000000000000000000000000000000000 PUSH1 0x0 MSTORE PUSH1 0x32 PUSH1 0x4 MSTORE PUSH1 0x24 PUSH1 0x0 REVERT JUMPDEST ADD PUSH1 0x14 DUP3 PUSH1 0xA DUP2 LT PUSH2 0x2BC JUMPI PUSH32 0x4E487B7100000000000000000000000000000000000000000000000000000000 PUSH1 0x0 MSTORE PUSH1 0x32 PUSH1 0x4 MSTORE PUSH1 0x24 PUSH1 0x0 REVERT JUMPDEST ADD PUSH1 0x0 DUP4 PUSH1 0x14 DUP2 LT PUSH2 0x2F7 JUMPI PUSH32 0x4E487B7100000000000000000000000000000000000000000000000000000000 PUSH1 0x0 MSTORE PUSH1 0x32 PUSH1 0x4 MSTORE PUSH1 0x24 PUSH1 0x0 REVERT JUMPDEST ADD PUSH1 0x40 MLOAD PUSH1 0x20 ADD PUSH2 0x30A SWAP4 SWAP3 SWAP2 SWAP1 PUSH2 0x51E JUMP JUMPDEST PUSH1 0x40 MLOAD PUSH1 0x20 DUP2 DUP4 SUB SUB DUP2 MSTORE SWAP1 PUSH1 0x40 MSTORE SWAP3 POP POP POP JUMPDEST SWAP2 SWAP1 POP JUMP JUMPDEST PUSH1 0x0 DUP2 CALLDATALOAD SWAP1 POP PUSH2 0x332 DUP2 PUSH2 0x75C JUMP JUMPDEST SWAP3 SWAP2 POP POP JUMP JUMPDEST PUSH1 0x0 PUSH1 0x20 DUP3 DUP5 SUB SLT ISZERO PUSH2 0x34A JUMPI PUSH1 0x0 DUP1 REVERT JUMPDEST PUSH1 0x0 PUSH2 0x358 DUP5 DUP3 DUP6 ADD PUSH2 0x323 JUMP JUMPDEST SWAP2 POP POP SWAP3 SWAP2 POP POP JUMP JUMPDEST PUSH1 0x0 PUSH2 0x36C DUP3 PUSH2 0x5F5 JUMP JUMPDEST PUSH2 0x376 DUP2 DUP6 PUSH2 0x600 JUMP JUMPDEST SWAP4 POP PUSH2 0x386 DUP2 DUP6 PUSH1 0x20 DUP7 ADD PUSH2 0x657 JUMP JUMPDEST PUSH2 0x38F DUP2 PUSH2 0x74B JUMP JUMPDEST DUP5 ADD SWAP2 POP POP SWAP3 SWAP2 POP POP JUMP JUMPDEST PUSH1 0x0 DUP2 SLOAD PUSH2 0x3A7 DUP2 PUSH2 0x68A JUMP JUMPDEST PUSH2 0x3B1 DUP2 DUP7 PUSH2 0x611 JUMP JUMPDEST SWAP5 POP PUSH1 0x1 DUP3 AND PUSH1 0x0 DUP2 EQ PUSH2 0x3CC JUMPI PUSH1 0x1 DUP2 EQ PUSH2 0x3DD JUMPI PUSH2 0x410 JUMP JUMPDEST PUSH1 0xFF NOT DUP4 AND DUP7 MSTORE DUP2 DUP7 ADD SWAP4 POP PUSH2 0x410 JUMP JUMPDEST PUSH2 0x3E6 DUP6 PUSH2 0x5E0 JUMP JUMPDEST PUSH1 0x0 JUMPDEST DUP4 DUP2 LT ISZERO PUSH2 0x408 JUMPI DUP2 SLOAD DUP2 DUP10 ADD MSTORE PUSH1 0x1 DUP3 ADD SWAP2 POP PUSH1 0x20 DUP2 ADD SWAP1 POP PUSH2 0x3E9 JUMP JUMPDEST DUP4 DUP9 ADD SWAP6 POP POP POP JUMPDEST POP POP POP SWAP3 SWAP2 POP POP JUMP JUMPDEST PUSH1 0x0 PUSH2 0x426 PUSH1 0x1 DUP4 PUSH2 0x611 JUMP JUMPDEST SWAP2 POP PUSH32 0x2000000000000000000000000000000000000000000000000000000000000000 PUSH1 0x0 DUP4 ADD MSTORE PUSH1 0x1 DUP3 ADD SWAP1 POP SWAP2 SWAP1 POP JUMP JUMPDEST PUSH1 0x0 PUSH2 0x466 PUSH1 0x7 DUP4 PUSH2 0x611 JUMP JUMPDEST SWAP2 POP PUSH32 0x48756E6472656400000000000000000000000000000000000000000000000000 PUSH1 0x0 DUP4 ADD MSTORE PUSH1 0x7 DUP3 ADD SWAP1 POP SWAP2 SWAP1 POP JUMP JUMPDEST PUSH1 0x0 PUSH2 0x4A6 PUSH1 0x6 DUP4 PUSH2 0x611 JUMP JUMPDEST SWAP2 POP PUSH32 0x5275706565730000000000000000000000000000000000000000000000000000 PUSH1 0x0 DUP4 ADD MSTORE PUSH1 0x6 DUP3 ADD SWAP1 POP SWAP2 SWAP1 POP JUMP JUMPDEST PUSH1 0x0 PUSH2 0x4E5 DUP3 DUP6 PUSH2 0x39A JUMP JUMPDEST SWAP2 POP PUSH2 0x4F0 DUP3 PUSH2 0x419 JUMP JUMPDEST SWAP2 POP PUSH2 0x4FC DUP3 DUP5 PUSH2 0x39A JUMP JUMPDEST SWAP2 POP PUSH2 0x507 DUP3 PUSH2 0x419 JUMP JUMPDEST SWAP2 POP PUSH2 0x512 DUP3 PUSH2 0x499 JUMP JUMPDEST SWAP2 POP DUP2 SWAP1 POP SWAP4 SWAP3 POP POP POP JUMP JUMPDEST PUSH1 0x0 PUSH2 0x52A DUP3 DUP7 PUSH2 0x39A JUMP JUMPDEST SWAP2 POP PUSH2 0x535 DUP3 PUSH2 0x419 JUMP JUMPDEST SWAP2 POP PUSH2 0x540 DUP3 PUSH2 0x459 JUMP JUMPDEST SWAP2 POP PUSH2 0x54B DUP3 PUSH2 0x419 JUMP JUMPDEST SWAP2 POP PUSH2 0x557 DUP3 DUP6 PUSH2 0x39A JUMP JUMPDEST SWAP2 POP PUSH2 0x562 DUP3 PUSH2 0x419 JUMP JUMPDEST SWAP2 POP PUSH2 0x56E DUP3 DUP5 PUSH2 0x39A JUMP JUMPDEST SWAP2 POP PUSH2 0x579 DUP3 PUSH2 0x419 JUMP JUMPDEST SWAP2 POP PUSH2 0x584 DUP3 PUSH2 0x499 JUMP JUMPDEST SWAP2 POP DUP2 SWAP1 POP SWAP5 SWAP4 POP POP POP POP JUMP JUMPDEST PUSH1 0x0 PUSH2 0x59D DUP3 DUP5 PUSH2 0x39A JUMP JUMPDEST SWAP2 POP PUSH2 0x5A8 DUP3 PUSH2 0x419 JUMP JUMPDEST SWAP2 POP PUSH2 0x5B3 DUP3 PUSH2 0x499 JUMP JUMPDEST SWAP2 POP DUP2 SWAP1 POP SWAP3 SWAP2 POP POP JUMP JUMPDEST PUSH1 0x0 PUSH1 0x20 DUP3 ADD SWAP1 POP DUP2 DUP2 SUB PUSH1 0x0 DUP4 ADD MSTORE PUSH2 0x5D8 DUP2 DUP5 PUSH2 0x361 JUMP JUMPDEST SWAP1 POP SWAP3 SWAP2 POP POP JUMP JUMPDEST PUSH1 0x0 DUP2 SWAP1 POP DUP2 PUSH1 0x0 MSTORE PUSH1 0x20 PUSH1 0x0 KECCAK256 SWAP1 POP SWAP2 SWAP1 POP JUMP JUMPDEST PUSH1 0x0 DUP2 MLOAD SWAP1 POP SWAP2 SWAP1 POP JUMP JUMPDEST PUSH1 0x0 DUP3 DUP3 MSTORE PUSH1 0x20 DUP3 ADD SWAP1 POP SWAP3 SWAP2 POP POP JUMP JUMPDEST PUSH1 0x0 DUP2 SWAP1 POP SWAP3 SWAP2 POP POP JUMP JUMPDEST PUSH1 0x0 PUSH2 0x627 DUP3 PUSH2 0x64D JUMP JUMPDEST SWAP2 POP PUSH2 0x632 DUP4 PUSH2 0x64D JUMP JUMPDEST SWAP3 POP DUP3 PUSH2 0x642 JUMPI PUSH2 0x641 PUSH2 0x6ED JUMP JUMPDEST JUMPDEST DUP3 DUP3 DIV SWAP1 POP SWAP3 SWAP2 POP POP JUMP JUMPDEST PUSH1 0x0 DUP2 SWAP1 POP SWAP2 SWAP1 POP JUMP JUMPDEST PUSH1 0x0 JUMPDEST DUP4 DUP2 LT ISZERO PUSH2 0x675 JUMPI DUP1 DUP3 ADD MLOAD DUP2 DUP5 ADD MSTORE PUSH1 0x20 DUP2 ADD SWAP1 POP PUSH2 0x65A JUMP JUMPDEST DUP4 DUP2 GT ISZERO PUSH2 0x684 JUMPI PUSH1 0x0 DUP5 DUP5 ADD MSTORE JUMPDEST POP POP POP POP JUMP JUMPDEST PUSH1 0x0 PUSH1 0x2 DUP3 DIV SWAP1 POP PUSH1 0x1 DUP3 AND DUP1 PUSH2 0x6A2 JUMPI PUSH1 0x7F DUP3 AND SWAP2 POP JUMPDEST PUSH1 0x20 DUP3 LT DUP2 EQ ISZERO PUSH2 0x6B6 JUMPI PUSH2 0x6B5 PUSH2 0x71C JUMP JUMPDEST JUMPDEST POP SWAP2 SWAP1 POP JUMP JUMPDEST PUSH1 0x0 PUSH2 0x6C7 DUP3 PUSH2 0x64D JUMP JUMPDEST SWAP2 POP PUSH2 0x6D2 DUP4 PUSH2 0x64D JUMP JUMPDEST SWAP3 POP DUP3 PUSH2 0x6E2 JUMPI PUSH2 0x6E1 PUSH2 0x6ED JUMP JUMPDEST JUMPDEST DUP3 DUP3 MOD SWAP1 POP SWAP3 SWAP2 POP POP JUMP JUMPDEST PUSH32 0x4E487B7100000000000000000000000000000000000000000000000000000000 PUSH1 0x0 MSTORE PUSH1 0x12 PUSH1 0x4 MSTORE PUSH1 0x24 PUSH1 0x0 REVERT JUMPDEST PUSH32 0x4E487B7100000000000000000000000000000000000000000000000000000000 PUSH1 0x0 MSTORE PUSH1 0x22 PUSH1 0x4 MSTORE PUSH1 0x24 PUSH1 0x0 REVERT JUMPDEST PUSH1 0x0 PUSH1 0x1F NOT PUSH1 0x1F DUP4 ADD AND SWAP1 POP SWAP2 SWAP1 POP JUMP JUMPDEST PUSH2 0x765 DUP2 PUSH2 0x64D JUMP JUMPDEST DUP2 EQ PUSH2 0x770 JUMPI PUSH1 0x0 DUP1 REVERT JUMPDEST POP JUMP INVALID LOG2 PUSH5 0x6970667358 0x22 SLT KECCAK256 DUP6 0xDE 0xEF 0x4E 0xD 0x5C PUSH21 0x208BDD5C4F3C380EFE28B2A2439CBFE89E870C61E3 BALANCE PUSH8 0x24DF64736F6C6343 STOP ADDMOD STOP STOP CALLER "
				},
				"gasEstimates": {
					"creation": {
						"codeDepositCost": "392200",
						"executionCost": "infinite",
						"totalCost": "infinite"
					},
					"external": {
						"NumToWord_rupees(uint256)": "infinite"
					}
				},
				"methodIdentifiers": {
					"NumToWord_rupees(uint256)": "008a61b8"
				}
			},
			"storageLayout": {
				"storage": [
					{
						"astId": 26,
						"contract": "learning/20may/thousandToword.sol:HundredToWord",
						"label": "units",
						"offset": 0,
						"slot": "0",
						"type": "t_array(t_string_storage)20_storage"
					},
					{
						"astId": 41,
						"contract": "learning/20may/thousandToword.sol:HundredToWord",
						"label": "tens",
						"offset": 0,
						"slot": "20",
						"type": "t_array(t_string_storage)10_storage"
					}
				],
				"types": {
					"t_array(t_string_storage)10_storage": {
						"base": "t_string_storage",
						"encoding": "inplace",
						"label": "string[10]",
						"numberOfBytes": "320"
					},
					"t_array(t_string_storage)20_storage": {
						"base": "t_string_storage",
						"encoding": "inplace",
						"label": "string[20]",
						"numberOfBytes": "640"
					},
					"t_string_storage": {
						"encoding": "bytes",
						"label": "string",
						"numberOfBytes": "32"
					}
				}
			},
			"userdoc": {
				"kind": "user",
				"methods": {},
				"version": 1
			}
		}
	}
}