{
	"Practice/StudentAttendance.sol": {
		"StudentAttendance": {
			"abi": [
				{
					"inputs": [
						{
							"internalType": "bool",
							"name": "attend",
							"type": "bool"
						}
					],
					"name": "CSE",
					"outputs": [],
					"stateMutability": "nonpayable",
					"type": "function"
				},
				{
					"inputs": [
						{
							"internalType": "bool",
							"name": "attend",
							"type": "bool"
						}
					],
					"name": "English",
					"outputs": [],
					"stateMutability": "nonpayable",
					"type": "function"
				},
				{
					"inputs": [
						{
							"internalType": "bool",
							"name": "attend",
							"type": "bool"
						}
					],
					"name": "IT",
					"outputs": [],
					"stateMutability": "nonpayable",
					"type": "function"
				},
				{
					"inputs": [
						{
							"internalType": "bool",
							"name": "attend",
							"type": "bool"
						}
					],
					"name": "SSt",
					"outputs": [],
					"stateMutability": "nonpayable",
					"type": "function"
				},
				{
					"inputs": [
						{
							"internalType": "bool",
							"name": "attend",
							"type": "bool"
						}
					],
					"name": "Science",
					"outputs": [],
					"stateMutability": "nonpayable",
					"type": "function"
				},
				{
					"inputs": [],
					"name": "Total_count",
					"outputs": [
						{
							"internalType": "uint256",
							"name": "",
							"type": "uint256"
						}
					],
					"stateMutability": "view",
					"type": "function"
				}
			],
			"devdoc": {
				"kind": "dev",
				"methods": {},
				"version": 1
			},
			"evm": {
				"assembly": "    /* \"Practice/StudentAttendance.sol\":393:1626  contract StudentAttendance{\r... */\n  mstore(0x40, 0x80)\n  callvalue\n  dup1\n  iszero\n  tag_1\n  jumpi\n  0x00\n  dup1\n  revert\ntag_1:\n  pop\n  dataSize(sub_0)\n  dup1\n  dataOffset(sub_0)\n  0x00\n  codecopy\n  0x00\n  return\nstop\n\nsub_0: assembly {\n        /* \"Practice/StudentAttendance.sol\":393:1626  contract StudentAttendance{\r... */\n      mstore(0x40, 0x80)\n      callvalue\n      dup1\n      iszero\n      tag_1\n      jumpi\n      0x00\n      dup1\n      revert\n    tag_1:\n      pop\n      jumpi(tag_2, lt(calldatasize, 0x04))\n      shr(0xe0, calldataload(0x00))\n      dup1\n      0x160a9cf1\n      eq\n      tag_3\n      jumpi\n      dup1\n      0x21df348b\n      eq\n      tag_4\n      jumpi\n      dup1\n      0x4e0ac65c\n      eq\n      tag_5\n      jumpi\n      dup1\n      0xb90651ea\n      eq\n      tag_6\n      jumpi\n      dup1\n      0xce75bb24\n      eq\n      tag_7\n      jumpi\n      dup1\n      0xf5d05a6f\n      eq\n      tag_8\n      jumpi\n    tag_2:\n      0x00\n      dup1\n      revert\n        /* \"Practice/StudentAttendance.sol\":788:993  function Science(bool attend) public{\r... */\n    tag_3:\n      tag_9\n      0x04\n      dup1\n      calldatasize\n      sub\n      dup2\n      add\n      swap1\n      tag_10\n      swap2\n      swap1\n      tag_11\n      jump\t// in\n    tag_10:\n      tag_12\n      jump\t// in\n    tag_9:\n      stop\n        /* \"Practice/StudentAttendance.sol\":578:780  function CSE(bool attend) public{\r... */\n    tag_4:\n      tag_13\n      0x04\n      dup1\n      calldatasize\n      sub\n      dup2\n      add\n      swap1\n      tag_14\n      swap2\n      swap1\n      tag_11\n      jump\t// in\n    tag_14:\n      tag_15\n      jump\t// in\n    tag_13:\n      stop\n        /* \"Practice/StudentAttendance.sol\":1001:1202  function SSt(bool attend) public{\r... */\n    tag_5:\n      tag_16\n      0x04\n      dup1\n      calldatasize\n      sub\n      dup2\n      add\n      swap1\n      tag_17\n      swap2\n      swap1\n      tag_11\n      jump\t// in\n    tag_17:\n      tag_18\n      jump\t// in\n    tag_16:\n      stop\n        /* \"Practice/StudentAttendance.sol\":1210:1408  function IT(bool attend) public{\r... */\n    tag_6:\n      tag_19\n      0x04\n      dup1\n      calldatasize\n      sub\n      dup2\n      add\n      swap1\n      tag_20\n      swap2\n      swap1\n      tag_11\n      jump\t// in\n    tag_20:\n      tag_21\n      jump\t// in\n    tag_19:\n      stop\n        /* \"Practice/StudentAttendance.sol\":447:470  uint public Total_count */\n    tag_7:\n      tag_22\n      tag_23\n      jump\t// in\n    tag_22:\n      mload(0x40)\n      tag_24\n      swap2\n      swap1\n      tag_25\n      jump\t// in\n    tag_24:\n      mload(0x40)\n      dup1\n      swap2\n      sub\n      swap1\n      return\n        /* \"Practice/StudentAttendance.sol\":1416:1621  function English(bool attend) public{\r... */\n    tag_8:\n      tag_26\n      0x04\n      dup1\n      calldatasize\n      sub\n      dup2\n      add\n      swap1\n      tag_27\n      swap2\n      swap1\n      tag_11\n      jump\t// in\n    tag_27:\n      tag_28\n      jump\t// in\n    tag_26:\n      stop\n        /* \"Practice/StudentAttendance.sol\":788:993  function Science(bool attend) public{\r... */\n    tag_12:\n        /* \"Practice/StudentAttendance.sol\":846:850  true */\n      0x01\n        /* \"Practice/StudentAttendance.sol\":838:850  attend==true */\n      iszero\n      iszero\n        /* \"Practice/StudentAttendance.sol\":838:844  attend */\n      dup2\n        /* \"Practice/StudentAttendance.sol\":838:850  attend==true */\n      iszero\n      iszero\n      eq\n        /* \"Practice/StudentAttendance.sol\":838:864  attend==true && SCIcount<1 */\n      dup1\n      iszero\n      tag_30\n      jumpi\n      pop\n        /* \"Practice/StudentAttendance.sol\":863:864  1 */\n      0x01\n        /* \"Practice/StudentAttendance.sol\":854:862  SCIcount */\n      sload(0x03)\n        /* \"Practice/StudentAttendance.sol\":854:864  SCIcount<1 */\n      lt\n        /* \"Practice/StudentAttendance.sol\":838:864  attend==true && SCIcount<1 */\n    tag_30:\n        /* \"Practice/StudentAttendance.sol\":835:959  if(attend==true && SCIcount<1){\r... */\n      iszero\n      tag_31\n      jumpi\n        /* \"Practice/StudentAttendance.sol\":890:894  true */\n      0x01\n        /* \"Practice/StudentAttendance.sol\":880:889  isPresent */\n      0x00\n      dup1\n        /* \"Practice/StudentAttendance.sol\":880:894  isPresent=true */\n      0x0100\n      exp\n      dup2\n      sload\n      dup2\n      0xff\n      mul\n      not\n      and\n      swap1\n      dup4\n      iszero\n      iszero\n      mul\n      or\n      swap1\n      sstore\n      pop\n        /* \"Practice/StudentAttendance.sol\":909:917  SCIcount */\n      0x03\n      0x00\n        /* \"Practice/StudentAttendance.sol\":909:919  SCIcount++ */\n      dup2\n      sload\n      dup1\n      swap3\n      swap2\n      swap1\n      tag_32\n      swap1\n      tag_33\n      jump\t// in\n    tag_32:\n      swap2\n      swap1\n      pop\n      sstore\n      pop\n        /* \"Practice/StudentAttendance.sol\":934:945  Total_count */\n      0x01\n      0x00\n        /* \"Practice/StudentAttendance.sol\":934:947  Total_count++ */\n      dup2\n      sload\n      dup1\n      swap3\n      swap2\n      swap1\n      tag_34\n      swap1\n      tag_33\n      jump\t// in\n    tag_34:\n      swap2\n      swap1\n      pop\n      sstore\n      pop\n        /* \"Practice/StudentAttendance.sol\":835:959  if(attend==true && SCIcount<1){\r... */\n    tag_31:\n        /* \"Practice/StudentAttendance.sol\":980:985  false */\n      0x00\n        /* \"Practice/StudentAttendance.sol\":969:978  isPresent */\n      dup1\n      0x00\n        /* \"Practice/StudentAttendance.sol\":969:985  isPresent= false */\n      0x0100\n      exp\n      dup2\n      sload\n      dup2\n      0xff\n      mul\n      not\n      and\n      swap1\n      dup4\n      iszero\n      iszero\n      mul\n      or\n      swap1\n      sstore\n      pop\n        /* \"Practice/StudentAttendance.sol\":788:993  function Science(bool attend) public{\r... */\n      pop\n      jump\t// out\n        /* \"Practice/StudentAttendance.sol\":578:780  function CSE(bool attend) public{\r... */\n    tag_15:\n        /* \"Practice/StudentAttendance.sol\":632:636  true */\n      0x01\n        /* \"Practice/StudentAttendance.sol\":624:636  attend==true */\n      iszero\n      iszero\n        /* \"Practice/StudentAttendance.sol\":624:630  attend */\n      dup2\n        /* \"Practice/StudentAttendance.sol\":624:636  attend==true */\n      iszero\n      iszero\n      eq\n        /* \"Practice/StudentAttendance.sol\":624:650  attend==true && CSEcount<1 */\n      dup1\n      iszero\n      tag_36\n      jumpi\n      pop\n        /* \"Practice/StudentAttendance.sol\":649:650  1 */\n      0x01\n        /* \"Practice/StudentAttendance.sol\":640:648  CSEcount */\n      sload(0x02)\n        /* \"Practice/StudentAttendance.sol\":640:650  CSEcount<1 */\n      lt\n        /* \"Practice/StudentAttendance.sol\":624:650  attend==true && CSEcount<1 */\n    tag_36:\n        /* \"Practice/StudentAttendance.sol\":621:745  if(attend==true && CSEcount<1){\r... */\n      iszero\n      tag_37\n      jumpi\n        /* \"Practice/StudentAttendance.sol\":676:680  true */\n      0x01\n        /* \"Practice/StudentAttendance.sol\":666:675  isPresent */\n      0x00\n      dup1\n        /* \"Practice/StudentAttendance.sol\":666:680  isPresent=true */\n      0x0100\n      exp\n      dup2\n      sload\n      dup2\n      0xff\n      mul\n      not\n      and\n      swap1\n      dup4\n      iszero\n      iszero\n      mul\n      or\n      swap1\n      sstore\n      pop\n        /* \"Practice/StudentAttendance.sol\":695:703  CSEcount */\n      0x02\n      0x00\n        /* \"Practice/StudentAttendance.sol\":695:705  CSEcount++ */\n      dup2\n      sload\n      dup1\n      swap3\n      swap2\n      swap1\n      tag_38\n      swap1\n      tag_33\n      jump\t// in\n    tag_38:\n      swap2\n      swap1\n      pop\n      sstore\n      pop\n        /* \"Practice/StudentAttendance.sol\":720:731  Total_count */\n      0x01\n      0x00\n        /* \"Practice/StudentAttendance.sol\":720:733  Total_count++ */\n      dup2\n      sload\n      dup1\n      swap3\n      swap2\n      swap1\n      tag_39\n      swap1\n      tag_33\n      jump\t// in\n    tag_39:\n      swap2\n      swap1\n      pop\n      sstore\n      pop\n        /* \"Practice/StudentAttendance.sol\":621:745  if(attend==true && CSEcount<1){\r... */\n    tag_37:\n        /* \"Practice/StudentAttendance.sol\":767:772  false */\n      0x00\n        /* \"Practice/StudentAttendance.sol\":755:764  isPresent */\n      dup1\n      0x00\n        /* \"Practice/StudentAttendance.sol\":755:772  isPresent = false */\n      0x0100\n      exp\n      dup2\n      sload\n      dup2\n      0xff\n      mul\n      not\n      and\n      swap1\n      dup4\n      iszero\n      iszero\n      mul\n      or\n      swap1\n      sstore\n      pop\n        /* \"Practice/StudentAttendance.sol\":578:780  function CSE(bool attend) public{\r... */\n      pop\n      jump\t// out\n        /* \"Practice/StudentAttendance.sol\":1001:1202  function SSt(bool attend) public{\r... */\n    tag_18:\n        /* \"Practice/StudentAttendance.sol\":1055:1059  true */\n      0x01\n        /* \"Practice/StudentAttendance.sol\":1047:1059  attend==true */\n      iszero\n      iszero\n        /* \"Practice/StudentAttendance.sol\":1047:1053  attend */\n      dup2\n        /* \"Practice/StudentAttendance.sol\":1047:1059  attend==true */\n      iszero\n      iszero\n      eq\n        /* \"Practice/StudentAttendance.sol\":1047:1073  attend==true && SSTcount<1 */\n      dup1\n      iszero\n      tag_41\n      jumpi\n      pop\n        /* \"Practice/StudentAttendance.sol\":1072:1073  1 */\n      0x01\n        /* \"Practice/StudentAttendance.sol\":1063:1071  SSTcount */\n      sload(0x04)\n        /* \"Practice/StudentAttendance.sol\":1063:1073  SSTcount<1 */\n      lt\n        /* \"Practice/StudentAttendance.sol\":1047:1073  attend==true && SSTcount<1 */\n    tag_41:\n        /* \"Practice/StudentAttendance.sol\":1044:1168  if(attend==true && SSTcount<1){\r... */\n      iszero\n      tag_42\n      jumpi\n        /* \"Practice/StudentAttendance.sol\":1099:1103  true */\n      0x01\n        /* \"Practice/StudentAttendance.sol\":1089:1098  isPresent */\n      0x00\n      dup1\n        /* \"Practice/StudentAttendance.sol\":1089:1103  isPresent=true */\n      0x0100\n      exp\n      dup2\n      sload\n      dup2\n      0xff\n      mul\n      not\n      and\n      swap1\n      dup4\n      iszero\n      iszero\n      mul\n      or\n      swap1\n      sstore\n      pop\n        /* \"Practice/StudentAttendance.sol\":1118:1126  SSTcount */\n      0x04\n      0x00\n        /* \"Practice/StudentAttendance.sol\":1118:1128  SSTcount++ */\n      dup2\n      sload\n      dup1\n      swap3\n      swap2\n      swap1\n      tag_43\n      swap1\n      tag_33\n      jump\t// in\n    tag_43:\n      swap2\n      swap1\n      pop\n      sstore\n      pop\n        /* \"Practice/StudentAttendance.sol\":1143:1154  Total_count */\n      0x01\n      0x00\n        /* \"Practice/StudentAttendance.sol\":1143:1156  Total_count++ */\n      dup2\n      sload\n      dup1\n      swap3\n      swap2\n      swap1\n      tag_44\n      swap1\n      tag_33\n      jump\t// in\n    tag_44:\n      swap2\n      swap1\n      pop\n      sstore\n      pop\n        /* \"Practice/StudentAttendance.sol\":1044:1168  if(attend==true && SSTcount<1){\r... */\n    tag_42:\n        /* \"Practice/StudentAttendance.sol\":1189:1194  false */\n      0x00\n        /* \"Practice/StudentAttendance.sol\":1178:1187  isPresent */\n      dup1\n      0x00\n        /* \"Practice/StudentAttendance.sol\":1178:1194  isPresent= false */\n      0x0100\n      exp\n      dup2\n      sload\n      dup2\n      0xff\n      mul\n      not\n      and\n      swap1\n      dup4\n      iszero\n      iszero\n      mul\n      or\n      swap1\n      sstore\n      pop\n        /* \"Practice/StudentAttendance.sol\":1001:1202  function SSt(bool attend) public{\r... */\n      pop\n      jump\t// out\n        /* \"Practice/StudentAttendance.sol\":1210:1408  function IT(bool attend) public{\r... */\n    tag_21:\n        /* \"Practice/StudentAttendance.sol\":1263:1267  true */\n      0x01\n        /* \"Practice/StudentAttendance.sol\":1255:1267  attend==true */\n      iszero\n      iszero\n        /* \"Practice/StudentAttendance.sol\":1255:1261  attend */\n      dup2\n        /* \"Practice/StudentAttendance.sol\":1255:1267  attend==true */\n      iszero\n      iszero\n      eq\n        /* \"Practice/StudentAttendance.sol\":1255:1280  attend==true && ITcount<1 */\n      dup1\n      iszero\n      tag_46\n      jumpi\n      pop\n        /* \"Practice/StudentAttendance.sol\":1279:1280  1 */\n      0x01\n        /* \"Practice/StudentAttendance.sol\":1271:1278  ITcount */\n      sload(0x05)\n        /* \"Practice/StudentAttendance.sol\":1271:1280  ITcount<1 */\n      lt\n        /* \"Practice/StudentAttendance.sol\":1255:1280  attend==true && ITcount<1 */\n    tag_46:\n        /* \"Practice/StudentAttendance.sol\":1252:1374  if(attend==true && ITcount<1){\r... */\n      iszero\n      tag_47\n      jumpi\n        /* \"Practice/StudentAttendance.sol\":1306:1310  true */\n      0x01\n        /* \"Practice/StudentAttendance.sol\":1296:1305  isPresent */\n      0x00\n      dup1\n        /* \"Practice/StudentAttendance.sol\":1296:1310  isPresent=true */\n      0x0100\n      exp\n      dup2\n      sload\n      dup2\n      0xff\n      mul\n      not\n      and\n      swap1\n      dup4\n      iszero\n      iszero\n      mul\n      or\n      swap1\n      sstore\n      pop\n        /* \"Practice/StudentAttendance.sol\":1325:1332  ITcount */\n      0x05\n      0x00\n        /* \"Practice/StudentAttendance.sol\":1325:1334  ITcount++ */\n      dup2\n      sload\n      dup1\n      swap3\n      swap2\n      swap1\n      tag_48\n      swap1\n      tag_33\n      jump\t// in\n    tag_48:\n      swap2\n      swap1\n      pop\n      sstore\n      pop\n        /* \"Practice/StudentAttendance.sol\":1349:1360  Total_count */\n      0x01\n      0x00\n        /* \"Practice/StudentAttendance.sol\":1349:1362  Total_count++ */\n      dup2\n      sload\n      dup1\n      swap3\n      swap2\n      swap1\n      tag_49\n      swap1\n      tag_33\n      jump\t// in\n    tag_49:\n      swap2\n      swap1\n      pop\n      sstore\n      pop\n        /* \"Practice/StudentAttendance.sol\":1252:1374  if(attend==true && ITcount<1){\r... */\n    tag_47:\n        /* \"Practice/StudentAttendance.sol\":1395:1400  false */\n      0x00\n        /* \"Practice/StudentAttendance.sol\":1384:1393  isPresent */\n      dup1\n      0x00\n        /* \"Practice/StudentAttendance.sol\":1384:1400  isPresent= false */\n      0x0100\n      exp\n      dup2\n      sload\n      dup2\n      0xff\n      mul\n      not\n      and\n      swap1\n      dup4\n      iszero\n      iszero\n      mul\n      or\n      swap1\n      sstore\n      pop\n        /* \"Practice/StudentAttendance.sol\":1210:1408  function IT(bool attend) public{\r... */\n      pop\n      jump\t// out\n        /* \"Practice/StudentAttendance.sol\":447:470  uint public Total_count */\n    tag_23:\n      sload(0x01)\n      dup2\n      jump\t// out\n        /* \"Practice/StudentAttendance.sol\":1416:1621  function English(bool attend) public{\r... */\n    tag_28:\n        /* \"Practice/StudentAttendance.sol\":1474:1478  true */\n      0x01\n        /* \"Practice/StudentAttendance.sol\":1466:1478  attend==true */\n      iszero\n      iszero\n        /* \"Practice/StudentAttendance.sol\":1466:1472  attend */\n      dup2\n        /* \"Practice/StudentAttendance.sol\":1466:1478  attend==true */\n      iszero\n      iszero\n      eq\n        /* \"Practice/StudentAttendance.sol\":1466:1492  attend==true && ENGcount<1 */\n      dup1\n      iszero\n      tag_51\n      jumpi\n      pop\n        /* \"Practice/StudentAttendance.sol\":1491:1492  1 */\n      0x01\n        /* \"Practice/StudentAttendance.sol\":1482:1490  ENGcount */\n      sload(0x06)\n        /* \"Practice/StudentAttendance.sol\":1482:1492  ENGcount<1 */\n      lt\n        /* \"Practice/StudentAttendance.sol\":1466:1492  attend==true && ENGcount<1 */\n    tag_51:\n        /* \"Practice/StudentAttendance.sol\":1463:1587  if(attend==true && ENGcount<1){\r... */\n      iszero\n      tag_52\n      jumpi\n        /* \"Practice/StudentAttendance.sol\":1518:1522  true */\n      0x01\n        /* \"Practice/StudentAttendance.sol\":1508:1517  isPresent */\n      0x00\n      dup1\n        /* \"Practice/StudentAttendance.sol\":1508:1522  isPresent=true */\n      0x0100\n      exp\n      dup2\n      sload\n      dup2\n      0xff\n      mul\n      not\n      and\n      swap1\n      dup4\n      iszero\n      iszero\n      mul\n      or\n      swap1\n      sstore\n      pop\n        /* \"Practice/StudentAttendance.sol\":1537:1545  ENGcount */\n      0x06\n      0x00\n        /* \"Practice/StudentAttendance.sol\":1537:1547  ENGcount++ */\n      dup2\n      sload\n      dup1\n      swap3\n      swap2\n      swap1\n      tag_53\n      swap1\n      tag_33\n      jump\t// in\n    tag_53:\n      swap2\n      swap1\n      pop\n      sstore\n      pop\n        /* \"Practice/StudentAttendance.sol\":1562:1573  Total_count */\n      0x01\n      0x00\n        /* \"Practice/StudentAttendance.sol\":1562:1575  Total_count++ */\n      dup2\n      sload\n      dup1\n      swap3\n      swap2\n      swap1\n      tag_54\n      swap1\n      tag_33\n      jump\t// in\n    tag_54:\n      swap2\n      swap1\n      pop\n      sstore\n      pop\n        /* \"Practice/StudentAttendance.sol\":1463:1587  if(attend==true && ENGcount<1){\r... */\n    tag_52:\n        /* \"Practice/StudentAttendance.sol\":1608:1613  false */\n      0x00\n        /* \"Practice/StudentAttendance.sol\":1597:1606  isPresent */\n      dup1\n      0x00\n        /* \"Practice/StudentAttendance.sol\":1597:1613  isPresent= false */\n      0x0100\n      exp\n      dup2\n      sload\n      dup2\n      0xff\n      mul\n      not\n      and\n      swap1\n      dup4\n      iszero\n      iszero\n      mul\n      or\n      swap1\n      sstore\n      pop\n        /* \"Practice/StudentAttendance.sol\":1416:1621  function English(bool attend) public{\r... */\n      pop\n      jump\t// out\n        /* \"#utility.yul\":7:140   */\n    tag_56:\n      0x00\n        /* \"#utility.yul\":88:94   */\n      dup2\n        /* \"#utility.yul\":75:95   */\n      calldataload\n        /* \"#utility.yul\":66:95   */\n      swap1\n      pop\n        /* \"#utility.yul\":104:134   */\n      tag_58\n        /* \"#utility.yul\":128:133   */\n      dup2\n        /* \"#utility.yul\":104:134   */\n      tag_59\n      jump\t// in\n    tag_58:\n        /* \"#utility.yul\":56:140   */\n      swap3\n      swap2\n      pop\n      pop\n      jump\t// out\n        /* \"#utility.yul\":146:402   */\n    tag_11:\n      0x00\n        /* \"#utility.yul\":251:253   */\n      0x20\n        /* \"#utility.yul\":239:248   */\n      dup3\n        /* \"#utility.yul\":230:237   */\n      dup5\n        /* \"#utility.yul\":226:249   */\n      sub\n        /* \"#utility.yul\":222:254   */\n      slt\n        /* \"#utility.yul\":219:221   */\n      iszero\n      tag_61\n      jumpi\n        /* \"#utility.yul\":267:268   */\n      0x00\n        /* \"#utility.yul\":264:265   */\n      dup1\n        /* \"#utility.yul\":257:269   */\n      revert\n        /* \"#utility.yul\":219:221   */\n    tag_61:\n        /* \"#utility.yul\":310:311   */\n      0x00\n        /* \"#utility.yul\":335:385   */\n      tag_62\n        /* \"#utility.yul\":377:384   */\n      dup5\n        /* \"#utility.yul\":368:374   */\n      dup3\n        /* \"#utility.yul\":357:366   */\n      dup6\n        /* \"#utility.yul\":353:375   */\n      add\n        /* \"#utility.yul\":335:385   */\n      tag_56\n      jump\t// in\n    tag_62:\n        /* \"#utility.yul\":325:385   */\n      swap2\n      pop\n        /* \"#utility.yul\":281:395   */\n      pop\n        /* \"#utility.yul\":209:402   */\n      swap3\n      swap2\n      pop\n      pop\n      jump\t// out\n        /* \"#utility.yul\":408:526   */\n    tag_63:\n        /* \"#utility.yul\":495:519   */\n      tag_65\n        /* \"#utility.yul\":513:518   */\n      dup2\n        /* \"#utility.yul\":495:519   */\n      tag_66\n      jump\t// in\n    tag_65:\n        /* \"#utility.yul\":490:493   */\n      dup3\n        /* \"#utility.yul\":483:520   */\n      mstore\n        /* \"#utility.yul\":473:526   */\n      pop\n      pop\n      jump\t// out\n        /* \"#utility.yul\":532:754   */\n    tag_25:\n      0x00\n        /* \"#utility.yul\":663:665   */\n      0x20\n        /* \"#utility.yul\":652:661   */\n      dup3\n        /* \"#utility.yul\":648:666   */\n      add\n        /* \"#utility.yul\":640:666   */\n      swap1\n      pop\n        /* \"#utility.yul\":676:747   */\n      tag_68\n        /* \"#utility.yul\":744:745   */\n      0x00\n        /* \"#utility.yul\":733:742   */\n      dup4\n        /* \"#utility.yul\":729:746   */\n      add\n        /* \"#utility.yul\":720:726   */\n      dup5\n        /* \"#utility.yul\":676:747   */\n      tag_63\n      jump\t// in\n    tag_68:\n        /* \"#utility.yul\":630:754   */\n      swap3\n      swap2\n      pop\n      pop\n      jump\t// out\n        /* \"#utility.yul\":760:850   */\n    tag_69:\n      0x00\n        /* \"#utility.yul\":837:842   */\n      dup2\n        /* \"#utility.yul\":830:843   */\n      iszero\n        /* \"#utility.yul\":823:844   */\n      iszero\n        /* \"#utility.yul\":812:844   */\n      swap1\n      pop\n        /* \"#utility.yul\":802:850   */\n      swap2\n      swap1\n      pop\n      jump\t// out\n        /* \"#utility.yul\":856:933   */\n    tag_66:\n      0x00\n        /* \"#utility.yul\":922:927   */\n      dup2\n        /* \"#utility.yul\":911:927   */\n      swap1\n      pop\n        /* \"#utility.yul\":901:933   */\n      swap2\n      swap1\n      pop\n      jump\t// out\n        /* \"#utility.yul\":939:1172   */\n    tag_33:\n      0x00\n        /* \"#utility.yul\":1001:1025   */\n      tag_73\n        /* \"#utility.yul\":1019:1024   */\n      dup3\n        /* \"#utility.yul\":1001:1025   */\n      tag_66\n      jump\t// in\n    tag_73:\n        /* \"#utility.yul\":992:1025   */\n      swap2\n      pop\n        /* \"#utility.yul\":1047:1113   */\n      0xffffffffffffffffffffffffffffffffffffffffffffffffffffffffffffffff\n        /* \"#utility.yul\":1040:1045   */\n      dup3\n        /* \"#utility.yul\":1037:1114   */\n      eq\n        /* \"#utility.yul\":1034:1036   */\n      iszero\n      tag_74\n      jumpi\n        /* \"#utility.yul\":1117:1135   */\n      tag_75\n      tag_76\n      jump\t// in\n    tag_75:\n        /* \"#utility.yul\":1034:1036   */\n    tag_74:\n        /* \"#utility.yul\":1164:1165   */\n      0x01\n        /* \"#utility.yul\":1157:1162   */\n      dup3\n        /* \"#utility.yul\":1153:1166   */\n      add\n        /* \"#utility.yul\":1146:1166   */\n      swap1\n      pop\n        /* \"#utility.yul\":982:1172   */\n      swap2\n      swap1\n      pop\n      jump\t// out\n        /* \"#utility.yul\":1178:1358   */\n    tag_76:\n        /* \"#utility.yul\":1226:1303   */\n      0x4e487b7100000000000000000000000000000000000000000000000000000000\n        /* \"#utility.yul\":1223:1224   */\n      0x00\n        /* \"#utility.yul\":1216:1304   */\n      mstore\n        /* \"#utility.yul\":1323:1327   */\n      0x11\n        /* \"#utility.yul\":1320:1321   */\n      0x04\n        /* \"#utility.yul\":1313:1328   */\n      mstore\n        /* \"#utility.yul\":1347:1351   */\n      0x24\n        /* \"#utility.yul\":1344:1345   */\n      0x00\n        /* \"#utility.yul\":1337:1352   */\n      revert\n        /* \"#utility.yul\":1364:1480   */\n    tag_59:\n        /* \"#utility.yul\":1434:1455   */\n      tag_79\n        /* \"#utility.yul\":1449:1454   */\n      dup2\n        /* \"#utility.yul\":1434:1455   */\n      tag_69\n      jump\t// in\n    tag_79:\n        /* \"#utility.yul\":1427:1432   */\n      dup2\n        /* \"#utility.yul\":1424:1456   */\n      eq\n        /* \"#utility.yul\":1414:1416   */\n      tag_80\n      jumpi\n        /* \"#utility.yul\":1470:1471   */\n      0x00\n        /* \"#utility.yul\":1467:1468   */\n      dup1\n        /* \"#utility.yul\":1460:1472   */\n      revert\n        /* \"#utility.yul\":1414:1416   */\n    tag_80:\n        /* \"#utility.yul\":1404:1480   */\n      pop\n      jump\t// out\n\n    auxdata: 0xa2646970667358221220b743c008dc27e872341ed45802f4e7d236de7db81abb862875dd8c13527a532964736f6c63430008000033\n}\n",
				"bytecode": {
					"linkReferences": {},
					"object": "608060405234801561001057600080fd5b506104e9806100206000396000f3fe608060405234801561001057600080fd5b50600436106100625760003560e01c8063160a9cf11461006757806321df348b146100835780634e0ac65c1461009f578063b90651ea146100bb578063ce75bb24146100d7578063f5d05a6f146100f5575b600080fd5b610081600480360381019061007c91906103bb565b610111565b005b61009d600480360381019061009891906103bb565b610194565b005b6100b960048036038101906100b491906103bb565b610217565b005b6100d560048036038101906100d091906103bb565b61029a565b005b6100df61031d565b6040516100ec91906103f3565b60405180910390f35b61010f600480360381019061010a91906103bb565b610323565b005b6001151581151514801561012757506001600354105b156101775760016000806101000a81548160ff0219169083151502179055506003600081548092919061015990610424565b91905055506001600081548092919061017190610424565b91905055505b60008060006101000a81548160ff02191690831515021790555050565b600115158115151480156101aa57506001600254105b156101fa5760016000806101000a81548160ff021916908315150217905550600260008154809291906101dc90610424565b9190505550600160008154809291906101f490610424565b91905055505b60008060006101000a81548160ff02191690831515021790555050565b6001151581151514801561022d57506001600454105b1561027d5760016000806101000a81548160ff0219169083151502179055506004600081548092919061025f90610424565b91905055506001600081548092919061027790610424565b91905055505b60008060006101000a81548160ff02191690831515021790555050565b600115158115151480156102b057506001600554105b156103005760016000806101000a81548160ff021916908315150217905550600560008154809291906102e290610424565b9190505550600160008154809291906102fa90610424565b91905055505b60008060006101000a81548160ff02191690831515021790555050565b60015481565b6001151581151514801561033957506001600654105b156103895760016000806101000a81548160ff0219169083151502179055506006600081548092919061036b90610424565b91905055506001600081548092919061038390610424565b91905055505b60008060006101000a81548160ff02191690831515021790555050565b6000813590506103b58161049c565b92915050565b6000602082840312156103cd57600080fd5b60006103db848285016103a6565b91505092915050565b6103ed8161041a565b82525050565b600060208201905061040860008301846103e4565b92915050565b60008115159050919050565b6000819050919050565b600061042f8261041a565b91507fffffffffffffffffffffffffffffffffffffffffffffffffffffffffffffffff8214156104625761046161046d565b5b600182019050919050565b7f4e487b7100000000000000000000000000000000000000000000000000000000600052601160045260246000fd5b6104a58161040e565b81146104b057600080fd5b5056fea2646970667358221220b743c008dc27e872341ed45802f4e7d236de7db81abb862875dd8c13527a532964736f6c63430008000033",
					"opcodes": "PUSH1 0x80 PUSH1 0x40 MSTORE CALLVALUE DUP1 ISZERO PUSH2 0x10 JUMPI PUSH1 0x0 DUP1 REVERT JUMPDEST POP PUSH2 0x4E9 DUP1 PUSH2 0x20 PUSH1 0x0 CODECOPY PUSH1 0x0 RETURN INVALID PUSH1 0x80 PUSH1 0x40 MSTORE CALLVALUE DUP1 ISZERO PUSH2 0x10 JUMPI PUSH1 0x0 DUP1 REVERT JUMPDEST POP PUSH1 0x4 CALLDATASIZE LT PUSH2 0x62 JUMPI PUSH1 0x0 CALLDATALOAD PUSH1 0xE0 SHR DUP1 PUSH4 0x160A9CF1 EQ PUSH2 0x67 JUMPI DUP1 PUSH4 0x21DF348B EQ PUSH2 0x83 JUMPI DUP1 PUSH4 0x4E0AC65C EQ PUSH2 0x9F JUMPI DUP1 PUSH4 0xB90651EA EQ PUSH2 0xBB JUMPI DUP1 PUSH4 0xCE75BB24 EQ PUSH2 0xD7 JUMPI DUP1 PUSH4 0xF5D05A6F EQ PUSH2 0xF5 JUMPI JUMPDEST PUSH1 0x0 DUP1 REVERT JUMPDEST PUSH2 0x81 PUSH1 0x4 DUP1 CALLDATASIZE SUB DUP2 ADD SWAP1 PUSH2 0x7C SWAP2 SWAP1 PUSH2 0x3BB JUMP JUMPDEST PUSH2 0x111 JUMP JUMPDEST STOP JUMPDEST PUSH2 0x9D PUSH1 0x4 DUP1 CALLDATASIZE SUB DUP2 ADD SWAP1 PUSH2 0x98 SWAP2 SWAP1 PUSH2 0x3BB JUMP JUMPDEST PUSH2 0x194 JUMP JUMPDEST STOP JUMPDEST PUSH2 0xB9 PUSH1 0x4 DUP1 CALLDATASIZE SUB DUP2 ADD SWAP1 PUSH2 0xB4 SWAP2 SWAP1 PUSH2 0x3BB JUMP JUMPDEST PUSH2 0x217 JUMP JUMPDEST STOP JUMPDEST PUSH2 0xD5 PUSH1 0x4 DUP1 CALLDATASIZE SUB DUP2 ADD SWAP1 PUSH2 0xD0 SWAP2 SWAP1 PUSH2 0x3BB JUMP JUMPDEST PUSH2 0x29A JUMP JUMPDEST STOP JUMPDEST PUSH2 0xDF PUSH2 0x31D JUMP JUMPDEST PUSH1 0x40 MLOAD PUSH2 0xEC SWAP2 SWAP1 PUSH2 0x3F3 JUMP JUMPDEST PUSH1 0x40 MLOAD DUP1 SWAP2 SUB SWAP1 RETURN JUMPDEST PUSH2 0x10F PUSH1 0x4 DUP1 CALLDATASIZE SUB DUP2 ADD SWAP1 PUSH2 0x10A SWAP2 SWAP1 PUSH2 0x3BB JUMP JUMPDEST PUSH2 0x323 JUMP JUMPDEST STOP JUMPDEST PUSH1 0x1 ISZERO ISZERO DUP2 ISZERO ISZERO EQ DUP1 ISZERO PUSH2 0x127 JUMPI POP PUSH1 0x1 PUSH1 0x3 SLOAD LT JUMPDEST ISZERO PUSH2 0x177 JUMPI PUSH1 0x1 PUSH1 0x0 DUP1 PUSH2 0x100 EXP DUP2 SLOAD DUP2 PUSH1 0xFF MUL NOT AND SWAP1 DUP4 ISZERO ISZERO MUL OR SWAP1 SSTORE POP PUSH1 0x3 PUSH1 0x0 DUP2 SLOAD DUP1 SWAP3 SWAP2 SWAP1 PUSH2 0x159 SWAP1 PUSH2 0x424 JUMP JUMPDEST SWAP2 SWAP1 POP SSTORE POP PUSH1 0x1 PUSH1 0x0 DUP2 SLOAD DUP1 SWAP3 SWAP2 SWAP1 PUSH2 0x171 SWAP1 PUSH2 0x424 JUMP JUMPDEST SWAP2 SWAP1 POP SSTORE POP JUMPDEST PUSH1 0x0 DUP1 PUSH1 0x0 PUSH2 0x100 EXP DUP2 SLOAD DUP2 PUSH1 0xFF MUL NOT AND SWAP1 DUP4 ISZERO ISZERO MUL OR SWAP1 SSTORE POP POP JUMP JUMPDEST PUSH1 0x1 ISZERO ISZERO DUP2 ISZERO ISZERO EQ DUP1 ISZERO PUSH2 0x1AA JUMPI POP PUSH1 0x1 PUSH1 0x2 SLOAD LT JUMPDEST ISZERO PUSH2 0x1FA JUMPI PUSH1 0x1 PUSH1 0x0 DUP1 PUSH2 0x100 EXP DUP2 SLOAD DUP2 PUSH1 0xFF MUL NOT AND SWAP1 DUP4 ISZERO ISZERO MUL OR SWAP1 SSTORE POP PUSH1 0x2 PUSH1 0x0 DUP2 SLOAD DUP1 SWAP3 SWAP2 SWAP1 PUSH2 0x1DC SWAP1 PUSH2 0x424 JUMP JUMPDEST SWAP2 SWAP1 POP SSTORE POP PUSH1 0x1 PUSH1 0x0 DUP2 SLOAD DUP1 SWAP3 SWAP2 SWAP1 PUSH2 0x1F4 SWAP1 PUSH2 0x424 JUMP JUMPDEST SWAP2 SWAP1 POP SSTORE POP JUMPDEST PUSH1 0x0 DUP1 PUSH1 0x0 PUSH2 0x100 EXP DUP2 SLOAD DUP2 PUSH1 0xFF MUL NOT AND SWAP1 DUP4 ISZERO ISZERO MUL OR SWAP1 SSTORE POP POP JUMP JUMPDEST PUSH1 0x1 ISZERO ISZERO DUP2 ISZERO ISZERO EQ DUP1 ISZERO PUSH2 0x22D JUMPI POP PUSH1 0x1 PUSH1 0x4 SLOAD LT JUMPDEST ISZERO PUSH2 0x27D JUMPI PUSH1 0x1 PUSH1 0x0 DUP1 PUSH2 0x100 EXP DUP2 SLOAD DUP2 PUSH1 0xFF MUL NOT AND SWAP1 DUP4 ISZERO ISZERO MUL OR SWAP1 SSTORE POP PUSH1 0x4 PUSH1 0x0 DUP2 SLOAD DUP1 SWAP3 SWAP2 SWAP1 PUSH2 0x25F SWAP1 PUSH2 0x424 JUMP JUMPDEST SWAP2 SWAP1 POP SSTORE POP PUSH1 0x1 PUSH1 0x0 DUP2 SLOAD DUP1 SWAP3 SWAP2 SWAP1 PUSH2 0x277 SWAP1 PUSH2 0x424 JUMP JUMPDEST SWAP2 SWAP1 POP SSTORE POP JUMPDEST PUSH1 0x0 DUP1 PUSH1 0x0 PUSH2 0x100 EXP DUP2 SLOAD DUP2 PUSH1 0xFF MUL NOT AND SWAP1 DUP4 ISZERO ISZERO MUL OR SWAP1 SSTORE POP POP JUMP JUMPDEST PUSH1 0x1 ISZERO ISZERO DUP2 ISZERO ISZERO EQ DUP1 ISZERO PUSH2 0x2B0 JUMPI POP PUSH1 0x1 PUSH1 0x5 SLOAD LT JUMPDEST ISZERO PUSH2 0x300 JUMPI PUSH1 0x1 PUSH1 0x0 DUP1 PUSH2 0x100 EXP DUP2 SLOAD DUP2 PUSH1 0xFF MUL NOT AND SWAP1 DUP4 ISZERO ISZERO MUL OR SWAP1 SSTORE POP PUSH1 0x5 PUSH1 0x0 DUP2 SLOAD DUP1 SWAP3 SWAP2 SWAP1 PUSH2 0x2E2 SWAP1 PUSH2 0x424 JUMP JUMPDEST SWAP2 SWAP1 POP SSTORE POP PUSH1 0x1 PUSH1 0x0 DUP2 SLOAD DUP1 SWAP3 SWAP2 SWAP1 PUSH2 0x2FA SWAP1 PUSH2 0x424 JUMP JUMPDEST SWAP2 SWAP1 POP SSTORE POP JUMPDEST PUSH1 0x0 DUP1 PUSH1 0x0 PUSH2 0x100 EXP DUP2 SLOAD DUP2 PUSH1 0xFF MUL NOT AND SWAP1 DUP4 ISZERO ISZERO MUL OR SWAP1 SSTORE POP POP JUMP JUMPDEST PUSH1 0x1 SLOAD DUP2 JUMP JUMPDEST PUSH1 0x1 ISZERO ISZERO DUP2 ISZERO ISZERO EQ DUP1 ISZERO PUSH2 0x339 JUMPI POP PUSH1 0x1 PUSH1 0x6 SLOAD LT JUMPDEST ISZERO PUSH2 0x389 JUMPI PUSH1 0x1 PUSH1 0x0 DUP1 PUSH2 0x100 EXP DUP2 SLOAD DUP2 PUSH1 0xFF MUL NOT AND SWAP1 DUP4 ISZERO ISZERO MUL OR SWAP1 SSTORE POP PUSH1 0x6 PUSH1 0x0 DUP2 SLOAD DUP1 SWAP3 SWAP2 SWAP1 PUSH2 0x36B SWAP1 PUSH2 0x424 JUMP JUMPDEST SWAP2 SWAP1 POP SSTORE POP PUSH1 0x1 PUSH1 0x0 DUP2 SLOAD DUP1 SWAP3 SWAP2 SWAP1 PUSH2 0x383 SWAP1 PUSH2 0x424 JUMP JUMPDEST SWAP2 SWAP1 POP SSTORE POP JUMPDEST PUSH1 0x0 DUP1 PUSH1 0x0 PUSH2 0x100 EXP DUP2 SLOAD DUP2 PUSH1 0xFF MUL NOT AND SWAP1 DUP4 ISZERO ISZERO MUL OR SWAP1 SSTORE POP POP JUMP JUMPDEST PUSH1 0x0 DUP2 CALLDATALOAD SWAP1 POP PUSH2 0x3B5 DUP2 PUSH2 0x49C JUMP JUMPDEST SWAP3 SWAP2 POP POP JUMP JUMPDEST PUSH1 0x0 PUSH1 0x20 DUP3 DUP5 SUB SLT ISZERO PUSH2 0x3CD JUMPI PUSH1 0x0 DUP1 REVERT JUMPDEST PUSH1 0x0 PUSH2 0x3DB DUP5 DUP3 DUP6 ADD PUSH2 0x3A6 JUMP JUMPDEST SWAP2 POP POP SWAP3 SWAP2 POP POP JUMP JUMPDEST PUSH2 0x3ED DUP2 PUSH2 0x41A JUMP JUMPDEST DUP3 MSTORE POP POP JUMP JUMPDEST PUSH1 0x0 PUSH1 0x20 DUP3 ADD SWAP1 POP PUSH2 0x408 PUSH1 0x0 DUP4 ADD DUP5 PUSH2 0x3E4 JUMP JUMPDEST SWAP3 SWAP2 POP POP JUMP JUMPDEST PUSH1 0x0 DUP2 ISZERO ISZERO SWAP1 POP SWAP2 SWAP1 POP JUMP JUMPDEST PUSH1 0x0 DUP2 SWAP1 POP SWAP2 SWAP1 POP JUMP JUMPDEST PUSH1 0x0 PUSH2 0x42F DUP3 PUSH2 0x41A JUMP JUMPDEST SWAP2 POP PUSH32 0xFFFFFFFFFFFFFFFFFFFFFFFFFFFFFFFFFFFFFFFFFFFFFFFFFFFFFFFFFFFFFFFF DUP3 EQ ISZERO PUSH2 0x462 JUMPI PUSH2 0x461 PUSH2 0x46D JUMP JUMPDEST JUMPDEST PUSH1 0x1 DUP3 ADD SWAP1 POP SWAP2 SWAP1 POP JUMP JUMPDEST PUSH32 0x4E487B7100000000000000000000000000000000000000000000000000000000 PUSH1 0x0 MSTORE PUSH1 0x11 PUSH1 0x4 MSTORE PUSH1 0x24 PUSH1 0x0 REVERT JUMPDEST PUSH2 0x4A5 DUP2 PUSH2 0x40E JUMP JUMPDEST DUP2 EQ PUSH2 0x4B0 JUMPI PUSH1 0x0 DUP1 REVERT JUMPDEST POP JUMP INVALID LOG2 PUSH5 0x6970667358 0x22 SLT KECCAK256 0xB7 NUMBER 0xC0 ADDMOD 0xDC 0x27 0xE8 PUSH19 0x341ED45802F4E7D236DE7DB81ABB862875DD8C SGT MSTORE PUSH27 0x532964736F6C634300080000330000000000000000000000000000 "
				},
				"gasEstimates": {
					"creation": {
						"codeDepositCost": "251400",
						"executionCost": "294",
						"totalCost": "251694"
					},
					"external": {
						"CSE(bool)": "infinite",
						"English(bool)": "infinite",
						"IT(bool)": "infinite",
						"SSt(bool)": "infinite",
						"Science(bool)": "infinite",
						"Total_count()": "1195"
					}
				},
				"methodIdentifiers": {
					"CSE(bool)": "21df348b",
					"English(bool)": "f5d05a6f",
					"IT(bool)": "b90651ea",
					"SSt(bool)": "4e0ac65c",
					"Science(bool)": "160a9cf1",
					"Total_count()": "ce75bb24"
				}
			},
			"storageLayout": {
				"storage": [
					{
						"astId": 3,
						"contract": "Practice/StudentAttendance.sol:StudentAttendance",
						"label": "isPresent",
						"offset": 0,
						"slot": "0",
						"type": "t_bool"
					},
					{
						"astId": 5,
						"contract": "Practice/StudentAttendance.sol:StudentAttendance",
						"label": "Total_count",
						"offset": 0,
						"slot": "1",
						"type": "t_uint256"
					},
					{
						"astId": 7,
						"contract": "Practice/StudentAttendance.sol:StudentAttendance",
						"label": "CSEcount",
						"offset": 0,
						"slot": "2",
						"type": "t_uint256"
					},
					{
						"astId": 9,
						"contract": "Practice/StudentAttendance.sol:StudentAttendance",
						"label": "SCIcount",
						"offset": 0,
						"slot": "3",
						"type": "t_uint256"
					},
					{
						"astId": 11,
						"contract": "Practice/StudentAttendance.sol:StudentAttendance",
						"label": "SSTcount",
						"offset": 0,
						"slot": "4",
						"type": "t_uint256"
					},
					{
						"astId": 13,
						"contract": "Practice/StudentAttendance.sol:StudentAttendance",
						"label": "ITcount",
						"offset": 0,
						"slot": "5",
						"type": "t_uint256"
					},
					{
						"astId": 15,
						"contract": "Practice/StudentAttendance.sol:StudentAttendance",
						"label": "ENGcount",
						"offset": 0,
						"slot": "6",
						"type": "t_uint256"
					}
				],
				"types": {
					"t_bool": {
						"encoding": "inplace",
						"label": "bool",
						"numberOfBytes": "1"
					},
					"t_uint256": {
						"encoding": "inplace",
						"label": "uint256",
						"numberOfBytes": "32"
					}
				}
			},
			"userdoc": {
				"kind": "user",
				"methods": {},
				"version": 1
			}
		}
	}
}