{
	"learning/bank/bank.sol": {
		"BankAccount": {
			"abi": [
				{
					"inputs": [
						{
							"internalType": "address",
							"name": "",
							"type": "address"
						}
					],
					"name": "accounts",
					"outputs": [
						{
							"internalType": "string",
							"name": "name",
							"type": "string"
						},
						{
							"internalType": "uint256",
							"name": "balance",
							"type": "uint256"
						}
					],
					"stateMutability": "view",
					"type": "function"
				},
				{
					"inputs": [],
					"name": "addInterest",
					"outputs": [],
					"stateMutability": "nonpayable",
					"type": "function"
				},
				{
					"inputs": [
						{
							"internalType": "string",
							"name": "_name",
							"type": "string"
						}
					],
					"name": "createAccount",
					"outputs": [],
					"stateMutability": "payable",
					"type": "function"
				},
				{
					"inputs": [],
					"name": "deposit",
					"outputs": [],
					"stateMutability": "payable",
					"type": "function"
				},
				{
					"inputs": [],
					"name": "getDetails",
					"outputs": [
						{
							"internalType": "string",
							"name": "",
							"type": "string"
						},
						{
							"internalType": "uint256",
							"name": "",
							"type": "uint256"
						},
						{
							"internalType": "uint256",
							"name": "",
							"type": "uint256"
						}
					],
					"stateMutability": "view",
					"type": "function"
				}
			],
			"devdoc": {
				"kind": "dev",
				"methods": {},
				"version": 1
			},
			"evm": {
				"assembly": "    /* \"learning/bank/bank.sol\":60:1025  contract BankAccount {... */\n  mstore(0x40, 0x80)\n  callvalue\n  dup1\n  iszero\n  tag_1\n  jumpi\n  revert(0x00, 0x00)\ntag_1:\n  pop\n  dataSize(sub_0)\n  dup1\n  dataOffset(sub_0)\n  0x00\n  codecopy\n  0x00\n  return\nstop\n\nsub_0: assembly {\n        /* \"learning/bank/bank.sol\":60:1025  contract BankAccount {... */\n      mstore(0x40, 0x80)\n      jumpi(tag_1, lt(calldatasize, 0x04))\n      shr(0xe0, calldataload(0x00))\n      dup1\n      0x0d09365c\n      eq\n      tag_2\n      jumpi\n      dup1\n      0x298daf5b\n      eq\n      tag_3\n      jumpi\n      dup1\n      0x5e5c06e2\n      eq\n      tag_4\n      jumpi\n      dup1\n      0xd0e30db0\n      eq\n      tag_5\n      jumpi\n      dup1\n      0xfbbf93a0\n      eq\n      tag_6\n      jumpi\n    tag_1:\n      revert(0x00, 0x00)\n        /* \"learning/bank/bank.sol\":841:1022  function addInterest() public {... */\n    tag_2:\n      callvalue\n      dup1\n      iszero\n      tag_7\n      jumpi\n      revert(0x00, 0x00)\n    tag_7:\n      pop\n      tag_8\n      tag_9\n      jump\t// in\n    tag_8:\n      stop\n        /* \"learning/bank/bank.sol\":241:369  function createAccount(string memory _name) public payable {... */\n    tag_3:\n      tag_10\n      0x04\n      dup1\n      calldatasize\n      sub\n      dup2\n      add\n      swap1\n      tag_11\n      swap2\n      swap1\n      tag_12\n      jump\t// in\n    tag_11:\n      tag_13\n      jump\t// in\n    tag_10:\n      stop\n        /* \"learning/bank/bank.sol\":166:209  mapping(address => Account) public accounts */\n    tag_4:\n      callvalue\n      dup1\n      iszero\n      tag_14\n      jumpi\n      revert(0x00, 0x00)\n    tag_14:\n      pop\n      tag_15\n      0x04\n      dup1\n      calldatasize\n      sub\n      dup2\n      add\n      swap1\n      tag_16\n      swap2\n      swap1\n      tag_17\n      jump\t// in\n    tag_16:\n      tag_18\n      jump\t// in\n    tag_15:\n      mload(0x40)\n      tag_19\n      swap3\n      swap2\n      swap1\n      tag_20\n      jump\t// in\n    tag_19:\n      mload(0x40)\n      dup1\n      swap2\n      sub\n      swap1\n      return\n        /* \"learning/bank/bank.sol\":630:764  function deposit() public payable {... */\n    tag_5:\n      tag_21\n      tag_22\n      jump\t// in\n    tag_21:\n      stop\n        /* \"learning/bank/bank.sol\":380:616  function getDetails() public view returns(string memory, uint, uint) {... */\n    tag_6:\n      callvalue\n      dup1\n      iszero\n      tag_23\n      jumpi\n      revert(0x00, 0x00)\n    tag_23:\n      pop\n      tag_24\n      tag_25\n      jump\t// in\n    tag_24:\n      mload(0x40)\n      tag_26\n      swap4\n      swap3\n      swap2\n      swap1\n      tag_27\n      jump\t// in\n    tag_26:\n      mload(0x40)\n      dup1\n      swap2\n      sub\n      swap1\n      return\n        /* \"learning/bank/bank.sol\":841:1022  function addInterest() public {... */\n    tag_9:\n        /* \"learning/bank/bank.sol\":884:903  Account storage acc */\n      0x00\n        /* \"learning/bank/bank.sol\":906:914  accounts */\n      0x00\n        /* \"learning/bank/bank.sol\":906:926  accounts[msg.sender] */\n      0x00\n        /* \"learning/bank/bank.sol\":915:925  msg.sender */\n      caller\n        /* \"learning/bank/bank.sol\":906:926  accounts[msg.sender] */\n      0xffffffffffffffffffffffffffffffffffffffff\n      and\n      0xffffffffffffffffffffffffffffffffffffffff\n      and\n      dup2\n      mstore\n      0x20\n      add\n      swap1\n      dup2\n      mstore\n      0x20\n      add\n      0x00\n      keccak256\n        /* \"learning/bank/bank.sol\":884:926  Account storage acc = accounts[msg.sender] */\n      swap1\n      pop\n        /* \"learning/bank/bank.sol\":939:952  uint interest */\n      0x00\n        /* \"learning/bank/bank.sol\":975:978  100 */\n      0x64\n        /* \"learning/bank/bank.sol\":970:971  5 */\n      0x05\n        /* \"learning/bank/bank.sol\":956:959  acc */\n      dup4\n        /* \"learning/bank/bank.sol\":956:967  acc.balance */\n      0x01\n      add\n      sload\n        /* \"learning/bank/bank.sol\":956:971  acc.balance * 5 */\n      tag_29\n      swap2\n      swap1\n      tag_30\n      jump\t// in\n    tag_29:\n        /* \"learning/bank/bank.sol\":955:978  (acc.balance * 5) / 100 */\n      tag_31\n      swap2\n      swap1\n      tag_32\n      jump\t// in\n    tag_31:\n        /* \"learning/bank/bank.sol\":939:978  uint interest = (acc.balance * 5) / 100 */\n      swap1\n      pop\n        /* \"learning/bank/bank.sol\":1006:1014  interest */\n      dup1\n        /* \"learning/bank/bank.sol\":991:994  acc */\n      dup3\n        /* \"learning/bank/bank.sol\":991:1002  acc.balance */\n      0x01\n      add\n      0x00\n        /* \"learning/bank/bank.sol\":991:1014  acc.balance += interest */\n      dup3\n      dup3\n      sload\n      tag_33\n      swap2\n      swap1\n      tag_34\n      jump\t// in\n    tag_33:\n      swap3\n      pop\n      pop\n      dup2\n      swap1\n      sstore\n      pop\n        /* \"learning/bank/bank.sol\":871:1022  {... */\n      pop\n      pop\n        /* \"learning/bank/bank.sol\":841:1022  function addInterest() public {... */\n      jump\t// out\n        /* \"learning/bank/bank.sol\":241:369  function createAccount(string memory _name) public payable {... */\n    tag_13:\n        /* \"learning/bank/bank.sol\":336:361  Account(_name, msg.value) */\n      mload(0x40)\n      dup1\n      0x40\n      add\n      0x40\n      mstore\n      dup1\n        /* \"learning/bank/bank.sol\":344:349  _name */\n      dup3\n        /* \"learning/bank/bank.sol\":336:361  Account(_name, msg.value) */\n      dup2\n      mstore\n      0x20\n      add\n        /* \"learning/bank/bank.sol\":351:360  msg.value */\n      callvalue\n        /* \"learning/bank/bank.sol\":336:361  Account(_name, msg.value) */\n      dup2\n      mstore\n      pop\n        /* \"learning/bank/bank.sol\":313:321  accounts */\n      0x00\n        /* \"learning/bank/bank.sol\":313:333  accounts[msg.sender] */\n      0x00\n        /* \"learning/bank/bank.sol\":322:332  msg.sender */\n      caller\n        /* \"learning/bank/bank.sol\":313:333  accounts[msg.sender] */\n      0xffffffffffffffffffffffffffffffffffffffff\n      and\n      0xffffffffffffffffffffffffffffffffffffffff\n      and\n      dup2\n      mstore\n      0x20\n      add\n      swap1\n      dup2\n      mstore\n      0x20\n      add\n      0x00\n      keccak256\n        /* \"learning/bank/bank.sol\":313:361  accounts[msg.sender] = Account(_name, msg.value) */\n      0x00\n      dup3\n      add\n      mload\n      dup2\n      0x00\n      add\n      swap1\n      dup2\n      tag_36\n      swap2\n      swap1\n      tag_37\n      jump\t// in\n    tag_36:\n      pop\n      0x20\n      dup3\n      add\n      mload\n      dup2\n      0x01\n      add\n      sstore\n      swap1\n      pop\n      pop\n        /* \"learning/bank/bank.sol\":241:369  function createAccount(string memory _name) public payable {... */\n      pop\n      jump\t// out\n        /* \"learning/bank/bank.sol\":166:209  mapping(address => Account) public accounts */\n    tag_18:\n      mstore(0x20, 0x00)\n      dup1\n      0x00\n      mstore\n      keccak256(0x00, 0x40)\n      0x00\n      swap2\n      pop\n      swap1\n      pop\n      dup1\n      0x00\n      add\n      dup1\n      sload\n      tag_38\n      swap1\n      tag_39\n      jump\t// in\n    tag_38:\n      dup1\n      0x1f\n      add\n      0x20\n      dup1\n      swap2\n      div\n      mul\n      0x20\n      add\n      mload(0x40)\n      swap1\n      dup2\n      add\n      0x40\n      mstore\n      dup1\n      swap3\n      swap2\n      swap1\n      dup2\n      dup2\n      mstore\n      0x20\n      add\n      dup3\n      dup1\n      sload\n      tag_40\n      swap1\n      tag_39\n      jump\t// in\n    tag_40:\n      dup1\n      iszero\n      tag_41\n      jumpi\n      dup1\n      0x1f\n      lt\n      tag_42\n      jumpi\n      0x0100\n      dup1\n      dup4\n      sload\n      div\n      mul\n      dup4\n      mstore\n      swap2\n      0x20\n      add\n      swap2\n      jump(tag_41)\n    tag_42:\n      dup3\n      add\n      swap2\n      swap1\n      0x00\n      mstore\n      keccak256(0x00, 0x20)\n      swap1\n    tag_43:\n      dup2\n      sload\n      dup2\n      mstore\n      swap1\n      0x01\n      add\n      swap1\n      0x20\n      add\n      dup1\n      dup4\n      gt\n      tag_43\n      jumpi\n      dup3\n      swap1\n      sub\n      0x1f\n      and\n      dup3\n      add\n      swap2\n    tag_41:\n      pop\n      pop\n      pop\n      pop\n      pop\n      swap1\n      dup1\n      0x01\n      add\n      sload\n      swap1\n      pop\n      dup3\n      jump\t// out\n        /* \"learning/bank/bank.sol\":630:764  function deposit() public payable {... */\n    tag_22:\n        /* \"learning/bank/bank.sol\":677:696  Account storage acc */\n      0x00\n        /* \"learning/bank/bank.sol\":699:707  accounts */\n      0x00\n        /* \"learning/bank/bank.sol\":699:719  accounts[msg.sender] */\n      0x00\n        /* \"learning/bank/bank.sol\":708:718  msg.sender */\n      caller\n        /* \"learning/bank/bank.sol\":699:719  accounts[msg.sender] */\n      0xffffffffffffffffffffffffffffffffffffffff\n      and\n      0xffffffffffffffffffffffffffffffffffffffff\n      and\n      dup2\n      mstore\n      0x20\n      add\n      swap1\n      dup2\n      mstore\n      0x20\n      add\n      0x00\n      keccak256\n        /* \"learning/bank/bank.sol\":677:719  Account storage acc = accounts[msg.sender] */\n      swap1\n      pop\n        /* \"learning/bank/bank.sol\":747:756  msg.value */\n      callvalue\n        /* \"learning/bank/bank.sol\":732:735  acc */\n      dup2\n        /* \"learning/bank/bank.sol\":732:743  acc.balance */\n      0x01\n      add\n      0x00\n        /* \"learning/bank/bank.sol\":732:756  acc.balance += msg.value */\n      dup3\n      dup3\n      sload\n      tag_45\n      swap2\n      swap1\n      tag_34\n      jump\t// in\n    tag_45:\n      swap3\n      pop\n      pop\n      dup2\n      swap1\n      sstore\n      pop\n        /* \"learning/bank/bank.sol\":664:764  {... */\n      pop\n        /* \"learning/bank/bank.sol\":630:764  function deposit() public payable {... */\n      jump\t// out\n        /* \"learning/bank/bank.sol\":380:616  function getDetails() public view returns(string memory, uint, uint) {... */\n    tag_25:\n        /* \"learning/bank/bank.sol\":422:435  string memory */\n      0x60\n        /* \"learning/bank/bank.sol\":437:441  uint */\n      0x00\n        /* \"learning/bank/bank.sol\":443:447  uint */\n      0x00\n        /* \"learning/bank/bank.sol\":462:480  Account memory acc */\n      0x00\n        /* \"learning/bank/bank.sol\":483:491  accounts */\n      0x00\n        /* \"learning/bank/bank.sol\":483:503  accounts[msg.sender] */\n      0x00\n        /* \"learning/bank/bank.sol\":492:502  msg.sender */\n      caller\n        /* \"learning/bank/bank.sol\":483:503  accounts[msg.sender] */\n      0xffffffffffffffffffffffffffffffffffffffff\n      and\n      0xffffffffffffffffffffffffffffffffffffffff\n      and\n      dup2\n      mstore\n      0x20\n      add\n      swap1\n      dup2\n      mstore\n      0x20\n      add\n      0x00\n      keccak256\n        /* \"learning/bank/bank.sol\":462:503  Account memory acc = accounts[msg.sender] */\n      mload(0x40)\n      dup1\n      0x40\n      add\n      0x40\n      mstore\n      swap1\n      dup2\n      0x00\n      dup3\n      add\n      dup1\n      sload\n      tag_47\n      swap1\n      tag_39\n      jump\t// in\n    tag_47:\n      dup1\n      0x1f\n      add\n      0x20\n      dup1\n      swap2\n      div\n      mul\n      0x20\n      add\n      mload(0x40)\n      swap1\n      dup2\n      add\n      0x40\n      mstore\n      dup1\n      swap3\n      swap2\n      swap1\n      dup2\n      dup2\n      mstore\n      0x20\n      add\n      dup3\n      dup1\n      sload\n      tag_48\n      swap1\n      tag_39\n      jump\t// in\n    tag_48:\n      dup1\n      iszero\n      tag_49\n      jumpi\n      dup1\n      0x1f\n      lt\n      tag_50\n      jumpi\n      0x0100\n      dup1\n      dup4\n      sload\n      div\n      mul\n      dup4\n      mstore\n      swap2\n      0x20\n      add\n      swap2\n      jump(tag_49)\n    tag_50:\n      dup3\n      add\n      swap2\n      swap1\n      0x00\n      mstore\n      keccak256(0x00, 0x20)\n      swap1\n    tag_51:\n      dup2\n      sload\n      dup2\n      mstore\n      swap1\n      0x01\n      add\n      swap1\n      0x20\n      add\n      dup1\n      dup4\n      gt\n      tag_51\n      jumpi\n      dup3\n      swap1\n      sub\n      0x1f\n      and\n      dup3\n      add\n      swap2\n    tag_49:\n      pop\n      pop\n      pop\n      pop\n      pop\n      dup2\n      mstore\n      0x20\n      add\n      0x01\n      dup3\n      add\n      sload\n      dup2\n      mstore\n      pop\n      pop\n      swap1\n      pop\n        /* \"learning/bank/bank.sol\":516:529  uint interest */\n      0x00\n        /* \"learning/bank/bank.sol\":552:555  100 */\n      0x64\n        /* \"learning/bank/bank.sol\":547:548  5 */\n      0x05\n        /* \"learning/bank/bank.sol\":533:536  acc */\n      dup4\n        /* \"learning/bank/bank.sol\":533:544  acc.balance */\n      0x20\n      add\n      mload\n        /* \"learning/bank/bank.sol\":533:548  acc.balance * 5 */\n      tag_52\n      swap2\n      swap1\n      tag_30\n      jump\t// in\n    tag_52:\n        /* \"learning/bank/bank.sol\":532:555  (acc.balance * 5) / 100 */\n      tag_53\n      swap2\n      swap1\n      tag_32\n      jump\t// in\n    tag_53:\n        /* \"learning/bank/bank.sol\":516:555  uint interest = (acc.balance * 5) / 100 */\n      swap1\n      pop\n        /* \"learning/bank/bank.sol\":576:579  acc */\n      dup2\n        /* \"learning/bank/bank.sol\":576:584  acc.name */\n      0x00\n      add\n      mload\n        /* \"learning/bank/bank.sol\":586:589  acc */\n      dup3\n        /* \"learning/bank/bank.sol\":586:597  acc.balance */\n      0x20\n      add\n      mload\n        /* \"learning/bank/bank.sol\":599:607  interest */\n      dup3\n        /* \"learning/bank/bank.sol\":568:608  return (acc.name, acc.balance, interest) */\n      swap5\n      pop\n      swap5\n      pop\n      swap5\n      pop\n      pop\n      pop\n        /* \"learning/bank/bank.sol\":380:616  function getDetails() public view returns(string memory, uint, uint) {... */\n      swap1\n      swap2\n      swap3\n      jump\t// out\n        /* \"#utility.yul\":7:82   */\n    tag_54:\n        /* \"#utility.yul\":40:46   */\n      0x00\n        /* \"#utility.yul\":73:75   */\n      0x40\n        /* \"#utility.yul\":67:76   */\n      mload\n        /* \"#utility.yul\":57:76   */\n      swap1\n      pop\n        /* \"#utility.yul\":7:82   */\n      swap1\n      jump\t// out\n        /* \"#utility.yul\":88:205   */\n    tag_55:\n        /* \"#utility.yul\":197:198   */\n      0x00\n        /* \"#utility.yul\":194:195   */\n      0x00\n        /* \"#utility.yul\":187:199   */\n      revert\n        /* \"#utility.yul\":211:328   */\n    tag_56:\n        /* \"#utility.yul\":320:321   */\n      0x00\n        /* \"#utility.yul\":317:318   */\n      0x00\n        /* \"#utility.yul\":310:322   */\n      revert\n        /* \"#utility.yul\":334:451   */\n    tag_57:\n        /* \"#utility.yul\":443:444   */\n      0x00\n        /* \"#utility.yul\":440:441   */\n      0x00\n        /* \"#utility.yul\":433:445   */\n      revert\n        /* \"#utility.yul\":457:574   */\n    tag_58:\n        /* \"#utility.yul\":566:567   */\n      0x00\n        /* \"#utility.yul\":563:564   */\n      0x00\n        /* \"#utility.yul\":556:568   */\n      revert\n        /* \"#utility.yul\":580:682   */\n    tag_59:\n        /* \"#utility.yul\":621:627   */\n      0x00\n        /* \"#utility.yul\":672:674   */\n      0x1f\n        /* \"#utility.yul\":668:675   */\n      not\n        /* \"#utility.yul\":663:665   */\n      0x1f\n        /* \"#utility.yul\":656:661   */\n      dup4\n        /* \"#utility.yul\":652:666   */\n      add\n        /* \"#utility.yul\":648:676   */\n      and\n        /* \"#utility.yul\":638:676   */\n      swap1\n      pop\n        /* \"#utility.yul\":580:682   */\n      swap2\n      swap1\n      pop\n      jump\t// out\n        /* \"#utility.yul\":688:868   */\n    tag_60:\n        /* \"#utility.yul\":736:813   */\n      0x4e487b7100000000000000000000000000000000000000000000000000000000\n        /* \"#utility.yul\":733:734   */\n      0x00\n        /* \"#utility.yul\":726:814   */\n      mstore\n        /* \"#utility.yul\":833:837   */\n      0x41\n        /* \"#utility.yul\":830:831   */\n      0x04\n        /* \"#utility.yul\":823:838   */\n      mstore\n        /* \"#utility.yul\":857:861   */\n      0x24\n        /* \"#utility.yul\":854:855   */\n      0x00\n        /* \"#utility.yul\":847:862   */\n      revert\n        /* \"#utility.yul\":874:1155   */\n    tag_61:\n        /* \"#utility.yul\":957:984   */\n      tag_104\n        /* \"#utility.yul\":979:983   */\n      dup3\n        /* \"#utility.yul\":957:984   */\n      tag_59\n      jump\t// in\n    tag_104:\n        /* \"#utility.yul\":949:955   */\n      dup2\n        /* \"#utility.yul\":945:985   */\n      add\n        /* \"#utility.yul\":1087:1093   */\n      dup2\n        /* \"#utility.yul\":1075:1085   */\n      dup2\n        /* \"#utility.yul\":1072:1094   */\n      lt\n        /* \"#utility.yul\":1051:1069   */\n      0xffffffffffffffff\n        /* \"#utility.yul\":1039:1049   */\n      dup3\n        /* \"#utility.yul\":1036:1070   */\n      gt\n        /* \"#utility.yul\":1033:1095   */\n      or\n        /* \"#utility.yul\":1030:1118   */\n      iszero\n      tag_105\n      jumpi\n        /* \"#utility.yul\":1098:1116   */\n      tag_106\n      tag_60\n      jump\t// in\n    tag_106:\n        /* \"#utility.yul\":1030:1118   */\n    tag_105:\n        /* \"#utility.yul\":1138:1148   */\n      dup1\n        /* \"#utility.yul\":1134:1136   */\n      0x40\n        /* \"#utility.yul\":1127:1149   */\n      mstore\n        /* \"#utility.yul\":917:1155   */\n      pop\n        /* \"#utility.yul\":874:1155   */\n      pop\n      pop\n      jump\t// out\n        /* \"#utility.yul\":1161:1290   */\n    tag_62:\n        /* \"#utility.yul\":1195:1201   */\n      0x00\n        /* \"#utility.yul\":1222:1242   */\n      tag_108\n      tag_54\n      jump\t// in\n    tag_108:\n        /* \"#utility.yul\":1212:1242   */\n      swap1\n      pop\n        /* \"#utility.yul\":1251:1284   */\n      tag_109\n        /* \"#utility.yul\":1279:1283   */\n      dup3\n        /* \"#utility.yul\":1271:1277   */\n      dup3\n        /* \"#utility.yul\":1251:1284   */\n      tag_61\n      jump\t// in\n    tag_109:\n        /* \"#utility.yul\":1161:1290   */\n      swap2\n      swap1\n      pop\n      jump\t// out\n        /* \"#utility.yul\":1296:1604   */\n    tag_63:\n        /* \"#utility.yul\":1358:1362   */\n      0x00\n        /* \"#utility.yul\":1448:1466   */\n      0xffffffffffffffff\n        /* \"#utility.yul\":1440:1446   */\n      dup3\n        /* \"#utility.yul\":1437:1467   */\n      gt\n        /* \"#utility.yul\":1434:1490   */\n      iszero\n      tag_111\n      jumpi\n        /* \"#utility.yul\":1470:1488   */\n      tag_112\n      tag_60\n      jump\t// in\n    tag_112:\n        /* \"#utility.yul\":1434:1490   */\n    tag_111:\n        /* \"#utility.yul\":1508:1537   */\n      tag_113\n        /* \"#utility.yul\":1530:1536   */\n      dup3\n        /* \"#utility.yul\":1508:1537   */\n      tag_59\n      jump\t// in\n    tag_113:\n        /* \"#utility.yul\":1500:1537   */\n      swap1\n      pop\n        /* \"#utility.yul\":1592:1596   */\n      0x20\n        /* \"#utility.yul\":1586:1590   */\n      dup2\n        /* \"#utility.yul\":1582:1597   */\n      add\n        /* \"#utility.yul\":1574:1597   */\n      swap1\n      pop\n        /* \"#utility.yul\":1296:1604   */\n      swap2\n      swap1\n      pop\n      jump\t// out\n        /* \"#utility.yul\":1610:1758   */\n    tag_64:\n        /* \"#utility.yul\":1708:1714   */\n      dup3\n        /* \"#utility.yul\":1703:1706   */\n      dup2\n        /* \"#utility.yul\":1698:1701   */\n      dup4\n        /* \"#utility.yul\":1685:1715   */\n      calldatacopy\n        /* \"#utility.yul\":1749:1750   */\n      0x00\n        /* \"#utility.yul\":1740:1746   */\n      dup4\n        /* \"#utility.yul\":1735:1738   */\n      dup4\n        /* \"#utility.yul\":1731:1747   */\n      add\n        /* \"#utility.yul\":1724:1751   */\n      mstore\n        /* \"#utility.yul\":1610:1758   */\n      pop\n      pop\n      pop\n      jump\t// out\n        /* \"#utility.yul\":1764:2189   */\n    tag_65:\n        /* \"#utility.yul\":1842:1847   */\n      0x00\n        /* \"#utility.yul\":1867:1933   */\n      tag_116\n        /* \"#utility.yul\":1883:1932   */\n      tag_117\n        /* \"#utility.yul\":1925:1931   */\n      dup5\n        /* \"#utility.yul\":1883:1932   */\n      tag_63\n      jump\t// in\n    tag_117:\n        /* \"#utility.yul\":1867:1933   */\n      tag_62\n      jump\t// in\n    tag_116:\n        /* \"#utility.yul\":1858:1933   */\n      swap1\n      pop\n        /* \"#utility.yul\":1956:1962   */\n      dup3\n        /* \"#utility.yul\":1949:1954   */\n      dup2\n        /* \"#utility.yul\":1942:1963   */\n      mstore\n        /* \"#utility.yul\":1994:1998   */\n      0x20\n        /* \"#utility.yul\":1987:1992   */\n      dup2\n        /* \"#utility.yul\":1983:1999   */\n      add\n        /* \"#utility.yul\":2032:2035   */\n      dup5\n        /* \"#utility.yul\":2023:2029   */\n      dup5\n        /* \"#utility.yul\":2018:2021   */\n      dup5\n        /* \"#utility.yul\":2014:2030   */\n      add\n        /* \"#utility.yul\":2011:2036   */\n      gt\n        /* \"#utility.yul\":2008:2120   */\n      iszero\n      tag_118\n      jumpi\n        /* \"#utility.yul\":2039:2118   */\n      tag_119\n      tag_58\n      jump\t// in\n    tag_119:\n        /* \"#utility.yul\":2008:2120   */\n    tag_118:\n        /* \"#utility.yul\":2129:2183   */\n      tag_120\n        /* \"#utility.yul\":2176:2182   */\n      dup5\n        /* \"#utility.yul\":2171:2174   */\n      dup3\n        /* \"#utility.yul\":2166:2169   */\n      dup6\n        /* \"#utility.yul\":2129:2183   */\n      tag_64\n      jump\t// in\n    tag_120:\n        /* \"#utility.yul\":1848:2189   */\n      pop\n        /* \"#utility.yul\":1764:2189   */\n      swap4\n      swap3\n      pop\n      pop\n      pop\n      jump\t// out\n        /* \"#utility.yul\":2209:2549   */\n    tag_66:\n        /* \"#utility.yul\":2265:2270   */\n      0x00\n        /* \"#utility.yul\":2314:2317   */\n      dup3\n        /* \"#utility.yul\":2307:2311   */\n      0x1f\n        /* \"#utility.yul\":2299:2305   */\n      dup4\n        /* \"#utility.yul\":2295:2312   */\n      add\n        /* \"#utility.yul\":2291:2318   */\n      slt\n        /* \"#utility.yul\":2281:2403   */\n      tag_122\n      jumpi\n        /* \"#utility.yul\":2322:2401   */\n      tag_123\n      tag_57\n      jump\t// in\n    tag_123:\n        /* \"#utility.yul\":2281:2403   */\n    tag_122:\n        /* \"#utility.yul\":2439:2445   */\n      dup2\n        /* \"#utility.yul\":2426:2446   */\n      calldataload\n        /* \"#utility.yul\":2464:2543   */\n      tag_124\n        /* \"#utility.yul\":2539:2542   */\n      dup5\n        /* \"#utility.yul\":2531:2537   */\n      dup3\n        /* \"#utility.yul\":2524:2528   */\n      0x20\n        /* \"#utility.yul\":2516:2522   */\n      dup7\n        /* \"#utility.yul\":2512:2529   */\n      add\n        /* \"#utility.yul\":2464:2543   */\n      tag_65\n      jump\t// in\n    tag_124:\n        /* \"#utility.yul\":2455:2543   */\n      swap2\n      pop\n        /* \"#utility.yul\":2271:2549   */\n      pop\n        /* \"#utility.yul\":2209:2549   */\n      swap3\n      swap2\n      pop\n      pop\n      jump\t// out\n        /* \"#utility.yul\":2555:3064   */\n    tag_12:\n        /* \"#utility.yul\":2624:2630   */\n      0x00\n        /* \"#utility.yul\":2673:2675   */\n      0x20\n        /* \"#utility.yul\":2661:2670   */\n      dup3\n        /* \"#utility.yul\":2652:2659   */\n      dup5\n        /* \"#utility.yul\":2648:2671   */\n      sub\n        /* \"#utility.yul\":2644:2676   */\n      slt\n        /* \"#utility.yul\":2641:2760   */\n      iszero\n      tag_126\n      jumpi\n        /* \"#utility.yul\":2679:2758   */\n      tag_127\n      tag_55\n      jump\t// in\n    tag_127:\n        /* \"#utility.yul\":2641:2760   */\n    tag_126:\n        /* \"#utility.yul\":2827:2828   */\n      0x00\n        /* \"#utility.yul\":2816:2825   */\n      dup3\n        /* \"#utility.yul\":2812:2829   */\n      add\n        /* \"#utility.yul\":2799:2830   */\n      calldataload\n        /* \"#utility.yul\":2857:2875   */\n      0xffffffffffffffff\n        /* \"#utility.yul\":2849:2855   */\n      dup2\n        /* \"#utility.yul\":2846:2876   */\n      gt\n        /* \"#utility.yul\":2843:2960   */\n      iszero\n      tag_128\n      jumpi\n        /* \"#utility.yul\":2879:2958   */\n      tag_129\n      tag_56\n      jump\t// in\n    tag_129:\n        /* \"#utility.yul\":2843:2960   */\n    tag_128:\n        /* \"#utility.yul\":2984:3047   */\n      tag_130\n        /* \"#utility.yul\":3039:3046   */\n      dup5\n        /* \"#utility.yul\":3030:3036   */\n      dup3\n        /* \"#utility.yul\":3019:3028   */\n      dup6\n        /* \"#utility.yul\":3015:3037   */\n      add\n        /* \"#utility.yul\":2984:3047   */\n      tag_66\n      jump\t// in\n    tag_130:\n        /* \"#utility.yul\":2974:3047   */\n      swap2\n      pop\n        /* \"#utility.yul\":2770:3057   */\n      pop\n        /* \"#utility.yul\":2555:3064   */\n      swap3\n      swap2\n      pop\n      pop\n      jump\t// out\n        /* \"#utility.yul\":3070:3196   */\n    tag_67:\n        /* \"#utility.yul\":3107:3114   */\n      0x00\n        /* \"#utility.yul\":3147:3189   */\n      0xffffffffffffffffffffffffffffffffffffffff\n        /* \"#utility.yul\":3140:3145   */\n      dup3\n        /* \"#utility.yul\":3136:3190   */\n      and\n        /* \"#utility.yul\":3125:3190   */\n      swap1\n      pop\n        /* \"#utility.yul\":3070:3196   */\n      swap2\n      swap1\n      pop\n      jump\t// out\n        /* \"#utility.yul\":3202:3298   */\n    tag_68:\n        /* \"#utility.yul\":3239:3246   */\n      0x00\n        /* \"#utility.yul\":3268:3292   */\n      tag_133\n        /* \"#utility.yul\":3286:3291   */\n      dup3\n        /* \"#utility.yul\":3268:3292   */\n      tag_67\n      jump\t// in\n    tag_133:\n        /* \"#utility.yul\":3257:3292   */\n      swap1\n      pop\n        /* \"#utility.yul\":3202:3298   */\n      swap2\n      swap1\n      pop\n      jump\t// out\n        /* \"#utility.yul\":3304:3426   */\n    tag_69:\n        /* \"#utility.yul\":3377:3401   */\n      tag_135\n        /* \"#utility.yul\":3395:3400   */\n      dup2\n        /* \"#utility.yul\":3377:3401   */\n      tag_68\n      jump\t// in\n    tag_135:\n        /* \"#utility.yul\":3370:3375   */\n      dup2\n        /* \"#utility.yul\":3367:3402   */\n      eq\n        /* \"#utility.yul\":3357:3420   */\n      tag_136\n      jumpi\n        /* \"#utility.yul\":3416:3417   */\n      0x00\n        /* \"#utility.yul\":3413:3414   */\n      0x00\n        /* \"#utility.yul\":3406:3418   */\n      revert\n        /* \"#utility.yul\":3357:3420   */\n    tag_136:\n        /* \"#utility.yul\":3304:3426   */\n      pop\n      jump\t// out\n        /* \"#utility.yul\":3432:3571   */\n    tag_70:\n        /* \"#utility.yul\":3478:3483   */\n      0x00\n        /* \"#utility.yul\":3516:3522   */\n      dup2\n        /* \"#utility.yul\":3503:3523   */\n      calldataload\n        /* \"#utility.yul\":3494:3523   */\n      swap1\n      pop\n        /* \"#utility.yul\":3532:3565   */\n      tag_138\n        /* \"#utility.yul\":3559:3564   */\n      dup2\n        /* \"#utility.yul\":3532:3565   */\n      tag_69\n      jump\t// in\n    tag_138:\n        /* \"#utility.yul\":3432:3571   */\n      swap3\n      swap2\n      pop\n      pop\n      jump\t// out\n        /* \"#utility.yul\":3577:3906   */\n    tag_17:\n        /* \"#utility.yul\":3636:3642   */\n      0x00\n        /* \"#utility.yul\":3685:3687   */\n      0x20\n        /* \"#utility.yul\":3673:3682   */\n      dup3\n        /* \"#utility.yul\":3664:3671   */\n      dup5\n        /* \"#utility.yul\":3660:3683   */\n      sub\n        /* \"#utility.yul\":3656:3688   */\n      slt\n        /* \"#utility.yul\":3653:3772   */\n      iszero\n      tag_140\n      jumpi\n        /* \"#utility.yul\":3691:3770   */\n      tag_141\n      tag_55\n      jump\t// in\n    tag_141:\n        /* \"#utility.yul\":3653:3772   */\n    tag_140:\n        /* \"#utility.yul\":3811:3812   */\n      0x00\n        /* \"#utility.yul\":3836:3889   */\n      tag_142\n        /* \"#utility.yul\":3881:3888   */\n      dup5\n        /* \"#utility.yul\":3872:3878   */\n      dup3\n        /* \"#utility.yul\":3861:3870   */\n      dup6\n        /* \"#utility.yul\":3857:3879   */\n      add\n        /* \"#utility.yul\":3836:3889   */\n      tag_70\n      jump\t// in\n    tag_142:\n        /* \"#utility.yul\":3826:3889   */\n      swap2\n      pop\n        /* \"#utility.yul\":3782:3899   */\n      pop\n        /* \"#utility.yul\":3577:3906   */\n      swap3\n      swap2\n      pop\n      pop\n      jump\t// out\n        /* \"#utility.yul\":3912:4011   */\n    tag_71:\n        /* \"#utility.yul\":3964:3970   */\n      0x00\n        /* \"#utility.yul\":3998:4003   */\n      dup2\n        /* \"#utility.yul\":3992:4004   */\n      mload\n        /* \"#utility.yul\":3982:4004   */\n      swap1\n      pop\n        /* \"#utility.yul\":3912:4011   */\n      swap2\n      swap1\n      pop\n      jump\t// out\n        /* \"#utility.yul\":4017:4186   */\n    tag_72:\n        /* \"#utility.yul\":4101:4112   */\n      0x00\n        /* \"#utility.yul\":4135:4141   */\n      dup3\n        /* \"#utility.yul\":4130:4133   */\n      dup3\n        /* \"#utility.yul\":4123:4142   */\n      mstore\n        /* \"#utility.yul\":4175:4179   */\n      0x20\n        /* \"#utility.yul\":4170:4173   */\n      dup3\n        /* \"#utility.yul\":4166:4180   */\n      add\n        /* \"#utility.yul\":4151:4180   */\n      swap1\n      pop\n        /* \"#utility.yul\":4017:4186   */\n      swap3\n      swap2\n      pop\n      pop\n      jump\t// out\n        /* \"#utility.yul\":4192:4331   */\n    tag_73:\n        /* \"#utility.yul\":4281:4287   */\n      dup3\n        /* \"#utility.yul\":4276:4279   */\n      dup2\n        /* \"#utility.yul\":4271:4274   */\n      dup4\n        /* \"#utility.yul\":4265:4288   */\n      mcopy\n        /* \"#utility.yul\":4322:4323   */\n      0x00\n        /* \"#utility.yul\":4313:4319   */\n      dup4\n        /* \"#utility.yul\":4308:4311   */\n      dup4\n        /* \"#utility.yul\":4304:4320   */\n      add\n        /* \"#utility.yul\":4297:4324   */\n      mstore\n        /* \"#utility.yul\":4192:4331   */\n      pop\n      pop\n      pop\n      jump\t// out\n        /* \"#utility.yul\":4337:4714   */\n    tag_74:\n        /* \"#utility.yul\":4425:4428   */\n      0x00\n        /* \"#utility.yul\":4453:4492   */\n      tag_147\n        /* \"#utility.yul\":4486:4491   */\n      dup3\n        /* \"#utility.yul\":4453:4492   */\n      tag_71\n      jump\t// in\n    tag_147:\n        /* \"#utility.yul\":4508:4579   */\n      tag_148\n        /* \"#utility.yul\":4572:4578   */\n      dup2\n        /* \"#utility.yul\":4567:4570   */\n      dup6\n        /* \"#utility.yul\":4508:4579   */\n      tag_72\n      jump\t// in\n    tag_148:\n        /* \"#utility.yul\":4501:4579   */\n      swap4\n      pop\n        /* \"#utility.yul\":4588:4653   */\n      tag_149\n        /* \"#utility.yul\":4646:4652   */\n      dup2\n        /* \"#utility.yul\":4641:4644   */\n      dup6\n        /* \"#utility.yul\":4634:4638   */\n      0x20\n        /* \"#utility.yul\":4627:4632   */\n      dup7\n        /* \"#utility.yul\":4623:4639   */\n      add\n        /* \"#utility.yul\":4588:4653   */\n      tag_73\n      jump\t// in\n    tag_149:\n        /* \"#utility.yul\":4678:4707   */\n      tag_150\n        /* \"#utility.yul\":4700:4706   */\n      dup2\n        /* \"#utility.yul\":4678:4707   */\n      tag_59\n      jump\t// in\n    tag_150:\n        /* \"#utility.yul\":4673:4676   */\n      dup5\n        /* \"#utility.yul\":4669:4708   */\n      add\n        /* \"#utility.yul\":4662:4708   */\n      swap2\n      pop\n        /* \"#utility.yul\":4429:4714   */\n      pop\n        /* \"#utility.yul\":4337:4714   */\n      swap3\n      swap2\n      pop\n      pop\n      jump\t// out\n        /* \"#utility.yul\":4720:4797   */\n    tag_75:\n        /* \"#utility.yul\":4757:4764   */\n      0x00\n        /* \"#utility.yul\":4786:4791   */\n      dup2\n        /* \"#utility.yul\":4775:4791   */\n      swap1\n      pop\n        /* \"#utility.yul\":4720:4797   */\n      swap2\n      swap1\n      pop\n      jump\t// out\n        /* \"#utility.yul\":4803:4921   */\n    tag_76:\n        /* \"#utility.yul\":4890:4914   */\n      tag_153\n        /* \"#utility.yul\":4908:4913   */\n      dup2\n        /* \"#utility.yul\":4890:4914   */\n      tag_75\n      jump\t// in\n    tag_153:\n        /* \"#utility.yul\":4885:4888   */\n      dup3\n        /* \"#utility.yul\":4878:4915   */\n      mstore\n        /* \"#utility.yul\":4803:4921   */\n      pop\n      pop\n      jump\t// out\n        /* \"#utility.yul\":4927:5350   */\n    tag_20:\n        /* \"#utility.yul\":5068:5072   */\n      0x00\n        /* \"#utility.yul\":5106:5108   */\n      0x40\n        /* \"#utility.yul\":5095:5104   */\n      dup3\n        /* \"#utility.yul\":5091:5109   */\n      add\n        /* \"#utility.yul\":5083:5109   */\n      swap1\n      pop\n        /* \"#utility.yul\":5155:5164   */\n      dup2\n        /* \"#utility.yul\":5149:5153   */\n      dup2\n        /* \"#utility.yul\":5145:5165   */\n      sub\n        /* \"#utility.yul\":5141:5142   */\n      0x00\n        /* \"#utility.yul\":5130:5139   */\n      dup4\n        /* \"#utility.yul\":5126:5143   */\n      add\n        /* \"#utility.yul\":5119:5166   */\n      mstore\n        /* \"#utility.yul\":5183:5261   */\n      tag_155\n        /* \"#utility.yul\":5256:5260   */\n      dup2\n        /* \"#utility.yul\":5247:5253   */\n      dup6\n        /* \"#utility.yul\":5183:5261   */\n      tag_74\n      jump\t// in\n    tag_155:\n        /* \"#utility.yul\":5175:5261   */\n      swap1\n      pop\n        /* \"#utility.yul\":5271:5343   */\n      tag_156\n        /* \"#utility.yul\":5339:5341   */\n      0x20\n        /* \"#utility.yul\":5328:5337   */\n      dup4\n        /* \"#utility.yul\":5324:5342   */\n      add\n        /* \"#utility.yul\":5315:5321   */\n      dup5\n        /* \"#utility.yul\":5271:5343   */\n      tag_76\n      jump\t// in\n    tag_156:\n        /* \"#utility.yul\":4927:5350   */\n      swap4\n      swap3\n      pop\n      pop\n      pop\n      jump\t// out\n        /* \"#utility.yul\":5356:5889   */\n    tag_27:\n        /* \"#utility.yul\":5525:5529   */\n      0x00\n        /* \"#utility.yul\":5563:5565   */\n      0x60\n        /* \"#utility.yul\":5552:5561   */\n      dup3\n        /* \"#utility.yul\":5548:5566   */\n      add\n        /* \"#utility.yul\":5540:5566   */\n      swap1\n      pop\n        /* \"#utility.yul\":5612:5621   */\n      dup2\n        /* \"#utility.yul\":5606:5610   */\n      dup2\n        /* \"#utility.yul\":5602:5622   */\n      sub\n        /* \"#utility.yul\":5598:5599   */\n      0x00\n        /* \"#utility.yul\":5587:5596   */\n      dup4\n        /* \"#utility.yul\":5583:5600   */\n      add\n        /* \"#utility.yul\":5576:5623   */\n      mstore\n        /* \"#utility.yul\":5640:5718   */\n      tag_158\n        /* \"#utility.yul\":5713:5717   */\n      dup2\n        /* \"#utility.yul\":5704:5710   */\n      dup7\n        /* \"#utility.yul\":5640:5718   */\n      tag_74\n      jump\t// in\n    tag_158:\n        /* \"#utility.yul\":5632:5718   */\n      swap1\n      pop\n        /* \"#utility.yul\":5728:5800   */\n      tag_159\n        /* \"#utility.yul\":5796:5798   */\n      0x20\n        /* \"#utility.yul\":5785:5794   */\n      dup4\n        /* \"#utility.yul\":5781:5799   */\n      add\n        /* \"#utility.yul\":5772:5778   */\n      dup6\n        /* \"#utility.yul\":5728:5800   */\n      tag_76\n      jump\t// in\n    tag_159:\n        /* \"#utility.yul\":5810:5882   */\n      tag_160\n        /* \"#utility.yul\":5878:5880   */\n      0x40\n        /* \"#utility.yul\":5867:5876   */\n      dup4\n        /* \"#utility.yul\":5863:5881   */\n      add\n        /* \"#utility.yul\":5854:5860   */\n      dup5\n        /* \"#utility.yul\":5810:5882   */\n      tag_76\n      jump\t// in\n    tag_160:\n        /* \"#utility.yul\":5356:5889   */\n      swap5\n      swap4\n      pop\n      pop\n      pop\n      pop\n      jump\t// out\n        /* \"#utility.yul\":5895:6075   */\n    tag_77:\n        /* \"#utility.yul\":5943:6020   */\n      0x4e487b7100000000000000000000000000000000000000000000000000000000\n        /* \"#utility.yul\":5940:5941   */\n      0x00\n        /* \"#utility.yul\":5933:6021   */\n      mstore\n        /* \"#utility.yul\":6040:6044   */\n      0x11\n        /* \"#utility.yul\":6037:6038   */\n      0x04\n        /* \"#utility.yul\":6030:6045   */\n      mstore\n        /* \"#utility.yul\":6064:6068   */\n      0x24\n        /* \"#utility.yul\":6061:6062   */\n      0x00\n        /* \"#utility.yul\":6054:6069   */\n      revert\n        /* \"#utility.yul\":6081:6491   */\n    tag_30:\n        /* \"#utility.yul\":6121:6128   */\n      0x00\n        /* \"#utility.yul\":6144:6164   */\n      tag_163\n        /* \"#utility.yul\":6162:6163   */\n      dup3\n        /* \"#utility.yul\":6144:6164   */\n      tag_75\n      jump\t// in\n    tag_163:\n        /* \"#utility.yul\":6139:6164   */\n      swap2\n      pop\n        /* \"#utility.yul\":6178:6198   */\n      tag_164\n        /* \"#utility.yul\":6196:6197   */\n      dup4\n        /* \"#utility.yul\":6178:6198   */\n      tag_75\n      jump\t// in\n    tag_164:\n        /* \"#utility.yul\":6173:6198   */\n      swap3\n      pop\n        /* \"#utility.yul\":6233:6234   */\n      dup3\n        /* \"#utility.yul\":6230:6231   */\n      dup3\n        /* \"#utility.yul\":6226:6235   */\n      mul\n        /* \"#utility.yul\":6255:6285   */\n      tag_165\n        /* \"#utility.yul\":6273:6284   */\n      dup2\n        /* \"#utility.yul\":6255:6285   */\n      tag_75\n      jump\t// in\n    tag_165:\n        /* \"#utility.yul\":6244:6285   */\n      swap2\n      pop\n        /* \"#utility.yul\":6434:6435   */\n      dup3\n        /* \"#utility.yul\":6425:6432   */\n      dup3\n        /* \"#utility.yul\":6421:6436   */\n      div\n        /* \"#utility.yul\":6418:6419   */\n      dup5\n        /* \"#utility.yul\":6415:6437   */\n      eq\n        /* \"#utility.yul\":6395:6396   */\n      dup4\n        /* \"#utility.yul\":6388:6397   */\n      iszero\n        /* \"#utility.yul\":6368:6451   */\n      or\n        /* \"#utility.yul\":6345:6484   */\n      tag_166\n      jumpi\n        /* \"#utility.yul\":6464:6482   */\n      tag_167\n      tag_77\n      jump\t// in\n    tag_167:\n        /* \"#utility.yul\":6345:6484   */\n    tag_166:\n        /* \"#utility.yul\":6129:6491   */\n      pop\n        /* \"#utility.yul\":6081:6491   */\n      swap3\n      swap2\n      pop\n      pop\n      jump\t// out\n        /* \"#utility.yul\":6497:6677   */\n    tag_78:\n        /* \"#utility.yul\":6545:6622   */\n      0x4e487b7100000000000000000000000000000000000000000000000000000000\n        /* \"#utility.yul\":6542:6543   */\n      0x00\n        /* \"#utility.yul\":6535:6623   */\n      mstore\n        /* \"#utility.yul\":6642:6646   */\n      0x12\n        /* \"#utility.yul\":6639:6640   */\n      0x04\n        /* \"#utility.yul\":6632:6647   */\n      mstore\n        /* \"#utility.yul\":6666:6670   */\n      0x24\n        /* \"#utility.yul\":6663:6664   */\n      0x00\n        /* \"#utility.yul\":6656:6671   */\n      revert\n        /* \"#utility.yul\":6683:6868   */\n    tag_32:\n        /* \"#utility.yul\":6723:6724   */\n      0x00\n        /* \"#utility.yul\":6740:6760   */\n      tag_170\n        /* \"#utility.yul\":6758:6759   */\n      dup3\n        /* \"#utility.yul\":6740:6760   */\n      tag_75\n      jump\t// in\n    tag_170:\n        /* \"#utility.yul\":6735:6760   */\n      swap2\n      pop\n        /* \"#utility.yul\":6774:6794   */\n      tag_171\n        /* \"#utility.yul\":6792:6793   */\n      dup4\n        /* \"#utility.yul\":6774:6794   */\n      tag_75\n      jump\t// in\n    tag_171:\n        /* \"#utility.yul\":6769:6794   */\n      swap3\n      pop\n        /* \"#utility.yul\":6813:6814   */\n      dup3\n        /* \"#utility.yul\":6803:6838   */\n      tag_172\n      jumpi\n        /* \"#utility.yul\":6818:6836   */\n      tag_173\n      tag_78\n      jump\t// in\n    tag_173:\n        /* \"#utility.yul\":6803:6838   */\n    tag_172:\n        /* \"#utility.yul\":6860:6861   */\n      dup3\n        /* \"#utility.yul\":6857:6858   */\n      dup3\n        /* \"#utility.yul\":6853:6862   */\n      div\n        /* \"#utility.yul\":6848:6862   */\n      swap1\n      pop\n        /* \"#utility.yul\":6683:6868   */\n      swap3\n      swap2\n      pop\n      pop\n      jump\t// out\n        /* \"#utility.yul\":6874:7065   */\n    tag_34:\n        /* \"#utility.yul\":6914:6917   */\n      0x00\n        /* \"#utility.yul\":6933:6953   */\n      tag_175\n        /* \"#utility.yul\":6951:6952   */\n      dup3\n        /* \"#utility.yul\":6933:6953   */\n      tag_75\n      jump\t// in\n    tag_175:\n        /* \"#utility.yul\":6928:6953   */\n      swap2\n      pop\n        /* \"#utility.yul\":6967:6987   */\n      tag_176\n        /* \"#utility.yul\":6985:6986   */\n      dup4\n        /* \"#utility.yul\":6967:6987   */\n      tag_75\n      jump\t// in\n    tag_176:\n        /* \"#utility.yul\":6962:6987   */\n      swap3\n      pop\n        /* \"#utility.yul\":7010:7011   */\n      dup3\n        /* \"#utility.yul\":7007:7008   */\n      dup3\n        /* \"#utility.yul\":7003:7012   */\n      add\n        /* \"#utility.yul\":6996:7012   */\n      swap1\n      pop\n        /* \"#utility.yul\":7031:7034   */\n      dup1\n        /* \"#utility.yul\":7028:7029   */\n      dup3\n        /* \"#utility.yul\":7025:7035   */\n      gt\n        /* \"#utility.yul\":7022:7058   */\n      iszero\n      tag_177\n      jumpi\n        /* \"#utility.yul\":7038:7056   */\n      tag_178\n      tag_77\n      jump\t// in\n    tag_178:\n        /* \"#utility.yul\":7022:7058   */\n    tag_177:\n        /* \"#utility.yul\":6874:7065   */\n      swap3\n      swap2\n      pop\n      pop\n      jump\t// out\n        /* \"#utility.yul\":7071:7251   */\n    tag_79:\n        /* \"#utility.yul\":7119:7196   */\n      0x4e487b7100000000000000000000000000000000000000000000000000000000\n        /* \"#utility.yul\":7116:7117   */\n      0x00\n        /* \"#utility.yul\":7109:7197   */\n      mstore\n        /* \"#utility.yul\":7216:7220   */\n      0x22\n        /* \"#utility.yul\":7213:7214   */\n      0x04\n        /* \"#utility.yul\":7206:7221   */\n      mstore\n        /* \"#utility.yul\":7240:7244   */\n      0x24\n        /* \"#utility.yul\":7237:7238   */\n      0x00\n        /* \"#utility.yul\":7230:7245   */\n      revert\n        /* \"#utility.yul\":7257:7577   */\n    tag_39:\n        /* \"#utility.yul\":7301:7307   */\n      0x00\n        /* \"#utility.yul\":7338:7339   */\n      0x02\n        /* \"#utility.yul\":7332:7336   */\n      dup3\n        /* \"#utility.yul\":7328:7340   */\n      div\n        /* \"#utility.yul\":7318:7340   */\n      swap1\n      pop\n        /* \"#utility.yul\":7385:7386   */\n      0x01\n        /* \"#utility.yul\":7379:7383   */\n      dup3\n        /* \"#utility.yul\":7375:7387   */\n      and\n        /* \"#utility.yul\":7406:7424   */\n      dup1\n        /* \"#utility.yul\":7396:7477   */\n      tag_181\n      jumpi\n        /* \"#utility.yul\":7462:7466   */\n      0x7f\n        /* \"#utility.yul\":7454:7460   */\n      dup3\n        /* \"#utility.yul\":7450:7467   */\n      and\n        /* \"#utility.yul\":7440:7467   */\n      swap2\n      pop\n        /* \"#utility.yul\":7396:7477   */\n    tag_181:\n        /* \"#utility.yul\":7524:7526   */\n      0x20\n        /* \"#utility.yul\":7516:7522   */\n      dup3\n        /* \"#utility.yul\":7513:7527   */\n      lt\n        /* \"#utility.yul\":7493:7511   */\n      dup2\n        /* \"#utility.yul\":7490:7528   */\n      sub\n        /* \"#utility.yul\":7487:7571   */\n      tag_182\n      jumpi\n        /* \"#utility.yul\":7543:7561   */\n      tag_183\n      tag_79\n      jump\t// in\n    tag_183:\n        /* \"#utility.yul\":7487:7571   */\n    tag_182:\n        /* \"#utility.yul\":7308:7577   */\n      pop\n        /* \"#utility.yul\":7257:7577   */\n      swap2\n      swap1\n      pop\n      jump\t// out\n        /* \"#utility.yul\":7583:7724   */\n    tag_80:\n        /* \"#utility.yul\":7632:7636   */\n      0x00\n        /* \"#utility.yul\":7655:7658   */\n      dup2\n        /* \"#utility.yul\":7647:7658   */\n      swap1\n      pop\n        /* \"#utility.yul\":7678:7681   */\n      dup2\n        /* \"#utility.yul\":7675:7676   */\n      0x00\n        /* \"#utility.yul\":7668:7682   */\n      mstore\n        /* \"#utility.yul\":7712:7716   */\n      0x20\n        /* \"#utility.yul\":7709:7710   */\n      0x00\n        /* \"#utility.yul\":7699:7717   */\n      keccak256\n        /* \"#utility.yul\":7691:7717   */\n      swap1\n      pop\n        /* \"#utility.yul\":7583:7724   */\n      swap2\n      swap1\n      pop\n      jump\t// out\n        /* \"#utility.yul\":7730:7823   */\n    tag_81:\n        /* \"#utility.yul\":7767:7773   */\n      0x00\n        /* \"#utility.yul\":7814:7816   */\n      0x20\n        /* \"#utility.yul\":7809:7811   */\n      0x1f\n        /* \"#utility.yul\":7802:7807   */\n      dup4\n        /* \"#utility.yul\":7798:7812   */\n      add\n        /* \"#utility.yul\":7794:7817   */\n      div\n        /* \"#utility.yul\":7784:7817   */\n      swap1\n      pop\n        /* \"#utility.yul\":7730:7823   */\n      swap2\n      swap1\n      pop\n      jump\t// out\n        /* \"#utility.yul\":7829:7936   */\n    tag_82:\n        /* \"#utility.yul\":7873:7881   */\n      0x00\n        /* \"#utility.yul\":7923:7928   */\n      dup3\n        /* \"#utility.yul\":7917:7921   */\n      dup3\n        /* \"#utility.yul\":7913:7929   */\n      shl\n        /* \"#utility.yul\":7892:7929   */\n      swap1\n      pop\n        /* \"#utility.yul\":7829:7936   */\n      swap3\n      swap2\n      pop\n      pop\n      jump\t// out\n        /* \"#utility.yul\":7942:8335   */\n    tag_83:\n        /* \"#utility.yul\":8011:8017   */\n      0x00\n        /* \"#utility.yul\":8061:8062   */\n      0x08\n        /* \"#utility.yul\":8049:8059   */\n      dup4\n        /* \"#utility.yul\":8045:8063   */\n      mul\n        /* \"#utility.yul\":8084:8181   */\n      tag_188\n        /* \"#utility.yul\":8114:8180   */\n      0xffffffffffffffffffffffffffffffffffffffffffffffffffffffffffffffff\n        /* \"#utility.yul\":8103:8112   */\n      dup3\n        /* \"#utility.yul\":8084:8181   */\n      tag_82\n      jump\t// in\n    tag_188:\n        /* \"#utility.yul\":8202:8241   */\n      tag_189\n        /* \"#utility.yul\":8232:8240   */\n      dup7\n        /* \"#utility.yul\":8221:8230   */\n      dup4\n        /* \"#utility.yul\":8202:8241   */\n      tag_82\n      jump\t// in\n    tag_189:\n        /* \"#utility.yul\":8190:8241   */\n      swap6\n      pop\n        /* \"#utility.yul\":8274:8278   */\n      dup1\n        /* \"#utility.yul\":8270:8279   */\n      not\n        /* \"#utility.yul\":8263:8268   */\n      dup5\n        /* \"#utility.yul\":8259:8280   */\n      and\n        /* \"#utility.yul\":8250:8280   */\n      swap4\n      pop\n        /* \"#utility.yul\":8323:8327   */\n      dup1\n        /* \"#utility.yul\":8313:8321   */\n      dup7\n        /* \"#utility.yul\":8309:8328   */\n      and\n        /* \"#utility.yul\":8302:8307   */\n      dup5\n        /* \"#utility.yul\":8299:8329   */\n      or\n        /* \"#utility.yul\":8289:8329   */\n      swap3\n      pop\n        /* \"#utility.yul\":8018:8335   */\n      pop\n      pop\n        /* \"#utility.yul\":7942:8335   */\n      swap4\n      swap3\n      pop\n      pop\n      pop\n      jump\t// out\n        /* \"#utility.yul\":8341:8401   */\n    tag_84:\n        /* \"#utility.yul\":8369:8372   */\n      0x00\n        /* \"#utility.yul\":8390:8395   */\n      dup2\n        /* \"#utility.yul\":8383:8395   */\n      swap1\n      pop\n        /* \"#utility.yul\":8341:8401   */\n      swap2\n      swap1\n      pop\n      jump\t// out\n        /* \"#utility.yul\":8407:8549   */\n    tag_85:\n        /* \"#utility.yul\":8457:8466   */\n      0x00\n        /* \"#utility.yul\":8490:8543   */\n      tag_192\n        /* \"#utility.yul\":8508:8542   */\n      tag_193\n        /* \"#utility.yul\":8517:8541   */\n      tag_194\n        /* \"#utility.yul\":8535:8540   */\n      dup5\n        /* \"#utility.yul\":8517:8541   */\n      tag_75\n      jump\t// in\n    tag_194:\n        /* \"#utility.yul\":8508:8542   */\n      tag_84\n      jump\t// in\n    tag_193:\n        /* \"#utility.yul\":8490:8543   */\n      tag_75\n      jump\t// in\n    tag_192:\n        /* \"#utility.yul\":8477:8543   */\n      swap1\n      pop\n        /* \"#utility.yul\":8407:8549   */\n      swap2\n      swap1\n      pop\n      jump\t// out\n        /* \"#utility.yul\":8555:8630   */\n    tag_86:\n        /* \"#utility.yul\":8598:8601   */\n      0x00\n        /* \"#utility.yul\":8619:8624   */\n      dup2\n        /* \"#utility.yul\":8612:8624   */\n      swap1\n      pop\n        /* \"#utility.yul\":8555:8630   */\n      swap2\n      swap1\n      pop\n      jump\t// out\n        /* \"#utility.yul\":8636:8905   */\n    tag_87:\n        /* \"#utility.yul\":8746:8785   */\n      tag_197\n        /* \"#utility.yul\":8777:8784   */\n      dup4\n        /* \"#utility.yul\":8746:8785   */\n      tag_85\n      jump\t// in\n    tag_197:\n        /* \"#utility.yul\":8807:8898   */\n      tag_198\n        /* \"#utility.yul\":8856:8897   */\n      tag_199\n        /* \"#utility.yul\":8880:8896   */\n      dup3\n        /* \"#utility.yul\":8856:8897   */\n      tag_86\n      jump\t// in\n    tag_199:\n        /* \"#utility.yul\":8848:8854   */\n      dup5\n        /* \"#utility.yul\":8841:8845   */\n      dup5\n        /* \"#utility.yul\":8835:8846   */\n      sload\n        /* \"#utility.yul\":8807:8898   */\n      tag_83\n      jump\t// in\n    tag_198:\n        /* \"#utility.yul\":8801:8805   */\n      dup3\n        /* \"#utility.yul\":8794:8899   */\n      sstore\n        /* \"#utility.yul\":8712:8905   */\n      pop\n        /* \"#utility.yul\":8636:8905   */\n      pop\n      pop\n      pop\n      jump\t// out\n        /* \"#utility.yul\":8911:8984   */\n    tag_88:\n        /* \"#utility.yul\":8956:8959   */\n      0x00\n        /* \"#utility.yul\":8977:8978   */\n      0x00\n        /* \"#utility.yul\":8970:8978   */\n      swap1\n      pop\n        /* \"#utility.yul\":8911:8984   */\n      swap1\n      jump\t// out\n        /* \"#utility.yul\":8990:9179   */\n    tag_89:\n        /* \"#utility.yul\":9067:9099   */\n      tag_202\n      tag_88\n      jump\t// in\n    tag_202:\n        /* \"#utility.yul\":9108:9173   */\n      tag_203\n        /* \"#utility.yul\":9166:9172   */\n      dup2\n        /* \"#utility.yul\":9158:9164   */\n      dup5\n        /* \"#utility.yul\":9152:9156   */\n      dup5\n        /* \"#utility.yul\":9108:9173   */\n      tag_87\n      jump\t// in\n    tag_203:\n        /* \"#utility.yul\":9043:9179   */\n      pop\n        /* \"#utility.yul\":8990:9179   */\n      pop\n      pop\n      jump\t// out\n        /* \"#utility.yul\":9185:9399   */\n    tag_90:\n        /* \"#utility.yul\":9270:9271   */\n      0x00\n        /* \"#utility.yul\":9255:9393   */\n    tag_205:\n        /* \"#utility.yul\":9280:9289   */\n      dup3\n        /* \"#utility.yul\":9277:9278   */\n      dup2\n        /* \"#utility.yul\":9274:9290   */\n      lt\n        /* \"#utility.yul\":9255:9393   */\n      iszero\n      tag_207\n      jumpi\n        /* \"#utility.yul\":9332:9383   */\n      tag_208\n        /* \"#utility.yul\":9381:9382   */\n      0x00\n        /* \"#utility.yul\":9377:9378   */\n      dup3\n        /* \"#utility.yul\":9366:9375   */\n      dup5\n        /* \"#utility.yul\":9362:9379   */\n      add\n        /* \"#utility.yul\":9332:9383   */\n      tag_89\n      jump\t// in\n    tag_208:\n        /* \"#utility.yul\":9305:9306   */\n      0x01\n        /* \"#utility.yul\":9302:9303   */\n      dup2\n        /* \"#utility.yul\":9298:9307   */\n      add\n        /* \"#utility.yul\":9293:9307   */\n      swap1\n      pop\n        /* \"#utility.yul\":9255:9393   */\n      jump(tag_205)\n    tag_207:\n        /* \"#utility.yul\":9259:9273   */\n      pop\n        /* \"#utility.yul\":9185:9399   */\n      pop\n      pop\n      jump\t// out\n        /* \"#utility.yul\":9405:10151   */\n    tag_91:\n        /* \"#utility.yul\":9506:9508   */\n      0x1f\n        /* \"#utility.yul\":9501:9504   */\n      dup3\n        /* \"#utility.yul\":9498:9509   */\n      gt\n        /* \"#utility.yul\":9495:10144   */\n      iszero\n      tag_210\n      jumpi\n        /* \"#utility.yul\":9535:9545   */\n      dup3\n        /* \"#utility.yul\":9530:9533   */\n      dup3\n        /* \"#utility.yul\":9527:9546   */\n      gt\n        /* \"#utility.yul\":9524:10134   */\n      iszero\n      tag_211\n      jumpi\n        /* \"#utility.yul\":9581:9619   */\n      tag_212\n        /* \"#utility.yul\":9613:9618   */\n      dup2\n        /* \"#utility.yul\":9581:9619   */\n      tag_80\n      jump\t// in\n    tag_212:\n        /* \"#utility.yul\":9656:9678   */\n      tag_213\n        /* \"#utility.yul\":9674:9677   */\n      dup4\n        /* \"#utility.yul\":9656:9678   */\n      tag_81\n      jump\t// in\n    tag_213:\n        /* \"#utility.yul\":9715:9744   */\n      tag_214\n        /* \"#utility.yul\":9733:9743   */\n      dup6\n        /* \"#utility.yul\":9715:9744   */\n      tag_81\n      jump\t// in\n    tag_214:\n        /* \"#utility.yul\":9905:9907   */\n      0x20\n        /* \"#utility.yul\":9893:9903   */\n      dup7\n        /* \"#utility.yul\":9890:9908   */\n      lt\n        /* \"#utility.yul\":9887:9966   */\n      iszero\n      tag_215\n      jumpi\n        /* \"#utility.yul\":9947:9948   */\n      0x00\n        /* \"#utility.yul\":9931:9948   */\n      swap1\n      pop\n        /* \"#utility.yul\":9887:9966   */\n    tag_215:\n        /* \"#utility.yul\":10016:10028   */\n      dup1\n        /* \"#utility.yul\":10006:10014   */\n      dup4\n        /* \"#utility.yul\":10002:10029   */\n      add\n        /* \"#utility.yul\":10046:10120   */\n      tag_216\n        /* \"#utility.yul\":10106:10118   */\n      dup3\n        /* \"#utility.yul\":10092:10104   */\n      dup5\n        /* \"#utility.yul\":10088:10119   */\n      sub\n        /* \"#utility.yul\":10075:10086   */\n      dup3\n        /* \"#utility.yul\":10046:10120   */\n      tag_90\n      jump\t// in\n    tag_216:\n        /* \"#utility.yul\":9547:10134   */\n      pop\n      pop\n      pop\n      pop\n        /* \"#utility.yul\":9524:10134   */\n    tag_211:\n        /* \"#utility.yul\":9495:10144   */\n    tag_210:\n        /* \"#utility.yul\":9405:10151   */\n      pop\n      pop\n      pop\n      jump\t// out\n        /* \"#utility.yul\":10157:10274   */\n    tag_92:\n        /* \"#utility.yul\":10211:10219   */\n      0x00\n        /* \"#utility.yul\":10261:10266   */\n      dup3\n        /* \"#utility.yul\":10255:10259   */\n      dup3\n        /* \"#utility.yul\":10251:10267   */\n      shr\n        /* \"#utility.yul\":10230:10267   */\n      swap1\n      pop\n        /* \"#utility.yul\":10157:10274   */\n      swap3\n      swap2\n      pop\n      pop\n      jump\t// out\n        /* \"#utility.yul\":10280:10449   */\n    tag_93:\n        /* \"#utility.yul\":10324:10330   */\n      0x00\n        /* \"#utility.yul\":10357:10408   */\n      tag_219\n        /* \"#utility.yul\":10405:10406   */\n      0x00\n        /* \"#utility.yul\":10401:10407   */\n      not\n        /* \"#utility.yul\":10393:10398   */\n      dup5\n        /* \"#utility.yul\":10390:10391   */\n      0x08\n        /* \"#utility.yul\":10386:10399   */\n      mul\n        /* \"#utility.yul\":10357:10408   */\n      tag_92\n      jump\t// in\n    tag_219:\n        /* \"#utility.yul\":10353:10409   */\n      not\n        /* \"#utility.yul\":10438:10442   */\n      dup1\n        /* \"#utility.yul\":10432:10436   */\n      dup4\n        /* \"#utility.yul\":10428:10443   */\n      and\n        /* \"#utility.yul\":10418:10443   */\n      swap2\n      pop\n        /* \"#utility.yul\":10331:10449   */\n      pop\n        /* \"#utility.yul\":10280:10449   */\n      swap3\n      swap2\n      pop\n      pop\n      jump\t// out\n        /* \"#utility.yul\":10454:10749   */\n    tag_94:\n        /* \"#utility.yul\":10530:10534   */\n      0x00\n        /* \"#utility.yul\":10676:10705   */\n      tag_221\n        /* \"#utility.yul\":10701:10704   */\n      dup4\n        /* \"#utility.yul\":10695:10699   */\n      dup4\n        /* \"#utility.yul\":10676:10705   */\n      tag_93\n      jump\t// in\n    tag_221:\n        /* \"#utility.yul\":10668:10705   */\n      swap2\n      pop\n        /* \"#utility.yul\":10738:10741   */\n      dup3\n        /* \"#utility.yul\":10735:10736   */\n      0x02\n        /* \"#utility.yul\":10731:10742   */\n      mul\n        /* \"#utility.yul\":10725:10729   */\n      dup3\n        /* \"#utility.yul\":10722:10743   */\n      or\n        /* \"#utility.yul\":10714:10743   */\n      swap1\n      pop\n        /* \"#utility.yul\":10454:10749   */\n      swap3\n      swap2\n      pop\n      pop\n      jump\t// out\n        /* \"#utility.yul\":10754:12149   */\n    tag_37:\n        /* \"#utility.yul\":10871:10908   */\n      tag_223\n        /* \"#utility.yul\":10904:10907   */\n      dup3\n        /* \"#utility.yul\":10871:10908   */\n      tag_71\n      jump\t// in\n    tag_223:\n        /* \"#utility.yul\":10973:10991   */\n      0xffffffffffffffff\n        /* \"#utility.yul\":10965:10971   */\n      dup2\n        /* \"#utility.yul\":10962:10992   */\n      gt\n        /* \"#utility.yul\":10959:11015   */\n      iszero\n      tag_224\n      jumpi\n        /* \"#utility.yul\":10995:11013   */\n      tag_225\n      tag_60\n      jump\t// in\n    tag_225:\n        /* \"#utility.yul\":10959:11015   */\n    tag_224:\n        /* \"#utility.yul\":11039:11077   */\n      tag_226\n        /* \"#utility.yul\":11071:11075   */\n      dup3\n        /* \"#utility.yul\":11065:11076   */\n      sload\n        /* \"#utility.yul\":11039:11077   */\n      tag_39\n      jump\t// in\n    tag_226:\n        /* \"#utility.yul\":11124:11191   */\n      tag_227\n        /* \"#utility.yul\":11184:11190   */\n      dup3\n        /* \"#utility.yul\":11176:11182   */\n      dup3\n        /* \"#utility.yul\":11170:11174   */\n      dup6\n        /* \"#utility.yul\":11124:11191   */\n      tag_91\n      jump\t// in\n    tag_227:\n        /* \"#utility.yul\":11218:11219   */\n      0x00\n        /* \"#utility.yul\":11242:11246   */\n      0x20\n        /* \"#utility.yul\":11229:11246   */\n      swap1\n      pop\n        /* \"#utility.yul\":11274:11276   */\n      0x1f\n        /* \"#utility.yul\":11266:11272   */\n      dup4\n        /* \"#utility.yul\":11263:11277   */\n      gt\n        /* \"#utility.yul\":11291:11292   */\n      0x01\n        /* \"#utility.yul\":11286:11904   */\n      dup2\n      eq\n      tag_229\n      jumpi\n        /* \"#utility.yul\":11948:11949   */\n      0x00\n        /* \"#utility.yul\":11965:11971   */\n      dup5\n        /* \"#utility.yul\":11962:12039   */\n      iszero\n      tag_230\n      jumpi\n        /* \"#utility.yul\":12014:12023   */\n      dup3\n        /* \"#utility.yul\":12009:12012   */\n      dup8\n        /* \"#utility.yul\":12005:12024   */\n      add\n        /* \"#utility.yul\":11999:12025   */\n      mload\n        /* \"#utility.yul\":11990:12025   */\n      swap1\n      pop\n        /* \"#utility.yul\":11962:12039   */\n    tag_230:\n        /* \"#utility.yul\":12065:12132   */\n      tag_231\n        /* \"#utility.yul\":12125:12131   */\n      dup6\n        /* \"#utility.yul\":12118:12123   */\n      dup3\n        /* \"#utility.yul\":12065:12132   */\n      tag_94\n      jump\t// in\n    tag_231:\n        /* \"#utility.yul\":12059:12063   */\n      dup7\n        /* \"#utility.yul\":12052:12133   */\n      sstore\n        /* \"#utility.yul\":11921:12143   */\n      pop\n        /* \"#utility.yul\":11256:12143   */\n      jump(tag_228)\n        /* \"#utility.yul\":11286:11904   */\n    tag_229:\n        /* \"#utility.yul\":11338:11342   */\n      0x1f\n        /* \"#utility.yul\":11334:11343   */\n      not\n        /* \"#utility.yul\":11326:11332   */\n      dup5\n        /* \"#utility.yul\":11322:11344   */\n      and\n        /* \"#utility.yul\":11372:11409   */\n      tag_232\n        /* \"#utility.yul\":11404:11408   */\n      dup7\n        /* \"#utility.yul\":11372:11409   */\n      tag_80\n      jump\t// in\n    tag_232:\n        /* \"#utility.yul\":11431:11432   */\n      0x00\n        /* \"#utility.yul\":11445:11653   */\n    tag_233:\n        /* \"#utility.yul\":11459:11466   */\n      dup3\n        /* \"#utility.yul\":11456:11457   */\n      dup2\n        /* \"#utility.yul\":11453:11467   */\n      lt\n        /* \"#utility.yul\":11445:11653   */\n      iszero\n      tag_235\n      jumpi\n        /* \"#utility.yul\":11538:11547   */\n      dup5\n        /* \"#utility.yul\":11533:11536   */\n      dup10\n        /* \"#utility.yul\":11529:11548   */\n      add\n        /* \"#utility.yul\":11523:11549   */\n      mload\n        /* \"#utility.yul\":11515:11521   */\n      dup3\n        /* \"#utility.yul\":11508:11550   */\n      sstore\n        /* \"#utility.yul\":11589:11590   */\n      0x01\n        /* \"#utility.yul\":11581:11587   */\n      dup3\n        /* \"#utility.yul\":11577:11591   */\n      add\n        /* \"#utility.yul\":11567:11591   */\n      swap2\n      pop\n        /* \"#utility.yul\":11636:11638   */\n      0x20\n        /* \"#utility.yul\":11625:11634   */\n      dup6\n        /* \"#utility.yul\":11621:11639   */\n      add\n        /* \"#utility.yul\":11608:11639   */\n      swap5\n      pop\n        /* \"#utility.yul\":11482:11486   */\n      0x20\n        /* \"#utility.yul\":11479:11480   */\n      dup2\n        /* \"#utility.yul\":11475:11487   */\n      add\n        /* \"#utility.yul\":11470:11487   */\n      swap1\n      pop\n        /* \"#utility.yul\":11445:11653   */\n      jump(tag_233)\n    tag_235:\n        /* \"#utility.yul\":11681:11687   */\n      dup7\n        /* \"#utility.yul\":11672:11679   */\n      dup4\n        /* \"#utility.yul\":11669:11688   */\n      lt\n        /* \"#utility.yul\":11666:11845   */\n      iszero\n      tag_236\n      jumpi\n        /* \"#utility.yul\":11739:11748   */\n      dup5\n        /* \"#utility.yul\":11734:11737   */\n      dup10\n        /* \"#utility.yul\":11730:11749   */\n      add\n        /* \"#utility.yul\":11724:11750   */\n      mload\n        /* \"#utility.yul\":11782:11830   */\n      tag_237\n        /* \"#utility.yul\":11824:11828   */\n      0x1f\n        /* \"#utility.yul\":11816:11822   */\n      dup10\n        /* \"#utility.yul\":11812:11829   */\n      and\n        /* \"#utility.yul\":11801:11810   */\n      dup3\n        /* \"#utility.yul\":11782:11830   */\n      tag_93\n      jump\t// in\n    tag_237:\n        /* \"#utility.yul\":11774:11780   */\n      dup4\n        /* \"#utility.yul\":11767:11831   */\n      sstore\n        /* \"#utility.yul\":11689:11845   */\n      pop\n        /* \"#utility.yul\":11666:11845   */\n    tag_236:\n        /* \"#utility.yul\":11891:11892   */\n      0x01\n        /* \"#utility.yul\":11887:11888   */\n      0x02\n        /* \"#utility.yul\":11879:11885   */\n      dup9\n        /* \"#utility.yul\":11875:11889   */\n      mul\n        /* \"#utility.yul\":11871:11893   */\n      add\n        /* \"#utility.yul\":11865:11869   */\n      dup9\n        /* \"#utility.yul\":11858:11894   */\n      sstore\n        /* \"#utility.yul\":11293:11904   */\n      pop\n      pop\n      pop\n        /* \"#utility.yul\":11256:12143   */\n    tag_228:\n      pop\n        /* \"#utility.yul\":10846:12149   */\n      pop\n      pop\n      pop\n        /* \"#utility.yul\":10754:12149   */\n      pop\n      pop\n      jump\t// out\n\n    auxdata: 0xa2646970667358221220fe135343394697901cb27b39e8fa55068d9fadb973657d9ee9c0b4c3b0a2215f64736f6c63430008220033\n}\n",
				"bytecode": {
					"linkReferences": {},
					"object": "6080604052348015600e575f5ffd5b50610b0f8061001c5f395ff3fe608060405260043610610049575f3560e01c80630d09365c1461004d578063298daf5b146100635780635e5c06e21461007f578063d0e30db0146100bc578063fbbf93a0146100c6575b5f5ffd5b348015610058575f5ffd5b506100616100f2565b005b61007d60048036038101906100789190610550565b61016f565b005b34801561008a575f5ffd5b506100a560048036038101906100a091906105f1565b6101e4565b6040516100b3929190610694565b60405180910390f35b6100c4610289565b005b3480156100d1575f5ffd5b506100da6102e5565b6040516100e9939291906106c2565b60405180910390f35b5f5f5f3373ffffffffffffffffffffffffffffffffffffffff1673ffffffffffffffffffffffffffffffffffffffff1681526020019081526020015f2090505f606460058360010154610145919061072b565b61014f9190610799565b905080826001015f82825461016491906107c9565b925050819055505050565b6040518060400160405280828152602001348152505f5f3373ffffffffffffffffffffffffffffffffffffffff1673ffffffffffffffffffffffffffffffffffffffff1681526020019081526020015f205f820151815f0190816101d39190610a0a565b506020820151816001015590505050565b5f602052805f5260405f205f91509050805f01805461020290610829565b80601f016020809104026020016040519081016040528092919081815260200182805461022e90610829565b80156102795780601f1061025057610100808354040283529160200191610279565b820191905f5260205f20905b81548152906001019060200180831161025c57829003601f168201915b5050505050908060010154905082565b5f5f5f3373ffffffffffffffffffffffffffffffffffffffff1673ffffffffffffffffffffffffffffffffffffffff1681526020019081526020015f20905034816001015f8282546102db91906107c9565b9250508190555050565b60605f5f5f5f5f3373ffffffffffffffffffffffffffffffffffffffff1673ffffffffffffffffffffffffffffffffffffffff1681526020019081526020015f206040518060400160405290815f8201805461034090610829565b80601f016020809104026020016040519081016040528092919081815260200182805461036c90610829565b80156103b75780601f1061038e576101008083540402835291602001916103b7565b820191905f5260205f20905b81548152906001019060200180831161039a57829003601f168201915b5050505050815260200160018201548152505090505f6064600583602001516103e0919061072b565b6103ea9190610799565b9050815f01518260200151829450945094505050909192565b5f604051905090565b5f5ffd5b5f5ffd5b5f5ffd5b5f5ffd5b5f601f19601f8301169050919050565b7f4e487b71000000000000000000000000000000000000000000000000000000005f52604160045260245ffd5b6104628261041c565b810181811067ffffffffffffffff821117156104815761048061042c565b5b80604052505050565b5f610493610403565b905061049f8282610459565b919050565b5f67ffffffffffffffff8211156104be576104bd61042c565b5b6104c78261041c565b9050602081019050919050565b828183375f83830152505050565b5f6104f46104ef846104a4565b61048a565b9050828152602081018484840111156105105761050f610418565b5b61051b8482856104d4565b509392505050565b5f82601f83011261053757610536610414565b5b81356105478482602086016104e2565b91505092915050565b5f602082840312156105655761056461040c565b5b5f82013567ffffffffffffffff81111561058257610581610410565b5b61058e84828501610523565b91505092915050565b5f73ffffffffffffffffffffffffffffffffffffffff82169050919050565b5f6105c082610597565b9050919050565b6105d0816105b6565b81146105da575f5ffd5b50565b5f813590506105eb816105c7565b92915050565b5f602082840312156106065761060561040c565b5b5f610613848285016105dd565b91505092915050565b5f81519050919050565b5f82825260208201905092915050565b8281835e5f83830152505050565b5f61064e8261061c565b6106588185610626565b9350610668818560208601610636565b6106718161041c565b840191505092915050565b5f819050919050565b61068e8161067c565b82525050565b5f6040820190508181035f8301526106ac8185610644565b90506106bb6020830184610685565b9392505050565b5f6060820190508181035f8301526106da8186610644565b90506106e96020830185610685565b6106f66040830184610685565b949350505050565b7f4e487b71000000000000000000000000000000000000000000000000000000005f52601160045260245ffd5b5f6107358261067c565b91506107408361067c565b925082820261074e8161067c565b91508282048414831517610765576107646106fe565b5b5092915050565b7f4e487b71000000000000000000000000000000000000000000000000000000005f52601260045260245ffd5b5f6107a38261067c565b91506107ae8361067c565b9250826107be576107bd61076c565b5b828204905092915050565b5f6107d38261067c565b91506107de8361067c565b92508282019050808211156107f6576107f56106fe565b5b92915050565b7f4e487b71000000000000000000000000000000000000000000000000000000005f52602260045260245ffd5b5f600282049050600182168061084057607f821691505b602082108103610853576108526107fc565b5b50919050565b5f819050815f5260205f209050919050565b5f6020601f8301049050919050565b5f82821b905092915050565b5f600883026108b57fffffffffffffffffffffffffffffffffffffffffffffffffffffffffffffffff8261087a565b6108bf868361087a565b95508019841693508086168417925050509392505050565b5f819050919050565b5f6108fa6108f56108f08461067c565b6108d7565b61067c565b9050919050565b5f819050919050565b610913836108e0565b61092761091f82610901565b848454610886565b825550505050565b5f5f905090565b61093e61092f565b61094981848461090a565b505050565b5f5b8281101561096f576109645f828401610936565b600181019050610950565b505050565b601f8211156109c257828211156109c15761098e81610859565b6109978361086b565b6109a08561086b565b60208610156109ad575f90505b8083016109bc8284038261094e565b505050505b5b505050565b5f82821c905092915050565b5f6109e25f19846008026109c7565b1980831691505092915050565b5f6109fa83836109d3565b9150826002028217905092915050565b610a138261061c565b67ffffffffffffffff811115610a2c57610a2b61042c565b5b610a368254610829565b610a41828285610974565b5f60209050601f831160018114610a72575f8415610a60578287015190505b610a6a85826109ef565b865550610ad1565b601f198416610a8086610859565b5f5b82811015610aa757848901518255600182019150602085019450602081019050610a82565b86831015610ac45784890151610ac0601f8916826109d3565b8355505b6001600288020188555050505b50505050505056fea2646970667358221220fe135343394697901cb27b39e8fa55068d9fadb973657d9ee9c0b4c3b0a2215f64736f6c63430008220033",
					"opcodes": "PUSH1 0x80 PUSH1 0x40 MSTORE CALLVALUE DUP1 ISZERO PUSH1 0xE JUMPI PUSH0 PUSH0 REVERT JUMPDEST POP PUSH2 0xB0F DUP1 PUSH2 0x1C PUSH0 CODECOPY PUSH0 RETURN INVALID PUSH1 0x80 PUSH1 0x40 MSTORE PUSH1 0x4 CALLDATASIZE LT PUSH2 0x49 JUMPI PUSH0 CALLDATALOAD PUSH1 0xE0 SHR DUP1 PUSH4 0xD09365C EQ PUSH2 0x4D JUMPI DUP1 PUSH4 0x298DAF5B EQ PUSH2 0x63 JUMPI DUP1 PUSH4 0x5E5C06E2 EQ PUSH2 0x7F JUMPI DUP1 PUSH4 0xD0E30DB0 EQ PUSH2 0xBC JUMPI DUP1 PUSH4 0xFBBF93A0 EQ PUSH2 0xC6 JUMPI JUMPDEST PUSH0 PUSH0 REVERT JUMPDEST CALLVALUE DUP1 ISZERO PUSH2 0x58 JUMPI PUSH0 PUSH0 REVERT JUMPDEST POP PUSH2 0x61 PUSH2 0xF2 JUMP JUMPDEST STOP JUMPDEST PUSH2 0x7D PUSH1 0x4 DUP1 CALLDATASIZE SUB DUP2 ADD SWAP1 PUSH2 0x78 SWAP2 SWAP1 PUSH2 0x550 JUMP JUMPDEST PUSH2 0x16F JUMP JUMPDEST STOP JUMPDEST CALLVALUE DUP1 ISZERO PUSH2 0x8A JUMPI PUSH0 PUSH0 REVERT JUMPDEST POP PUSH2 0xA5 PUSH1 0x4 DUP1 CALLDATASIZE SUB DUP2 ADD SWAP1 PUSH2 0xA0 SWAP2 SWAP1 PUSH2 0x5F1 JUMP JUMPDEST PUSH2 0x1E4 JUMP JUMPDEST PUSH1 0x40 MLOAD PUSH2 0xB3 SWAP3 SWAP2 SWAP1 PUSH2 0x694 JUMP JUMPDEST PUSH1 0x40 MLOAD DUP1 SWAP2 SUB SWAP1 RETURN JUMPDEST PUSH2 0xC4 PUSH2 0x289 JUMP JUMPDEST STOP JUMPDEST CALLVALUE DUP1 ISZERO PUSH2 0xD1 JUMPI PUSH0 PUSH0 REVERT JUMPDEST POP PUSH2 0xDA PUSH2 0x2E5 JUMP JUMPDEST PUSH1 0x40 MLOAD PUSH2 0xE9 SWAP4 SWAP3 SWAP2 SWAP1 PUSH2 0x6C2 JUMP JUMPDEST PUSH1 0x40 MLOAD DUP1 SWAP2 SUB SWAP1 RETURN JUMPDEST PUSH0 PUSH0 PUSH0 CALLER PUSH20 0xFFFFFFFFFFFFFFFFFFFFFFFFFFFFFFFFFFFFFFFF AND PUSH20 0xFFFFFFFFFFFFFFFFFFFFFFFFFFFFFFFFFFFFFFFF AND DUP2 MSTORE PUSH1 0x20 ADD SWAP1 DUP2 MSTORE PUSH1 0x20 ADD PUSH0 KECCAK256 SWAP1 POP PUSH0 PUSH1 0x64 PUSH1 0x5 DUP4 PUSH1 0x1 ADD SLOAD PUSH2 0x145 SWAP2 SWAP1 PUSH2 0x72B JUMP JUMPDEST PUSH2 0x14F SWAP2 SWAP1 PUSH2 0x799 JUMP JUMPDEST SWAP1 POP DUP1 DUP3 PUSH1 0x1 ADD PUSH0 DUP3 DUP3 SLOAD PUSH2 0x164 SWAP2 SWAP1 PUSH2 0x7C9 JUMP JUMPDEST SWAP3 POP POP DUP2 SWAP1 SSTORE POP POP POP JUMP JUMPDEST PUSH1 0x40 MLOAD DUP1 PUSH1 0x40 ADD PUSH1 0x40 MSTORE DUP1 DUP3 DUP2 MSTORE PUSH1 0x20 ADD CALLVALUE DUP2 MSTORE POP PUSH0 PUSH0 CALLER PUSH20 0xFFFFFFFFFFFFFFFFFFFFFFFFFFFFFFFFFFFFFFFF AND PUSH20 0xFFFFFFFFFFFFFFFFFFFFFFFFFFFFFFFFFFFFFFFF AND DUP2 MSTORE PUSH1 0x20 ADD SWAP1 DUP2 MSTORE PUSH1 0x20 ADD PUSH0 KECCAK256 PUSH0 DUP3 ADD MLOAD DUP2 PUSH0 ADD SWAP1 DUP2 PUSH2 0x1D3 SWAP2 SWAP1 PUSH2 0xA0A JUMP JUMPDEST POP PUSH1 0x20 DUP3 ADD MLOAD DUP2 PUSH1 0x1 ADD SSTORE SWAP1 POP POP POP JUMP JUMPDEST PUSH0 PUSH1 0x20 MSTORE DUP1 PUSH0 MSTORE PUSH1 0x40 PUSH0 KECCAK256 PUSH0 SWAP2 POP SWAP1 POP DUP1 PUSH0 ADD DUP1 SLOAD PUSH2 0x202 SWAP1 PUSH2 0x829 JUMP JUMPDEST DUP1 PUSH1 0x1F ADD PUSH1 0x20 DUP1 SWAP2 DIV MUL PUSH1 0x20 ADD PUSH1 0x40 MLOAD SWAP1 DUP2 ADD PUSH1 0x40 MSTORE DUP1 SWAP3 SWAP2 SWAP1 DUP2 DUP2 MSTORE PUSH1 0x20 ADD DUP3 DUP1 SLOAD PUSH2 0x22E SWAP1 PUSH2 0x829 JUMP JUMPDEST DUP1 ISZERO PUSH2 0x279 JUMPI DUP1 PUSH1 0x1F LT PUSH2 0x250 JUMPI PUSH2 0x100 DUP1 DUP4 SLOAD DIV MUL DUP4 MSTORE SWAP2 PUSH1 0x20 ADD SWAP2 PUSH2 0x279 JUMP JUMPDEST DUP3 ADD SWAP2 SWAP1 PUSH0 MSTORE PUSH1 0x20 PUSH0 KECCAK256 SWAP1 JUMPDEST DUP2 SLOAD DUP2 MSTORE SWAP1 PUSH1 0x1 ADD SWAP1 PUSH1 0x20 ADD DUP1 DUP4 GT PUSH2 0x25C JUMPI DUP3 SWAP1 SUB PUSH1 0x1F AND DUP3 ADD SWAP2 JUMPDEST POP POP POP POP POP SWAP1 DUP1 PUSH1 0x1 ADD SLOAD SWAP1 POP DUP3 JUMP JUMPDEST PUSH0 PUSH0 PUSH0 CALLER PUSH20 0xFFFFFFFFFFFFFFFFFFFFFFFFFFFFFFFFFFFFFFFF AND PUSH20 0xFFFFFFFFFFFFFFFFFFFFFFFFFFFFFFFFFFFFFFFF AND DUP2 MSTORE PUSH1 0x20 ADD SWAP1 DUP2 MSTORE PUSH1 0x20 ADD PUSH0 KECCAK256 SWAP1 POP CALLVALUE DUP2 PUSH1 0x1 ADD PUSH0 DUP3 DUP3 SLOAD PUSH2 0x2DB SWAP2 SWAP1 PUSH2 0x7C9 JUMP JUMPDEST SWAP3 POP POP DUP2 SWAP1 SSTORE POP POP JUMP JUMPDEST PUSH1 0x60 PUSH0 PUSH0 PUSH0 PUSH0 PUSH0 CALLER PUSH20 0xFFFFFFFFFFFFFFFFFFFFFFFFFFFFFFFFFFFFFFFF AND PUSH20 0xFFFFFFFFFFFFFFFFFFFFFFFFFFFFFFFFFFFFFFFF AND DUP2 MSTORE PUSH1 0x20 ADD SWAP1 DUP2 MSTORE PUSH1 0x20 ADD PUSH0 KECCAK256 PUSH1 0x40 MLOAD DUP1 PUSH1 0x40 ADD PUSH1 0x40 MSTORE SWAP1 DUP2 PUSH0 DUP3 ADD DUP1 SLOAD PUSH2 0x340 SWAP1 PUSH2 0x829 JUMP JUMPDEST DUP1 PUSH1 0x1F ADD PUSH1 0x20 DUP1 SWAP2 DIV MUL PUSH1 0x20 ADD PUSH1 0x40 MLOAD SWAP1 DUP2 ADD PUSH1 0x40 MSTORE DUP1 SWAP3 SWAP2 SWAP1 DUP2 DUP2 MSTORE PUSH1 0x20 ADD DUP3 DUP1 SLOAD PUSH2 0x36C SWAP1 PUSH2 0x829 JUMP JUMPDEST DUP1 ISZERO PUSH2 0x3B7 JUMPI DUP1 PUSH1 0x1F LT PUSH2 0x38E JUMPI PUSH2 0x100 DUP1 DUP4 SLOAD DIV MUL DUP4 MSTORE SWAP2 PUSH1 0x20 ADD SWAP2 PUSH2 0x3B7 JUMP JUMPDEST DUP3 ADD SWAP2 SWAP1 PUSH0 MSTORE PUSH1 0x20 PUSH0 KECCAK256 SWAP1 JUMPDEST DUP2 SLOAD DUP2 MSTORE SWAP1 PUSH1 0x1 ADD SWAP1 PUSH1 0x20 ADD DUP1 DUP4 GT PUSH2 0x39A JUMPI DUP3 SWAP1 SUB PUSH1 0x1F AND DUP3 ADD SWAP2 JUMPDEST POP POP POP POP POP DUP2 MSTORE PUSH1 0x20 ADD PUSH1 0x1 DUP3 ADD SLOAD DUP2 MSTORE POP POP SWAP1 POP PUSH0 PUSH1 0x64 PUSH1 0x5 DUP4 PUSH1 0x20 ADD MLOAD PUSH2 0x3E0 SWAP2 SWAP1 PUSH2 0x72B JUMP JUMPDEST PUSH2 0x3EA SWAP2 SWAP1 PUSH2 0x799 JUMP JUMPDEST SWAP1 POP DUP2 PUSH0 ADD MLOAD DUP3 PUSH1 0x20 ADD MLOAD DUP3 SWAP5 POP SWAP5 POP SWAP5 POP POP POP SWAP1 SWAP2 SWAP3 JUMP JUMPDEST PUSH0 PUSH1 0x40 MLOAD SWAP1 POP SWAP1 JUMP JUMPDEST PUSH0 PUSH0 REVERT JUMPDEST PUSH0 PUSH0 REVERT JUMPDEST PUSH0 PUSH0 REVERT JUMPDEST PUSH0 PUSH0 REVERT JUMPDEST PUSH0 PUSH1 0x1F NOT PUSH1 0x1F DUP4 ADD AND SWAP1 POP SWAP2 SWAP1 POP JUMP JUMPDEST PUSH32 0x4E487B7100000000000000000000000000000000000000000000000000000000 PUSH0 MSTORE PUSH1 0x41 PUSH1 0x4 MSTORE PUSH1 0x24 PUSH0 REVERT JUMPDEST PUSH2 0x462 DUP3 PUSH2 0x41C JUMP JUMPDEST DUP2 ADD DUP2 DUP2 LT PUSH8 0xFFFFFFFFFFFFFFFF DUP3 GT OR ISZERO PUSH2 0x481 JUMPI PUSH2 0x480 PUSH2 0x42C JUMP JUMPDEST JUMPDEST DUP1 PUSH1 0x40 MSTORE POP POP POP JUMP JUMPDEST PUSH0 PUSH2 0x493 PUSH2 0x403 JUMP JUMPDEST SWAP1 POP PUSH2 0x49F DUP3 DUP3 PUSH2 0x459 JUMP JUMPDEST SWAP2 SWAP1 POP JUMP JUMPDEST PUSH0 PUSH8 0xFFFFFFFFFFFFFFFF DUP3 GT ISZERO PUSH2 0x4BE JUMPI PUSH2 0x4BD PUSH2 0x42C JUMP JUMPDEST JUMPDEST PUSH2 0x4C7 DUP3 PUSH2 0x41C JUMP JUMPDEST SWAP1 POP PUSH1 0x20 DUP2 ADD SWAP1 POP SWAP2 SWAP1 POP JUMP JUMPDEST DUP3 DUP2 DUP4 CALLDATACOPY PUSH0 DUP4 DUP4 ADD MSTORE POP POP POP JUMP JUMPDEST PUSH0 PUSH2 0x4F4 PUSH2 0x4EF DUP5 PUSH2 0x4A4 JUMP JUMPDEST PUSH2 0x48A JUMP JUMPDEST SWAP1 POP DUP3 DUP2 MSTORE PUSH1 0x20 DUP2 ADD DUP5 DUP5 DUP5 ADD GT ISZERO PUSH2 0x510 JUMPI PUSH2 0x50F PUSH2 0x418 JUMP JUMPDEST JUMPDEST PUSH2 0x51B DUP5 DUP3 DUP6 PUSH2 0x4D4 JUMP JUMPDEST POP SWAP4 SWAP3 POP POP POP JUMP JUMPDEST PUSH0 DUP3 PUSH1 0x1F DUP4 ADD SLT PUSH2 0x537 JUMPI PUSH2 0x536 PUSH2 0x414 JUMP JUMPDEST JUMPDEST DUP2 CALLDATALOAD PUSH2 0x547 DUP5 DUP3 PUSH1 0x20 DUP7 ADD PUSH2 0x4E2 JUMP JUMPDEST SWAP2 POP POP SWAP3 SWAP2 POP POP JUMP JUMPDEST PUSH0 PUSH1 0x20 DUP3 DUP5 SUB SLT ISZERO PUSH2 0x565 JUMPI PUSH2 0x564 PUSH2 0x40C JUMP JUMPDEST JUMPDEST PUSH0 DUP3 ADD CALLDATALOAD PUSH8 0xFFFFFFFFFFFFFFFF DUP2 GT ISZERO PUSH2 0x582 JUMPI PUSH2 0x581 PUSH2 0x410 JUMP JUMPDEST JUMPDEST PUSH2 0x58E DUP5 DUP3 DUP6 ADD PUSH2 0x523 JUMP JUMPDEST SWAP2 POP POP SWAP3 SWAP2 POP POP JUMP JUMPDEST PUSH0 PUSH20 0xFFFFFFFFFFFFFFFFFFFFFFFFFFFFFFFFFFFFFFFF DUP3 AND SWAP1 POP SWAP2 SWAP1 POP JUMP JUMPDEST PUSH0 PUSH2 0x5C0 DUP3 PUSH2 0x597 JUMP JUMPDEST SWAP1 POP SWAP2 SWAP1 POP JUMP JUMPDEST PUSH2 0x5D0 DUP2 PUSH2 0x5B6 JUMP JUMPDEST DUP2 EQ PUSH2 0x5DA JUMPI PUSH0 PUSH0 REVERT JUMPDEST POP JUMP JUMPDEST PUSH0 DUP2 CALLDATALOAD SWAP1 POP PUSH2 0x5EB DUP2 PUSH2 0x5C7 JUMP JUMPDEST SWAP3 SWAP2 POP POP JUMP JUMPDEST PUSH0 PUSH1 0x20 DUP3 DUP5 SUB SLT ISZERO PUSH2 0x606 JUMPI PUSH2 0x605 PUSH2 0x40C JUMP JUMPDEST JUMPDEST PUSH0 PUSH2 0x613 DUP5 DUP3 DUP6 ADD PUSH2 0x5DD JUMP JUMPDEST SWAP2 POP POP SWAP3 SWAP2 POP POP JUMP JUMPDEST PUSH0 DUP2 MLOAD SWAP1 POP SWAP2 SWAP1 POP JUMP JUMPDEST PUSH0 DUP3 DUP3 MSTORE PUSH1 0x20 DUP3 ADD SWAP1 POP SWAP3 SWAP2 POP POP JUMP JUMPDEST DUP3 DUP2 DUP4 MCOPY PUSH0 DUP4 DUP4 ADD MSTORE POP POP POP JUMP JUMPDEST PUSH0 PUSH2 0x64E DUP3 PUSH2 0x61C JUMP JUMPDEST PUSH2 0x658 DUP2 DUP6 PUSH2 0x626 JUMP JUMPDEST SWAP4 POP PUSH2 0x668 DUP2 DUP6 PUSH1 0x20 DUP7 ADD PUSH2 0x636 JUMP JUMPDEST PUSH2 0x671 DUP2 PUSH2 0x41C JUMP JUMPDEST DUP5 ADD SWAP2 POP POP SWAP3 SWAP2 POP POP JUMP JUMPDEST PUSH0 DUP2 SWAP1 POP SWAP2 SWAP1 POP JUMP JUMPDEST PUSH2 0x68E DUP2 PUSH2 0x67C JUMP JUMPDEST DUP3 MSTORE POP POP JUMP JUMPDEST PUSH0 PUSH1 0x40 DUP3 ADD SWAP1 POP DUP2 DUP2 SUB PUSH0 DUP4 ADD MSTORE PUSH2 0x6AC DUP2 DUP6 PUSH2 0x644 JUMP JUMPDEST SWAP1 POP PUSH2 0x6BB PUSH1 0x20 DUP4 ADD DUP5 PUSH2 0x685 JUMP JUMPDEST SWAP4 SWAP3 POP POP POP JUMP JUMPDEST PUSH0 PUSH1 0x60 DUP3 ADD SWAP1 POP DUP2 DUP2 SUB PUSH0 DUP4 ADD MSTORE PUSH2 0x6DA DUP2 DUP7 PUSH2 0x644 JUMP JUMPDEST SWAP1 POP PUSH2 0x6E9 PUSH1 0x20 DUP4 ADD DUP6 PUSH2 0x685 JUMP JUMPDEST PUSH2 0x6F6 PUSH1 0x40 DUP4 ADD DUP5 PUSH2 0x685 JUMP JUMPDEST SWAP5 SWAP4 POP POP POP POP JUMP JUMPDEST PUSH32 0x4E487B7100000000000000000000000000000000000000000000000000000000 PUSH0 MSTORE PUSH1 0x11 PUSH1 0x4 MSTORE PUSH1 0x24 PUSH0 REVERT JUMPDEST PUSH0 PUSH2 0x735 DUP3 PUSH2 0x67C JUMP JUMPDEST SWAP2 POP PUSH2 0x740 DUP4 PUSH2 0x67C JUMP JUMPDEST SWAP3 POP DUP3 DUP3 MUL PUSH2 0x74E DUP2 PUSH2 0x67C JUMP JUMPDEST SWAP2 POP DUP3 DUP3 DIV DUP5 EQ DUP4 ISZERO OR PUSH2 0x765 JUMPI PUSH2 0x764 PUSH2 0x6FE JUMP JUMPDEST JUMPDEST POP SWAP3 SWAP2 POP POP JUMP JUMPDEST PUSH32 0x4E487B7100000000000000000000000000000000000000000000000000000000 PUSH0 MSTORE PUSH1 0x12 PUSH1 0x4 MSTORE PUSH1 0x24 PUSH0 REVERT JUMPDEST PUSH0 PUSH2 0x7A3 DUP3 PUSH2 0x67C JUMP JUMPDEST SWAP2 POP PUSH2 0x7AE DUP4 PUSH2 0x67C JUMP JUMPDEST SWAP3 POP DUP3 PUSH2 0x7BE JUMPI PUSH2 0x7BD PUSH2 0x76C JUMP JUMPDEST JUMPDEST DUP3 DUP3 DIV SWAP1 POP SWAP3 SWAP2 POP POP JUMP JUMPDEST PUSH0 PUSH2 0x7D3 DUP3 PUSH2 0x67C JUMP JUMPDEST SWAP2 POP PUSH2 0x7DE DUP4 PUSH2 0x67C JUMP JUMPDEST SWAP3 POP DUP3 DUP3 ADD SWAP1 POP DUP1 DUP3 GT ISZERO PUSH2 0x7F6 JUMPI PUSH2 0x7F5 PUSH2 0x6FE JUMP JUMPDEST JUMPDEST SWAP3 SWAP2 POP POP JUMP JUMPDEST PUSH32 0x4E487B7100000000000000000000000000000000000000000000000000000000 PUSH0 MSTORE PUSH1 0x22 PUSH1 0x4 MSTORE PUSH1 0x24 PUSH0 REVERT JUMPDEST PUSH0 PUSH1 0x2 DUP3 DIV SWAP1 POP PUSH1 0x1 DUP3 AND DUP1 PUSH2 0x840 JUMPI PUSH1 0x7F DUP3 AND SWAP2 POP JUMPDEST PUSH1 0x20 DUP3 LT DUP2 SUB PUSH2 0x853 JUMPI PUSH2 0x852 PUSH2 0x7FC JUMP JUMPDEST JUMPDEST POP SWAP2 SWAP1 POP JUMP JUMPDEST PUSH0 DUP2 SWAP1 POP DUP2 PUSH0 MSTORE PUSH1 0x20 PUSH0 KECCAK256 SWAP1 POP SWAP2 SWAP1 POP JUMP JUMPDEST PUSH0 PUSH1 0x20 PUSH1 0x1F DUP4 ADD DIV SWAP1 POP SWAP2 SWAP1 POP JUMP JUMPDEST PUSH0 DUP3 DUP3 SHL SWAP1 POP SWAP3 SWAP2 POP POP JUMP JUMPDEST PUSH0 PUSH1 0x8 DUP4 MUL PUSH2 0x8B5 PUSH32 0xFFFFFFFFFFFFFFFFFFFFFFFFFFFFFFFFFFFFFFFFFFFFFFFFFFFFFFFFFFFFFFFF DUP3 PUSH2 0x87A JUMP JUMPDEST PUSH2 0x8BF DUP7 DUP4 PUSH2 0x87A JUMP JUMPDEST SWAP6 POP DUP1 NOT DUP5 AND SWAP4 POP DUP1 DUP7 AND DUP5 OR SWAP3 POP POP POP SWAP4 SWAP3 POP POP POP JUMP JUMPDEST PUSH0 DUP2 SWAP1 POP SWAP2 SWAP1 POP JUMP JUMPDEST PUSH0 PUSH2 0x8FA PUSH2 0x8F5 PUSH2 0x8F0 DUP5 PUSH2 0x67C JUMP JUMPDEST PUSH2 0x8D7 JUMP JUMPDEST PUSH2 0x67C JUMP JUMPDEST SWAP1 POP SWAP2 SWAP1 POP JUMP JUMPDEST PUSH0 DUP2 SWAP1 POP SWAP2 SWAP1 POP JUMP JUMPDEST PUSH2 0x913 DUP4 PUSH2 0x8E0 JUMP JUMPDEST PUSH2 0x927 PUSH2 0x91F DUP3 PUSH2 0x901 JUMP JUMPDEST DUP5 DUP5 SLOAD PUSH2 0x886 JUMP JUMPDEST DUP3 SSTORE POP POP POP POP JUMP JUMPDEST PUSH0 PUSH0 SWAP1 POP SWAP1 JUMP JUMPDEST PUSH2 0x93E PUSH2 0x92F JUMP JUMPDEST PUSH2 0x949 DUP2 DUP5 DUP5 PUSH2 0x90A JUMP JUMPDEST POP POP POP JUMP JUMPDEST PUSH0 JUMPDEST DUP3 DUP2 LT ISZERO PUSH2 0x96F JUMPI PUSH2 0x964 PUSH0 DUP3 DUP5 ADD PUSH2 0x936 JUMP JUMPDEST PUSH1 0x1 DUP2 ADD SWAP1 POP PUSH2 0x950 JUMP JUMPDEST POP POP POP JUMP JUMPDEST PUSH1 0x1F DUP3 GT ISZERO PUSH2 0x9C2 JUMPI DUP3 DUP3 GT ISZERO PUSH2 0x9C1 JUMPI PUSH2 0x98E DUP2 PUSH2 0x859 JUMP JUMPDEST PUSH2 0x997 DUP4 PUSH2 0x86B JUMP JUMPDEST PUSH2 0x9A0 DUP6 PUSH2 0x86B JUMP JUMPDEST PUSH1 0x20 DUP7 LT ISZERO PUSH2 0x9AD JUMPI PUSH0 SWAP1 POP JUMPDEST DUP1 DUP4 ADD PUSH2 0x9BC DUP3 DUP5 SUB DUP3 PUSH2 0x94E JUMP JUMPDEST POP POP POP POP JUMPDEST JUMPDEST POP POP POP JUMP JUMPDEST PUSH0 DUP3 DUP3 SHR SWAP1 POP SWAP3 SWAP2 POP POP JUMP JUMPDEST PUSH0 PUSH2 0x9E2 PUSH0 NOT DUP5 PUSH1 0x8 MUL PUSH2 0x9C7 JUMP JUMPDEST NOT DUP1 DUP4 AND SWAP2 POP POP SWAP3 SWAP2 POP POP JUMP JUMPDEST PUSH0 PUSH2 0x9FA DUP4 DUP4 PUSH2 0x9D3 JUMP JUMPDEST SWAP2 POP DUP3 PUSH1 0x2 MUL DUP3 OR SWAP1 POP SWAP3 SWAP2 POP POP JUMP JUMPDEST PUSH2 0xA13 DUP3 PUSH2 0x61C JUMP JUMPDEST PUSH8 0xFFFFFFFFFFFFFFFF DUP2 GT ISZERO PUSH2 0xA2C JUMPI PUSH2 0xA2B PUSH2 0x42C JUMP JUMPDEST JUMPDEST PUSH2 0xA36 DUP3 SLOAD PUSH2 0x829 JUMP JUMPDEST PUSH2 0xA41 DUP3 DUP3 DUP6 PUSH2 0x974 JUMP JUMPDEST PUSH0 PUSH1 0x20 SWAP1 POP PUSH1 0x1F DUP4 GT PUSH1 0x1 DUP2 EQ PUSH2 0xA72 JUMPI PUSH0 DUP5 ISZERO PUSH2 0xA60 JUMPI DUP3 DUP8 ADD MLOAD SWAP1 POP JUMPDEST PUSH2 0xA6A DUP6 DUP3 PUSH2 0x9EF JUMP JUMPDEST DUP7 SSTORE POP PUSH2 0xAD1 JUMP JUMPDEST PUSH1 0x1F NOT DUP5 AND PUSH2 0xA80 DUP7 PUSH2 0x859 JUMP JUMPDEST PUSH0 JUMPDEST DUP3 DUP2 LT ISZERO PUSH2 0xAA7 JUMPI DUP5 DUP10 ADD MLOAD DUP3 SSTORE PUSH1 0x1 DUP3 ADD SWAP2 POP PUSH1 0x20 DUP6 ADD SWAP5 POP PUSH1 0x20 DUP2 ADD SWAP1 POP PUSH2 0xA82 JUMP JUMPDEST DUP7 DUP4 LT ISZERO PUSH2 0xAC4 JUMPI DUP5 DUP10 ADD MLOAD PUSH2 0xAC0 PUSH1 0x1F DUP10 AND DUP3 PUSH2 0x9D3 JUMP JUMPDEST DUP4 SSTORE POP JUMPDEST PUSH1 0x1 PUSH1 0x2 DUP9 MUL ADD DUP9 SSTORE POP POP POP JUMPDEST POP POP POP POP POP POP JUMP INVALID LOG2 PUSH5 0x6970667358 0x22 SLT KECCAK256 INVALID SGT MSTORE8 NUMBER CODECOPY CHAINID SWAP8 SWAP1 SHR 0xB2 PUSH28 0x39E8FA55068D9FADB973657D9EE9C0B4C3B0A2215F64736F6C634300 ADDMOD 0x22 STOP CALLER "
				},
				"gasEstimates": {
					"creation": {
						"codeDepositCost": "566200",
						"executionCost": "598",
						"totalCost": "566798"
					},
					"external": {
						"accounts(address)": "infinite",
						"addInterest()": "infinite",
						"createAccount(string)": "infinite",
						"deposit()": "infinite",
						"getDetails()": "infinite"
					}
				},
				"methodIdentifiers": {
					"accounts(address)": "5e5c06e2",
					"addInterest()": "0d09365c",
					"createAccount(string)": "298daf5b",
					"deposit()": "d0e30db0",
					"getDetails()": "fbbf93a0"
				}
			},
			"storageLayout": {
				"storage": [
					{
						"astId": 11,
						"contract": "learning/bank/bank.sol:BankAccount",
						"label": "accounts",
						"offset": 0,
						"slot": "0",
						"type": "t_mapping(t_address,t_struct(Account)6_storage)"
					}
				],
				"types": {
					"t_address": {
						"encoding": "inplace",
						"label": "address",
						"numberOfBytes": "20"
					},
					"t_mapping(t_address,t_struct(Account)6_storage)": {
						"encoding": "mapping",
						"key": "t_address",
						"label": "mapping(address => struct BankAccount.Account)",
						"numberOfBytes": "32",
						"value": "t_struct(Account)6_storage"
					},
					"t_string_storage": {
						"encoding": "bytes",
						"label": "string",
						"numberOfBytes": "32"
					},
					"t_struct(Account)6_storage": {
						"encoding": "inplace",
						"label": "struct BankAccount.Account",
						"members": [
							{
								"astId": 3,
								"contract": "learning/bank/bank.sol:BankAccount",
								"label": "name",
								"offset": 0,
								"slot": "0",
								"type": "t_string_storage"
							},
							{
								"astId": 5,
								"contract": "learning/bank/bank.sol:BankAccount",
								"label": "balance",
								"offset": 0,
								"slot": "1",
								"type": "t_uint256"
							}
						],
						"numberOfBytes": "64"
					},
					"t_uint256": {
						"encoding": "inplace",
						"label": "uint256",
						"numberOfBytes": "32"
					}
				}
			},
			"userdoc": {
				"kind": "user",
				"methods": {},
				"version": 1
			}
		}
	}
}