{
	"learning/Constant.sol": {
		"createConstant": {
			"abi": [
				{
					"inputs": [],
					"name": "Names",
					"outputs": [
						{
							"internalType": "address",
							"name": "",
							"type": "address"
						}
					],
					"stateMutability": "view",
					"type": "function"
				},
				{
					"inputs": [
						{
							"internalType": "uint256",
							"name": "num",
							"type": "uint256"
						}
					],
					"name": "getConst",
					"outputs": [
						{
							"internalType": "address",
							"name": "",
							"type": "address"
						},
						{
							"internalType": "uint256",
							"name": "",
							"type": "uint256"
						}
					],
					"stateMutability": "view",
					"type": "function"
				},
				{
					"inputs": [
						{
							"internalType": "uint256",
							"name": "num",
							"type": "uint256"
						}
					],
					"name": "getConst1",
					"outputs": [
						{
							"internalType": "address",
							"name": "",
							"type": "address"
						},
						{
							"internalType": "uint256",
							"name": "",
							"type": "uint256"
						}
					],
					"stateMutability": "pure",
					"type": "function"
				},
				{
					"inputs": [],
					"name": "myName",
					"outputs": [
						{
							"internalType": "address",
							"name": "",
							"type": "address"
						}
					],
					"stateMutability": "view",
					"type": "function"
				}
			],
			"devdoc": {
				"kind": "dev",
				"methods": {},
				"version": 1
			},
			"evm": {
				"assembly": "    /* \"learning/Constant.sol\":60:537  contract createConstant{\r... */\n  mstore(0x40, 0x80)\n    /* \"learning/Constant.sol\":125:167  0x5B38Da6a701c568545dCfcB03FcB875f56beddC4 */\n  0x5b38da6a701c568545dcfcb03fcb875f56beddc4\n    /* \"learning/Constant.sol\":102:167  address public myName= 0x5B38Da6a701c568545dCfcB03FcB875f56beddC4 */\n  0x00\n  dup1\n  0x0100\n  exp\n  dup2\n  sload\n  dup2\n  0xffffffffffffffffffffffffffffffffffffffff\n  mul\n  not\n  and\n  swap1\n  dup4\n  0xffffffffffffffffffffffffffffffffffffffff\n  and\n  mul\n  or\n  swap1\n  sstore\n  pop\n    /* \"learning/Constant.sol\":60:537  contract createConstant{\r... */\n  callvalue\n  dup1\n  iszero\n  tag_1\n  jumpi\n  0x00\n  dup1\n  revert\ntag_1:\n  pop\n  dataSize(sub_0)\n  dup1\n  dataOffset(sub_0)\n  0x00\n  codecopy\n  0x00\n  return\nstop\n\nsub_0: assembly {\n        /* \"learning/Constant.sol\":60:537  contract createConstant{\r... */\n      mstore(0x40, 0x80)\n      callvalue\n      dup1\n      iszero\n      tag_1\n      jumpi\n      0x00\n      dup1\n      revert\n    tag_1:\n      pop\n      jumpi(tag_2, lt(calldatasize, 0x04))\n      shr(0xe0, calldataload(0x00))\n      dup1\n      0x990b9788\n      eq\n      tag_3\n      jumpi\n      dup1\n      0xcee10e94\n      eq\n      tag_4\n      jumpi\n      dup1\n      0xdcc7bb98\n      eq\n      tag_5\n      jumpi\n      dup1\n      0xfae2dd4b\n      eq\n      tag_6\n      jumpi\n    tag_2:\n      0x00\n      dup1\n      revert\n        /* \"learning/Constant.sol\":309:410  function getConst(uint num) public view returns(address, uint){\r... */\n    tag_3:\n      tag_7\n      0x04\n      dup1\n      calldatasize\n      sub\n      dup2\n      add\n      swap1\n      tag_8\n      swap2\n      swap1\n      tag_9\n      jump\t// in\n    tag_8:\n      tag_10\n      jump\t// in\n    tag_7:\n      mload(0x40)\n      tag_11\n      swap3\n      swap2\n      swap1\n      tag_12\n      jump\t// in\n    tag_11:\n      mload(0x40)\n      dup1\n      swap2\n      sub\n      swap1\n      return\n        /* \"learning/Constant.sol\":433:534  function getConst1(uint num) public pure returns(address, uint){\r... */\n    tag_4:\n      tag_13\n      0x04\n      dup1\n      calldatasize\n      sub\n      dup2\n      add\n      swap1\n      tag_14\n      swap2\n      swap1\n      tag_9\n      jump\t// in\n    tag_14:\n      tag_15\n      jump\t// in\n    tag_13:\n      mload(0x40)\n      tag_16\n      swap3\n      swap2\n      swap1\n      tag_12\n      jump\t// in\n    tag_16:\n      mload(0x40)\n      dup1\n      swap2\n      sub\n      swap1\n      return\n        /* \"learning/Constant.sol\":186:260  address public constant Names = 0x5B38Da6a701c568545dCfcB03FcB875f56beddC4 */\n    tag_5:\n      tag_17\n      tag_18\n      jump\t// in\n    tag_17:\n      mload(0x40)\n      tag_19\n      swap2\n      swap1\n      tag_20\n      jump\t// in\n    tag_19:\n      mload(0x40)\n      dup1\n      swap2\n      sub\n      swap1\n      return\n        /* \"learning/Constant.sol\":102:167  address public myName= 0x5B38Da6a701c568545dCfcB03FcB875f56beddC4 */\n    tag_6:\n      tag_21\n      tag_22\n      jump\t// in\n    tag_21:\n      mload(0x40)\n      tag_23\n      swap2\n      swap1\n      tag_20\n      jump\t// in\n    tag_23:\n      mload(0x40)\n      dup1\n      swap2\n      sub\n      swap1\n      return\n        /* \"learning/Constant.sol\":309:410  function getConst(uint num) public view returns(address, uint){\r... */\n    tag_10:\n        /* \"learning/Constant.sol\":357:364  address */\n      0x00\n        /* \"learning/Constant.sol\":366:370  uint */\n      dup1\n        /* \"learning/Constant.sol\":390:396  myName */\n      0x00\n      dup1\n      sload\n      swap1\n      0x0100\n      exp\n      swap1\n      div\n      0xffffffffffffffffffffffffffffffffffffffff\n      and\n        /* \"learning/Constant.sol\":398:401  num */\n      dup4\n        /* \"learning/Constant.sol\":382:402  return (myName, num) */\n      swap2\n      pop\n      swap2\n      pop\n        /* \"learning/Constant.sol\":309:410  function getConst(uint num) public view returns(address, uint){\r... */\n      swap2\n      pop\n      swap2\n      jump\t// out\n        /* \"learning/Constant.sol\":433:534  function getConst1(uint num) public pure returns(address, uint){\r... */\n    tag_15:\n        /* \"learning/Constant.sol\":482:489  address */\n      0x00\n        /* \"learning/Constant.sol\":491:495  uint */\n      dup1\n        /* \"learning/Constant.sol\":218:260  0x5B38Da6a701c568545dCfcB03FcB875f56beddC4 */\n      0x5b38da6a701c568545dcfcb03fcb875f56beddc4\n        /* \"learning/Constant.sol\":522:525  num */\n      dup4\n        /* \"learning/Constant.sol\":507:526  return (Names, num) */\n      swap2\n      pop\n      swap2\n      pop\n        /* \"learning/Constant.sol\":433:534  function getConst1(uint num) public pure returns(address, uint){\r... */\n      swap2\n      pop\n      swap2\n      jump\t// out\n        /* \"learning/Constant.sol\":186:260  address public constant Names = 0x5B38Da6a701c568545dCfcB03FcB875f56beddC4 */\n    tag_18:\n        /* \"learning/Constant.sol\":218:260  0x5B38Da6a701c568545dCfcB03FcB875f56beddC4 */\n      0x5b38da6a701c568545dcfcb03fcb875f56beddc4\n        /* \"learning/Constant.sol\":186:260  address public constant Names = 0x5B38Da6a701c568545dCfcB03FcB875f56beddC4 */\n      dup2\n      jump\t// out\n        /* \"learning/Constant.sol\":102:167  address public myName= 0x5B38Da6a701c568545dCfcB03FcB875f56beddC4 */\n    tag_22:\n      0x00\n      dup1\n      sload\n      swap1\n      0x0100\n      exp\n      swap1\n      div\n      0xffffffffffffffffffffffffffffffffffffffff\n      and\n      dup2\n      jump\t// out\n        /* \"#utility.yul\":7:146   */\n    tag_27:\n      0x00\n        /* \"#utility.yul\":91:97   */\n      dup2\n        /* \"#utility.yul\":78:98   */\n      calldataload\n        /* \"#utility.yul\":69:98   */\n      swap1\n      pop\n        /* \"#utility.yul\":107:140   */\n      tag_29\n        /* \"#utility.yul\":134:139   */\n      dup2\n        /* \"#utility.yul\":107:140   */\n      tag_30\n      jump\t// in\n    tag_29:\n        /* \"#utility.yul\":59:146   */\n      swap3\n      swap2\n      pop\n      pop\n      jump\t// out\n        /* \"#utility.yul\":152:414   */\n    tag_9:\n      0x00\n        /* \"#utility.yul\":260:262   */\n      0x20\n        /* \"#utility.yul\":248:257   */\n      dup3\n        /* \"#utility.yul\":239:246   */\n      dup5\n        /* \"#utility.yul\":235:258   */\n      sub\n        /* \"#utility.yul\":231:263   */\n      slt\n        /* \"#utility.yul\":228:230   */\n      iszero\n      tag_32\n      jumpi\n        /* \"#utility.yul\":276:277   */\n      0x00\n        /* \"#utility.yul\":273:274   */\n      dup1\n        /* \"#utility.yul\":266:278   */\n      revert\n        /* \"#utility.yul\":228:230   */\n    tag_32:\n        /* \"#utility.yul\":319:320   */\n      0x00\n        /* \"#utility.yul\":344:397   */\n      tag_33\n        /* \"#utility.yul\":389:396   */\n      dup5\n        /* \"#utility.yul\":380:386   */\n      dup3\n        /* \"#utility.yul\":369:378   */\n      dup6\n        /* \"#utility.yul\":365:387   */\n      add\n        /* \"#utility.yul\":344:397   */\n      tag_27\n      jump\t// in\n    tag_33:\n        /* \"#utility.yul\":334:397   */\n      swap2\n      pop\n        /* \"#utility.yul\":290:407   */\n      pop\n        /* \"#utility.yul\":218:414   */\n      swap3\n      swap2\n      pop\n      pop\n      jump\t// out\n        /* \"#utility.yul\":420:538   */\n    tag_34:\n        /* \"#utility.yul\":507:531   */\n      tag_36\n        /* \"#utility.yul\":525:530   */\n      dup2\n        /* \"#utility.yul\":507:531   */\n      tag_37\n      jump\t// in\n    tag_36:\n        /* \"#utility.yul\":502:505   */\n      dup3\n        /* \"#utility.yul\":495:532   */\n      mstore\n        /* \"#utility.yul\":485:538   */\n      pop\n      pop\n      jump\t// out\n        /* \"#utility.yul\":544:662   */\n    tag_38:\n        /* \"#utility.yul\":631:655   */\n      tag_40\n        /* \"#utility.yul\":649:654   */\n      dup2\n        /* \"#utility.yul\":631:655   */\n      tag_41\n      jump\t// in\n    tag_40:\n        /* \"#utility.yul\":626:629   */\n      dup3\n        /* \"#utility.yul\":619:656   */\n      mstore\n        /* \"#utility.yul\":609:662   */\n      pop\n      pop\n      jump\t// out\n        /* \"#utility.yul\":668:890   */\n    tag_20:\n      0x00\n        /* \"#utility.yul\":799:801   */\n      0x20\n        /* \"#utility.yul\":788:797   */\n      dup3\n        /* \"#utility.yul\":784:802   */\n      add\n        /* \"#utility.yul\":776:802   */\n      swap1\n      pop\n        /* \"#utility.yul\":812:883   */\n      tag_43\n        /* \"#utility.yul\":880:881   */\n      0x00\n        /* \"#utility.yul\":869:878   */\n      dup4\n        /* \"#utility.yul\":865:882   */\n      add\n        /* \"#utility.yul\":856:862   */\n      dup5\n        /* \"#utility.yul\":812:883   */\n      tag_34\n      jump\t// in\n    tag_43:\n        /* \"#utility.yul\":766:890   */\n      swap3\n      swap2\n      pop\n      pop\n      jump\t// out\n        /* \"#utility.yul\":896:1228   */\n    tag_12:\n      0x00\n        /* \"#utility.yul\":1055:1057   */\n      0x40\n        /* \"#utility.yul\":1044:1053   */\n      dup3\n        /* \"#utility.yul\":1040:1058   */\n      add\n        /* \"#utility.yul\":1032:1058   */\n      swap1\n      pop\n        /* \"#utility.yul\":1068:1139   */\n      tag_45\n        /* \"#utility.yul\":1136:1137   */\n      0x00\n        /* \"#utility.yul\":1125:1134   */\n      dup4\n        /* \"#utility.yul\":1121:1138   */\n      add\n        /* \"#utility.yul\":1112:1118   */\n      dup6\n        /* \"#utility.yul\":1068:1139   */\n      tag_34\n      jump\t// in\n    tag_45:\n        /* \"#utility.yul\":1149:1221   */\n      tag_46\n        /* \"#utility.yul\":1217:1219   */\n      0x20\n        /* \"#utility.yul\":1206:1215   */\n      dup4\n        /* \"#utility.yul\":1202:1220   */\n      add\n        /* \"#utility.yul\":1193:1199   */\n      dup5\n        /* \"#utility.yul\":1149:1221   */\n      tag_38\n      jump\t// in\n    tag_46:\n        /* \"#utility.yul\":1022:1228   */\n      swap4\n      swap3\n      pop\n      pop\n      pop\n      jump\t// out\n        /* \"#utility.yul\":1234:1330   */\n    tag_37:\n      0x00\n        /* \"#utility.yul\":1300:1324   */\n      tag_48\n        /* \"#utility.yul\":1318:1323   */\n      dup3\n        /* \"#utility.yul\":1300:1324   */\n      tag_49\n      jump\t// in\n    tag_48:\n        /* \"#utility.yul\":1289:1324   */\n      swap1\n      pop\n        /* \"#utility.yul\":1279:1330   */\n      swap2\n      swap1\n      pop\n      jump\t// out\n        /* \"#utility.yul\":1336:1462   */\n    tag_49:\n      0x00\n        /* \"#utility.yul\":1413:1455   */\n      0xffffffffffffffffffffffffffffffffffffffff\n        /* \"#utility.yul\":1406:1411   */\n      dup3\n        /* \"#utility.yul\":1402:1456   */\n      and\n        /* \"#utility.yul\":1391:1456   */\n      swap1\n      pop\n        /* \"#utility.yul\":1381:1462   */\n      swap2\n      swap1\n      pop\n      jump\t// out\n        /* \"#utility.yul\":1468:1545   */\n    tag_41:\n      0x00\n        /* \"#utility.yul\":1534:1539   */\n      dup2\n        /* \"#utility.yul\":1523:1539   */\n      swap1\n      pop\n        /* \"#utility.yul\":1513:1545   */\n      swap2\n      swap1\n      pop\n      jump\t// out\n        /* \"#utility.yul\":1551:1673   */\n    tag_30:\n        /* \"#utility.yul\":1624:1648   */\n      tag_53\n        /* \"#utility.yul\":1642:1647   */\n      dup2\n        /* \"#utility.yul\":1624:1648   */\n      tag_41\n      jump\t// in\n    tag_53:\n        /* \"#utility.yul\":1617:1622   */\n      dup2\n        /* \"#utility.yul\":1614:1649   */\n      eq\n        /* \"#utility.yul\":1604:1606   */\n      tag_54\n      jumpi\n        /* \"#utility.yul\":1663:1664   */\n      0x00\n        /* \"#utility.yul\":1660:1661   */\n      dup1\n        /* \"#utility.yul\":1653:1665   */\n      revert\n        /* \"#utility.yul\":1604:1606   */\n    tag_54:\n        /* \"#utility.yul\":1594:1673   */\n      pop\n      jump\t// out\n\n    auxdata: 0xa2646970667358221220d2418cb94e8be7d038453ba8f7a00350ca635ddf535eaba766a7d292ce639d1664736f6c63430008000033\n}\n",
				"bytecode": {
					"linkReferences": {},
					"object": "6080604052735b38da6a701c568545dcfcb03fcb875f56beddc46000806101000a81548173ffffffffffffffffffffffffffffffffffffffff021916908373ffffffffffffffffffffffffffffffffffffffff16021790555034801561006457600080fd5b506102a4806100746000396000f3fe608060405234801561001057600080fd5b506004361061004c5760003560e01c8063990b978814610051578063cee10e9414610082578063dcc7bb98146100b3578063fae2dd4b146100d1575b600080fd5b61006b60048036038101906100669190610190565b6100ef565b6040516100799291906101f2565b60405180910390f35b61009c60048036038101906100979190610190565b61011d565b6040516100aa9291906101f2565b60405180910390f35b6100bb61013f565b6040516100c891906101d7565b60405180910390f35b6100d9610157565b6040516100e691906101d7565b60405180910390f35b60008060008054906101000a900473ffffffffffffffffffffffffffffffffffffffff168391509150915091565b600080735b38da6a701c568545dcfcb03fcb875f56beddc48391509150915091565b735b38da6a701c568545dcfcb03fcb875f56beddc481565b60008054906101000a900473ffffffffffffffffffffffffffffffffffffffff1681565b60008135905061018a81610257565b92915050565b6000602082840312156101a257600080fd5b60006101b08482850161017b565b91505092915050565b6101c28161021b565b82525050565b6101d18161024d565b82525050565b60006020820190506101ec60008301846101b9565b92915050565b600060408201905061020760008301856101b9565b61021460208301846101c8565b9392505050565b60006102268261022d565b9050919050565b600073ffffffffffffffffffffffffffffffffffffffff82169050919050565b6000819050919050565b6102608161024d565b811461026b57600080fd5b5056fea2646970667358221220d2418cb94e8be7d038453ba8f7a00350ca635ddf535eaba766a7d292ce639d1664736f6c63430008000033",
					"opcodes": "PUSH1 0x80 PUSH1 0x40 MSTORE PUSH20 0x5B38DA6A701C568545DCFCB03FCB875F56BEDDC4 PUSH1 0x0 DUP1 PUSH2 0x100 EXP DUP2 SLOAD DUP2 PUSH20 0xFFFFFFFFFFFFFFFFFFFFFFFFFFFFFFFFFFFFFFFF MUL NOT AND SWAP1 DUP4 PUSH20 0xFFFFFFFFFFFFFFFFFFFFFFFFFFFFFFFFFFFFFFFF AND MUL OR SWAP1 SSTORE POP CALLVALUE DUP1 ISZERO PUSH2 0x64 JUMPI PUSH1 0x0 DUP1 REVERT JUMPDEST POP PUSH2 0x2A4 DUP1 PUSH2 0x74 PUSH1 0x0 CODECOPY PUSH1 0x0 RETURN INVALID PUSH1 0x80 PUSH1 0x40 MSTORE CALLVALUE DUP1 ISZERO PUSH2 0x10 JUMPI PUSH1 0x0 DUP1 REVERT JUMPDEST POP PUSH1 0x4 CALLDATASIZE LT PUSH2 0x4C JUMPI PUSH1 0x0 CALLDATALOAD PUSH1 0xE0 SHR DUP1 PUSH4 0x990B9788 EQ PUSH2 0x51 JUMPI DUP1 PUSH4 0xCEE10E94 EQ PUSH2 0x82 JUMPI DUP1 PUSH4 0xDCC7BB98 EQ PUSH2 0xB3 JUMPI DUP1 PUSH4 0xFAE2DD4B EQ PUSH2 0xD1 JUMPI JUMPDEST PUSH1 0x0 DUP1 REVERT JUMPDEST PUSH2 0x6B PUSH1 0x4 DUP1 CALLDATASIZE SUB DUP2 ADD SWAP1 PUSH2 0x66 SWAP2 SWAP1 PUSH2 0x190 JUMP JUMPDEST PUSH2 0xEF JUMP JUMPDEST PUSH1 0x40 MLOAD PUSH2 0x79 SWAP3 SWAP2 SWAP1 PUSH2 0x1F2 JUMP JUMPDEST PUSH1 0x40 MLOAD DUP1 SWAP2 SUB SWAP1 RETURN JUMPDEST PUSH2 0x9C PUSH1 0x4 DUP1 CALLDATASIZE SUB DUP2 ADD SWAP1 PUSH2 0x97 SWAP2 SWAP1 PUSH2 0x190 JUMP JUMPDEST PUSH2 0x11D JUMP JUMPDEST PUSH1 0x40 MLOAD PUSH2 0xAA SWAP3 SWAP2 SWAP1 PUSH2 0x1F2 JUMP JUMPDEST PUSH1 0x40 MLOAD DUP1 SWAP2 SUB SWAP1 RETURN JUMPDEST PUSH2 0xBB PUSH2 0x13F JUMP JUMPDEST PUSH1 0x40 MLOAD PUSH2 0xC8 SWAP2 SWAP1 PUSH2 0x1D7 JUMP JUMPDEST PUSH1 0x40 MLOAD DUP1 SWAP2 SUB SWAP1 RETURN JUMPDEST PUSH2 0xD9 PUSH2 0x157 JUMP JUMPDEST PUSH1 0x40 MLOAD PUSH2 0xE6 SWAP2 SWAP1 PUSH2 0x1D7 JUMP JUMPDEST PUSH1 0x40 MLOAD DUP1 SWAP2 SUB SWAP1 RETURN JUMPDEST PUSH1 0x0 DUP1 PUSH1 0x0 DUP1 SLOAD SWAP1 PUSH2 0x100 EXP SWAP1 DIV PUSH20 0xFFFFFFFFFFFFFFFFFFFFFFFFFFFFFFFFFFFFFFFF AND DUP4 SWAP2 POP SWAP2 POP SWAP2 POP SWAP2 JUMP JUMPDEST PUSH1 0x0 DUP1 PUSH20 0x5B38DA6A701C568545DCFCB03FCB875F56BEDDC4 DUP4 SWAP2 POP SWAP2 POP SWAP2 POP SWAP2 JUMP JUMPDEST PUSH20 0x5B38DA6A701C568545DCFCB03FCB875F56BEDDC4 DUP2 JUMP JUMPDEST PUSH1 0x0 DUP1 SLOAD SWAP1 PUSH2 0x100 EXP SWAP1 DIV PUSH20 0xFFFFFFFFFFFFFFFFFFFFFFFFFFFFFFFFFFFFFFFF AND DUP2 JUMP JUMPDEST PUSH1 0x0 DUP2 CALLDATALOAD SWAP1 POP PUSH2 0x18A DUP2 PUSH2 0x257 JUMP JUMPDEST SWAP3 SWAP2 POP POP JUMP JUMPDEST PUSH1 0x0 PUSH1 0x20 DUP3 DUP5 SUB SLT ISZERO PUSH2 0x1A2 JUMPI PUSH1 0x0 DUP1 REVERT JUMPDEST PUSH1 0x0 PUSH2 0x1B0 DUP5 DUP3 DUP6 ADD PUSH2 0x17B JUMP JUMPDEST SWAP2 POP POP SWAP3 SWAP2 POP POP JUMP JUMPDEST PUSH2 0x1C2 DUP2 PUSH2 0x21B JUMP JUMPDEST DUP3 MSTORE POP POP JUMP JUMPDEST PUSH2 0x1D1 DUP2 PUSH2 0x24D JUMP JUMPDEST DUP3 MSTORE POP POP JUMP JUMPDEST PUSH1 0x0 PUSH1 0x20 DUP3 ADD SWAP1 POP PUSH2 0x1EC PUSH1 0x0 DUP4 ADD DUP5 PUSH2 0x1B9 JUMP JUMPDEST SWAP3 SWAP2 POP POP JUMP JUMPDEST PUSH1 0x0 PUSH1 0x40 DUP3 ADD SWAP1 POP PUSH2 0x207 PUSH1 0x0 DUP4 ADD DUP6 PUSH2 0x1B9 JUMP JUMPDEST PUSH2 0x214 PUSH1 0x20 DUP4 ADD DUP5 PUSH2 0x1C8 JUMP JUMPDEST SWAP4 SWAP3 POP POP POP JUMP JUMPDEST PUSH1 0x0 PUSH2 0x226 DUP3 PUSH2 0x22D JUMP JUMPDEST SWAP1 POP SWAP2 SWAP1 POP JUMP JUMPDEST PUSH1 0x0 PUSH20 0xFFFFFFFFFFFFFFFFFFFFFFFFFFFFFFFFFFFFFFFF DUP3 AND SWAP1 POP SWAP2 SWAP1 POP JUMP JUMPDEST PUSH1 0x0 DUP2 SWAP1 POP SWAP2 SWAP1 POP JUMP JUMPDEST PUSH2 0x260 DUP2 PUSH2 0x24D JUMP JUMPDEST DUP2 EQ PUSH2 0x26B JUMPI PUSH1 0x0 DUP1 REVERT JUMPDEST POP JUMP INVALID LOG2 PUSH5 0x6970667358 0x22 SLT KECCAK256 0xD2 COINBASE DUP13 0xB9 0x4E DUP12 0xE7 0xD0 CODESIZE GASLIMIT EXTCODESIZE 0xA8 0xF7 LOG0 SUB POP 0xCA PUSH4 0x5DDF535E 0xAB 0xA7 PUSH7 0xA7D292CE639D16 PUSH5 0x736F6C6343 STOP ADDMOD STOP STOP CALLER "
				},
				"gasEstimates": {
					"creation": {
						"codeDepositCost": "135200",
						"executionCost": "21050",
						"totalCost": "156250"
					},
					"external": {
						"Names()": "400",
						"getConst(uint256)": "infinite",
						"getConst1(uint256)": "infinite",
						"myName()": "1255"
					}
				},
				"methodIdentifiers": {
					"Names()": "dcc7bb98",
					"getConst(uint256)": "990b9788",
					"getConst1(uint256)": "cee10e94",
					"myName()": "fae2dd4b"
				}
			},
			"storageLayout": {
				"storage": [
					{
						"astId": 4,
						"contract": "learning/Constant.sol:createConstant",
						"label": "myName",
						"offset": 0,
						"slot": "0",
						"type": "t_address"
					}
				],
				"types": {
					"t_address": {
						"encoding": "inplace",
						"label": "address",
						"numberOfBytes": "20"
					}
				}
			},
			"userdoc": {
				"kind": "user",
				"methods": {},
				"version": 1
			}
		}
	}
}