{
	"learning/Interface/bank.sol": {
		"bank": {
			"abi": [
				{
					"inputs": [],
					"name": "deposit",
					"outputs": [],
					"stateMutability": "payable",
					"type": "function"
				},
				{
					"inputs": [],
					"name": "getMyBalance",
					"outputs": [
						{
							"internalType": "uint256",
							"name": "",
							"type": "uint256"
						}
					],
					"stateMutability": "view",
					"type": "function"
				},
				{
					"inputs": [
						{
							"internalType": "uint256",
							"name": "amount",
							"type": "uint256"
						}
					],
					"name": "withdraw",
					"outputs": [],
					"stateMutability": "payable",
					"type": "function"
				}
			],
			"devdoc": {
				"kind": "dev",
				"methods": {},
				"version": 1
			},
			"evm": {
				"assembly": "    /* \"learning/Interface/bank.sol\":60:586  contract bank{\r... */\n  mstore(0x40, 0x80)\n  callvalue\n  dup1\n  iszero\n  tag_1\n  jumpi\n  0x00\n  dup1\n  revert\ntag_1:\n  pop\n  dataSize(sub_0)\n  dup1\n  dataOffset(sub_0)\n  0x00\n  codecopy\n  0x00\n  return\nstop\n\nsub_0: assembly {\n        /* \"learning/Interface/bank.sol\":60:586  contract bank{\r... */\n      mstore(0x40, 0x80)\n      jumpi(tag_1, lt(calldatasize, 0x04))\n      shr(0xe0, calldataload(0x00))\n      dup1\n      0x2e1a7d4d\n      eq\n      tag_2\n      jumpi\n      dup1\n      0x4c738909\n      eq\n      tag_3\n      jumpi\n      dup1\n      0xd0e30db0\n      eq\n      tag_4\n      jumpi\n    tag_1:\n      0x00\n      dup1\n      revert\n        /* \"learning/Interface/bank.sol\":378:583  function withdraw(uint amount) external payable{\r... */\n    tag_2:\n      tag_5\n      0x04\n      dup1\n      calldatasize\n      sub\n      dup2\n      add\n      swap1\n      tag_6\n      swap2\n      swap1\n      tag_7\n      jump\t// in\n    tag_6:\n      tag_8\n      jump\t// in\n    tag_5:\n      stop\n        /* \"learning/Interface/bank.sol\":273:370  function getMyBalance() external view returns(uint){\r... */\n    tag_3:\n      callvalue\n      dup1\n      iszero\n      tag_9\n      jumpi\n      0x00\n      dup1\n      revert\n    tag_9:\n      pop\n      tag_10\n      tag_11\n      jump\t// in\n    tag_10:\n      mload(0x40)\n      tag_12\n      swap2\n      swap1\n      tag_13\n      jump\t// in\n    tag_12:\n      mload(0x40)\n      dup1\n      swap2\n      sub\n      swap1\n      return\n        /* \"learning/Interface/bank.sol\":125:265  function deposit() external payable {\r... */\n    tag_4:\n      tag_14\n      tag_15\n      jump\t// in\n    tag_14:\n      stop\n        /* \"learning/Interface/bank.sol\":378:583  function withdraw(uint amount) external payable{\r... */\n    tag_8:\n        /* \"learning/Interface/bank.sol\":468:474  amount */\n      dup1\n        /* \"learning/Interface/bank.sol\":444:452  balances */\n      0x00\n        /* \"learning/Interface/bank.sol\":444:464  balances[msg.sender] */\n      dup1\n        /* \"learning/Interface/bank.sol\":453:463  msg.sender */\n      caller\n        /* \"learning/Interface/bank.sol\":444:464  balances[msg.sender] */\n      0xffffffffffffffffffffffffffffffffffffffff\n      and\n      0xffffffffffffffffffffffffffffffffffffffff\n      and\n      dup2\n      mstore\n      0x20\n      add\n      swap1\n      dup2\n      mstore\n      0x20\n      add\n      0x00\n      keccak256\n      sload\n        /* \"learning/Interface/bank.sol\":444:474  balances[msg.sender] >= amount */\n      lt\n      iszero\n        /* \"learning/Interface/bank.sol\":436:487  require(balances[msg.sender] >= amount ,\"No Funds\") */\n      tag_17\n      jumpi\n      mload(0x40)\n      0x08c379a000000000000000000000000000000000000000000000000000000000\n      dup2\n      mstore\n      0x04\n      add\n      tag_18\n      swap1\n      tag_19\n      jump\t// in\n    tag_18:\n      mload(0x40)\n      dup1\n      swap2\n      sub\n      swap1\n      revert\n    tag_17:\n        /* \"learning/Interface/bank.sol\":522:528  amount */\n      dup1\n        /* \"learning/Interface/bank.sol\":498:506  balances */\n      0x00\n        /* \"learning/Interface/bank.sol\":498:518  balances[msg.sender] */\n      dup1\n        /* \"learning/Interface/bank.sol\":507:517  msg.sender */\n      caller\n        /* \"learning/Interface/bank.sol\":498:518  balances[msg.sender] */\n      0xffffffffffffffffffffffffffffffffffffffff\n      and\n      0xffffffffffffffffffffffffffffffffffffffff\n      and\n      dup2\n      mstore\n      0x20\n      add\n      swap1\n      dup2\n      mstore\n      0x20\n      add\n      0x00\n      keccak256\n      0x00\n        /* \"learning/Interface/bank.sol\":498:528  balances[msg.sender] -= amount */\n      dup3\n      dup3\n      sload\n      tag_20\n      swap2\n      swap1\n      tag_21\n      jump\t// in\n    tag_20:\n      swap3\n      pop\n      pop\n      dup2\n      swap1\n      sstore\n      pop\n        /* \"learning/Interface/bank.sol\":547:557  msg.sender */\n      caller\n        /* \"learning/Interface/bank.sol\":539:567  payable(msg.sender).transfer */\n      0xffffffffffffffffffffffffffffffffffffffff\n      and\n        /* \"learning/Interface/bank.sol\":539:575  payable(msg.sender).transfer(amount) */\n      0x08fc\n        /* \"learning/Interface/bank.sol\":568:574  amount */\n      dup3\n        /* \"learning/Interface/bank.sol\":539:575  payable(msg.sender).transfer(amount) */\n      swap1\n      dup2\n      iszero\n      mul\n      swap1\n      mload(0x40)\n      0x00\n      mload(0x40)\n      dup1\n      dup4\n      sub\n      dup2\n      dup6\n      dup9\n      dup9\n      call\n      swap4\n      pop\n      pop\n      pop\n      pop\n      iszero\n      dup1\n      iszero\n      tag_23\n      jumpi\n      returndatasize\n      0x00\n      dup1\n      returndatacopy\n      revert(0x00, returndatasize)\n    tag_23:\n      pop\n        /* \"learning/Interface/bank.sol\":378:583  function withdraw(uint amount) external payable{\r... */\n      pop\n      jump\t// out\n        /* \"learning/Interface/bank.sol\":273:370  function getMyBalance() external view returns(uint){\r... */\n    tag_11:\n        /* \"learning/Interface/bank.sol\":319:323  uint */\n      0x00\n        /* \"learning/Interface/bank.sol\":342:350  balances */\n      dup1\n        /* \"learning/Interface/bank.sol\":342:362  balances[msg.sender] */\n      0x00\n        /* \"learning/Interface/bank.sol\":351:361  msg.sender */\n      caller\n        /* \"learning/Interface/bank.sol\":342:362  balances[msg.sender] */\n      0xffffffffffffffffffffffffffffffffffffffff\n      and\n      0xffffffffffffffffffffffffffffffffffffffff\n      and\n      dup2\n      mstore\n      0x20\n      add\n      swap1\n      dup2\n      mstore\n      0x20\n      add\n      0x00\n      keccak256\n      sload\n        /* \"learning/Interface/bank.sol\":335:362  return balances[msg.sender] */\n      swap1\n      pop\n        /* \"learning/Interface/bank.sol\":273:370  function getMyBalance() external view returns(uint){\r... */\n      swap1\n      jump\t// out\n        /* \"learning/Interface/bank.sol\":125:265  function deposit() external payable {\r... */\n    tag_15:\n        /* \"learning/Interface/bank.sol\":193:194  0 */\n      0x00\n        /* \"learning/Interface/bank.sol\":181:190  msg.value */\n      callvalue\n        /* \"learning/Interface/bank.sol\":181:194  msg.value > 0 */\n      gt\n        /* \"learning/Interface/bank.sol\":173:212  require(msg.value > 0,\"add some funds\") */\n      tag_26\n      jumpi\n      mload(0x40)\n      0x08c379a000000000000000000000000000000000000000000000000000000000\n      dup2\n      mstore\n      0x04\n      add\n      tag_27\n      swap1\n      tag_28\n      jump\t// in\n    tag_27:\n      mload(0x40)\n      dup1\n      swap2\n      sub\n      swap1\n      revert\n    tag_26:\n        /* \"learning/Interface/bank.sol\":248:257  msg.value */\n      callvalue\n        /* \"learning/Interface/bank.sol\":224:232  balances */\n      0x00\n        /* \"learning/Interface/bank.sol\":224:244  balances[msg.sender] */\n      dup1\n        /* \"learning/Interface/bank.sol\":233:243  msg.sender */\n      caller\n        /* \"learning/Interface/bank.sol\":224:244  balances[msg.sender] */\n      0xffffffffffffffffffffffffffffffffffffffff\n      and\n      0xffffffffffffffffffffffffffffffffffffffff\n      and\n      dup2\n      mstore\n      0x20\n      add\n      swap1\n      dup2\n      mstore\n      0x20\n      add\n      0x00\n      keccak256\n      0x00\n        /* \"learning/Interface/bank.sol\":224:257  balances[msg.sender] += msg.value */\n      dup3\n      dup3\n      sload\n      tag_29\n      swap2\n      swap1\n      tag_30\n      jump\t// in\n    tag_29:\n      swap3\n      pop\n      pop\n      dup2\n      swap1\n      sstore\n      pop\n        /* \"learning/Interface/bank.sol\":125:265  function deposit() external payable {\r... */\n      jump\t// out\n        /* \"#utility.yul\":7:146   */\n    tag_32:\n      0x00\n        /* \"#utility.yul\":91:97   */\n      dup2\n        /* \"#utility.yul\":78:98   */\n      calldataload\n        /* \"#utility.yul\":69:98   */\n      swap1\n      pop\n        /* \"#utility.yul\":107:140   */\n      tag_34\n        /* \"#utility.yul\":134:139   */\n      dup2\n        /* \"#utility.yul\":107:140   */\n      tag_35\n      jump\t// in\n    tag_34:\n        /* \"#utility.yul\":59:146   */\n      swap3\n      swap2\n      pop\n      pop\n      jump\t// out\n        /* \"#utility.yul\":152:414   */\n    tag_7:\n      0x00\n        /* \"#utility.yul\":260:262   */\n      0x20\n        /* \"#utility.yul\":248:257   */\n      dup3\n        /* \"#utility.yul\":239:246   */\n      dup5\n        /* \"#utility.yul\":235:258   */\n      sub\n        /* \"#utility.yul\":231:263   */\n      slt\n        /* \"#utility.yul\":228:230   */\n      iszero\n      tag_37\n      jumpi\n        /* \"#utility.yul\":276:277   */\n      0x00\n        /* \"#utility.yul\":273:274   */\n      dup1\n        /* \"#utility.yul\":266:278   */\n      revert\n        /* \"#utility.yul\":228:230   */\n    tag_37:\n        /* \"#utility.yul\":319:320   */\n      0x00\n        /* \"#utility.yul\":344:397   */\n      tag_38\n        /* \"#utility.yul\":389:396   */\n      dup5\n        /* \"#utility.yul\":380:386   */\n      dup3\n        /* \"#utility.yul\":369:378   */\n      dup6\n        /* \"#utility.yul\":365:387   */\n      add\n        /* \"#utility.yul\":344:397   */\n      tag_32\n      jump\t// in\n    tag_38:\n        /* \"#utility.yul\":334:397   */\n      swap2\n      pop\n        /* \"#utility.yul\":290:407   */\n      pop\n        /* \"#utility.yul\":218:414   */\n      swap3\n      swap2\n      pop\n      pop\n      jump\t// out\n        /* \"#utility.yul\":420:725   */\n    tag_39:\n      0x00\n        /* \"#utility.yul\":583:649   */\n      tag_41\n        /* \"#utility.yul\":647:648   */\n      0x08\n        /* \"#utility.yul\":642:645   */\n      dup4\n        /* \"#utility.yul\":583:649   */\n      tag_42\n      jump\t// in\n    tag_41:\n        /* \"#utility.yul\":576:649   */\n      swap2\n      pop\n        /* \"#utility.yul\":679:689   */\n      0x4e6f2046756e6473000000000000000000000000000000000000000000000000\n        /* \"#utility.yul\":675:676   */\n      0x00\n        /* \"#utility.yul\":670:673   */\n      dup4\n        /* \"#utility.yul\":666:677   */\n      add\n        /* \"#utility.yul\":659:690   */\n      mstore\n        /* \"#utility.yul\":716:718   */\n      0x20\n        /* \"#utility.yul\":711:714   */\n      dup3\n        /* \"#utility.yul\":707:719   */\n      add\n        /* \"#utility.yul\":700:719   */\n      swap1\n      pop\n        /* \"#utility.yul\":566:725   */\n      swap2\n      swap1\n      pop\n      jump\t// out\n        /* \"#utility.yul\":731:1043   */\n    tag_43:\n      0x00\n        /* \"#utility.yul\":894:961   */\n      tag_45\n        /* \"#utility.yul\":958:960   */\n      0x0e\n        /* \"#utility.yul\":953:956   */\n      dup4\n        /* \"#utility.yul\":894:961   */\n      tag_42\n      jump\t// in\n    tag_45:\n        /* \"#utility.yul\":887:961   */\n      swap2\n      pop\n        /* \"#utility.yul\":991:1007   */\n      0x61646420736f6d652066756e6473000000000000000000000000000000000000\n        /* \"#utility.yul\":987:988   */\n      0x00\n        /* \"#utility.yul\":982:985   */\n      dup4\n        /* \"#utility.yul\":978:989   */\n      add\n        /* \"#utility.yul\":971:1008   */\n      mstore\n        /* \"#utility.yul\":1034:1036   */\n      0x20\n        /* \"#utility.yul\":1029:1032   */\n      dup3\n        /* \"#utility.yul\":1025:1037   */\n      add\n        /* \"#utility.yul\":1018:1037   */\n      swap1\n      pop\n        /* \"#utility.yul\":877:1043   */\n      swap2\n      swap1\n      pop\n      jump\t// out\n        /* \"#utility.yul\":1049:1167   */\n    tag_46:\n        /* \"#utility.yul\":1136:1160   */\n      tag_48\n        /* \"#utility.yul\":1154:1159   */\n      dup2\n        /* \"#utility.yul\":1136:1160   */\n      tag_49\n      jump\t// in\n    tag_48:\n        /* \"#utility.yul\":1131:1134   */\n      dup3\n        /* \"#utility.yul\":1124:1161   */\n      mstore\n        /* \"#utility.yul\":1114:1167   */\n      pop\n      pop\n      jump\t// out\n        /* \"#utility.yul\":1173:1592   */\n    tag_19:\n      0x00\n        /* \"#utility.yul\":1377:1379   */\n      0x20\n        /* \"#utility.yul\":1366:1375   */\n      dup3\n        /* \"#utility.yul\":1362:1380   */\n      add\n        /* \"#utility.yul\":1354:1380   */\n      swap1\n      pop\n        /* \"#utility.yul\":1426:1435   */\n      dup2\n        /* \"#utility.yul\":1420:1424   */\n      dup2\n        /* \"#utility.yul\":1416:1436   */\n      sub\n        /* \"#utility.yul\":1412:1413   */\n      0x00\n        /* \"#utility.yul\":1401:1410   */\n      dup4\n        /* \"#utility.yul\":1397:1414   */\n      add\n        /* \"#utility.yul\":1390:1437   */\n      mstore\n        /* \"#utility.yul\":1454:1585   */\n      tag_51\n        /* \"#utility.yul\":1580:1584   */\n      dup2\n        /* \"#utility.yul\":1454:1585   */\n      tag_39\n      jump\t// in\n    tag_51:\n        /* \"#utility.yul\":1446:1585   */\n      swap1\n      pop\n        /* \"#utility.yul\":1344:1592   */\n      swap2\n      swap1\n      pop\n      jump\t// out\n        /* \"#utility.yul\":1598:2017   */\n    tag_28:\n      0x00\n        /* \"#utility.yul\":1802:1804   */\n      0x20\n        /* \"#utility.yul\":1791:1800   */\n      dup3\n        /* \"#utility.yul\":1787:1805   */\n      add\n        /* \"#utility.yul\":1779:1805   */\n      swap1\n      pop\n        /* \"#utility.yul\":1851:1860   */\n      dup2\n        /* \"#utility.yul\":1845:1849   */\n      dup2\n        /* \"#utility.yul\":1841:1861   */\n      sub\n        /* \"#utility.yul\":1837:1838   */\n      0x00\n        /* \"#utility.yul\":1826:1835   */\n      dup4\n        /* \"#utility.yul\":1822:1839   */\n      add\n        /* \"#utility.yul\":1815:1862   */\n      mstore\n        /* \"#utility.yul\":1879:2010   */\n      tag_53\n        /* \"#utility.yul\":2005:2009   */\n      dup2\n        /* \"#utility.yul\":1879:2010   */\n      tag_43\n      jump\t// in\n    tag_53:\n        /* \"#utility.yul\":1871:2010   */\n      swap1\n      pop\n        /* \"#utility.yul\":1769:2017   */\n      swap2\n      swap1\n      pop\n      jump\t// out\n        /* \"#utility.yul\":2023:2245   */\n    tag_13:\n      0x00\n        /* \"#utility.yul\":2154:2156   */\n      0x20\n        /* \"#utility.yul\":2143:2152   */\n      dup3\n        /* \"#utility.yul\":2139:2157   */\n      add\n        /* \"#utility.yul\":2131:2157   */\n      swap1\n      pop\n        /* \"#utility.yul\":2167:2238   */\n      tag_55\n        /* \"#utility.yul\":2235:2236   */\n      0x00\n        /* \"#utility.yul\":2224:2233   */\n      dup4\n        /* \"#utility.yul\":2220:2237   */\n      add\n        /* \"#utility.yul\":2211:2217   */\n      dup5\n        /* \"#utility.yul\":2167:2238   */\n      tag_46\n      jump\t// in\n    tag_55:\n        /* \"#utility.yul\":2121:2245   */\n      swap3\n      swap2\n      pop\n      pop\n      jump\t// out\n        /* \"#utility.yul\":2251:2420   */\n    tag_42:\n      0x00\n        /* \"#utility.yul\":2369:2375   */\n      dup3\n        /* \"#utility.yul\":2364:2367   */\n      dup3\n        /* \"#utility.yul\":2357:2376   */\n      mstore\n        /* \"#utility.yul\":2409:2413   */\n      0x20\n        /* \"#utility.yul\":2404:2407   */\n      dup3\n        /* \"#utility.yul\":2400:2414   */\n      add\n        /* \"#utility.yul\":2385:2414   */\n      swap1\n      pop\n        /* \"#utility.yul\":2347:2420   */\n      swap3\n      swap2\n      pop\n      pop\n      jump\t// out\n        /* \"#utility.yul\":2426:2731   */\n    tag_30:\n      0x00\n        /* \"#utility.yul\":2485:2505   */\n      tag_58\n        /* \"#utility.yul\":2503:2504   */\n      dup3\n        /* \"#utility.yul\":2485:2505   */\n      tag_49\n      jump\t// in\n    tag_58:\n        /* \"#utility.yul\":2480:2505   */\n      swap2\n      pop\n        /* \"#utility.yul\":2519:2539   */\n      tag_59\n        /* \"#utility.yul\":2537:2538   */\n      dup4\n        /* \"#utility.yul\":2519:2539   */\n      tag_49\n      jump\t// in\n    tag_59:\n        /* \"#utility.yul\":2514:2539   */\n      swap3\n      pop\n        /* \"#utility.yul\":2673:2674   */\n      dup3\n        /* \"#utility.yul\":2605:2671   */\n      0xffffffffffffffffffffffffffffffffffffffffffffffffffffffffffffffff\n        /* \"#utility.yul\":2601:2675   */\n      sub\n        /* \"#utility.yul\":2598:2599   */\n      dup3\n        /* \"#utility.yul\":2595:2676   */\n      gt\n        /* \"#utility.yul\":2592:2594   */\n      iszero\n      tag_60\n      jumpi\n        /* \"#utility.yul\":2679:2697   */\n      tag_61\n      tag_62\n      jump\t// in\n    tag_61:\n        /* \"#utility.yul\":2592:2594   */\n    tag_60:\n        /* \"#utility.yul\":2723:2724   */\n      dup3\n        /* \"#utility.yul\":2720:2721   */\n      dup3\n        /* \"#utility.yul\":2716:2725   */\n      add\n        /* \"#utility.yul\":2709:2725   */\n      swap1\n      pop\n        /* \"#utility.yul\":2470:2731   */\n      swap3\n      swap2\n      pop\n      pop\n      jump\t// out\n        /* \"#utility.yul\":2737:2928   */\n    tag_21:\n      0x00\n        /* \"#utility.yul\":2797:2817   */\n      tag_64\n        /* \"#utility.yul\":2815:2816   */\n      dup3\n        /* \"#utility.yul\":2797:2817   */\n      tag_49\n      jump\t// in\n    tag_64:\n        /* \"#utility.yul\":2792:2817   */\n      swap2\n      pop\n        /* \"#utility.yul\":2831:2851   */\n      tag_65\n        /* \"#utility.yul\":2849:2850   */\n      dup4\n        /* \"#utility.yul\":2831:2851   */\n      tag_49\n      jump\t// in\n    tag_65:\n        /* \"#utility.yul\":2826:2851   */\n      swap3\n      pop\n        /* \"#utility.yul\":2870:2871   */\n      dup3\n        /* \"#utility.yul\":2867:2868   */\n      dup3\n        /* \"#utility.yul\":2864:2872   */\n      lt\n        /* \"#utility.yul\":2861:2863   */\n      iszero\n      tag_66\n      jumpi\n        /* \"#utility.yul\":2875:2893   */\n      tag_67\n      tag_62\n      jump\t// in\n    tag_67:\n        /* \"#utility.yul\":2861:2863   */\n    tag_66:\n        /* \"#utility.yul\":2920:2921   */\n      dup3\n        /* \"#utility.yul\":2917:2918   */\n      dup3\n        /* \"#utility.yul\":2913:2922   */\n      sub\n        /* \"#utility.yul\":2905:2922   */\n      swap1\n      pop\n        /* \"#utility.yul\":2782:2928   */\n      swap3\n      swap2\n      pop\n      pop\n      jump\t// out\n        /* \"#utility.yul\":2934:3011   */\n    tag_49:\n      0x00\n        /* \"#utility.yul\":3000:3005   */\n      dup2\n        /* \"#utility.yul\":2989:3005   */\n      swap1\n      pop\n        /* \"#utility.yul\":2979:3011   */\n      swap2\n      swap1\n      pop\n      jump\t// out\n        /* \"#utility.yul\":3017:3197   */\n    tag_62:\n        /* \"#utility.yul\":3065:3142   */\n      0x4e487b7100000000000000000000000000000000000000000000000000000000\n        /* \"#utility.yul\":3062:3063   */\n      0x00\n        /* \"#utility.yul\":3055:3143   */\n      mstore\n        /* \"#utility.yul\":3162:3166   */\n      0x11\n        /* \"#utility.yul\":3159:3160   */\n      0x04\n        /* \"#utility.yul\":3152:3167   */\n      mstore\n        /* \"#utility.yul\":3186:3190   */\n      0x24\n        /* \"#utility.yul\":3183:3184   */\n      0x00\n        /* \"#utility.yul\":3176:3191   */\n      revert\n        /* \"#utility.yul\":3203:3325   */\n    tag_35:\n        /* \"#utility.yul\":3276:3300   */\n      tag_71\n        /* \"#utility.yul\":3294:3299   */\n      dup2\n        /* \"#utility.yul\":3276:3300   */\n      tag_49\n      jump\t// in\n    tag_71:\n        /* \"#utility.yul\":3269:3274   */\n      dup2\n        /* \"#utility.yul\":3266:3301   */\n      eq\n        /* \"#utility.yul\":3256:3258   */\n      tag_72\n      jumpi\n        /* \"#utility.yul\":3315:3316   */\n      0x00\n        /* \"#utility.yul\":3312:3313   */\n      dup1\n        /* \"#utility.yul\":3305:3317   */\n      revert\n        /* \"#utility.yul\":3256:3258   */\n    tag_72:\n        /* \"#utility.yul\":3246:3325   */\n      pop\n      jump\t// out\n\n    auxdata: 0xa26469706673582212205a5b41a11ef5e910225a79318768992873d8c222e4aa7a564989c1fec0ae1cb764736f6c63430008000033\n}\n",
				"bytecode": {
					"linkReferences": {},
					"object": "608060405234801561001057600080fd5b506104d3806100206000396000f3fe6080604052600436106100345760003560e01c80632e1a7d4d146100395780634c73890914610055578063d0e30db014610080575b600080fd5b610053600480360381019061004e919061029f565b61008a565b005b34801561006157600080fd5b5061006a6101aa565b6040516100779190610397565b60405180910390f35b6100886101f0565b005b806000803373ffffffffffffffffffffffffffffffffffffffff1673ffffffffffffffffffffffffffffffffffffffff16815260200190815260200160002054101561010b576040517f08c379a000000000000000000000000000000000000000000000000000000000815260040161010290610357565b60405180910390fd5b806000803373ffffffffffffffffffffffffffffffffffffffff1673ffffffffffffffffffffffffffffffffffffffff16815260200190815260200160002060008282546101599190610419565b925050819055503373ffffffffffffffffffffffffffffffffffffffff166108fc829081150290604051600060405180830381858888f193505050501580156101a6573d6000803e3d6000fd5b5050565b60008060003373ffffffffffffffffffffffffffffffffffffffff1673ffffffffffffffffffffffffffffffffffffffff16815260200190815260200160002054905090565b60003411610233576040517f08c379a000000000000000000000000000000000000000000000000000000000815260040161022a90610377565b60405180910390fd5b346000803373ffffffffffffffffffffffffffffffffffffffff1673ffffffffffffffffffffffffffffffffffffffff168152602001908152602001600020600082825461028191906103c3565b92505081905550565b60008135905061029981610486565b92915050565b6000602082840312156102b157600080fd5b60006102bf8482850161028a565b91505092915050565b60006102d56008836103b2565b91507f4e6f2046756e64730000000000000000000000000000000000000000000000006000830152602082019050919050565b6000610315600e836103b2565b91507f61646420736f6d652066756e64730000000000000000000000000000000000006000830152602082019050919050565b6103518161044d565b82525050565b60006020820190508181036000830152610370816102c8565b9050919050565b6000602082019050818103600083015261039081610308565b9050919050565b60006020820190506103ac6000830184610348565b92915050565b600082825260208201905092915050565b60006103ce8261044d565b91506103d98361044d565b9250827fffffffffffffffffffffffffffffffffffffffffffffffffffffffffffffffff0382111561040e5761040d610457565b5b828201905092915050565b60006104248261044d565b915061042f8361044d565b92508282101561044257610441610457565b5b828203905092915050565b6000819050919050565b7f4e487b7100000000000000000000000000000000000000000000000000000000600052601160045260246000fd5b61048f8161044d565b811461049a57600080fd5b5056fea26469706673582212205a5b41a11ef5e910225a79318768992873d8c222e4aa7a564989c1fec0ae1cb764736f6c63430008000033",
					"opcodes": "PUSH1 0x80 PUSH1 0x40 MSTORE CALLVALUE DUP1 ISZERO PUSH2 0x10 JUMPI PUSH1 0x0 DUP1 REVERT JUMPDEST POP PUSH2 0x4D3 DUP1 PUSH2 0x20 PUSH1 0x0 CODECOPY PUSH1 0x0 RETURN INVALID PUSH1 0x80 PUSH1 0x40 MSTORE PUSH1 0x4 CALLDATASIZE LT PUSH2 0x34 JUMPI PUSH1 0x0 CALLDATALOAD PUSH1 0xE0 SHR DUP1 PUSH4 0x2E1A7D4D EQ PUSH2 0x39 JUMPI DUP1 PUSH4 0x4C738909 EQ PUSH2 0x55 JUMPI DUP1 PUSH4 0xD0E30DB0 EQ PUSH2 0x80 JUMPI JUMPDEST PUSH1 0x0 DUP1 REVERT JUMPDEST PUSH2 0x53 PUSH1 0x4 DUP1 CALLDATASIZE SUB DUP2 ADD SWAP1 PUSH2 0x4E SWAP2 SWAP1 PUSH2 0x29F JUMP JUMPDEST PUSH2 0x8A JUMP JUMPDEST STOP JUMPDEST CALLVALUE DUP1 ISZERO PUSH2 0x61 JUMPI PUSH1 0x0 DUP1 REVERT JUMPDEST POP PUSH2 0x6A PUSH2 0x1AA JUMP JUMPDEST PUSH1 0x40 MLOAD PUSH2 0x77 SWAP2 SWAP1 PUSH2 0x397 JUMP JUMPDEST PUSH1 0x40 MLOAD DUP1 SWAP2 SUB SWAP1 RETURN JUMPDEST PUSH2 0x88 PUSH2 0x1F0 JUMP JUMPDEST STOP JUMPDEST DUP1 PUSH1 0x0 DUP1 CALLER PUSH20 0xFFFFFFFFFFFFFFFFFFFFFFFFFFFFFFFFFFFFFFFF AND PUSH20 0xFFFFFFFFFFFFFFFFFFFFFFFFFFFFFFFFFFFFFFFF AND DUP2 MSTORE PUSH1 0x20 ADD SWAP1 DUP2 MSTORE PUSH1 0x20 ADD PUSH1 0x0 KECCAK256 SLOAD LT ISZERO PUSH2 0x10B JUMPI PUSH1 0x40 MLOAD PUSH32 0x8C379A000000000000000000000000000000000000000000000000000000000 DUP2 MSTORE PUSH1 0x4 ADD PUSH2 0x102 SWAP1 PUSH2 0x357 JUMP JUMPDEST PUSH1 0x40 MLOAD DUP1 SWAP2 SUB SWAP1 REVERT JUMPDEST DUP1 PUSH1 0x0 DUP1 CALLER PUSH20 0xFFFFFFFFFFFFFFFFFFFFFFFFFFFFFFFFFFFFFFFF AND PUSH20 0xFFFFFFFFFFFFFFFFFFFFFFFFFFFFFFFFFFFFFFFF AND DUP2 MSTORE PUSH1 0x20 ADD SWAP1 DUP2 MSTORE PUSH1 0x20 ADD PUSH1 0x0 KECCAK256 PUSH1 0x0 DUP3 DUP3 SLOAD PUSH2 0x159 SWAP2 SWAP1 PUSH2 0x419 JUMP JUMPDEST SWAP3 POP POP DUP2 SWAP1 SSTORE POP CALLER PUSH20 0xFFFFFFFFFFFFFFFFFFFFFFFFFFFFFFFFFFFFFFFF AND PUSH2 0x8FC DUP3 SWAP1 DUP2 ISZERO MUL SWAP1 PUSH1 0x40 MLOAD PUSH1 0x0 PUSH1 0x40 MLOAD DUP1 DUP4 SUB DUP2 DUP6 DUP9 DUP9 CALL SWAP4 POP POP POP POP ISZERO DUP1 ISZERO PUSH2 0x1A6 JUMPI RETURNDATASIZE PUSH1 0x0 DUP1 RETURNDATACOPY RETURNDATASIZE PUSH1 0x0 REVERT JUMPDEST POP POP JUMP JUMPDEST PUSH1 0x0 DUP1 PUSH1 0x0 CALLER PUSH20 0xFFFFFFFFFFFFFFFFFFFFFFFFFFFFFFFFFFFFFFFF AND PUSH20 0xFFFFFFFFFFFFFFFFFFFFFFFFFFFFFFFFFFFFFFFF AND DUP2 MSTORE PUSH1 0x20 ADD SWAP1 DUP2 MSTORE PUSH1 0x20 ADD PUSH1 0x0 KECCAK256 SLOAD SWAP1 POP SWAP1 JUMP JUMPDEST PUSH1 0x0 CALLVALUE GT PUSH2 0x233 JUMPI PUSH1 0x40 MLOAD PUSH32 0x8C379A000000000000000000000000000000000000000000000000000000000 DUP2 MSTORE PUSH1 0x4 ADD PUSH2 0x22A SWAP1 PUSH2 0x377 JUMP JUMPDEST PUSH1 0x40 MLOAD DUP1 SWAP2 SUB SWAP1 REVERT JUMPDEST CALLVALUE PUSH1 0x0 DUP1 CALLER PUSH20 0xFFFFFFFFFFFFFFFFFFFFFFFFFFFFFFFFFFFFFFFF AND PUSH20 0xFFFFFFFFFFFFFFFFFFFFFFFFFFFFFFFFFFFFFFFF AND DUP2 MSTORE PUSH1 0x20 ADD SWAP1 DUP2 MSTORE PUSH1 0x20 ADD PUSH1 0x0 KECCAK256 PUSH1 0x0 DUP3 DUP3 SLOAD PUSH2 0x281 SWAP2 SWAP1 PUSH2 0x3C3 JUMP JUMPDEST SWAP3 POP POP DUP2 SWAP1 SSTORE POP JUMP JUMPDEST PUSH1 0x0 DUP2 CALLDATALOAD SWAP1 POP PUSH2 0x299 DUP2 PUSH2 0x486 JUMP JUMPDEST SWAP3 SWAP2 POP POP JUMP JUMPDEST PUSH1 0x0 PUSH1 0x20 DUP3 DUP5 SUB SLT ISZERO PUSH2 0x2B1 JUMPI PUSH1 0x0 DUP1 REVERT JUMPDEST PUSH1 0x0 PUSH2 0x2BF DUP5 DUP3 DUP6 ADD PUSH2 0x28A JUMP JUMPDEST SWAP2 POP POP SWAP3 SWAP2 POP POP JUMP JUMPDEST PUSH1 0x0 PUSH2 0x2D5 PUSH1 0x8 DUP4 PUSH2 0x3B2 JUMP JUMPDEST SWAP2 POP PUSH32 0x4E6F2046756E6473000000000000000000000000000000000000000000000000 PUSH1 0x0 DUP4 ADD MSTORE PUSH1 0x20 DUP3 ADD SWAP1 POP SWAP2 SWAP1 POP JUMP JUMPDEST PUSH1 0x0 PUSH2 0x315 PUSH1 0xE DUP4 PUSH2 0x3B2 JUMP JUMPDEST SWAP2 POP PUSH32 0x61646420736F6D652066756E6473000000000000000000000000000000000000 PUSH1 0x0 DUP4 ADD MSTORE PUSH1 0x20 DUP3 ADD SWAP1 POP SWAP2 SWAP1 POP JUMP JUMPDEST PUSH2 0x351 DUP2 PUSH2 0x44D JUMP JUMPDEST DUP3 MSTORE POP POP JUMP JUMPDEST PUSH1 0x0 PUSH1 0x20 DUP3 ADD SWAP1 POP DUP2 DUP2 SUB PUSH1 0x0 DUP4 ADD MSTORE PUSH2 0x370 DUP2 PUSH2 0x2C8 JUMP JUMPDEST SWAP1 POP SWAP2 SWAP1 POP JUMP JUMPDEST PUSH1 0x0 PUSH1 0x20 DUP3 ADD SWAP1 POP DUP2 DUP2 SUB PUSH1 0x0 DUP4 ADD MSTORE PUSH2 0x390 DUP2 PUSH2 0x308 JUMP JUMPDEST SWAP1 POP SWAP2 SWAP1 POP JUMP JUMPDEST PUSH1 0x0 PUSH1 0x20 DUP3 ADD SWAP1 POP PUSH2 0x3AC PUSH1 0x0 DUP4 ADD DUP5 PUSH2 0x348 JUMP JUMPDEST SWAP3 SWAP2 POP POP JUMP JUMPDEST PUSH1 0x0 DUP3 DUP3 MSTORE PUSH1 0x20 DUP3 ADD SWAP1 POP SWAP3 SWAP2 POP POP JUMP JUMPDEST PUSH1 0x0 PUSH2 0x3CE DUP3 PUSH2 0x44D JUMP JUMPDEST SWAP2 POP PUSH2 0x3D9 DUP4 PUSH2 0x44D JUMP JUMPDEST SWAP3 POP DUP3 PUSH32 0xFFFFFFFFFFFFFFFFFFFFFFFFFFFFFFFFFFFFFFFFFFFFFFFFFFFFFFFFFFFFFFFF SUB DUP3 GT ISZERO PUSH2 0x40E JUMPI PUSH2 0x40D PUSH2 0x457 JUMP JUMPDEST JUMPDEST DUP3 DUP3 ADD SWAP1 POP SWAP3 SWAP2 POP POP JUMP JUMPDEST PUSH1 0x0 PUSH2 0x424 DUP3 PUSH2 0x44D JUMP JUMPDEST SWAP2 POP PUSH2 0x42F DUP4 PUSH2 0x44D JUMP JUMPDEST SWAP3 POP DUP3 DUP3 LT ISZERO PUSH2 0x442 JUMPI PUSH2 0x441 PUSH2 0x457 JUMP JUMPDEST JUMPDEST DUP3 DUP3 SUB SWAP1 POP SWAP3 SWAP2 POP POP JUMP JUMPDEST PUSH1 0x0 DUP2 SWAP1 POP SWAP2 SWAP1 POP JUMP JUMPDEST PUSH32 0x4E487B7100000000000000000000000000000000000000000000000000000000 PUSH1 0x0 MSTORE PUSH1 0x11 PUSH1 0x4 MSTORE PUSH1 0x24 PUSH1 0x0 REVERT JUMPDEST PUSH2 0x48F DUP2 PUSH2 0x44D JUMP JUMPDEST DUP2 EQ PUSH2 0x49A JUMPI PUSH1 0x0 DUP1 REVERT JUMPDEST POP JUMP INVALID LOG2 PUSH5 0x6970667358 0x22 SLT KECCAK256 GAS JUMPDEST COINBASE LOG1 0x1E CREATE2 0xE9 LT 0x22 GAS PUSH26 0x318768992873D8C222E4AA7A564989C1FEC0AE1CB764736F6C63 NUMBER STOP ADDMOD STOP STOP CALLER "
				},
				"gasEstimates": {
					"creation": {
						"codeDepositCost": "247000",
						"executionCost": "287",
						"totalCost": "247287"
					},
					"external": {
						"deposit()": "infinite",
						"getMyBalance()": "1226",
						"withdraw(uint256)": "infinite"
					}
				},
				"methodIdentifiers": {
					"deposit()": "d0e30db0",
					"getMyBalance()": "4c738909",
					"withdraw(uint256)": "2e1a7d4d"
				}
			},
			"storageLayout": {
				"storage": [
					{
						"astId": 77,
						"contract": "learning/Interface/bank.sol:bank",
						"label": "balances",
						"offset": 0,
						"slot": "0",
						"type": "t_mapping(t_address,t_uint256)"
					}
				],
				"types": {
					"t_address": {
						"encoding": "inplace",
						"label": "address",
						"numberOfBytes": "20"
					},
					"t_mapping(t_address,t_uint256)": {
						"encoding": "mapping",
						"key": "t_address",
						"label": "mapping(address => uint256)",
						"numberOfBytes": "32",
						"value": "t_uint256"
					},
					"t_uint256": {
						"encoding": "inplace",
						"label": "uint256",
						"numberOfBytes": "32"
					}
				}
			},
			"userdoc": {
				"kind": "user",
				"methods": {},
				"version": 1
			}
		}
	}
}