{
	"Practice/BankDepositeSystem.sol": {
		"Bank_Deposite_System": {
			"abi": [
				{
					"inputs": [
						{
							"internalType": "uint256",
							"name": "amount",
							"type": "uint256"
						}
					],
					"name": "Deposit",
					"outputs": [],
					"stateMutability": "nonpayable",
					"type": "function"
				},
				{
					"inputs": [
						{
							"internalType": "uint256",
							"name": "amount",
							"type": "uint256"
						}
					],
					"name": "Withdraw",
					"outputs": [],
					"stateMutability": "nonpayable",
					"type": "function"
				},
				{
					"inputs": [],
					"name": "checkBalance",
					"outputs": [
						{
							"internalType": "uint256",
							"name": "",
							"type": "uint256"
						}
					],
					"stateMutability": "view",
					"type": "function"
				},
				{
					"inputs": [],
					"name": "getAllUsers",
					"outputs": [
						{
							"internalType": "address[]",
							"name": "",
							"type": "address[]"
						},
						{
							"internalType": "uint256[]",
							"name": "",
							"type": "uint256[]"
						}
					],
					"stateMutability": "view",
					"type": "function"
				}
			],
			"devdoc": {
				"kind": "dev",
				"methods": {},
				"version": 1
			},
			"evm": {
				"assembly": "    /* \"Practice/BankDepositeSystem.sol\":464:1518  contract Bank_Deposite_System {... */\n  mstore(0x40, 0x80)\n  callvalue\n  dup1\n  iszero\n  tag_1\n  jumpi\n  0x00\n  dup1\n  revert\ntag_1:\n  pop\n  dataSize(sub_0)\n  dup1\n  dataOffset(sub_0)\n  0x00\n  codecopy\n  0x00\n  return\nstop\n\nsub_0: assembly {\n        /* \"Practice/BankDepositeSystem.sol\":464:1518  contract Bank_Deposite_System {... */\n      mstore(0x40, 0x80)\n      callvalue\n      dup1\n      iszero\n      tag_1\n      jumpi\n      0x00\n      dup1\n      revert\n    tag_1:\n      pop\n      jumpi(tag_2, lt(calldatasize, 0x04))\n      shr(0xe0, calldataload(0x00))\n      dup1\n      0x4d6ce1e5\n      eq\n      tag_3\n      jumpi\n      dup1\n      0x5b6b431d\n      eq\n      tag_4\n      jumpi\n      dup1\n      0xc71daccb\n      eq\n      tag_5\n      jumpi\n      dup1\n      0xe2842d79\n      eq\n      tag_6\n      jumpi\n    tag_2:\n      0x00\n      dup1\n      revert\n        /* \"Practice/BankDepositeSystem.sol\":602:879  function Deposit(uint amount) public {... */\n    tag_3:\n      tag_7\n      0x04\n      dup1\n      calldatasize\n      sub\n      dup2\n      add\n      swap1\n      tag_8\n      swap2\n      swap1\n      tag_9\n      jump\t// in\n    tag_8:\n      tag_10\n      jump\t// in\n    tag_7:\n      stop\n        /* \"Practice/BankDepositeSystem.sol\":885:1119  function Withdraw(uint amount) public {... */\n    tag_4:\n      tag_11\n      0x04\n      dup1\n      calldatasize\n      sub\n      dup2\n      add\n      swap1\n      tag_12\n      swap2\n      swap1\n      tag_9\n      jump\t// in\n    tag_12:\n      tag_13\n      jump\t// in\n    tag_11:\n      stop\n        /* \"Practice/BankDepositeSystem.sol\":1424:1516  function checkBalance() public view returns(uint){... */\n    tag_5:\n      tag_14\n      tag_15\n      jump\t// in\n    tag_14:\n      mload(0x40)\n      tag_16\n      swap2\n      swap1\n      tag_17\n      jump\t// in\n    tag_16:\n      mload(0x40)\n      dup1\n      swap2\n      sub\n      swap1\n      return\n        /* \"Practice/BankDepositeSystem.sol\":1125:1417  function getAllUsers() public view returns (address[] memory, uint[] memory) {... */\n    tag_6:\n      tag_18\n      tag_19\n      jump\t// in\n    tag_18:\n      mload(0x40)\n      tag_20\n      swap3\n      swap2\n      swap1\n      tag_21\n      jump\t// in\n    tag_20:\n      mload(0x40)\n      dup1\n      swap2\n      sub\n      swap1\n      return\n        /* \"Practice/BankDepositeSystem.sol\":602:879  function Deposit(uint amount) public {... */\n    tag_10:\n        /* \"Practice/BankDepositeSystem.sol\":666:667  0 */\n      0x00\n        /* \"Practice/BankDepositeSystem.sol\":657:663  amount */\n      dup2\n        /* \"Practice/BankDepositeSystem.sol\":657:667  amount > 0 */\n      gt\n        /* \"Practice/BankDepositeSystem.sol\":649:703  require(amount > 0, \"amount should be greater than 0\") */\n      tag_23\n      jumpi\n      mload(0x40)\n      0x08c379a000000000000000000000000000000000000000000000000000000000\n      dup2\n      mstore\n      0x04\n      add\n      tag_24\n      swap1\n      tag_25\n      jump\t// in\n    tag_24:\n      mload(0x40)\n      dup1\n      swap2\n      sub\n      swap1\n      revert\n    tag_23:\n        /* \"Practice/BankDepositeSystem.sol\":736:742  amount */\n      dup1\n        /* \"Practice/BankDepositeSystem.sol\":713:720  balance */\n      0x00\n        /* \"Practice/BankDepositeSystem.sol\":713:732  balance[msg.sender] */\n      dup1\n        /* \"Practice/BankDepositeSystem.sol\":721:731  msg.sender */\n      caller\n        /* \"Practice/BankDepositeSystem.sol\":713:732  balance[msg.sender] */\n      0xffffffffffffffffffffffffffffffffffffffff\n      and\n      0xffffffffffffffffffffffffffffffffffffffff\n      and\n      dup2\n      mstore\n      0x20\n      add\n      swap1\n      dup2\n      mstore\n      0x20\n      add\n      0x00\n      keccak256\n      0x00\n        /* \"Practice/BankDepositeSystem.sol\":713:742  balance[msg.sender] += amount */\n      dup3\n      dup3\n      sload\n      tag_26\n      swap2\n      swap1\n      tag_27\n      jump\t// in\n    tag_26:\n      swap3\n      pop\n      pop\n      dup2\n      swap1\n      sstore\n      pop\n        /* \"Practice/BankDepositeSystem.sol\":757:768  isUserAdded */\n      0x02\n        /* \"Practice/BankDepositeSystem.sol\":757:780  isUserAdded[msg.sender] */\n      0x00\n        /* \"Practice/BankDepositeSystem.sol\":769:779  msg.sender */\n      caller\n        /* \"Practice/BankDepositeSystem.sol\":757:780  isUserAdded[msg.sender] */\n      0xffffffffffffffffffffffffffffffffffffffff\n      and\n      0xffffffffffffffffffffffffffffffffffffffff\n      and\n      dup2\n      mstore\n      0x20\n      add\n      swap1\n      dup2\n      mstore\n      0x20\n      add\n      0x00\n      keccak256\n      0x00\n      swap1\n      sload\n      swap1\n      0x0100\n      exp\n      swap1\n      div\n      0xff\n      and\n        /* \"Practice/BankDepositeSystem.sol\":752:873  if (!isUserAdded[msg.sender]) {... */\n      tag_28\n      jumpi\n        /* \"Practice/BankDepositeSystem.sol\":796:801  users */\n      0x01\n        /* \"Practice/BankDepositeSystem.sol\":807:817  msg.sender */\n      caller\n        /* \"Practice/BankDepositeSystem.sol\":796:818  users.push(msg.sender) */\n      swap1\n      dup1\n      0x01\n      dup2\n      sload\n      add\n      dup1\n      dup3\n      sstore\n      dup1\n      swap2\n      pop\n      pop\n      0x01\n      swap1\n      sub\n      swap1\n      0x00\n      mstore\n      keccak256(0x00, 0x20)\n      add\n      0x00\n      swap1\n      swap2\n      swap1\n      swap2\n      swap1\n      swap2\n      0x0100\n      exp\n      dup2\n      sload\n      dup2\n      0xffffffffffffffffffffffffffffffffffffffff\n      mul\n      not\n      and\n      swap1\n      dup4\n      0xffffffffffffffffffffffffffffffffffffffff\n      and\n      mul\n      or\n      swap1\n      sstore\n      pop\n        /* \"Practice/BankDepositeSystem.sol\":858:862  true */\n      0x01\n        /* \"Practice/BankDepositeSystem.sol\":832:843  isUserAdded */\n      0x02\n        /* \"Practice/BankDepositeSystem.sol\":832:855  isUserAdded[msg.sender] */\n      0x00\n        /* \"Practice/BankDepositeSystem.sol\":844:854  msg.sender */\n      caller\n        /* \"Practice/BankDepositeSystem.sol\":832:855  isUserAdded[msg.sender] */\n      0xffffffffffffffffffffffffffffffffffffffff\n      and\n      0xffffffffffffffffffffffffffffffffffffffff\n      and\n      dup2\n      mstore\n      0x20\n      add\n      swap1\n      dup2\n      mstore\n      0x20\n      add\n      0x00\n      keccak256\n      0x00\n        /* \"Practice/BankDepositeSystem.sol\":832:862  isUserAdded[msg.sender] = true */\n      0x0100\n      exp\n      dup2\n      sload\n      dup2\n      0xff\n      mul\n      not\n      and\n      swap1\n      dup4\n      iszero\n      iszero\n      mul\n      or\n      swap1\n      sstore\n      pop\n        /* \"Practice/BankDepositeSystem.sol\":752:873  if (!isUserAdded[msg.sender]) {... */\n    tag_28:\n        /* \"Practice/BankDepositeSystem.sol\":602:879  function Deposit(uint amount) public {... */\n      pop\n      jump\t// out\n        /* \"Practice/BankDepositeSystem.sol\":885:1119  function Withdraw(uint amount) public {... */\n    tag_13:\n        /* \"Practice/BankDepositeSystem.sol\":963:964  0 */\n      0x00\n        /* \"Practice/BankDepositeSystem.sol\":954:960  amount */\n      dup2\n        /* \"Practice/BankDepositeSystem.sol\":954:964  amount > 0 */\n      gt\n        /* \"Practice/BankDepositeSystem.sol\":954:996  amount > 0 && amount < balance[msg.sender] */\n      dup1\n      iszero\n      tag_31\n      jumpi\n      pop\n        /* \"Practice/BankDepositeSystem.sol\":977:984  balance */\n      0x00\n        /* \"Practice/BankDepositeSystem.sol\":977:996  balance[msg.sender] */\n      dup1\n        /* \"Practice/BankDepositeSystem.sol\":985:995  msg.sender */\n      caller\n        /* \"Practice/BankDepositeSystem.sol\":977:996  balance[msg.sender] */\n      0xffffffffffffffffffffffffffffffffffffffff\n      and\n      0xffffffffffffffffffffffffffffffffffffffff\n      and\n      dup2\n      mstore\n      0x20\n      add\n      swap1\n      dup2\n      mstore\n      0x20\n      add\n      0x00\n      keccak256\n      sload\n        /* \"Practice/BankDepositeSystem.sol\":968:974  amount */\n      dup2\n        /* \"Practice/BankDepositeSystem.sol\":968:996  amount < balance[msg.sender] */\n      lt\n        /* \"Practice/BankDepositeSystem.sol\":954:996  amount > 0 && amount < balance[msg.sender] */\n    tag_31:\n        /* \"Practice/BankDepositeSystem.sol\":933:1073  require(... */\n      tag_32\n      jumpi\n      mload(0x40)\n      0x08c379a000000000000000000000000000000000000000000000000000000000\n      dup2\n      mstore\n      0x04\n      add\n      tag_33\n      swap1\n      tag_34\n      jump\t// in\n    tag_33:\n      mload(0x40)\n      dup1\n      swap2\n      sub\n      swap1\n      revert\n    tag_32:\n        /* \"Practice/BankDepositeSystem.sol\":1106:1112  amount */\n      dup1\n        /* \"Practice/BankDepositeSystem.sol\":1083:1090  balance */\n      0x00\n        /* \"Practice/BankDepositeSystem.sol\":1083:1102  balance[msg.sender] */\n      dup1\n        /* \"Practice/BankDepositeSystem.sol\":1091:1101  msg.sender */\n      caller\n        /* \"Practice/BankDepositeSystem.sol\":1083:1102  balance[msg.sender] */\n      0xffffffffffffffffffffffffffffffffffffffff\n      and\n      0xffffffffffffffffffffffffffffffffffffffff\n      and\n      dup2\n      mstore\n      0x20\n      add\n      swap1\n      dup2\n      mstore\n      0x20\n      add\n      0x00\n      keccak256\n      0x00\n        /* \"Practice/BankDepositeSystem.sol\":1083:1112  balance[msg.sender] -= amount */\n      dup3\n      dup3\n      sload\n      tag_35\n      swap2\n      swap1\n      tag_36\n      jump\t// in\n    tag_35:\n      swap3\n      pop\n      pop\n      dup2\n      swap1\n      sstore\n      pop\n        /* \"Practice/BankDepositeSystem.sol\":885:1119  function Withdraw(uint amount) public {... */\n      pop\n      jump\t// out\n        /* \"Practice/BankDepositeSystem.sol\":1424:1516  function checkBalance() public view returns(uint){... */\n    tag_15:\n        /* \"Practice/BankDepositeSystem.sol\":1468:1472  uint */\n      0x00\n        /* \"Practice/BankDepositeSystem.sol\":1490:1497  balance */\n      dup1\n        /* \"Practice/BankDepositeSystem.sol\":1490:1509  balance[msg.sender] */\n      0x00\n        /* \"Practice/BankDepositeSystem.sol\":1498:1508  msg.sender */\n      caller\n        /* \"Practice/BankDepositeSystem.sol\":1490:1509  balance[msg.sender] */\n      0xffffffffffffffffffffffffffffffffffffffff\n      and\n      0xffffffffffffffffffffffffffffffffffffffff\n      and\n      dup2\n      mstore\n      0x20\n      add\n      swap1\n      dup2\n      mstore\n      0x20\n      add\n      0x00\n      keccak256\n      sload\n        /* \"Practice/BankDepositeSystem.sol\":1483:1509  return balance[msg.sender] */\n      swap1\n      pop\n        /* \"Practice/BankDepositeSystem.sol\":1424:1516  function checkBalance() public view returns(uint){... */\n      swap1\n      jump\t// out\n        /* \"Practice/BankDepositeSystem.sol\":1125:1417  function getAllUsers() public view returns (address[] memory, uint[] memory) {... */\n    tag_19:\n        /* \"Practice/BankDepositeSystem.sol\":1169:1185  address[] memory */\n      0x60\n        /* \"Practice/BankDepositeSystem.sol\":1187:1200  uint[] memory */\n      dup1\n        /* \"Practice/BankDepositeSystem.sol\":1212:1238  uint[] memory all_balances */\n      0x00\n        /* \"Practice/BankDepositeSystem.sol\":1250:1255  users */\n      0x01\n        /* \"Practice/BankDepositeSystem.sol\":1250:1262  users.length */\n      dup1\n      sload\n      swap1\n      pop\n        /* \"Practice/BankDepositeSystem.sol\":1239:1263  new uint[](users.length) */\n      0xffffffffffffffff\n      dup2\n      gt\n      iszero\n      tag_39\n      jumpi\n      mstore(0x00, 0x4e487b7100000000000000000000000000000000000000000000000000000000)\n      mstore(0x04, 0x41)\n      revert(0x00, 0x24)\n    tag_39:\n      mload(0x40)\n      swap1\n      dup1\n      dup3\n      mstore\n      dup1\n      0x20\n      mul\n      0x20\n      add\n      dup3\n      add\n      0x40\n      mstore\n      dup1\n      iszero\n      tag_40\n      jumpi\n      dup2\n      0x20\n      add\n      0x20\n      dup3\n      mul\n      dup1\n      calldatasize\n      dup4\n      calldatacopy\n      dup1\n      dup3\n      add\n      swap2\n      pop\n      pop\n      swap1\n      pop\n    tag_40:\n      pop\n        /* \"Practice/BankDepositeSystem.sol\":1212:1263  uint[] memory all_balances=new uint[](users.length) */\n      swap1\n      pop\n        /* \"Practice/BankDepositeSystem.sol\":1278:1284  uint i */\n      0x00\n        /* \"Practice/BankDepositeSystem.sol\":1273:1372  for (uint i = 0; i < users.length; i++) {... */\n    tag_41:\n        /* \"Practice/BankDepositeSystem.sol\":1294:1299  users */\n      0x01\n        /* \"Practice/BankDepositeSystem.sol\":1294:1306  users.length */\n      dup1\n      sload\n      swap1\n      pop\n        /* \"Practice/BankDepositeSystem.sol\":1290:1291  i */\n      dup2\n        /* \"Practice/BankDepositeSystem.sol\":1290:1306  i < users.length */\n      lt\n        /* \"Practice/BankDepositeSystem.sol\":1273:1372  for (uint i = 0; i < users.length; i++) {... */\n      iszero\n      tag_42\n      jumpi\n        /* \"Practice/BankDepositeSystem.sol\":1344:1351  balance */\n      0x00\n        /* \"Practice/BankDepositeSystem.sol\":1344:1361  balance[users[i]] */\n      dup1\n        /* \"Practice/BankDepositeSystem.sol\":1352:1357  users */\n      0x01\n        /* \"Practice/BankDepositeSystem.sol\":1358:1359  i */\n      dup4\n        /* \"Practice/BankDepositeSystem.sol\":1352:1360  users[i] */\n      dup2\n      sload\n      dup2\n      lt\n      tag_44\n      jumpi\n      mstore(0x00, 0x4e487b7100000000000000000000000000000000000000000000000000000000)\n      mstore(0x04, 0x32)\n      revert(0x00, 0x24)\n    tag_44:\n      swap1\n      0x00\n      mstore\n      keccak256(0x00, 0x20)\n      add\n      0x00\n      swap1\n      sload\n      swap1\n      0x0100\n      exp\n      swap1\n      div\n      0xffffffffffffffffffffffffffffffffffffffff\n      and\n        /* \"Practice/BankDepositeSystem.sol\":1344:1361  balance[users[i]] */\n      0xffffffffffffffffffffffffffffffffffffffff\n      and\n      0xffffffffffffffffffffffffffffffffffffffff\n      and\n      dup2\n      mstore\n      0x20\n      add\n      swap1\n      dup2\n      mstore\n      0x20\n      add\n      0x00\n      keccak256\n      sload\n        /* \"Practice/BankDepositeSystem.sol\":1327:1339  all_balances */\n      dup3\n        /* \"Practice/BankDepositeSystem.sol\":1340:1341  i */\n      dup3\n        /* \"Practice/BankDepositeSystem.sol\":1327:1342  all_balances[i] */\n      dup2\n      mload\n      dup2\n      lt\n      tag_46\n      jumpi\n      mstore(0x00, 0x4e487b7100000000000000000000000000000000000000000000000000000000)\n      mstore(0x04, 0x32)\n      revert(0x00, 0x24)\n    tag_46:\n      0x20\n      mul\n      0x20\n      add\n      add\n        /* \"Practice/BankDepositeSystem.sol\":1327:1361  all_balances[i]= balance[users[i]] */\n      dup2\n      dup2\n      mstore\n      pop\n      pop\n        /* \"Practice/BankDepositeSystem.sol\":1308:1311  i++ */\n      dup1\n      dup1\n      tag_47\n      swap1\n      tag_48\n      jump\t// in\n    tag_47:\n      swap2\n      pop\n      pop\n        /* \"Practice/BankDepositeSystem.sol\":1273:1372  for (uint i = 0; i < users.length; i++) {... */\n      jump(tag_41)\n    tag_42:\n      pop\n        /* \"Practice/BankDepositeSystem.sol\":1390:1395  users */\n      0x01\n        /* \"Practice/BankDepositeSystem.sol\":1397:1409  all_balances */\n      dup2\n        /* \"Practice/BankDepositeSystem.sol\":1382:1410  return (users, all_balances) */\n      dup2\n      dup1\n      sload\n      dup1\n      0x20\n      mul\n      0x20\n      add\n      mload(0x40)\n      swap1\n      dup2\n      add\n      0x40\n      mstore\n      dup1\n      swap3\n      swap2\n      swap1\n      dup2\n      dup2\n      mstore\n      0x20\n      add\n      dup3\n      dup1\n      sload\n      dup1\n      iszero\n      tag_49\n      jumpi\n      0x20\n      mul\n      dup3\n      add\n      swap2\n      swap1\n      0x00\n      mstore\n      keccak256(0x00, 0x20)\n      swap1\n    tag_50:\n      dup2\n      0x00\n      swap1\n      sload\n      swap1\n      0x0100\n      exp\n      swap1\n      div\n      0xffffffffffffffffffffffffffffffffffffffff\n      and\n      0xffffffffffffffffffffffffffffffffffffffff\n      and\n      dup2\n      mstore\n      0x20\n      add\n      swap1\n      0x01\n      add\n      swap1\n      dup1\n      dup4\n      gt\n      tag_50\n      jumpi\n    tag_49:\n      pop\n      pop\n      pop\n      pop\n      pop\n      swap2\n      pop\n      swap3\n      pop\n      swap3\n      pop\n      pop\n        /* \"Practice/BankDepositeSystem.sol\":1125:1417  function getAllUsers() public view returns (address[] memory, uint[] memory) {... */\n      swap1\n      swap2\n      jump\t// out\n        /* \"#utility.yul\":7:146   */\n    tag_52:\n      0x00\n        /* \"#utility.yul\":91:97   */\n      dup2\n        /* \"#utility.yul\":78:98   */\n      calldataload\n        /* \"#utility.yul\":69:98   */\n      swap1\n      pop\n        /* \"#utility.yul\":107:140   */\n      tag_54\n        /* \"#utility.yul\":134:139   */\n      dup2\n        /* \"#utility.yul\":107:140   */\n      tag_55\n      jump\t// in\n    tag_54:\n        /* \"#utility.yul\":59:146   */\n      swap3\n      swap2\n      pop\n      pop\n      jump\t// out\n        /* \"#utility.yul\":152:414   */\n    tag_9:\n      0x00\n        /* \"#utility.yul\":260:262   */\n      0x20\n        /* \"#utility.yul\":248:257   */\n      dup3\n        /* \"#utility.yul\":239:246   */\n      dup5\n        /* \"#utility.yul\":235:258   */\n      sub\n        /* \"#utility.yul\":231:263   */\n      slt\n        /* \"#utility.yul\":228:230   */\n      iszero\n      tag_57\n      jumpi\n        /* \"#utility.yul\":276:277   */\n      0x00\n        /* \"#utility.yul\":273:274   */\n      dup1\n        /* \"#utility.yul\":266:278   */\n      revert\n        /* \"#utility.yul\":228:230   */\n    tag_57:\n        /* \"#utility.yul\":319:320   */\n      0x00\n        /* \"#utility.yul\":344:397   */\n      tag_58\n        /* \"#utility.yul\":389:396   */\n      dup5\n        /* \"#utility.yul\":380:386   */\n      dup3\n        /* \"#utility.yul\":369:378   */\n      dup6\n        /* \"#utility.yul\":365:387   */\n      add\n        /* \"#utility.yul\":344:397   */\n      tag_52\n      jump\t// in\n    tag_58:\n        /* \"#utility.yul\":334:397   */\n      swap2\n      pop\n        /* \"#utility.yul\":290:407   */\n      pop\n        /* \"#utility.yul\":218:414   */\n      swap3\n      swap2\n      pop\n      pop\n      jump\t// out\n        /* \"#utility.yul\":420:599   */\n    tag_59:\n      0x00\n        /* \"#utility.yul\":510:556   */\n      tag_61\n        /* \"#utility.yul\":552:555   */\n      dup4\n        /* \"#utility.yul\":544:550   */\n      dup4\n        /* \"#utility.yul\":510:556   */\n      tag_62\n      jump\t// in\n    tag_61:\n        /* \"#utility.yul\":588:592   */\n      0x20\n        /* \"#utility.yul\":583:586   */\n      dup4\n        /* \"#utility.yul\":579:593   */\n      add\n        /* \"#utility.yul\":565:593   */\n      swap1\n      pop\n        /* \"#utility.yul\":500:599   */\n      swap3\n      swap2\n      pop\n      pop\n      jump\t// out\n        /* \"#utility.yul\":605:784   */\n    tag_63:\n      0x00\n        /* \"#utility.yul\":695:741   */\n      tag_65\n        /* \"#utility.yul\":737:740   */\n      dup4\n        /* \"#utility.yul\":729:735   */\n      dup4\n        /* \"#utility.yul\":695:741   */\n      tag_66\n      jump\t// in\n    tag_65:\n        /* \"#utility.yul\":773:777   */\n      0x20\n        /* \"#utility.yul\":768:771   */\n      dup4\n        /* \"#utility.yul\":764:778   */\n      add\n        /* \"#utility.yul\":750:778   */\n      swap1\n      pop\n        /* \"#utility.yul\":685:784   */\n      swap3\n      swap2\n      pop\n      pop\n      jump\t// out\n        /* \"#utility.yul\":790:898   */\n    tag_62:\n        /* \"#utility.yul\":867:891   */\n      tag_68\n        /* \"#utility.yul\":885:890   */\n      dup2\n        /* \"#utility.yul\":867:891   */\n      tag_69\n      jump\t// in\n    tag_68:\n        /* \"#utility.yul\":862:865   */\n      dup3\n        /* \"#utility.yul\":855:892   */\n      mstore\n        /* \"#utility.yul\":845:898   */\n      pop\n      pop\n      jump\t// out\n        /* \"#utility.yul\":934:1666   */\n    tag_70:\n      0x00\n        /* \"#utility.yul\":1082:1136   */\n      tag_72\n        /* \"#utility.yul\":1130:1135   */\n      dup3\n        /* \"#utility.yul\":1082:1136   */\n      tag_73\n      jump\t// in\n    tag_72:\n        /* \"#utility.yul\":1152:1238   */\n      tag_74\n        /* \"#utility.yul\":1231:1237   */\n      dup2\n        /* \"#utility.yul\":1226:1229   */\n      dup6\n        /* \"#utility.yul\":1152:1238   */\n      tag_75\n      jump\t// in\n    tag_74:\n        /* \"#utility.yul\":1145:1238   */\n      swap4\n      pop\n        /* \"#utility.yul\":1262:1318   */\n      tag_76\n        /* \"#utility.yul\":1312:1317   */\n      dup4\n        /* \"#utility.yul\":1262:1318   */\n      tag_77\n      jump\t// in\n    tag_76:\n        /* \"#utility.yul\":1341:1348   */\n      dup1\n        /* \"#utility.yul\":1372:1373   */\n      0x00\n        /* \"#utility.yul\":1357:1641   */\n    tag_78:\n        /* \"#utility.yul\":1382:1388   */\n      dup4\n        /* \"#utility.yul\":1379:1380   */\n      dup2\n        /* \"#utility.yul\":1376:1389   */\n      lt\n        /* \"#utility.yul\":1357:1641   */\n      iszero\n      tag_80\n      jumpi\n        /* \"#utility.yul\":1458:1464   */\n      dup2\n        /* \"#utility.yul\":1452:1465   */\n      mload\n        /* \"#utility.yul\":1485:1548   */\n      tag_81\n        /* \"#utility.yul\":1544:1547   */\n      dup9\n        /* \"#utility.yul\":1529:1542   */\n      dup3\n        /* \"#utility.yul\":1485:1548   */\n      tag_59\n      jump\t// in\n    tag_81:\n        /* \"#utility.yul\":1478:1548   */\n      swap8\n      pop\n        /* \"#utility.yul\":1571:1631   */\n      tag_82\n        /* \"#utility.yul\":1624:1630   */\n      dup4\n        /* \"#utility.yul\":1571:1631   */\n      tag_83\n      jump\t// in\n    tag_82:\n        /* \"#utility.yul\":1561:1631   */\n      swap3\n      pop\n        /* \"#utility.yul\":1417:1641   */\n      pop\n        /* \"#utility.yul\":1404:1405   */\n      0x01\n        /* \"#utility.yul\":1401:1402   */\n      dup2\n        /* \"#utility.yul\":1397:1406   */\n      add\n        /* \"#utility.yul\":1392:1406   */\n      swap1\n      pop\n        /* \"#utility.yul\":1357:1641   */\n      jump(tag_78)\n    tag_80:\n        /* \"#utility.yul\":1361:1375   */\n      pop\n        /* \"#utility.yul\":1657:1660   */\n      dup6\n        /* \"#utility.yul\":1650:1660   */\n      swap4\n      pop\n        /* \"#utility.yul\":1058:1666   */\n      pop\n      pop\n      pop\n      swap3\n      swap2\n      pop\n      pop\n      jump\t// out\n        /* \"#utility.yul\":1702:2434   */\n    tag_84:\n      0x00\n        /* \"#utility.yul\":1850:1904   */\n      tag_86\n        /* \"#utility.yul\":1898:1903   */\n      dup3\n        /* \"#utility.yul\":1850:1904   */\n      tag_87\n      jump\t// in\n    tag_86:\n        /* \"#utility.yul\":1920:2006   */\n      tag_88\n        /* \"#utility.yul\":1999:2005   */\n      dup2\n        /* \"#utility.yul\":1994:1997   */\n      dup6\n        /* \"#utility.yul\":1920:2006   */\n      tag_89\n      jump\t// in\n    tag_88:\n        /* \"#utility.yul\":1913:2006   */\n      swap4\n      pop\n        /* \"#utility.yul\":2030:2086   */\n      tag_90\n        /* \"#utility.yul\":2080:2085   */\n      dup4\n        /* \"#utility.yul\":2030:2086   */\n      tag_91\n      jump\t// in\n    tag_90:\n        /* \"#utility.yul\":2109:2116   */\n      dup1\n        /* \"#utility.yul\":2140:2141   */\n      0x00\n        /* \"#utility.yul\":2125:2409   */\n    tag_92:\n        /* \"#utility.yul\":2150:2156   */\n      dup4\n        /* \"#utility.yul\":2147:2148   */\n      dup2\n        /* \"#utility.yul\":2144:2157   */\n      lt\n        /* \"#utility.yul\":2125:2409   */\n      iszero\n      tag_94\n      jumpi\n        /* \"#utility.yul\":2226:2232   */\n      dup2\n        /* \"#utility.yul\":2220:2233   */\n      mload\n        /* \"#utility.yul\":2253:2316   */\n      tag_95\n        /* \"#utility.yul\":2312:2315   */\n      dup9\n        /* \"#utility.yul\":2297:2310   */\n      dup3\n        /* \"#utility.yul\":2253:2316   */\n      tag_63\n      jump\t// in\n    tag_95:\n        /* \"#utility.yul\":2246:2316   */\n      swap8\n      pop\n        /* \"#utility.yul\":2339:2399   */\n      tag_96\n        /* \"#utility.yul\":2392:2398   */\n      dup4\n        /* \"#utility.yul\":2339:2399   */\n      tag_97\n      jump\t// in\n    tag_96:\n        /* \"#utility.yul\":2329:2399   */\n      swap3\n      pop\n        /* \"#utility.yul\":2185:2409   */\n      pop\n        /* \"#utility.yul\":2172:2173   */\n      0x01\n        /* \"#utility.yul\":2169:2170   */\n      dup2\n        /* \"#utility.yul\":2165:2174   */\n      add\n        /* \"#utility.yul\":2160:2174   */\n      swap1\n      pop\n        /* \"#utility.yul\":2125:2409   */\n      jump(tag_92)\n    tag_94:\n        /* \"#utility.yul\":2129:2143   */\n      pop\n        /* \"#utility.yul\":2425:2428   */\n      dup6\n        /* \"#utility.yul\":2418:2428   */\n      swap4\n      pop\n        /* \"#utility.yul\":1826:2434   */\n      pop\n      pop\n      pop\n      swap3\n      swap2\n      pop\n      pop\n      jump\t// out\n        /* \"#utility.yul\":2440:2823   */\n    tag_98:\n      0x00\n        /* \"#utility.yul\":2603:2670   */\n      tag_100\n        /* \"#utility.yul\":2667:2669   */\n      0x33\n        /* \"#utility.yul\":2662:2665   */\n      dup4\n        /* \"#utility.yul\":2603:2670   */\n      tag_101\n      jump\t// in\n    tag_100:\n        /* \"#utility.yul\":2596:2670   */\n      swap2\n      pop\n        /* \"#utility.yul\":2700:2734   */\n      0x616d6f756e742073686f756c642062652067726561746572207468616e203020\n        /* \"#utility.yul\":2696:2697   */\n      0x00\n        /* \"#utility.yul\":2691:2694   */\n      dup4\n        /* \"#utility.yul\":2687:2698   */\n      add\n        /* \"#utility.yul\":2680:2735   */\n      mstore\n        /* \"#utility.yul\":2766:2787   */\n      0x616e64206d75737420626520696e2062616e6b00000000000000000000000000\n        /* \"#utility.yul\":2761:2763   */\n      0x20\n        /* \"#utility.yul\":2756:2759   */\n      dup4\n        /* \"#utility.yul\":2752:2764   */\n      add\n        /* \"#utility.yul\":2745:2788   */\n      mstore\n        /* \"#utility.yul\":2814:2816   */\n      0x40\n        /* \"#utility.yul\":2809:2812   */\n      dup3\n        /* \"#utility.yul\":2805:2817   */\n      add\n        /* \"#utility.yul\":2798:2817   */\n      swap1\n      pop\n        /* \"#utility.yul\":2586:2823   */\n      swap2\n      swap1\n      pop\n      jump\t// out\n        /* \"#utility.yul\":2829:3158   */\n    tag_102:\n      0x00\n        /* \"#utility.yul\":2992:3059   */\n      tag_104\n        /* \"#utility.yul\":3056:3058   */\n      0x1f\n        /* \"#utility.yul\":3051:3054   */\n      dup4\n        /* \"#utility.yul\":2992:3059   */\n      tag_101\n      jump\t// in\n    tag_104:\n        /* \"#utility.yul\":2985:3059   */\n      swap2\n      pop\n        /* \"#utility.yul\":3089:3122   */\n      0x616d6f756e742073686f756c642062652067726561746572207468616e203000\n        /* \"#utility.yul\":3085:3086   */\n      0x00\n        /* \"#utility.yul\":3080:3083   */\n      dup4\n        /* \"#utility.yul\":3076:3087   */\n      add\n        /* \"#utility.yul\":3069:3123   */\n      mstore\n        /* \"#utility.yul\":3149:3151   */\n      0x20\n        /* \"#utility.yul\":3144:3147   */\n      dup3\n        /* \"#utility.yul\":3140:3152   */\n      add\n        /* \"#utility.yul\":3133:3152   */\n      swap1\n      pop\n        /* \"#utility.yul\":2975:3158   */\n      swap2\n      swap1\n      pop\n      jump\t// out\n        /* \"#utility.yul\":3164:3272   */\n    tag_66:\n        /* \"#utility.yul\":3241:3265   */\n      tag_106\n        /* \"#utility.yul\":3259:3264   */\n      dup2\n        /* \"#utility.yul\":3241:3265   */\n      tag_107\n      jump\t// in\n    tag_106:\n        /* \"#utility.yul\":3236:3239   */\n      dup3\n        /* \"#utility.yul\":3229:3266   */\n      mstore\n        /* \"#utility.yul\":3219:3272   */\n      pop\n      pop\n      jump\t// out\n        /* \"#utility.yul\":3278:3396   */\n    tag_108:\n        /* \"#utility.yul\":3365:3389   */\n      tag_110\n        /* \"#utility.yul\":3383:3388   */\n      dup2\n        /* \"#utility.yul\":3365:3389   */\n      tag_107\n      jump\t// in\n    tag_110:\n        /* \"#utility.yul\":3360:3363   */\n      dup3\n        /* \"#utility.yul\":3353:3390   */\n      mstore\n        /* \"#utility.yul\":3343:3396   */\n      pop\n      pop\n      jump\t// out\n        /* \"#utility.yul\":3402:4036   */\n    tag_21:\n      0x00\n        /* \"#utility.yul\":3661:3663   */\n      0x40\n        /* \"#utility.yul\":3650:3659   */\n      dup3\n        /* \"#utility.yul\":3646:3664   */\n      add\n        /* \"#utility.yul\":3638:3664   */\n      swap1\n      pop\n        /* \"#utility.yul\":3710:3719   */\n      dup2\n        /* \"#utility.yul\":3704:3708   */\n      dup2\n        /* \"#utility.yul\":3700:3720   */\n      sub\n        /* \"#utility.yul\":3696:3697   */\n      0x00\n        /* \"#utility.yul\":3685:3694   */\n      dup4\n        /* \"#utility.yul\":3681:3698   */\n      add\n        /* \"#utility.yul\":3674:3721   */\n      mstore\n        /* \"#utility.yul\":3738:3846   */\n      tag_112\n        /* \"#utility.yul\":3841:3845   */\n      dup2\n        /* \"#utility.yul\":3832:3838   */\n      dup6\n        /* \"#utility.yul\":3738:3846   */\n      tag_70\n      jump\t// in\n    tag_112:\n        /* \"#utility.yul\":3730:3846   */\n      swap1\n      pop\n        /* \"#utility.yul\":3893:3902   */\n      dup2\n        /* \"#utility.yul\":3887:3891   */\n      dup2\n        /* \"#utility.yul\":3883:3903   */\n      sub\n        /* \"#utility.yul\":3878:3880   */\n      0x20\n        /* \"#utility.yul\":3867:3876   */\n      dup4\n        /* \"#utility.yul\":3863:3881   */\n      add\n        /* \"#utility.yul\":3856:3904   */\n      mstore\n        /* \"#utility.yul\":3921:4029   */\n      tag_113\n        /* \"#utility.yul\":4024:4028   */\n      dup2\n        /* \"#utility.yul\":4015:4021   */\n      dup5\n        /* \"#utility.yul\":3921:4029   */\n      tag_84\n      jump\t// in\n    tag_113:\n        /* \"#utility.yul\":3913:4029   */\n      swap1\n      pop\n        /* \"#utility.yul\":3628:4036   */\n      swap4\n      swap3\n      pop\n      pop\n      pop\n      jump\t// out\n        /* \"#utility.yul\":4042:4461   */\n    tag_34:\n      0x00\n        /* \"#utility.yul\":4246:4248   */\n      0x20\n        /* \"#utility.yul\":4235:4244   */\n      dup3\n        /* \"#utility.yul\":4231:4249   */\n      add\n        /* \"#utility.yul\":4223:4249   */\n      swap1\n      pop\n        /* \"#utility.yul\":4295:4304   */\n      dup2\n        /* \"#utility.yul\":4289:4293   */\n      dup2\n        /* \"#utility.yul\":4285:4305   */\n      sub\n        /* \"#utility.yul\":4281:4282   */\n      0x00\n        /* \"#utility.yul\":4270:4279   */\n      dup4\n        /* \"#utility.yul\":4266:4283   */\n      add\n        /* \"#utility.yul\":4259:4306   */\n      mstore\n        /* \"#utility.yul\":4323:4454   */\n      tag_115\n        /* \"#utility.yul\":4449:4453   */\n      dup2\n        /* \"#utility.yul\":4323:4454   */\n      tag_98\n      jump\t// in\n    tag_115:\n        /* \"#utility.yul\":4315:4454   */\n      swap1\n      pop\n        /* \"#utility.yul\":4213:4461   */\n      swap2\n      swap1\n      pop\n      jump\t// out\n        /* \"#utility.yul\":4467:4886   */\n    tag_25:\n      0x00\n        /* \"#utility.yul\":4671:4673   */\n      0x20\n        /* \"#utility.yul\":4660:4669   */\n      dup3\n        /* \"#utility.yul\":4656:4674   */\n      add\n        /* \"#utility.yul\":4648:4674   */\n      swap1\n      pop\n        /* \"#utility.yul\":4720:4729   */\n      dup2\n        /* \"#utility.yul\":4714:4718   */\n      dup2\n        /* \"#utility.yul\":4710:4730   */\n      sub\n        /* \"#utility.yul\":4706:4707   */\n      0x00\n        /* \"#utility.yul\":4695:4704   */\n      dup4\n        /* \"#utility.yul\":4691:4708   */\n      add\n        /* \"#utility.yul\":4684:4731   */\n      mstore\n        /* \"#utility.yul\":4748:4879   */\n      tag_117\n        /* \"#utility.yul\":4874:4878   */\n      dup2\n        /* \"#utility.yul\":4748:4879   */\n      tag_102\n      jump\t// in\n    tag_117:\n        /* \"#utility.yul\":4740:4879   */\n      swap1\n      pop\n        /* \"#utility.yul\":4638:4886   */\n      swap2\n      swap1\n      pop\n      jump\t// out\n        /* \"#utility.yul\":4892:5114   */\n    tag_17:\n      0x00\n        /* \"#utility.yul\":5023:5025   */\n      0x20\n        /* \"#utility.yul\":5012:5021   */\n      dup3\n        /* \"#utility.yul\":5008:5026   */\n      add\n        /* \"#utility.yul\":5000:5026   */\n      swap1\n      pop\n        /* \"#utility.yul\":5036:5107   */\n      tag_119\n        /* \"#utility.yul\":5104:5105   */\n      0x00\n        /* \"#utility.yul\":5093:5102   */\n      dup4\n        /* \"#utility.yul\":5089:5106   */\n      add\n        /* \"#utility.yul\":5080:5086   */\n      dup5\n        /* \"#utility.yul\":5036:5107   */\n      tag_108\n      jump\t// in\n    tag_119:\n        /* \"#utility.yul\":4990:5114   */\n      swap3\n      swap2\n      pop\n      pop\n      jump\t// out\n        /* \"#utility.yul\":5120:5252   */\n    tag_77:\n      0x00\n        /* \"#utility.yul\":5210:5213   */\n      dup2\n        /* \"#utility.yul\":5202:5213   */\n      swap1\n      pop\n        /* \"#utility.yul\":5240:5244   */\n      0x20\n        /* \"#utility.yul\":5235:5238   */\n      dup3\n        /* \"#utility.yul\":5231:5245   */\n      add\n        /* \"#utility.yul\":5223:5245   */\n      swap1\n      pop\n        /* \"#utility.yul\":5192:5252   */\n      swap2\n      swap1\n      pop\n      jump\t// out\n        /* \"#utility.yul\":5258:5390   */\n    tag_91:\n      0x00\n        /* \"#utility.yul\":5348:5351   */\n      dup2\n        /* \"#utility.yul\":5340:5351   */\n      swap1\n      pop\n        /* \"#utility.yul\":5378:5382   */\n      0x20\n        /* \"#utility.yul\":5373:5376   */\n      dup3\n        /* \"#utility.yul\":5369:5383   */\n      add\n        /* \"#utility.yul\":5361:5383   */\n      swap1\n      pop\n        /* \"#utility.yul\":5330:5390   */\n      swap2\n      swap1\n      pop\n      jump\t// out\n        /* \"#utility.yul\":5396:5510   */\n    tag_73:\n      0x00\n        /* \"#utility.yul\":5497:5502   */\n      dup2\n        /* \"#utility.yul\":5491:5503   */\n      mload\n        /* \"#utility.yul\":5481:5503   */\n      swap1\n      pop\n        /* \"#utility.yul\":5470:5510   */\n      swap2\n      swap1\n      pop\n      jump\t// out\n        /* \"#utility.yul\":5516:5630   */\n    tag_87:\n      0x00\n        /* \"#utility.yul\":5617:5622   */\n      dup2\n        /* \"#utility.yul\":5611:5623   */\n      mload\n        /* \"#utility.yul\":5601:5623   */\n      swap1\n      pop\n        /* \"#utility.yul\":5590:5630   */\n      swap2\n      swap1\n      pop\n      jump\t// out\n        /* \"#utility.yul\":5636:5749   */\n    tag_83:\n      0x00\n        /* \"#utility.yul\":5738:5742   */\n      0x20\n        /* \"#utility.yul\":5733:5736   */\n      dup3\n        /* \"#utility.yul\":5729:5743   */\n      add\n        /* \"#utility.yul\":5721:5743   */\n      swap1\n      pop\n        /* \"#utility.yul\":5711:5749   */\n      swap2\n      swap1\n      pop\n      jump\t// out\n        /* \"#utility.yul\":5755:5868   */\n    tag_97:\n      0x00\n        /* \"#utility.yul\":5857:5861   */\n      0x20\n        /* \"#utility.yul\":5852:5855   */\n      dup3\n        /* \"#utility.yul\":5848:5862   */\n      add\n        /* \"#utility.yul\":5840:5862   */\n      swap1\n      pop\n        /* \"#utility.yul\":5830:5868   */\n      swap2\n      swap1\n      pop\n      jump\t// out\n        /* \"#utility.yul\":5874:6058   */\n    tag_75:\n      0x00\n        /* \"#utility.yul\":6007:6013   */\n      dup3\n        /* \"#utility.yul\":6002:6005   */\n      dup3\n        /* \"#utility.yul\":5995:6014   */\n      mstore\n        /* \"#utility.yul\":6047:6051   */\n      0x20\n        /* \"#utility.yul\":6042:6045   */\n      dup3\n        /* \"#utility.yul\":6038:6052   */\n      add\n        /* \"#utility.yul\":6023:6052   */\n      swap1\n      pop\n        /* \"#utility.yul\":5985:6058   */\n      swap3\n      swap2\n      pop\n      pop\n      jump\t// out\n        /* \"#utility.yul\":6064:6248   */\n    tag_89:\n      0x00\n        /* \"#utility.yul\":6197:6203   */\n      dup3\n        /* \"#utility.yul\":6192:6195   */\n      dup3\n        /* \"#utility.yul\":6185:6204   */\n      mstore\n        /* \"#utility.yul\":6237:6241   */\n      0x20\n        /* \"#utility.yul\":6232:6235   */\n      dup3\n        /* \"#utility.yul\":6228:6242   */\n      add\n        /* \"#utility.yul\":6213:6242   */\n      swap1\n      pop\n        /* \"#utility.yul\":6175:6248   */\n      swap3\n      swap2\n      pop\n      pop\n      jump\t// out\n        /* \"#utility.yul\":6254:6423   */\n    tag_101:\n      0x00\n        /* \"#utility.yul\":6372:6378   */\n      dup3\n        /* \"#utility.yul\":6367:6370   */\n      dup3\n        /* \"#utility.yul\":6360:6379   */\n      mstore\n        /* \"#utility.yul\":6412:6416   */\n      0x20\n        /* \"#utility.yul\":6407:6410   */\n      dup3\n        /* \"#utility.yul\":6403:6417   */\n      add\n        /* \"#utility.yul\":6388:6417   */\n      swap1\n      pop\n        /* \"#utility.yul\":6350:6423   */\n      swap3\n      swap2\n      pop\n      pop\n      jump\t// out\n        /* \"#utility.yul\":6429:6734   */\n    tag_27:\n      0x00\n        /* \"#utility.yul\":6488:6508   */\n      tag_130\n        /* \"#utility.yul\":6506:6507   */\n      dup3\n        /* \"#utility.yul\":6488:6508   */\n      tag_107\n      jump\t// in\n    tag_130:\n        /* \"#utility.yul\":6483:6508   */\n      swap2\n      pop\n        /* \"#utility.yul\":6522:6542   */\n      tag_131\n        /* \"#utility.yul\":6540:6541   */\n      dup4\n        /* \"#utility.yul\":6522:6542   */\n      tag_107\n      jump\t// in\n    tag_131:\n        /* \"#utility.yul\":6517:6542   */\n      swap3\n      pop\n        /* \"#utility.yul\":6676:6677   */\n      dup3\n        /* \"#utility.yul\":6608:6674   */\n      0xffffffffffffffffffffffffffffffffffffffffffffffffffffffffffffffff\n        /* \"#utility.yul\":6604:6678   */\n      sub\n        /* \"#utility.yul\":6601:6602   */\n      dup3\n        /* \"#utility.yul\":6598:6679   */\n      gt\n        /* \"#utility.yul\":6595:6597   */\n      iszero\n      tag_132\n      jumpi\n        /* \"#utility.yul\":6682:6700   */\n      tag_133\n      tag_134\n      jump\t// in\n    tag_133:\n        /* \"#utility.yul\":6595:6597   */\n    tag_132:\n        /* \"#utility.yul\":6726:6727   */\n      dup3\n        /* \"#utility.yul\":6723:6724   */\n      dup3\n        /* \"#utility.yul\":6719:6728   */\n      add\n        /* \"#utility.yul\":6712:6728   */\n      swap1\n      pop\n        /* \"#utility.yul\":6473:6734   */\n      swap3\n      swap2\n      pop\n      pop\n      jump\t// out\n        /* \"#utility.yul\":6740:6931   */\n    tag_36:\n      0x00\n        /* \"#utility.yul\":6800:6820   */\n      tag_136\n        /* \"#utility.yul\":6818:6819   */\n      dup3\n        /* \"#utility.yul\":6800:6820   */\n      tag_107\n      jump\t// in\n    tag_136:\n        /* \"#utility.yul\":6795:6820   */\n      swap2\n      pop\n        /* \"#utility.yul\":6834:6854   */\n      tag_137\n        /* \"#utility.yul\":6852:6853   */\n      dup4\n        /* \"#utility.yul\":6834:6854   */\n      tag_107\n      jump\t// in\n    tag_137:\n        /* \"#utility.yul\":6829:6854   */\n      swap3\n      pop\n        /* \"#utility.yul\":6873:6874   */\n      dup3\n        /* \"#utility.yul\":6870:6871   */\n      dup3\n        /* \"#utility.yul\":6867:6875   */\n      lt\n        /* \"#utility.yul\":6864:6866   */\n      iszero\n      tag_138\n      jumpi\n        /* \"#utility.yul\":6878:6896   */\n      tag_139\n      tag_134\n      jump\t// in\n    tag_139:\n        /* \"#utility.yul\":6864:6866   */\n    tag_138:\n        /* \"#utility.yul\":6923:6924   */\n      dup3\n        /* \"#utility.yul\":6920:6921   */\n      dup3\n        /* \"#utility.yul\":6916:6925   */\n      sub\n        /* \"#utility.yul\":6908:6925   */\n      swap1\n      pop\n        /* \"#utility.yul\":6785:6931   */\n      swap3\n      swap2\n      pop\n      pop\n      jump\t// out\n        /* \"#utility.yul\":6937:7033   */\n    tag_69:\n      0x00\n        /* \"#utility.yul\":7003:7027   */\n      tag_141\n        /* \"#utility.yul\":7021:7026   */\n      dup3\n        /* \"#utility.yul\":7003:7027   */\n      tag_142\n      jump\t// in\n    tag_141:\n        /* \"#utility.yul\":6992:7027   */\n      swap1\n      pop\n        /* \"#utility.yul\":6982:7033   */\n      swap2\n      swap1\n      pop\n      jump\t// out\n        /* \"#utility.yul\":7039:7165   */\n    tag_142:\n      0x00\n        /* \"#utility.yul\":7116:7158   */\n      0xffffffffffffffffffffffffffffffffffffffff\n        /* \"#utility.yul\":7109:7114   */\n      dup3\n        /* \"#utility.yul\":7105:7159   */\n      and\n        /* \"#utility.yul\":7094:7159   */\n      swap1\n      pop\n        /* \"#utility.yul\":7084:7165   */\n      swap2\n      swap1\n      pop\n      jump\t// out\n        /* \"#utility.yul\":7171:7248   */\n    tag_107:\n      0x00\n        /* \"#utility.yul\":7237:7242   */\n      dup2\n        /* \"#utility.yul\":7226:7242   */\n      swap1\n      pop\n        /* \"#utility.yul\":7216:7248   */\n      swap2\n      swap1\n      pop\n      jump\t// out\n        /* \"#utility.yul\":7254:7487   */\n    tag_48:\n      0x00\n        /* \"#utility.yul\":7316:7340   */\n      tag_146\n        /* \"#utility.yul\":7334:7339   */\n      dup3\n        /* \"#utility.yul\":7316:7340   */\n      tag_107\n      jump\t// in\n    tag_146:\n        /* \"#utility.yul\":7307:7340   */\n      swap2\n      pop\n        /* \"#utility.yul\":7362:7428   */\n      0xffffffffffffffffffffffffffffffffffffffffffffffffffffffffffffffff\n        /* \"#utility.yul\":7355:7360   */\n      dup3\n        /* \"#utility.yul\":7352:7429   */\n      eq\n        /* \"#utility.yul\":7349:7351   */\n      iszero\n      tag_147\n      jumpi\n        /* \"#utility.yul\":7432:7450   */\n      tag_148\n      tag_134\n      jump\t// in\n    tag_148:\n        /* \"#utility.yul\":7349:7351   */\n    tag_147:\n        /* \"#utility.yul\":7479:7480   */\n      0x01\n        /* \"#utility.yul\":7472:7477   */\n      dup3\n        /* \"#utility.yul\":7468:7481   */\n      add\n        /* \"#utility.yul\":7461:7481   */\n      swap1\n      pop\n        /* \"#utility.yul\":7297:7487   */\n      swap2\n      swap1\n      pop\n      jump\t// out\n        /* \"#utility.yul\":7493:7673   */\n    tag_134:\n        /* \"#utility.yul\":7541:7618   */\n      0x4e487b7100000000000000000000000000000000000000000000000000000000\n        /* \"#utility.yul\":7538:7539   */\n      0x00\n        /* \"#utility.yul\":7531:7619   */\n      mstore\n        /* \"#utility.yul\":7638:7642   */\n      0x11\n        /* \"#utility.yul\":7635:7636   */\n      0x04\n        /* \"#utility.yul\":7628:7643   */\n      mstore\n        /* \"#utility.yul\":7662:7666   */\n      0x24\n        /* \"#utility.yul\":7659:7660   */\n      0x00\n        /* \"#utility.yul\":7652:7667   */\n      revert\n        /* \"#utility.yul\":7679:7801   */\n    tag_55:\n        /* \"#utility.yul\":7752:7776   */\n      tag_151\n        /* \"#utility.yul\":7770:7775   */\n      dup2\n        /* \"#utility.yul\":7752:7776   */\n      tag_107\n      jump\t// in\n    tag_151:\n        /* \"#utility.yul\":7745:7750   */\n      dup2\n        /* \"#utility.yul\":7742:7777   */\n      eq\n        /* \"#utility.yul\":7732:7734   */\n      tag_152\n      jumpi\n        /* \"#utility.yul\":7791:7792   */\n      0x00\n        /* \"#utility.yul\":7788:7789   */\n      dup1\n        /* \"#utility.yul\":7781:7793   */\n      revert\n        /* \"#utility.yul\":7732:7734   */\n    tag_152:\n        /* \"#utility.yul\":7722:7801   */\n      pop\n      jump\t// out\n\n    auxdata: 0xa26469706673582212207256e8ca4f0eab4f46d49ceadf518169b1e357d3dd7483399f0da062195ad2fb64736f6c63430008000033\n}\n",
				"bytecode": {
					"linkReferences": {},
					"object": "608060405234801561001057600080fd5b50610a50806100206000396000f3fe608060405234801561001057600080fd5b506004361061004c5760003560e01c80634d6ce1e5146100515780635b6b431d1461006d578063c71daccb14610089578063e2842d79146100a7575b600080fd5b61006b600480360381019061006691906105c8565b6100c6565b005b610087600480360381019061008291906105c8565b61026e565b005b610091610352565b60405161009e9190610827565b60405180910390f35b6100af610398565b6040516100bd9291906107b0565b60405180910390f35b60008111610109576040517f08c379a000000000000000000000000000000000000000000000000000000000815260040161010090610807565b60405180910390fd5b806000803373ffffffffffffffffffffffffffffffffffffffff1673ffffffffffffffffffffffffffffffffffffffff168152602001908152602001600020600082825461015791906108c5565b92505081905550600260003373ffffffffffffffffffffffffffffffffffffffff1673ffffffffffffffffffffffffffffffffffffffff16815260200190815260200160002060009054906101000a900460ff1661026b576001339080600181540180825580915050600190039060005260206000200160009091909190916101000a81548173ffffffffffffffffffffffffffffffffffffffff021916908373ffffffffffffffffffffffffffffffffffffffff1602179055506001600260003373ffffffffffffffffffffffffffffffffffffffff1673ffffffffffffffffffffffffffffffffffffffff16815260200190815260200160002060006101000a81548160ff0219169083151502179055505b50565b6000811180156102bb57506000803373ffffffffffffffffffffffffffffffffffffffff1673ffffffffffffffffffffffffffffffffffffffff1681526020019081526020016000205481105b6102fa576040517f08c379a00000000000000000000000000000000000000000000000000000000081526004016102f1906107e7565b60405180910390fd5b806000803373ffffffffffffffffffffffffffffffffffffffff1673ffffffffffffffffffffffffffffffffffffffff1681526020019081526020016000206000828254610348919061091b565b9250508190555050565b60008060003373ffffffffffffffffffffffffffffffffffffffff1673ffffffffffffffffffffffffffffffffffffffff16815260200190815260200160002054905090565b606080600060018054905067ffffffffffffffff8111156103e2577f4e487b7100000000000000000000000000000000000000000000000000000000600052604160045260246000fd5b6040519080825280602002602001820160405280156104105781602001602082028036833780820191505090505b50905060005b60018054905081101561051e5760008060018381548110610460577f4e487b7100000000000000000000000000000000000000000000000000000000600052603260045260246000fd5b9060005260206000200160009054906101000a900473ffffffffffffffffffffffffffffffffffffffff1673ffffffffffffffffffffffffffffffffffffffff1673ffffffffffffffffffffffffffffffffffffffff168152602001908152602001600020548282815181106104ff577f4e487b7100000000000000000000000000000000000000000000000000000000600052603260045260246000fd5b60200260200101818152505080806105169061098b565b915050610416565b50600181818054806020026020016040519081016040528092919081815260200182805480156105a357602002820191906000526020600020905b8160009054906101000a900473ffffffffffffffffffffffffffffffffffffffff1673ffffffffffffffffffffffffffffffffffffffff1681526020019060010190808311610559575b5050505050915092509250509091565b6000813590506105c281610a03565b92915050565b6000602082840312156105da57600080fd5b60006105e8848285016105b3565b91505092915050565b60006105fd8383610621565b60208301905092915050565b60006106158383610792565b60208301905092915050565b61062a8161094f565b82525050565b600061063b82610862565b6106458185610892565b935061065083610842565b8060005b8381101561068157815161066888826105f1565b975061067383610878565b925050600181019050610654565b5085935050505092915050565b60006106998261086d565b6106a381856108a3565b93506106ae83610852565b8060005b838110156106df5781516106c68882610609565b97506106d183610885565b9250506001810190506106b2565b5085935050505092915050565b60006106f96033836108b4565b91507f616d6f756e742073686f756c642062652067726561746572207468616e20302060008301527f616e64206d75737420626520696e2062616e6b000000000000000000000000006020830152604082019050919050565b600061075f601f836108b4565b91507f616d6f756e742073686f756c642062652067726561746572207468616e2030006000830152602082019050919050565b61079b81610981565b82525050565b6107aa81610981565b82525050565b600060408201905081810360008301526107ca8185610630565b905081810360208301526107de818461068e565b90509392505050565b60006020820190508181036000830152610800816106ec565b9050919050565b6000602082019050818103600083015261082081610752565b9050919050565b600060208201905061083c60008301846107a1565b92915050565b6000819050602082019050919050565b6000819050602082019050919050565b600081519050919050565b600081519050919050565b6000602082019050919050565b6000602082019050919050565b600082825260208201905092915050565b600082825260208201905092915050565b600082825260208201905092915050565b60006108d082610981565b91506108db83610981565b9250827fffffffffffffffffffffffffffffffffffffffffffffffffffffffffffffffff038211156109105761090f6109d4565b5b828201905092915050565b600061092682610981565b915061093183610981565b925082821015610944576109436109d4565b5b828203905092915050565b600061095a82610961565b9050919050565b600073ffffffffffffffffffffffffffffffffffffffff82169050919050565b6000819050919050565b600061099682610981565b91507fffffffffffffffffffffffffffffffffffffffffffffffffffffffffffffffff8214156109c9576109c86109d4565b5b600182019050919050565b7f4e487b7100000000000000000000000000000000000000000000000000000000600052601160045260246000fd5b610a0c81610981565b8114610a1757600080fd5b5056fea26469706673582212207256e8ca4f0eab4f46d49ceadf518169b1e357d3dd7483399f0da062195ad2fb64736f6c63430008000033",
					"opcodes": "PUSH1 0x80 PUSH1 0x40 MSTORE CALLVALUE DUP1 ISZERO PUSH2 0x10 JUMPI PUSH1 0x0 DUP1 REVERT JUMPDEST POP PUSH2 0xA50 DUP1 PUSH2 0x20 PUSH1 0x0 CODECOPY PUSH1 0x0 RETURN INVALID PUSH1 0x80 PUSH1 0x40 MSTORE CALLVALUE DUP1 ISZERO PUSH2 0x10 JUMPI PUSH1 0x0 DUP1 REVERT JUMPDEST POP PUSH1 0x4 CALLDATASIZE LT PUSH2 0x4C JUMPI PUSH1 0x0 CALLDATALOAD PUSH1 0xE0 SHR DUP1 PUSH4 0x4D6CE1E5 EQ PUSH2 0x51 JUMPI DUP1 PUSH4 0x5B6B431D EQ PUSH2 0x6D JUMPI DUP1 PUSH4 0xC71DACCB EQ PUSH2 0x89 JUMPI DUP1 PUSH4 0xE2842D79 EQ PUSH2 0xA7 JUMPI JUMPDEST PUSH1 0x0 DUP1 REVERT JUMPDEST PUSH2 0x6B PUSH1 0x4 DUP1 CALLDATASIZE SUB DUP2 ADD SWAP1 PUSH2 0x66 SWAP2 SWAP1 PUSH2 0x5C8 JUMP JUMPDEST PUSH2 0xC6 JUMP JUMPDEST STOP JUMPDEST PUSH2 0x87 PUSH1 0x4 DUP1 CALLDATASIZE SUB DUP2 ADD SWAP1 PUSH2 0x82 SWAP2 SWAP1 PUSH2 0x5C8 JUMP JUMPDEST PUSH2 0x26E JUMP JUMPDEST STOP JUMPDEST PUSH2 0x91 PUSH2 0x352 JUMP JUMPDEST PUSH1 0x40 MLOAD PUSH2 0x9E SWAP2 SWAP1 PUSH2 0x827 JUMP JUMPDEST PUSH1 0x40 MLOAD DUP1 SWAP2 SUB SWAP1 RETURN JUMPDEST PUSH2 0xAF PUSH2 0x398 JUMP JUMPDEST PUSH1 0x40 MLOAD PUSH2 0xBD SWAP3 SWAP2 SWAP1 PUSH2 0x7B0 JUMP JUMPDEST PUSH1 0x40 MLOAD DUP1 SWAP2 SUB SWAP1 RETURN JUMPDEST PUSH1 0x0 DUP2 GT PUSH2 0x109 JUMPI PUSH1 0x40 MLOAD PUSH32 0x8C379A000000000000000000000000000000000000000000000000000000000 DUP2 MSTORE PUSH1 0x4 ADD PUSH2 0x100 SWAP1 PUSH2 0x807 JUMP JUMPDEST PUSH1 0x40 MLOAD DUP1 SWAP2 SUB SWAP1 REVERT JUMPDEST DUP1 PUSH1 0x0 DUP1 CALLER PUSH20 0xFFFFFFFFFFFFFFFFFFFFFFFFFFFFFFFFFFFFFFFF AND PUSH20 0xFFFFFFFFFFFFFFFFFFFFFFFFFFFFFFFFFFFFFFFF AND DUP2 MSTORE PUSH1 0x20 ADD SWAP1 DUP2 MSTORE PUSH1 0x20 ADD PUSH1 0x0 KECCAK256 PUSH1 0x0 DUP3 DUP3 SLOAD PUSH2 0x157 SWAP2 SWAP1 PUSH2 0x8C5 JUMP JUMPDEST SWAP3 POP POP DUP2 SWAP1 SSTORE POP PUSH1 0x2 PUSH1 0x0 CALLER PUSH20 0xFFFFFFFFFFFFFFFFFFFFFFFFFFFFFFFFFFFFFFFF AND PUSH20 0xFFFFFFFFFFFFFFFFFFFFFFFFFFFFFFFFFFFFFFFF AND DUP2 MSTORE PUSH1 0x20 ADD SWAP1 DUP2 MSTORE PUSH1 0x20 ADD PUSH1 0x0 KECCAK256 PUSH1 0x0 SWAP1 SLOAD SWAP1 PUSH2 0x100 EXP SWAP1 DIV PUSH1 0xFF AND PUSH2 0x26B JUMPI PUSH1 0x1 CALLER SWAP1 DUP1 PUSH1 0x1 DUP2 SLOAD ADD DUP1 DUP3 SSTORE DUP1 SWAP2 POP POP PUSH1 0x1 SWAP1 SUB SWAP1 PUSH1 0x0 MSTORE PUSH1 0x20 PUSH1 0x0 KECCAK256 ADD PUSH1 0x0 SWAP1 SWAP2 SWAP1 SWAP2 SWAP1 SWAP2 PUSH2 0x100 EXP DUP2 SLOAD DUP2 PUSH20 0xFFFFFFFFFFFFFFFFFFFFFFFFFFFFFFFFFFFFFFFF MUL NOT AND SWAP1 DUP4 PUSH20 0xFFFFFFFFFFFFFFFFFFFFFFFFFFFFFFFFFFFFFFFF AND MUL OR SWAP1 SSTORE POP PUSH1 0x1 PUSH1 0x2 PUSH1 0x0 CALLER PUSH20 0xFFFFFFFFFFFFFFFFFFFFFFFFFFFFFFFFFFFFFFFF AND PUSH20 0xFFFFFFFFFFFFFFFFFFFFFFFFFFFFFFFFFFFFFFFF AND DUP2 MSTORE PUSH1 0x20 ADD SWAP1 DUP2 MSTORE PUSH1 0x20 ADD PUSH1 0x0 KECCAK256 PUSH1 0x0 PUSH2 0x100 EXP DUP2 SLOAD DUP2 PUSH1 0xFF MUL NOT AND SWAP1 DUP4 ISZERO ISZERO MUL OR SWAP1 SSTORE POP JUMPDEST POP JUMP JUMPDEST PUSH1 0x0 DUP2 GT DUP1 ISZERO PUSH2 0x2BB JUMPI POP PUSH1 0x0 DUP1 CALLER PUSH20 0xFFFFFFFFFFFFFFFFFFFFFFFFFFFFFFFFFFFFFFFF AND PUSH20 0xFFFFFFFFFFFFFFFFFFFFFFFFFFFFFFFFFFFFFFFF AND DUP2 MSTORE PUSH1 0x20 ADD SWAP1 DUP2 MSTORE PUSH1 0x20 ADD PUSH1 0x0 KECCAK256 SLOAD DUP2 LT JUMPDEST PUSH2 0x2FA JUMPI PUSH1 0x40 MLOAD PUSH32 0x8C379A000000000000000000000000000000000000000000000000000000000 DUP2 MSTORE PUSH1 0x4 ADD PUSH2 0x2F1 SWAP1 PUSH2 0x7E7 JUMP JUMPDEST PUSH1 0x40 MLOAD DUP1 SWAP2 SUB SWAP1 REVERT JUMPDEST DUP1 PUSH1 0x0 DUP1 CALLER PUSH20 0xFFFFFFFFFFFFFFFFFFFFFFFFFFFFFFFFFFFFFFFF AND PUSH20 0xFFFFFFFFFFFFFFFFFFFFFFFFFFFFFFFFFFFFFFFF AND DUP2 MSTORE PUSH1 0x20 ADD SWAP1 DUP2 MSTORE PUSH1 0x20 ADD PUSH1 0x0 KECCAK256 PUSH1 0x0 DUP3 DUP3 SLOAD PUSH2 0x348 SWAP2 SWAP1 PUSH2 0x91B JUMP JUMPDEST SWAP3 POP POP DUP2 SWAP1 SSTORE POP POP JUMP JUMPDEST PUSH1 0x0 DUP1 PUSH1 0x0 CALLER PUSH20 0xFFFFFFFFFFFFFFFFFFFFFFFFFFFFFFFFFFFFFFFF AND PUSH20 0xFFFFFFFFFFFFFFFFFFFFFFFFFFFFFFFFFFFFFFFF AND DUP2 MSTORE PUSH1 0x20 ADD SWAP1 DUP2 MSTORE PUSH1 0x20 ADD PUSH1 0x0 KECCAK256 SLOAD SWAP1 POP SWAP1 JUMP JUMPDEST PUSH1 0x60 DUP1 PUSH1 0x0 PUSH1 0x1 DUP1 SLOAD SWAP1 POP PUSH8 0xFFFFFFFFFFFFFFFF DUP2 GT ISZERO PUSH2 0x3E2 JUMPI PUSH32 0x4E487B7100000000000000000000000000000000000000000000000000000000 PUSH1 0x0 MSTORE PUSH1 0x41 PUSH1 0x4 MSTORE PUSH1 0x24 PUSH1 0x0 REVERT JUMPDEST PUSH1 0x40 MLOAD SWAP1 DUP1 DUP3 MSTORE DUP1 PUSH1 0x20 MUL PUSH1 0x20 ADD DUP3 ADD PUSH1 0x40 MSTORE DUP1 ISZERO PUSH2 0x410 JUMPI DUP2 PUSH1 0x20 ADD PUSH1 0x20 DUP3 MUL DUP1 CALLDATASIZE DUP4 CALLDATACOPY DUP1 DUP3 ADD SWAP2 POP POP SWAP1 POP JUMPDEST POP SWAP1 POP PUSH1 0x0 JUMPDEST PUSH1 0x1 DUP1 SLOAD SWAP1 POP DUP2 LT ISZERO PUSH2 0x51E JUMPI PUSH1 0x0 DUP1 PUSH1 0x1 DUP4 DUP2 SLOAD DUP2 LT PUSH2 0x460 JUMPI PUSH32 0x4E487B7100000000000000000000000000000000000000000000000000000000 PUSH1 0x0 MSTORE PUSH1 0x32 PUSH1 0x4 MSTORE PUSH1 0x24 PUSH1 0x0 REVERT JUMPDEST SWAP1 PUSH1 0x0 MSTORE PUSH1 0x20 PUSH1 0x0 KECCAK256 ADD PUSH1 0x0 SWAP1 SLOAD SWAP1 PUSH2 0x100 EXP SWAP1 DIV PUSH20 0xFFFFFFFFFFFFFFFFFFFFFFFFFFFFFFFFFFFFFFFF AND PUSH20 0xFFFFFFFFFFFFFFFFFFFFFFFFFFFFFFFFFFFFFFFF AND PUSH20 0xFFFFFFFFFFFFFFFFFFFFFFFFFFFFFFFFFFFFFFFF AND DUP2 MSTORE PUSH1 0x20 ADD SWAP1 DUP2 MSTORE PUSH1 0x20 ADD PUSH1 0x0 KECCAK256 SLOAD DUP3 DUP3 DUP2 MLOAD DUP2 LT PUSH2 0x4FF JUMPI PUSH32 0x4E487B7100000000000000000000000000000000000000000000000000000000 PUSH1 0x0 MSTORE PUSH1 0x32 PUSH1 0x4 MSTORE PUSH1 0x24 PUSH1 0x0 REVERT JUMPDEST PUSH1 0x20 MUL PUSH1 0x20 ADD ADD DUP2 DUP2 MSTORE POP POP DUP1 DUP1 PUSH2 0x516 SWAP1 PUSH2 0x98B JUMP JUMPDEST SWAP2 POP POP PUSH2 0x416 JUMP JUMPDEST POP PUSH1 0x1 DUP2 DUP2 DUP1 SLOAD DUP1 PUSH1 0x20 MUL PUSH1 0x20 ADD PUSH1 0x40 MLOAD SWAP1 DUP2 ADD PUSH1 0x40 MSTORE DUP1 SWAP3 SWAP2 SWAP1 DUP2 DUP2 MSTORE PUSH1 0x20 ADD DUP3 DUP1 SLOAD DUP1 ISZERO PUSH2 0x5A3 JUMPI PUSH1 0x20 MUL DUP3 ADD SWAP2 SWAP1 PUSH1 0x0 MSTORE PUSH1 0x20 PUSH1 0x0 KECCAK256 SWAP1 JUMPDEST DUP2 PUSH1 0x0 SWAP1 SLOAD SWAP1 PUSH2 0x100 EXP SWAP1 DIV PUSH20 0xFFFFFFFFFFFFFFFFFFFFFFFFFFFFFFFFFFFFFFFF AND PUSH20 0xFFFFFFFFFFFFFFFFFFFFFFFFFFFFFFFFFFFFFFFF AND DUP2 MSTORE PUSH1 0x20 ADD SWAP1 PUSH1 0x1 ADD SWAP1 DUP1 DUP4 GT PUSH2 0x559 JUMPI JUMPDEST POP POP POP POP POP SWAP2 POP SWAP3 POP SWAP3 POP POP SWAP1 SWAP2 JUMP JUMPDEST PUSH1 0x0 DUP2 CALLDATALOAD SWAP1 POP PUSH2 0x5C2 DUP2 PUSH2 0xA03 JUMP JUMPDEST SWAP3 SWAP2 POP POP JUMP JUMPDEST PUSH1 0x0 PUSH1 0x20 DUP3 DUP5 SUB SLT ISZERO PUSH2 0x5DA JUMPI PUSH1 0x0 DUP1 REVERT JUMPDEST PUSH1 0x0 PUSH2 0x5E8 DUP5 DUP3 DUP6 ADD PUSH2 0x5B3 JUMP JUMPDEST SWAP2 POP POP SWAP3 SWAP2 POP POP JUMP JUMPDEST PUSH1 0x0 PUSH2 0x5FD DUP4 DUP4 PUSH2 0x621 JUMP JUMPDEST PUSH1 0x20 DUP4 ADD SWAP1 POP SWAP3 SWAP2 POP POP JUMP JUMPDEST PUSH1 0x0 PUSH2 0x615 DUP4 DUP4 PUSH2 0x792 JUMP JUMPDEST PUSH1 0x20 DUP4 ADD SWAP1 POP SWAP3 SWAP2 POP POP JUMP JUMPDEST PUSH2 0x62A DUP2 PUSH2 0x94F JUMP JUMPDEST DUP3 MSTORE POP POP JUMP JUMPDEST PUSH1 0x0 PUSH2 0x63B DUP3 PUSH2 0x862 JUMP JUMPDEST PUSH2 0x645 DUP2 DUP6 PUSH2 0x892 JUMP JUMPDEST SWAP4 POP PUSH2 0x650 DUP4 PUSH2 0x842 JUMP JUMPDEST DUP1 PUSH1 0x0 JUMPDEST DUP4 DUP2 LT ISZERO PUSH2 0x681 JUMPI DUP2 MLOAD PUSH2 0x668 DUP9 DUP3 PUSH2 0x5F1 JUMP JUMPDEST SWAP8 POP PUSH2 0x673 DUP4 PUSH2 0x878 JUMP JUMPDEST SWAP3 POP POP PUSH1 0x1 DUP2 ADD SWAP1 POP PUSH2 0x654 JUMP JUMPDEST POP DUP6 SWAP4 POP POP POP POP SWAP3 SWAP2 POP POP JUMP JUMPDEST PUSH1 0x0 PUSH2 0x699 DUP3 PUSH2 0x86D JUMP JUMPDEST PUSH2 0x6A3 DUP2 DUP6 PUSH2 0x8A3 JUMP JUMPDEST SWAP4 POP PUSH2 0x6AE DUP4 PUSH2 0x852 JUMP JUMPDEST DUP1 PUSH1 0x0 JUMPDEST DUP4 DUP2 LT ISZERO PUSH2 0x6DF JUMPI DUP2 MLOAD PUSH2 0x6C6 DUP9 DUP3 PUSH2 0x609 JUMP JUMPDEST SWAP8 POP PUSH2 0x6D1 DUP4 PUSH2 0x885 JUMP JUMPDEST SWAP3 POP POP PUSH1 0x1 DUP2 ADD SWAP1 POP PUSH2 0x6B2 JUMP JUMPDEST POP DUP6 SWAP4 POP POP POP POP SWAP3 SWAP2 POP POP JUMP JUMPDEST PUSH1 0x0 PUSH2 0x6F9 PUSH1 0x33 DUP4 PUSH2 0x8B4 JUMP JUMPDEST SWAP2 POP PUSH32 0x616D6F756E742073686F756C642062652067726561746572207468616E203020 PUSH1 0x0 DUP4 ADD MSTORE PUSH32 0x616E64206D75737420626520696E2062616E6B00000000000000000000000000 PUSH1 0x20 DUP4 ADD MSTORE PUSH1 0x40 DUP3 ADD SWAP1 POP SWAP2 SWAP1 POP JUMP JUMPDEST PUSH1 0x0 PUSH2 0x75F PUSH1 0x1F DUP4 PUSH2 0x8B4 JUMP JUMPDEST SWAP2 POP PUSH32 0x616D6F756E742073686F756C642062652067726561746572207468616E203000 PUSH1 0x0 DUP4 ADD MSTORE PUSH1 0x20 DUP3 ADD SWAP1 POP SWAP2 SWAP1 POP JUMP JUMPDEST PUSH2 0x79B DUP2 PUSH2 0x981 JUMP JUMPDEST DUP3 MSTORE POP POP JUMP JUMPDEST PUSH2 0x7AA DUP2 PUSH2 0x981 JUMP JUMPDEST DUP3 MSTORE POP POP JUMP JUMPDEST PUSH1 0x0 PUSH1 0x40 DUP3 ADD SWAP1 POP DUP2 DUP2 SUB PUSH1 0x0 DUP4 ADD MSTORE PUSH2 0x7CA DUP2 DUP6 PUSH2 0x630 JUMP JUMPDEST SWAP1 POP DUP2 DUP2 SUB PUSH1 0x20 DUP4 ADD MSTORE PUSH2 0x7DE DUP2 DUP5 PUSH2 0x68E JUMP JUMPDEST SWAP1 POP SWAP4 SWAP3 POP POP POP JUMP JUMPDEST PUSH1 0x0 PUSH1 0x20 DUP3 ADD SWAP1 POP DUP2 DUP2 SUB PUSH1 0x0 DUP4 ADD MSTORE PUSH2 0x800 DUP2 PUSH2 0x6EC JUMP JUMPDEST SWAP1 POP SWAP2 SWAP1 POP JUMP JUMPDEST PUSH1 0x0 PUSH1 0x20 DUP3 ADD SWAP1 POP DUP2 DUP2 SUB PUSH1 0x0 DUP4 ADD MSTORE PUSH2 0x820 DUP2 PUSH2 0x752 JUMP JUMPDEST SWAP1 POP SWAP2 SWAP1 POP JUMP JUMPDEST PUSH1 0x0 PUSH1 0x20 DUP3 ADD SWAP1 POP PUSH2 0x83C PUSH1 0x0 DUP4 ADD DUP5 PUSH2 0x7A1 JUMP JUMPDEST SWAP3 SWAP2 POP POP JUMP JUMPDEST PUSH1 0x0 DUP2 SWAP1 POP PUSH1 0x20 DUP3 ADD SWAP1 POP SWAP2 SWAP1 POP JUMP JUMPDEST PUSH1 0x0 DUP2 SWAP1 POP PUSH1 0x20 DUP3 ADD SWAP1 POP SWAP2 SWAP1 POP JUMP JUMPDEST PUSH1 0x0 DUP2 MLOAD SWAP1 POP SWAP2 SWAP1 POP JUMP JUMPDEST PUSH1 0x0 DUP2 MLOAD SWAP1 POP SWAP2 SWAP1 POP JUMP JUMPDEST PUSH1 0x0 PUSH1 0x20 DUP3 ADD SWAP1 POP SWAP2 SWAP1 POP JUMP JUMPDEST PUSH1 0x0 PUSH1 0x20 DUP3 ADD SWAP1 POP SWAP2 SWAP1 POP JUMP JUMPDEST PUSH1 0x0 DUP3 DUP3 MSTORE PUSH1 0x20 DUP3 ADD SWAP1 POP SWAP3 SWAP2 POP POP JUMP JUMPDEST PUSH1 0x0 DUP3 DUP3 MSTORE PUSH1 0x20 DUP3 ADD SWAP1 POP SWAP3 SWAP2 POP POP JUMP JUMPDEST PUSH1 0x0 DUP3 DUP3 MSTORE PUSH1 0x20 DUP3 ADD SWAP1 POP SWAP3 SWAP2 POP POP JUMP JUMPDEST PUSH1 0x0 PUSH2 0x8D0 DUP3 PUSH2 0x981 JUMP JUMPDEST SWAP2 POP PUSH2 0x8DB DUP4 PUSH2 0x981 JUMP JUMPDEST SWAP3 POP DUP3 PUSH32 0xFFFFFFFFFFFFFFFFFFFFFFFFFFFFFFFFFFFFFFFFFFFFFFFFFFFFFFFFFFFFFFFF SUB DUP3 GT ISZERO PUSH2 0x910 JUMPI PUSH2 0x90F PUSH2 0x9D4 JUMP JUMPDEST JUMPDEST DUP3 DUP3 ADD SWAP1 POP SWAP3 SWAP2 POP POP JUMP JUMPDEST PUSH1 0x0 PUSH2 0x926 DUP3 PUSH2 0x981 JUMP JUMPDEST SWAP2 POP PUSH2 0x931 DUP4 PUSH2 0x981 JUMP JUMPDEST SWAP3 POP DUP3 DUP3 LT ISZERO PUSH2 0x944 JUMPI PUSH2 0x943 PUSH2 0x9D4 JUMP JUMPDEST JUMPDEST DUP3 DUP3 SUB SWAP1 POP SWAP3 SWAP2 POP POP JUMP JUMPDEST PUSH1 0x0 PUSH2 0x95A DUP3 PUSH2 0x961 JUMP JUMPDEST SWAP1 POP SWAP2 SWAP1 POP JUMP JUMPDEST PUSH1 0x0 PUSH20 0xFFFFFFFFFFFFFFFFFFFFFFFFFFFFFFFFFFFFFFFF DUP3 AND SWAP1 POP SWAP2 SWAP1 POP JUMP JUMPDEST PUSH1 0x0 DUP2 SWAP1 POP SWAP2 SWAP1 POP JUMP JUMPDEST PUSH1 0x0 PUSH2 0x996 DUP3 PUSH2 0x981 JUMP JUMPDEST SWAP2 POP PUSH32 0xFFFFFFFFFFFFFFFFFFFFFFFFFFFFFFFFFFFFFFFFFFFFFFFFFFFFFFFFFFFFFFFF DUP3 EQ ISZERO PUSH2 0x9C9 JUMPI PUSH2 0x9C8 PUSH2 0x9D4 JUMP JUMPDEST JUMPDEST PUSH1 0x1 DUP3 ADD SWAP1 POP SWAP2 SWAP1 POP JUMP JUMPDEST PUSH32 0x4E487B7100000000000000000000000000000000000000000000000000000000 PUSH1 0x0 MSTORE PUSH1 0x11 PUSH1 0x4 MSTORE PUSH1 0x24 PUSH1 0x0 REVERT JUMPDEST PUSH2 0xA0C DUP2 PUSH2 0x981 JUMP JUMPDEST DUP2 EQ PUSH2 0xA17 JUMPI PUSH1 0x0 DUP1 REVERT JUMPDEST POP JUMP INVALID LOG2 PUSH5 0x6970667358 0x22 SLT KECCAK256 PUSH19 0x56E8CA4F0EAB4F46D49CEADF518169B1E357D3 0xDD PUSH21 0x83399F0DA062195AD2FB64736F6C63430008000033 "
				},
				"gasEstimates": {
					"creation": {
						"codeDepositCost": "528000",
						"executionCost": "562",
						"totalCost": "528562"
					},
					"external": {
						"Deposit(uint256)": "infinite",
						"Withdraw(uint256)": "infinite",
						"checkBalance()": "1248",
						"getAllUsers()": "infinite"
					}
				},
				"methodIdentifiers": {
					"Deposit(uint256)": "4d6ce1e5",
					"Withdraw(uint256)": "5b6b431d",
					"checkBalance()": "c71daccb",
					"getAllUsers()": "e2842d79"
				}
			},
			"storageLayout": {
				"storage": [
					{
						"astId": 5,
						"contract": "Practice/BankDepositeSystem.sol:Bank_Deposite_System",
						"label": "balance",
						"offset": 0,
						"slot": "0",
						"type": "t_mapping(t_address,t_uint256)"
					},
					{
						"astId": 8,
						"contract": "Practice/BankDepositeSystem.sol:Bank_Deposite_System",
						"label": "users",
						"offset": 0,
						"slot": "1",
						"type": "t_array(t_address)dyn_storage"
					},
					{
						"astId": 12,
						"contract": "Practice/BankDepositeSystem.sol:Bank_Deposite_System",
						"label": "isUserAdded",
						"offset": 0,
						"slot": "2",
						"type": "t_mapping(t_address,t_bool)"
					}
				],
				"types": {
					"t_address": {
						"encoding": "inplace",
						"label": "address",
						"numberOfBytes": "20"
					},
					"t_array(t_address)dyn_storage": {
						"base": "t_address",
						"encoding": "dynamic_array",
						"label": "address[]",
						"numberOfBytes": "32"
					},
					"t_bool": {
						"encoding": "inplace",
						"label": "bool",
						"numberOfBytes": "1"
					},
					"t_mapping(t_address,t_bool)": {
						"encoding": "mapping",
						"key": "t_address",
						"label": "mapping(address => bool)",
						"numberOfBytes": "32",
						"value": "t_bool"
					},
					"t_mapping(t_address,t_uint256)": {
						"encoding": "mapping",
						"key": "t_address",
						"label": "mapping(address => uint256)",
						"numberOfBytes": "32",
						"value": "t_uint256"
					},
					"t_uint256": {
						"encoding": "inplace",
						"label": "uint256",
						"numberOfBytes": "32"
					}
				}
			},
			"userdoc": {
				"kind": "user",
				"methods": {},
				"version": 1
			}
		}
	}
}