{
	"Practice/CourseRegistration.sol": {
		"CourseRegistration": {
			"abi": [
				{
					"inputs": [
						{
							"internalType": "string",
							"name": "_courseName",
							"type": "string"
						},
						{
							"internalType": "string",
							"name": "_teacherName",
							"type": "string"
						},
						{
							"internalType": "uint256",
							"name": "_totalseats",
							"type": "uint256"
						}
					],
					"name": "addCourse",
					"outputs": [],
					"stateMutability": "nonpayable",
					"type": "function"
				},
				{
					"inputs": [
						{
							"internalType": "uint256",
							"name": "_courseId",
							"type": "uint256"
						},
						{
							"internalType": "uint256",
							"name": "_studentId",
							"type": "uint256"
						},
						{
							"internalType": "string",
							"name": "_Name",
							"type": "string"
						}
					],
					"name": "addStudent_Course",
					"outputs": [],
					"stateMutability": "nonpayable",
					"type": "function"
				},
				{
					"inputs": [
						{
							"internalType": "uint256",
							"name": "",
							"type": "uint256"
						}
					],
					"name": "courses",
					"outputs": [
						{
							"internalType": "uint256",
							"name": "courseId",
							"type": "uint256"
						},
						{
							"internalType": "string",
							"name": "courseName",
							"type": "string"
						},
						{
							"internalType": "string",
							"name": "teacherName",
							"type": "string"
						},
						{
							"internalType": "uint256",
							"name": "totalSeats",
							"type": "uint256"
						},
						{
							"internalType": "uint256",
							"name": "enrolledStudents",
							"type": "uint256"
						}
					],
					"stateMutability": "view",
					"type": "function"
				},
				{
					"inputs": [
						{
							"internalType": "uint256",
							"name": "_courseId",
							"type": "uint256"
						}
					],
					"name": "getCourseDetails",
					"outputs": [
						{
							"internalType": "uint256",
							"name": "Id",
							"type": "uint256"
						},
						{
							"internalType": "string",
							"name": "Name",
							"type": "string"
						},
						{
							"internalType": "string",
							"name": "Teacher_Name",
							"type": "string"
						},
						{
							"internalType": "uint256",
							"name": "Total_seats",
							"type": "uint256"
						},
						{
							"internalType": "uint256",
							"name": "Enrolled_Students",
							"type": "uint256"
						}
					],
					"stateMutability": "view",
					"type": "function"
				},
				{
					"inputs": [
						{
							"internalType": "uint256",
							"name": "_studentId",
							"type": "uint256"
						}
					],
					"name": "getStudentDetails",
					"outputs": [
						{
							"internalType": "uint256",
							"name": "Id",
							"type": "uint256"
						},
						{
							"internalType": "string",
							"name": "Name",
							"type": "string"
						},
						{
							"internalType": "uint256",
							"name": "CourseId",
							"type": "uint256"
						},
						{
							"internalType": "bool",
							"name": "Enrolled",
							"type": "bool"
						}
					],
					"stateMutability": "view",
					"type": "function"
				},
				{
					"inputs": [
						{
							"internalType": "uint256",
							"name": "",
							"type": "uint256"
						}
					],
					"name": "isStudentExist",
					"outputs": [
						{
							"internalType": "bool",
							"name": "",
							"type": "bool"
						}
					],
					"stateMutability": "view",
					"type": "function"
				},
				{
					"inputs": [
						{
							"internalType": "uint256",
							"name": "",
							"type": "uint256"
						}
					],
					"name": "students",
					"outputs": [
						{
							"internalType": "uint256",
							"name": "studentId",
							"type": "uint256"
						},
						{
							"internalType": "string",
							"name": "name",
							"type": "string"
						},
						{
							"internalType": "uint256",
							"name": "courseId",
							"type": "uint256"
						},
						{
							"internalType": "bool",
							"name": "enrolled",
							"type": "bool"
						}
					],
					"stateMutability": "view",
					"type": "function"
				}
			],
			"devdoc": {
				"kind": "dev",
				"methods": {},
				"version": 1
			},
			"evm": {
				"assembly": "    /* \"Practice/CourseRegistration.sol\":402:2424  contract CourseRegistration {... */\n  mstore(0x40, 0x80)\n  callvalue\n  dup1\n  iszero\n  tag_1\n  jumpi\n  0x00\n  dup1\n  revert\ntag_1:\n  pop\n  dataSize(sub_0)\n  dup1\n  dataOffset(sub_0)\n  0x00\n  codecopy\n  0x00\n  return\nstop\n\nsub_0: assembly {\n        /* \"Practice/CourseRegistration.sol\":402:2424  contract CourseRegistration {... */\n      mstore(0x40, 0x80)\n      callvalue\n      dup1\n      iszero\n      tag_1\n      jumpi\n      0x00\n      dup1\n      revert\n    tag_1:\n      pop\n      jumpi(tag_2, lt(calldatasize, 0x04))\n      shr(0xe0, calldataload(0x00))\n      dup1\n      0x79b5c147\n      gt\n      tag_10\n      jumpi\n      dup1\n      0x79b5c147\n      eq\n      tag_6\n      jumpi\n      dup1\n      0x86a9b364\n      eq\n      tag_7\n      jumpi\n      dup1\n      0x96f979d2\n      eq\n      tag_8\n      jumpi\n      dup1\n      0xe9da9579\n      eq\n      tag_9\n      jumpi\n      jump(tag_2)\n    tag_10:\n      dup1\n      0x06ead22e\n      eq\n      tag_3\n      jumpi\n      dup1\n      0x44a8ef19\n      eq\n      tag_4\n      jumpi\n      dup1\n      0x610b31a6\n      eq\n      tag_5\n      jumpi\n    tag_2:\n      0x00\n      dup1\n      revert\n        /* \"Practice/CourseRegistration.sol\":806:846  mapping(uint => Student) public students */\n    tag_3:\n      tag_11\n      0x04\n      dup1\n      calldatasize\n      sub\n      dup2\n      add\n      swap1\n      tag_12\n      swap2\n      swap1\n      tag_13\n      jump\t// in\n    tag_12:\n      tag_14\n      jump\t// in\n    tag_11:\n      mload(0x40)\n      tag_15\n      swap5\n      swap4\n      swap3\n      swap2\n      swap1\n      tag_16\n      jump\t// in\n    tag_15:\n      mload(0x40)\n      dup1\n      swap2\n      sub\n      swap1\n      return\n        /* \"Practice/CourseRegistration.sol\":902:1229  function addCourse(... */\n    tag_4:\n      tag_17\n      0x04\n      dup1\n      calldatasize\n      sub\n      dup2\n      add\n      swap1\n      tag_18\n      swap2\n      swap1\n      tag_19\n      jump\t// in\n    tag_18:\n      tag_20\n      jump\t// in\n    tag_17:\n      stop\n        /* \"Practice/CourseRegistration.sol\":1771:2162  function getCourseDetails(... */\n    tag_5:\n      tag_21\n      0x04\n      dup1\n      calldatasize\n      sub\n      dup2\n      add\n      swap1\n      tag_22\n      swap2\n      swap1\n      tag_13\n      jump\t// in\n    tag_22:\n      tag_23\n      jump\t// in\n    tag_21:\n      mload(0x40)\n      tag_24\n      swap6\n      swap5\n      swap4\n      swap3\n      swap2\n      swap1\n      tag_25\n      jump\t// in\n    tag_24:\n      mload(0x40)\n      dup1\n      swap2\n      sub\n      swap1\n      return\n        /* \"Practice/CourseRegistration.sol\":1235:1765  function addStudent_Course(... */\n    tag_6:\n      tag_26\n      0x04\n      dup1\n      calldatasize\n      sub\n      dup2\n      add\n      swap1\n      tag_27\n      swap2\n      swap1\n      tag_28\n      jump\t// in\n    tag_27:\n      tag_29\n      jump\t// in\n    tag_26:\n      stop\n        /* \"Practice/CourseRegistration.sol\":2168:2422  function getStudentDetails(... */\n    tag_7:\n      tag_30\n      0x04\n      dup1\n      calldatasize\n      sub\n      dup2\n      add\n      swap1\n      tag_31\n      swap2\n      swap1\n      tag_13\n      jump\t// in\n    tag_31:\n      tag_32\n      jump\t// in\n    tag_30:\n      mload(0x40)\n      tag_33\n      swap5\n      swap4\n      swap3\n      swap2\n      swap1\n      tag_16\n      jump\t// in\n    tag_33:\n      mload(0x40)\n      dup1\n      swap2\n      sub\n      swap1\n      return\n        /* \"Practice/CourseRegistration.sol\":762:800  mapping(uint => Course) public courses */\n    tag_8:\n      tag_34\n      0x04\n      dup1\n      calldatasize\n      sub\n      dup2\n      add\n      swap1\n      tag_35\n      swap2\n      swap1\n      tag_13\n      jump\t// in\n    tag_35:\n      tag_36\n      jump\t// in\n    tag_34:\n      mload(0x40)\n      tag_37\n      swap6\n      swap5\n      swap4\n      swap3\n      swap2\n      swap1\n      tag_25\n      jump\t// in\n    tag_37:\n      mload(0x40)\n      dup1\n      swap2\n      sub\n      swap1\n      return\n        /* \"Practice/CourseRegistration.sol\":852:895  mapping(uint => bool) public isStudentExist */\n    tag_9:\n      tag_38\n      0x04\n      dup1\n      calldatasize\n      sub\n      dup2\n      add\n      swap1\n      tag_39\n      swap2\n      swap1\n      tag_13\n      jump\t// in\n    tag_39:\n      tag_40\n      jump\t// in\n    tag_38:\n      mload(0x40)\n      tag_41\n      swap2\n      swap1\n      tag_42\n      jump\t// in\n    tag_41:\n      mload(0x40)\n      dup1\n      swap2\n      sub\n      swap1\n      return\n        /* \"Practice/CourseRegistration.sol\":806:846  mapping(uint => Student) public students */\n    tag_14:\n      mstore(0x20, 0x03)\n      dup1\n      0x00\n      mstore\n      keccak256(0x00, 0x40)\n      0x00\n      swap2\n      pop\n      swap1\n      pop\n      dup1\n      0x00\n      add\n      sload\n      swap1\n      dup1\n      0x01\n      add\n      dup1\n      sload\n      tag_43\n      swap1\n      tag_44\n      jump\t// in\n    tag_43:\n      dup1\n      0x1f\n      add\n      0x20\n      dup1\n      swap2\n      div\n      mul\n      0x20\n      add\n      mload(0x40)\n      swap1\n      dup2\n      add\n      0x40\n      mstore\n      dup1\n      swap3\n      swap2\n      swap1\n      dup2\n      dup2\n      mstore\n      0x20\n      add\n      dup3\n      dup1\n      sload\n      tag_45\n      swap1\n      tag_44\n      jump\t// in\n    tag_45:\n      dup1\n      iszero\n      tag_46\n      jumpi\n      dup1\n      0x1f\n      lt\n      tag_47\n      jumpi\n      0x0100\n      dup1\n      dup4\n      sload\n      div\n      mul\n      dup4\n      mstore\n      swap2\n      0x20\n      add\n      swap2\n      jump(tag_46)\n    tag_47:\n      dup3\n      add\n      swap2\n      swap1\n      0x00\n      mstore\n      keccak256(0x00, 0x20)\n      swap1\n    tag_48:\n      dup2\n      sload\n      dup2\n      mstore\n      swap1\n      0x01\n      add\n      swap1\n      0x20\n      add\n      dup1\n      dup4\n      gt\n      tag_48\n      jumpi\n      dup3\n      swap1\n      sub\n      0x1f\n      and\n      dup3\n      add\n      swap2\n    tag_46:\n      pop\n      pop\n      pop\n      pop\n      pop\n      swap1\n      dup1\n      0x02\n      add\n      sload\n      swap1\n      dup1\n      0x03\n      add\n      0x00\n      swap1\n      sload\n      swap1\n      0x0100\n      exp\n      swap1\n      div\n      0xff\n      and\n      swap1\n      pop\n      dup5\n      jump\t// out\n        /* \"Practice/CourseRegistration.sol\":902:1229  function addCourse(... */\n    tag_20:\n        /* \"Practice/CourseRegistration.sol\":1041:1053  totalCourses */\n      0x00\n      dup1\n        /* \"Practice/CourseRegistration.sol\":1041:1055  totalCourses++ */\n      dup2\n      sload\n      dup1\n      swap3\n      swap2\n      swap1\n      tag_50\n      swap1\n      tag_51\n      jump\t// in\n    tag_50:\n      swap2\n      swap1\n      pop\n      sstore\n      pop\n        /* \"Practice/CourseRegistration.sol\":1089:1222  Course(... */\n      mload(0x40)\n      dup1\n      0xa0\n      add\n      0x40\n      mstore\n      dup1\n        /* \"Practice/CourseRegistration.sol\":1109:1121  totalCourses */\n      sload(0x00)\n        /* \"Practice/CourseRegistration.sol\":1089:1222  Course(... */\n      dup2\n      mstore\n      0x20\n      add\n        /* \"Practice/CourseRegistration.sol\":1135:1146  _courseName */\n      dup5\n        /* \"Practice/CourseRegistration.sol\":1089:1222  Course(... */\n      dup2\n      mstore\n      0x20\n      add\n        /* \"Practice/CourseRegistration.sol\":1160:1172  _teacherName */\n      dup4\n        /* \"Practice/CourseRegistration.sol\":1089:1222  Course(... */\n      dup2\n      mstore\n      0x20\n      add\n        /* \"Practice/CourseRegistration.sol\":1186:1197  _totalseats */\n      dup3\n        /* \"Practice/CourseRegistration.sol\":1089:1222  Course(... */\n      dup2\n      mstore\n      0x20\n      add\n        /* \"Practice/CourseRegistration.sol\":1211:1212  0 */\n      0x00\n        /* \"Practice/CourseRegistration.sol\":1089:1222  Course(... */\n      dup2\n      mstore\n      pop\n        /* \"Practice/CourseRegistration.sol\":1065:1072  courses */\n      0x02\n        /* \"Practice/CourseRegistration.sol\":1065:1086  courses[totalCourses] */\n      0x00\n        /* \"Practice/CourseRegistration.sol\":1073:1085  totalCourses */\n      dup1\n      sload\n        /* \"Practice/CourseRegistration.sol\":1065:1086  courses[totalCourses] */\n      dup2\n      mstore\n      0x20\n      add\n      swap1\n      dup2\n      mstore\n      0x20\n      add\n      0x00\n      keccak256\n        /* \"Practice/CourseRegistration.sol\":1065:1222  courses[totalCourses] = Course(... */\n      0x00\n      dup3\n      add\n      mload\n      dup2\n      0x00\n      add\n      sstore\n      0x20\n      dup3\n      add\n      mload\n      dup2\n      0x01\n      add\n      swap1\n      dup1\n      mload\n      swap1\n      0x20\n      add\n      swap1\n      tag_52\n      swap3\n      swap2\n      swap1\n      tag_53\n      jump\t// in\n    tag_52:\n      pop\n      0x40\n      dup3\n      add\n      mload\n      dup2\n      0x02\n      add\n      swap1\n      dup1\n      mload\n      swap1\n      0x20\n      add\n      swap1\n      tag_54\n      swap3\n      swap2\n      swap1\n      tag_53\n      jump\t// in\n    tag_54:\n      pop\n      0x60\n      dup3\n      add\n      mload\n      dup2\n      0x03\n      add\n      sstore\n      0x80\n      dup3\n      add\n      mload\n      dup2\n      0x04\n      add\n      sstore\n      swap1\n      pop\n      pop\n        /* \"Practice/CourseRegistration.sol\":902:1229  function addCourse(... */\n      pop\n      pop\n      pop\n      jump\t// out\n        /* \"Practice/CourseRegistration.sol\":1771:2162  function getCourseDetails(... */\n    tag_23:\n        /* \"Practice/CourseRegistration.sol\":1848:1855  uint Id */\n      0x00\n        /* \"Practice/CourseRegistration.sol\":1857:1875  string memory Name */\n      0x60\n        /* \"Practice/CourseRegistration.sol\":1877:1903  string memory Teacher_Name */\n      dup1\n        /* \"Practice/CourseRegistration.sol\":1905:1921  uint Total_seats */\n      0x00\n        /* \"Practice/CourseRegistration.sol\":1923:1945  uint Enrolled_Students */\n      dup1\n        /* \"Practice/CourseRegistration.sol\":1957:1972  Course memory c */\n      0x00\n        /* \"Practice/CourseRegistration.sol\":1975:1982  courses */\n      0x02\n        /* \"Practice/CourseRegistration.sol\":1975:1993  courses[_courseId] */\n      0x00\n        /* \"Practice/CourseRegistration.sol\":1983:1992  _courseId */\n      dup9\n        /* \"Practice/CourseRegistration.sol\":1975:1993  courses[_courseId] */\n      dup2\n      mstore\n      0x20\n      add\n      swap1\n      dup2\n      mstore\n      0x20\n      add\n      0x00\n      keccak256\n        /* \"Practice/CourseRegistration.sol\":1957:1993  Course memory c = courses[_courseId] */\n      mload(0x40)\n      dup1\n      0xa0\n      add\n      0x40\n      mstore\n      swap1\n      dup2\n      0x00\n      dup3\n      add\n      sload\n      dup2\n      mstore\n      0x20\n      add\n      0x01\n      dup3\n      add\n      dup1\n      sload\n      tag_56\n      swap1\n      tag_44\n      jump\t// in\n    tag_56:\n      dup1\n      0x1f\n      add\n      0x20\n      dup1\n      swap2\n      div\n      mul\n      0x20\n      add\n      mload(0x40)\n      swap1\n      dup2\n      add\n      0x40\n      mstore\n      dup1\n      swap3\n      swap2\n      swap1\n      dup2\n      dup2\n      mstore\n      0x20\n      add\n      dup3\n      dup1\n      sload\n      tag_57\n      swap1\n      tag_44\n      jump\t// in\n    tag_57:\n      dup1\n      iszero\n      tag_58\n      jumpi\n      dup1\n      0x1f\n      lt\n      tag_59\n      jumpi\n      0x0100\n      dup1\n      dup4\n      sload\n      div\n      mul\n      dup4\n      mstore\n      swap2\n      0x20\n      add\n      swap2\n      jump(tag_58)\n    tag_59:\n      dup3\n      add\n      swap2\n      swap1\n      0x00\n      mstore\n      keccak256(0x00, 0x20)\n      swap1\n    tag_60:\n      dup2\n      sload\n      dup2\n      mstore\n      swap1\n      0x01\n      add\n      swap1\n      0x20\n      add\n      dup1\n      dup4\n      gt\n      tag_60\n      jumpi\n      dup3\n      swap1\n      sub\n      0x1f\n      and\n      dup3\n      add\n      swap2\n    tag_58:\n      pop\n      pop\n      pop\n      pop\n      pop\n      dup2\n      mstore\n      0x20\n      add\n      0x02\n      dup3\n      add\n      dup1\n      sload\n      tag_61\n      swap1\n      tag_44\n      jump\t// in\n    tag_61:\n      dup1\n      0x1f\n      add\n      0x20\n      dup1\n      swap2\n      div\n      mul\n      0x20\n      add\n      mload(0x40)\n      swap1\n      dup2\n      add\n      0x40\n      mstore\n      dup1\n      swap3\n      swap2\n      swap1\n      dup2\n      dup2\n      mstore\n      0x20\n      add\n      dup3\n      dup1\n      sload\n      tag_62\n      swap1\n      tag_44\n      jump\t// in\n    tag_62:\n      dup1\n      iszero\n      tag_63\n      jumpi\n      dup1\n      0x1f\n      lt\n      tag_64\n      jumpi\n      0x0100\n      dup1\n      dup4\n      sload\n      div\n      mul\n      dup4\n      mstore\n      swap2\n      0x20\n      add\n      swap2\n      jump(tag_63)\n    tag_64:\n      dup3\n      add\n      swap2\n      swap1\n      0x00\n      mstore\n      keccak256(0x00, 0x20)\n      swap1\n    tag_65:\n      dup2\n      sload\n      dup2\n      mstore\n      swap1\n      0x01\n      add\n      swap1\n      0x20\n      add\n      dup1\n      dup4\n      gt\n      tag_65\n      jumpi\n      dup3\n      swap1\n      sub\n      0x1f\n      and\n      dup3\n      add\n      swap2\n    tag_63:\n      pop\n      pop\n      pop\n      pop\n      pop\n      dup2\n      mstore\n      0x20\n      add\n      0x03\n      dup3\n      add\n      sload\n      dup2\n      mstore\n      0x20\n      add\n      0x04\n      dup3\n      add\n      sload\n      dup2\n      mstore\n      pop\n      pop\n      swap1\n      pop\n        /* \"Practice/CourseRegistration.sol\":2024:2025  c */\n      dup1\n        /* \"Practice/CourseRegistration.sol\":2024:2034  c.courseId */\n      0x00\n      add\n      mload\n        /* \"Practice/CourseRegistration.sol\":2048:2049  c */\n      dup2\n        /* \"Practice/CourseRegistration.sol\":2048:2060  c.courseName */\n      0x20\n      add\n      mload\n        /* \"Practice/CourseRegistration.sol\":2074:2075  c */\n      dup3\n        /* \"Practice/CourseRegistration.sol\":2074:2087  c.teacherName */\n      0x40\n      add\n      mload\n        /* \"Practice/CourseRegistration.sol\":2101:2102  c */\n      dup4\n        /* \"Practice/CourseRegistration.sol\":2101:2113  c.totalSeats */\n      0x60\n      add\n      mload\n        /* \"Practice/CourseRegistration.sol\":2127:2128  c */\n      dup5\n        /* \"Practice/CourseRegistration.sol\":2127:2145  c.enrolledStudents */\n      0x80\n      add\n      mload\n        /* \"Practice/CourseRegistration.sol\":2003:2155  return (... */\n      swap6\n      pop\n      swap6\n      pop\n      swap6\n      pop\n      swap6\n      pop\n      swap6\n      pop\n      pop\n        /* \"Practice/CourseRegistration.sol\":1771:2162  function getCourseDetails(... */\n      swap2\n      swap4\n      swap6\n      swap1\n      swap3\n      swap5\n      pop\n      jump\t// out\n        /* \"Practice/CourseRegistration.sol\":1235:1765  function addStudent_Course(... */\n    tag_29:\n        /* \"Practice/CourseRegistration.sol\":1416:1423  courses */\n      0x02\n        /* \"Practice/CourseRegistration.sol\":1416:1434  courses[_courseId] */\n      0x00\n        /* \"Practice/CourseRegistration.sol\":1424:1433  _courseId */\n      dup5\n        /* \"Practice/CourseRegistration.sol\":1416:1434  courses[_courseId] */\n      dup2\n      mstore\n      0x20\n      add\n      swap1\n      dup2\n      mstore\n      0x20\n      add\n      0x00\n      keccak256\n        /* \"Practice/CourseRegistration.sol\":1416:1451  courses[_courseId].enrolledStudents */\n      0x04\n      add\n      sload\n        /* \"Practice/CourseRegistration.sol\":1384:1391  courses */\n      0x02\n        /* \"Practice/CourseRegistration.sol\":1384:1402  courses[_courseId] */\n      0x00\n        /* \"Practice/CourseRegistration.sol\":1392:1401  _courseId */\n      dup6\n        /* \"Practice/CourseRegistration.sol\":1384:1402  courses[_courseId] */\n      dup2\n      mstore\n      0x20\n      add\n      swap1\n      dup2\n      mstore\n      0x20\n      add\n      0x00\n      keccak256\n        /* \"Practice/CourseRegistration.sol\":1384:1413  courses[_courseId].totalSeats */\n      0x03\n      add\n      sload\n        /* \"Practice/CourseRegistration.sol\":1384:1451  courses[_courseId].totalSeats > courses[_courseId].enrolledStudents */\n      gt\n        /* \"Practice/CourseRegistration.sol\":1363:1494  require(... */\n      tag_67\n      jumpi\n      mload(0x40)\n      0x08c379a000000000000000000000000000000000000000000000000000000000\n      dup2\n      mstore\n      0x04\n      add\n      tag_68\n      swap1\n      tag_69\n      jump\t// in\n    tag_68:\n      mload(0x40)\n      dup1\n      swap2\n      sub\n      swap1\n      revert\n    tag_67:\n        /* \"Practice/CourseRegistration.sol\":1542:1547  false */\n      0x00\n        /* \"Practice/CourseRegistration.sol\":1512:1547  isStudentExist[_studentId] == false */\n      iszero\n      iszero\n        /* \"Practice/CourseRegistration.sol\":1512:1526  isStudentExist */\n      0x04\n        /* \"Practice/CourseRegistration.sol\":1512:1538  isStudentExist[_studentId] */\n      0x00\n        /* \"Practice/CourseRegistration.sol\":1527:1537  _studentId */\n      dup5\n        /* \"Practice/CourseRegistration.sol\":1512:1538  isStudentExist[_studentId] */\n      dup2\n      mstore\n      0x20\n      add\n      swap1\n      dup2\n      mstore\n      0x20\n      add\n      0x00\n      keccak256\n      0x00\n      swap1\n      sload\n      swap1\n      0x0100\n      exp\n      swap1\n      div\n      0xff\n      and\n        /* \"Practice/CourseRegistration.sol\":1512:1547  isStudentExist[_studentId] == false */\n      iszero\n      iszero\n      eq\n        /* \"Practice/CourseRegistration.sol\":1504:1567  require(isStudentExist[_studentId] == false, \"Already Existed\") */\n      tag_70\n      jumpi\n      mload(0x40)\n      0x08c379a000000000000000000000000000000000000000000000000000000000\n      dup2\n      mstore\n      0x04\n      add\n      tag_71\n      swap1\n      tag_72\n      jump\t// in\n    tag_71:\n      mload(0x40)\n      dup1\n      swap2\n      sub\n      swap1\n      revert\n    tag_70:\n        /* \"Practice/CourseRegistration.sol\":1577:1590  totalStudents */\n      0x01\n      0x00\n        /* \"Practice/CourseRegistration.sol\":1577:1592  totalStudents++ */\n      dup2\n      sload\n      dup1\n      swap3\n      swap2\n      swap1\n      tag_73\n      swap1\n      tag_51\n      jump\t// in\n    tag_73:\n      swap2\n      swap1\n      pop\n      sstore\n      pop\n        /* \"Practice/CourseRegistration.sol\":1625:1668  Student(_studentId, _Name, _courseId, true) */\n      mload(0x40)\n      dup1\n      0x80\n      add\n      0x40\n      mstore\n      dup1\n        /* \"Practice/CourseRegistration.sol\":1633:1643  _studentId */\n      dup4\n        /* \"Practice/CourseRegistration.sol\":1625:1668  Student(_studentId, _Name, _courseId, true) */\n      dup2\n      mstore\n      0x20\n      add\n        /* \"Practice/CourseRegistration.sol\":1645:1650  _Name */\n      dup3\n        /* \"Practice/CourseRegistration.sol\":1625:1668  Student(_studentId, _Name, _courseId, true) */\n      dup2\n      mstore\n      0x20\n      add\n        /* \"Practice/CourseRegistration.sol\":1652:1661  _courseId */\n      dup5\n        /* \"Practice/CourseRegistration.sol\":1625:1668  Student(_studentId, _Name, _courseId, true) */\n      dup2\n      mstore\n      0x20\n      add\n        /* \"Practice/CourseRegistration.sol\":1663:1667  true */\n      0x01\n        /* \"Practice/CourseRegistration.sol\":1625:1668  Student(_studentId, _Name, _courseId, true) */\n      iszero\n      iszero\n      dup2\n      mstore\n      pop\n        /* \"Practice/CourseRegistration.sol\":1602:1610  students */\n      0x03\n        /* \"Practice/CourseRegistration.sol\":1602:1622  students[_studentId] */\n      0x00\n        /* \"Practice/CourseRegistration.sol\":1611:1621  _studentId */\n      dup5\n        /* \"Practice/CourseRegistration.sol\":1602:1622  students[_studentId] */\n      dup2\n      mstore\n      0x20\n      add\n      swap1\n      dup2\n      mstore\n      0x20\n      add\n      0x00\n      keccak256\n        /* \"Practice/CourseRegistration.sol\":1602:1668  students[_studentId] = Student(_studentId, _Name, _courseId, true) */\n      0x00\n      dup3\n      add\n      mload\n      dup2\n      0x00\n      add\n      sstore\n      0x20\n      dup3\n      add\n      mload\n      dup2\n      0x01\n      add\n      swap1\n      dup1\n      mload\n      swap1\n      0x20\n      add\n      swap1\n      tag_74\n      swap3\n      swap2\n      swap1\n      tag_53\n      jump\t// in\n    tag_74:\n      pop\n      0x40\n      dup3\n      add\n      mload\n      dup2\n      0x02\n      add\n      sstore\n      0x60\n      dup3\n      add\n      mload\n      dup2\n      0x03\n      add\n      exp(0x0100, 0x00)\n      dup2\n      sload\n      dup2\n      0xff\n      mul\n      not\n      and\n      swap1\n      dup4\n      iszero\n      iszero\n      mul\n      or\n      swap1\n      sstore\n      pop\n      swap1\n      pop\n      pop\n        /* \"Practice/CourseRegistration.sol\":1678:1685  courses */\n      0x02\n        /* \"Practice/CourseRegistration.sol\":1678:1696  courses[_courseId] */\n      0x00\n        /* \"Practice/CourseRegistration.sol\":1686:1695  _courseId */\n      dup5\n        /* \"Practice/CourseRegistration.sol\":1678:1696  courses[_courseId] */\n      dup2\n      mstore\n      0x20\n      add\n      swap1\n      dup2\n      mstore\n      0x20\n      add\n      0x00\n      keccak256\n        /* \"Practice/CourseRegistration.sol\":1678:1713  courses[_courseId].enrolledStudents */\n      0x04\n      add\n      0x00\n        /* \"Practice/CourseRegistration.sol\":1678:1715  courses[_courseId].enrolledStudents++ */\n      dup2\n      sload\n      dup1\n      swap3\n      swap2\n      swap1\n      tag_75\n      swap1\n      tag_51\n      jump\t// in\n    tag_75:\n      swap2\n      swap1\n      pop\n      sstore\n      pop\n        /* \"Practice/CourseRegistration.sol\":1754:1758  true */\n      0x01\n        /* \"Practice/CourseRegistration.sol\":1725:1739  isStudentExist */\n      0x04\n        /* \"Practice/CourseRegistration.sol\":1725:1751  isStudentExist[_studentId] */\n      0x00\n        /* \"Practice/CourseRegistration.sol\":1740:1750  _studentId */\n      dup5\n        /* \"Practice/CourseRegistration.sol\":1725:1751  isStudentExist[_studentId] */\n      dup2\n      mstore\n      0x20\n      add\n      swap1\n      dup2\n      mstore\n      0x20\n      add\n      0x00\n      keccak256\n      0x00\n        /* \"Practice/CourseRegistration.sol\":1725:1758  isStudentExist[_studentId] = true */\n      0x0100\n      exp\n      dup2\n      sload\n      dup2\n      0xff\n      mul\n      not\n      and\n      swap1\n      dup4\n      iszero\n      iszero\n      mul\n      or\n      swap1\n      sstore\n      pop\n        /* \"Practice/CourseRegistration.sol\":1235:1765  function addStudent_Course(... */\n      pop\n      pop\n      pop\n      jump\t// out\n        /* \"Practice/CourseRegistration.sol\":2168:2422  function getStudentDetails(... */\n    tag_32:\n        /* \"Practice/CourseRegistration.sol\":2247:2254  uint Id */\n      0x00\n        /* \"Practice/CourseRegistration.sol\":2256:2274  string memory Name */\n      0x60\n        /* \"Practice/CourseRegistration.sol\":2275:2288  uint CourseId */\n      0x00\n        /* \"Practice/CourseRegistration.sol\":2290:2303  bool Enrolled */\n      dup1\n        /* \"Practice/CourseRegistration.sol\":2315:2331  Student memory s */\n      0x00\n        /* \"Practice/CourseRegistration.sol\":2334:2342  students */\n      0x03\n        /* \"Practice/CourseRegistration.sol\":2334:2354  students[_studentId] */\n      0x00\n        /* \"Practice/CourseRegistration.sol\":2343:2353  _studentId */\n      dup8\n        /* \"Practice/CourseRegistration.sol\":2334:2354  students[_studentId] */\n      dup2\n      mstore\n      0x20\n      add\n      swap1\n      dup2\n      mstore\n      0x20\n      add\n      0x00\n      keccak256\n        /* \"Practice/CourseRegistration.sol\":2315:2354  Student memory s = students[_studentId] */\n      mload(0x40)\n      dup1\n      0x80\n      add\n      0x40\n      mstore\n      swap1\n      dup2\n      0x00\n      dup3\n      add\n      sload\n      dup2\n      mstore\n      0x20\n      add\n      0x01\n      dup3\n      add\n      dup1\n      sload\n      tag_77\n      swap1\n      tag_44\n      jump\t// in\n    tag_77:\n      dup1\n      0x1f\n      add\n      0x20\n      dup1\n      swap2\n      div\n      mul\n      0x20\n      add\n      mload(0x40)\n      swap1\n      dup2\n      add\n      0x40\n      mstore\n      dup1\n      swap3\n      swap2\n      swap1\n      dup2\n      dup2\n      mstore\n      0x20\n      add\n      dup3\n      dup1\n      sload\n      tag_78\n      swap1\n      tag_44\n      jump\t// in\n    tag_78:\n      dup1\n      iszero\n      tag_79\n      jumpi\n      dup1\n      0x1f\n      lt\n      tag_80\n      jumpi\n      0x0100\n      dup1\n      dup4\n      sload\n      div\n      mul\n      dup4\n      mstore\n      swap2\n      0x20\n      add\n      swap2\n      jump(tag_79)\n    tag_80:\n      dup3\n      add\n      swap2\n      swap1\n      0x00\n      mstore\n      keccak256(0x00, 0x20)\n      swap1\n    tag_81:\n      dup2\n      sload\n      dup2\n      mstore\n      swap1\n      0x01\n      add\n      swap1\n      0x20\n      add\n      dup1\n      dup4\n      gt\n      tag_81\n      jumpi\n      dup3\n      swap1\n      sub\n      0x1f\n      and\n      dup3\n      add\n      swap2\n    tag_79:\n      pop\n      pop\n      pop\n      pop\n      pop\n      dup2\n      mstore\n      0x20\n      add\n      0x02\n      dup3\n      add\n      sload\n      dup2\n      mstore\n      0x20\n      add\n      0x03\n      dup3\n      add\n      0x00\n      swap1\n      sload\n      swap1\n      0x0100\n      exp\n      swap1\n      div\n      0xff\n      and\n      iszero\n      iszero\n      iszero\n      iszero\n      dup2\n      mstore\n      pop\n      pop\n      swap1\n      pop\n        /* \"Practice/CourseRegistration.sol\":2372:2373  s */\n      dup1\n        /* \"Practice/CourseRegistration.sol\":2372:2383  s.studentId */\n      0x00\n      add\n      mload\n        /* \"Practice/CourseRegistration.sol\":2385:2386  s */\n      dup2\n        /* \"Practice/CourseRegistration.sol\":2385:2391  s.name */\n      0x20\n      add\n      mload\n        /* \"Practice/CourseRegistration.sol\":2392:2393  s */\n      dup3\n        /* \"Practice/CourseRegistration.sol\":2392:2402  s.courseId */\n      0x40\n      add\n      mload\n        /* \"Practice/CourseRegistration.sol\":2404:2405  s */\n      dup4\n        /* \"Practice/CourseRegistration.sol\":2404:2414  s.enrolled */\n      0x60\n      add\n      mload\n        /* \"Practice/CourseRegistration.sol\":2364:2415  return (s.studentId, s.name,s.courseId, s.enrolled) */\n      swap5\n      pop\n      swap5\n      pop\n      swap5\n      pop\n      swap5\n      pop\n      pop\n        /* \"Practice/CourseRegistration.sol\":2168:2422  function getStudentDetails(... */\n      swap2\n      swap4\n      pop\n      swap2\n      swap4\n      jump\t// out\n        /* \"Practice/CourseRegistration.sol\":762:800  mapping(uint => Course) public courses */\n    tag_36:\n      mstore(0x20, 0x02)\n      dup1\n      0x00\n      mstore\n      keccak256(0x00, 0x40)\n      0x00\n      swap2\n      pop\n      swap1\n      pop\n      dup1\n      0x00\n      add\n      sload\n      swap1\n      dup1\n      0x01\n      add\n      dup1\n      sload\n      tag_82\n      swap1\n      tag_44\n      jump\t// in\n    tag_82:\n      dup1\n      0x1f\n      add\n      0x20\n      dup1\n      swap2\n      div\n      mul\n      0x20\n      add\n      mload(0x40)\n      swap1\n      dup2\n      add\n      0x40\n      mstore\n      dup1\n      swap3\n      swap2\n      swap1\n      dup2\n      dup2\n      mstore\n      0x20\n      add\n      dup3\n      dup1\n      sload\n      tag_83\n      swap1\n      tag_44\n      jump\t// in\n    tag_83:\n      dup1\n      iszero\n      tag_84\n      jumpi\n      dup1\n      0x1f\n      lt\n      tag_85\n      jumpi\n      0x0100\n      dup1\n      dup4\n      sload\n      div\n      mul\n      dup4\n      mstore\n      swap2\n      0x20\n      add\n      swap2\n      jump(tag_84)\n    tag_85:\n      dup3\n      add\n      swap2\n      swap1\n      0x00\n      mstore\n      keccak256(0x00, 0x20)\n      swap1\n    tag_86:\n      dup2\n      sload\n      dup2\n      mstore\n      swap1\n      0x01\n      add\n      swap1\n      0x20\n      add\n      dup1\n      dup4\n      gt\n      tag_86\n      jumpi\n      dup3\n      swap1\n      sub\n      0x1f\n      and\n      dup3\n      add\n      swap2\n    tag_84:\n      pop\n      pop\n      pop\n      pop\n      pop\n      swap1\n      dup1\n      0x02\n      add\n      dup1\n      sload\n      tag_87\n      swap1\n      tag_44\n      jump\t// in\n    tag_87:\n      dup1\n      0x1f\n      add\n      0x20\n      dup1\n      swap2\n      div\n      mul\n      0x20\n      add\n      mload(0x40)\n      swap1\n      dup2\n      add\n      0x40\n      mstore\n      dup1\n      swap3\n      swap2\n      swap1\n      dup2\n      dup2\n      mstore\n      0x20\n      add\n      dup3\n      dup1\n      sload\n      tag_88\n      swap1\n      tag_44\n      jump\t// in\n    tag_88:\n      dup1\n      iszero\n      tag_89\n      jumpi\n      dup1\n      0x1f\n      lt\n      tag_90\n      jumpi\n      0x0100\n      dup1\n      dup4\n      sload\n      div\n      mul\n      dup4\n      mstore\n      swap2\n      0x20\n      add\n      swap2\n      jump(tag_89)\n    tag_90:\n      dup3\n      add\n      swap2\n      swap1\n      0x00\n      mstore\n      keccak256(0x00, 0x20)\n      swap1\n    tag_91:\n      dup2\n      sload\n      dup2\n      mstore\n      swap1\n      0x01\n      add\n      swap1\n      0x20\n      add\n      dup1\n      dup4\n      gt\n      tag_91\n      jumpi\n      dup3\n      swap1\n      sub\n      0x1f\n      and\n      dup3\n      add\n      swap2\n    tag_89:\n      pop\n      pop\n      pop\n      pop\n      pop\n      swap1\n      dup1\n      0x03\n      add\n      sload\n      swap1\n      dup1\n      0x04\n      add\n      sload\n      swap1\n      pop\n      dup6\n      jump\t// out\n        /* \"Practice/CourseRegistration.sol\":852:895  mapping(uint => bool) public isStudentExist */\n    tag_40:\n      mstore(0x20, 0x04)\n      dup1\n      0x00\n      mstore\n      keccak256(0x00, 0x40)\n      0x00\n      swap2\n      pop\n      sload\n      swap1\n      0x0100\n      exp\n      swap1\n      div\n      0xff\n      and\n      dup2\n      jump\t// out\n    tag_53:\n      dup3\n      dup1\n      sload\n      tag_92\n      swap1\n      tag_44\n      jump\t// in\n    tag_92:\n      swap1\n      0x00\n      mstore\n      keccak256(0x00, 0x20)\n      swap1\n      0x1f\n      add\n      0x20\n      swap1\n      div\n      dup2\n      add\n      swap3\n      dup3\n      tag_94\n      jumpi\n      0x00\n      dup6\n      sstore\n      jump(tag_93)\n    tag_94:\n      dup3\n      0x1f\n      lt\n      tag_95\n      jumpi\n      dup1\n      mload\n      not(0xff)\n      and\n      dup4\n      dup1\n      add\n      or\n      dup6\n      sstore\n      jump(tag_93)\n    tag_95:\n      dup3\n      dup1\n      add\n      0x01\n      add\n      dup6\n      sstore\n      dup3\n      iszero\n      tag_93\n      jumpi\n      swap2\n      dup3\n      add\n    tag_96:\n      dup3\n      dup2\n      gt\n      iszero\n      tag_97\n      jumpi\n      dup3\n      mload\n      dup3\n      sstore\n      swap2\n      0x20\n      add\n      swap2\n      swap1\n      0x01\n      add\n      swap1\n      jump(tag_96)\n    tag_97:\n    tag_93:\n      pop\n      swap1\n      pop\n      tag_98\n      swap2\n      swap1\n      tag_99\n      jump\t// in\n    tag_98:\n      pop\n      swap1\n      jump\t// out\n    tag_99:\n    tag_100:\n      dup1\n      dup3\n      gt\n      iszero\n      tag_101\n      jumpi\n      0x00\n      dup2\n      0x00\n      swap1\n      sstore\n      pop\n      0x01\n      add\n      jump(tag_100)\n    tag_101:\n      pop\n      swap1\n      jump\t// out\n        /* \"#utility.yul\":7:351   */\n    tag_103:\n      0x00\n        /* \"#utility.yul\":110:175   */\n      tag_105\n        /* \"#utility.yul\":125:174   */\n      tag_106\n        /* \"#utility.yul\":167:173   */\n      dup5\n        /* \"#utility.yul\":125:174   */\n      tag_107\n      jump\t// in\n    tag_106:\n        /* \"#utility.yul\":110:175   */\n      tag_108\n      jump\t// in\n    tag_105:\n        /* \"#utility.yul\":101:175   */\n      swap1\n      pop\n        /* \"#utility.yul\":198:204   */\n      dup3\n        /* \"#utility.yul\":191:196   */\n      dup2\n        /* \"#utility.yul\":184:205   */\n      mstore\n        /* \"#utility.yul\":236:240   */\n      0x20\n        /* \"#utility.yul\":229:234   */\n      dup2\n        /* \"#utility.yul\":225:241   */\n      add\n        /* \"#utility.yul\":274:277   */\n      dup5\n        /* \"#utility.yul\":265:271   */\n      dup5\n        /* \"#utility.yul\":260:263   */\n      dup5\n        /* \"#utility.yul\":256:272   */\n      add\n        /* \"#utility.yul\":253:278   */\n      gt\n        /* \"#utility.yul\":250:252   */\n      iszero\n      tag_109\n      jumpi\n        /* \"#utility.yul\":291:292   */\n      0x00\n        /* \"#utility.yul\":288:289   */\n      dup1\n        /* \"#utility.yul\":281:293   */\n      revert\n        /* \"#utility.yul\":250:252   */\n    tag_109:\n        /* \"#utility.yul\":304:345   */\n      tag_110\n        /* \"#utility.yul\":338:344   */\n      dup5\n        /* \"#utility.yul\":333:336   */\n      dup3\n        /* \"#utility.yul\":328:331   */\n      dup6\n        /* \"#utility.yul\":304:345   */\n      tag_111\n      jump\t// in\n    tag_110:\n        /* \"#utility.yul\":91:351   */\n      pop\n      swap4\n      swap3\n      pop\n      pop\n      pop\n      jump\t// out\n        /* \"#utility.yul\":371:644   */\n    tag_112:\n      0x00\n        /* \"#utility.yul\":476:479   */\n      dup3\n        /* \"#utility.yul\":469:473   */\n      0x1f\n        /* \"#utility.yul\":461:467   */\n      dup4\n        /* \"#utility.yul\":457:474   */\n      add\n        /* \"#utility.yul\":453:480   */\n      slt\n        /* \"#utility.yul\":443:445   */\n      tag_114\n      jumpi\n        /* \"#utility.yul\":494:495   */\n      0x00\n        /* \"#utility.yul\":491:492   */\n      dup1\n        /* \"#utility.yul\":484:496   */\n      revert\n        /* \"#utility.yul\":443:445   */\n    tag_114:\n        /* \"#utility.yul\":534:540   */\n      dup2\n        /* \"#utility.yul\":521:541   */\n      calldataload\n        /* \"#utility.yul\":559:638   */\n      tag_115\n        /* \"#utility.yul\":634:637   */\n      dup5\n        /* \"#utility.yul\":626:632   */\n      dup3\n        /* \"#utility.yul\":619:623   */\n      0x20\n        /* \"#utility.yul\":611:617   */\n      dup7\n        /* \"#utility.yul\":607:624   */\n      add\n        /* \"#utility.yul\":559:638   */\n      tag_103\n      jump\t// in\n    tag_115:\n        /* \"#utility.yul\":550:638   */\n      swap2\n      pop\n        /* \"#utility.yul\":433:644   */\n      pop\n      swap3\n      swap2\n      pop\n      pop\n      jump\t// out\n        /* \"#utility.yul\":650:789   */\n    tag_116:\n      0x00\n        /* \"#utility.yul\":734:740   */\n      dup2\n        /* \"#utility.yul\":721:741   */\n      calldataload\n        /* \"#utility.yul\":712:741   */\n      swap1\n      pop\n        /* \"#utility.yul\":750:783   */\n      tag_118\n        /* \"#utility.yul\":777:782   */\n      dup2\n        /* \"#utility.yul\":750:783   */\n      tag_119\n      jump\t// in\n    tag_118:\n        /* \"#utility.yul\":702:789   */\n      swap3\n      swap2\n      pop\n      pop\n      jump\t// out\n        /* \"#utility.yul\":795:1573   */\n    tag_19:\n      0x00\n      dup1\n      0x00\n        /* \"#utility.yul\":957:959   */\n      0x60\n        /* \"#utility.yul\":945:954   */\n      dup5\n        /* \"#utility.yul\":936:943   */\n      dup7\n        /* \"#utility.yul\":932:955   */\n      sub\n        /* \"#utility.yul\":928:960   */\n      slt\n        /* \"#utility.yul\":925:927   */\n      iszero\n      tag_121\n      jumpi\n        /* \"#utility.yul\":973:974   */\n      0x00\n        /* \"#utility.yul\":970:971   */\n      dup1\n        /* \"#utility.yul\":963:975   */\n      revert\n        /* \"#utility.yul\":925:927   */\n    tag_121:\n        /* \"#utility.yul\":1044:1045   */\n      0x00\n        /* \"#utility.yul\":1033:1042   */\n      dup5\n        /* \"#utility.yul\":1029:1046   */\n      add\n        /* \"#utility.yul\":1016:1047   */\n      calldataload\n        /* \"#utility.yul\":1074:1092   */\n      0xffffffffffffffff\n        /* \"#utility.yul\":1066:1072   */\n      dup2\n        /* \"#utility.yul\":1063:1093   */\n      gt\n        /* \"#utility.yul\":1060:1062   */\n      iszero\n      tag_122\n      jumpi\n        /* \"#utility.yul\":1106:1107   */\n      0x00\n        /* \"#utility.yul\":1103:1104   */\n      dup1\n        /* \"#utility.yul\":1096:1108   */\n      revert\n        /* \"#utility.yul\":1060:1062   */\n    tag_122:\n        /* \"#utility.yul\":1134:1197   */\n      tag_123\n        /* \"#utility.yul\":1189:1196   */\n      dup7\n        /* \"#utility.yul\":1180:1186   */\n      dup3\n        /* \"#utility.yul\":1169:1178   */\n      dup8\n        /* \"#utility.yul\":1165:1187   */\n      add\n        /* \"#utility.yul\":1134:1197   */\n      tag_112\n      jump\t// in\n    tag_123:\n        /* \"#utility.yul\":1124:1197   */\n      swap4\n      pop\n        /* \"#utility.yul\":987:1207   */\n      pop\n        /* \"#utility.yul\":1274:1276   */\n      0x20\n        /* \"#utility.yul\":1263:1272   */\n      dup5\n        /* \"#utility.yul\":1259:1277   */\n      add\n        /* \"#utility.yul\":1246:1278   */\n      calldataload\n        /* \"#utility.yul\":1305:1323   */\n      0xffffffffffffffff\n        /* \"#utility.yul\":1297:1303   */\n      dup2\n        /* \"#utility.yul\":1294:1324   */\n      gt\n        /* \"#utility.yul\":1291:1293   */\n      iszero\n      tag_124\n      jumpi\n        /* \"#utility.yul\":1337:1338   */\n      0x00\n        /* \"#utility.yul\":1334:1335   */\n      dup1\n        /* \"#utility.yul\":1327:1339   */\n      revert\n        /* \"#utility.yul\":1291:1293   */\n    tag_124:\n        /* \"#utility.yul\":1365:1428   */\n      tag_125\n        /* \"#utility.yul\":1420:1427   */\n      dup7\n        /* \"#utility.yul\":1411:1417   */\n      dup3\n        /* \"#utility.yul\":1400:1409   */\n      dup8\n        /* \"#utility.yul\":1396:1418   */\n      add\n        /* \"#utility.yul\":1365:1428   */\n      tag_112\n      jump\t// in\n    tag_125:\n        /* \"#utility.yul\":1355:1428   */\n      swap3\n      pop\n        /* \"#utility.yul\":1217:1438   */\n      pop\n        /* \"#utility.yul\":1477:1479   */\n      0x40\n        /* \"#utility.yul\":1503:1556   */\n      tag_126\n        /* \"#utility.yul\":1548:1555   */\n      dup7\n        /* \"#utility.yul\":1539:1545   */\n      dup3\n        /* \"#utility.yul\":1528:1537   */\n      dup8\n        /* \"#utility.yul\":1524:1546   */\n      add\n        /* \"#utility.yul\":1503:1556   */\n      tag_116\n      jump\t// in\n    tag_126:\n        /* \"#utility.yul\":1493:1556   */\n      swap2\n      pop\n        /* \"#utility.yul\":1448:1566   */\n      pop\n        /* \"#utility.yul\":915:1573   */\n      swap3\n      pop\n      swap3\n      pop\n      swap3\n      jump\t// out\n        /* \"#utility.yul\":1579:1841   */\n    tag_13:\n      0x00\n        /* \"#utility.yul\":1687:1689   */\n      0x20\n        /* \"#utility.yul\":1675:1684   */\n      dup3\n        /* \"#utility.yul\":1666:1673   */\n      dup5\n        /* \"#utility.yul\":1662:1685   */\n      sub\n        /* \"#utility.yul\":1658:1690   */\n      slt\n        /* \"#utility.yul\":1655:1657   */\n      iszero\n      tag_128\n      jumpi\n        /* \"#utility.yul\":1703:1704   */\n      0x00\n        /* \"#utility.yul\":1700:1701   */\n      dup1\n        /* \"#utility.yul\":1693:1705   */\n      revert\n        /* \"#utility.yul\":1655:1657   */\n    tag_128:\n        /* \"#utility.yul\":1746:1747   */\n      0x00\n        /* \"#utility.yul\":1771:1824   */\n      tag_129\n        /* \"#utility.yul\":1816:1823   */\n      dup5\n        /* \"#utility.yul\":1807:1813   */\n      dup3\n        /* \"#utility.yul\":1796:1805   */\n      dup6\n        /* \"#utility.yul\":1792:1814   */\n      add\n        /* \"#utility.yul\":1771:1824   */\n      tag_116\n      jump\t// in\n    tag_129:\n        /* \"#utility.yul\":1761:1824   */\n      swap2\n      pop\n        /* \"#utility.yul\":1717:1834   */\n      pop\n        /* \"#utility.yul\":1645:1841   */\n      swap3\n      swap2\n      pop\n      pop\n      jump\t// out\n        /* \"#utility.yul\":1847:2512   */\n    tag_28:\n      0x00\n      dup1\n      0x00\n        /* \"#utility.yul\":1999:2001   */\n      0x60\n        /* \"#utility.yul\":1987:1996   */\n      dup5\n        /* \"#utility.yul\":1978:1985   */\n      dup7\n        /* \"#utility.yul\":1974:1997   */\n      sub\n        /* \"#utility.yul\":1970:2002   */\n      slt\n        /* \"#utility.yul\":1967:1969   */\n      iszero\n      tag_131\n      jumpi\n        /* \"#utility.yul\":2015:2016   */\n      0x00\n        /* \"#utility.yul\":2012:2013   */\n      dup1\n        /* \"#utility.yul\":2005:2017   */\n      revert\n        /* \"#utility.yul\":1967:1969   */\n    tag_131:\n        /* \"#utility.yul\":2058:2059   */\n      0x00\n        /* \"#utility.yul\":2083:2136   */\n      tag_132\n        /* \"#utility.yul\":2128:2135   */\n      dup7\n        /* \"#utility.yul\":2119:2125   */\n      dup3\n        /* \"#utility.yul\":2108:2117   */\n      dup8\n        /* \"#utility.yul\":2104:2126   */\n      add\n        /* \"#utility.yul\":2083:2136   */\n      tag_116\n      jump\t// in\n    tag_132:\n        /* \"#utility.yul\":2073:2136   */\n      swap4\n      pop\n        /* \"#utility.yul\":2029:2146   */\n      pop\n        /* \"#utility.yul\":2185:2187   */\n      0x20\n        /* \"#utility.yul\":2211:2264   */\n      tag_133\n        /* \"#utility.yul\":2256:2263   */\n      dup7\n        /* \"#utility.yul\":2247:2253   */\n      dup3\n        /* \"#utility.yul\":2236:2245   */\n      dup8\n        /* \"#utility.yul\":2232:2254   */\n      add\n        /* \"#utility.yul\":2211:2264   */\n      tag_116\n      jump\t// in\n    tag_133:\n        /* \"#utility.yul\":2201:2264   */\n      swap3\n      pop\n        /* \"#utility.yul\":2156:2274   */\n      pop\n        /* \"#utility.yul\":2341:2343   */\n      0x40\n        /* \"#utility.yul\":2330:2339   */\n      dup5\n        /* \"#utility.yul\":2326:2344   */\n      add\n        /* \"#utility.yul\":2313:2345   */\n      calldataload\n        /* \"#utility.yul\":2372:2390   */\n      0xffffffffffffffff\n        /* \"#utility.yul\":2364:2370   */\n      dup2\n        /* \"#utility.yul\":2361:2391   */\n      gt\n        /* \"#utility.yul\":2358:2360   */\n      iszero\n      tag_134\n      jumpi\n        /* \"#utility.yul\":2404:2405   */\n      0x00\n        /* \"#utility.yul\":2401:2402   */\n      dup1\n        /* \"#utility.yul\":2394:2406   */\n      revert\n        /* \"#utility.yul\":2358:2360   */\n    tag_134:\n        /* \"#utility.yul\":2432:2495   */\n      tag_135\n        /* \"#utility.yul\":2487:2494   */\n      dup7\n        /* \"#utility.yul\":2478:2484   */\n      dup3\n        /* \"#utility.yul\":2467:2476   */\n      dup8\n        /* \"#utility.yul\":2463:2485   */\n      add\n        /* \"#utility.yul\":2432:2495   */\n      tag_112\n      jump\t// in\n    tag_135:\n        /* \"#utility.yul\":2422:2495   */\n      swap2\n      pop\n        /* \"#utility.yul\":2284:2505   */\n      pop\n        /* \"#utility.yul\":1957:2512   */\n      swap3\n      pop\n      swap3\n      pop\n      swap3\n      jump\t// out\n        /* \"#utility.yul\":2518:2627   */\n    tag_136:\n        /* \"#utility.yul\":2599:2620   */\n      tag_138\n        /* \"#utility.yul\":2614:2619   */\n      dup2\n        /* \"#utility.yul\":2599:2620   */\n      tag_139\n      jump\t// in\n    tag_138:\n        /* \"#utility.yul\":2594:2597   */\n      dup3\n        /* \"#utility.yul\":2587:2621   */\n      mstore\n        /* \"#utility.yul\":2577:2627   */\n      pop\n      pop\n      jump\t// out\n        /* \"#utility.yul\":2633:2997   */\n    tag_140:\n      0x00\n        /* \"#utility.yul\":2749:2788   */\n      tag_142\n        /* \"#utility.yul\":2782:2787   */\n      dup3\n        /* \"#utility.yul\":2749:2788   */\n      tag_143\n      jump\t// in\n    tag_142:\n        /* \"#utility.yul\":2804:2875   */\n      tag_144\n        /* \"#utility.yul\":2868:2874   */\n      dup2\n        /* \"#utility.yul\":2863:2866   */\n      dup6\n        /* \"#utility.yul\":2804:2875   */\n      tag_145\n      jump\t// in\n    tag_144:\n        /* \"#utility.yul\":2797:2875   */\n      swap4\n      pop\n        /* \"#utility.yul\":2884:2936   */\n      tag_146\n        /* \"#utility.yul\":2929:2935   */\n      dup2\n        /* \"#utility.yul\":2924:2927   */\n      dup6\n        /* \"#utility.yul\":2917:2921   */\n      0x20\n        /* \"#utility.yul\":2910:2915   */\n      dup7\n        /* \"#utility.yul\":2906:2922   */\n      add\n        /* \"#utility.yul\":2884:2936   */\n      tag_147\n      jump\t// in\n    tag_146:\n        /* \"#utility.yul\":2961:2990   */\n      tag_148\n        /* \"#utility.yul\":2983:2989   */\n      dup2\n        /* \"#utility.yul\":2961:2990   */\n      tag_149\n      jump\t// in\n    tag_148:\n        /* \"#utility.yul\":2956:2959   */\n      dup5\n        /* \"#utility.yul\":2952:2991   */\n      add\n        /* \"#utility.yul\":2945:2991   */\n      swap2\n      pop\n        /* \"#utility.yul\":2725:2997   */\n      pop\n      swap3\n      swap2\n      pop\n      pop\n      jump\t// out\n        /* \"#utility.yul\":3003:3316   */\n    tag_150:\n      0x00\n        /* \"#utility.yul\":3166:3233   */\n      tag_152\n        /* \"#utility.yul\":3230:3232   */\n      0x0f\n        /* \"#utility.yul\":3225:3228   */\n      dup4\n        /* \"#utility.yul\":3166:3233   */\n      tag_145\n      jump\t// in\n    tag_152:\n        /* \"#utility.yul\":3159:3233   */\n      swap2\n      pop\n        /* \"#utility.yul\":3263:3280   */\n      0x416c726561647920457869737465640000000000000000000000000000000000\n        /* \"#utility.yul\":3259:3260   */\n      0x00\n        /* \"#utility.yul\":3254:3257   */\n      dup4\n        /* \"#utility.yul\":3250:3261   */\n      add\n        /* \"#utility.yul\":3243:3281   */\n      mstore\n        /* \"#utility.yul\":3307:3309   */\n      0x20\n        /* \"#utility.yul\":3302:3305   */\n      dup3\n        /* \"#utility.yul\":3298:3310   */\n      add\n        /* \"#utility.yul\":3291:3310   */\n      swap1\n      pop\n        /* \"#utility.yul\":3149:3316   */\n      swap2\n      swap1\n      pop\n      jump\t// out\n        /* \"#utility.yul\":3322:3637   */\n    tag_153:\n      0x00\n        /* \"#utility.yul\":3485:3552   */\n      tag_155\n        /* \"#utility.yul\":3549:3551   */\n      0x11\n        /* \"#utility.yul\":3544:3547   */\n      dup4\n        /* \"#utility.yul\":3485:3552   */\n      tag_145\n      jump\t// in\n    tag_155:\n        /* \"#utility.yul\":3478:3552   */\n      swap2\n      pop\n        /* \"#utility.yul\":3582:3601   */\n      0x4e6f207365617420617661696c61626c65000000000000000000000000000000\n        /* \"#utility.yul\":3578:3579   */\n      0x00\n        /* \"#utility.yul\":3573:3576   */\n      dup4\n        /* \"#utility.yul\":3569:3580   */\n      add\n        /* \"#utility.yul\":3562:3602   */\n      mstore\n        /* \"#utility.yul\":3628:3630   */\n      0x20\n        /* \"#utility.yul\":3623:3626   */\n      dup3\n        /* \"#utility.yul\":3619:3631   */\n      add\n        /* \"#utility.yul\":3612:3631   */\n      swap1\n      pop\n        /* \"#utility.yul\":3468:3637   */\n      swap2\n      swap1\n      pop\n      jump\t// out\n        /* \"#utility.yul\":3643:3761   */\n    tag_156:\n        /* \"#utility.yul\":3730:3754   */\n      tag_158\n        /* \"#utility.yul\":3748:3753   */\n      dup2\n        /* \"#utility.yul\":3730:3754   */\n      tag_159\n      jump\t// in\n    tag_158:\n        /* \"#utility.yul\":3725:3728   */\n      dup3\n        /* \"#utility.yul\":3718:3755   */\n      mstore\n        /* \"#utility.yul\":3708:3761   */\n      pop\n      pop\n      jump\t// out\n        /* \"#utility.yul\":3767:3977   */\n    tag_42:\n      0x00\n        /* \"#utility.yul\":3892:3894   */\n      0x20\n        /* \"#utility.yul\":3881:3890   */\n      dup3\n        /* \"#utility.yul\":3877:3895   */\n      add\n        /* \"#utility.yul\":3869:3895   */\n      swap1\n      pop\n        /* \"#utility.yul\":3905:3970   */\n      tag_161\n        /* \"#utility.yul\":3967:3968   */\n      0x00\n        /* \"#utility.yul\":3956:3965   */\n      dup4\n        /* \"#utility.yul\":3952:3969   */\n      add\n        /* \"#utility.yul\":3943:3949   */\n      dup5\n        /* \"#utility.yul\":3905:3970   */\n      tag_136\n      jump\t// in\n    tag_161:\n        /* \"#utility.yul\":3859:3977   */\n      swap3\n      swap2\n      pop\n      pop\n      jump\t// out\n        /* \"#utility.yul\":3983:4402   */\n    tag_72:\n      0x00\n        /* \"#utility.yul\":4187:4189   */\n      0x20\n        /* \"#utility.yul\":4176:4185   */\n      dup3\n        /* \"#utility.yul\":4172:4190   */\n      add\n        /* \"#utility.yul\":4164:4190   */\n      swap1\n      pop\n        /* \"#utility.yul\":4236:4245   */\n      dup2\n        /* \"#utility.yul\":4230:4234   */\n      dup2\n        /* \"#utility.yul\":4226:4246   */\n      sub\n        /* \"#utility.yul\":4222:4223   */\n      0x00\n        /* \"#utility.yul\":4211:4220   */\n      dup4\n        /* \"#utility.yul\":4207:4224   */\n      add\n        /* \"#utility.yul\":4200:4247   */\n      mstore\n        /* \"#utility.yul\":4264:4395   */\n      tag_163\n        /* \"#utility.yul\":4390:4394   */\n      dup2\n        /* \"#utility.yul\":4264:4395   */\n      tag_150\n      jump\t// in\n    tag_163:\n        /* \"#utility.yul\":4256:4395   */\n      swap1\n      pop\n        /* \"#utility.yul\":4154:4402   */\n      swap2\n      swap1\n      pop\n      jump\t// out\n        /* \"#utility.yul\":4408:4827   */\n    tag_69:\n      0x00\n        /* \"#utility.yul\":4612:4614   */\n      0x20\n        /* \"#utility.yul\":4601:4610   */\n      dup3\n        /* \"#utility.yul\":4597:4615   */\n      add\n        /* \"#utility.yul\":4589:4615   */\n      swap1\n      pop\n        /* \"#utility.yul\":4661:4670   */\n      dup2\n        /* \"#utility.yul\":4655:4659   */\n      dup2\n        /* \"#utility.yul\":4651:4671   */\n      sub\n        /* \"#utility.yul\":4647:4648   */\n      0x00\n        /* \"#utility.yul\":4636:4645   */\n      dup4\n        /* \"#utility.yul\":4632:4649   */\n      add\n        /* \"#utility.yul\":4625:4672   */\n      mstore\n        /* \"#utility.yul\":4689:4820   */\n      tag_165\n        /* \"#utility.yul\":4815:4819   */\n      dup2\n        /* \"#utility.yul\":4689:4820   */\n      tag_153\n      jump\t// in\n    tag_165:\n        /* \"#utility.yul\":4681:4820   */\n      swap1\n      pop\n        /* \"#utility.yul\":4579:4827   */\n      swap2\n      swap1\n      pop\n      jump\t// out\n        /* \"#utility.yul\":4833:5679   */\n    tag_25:\n      0x00\n        /* \"#utility.yul\":5116:5119   */\n      0xa0\n        /* \"#utility.yul\":5105:5114   */\n      dup3\n        /* \"#utility.yul\":5101:5120   */\n      add\n        /* \"#utility.yul\":5093:5120   */\n      swap1\n      pop\n        /* \"#utility.yul\":5130:5201   */\n      tag_167\n        /* \"#utility.yul\":5198:5199   */\n      0x00\n        /* \"#utility.yul\":5187:5196   */\n      dup4\n        /* \"#utility.yul\":5183:5200   */\n      add\n        /* \"#utility.yul\":5174:5180   */\n      dup9\n        /* \"#utility.yul\":5130:5201   */\n      tag_156\n      jump\t// in\n    tag_167:\n        /* \"#utility.yul\":5248:5257   */\n      dup2\n        /* \"#utility.yul\":5242:5246   */\n      dup2\n        /* \"#utility.yul\":5238:5258   */\n      sub\n        /* \"#utility.yul\":5233:5235   */\n      0x20\n        /* \"#utility.yul\":5222:5231   */\n      dup4\n        /* \"#utility.yul\":5218:5236   */\n      add\n        /* \"#utility.yul\":5211:5259   */\n      mstore\n        /* \"#utility.yul\":5276:5354   */\n      tag_168\n        /* \"#utility.yul\":5349:5353   */\n      dup2\n        /* \"#utility.yul\":5340:5346   */\n      dup8\n        /* \"#utility.yul\":5276:5354   */\n      tag_140\n      jump\t// in\n    tag_168:\n        /* \"#utility.yul\":5268:5354   */\n      swap1\n      pop\n        /* \"#utility.yul\":5401:5410   */\n      dup2\n        /* \"#utility.yul\":5395:5399   */\n      dup2\n        /* \"#utility.yul\":5391:5411   */\n      sub\n        /* \"#utility.yul\":5386:5388   */\n      0x40\n        /* \"#utility.yul\":5375:5384   */\n      dup4\n        /* \"#utility.yul\":5371:5389   */\n      add\n        /* \"#utility.yul\":5364:5412   */\n      mstore\n        /* \"#utility.yul\":5429:5507   */\n      tag_169\n        /* \"#utility.yul\":5502:5506   */\n      dup2\n        /* \"#utility.yul\":5493:5499   */\n      dup7\n        /* \"#utility.yul\":5429:5507   */\n      tag_140\n      jump\t// in\n    tag_169:\n        /* \"#utility.yul\":5421:5507   */\n      swap1\n      pop\n        /* \"#utility.yul\":5517:5589   */\n      tag_170\n        /* \"#utility.yul\":5585:5587   */\n      0x60\n        /* \"#utility.yul\":5574:5583   */\n      dup4\n        /* \"#utility.yul\":5570:5588   */\n      add\n        /* \"#utility.yul\":5561:5567   */\n      dup6\n        /* \"#utility.yul\":5517:5589   */\n      tag_156\n      jump\t// in\n    tag_170:\n        /* \"#utility.yul\":5599:5672   */\n      tag_171\n        /* \"#utility.yul\":5667:5670   */\n      0x80\n        /* \"#utility.yul\":5656:5665   */\n      dup4\n        /* \"#utility.yul\":5652:5671   */\n      add\n        /* \"#utility.yul\":5643:5649   */\n      dup5\n        /* \"#utility.yul\":5599:5672   */\n      tag_156\n      jump\t// in\n    tag_171:\n        /* \"#utility.yul\":5083:5679   */\n      swap7\n      swap6\n      pop\n      pop\n      pop\n      pop\n      pop\n      pop\n      jump\t// out\n        /* \"#utility.yul\":5685:6317   */\n    tag_16:\n      0x00\n        /* \"#utility.yul\":5914:5917   */\n      0x80\n        /* \"#utility.yul\":5903:5912   */\n      dup3\n        /* \"#utility.yul\":5899:5918   */\n      add\n        /* \"#utility.yul\":5891:5918   */\n      swap1\n      pop\n        /* \"#utility.yul\":5928:5999   */\n      tag_173\n        /* \"#utility.yul\":5996:5997   */\n      0x00\n        /* \"#utility.yul\":5985:5994   */\n      dup4\n        /* \"#utility.yul\":5981:5998   */\n      add\n        /* \"#utility.yul\":5972:5978   */\n      dup8\n        /* \"#utility.yul\":5928:5999   */\n      tag_156\n      jump\t// in\n    tag_173:\n        /* \"#utility.yul\":6046:6055   */\n      dup2\n        /* \"#utility.yul\":6040:6044   */\n      dup2\n        /* \"#utility.yul\":6036:6056   */\n      sub\n        /* \"#utility.yul\":6031:6033   */\n      0x20\n        /* \"#utility.yul\":6020:6029   */\n      dup4\n        /* \"#utility.yul\":6016:6034   */\n      add\n        /* \"#utility.yul\":6009:6057   */\n      mstore\n        /* \"#utility.yul\":6074:6152   */\n      tag_174\n        /* \"#utility.yul\":6147:6151   */\n      dup2\n        /* \"#utility.yul\":6138:6144   */\n      dup7\n        /* \"#utility.yul\":6074:6152   */\n      tag_140\n      jump\t// in\n    tag_174:\n        /* \"#utility.yul\":6066:6152   */\n      swap1\n      pop\n        /* \"#utility.yul\":6162:6234   */\n      tag_175\n        /* \"#utility.yul\":6230:6232   */\n      0x40\n        /* \"#utility.yul\":6219:6228   */\n      dup4\n        /* \"#utility.yul\":6215:6233   */\n      add\n        /* \"#utility.yul\":6206:6212   */\n      dup6\n        /* \"#utility.yul\":6162:6234   */\n      tag_156\n      jump\t// in\n    tag_175:\n        /* \"#utility.yul\":6244:6310   */\n      tag_176\n        /* \"#utility.yul\":6306:6308   */\n      0x60\n        /* \"#utility.yul\":6295:6304   */\n      dup4\n        /* \"#utility.yul\":6291:6309   */\n      add\n        /* \"#utility.yul\":6282:6288   */\n      dup5\n        /* \"#utility.yul\":6244:6310   */\n      tag_136\n      jump\t// in\n    tag_176:\n        /* \"#utility.yul\":5881:6317   */\n      swap6\n      swap5\n      pop\n      pop\n      pop\n      pop\n      pop\n      jump\t// out\n        /* \"#utility.yul\":6323:6606   */\n    tag_108:\n      0x00\n        /* \"#utility.yul\":6389:6391   */\n      0x40\n        /* \"#utility.yul\":6383:6392   */\n      mload\n        /* \"#utility.yul\":6373:6392   */\n      swap1\n      pop\n        /* \"#utility.yul\":6431:6435   */\n      dup2\n        /* \"#utility.yul\":6423:6429   */\n      dup2\n        /* \"#utility.yul\":6419:6436   */\n      add\n        /* \"#utility.yul\":6538:6544   */\n      dup2\n        /* \"#utility.yul\":6526:6536   */\n      dup2\n        /* \"#utility.yul\":6523:6545   */\n      lt\n        /* \"#utility.yul\":6502:6520   */\n      0xffffffffffffffff\n        /* \"#utility.yul\":6490:6500   */\n      dup3\n        /* \"#utility.yul\":6487:6521   */\n      gt\n        /* \"#utility.yul\":6484:6546   */\n      or\n        /* \"#utility.yul\":6481:6483   */\n      iszero\n      tag_178\n      jumpi\n        /* \"#utility.yul\":6549:6567   */\n      tag_179\n      tag_180\n      jump\t// in\n    tag_179:\n        /* \"#utility.yul\":6481:6483   */\n    tag_178:\n        /* \"#utility.yul\":6589:6599   */\n      dup1\n        /* \"#utility.yul\":6585:6587   */\n      0x40\n        /* \"#utility.yul\":6578:6600   */\n      mstore\n        /* \"#utility.yul\":6363:6606   */\n      pop\n      swap2\n      swap1\n      pop\n      jump\t// out\n        /* \"#utility.yul\":6612:6944   */\n    tag_107:\n      0x00\n        /* \"#utility.yul\":6764:6782   */\n      0xffffffffffffffff\n        /* \"#utility.yul\":6756:6762   */\n      dup3\n        /* \"#utility.yul\":6753:6783   */\n      gt\n        /* \"#utility.yul\":6750:6752   */\n      iszero\n      tag_182\n      jumpi\n        /* \"#utility.yul\":6786:6804   */\n      tag_183\n      tag_180\n      jump\t// in\n    tag_183:\n        /* \"#utility.yul\":6750:6752   */\n    tag_182:\n        /* \"#utility.yul\":6871:6875   */\n      0x1f\n        /* \"#utility.yul\":6867:6876   */\n      not\n        /* \"#utility.yul\":6860:6864   */\n      0x1f\n        /* \"#utility.yul\":6852:6858   */\n      dup4\n        /* \"#utility.yul\":6848:6865   */\n      add\n        /* \"#utility.yul\":6844:6877   */\n      and\n        /* \"#utility.yul\":6836:6877   */\n      swap1\n      pop\n        /* \"#utility.yul\":6932:6936   */\n      0x20\n        /* \"#utility.yul\":6926:6930   */\n      dup2\n        /* \"#utility.yul\":6922:6937   */\n      add\n        /* \"#utility.yul\":6914:6937   */\n      swap1\n      pop\n        /* \"#utility.yul\":6679:6944   */\n      swap2\n      swap1\n      pop\n      jump\t// out\n        /* \"#utility.yul\":6950:7049   */\n    tag_143:\n      0x00\n        /* \"#utility.yul\":7036:7041   */\n      dup2\n        /* \"#utility.yul\":7030:7042   */\n      mload\n        /* \"#utility.yul\":7020:7042   */\n      swap1\n      pop\n        /* \"#utility.yul\":7009:7049   */\n      swap2\n      swap1\n      pop\n      jump\t// out\n        /* \"#utility.yul\":7055:7224   */\n    tag_145:\n      0x00\n        /* \"#utility.yul\":7173:7179   */\n      dup3\n        /* \"#utility.yul\":7168:7171   */\n      dup3\n        /* \"#utility.yul\":7161:7180   */\n      mstore\n        /* \"#utility.yul\":7213:7217   */\n      0x20\n        /* \"#utility.yul\":7208:7211   */\n      dup3\n        /* \"#utility.yul\":7204:7218   */\n      add\n        /* \"#utility.yul\":7189:7218   */\n      swap1\n      pop\n        /* \"#utility.yul\":7151:7224   */\n      swap3\n      swap2\n      pop\n      pop\n      jump\t// out\n        /* \"#utility.yul\":7230:7320   */\n    tag_139:\n      0x00\n        /* \"#utility.yul\":7307:7312   */\n      dup2\n        /* \"#utility.yul\":7300:7313   */\n      iszero\n        /* \"#utility.yul\":7293:7314   */\n      iszero\n        /* \"#utility.yul\":7282:7314   */\n      swap1\n      pop\n        /* \"#utility.yul\":7272:7320   */\n      swap2\n      swap1\n      pop\n      jump\t// out\n        /* \"#utility.yul\":7326:7403   */\n    tag_159:\n      0x00\n        /* \"#utility.yul\":7392:7397   */\n      dup2\n        /* \"#utility.yul\":7381:7397   */\n      swap1\n      pop\n        /* \"#utility.yul\":7371:7403   */\n      swap2\n      swap1\n      pop\n      jump\t// out\n        /* \"#utility.yul\":7409:7563   */\n    tag_111:\n        /* \"#utility.yul\":7493:7499   */\n      dup3\n        /* \"#utility.yul\":7488:7491   */\n      dup2\n        /* \"#utility.yul\":7483:7486   */\n      dup4\n        /* \"#utility.yul\":7470:7500   */\n      calldatacopy\n        /* \"#utility.yul\":7555:7556   */\n      0x00\n        /* \"#utility.yul\":7546:7552   */\n      dup4\n        /* \"#utility.yul\":7541:7544   */\n      dup4\n        /* \"#utility.yul\":7537:7553   */\n      add\n        /* \"#utility.yul\":7530:7557   */\n      mstore\n        /* \"#utility.yul\":7460:7563   */\n      pop\n      pop\n      pop\n      jump\t// out\n        /* \"#utility.yul\":7569:7876   */\n    tag_147:\n        /* \"#utility.yul\":7637:7638   */\n      0x00\n        /* \"#utility.yul\":7647:7760   */\n    tag_190:\n        /* \"#utility.yul\":7661:7667   */\n      dup4\n        /* \"#utility.yul\":7658:7659   */\n      dup2\n        /* \"#utility.yul\":7655:7668   */\n      lt\n        /* \"#utility.yul\":7647:7760   */\n      iszero\n      tag_192\n      jumpi\n        /* \"#utility.yul\":7746:7747   */\n      dup1\n        /* \"#utility.yul\":7741:7744   */\n      dup3\n        /* \"#utility.yul\":7737:7748   */\n      add\n        /* \"#utility.yul\":7731:7749   */\n      mload\n        /* \"#utility.yul\":7727:7728   */\n      dup2\n        /* \"#utility.yul\":7722:7725   */\n      dup5\n        /* \"#utility.yul\":7718:7729   */\n      add\n        /* \"#utility.yul\":7711:7750   */\n      mstore\n        /* \"#utility.yul\":7683:7685   */\n      0x20\n        /* \"#utility.yul\":7680:7681   */\n      dup2\n        /* \"#utility.yul\":7676:7686   */\n      add\n        /* \"#utility.yul\":7671:7686   */\n      swap1\n      pop\n        /* \"#utility.yul\":7647:7760   */\n      jump(tag_190)\n    tag_192:\n        /* \"#utility.yul\":7778:7784   */\n      dup4\n        /* \"#utility.yul\":7775:7776   */\n      dup2\n        /* \"#utility.yul\":7772:7785   */\n      gt\n        /* \"#utility.yul\":7769:7771   */\n      iszero\n      tag_193\n      jumpi\n        /* \"#utility.yul\":7858:7859   */\n      0x00\n        /* \"#utility.yul\":7849:7855   */\n      dup5\n        /* \"#utility.yul\":7844:7847   */\n      dup5\n        /* \"#utility.yul\":7840:7856   */\n      add\n        /* \"#utility.yul\":7833:7860   */\n      mstore\n        /* \"#utility.yul\":7769:7771   */\n    tag_193:\n        /* \"#utility.yul\":7618:7876   */\n      pop\n      pop\n      pop\n      pop\n      jump\t// out\n        /* \"#utility.yul\":7882:8202   */\n    tag_44:\n      0x00\n        /* \"#utility.yul\":7963:7964   */\n      0x02\n        /* \"#utility.yul\":7957:7961   */\n      dup3\n        /* \"#utility.yul\":7953:7965   */\n      div\n        /* \"#utility.yul\":7943:7965   */\n      swap1\n      pop\n        /* \"#utility.yul\":8010:8011   */\n      0x01\n        /* \"#utility.yul\":8004:8008   */\n      dup3\n        /* \"#utility.yul\":8000:8012   */\n      and\n        /* \"#utility.yul\":8031:8049   */\n      dup1\n        /* \"#utility.yul\":8021:8023   */\n      tag_195\n      jumpi\n        /* \"#utility.yul\":8087:8091   */\n      0x7f\n        /* \"#utility.yul\":8079:8085   */\n      dup3\n        /* \"#utility.yul\":8075:8092   */\n      and\n        /* \"#utility.yul\":8065:8092   */\n      swap2\n      pop\n        /* \"#utility.yul\":8021:8023   */\n    tag_195:\n        /* \"#utility.yul\":8149:8151   */\n      0x20\n        /* \"#utility.yul\":8141:8147   */\n      dup3\n        /* \"#utility.yul\":8138:8152   */\n      lt\n        /* \"#utility.yul\":8118:8136   */\n      dup2\n        /* \"#utility.yul\":8115:8153   */\n      eq\n        /* \"#utility.yul\":8112:8114   */\n      iszero\n      tag_196\n      jumpi\n        /* \"#utility.yul\":8168:8186   */\n      tag_197\n      tag_198\n      jump\t// in\n    tag_197:\n        /* \"#utility.yul\":8112:8114   */\n    tag_196:\n        /* \"#utility.yul\":7933:8202   */\n      pop\n      swap2\n      swap1\n      pop\n      jump\t// out\n        /* \"#utility.yul\":8208:8441   */\n    tag_51:\n      0x00\n        /* \"#utility.yul\":8270:8294   */\n      tag_200\n        /* \"#utility.yul\":8288:8293   */\n      dup3\n        /* \"#utility.yul\":8270:8294   */\n      tag_159\n      jump\t// in\n    tag_200:\n        /* \"#utility.yul\":8261:8294   */\n      swap2\n      pop\n        /* \"#utility.yul\":8316:8382   */\n      0xffffffffffffffffffffffffffffffffffffffffffffffffffffffffffffffff\n        /* \"#utility.yul\":8309:8314   */\n      dup3\n        /* \"#utility.yul\":8306:8383   */\n      eq\n        /* \"#utility.yul\":8303:8305   */\n      iszero\n      tag_201\n      jumpi\n        /* \"#utility.yul\":8386:8404   */\n      tag_202\n      tag_203\n      jump\t// in\n    tag_202:\n        /* \"#utility.yul\":8303:8305   */\n    tag_201:\n        /* \"#utility.yul\":8433:8434   */\n      0x01\n        /* \"#utility.yul\":8426:8431   */\n      dup3\n        /* \"#utility.yul\":8422:8435   */\n      add\n        /* \"#utility.yul\":8415:8435   */\n      swap1\n      pop\n        /* \"#utility.yul\":8251:8441   */\n      swap2\n      swap1\n      pop\n      jump\t// out\n        /* \"#utility.yul\":8447:8627   */\n    tag_203:\n        /* \"#utility.yul\":8495:8572   */\n      0x4e487b7100000000000000000000000000000000000000000000000000000000\n        /* \"#utility.yul\":8492:8493   */\n      0x00\n        /* \"#utility.yul\":8485:8573   */\n      mstore\n        /* \"#utility.yul\":8592:8596   */\n      0x11\n        /* \"#utility.yul\":8589:8590   */\n      0x04\n        /* \"#utility.yul\":8582:8597   */\n      mstore\n        /* \"#utility.yul\":8616:8620   */\n      0x24\n        /* \"#utility.yul\":8613:8614   */\n      0x00\n        /* \"#utility.yul\":8606:8621   */\n      revert\n        /* \"#utility.yul\":8633:8813   */\n    tag_198:\n        /* \"#utility.yul\":8681:8758   */\n      0x4e487b7100000000000000000000000000000000000000000000000000000000\n        /* \"#utility.yul\":8678:8679   */\n      0x00\n        /* \"#utility.yul\":8671:8759   */\n      mstore\n        /* \"#utility.yul\":8778:8782   */\n      0x22\n        /* \"#utility.yul\":8775:8776   */\n      0x04\n        /* \"#utility.yul\":8768:8783   */\n      mstore\n        /* \"#utility.yul\":8802:8806   */\n      0x24\n        /* \"#utility.yul\":8799:8800   */\n      0x00\n        /* \"#utility.yul\":8792:8807   */\n      revert\n        /* \"#utility.yul\":8819:8999   */\n    tag_180:\n        /* \"#utility.yul\":8867:8944   */\n      0x4e487b7100000000000000000000000000000000000000000000000000000000\n        /* \"#utility.yul\":8864:8865   */\n      0x00\n        /* \"#utility.yul\":8857:8945   */\n      mstore\n        /* \"#utility.yul\":8964:8968   */\n      0x41\n        /* \"#utility.yul\":8961:8962   */\n      0x04\n        /* \"#utility.yul\":8954:8969   */\n      mstore\n        /* \"#utility.yul\":8988:8992   */\n      0x24\n        /* \"#utility.yul\":8985:8986   */\n      0x00\n        /* \"#utility.yul\":8978:8993   */\n      revert\n        /* \"#utility.yul\":9005:9107   */\n    tag_149:\n      0x00\n        /* \"#utility.yul\":9097:9099   */\n      0x1f\n        /* \"#utility.yul\":9093:9100   */\n      not\n        /* \"#utility.yul\":9088:9090   */\n      0x1f\n        /* \"#utility.yul\":9081:9086   */\n      dup4\n        /* \"#utility.yul\":9077:9091   */\n      add\n        /* \"#utility.yul\":9073:9101   */\n      and\n        /* \"#utility.yul\":9063:9101   */\n      swap1\n      pop\n        /* \"#utility.yul\":9053:9107   */\n      swap2\n      swap1\n      pop\n      jump\t// out\n        /* \"#utility.yul\":9113:9235   */\n    tag_119:\n        /* \"#utility.yul\":9186:9210   */\n      tag_209\n        /* \"#utility.yul\":9204:9209   */\n      dup2\n        /* \"#utility.yul\":9186:9210   */\n      tag_159\n      jump\t// in\n    tag_209:\n        /* \"#utility.yul\":9179:9184   */\n      dup2\n        /* \"#utility.yul\":9176:9211   */\n      eq\n        /* \"#utility.yul\":9166:9168   */\n      tag_210\n      jumpi\n        /* \"#utility.yul\":9225:9226   */\n      0x00\n        /* \"#utility.yul\":9222:9223   */\n      dup1\n        /* \"#utility.yul\":9215:9227   */\n      revert\n        /* \"#utility.yul\":9166:9168   */\n    tag_210:\n        /* \"#utility.yul\":9156:9235   */\n      pop\n      jump\t// out\n\n    auxdata: 0xa2646970667358221220bb5c96ff6c4fe8eb84c7d5bf86f0cbb015be568065eebde8d9c1e86afa03fa4764736f6c63430008000033\n}\n",
				"bytecode": {
					"linkReferences": {},
					"object": "608060405234801561001057600080fd5b50610f5d806100206000396000f3fe608060405234801561001057600080fd5b506004361061007d5760003560e01c806379b5c1471161005b57806379b5c1471461010557806386a9b3641461012157806396f979d214610154578063e9da9579146101885761007d565b806306ead22e1461008257806344a8ef19146100b5578063610b31a6146100d1575b600080fd5b61009c60048036038101906100979190610ab3565b6101b8565b6040516100ac9493929190610cd6565b60405180910390f35b6100cf60048036038101906100ca9190610a34565b61027d565b005b6100eb60048036038101906100e69190610ab3565b610332565b6040516100fc959493929190610c75565b60405180910390f35b61011f600480360381019061011a9190610adc565b6104cb565b005b61013b60048036038101906101369190610ab3565b6106a0565b60405161014b9493929190610cd6565b60405180910390f35b61016e60048036038101906101699190610ab3565b6107ae565b60405161017f959493929190610c75565b60405180910390f35b6101a2600480360381019061019d9190610ab3565b6108f4565b6040516101af9190610c1a565b60405180910390f35b60036020528060005260406000206000915090508060000154908060010180546101e190610df7565b80601f016020809104026020016040519081016040528092919081815260200182805461020d90610df7565b801561025a5780601f1061022f5761010080835404028352916020019161025a565b820191906000526020600020905b81548152906001019060200180831161023d57829003601f168201915b5050505050908060020154908060030160009054906101000a900460ff16905084565b60008081548092919061028f90610e29565b91905055506040518060a001604052806000548152602001848152602001838152602001828152602001600081525060026000805481526020019081526020016000206000820151816000015560208201518160010190805190602001906102f8929190610914565b506040820151816002019080519060200190610315929190610914565b506060820151816003015560808201518160040155905050505050565b60006060806000806000600260008881526020019081526020016000206040518060a00160405290816000820154815260200160018201805461037490610df7565b80601f01602080910402602001604051908101604052809291908181526020018280546103a090610df7565b80156103ed5780601f106103c2576101008083540402835291602001916103ed565b820191906000526020600020905b8154815290600101906020018083116103d057829003601f168201915b5050505050815260200160028201805461040690610df7565b80601f016020809104026020016040519081016040528092919081815260200182805461043290610df7565b801561047f5780601f106104545761010080835404028352916020019161047f565b820191906000526020600020905b81548152906001019060200180831161046257829003601f168201915b5050505050815260200160038201548152602001600482015481525050905080600001518160200151826040015183606001518460800151955095509550955095505091939590929450565b6002600084815260200190815260200160002060040154600260008581526020019081526020016000206003015411610539576040517f08c379a000000000000000000000000000000000000000000000000000000000815260040161053090610c55565b60405180910390fd5b600015156004600084815260200190815260200160002060009054906101000a900460ff161515146105a0576040517f08c379a000000000000000000000000000000000000000000000000000000000815260040161059790610c35565b60405180910390fd5b600160008154809291906105b390610e29565b919050555060405180608001604052808381526020018281526020018481526020016001151581525060036000848152602001908152602001600020600082015181600001556020820151816001019080519060200190610615929190610914565b506040820151816002015560608201518160030160006101000a81548160ff02191690831515021790555090505060026000848152602001908152602001600020600401600081548092919061066a90610e29565b919050555060016004600084815260200190815260200160002060006101000a81548160ff021916908315150217905550505050565b60006060600080600060036000878152602001908152602001600020604051806080016040529081600082015481526020016001820180546106e190610df7565b80601f016020809104026020016040519081016040528092919081815260200182805461070d90610df7565b801561075a5780601f1061072f5761010080835404028352916020019161075a565b820191906000526020600020905b81548152906001019060200180831161073d57829003601f168201915b50505050508152602001600282015481526020016003820160009054906101000a900460ff161515151581525050905080600001518160200151826040015183606001519450945094509450509193509193565b60026020528060005260406000206000915090508060000154908060010180546107d790610df7565b80601f016020809104026020016040519081016040528092919081815260200182805461080390610df7565b80156108505780601f1061082557610100808354040283529160200191610850565b820191906000526020600020905b81548152906001019060200180831161083357829003601f168201915b50505050509080600201805461086590610df7565b80601f016020809104026020016040519081016040528092919081815260200182805461089190610df7565b80156108de5780601f106108b3576101008083540402835291602001916108de565b820191906000526020600020905b8154815290600101906020018083116108c157829003601f168201915b5050505050908060030154908060040154905085565b60046020528060005260406000206000915054906101000a900460ff1681565b82805461092090610df7565b90600052602060002090601f0160209004810192826109425760008555610989565b82601f1061095b57805160ff1916838001178555610989565b82800160010185558215610989579182015b8281111561098857825182559160200191906001019061096d565b5b509050610996919061099a565b5090565b5b808211156109b357600081600090555060010161099b565b5090565b60006109ca6109c584610d53565b610d22565b9050828152602081018484840111156109e257600080fd5b6109ed848285610db5565b509392505050565b600082601f830112610a0657600080fd5b8135610a168482602086016109b7565b91505092915050565b600081359050610a2e81610f10565b92915050565b600080600060608486031215610a4957600080fd5b600084013567ffffffffffffffff811115610a6357600080fd5b610a6f868287016109f5565b935050602084013567ffffffffffffffff811115610a8c57600080fd5b610a98868287016109f5565b9250506040610aa986828701610a1f565b9150509250925092565b600060208284031215610ac557600080fd5b6000610ad384828501610a1f565b91505092915050565b600080600060608486031215610af157600080fd5b6000610aff86828701610a1f565b9350506020610b1086828701610a1f565b925050604084013567ffffffffffffffff811115610b2d57600080fd5b610b39868287016109f5565b9150509250925092565b610b4c81610d9f565b82525050565b6000610b5d82610d83565b610b678185610d8e565b9350610b77818560208601610dc4565b610b8081610eff565b840191505092915050565b6000610b98600f83610d8e565b91507f416c7265616479204578697374656400000000000000000000000000000000006000830152602082019050919050565b6000610bd8601183610d8e565b91507f4e6f207365617420617661696c61626c650000000000000000000000000000006000830152602082019050919050565b610c1481610dab565b82525050565b6000602082019050610c2f6000830184610b43565b92915050565b60006020820190508181036000830152610c4e81610b8b565b9050919050565b60006020820190508181036000830152610c6e81610bcb565b9050919050565b600060a082019050610c8a6000830188610c0b565b8181036020830152610c9c8187610b52565b90508181036040830152610cb08186610b52565b9050610cbf6060830185610c0b565b610ccc6080830184610c0b565b9695505050505050565b6000608082019050610ceb6000830187610c0b565b8181036020830152610cfd8186610b52565b9050610d0c6040830185610c0b565b610d196060830184610b43565b95945050505050565b6000604051905081810181811067ffffffffffffffff82111715610d4957610d48610ed0565b5b8060405250919050565b600067ffffffffffffffff821115610d6e57610d6d610ed0565b5b601f19601f8301169050602081019050919050565b600081519050919050565b600082825260208201905092915050565b60008115159050919050565b6000819050919050565b82818337600083830152505050565b60005b83811015610de2578082015181840152602081019050610dc7565b83811115610df1576000848401525b50505050565b60006002820490506001821680610e0f57607f821691505b60208210811415610e2357610e22610ea1565b5b50919050565b6000610e3482610dab565b91507fffffffffffffffffffffffffffffffffffffffffffffffffffffffffffffffff821415610e6757610e66610e72565b5b600182019050919050565b7f4e487b7100000000000000000000000000000000000000000000000000000000600052601160045260246000fd5b7f4e487b7100000000000000000000000000000000000000000000000000000000600052602260045260246000fd5b7f4e487b7100000000000000000000000000000000000000000000000000000000600052604160045260246000fd5b6000601f19601f8301169050919050565b610f1981610dab565b8114610f2457600080fd5b5056fea2646970667358221220bb5c96ff6c4fe8eb84c7d5bf86f0cbb015be568065eebde8d9c1e86afa03fa4764736f6c63430008000033",
					"opcodes": "PUSH1 0x80 PUSH1 0x40 MSTORE CALLVALUE DUP1 ISZERO PUSH2 0x10 JUMPI PUSH1 0x0 DUP1 REVERT JUMPDEST POP PUSH2 0xF5D DUP1 PUSH2 0x20 PUSH1 0x0 CODECOPY PUSH1 0x0 RETURN INVALID PUSH1 0x80 PUSH1 0x40 MSTORE CALLVALUE DUP1 ISZERO PUSH2 0x10 JUMPI PUSH1 0x0 DUP1 REVERT JUMPDEST POP PUSH1 0x4 CALLDATASIZE LT PUSH2 0x7D JUMPI PUSH1 0x0 CALLDATALOAD PUSH1 0xE0 SHR DUP1 PUSH4 0x79B5C147 GT PUSH2 0x5B JUMPI DUP1 PUSH4 0x79B5C147 EQ PUSH2 0x105 JUMPI DUP1 PUSH4 0x86A9B364 EQ PUSH2 0x121 JUMPI DUP1 PUSH4 0x96F979D2 EQ PUSH2 0x154 JUMPI DUP1 PUSH4 0xE9DA9579 EQ PUSH2 0x188 JUMPI PUSH2 0x7D JUMP JUMPDEST DUP1 PUSH4 0x6EAD22E EQ PUSH2 0x82 JUMPI DUP1 PUSH4 0x44A8EF19 EQ PUSH2 0xB5 JUMPI DUP1 PUSH4 0x610B31A6 EQ PUSH2 0xD1 JUMPI JUMPDEST PUSH1 0x0 DUP1 REVERT JUMPDEST PUSH2 0x9C PUSH1 0x4 DUP1 CALLDATASIZE SUB DUP2 ADD SWAP1 PUSH2 0x97 SWAP2 SWAP1 PUSH2 0xAB3 JUMP JUMPDEST PUSH2 0x1B8 JUMP JUMPDEST PUSH1 0x40 MLOAD PUSH2 0xAC SWAP5 SWAP4 SWAP3 SWAP2 SWAP1 PUSH2 0xCD6 JUMP JUMPDEST PUSH1 0x40 MLOAD DUP1 SWAP2 SUB SWAP1 RETURN JUMPDEST PUSH2 0xCF PUSH1 0x4 DUP1 CALLDATASIZE SUB DUP2 ADD SWAP1 PUSH2 0xCA SWAP2 SWAP1 PUSH2 0xA34 JUMP JUMPDEST PUSH2 0x27D JUMP JUMPDEST STOP JUMPDEST PUSH2 0xEB PUSH1 0x4 DUP1 CALLDATASIZE SUB DUP2 ADD SWAP1 PUSH2 0xE6 SWAP2 SWAP1 PUSH2 0xAB3 JUMP JUMPDEST PUSH2 0x332 JUMP JUMPDEST PUSH1 0x40 MLOAD PUSH2 0xFC SWAP6 SWAP5 SWAP4 SWAP3 SWAP2 SWAP1 PUSH2 0xC75 JUMP JUMPDEST PUSH1 0x40 MLOAD DUP1 SWAP2 SUB SWAP1 RETURN JUMPDEST PUSH2 0x11F PUSH1 0x4 DUP1 CALLDATASIZE SUB DUP2 ADD SWAP1 PUSH2 0x11A SWAP2 SWAP1 PUSH2 0xADC JUMP JUMPDEST PUSH2 0x4CB JUMP JUMPDEST STOP JUMPDEST PUSH2 0x13B PUSH1 0x4 DUP1 CALLDATASIZE SUB DUP2 ADD SWAP1 PUSH2 0x136 SWAP2 SWAP1 PUSH2 0xAB3 JUMP JUMPDEST PUSH2 0x6A0 JUMP JUMPDEST PUSH1 0x40 MLOAD PUSH2 0x14B SWAP5 SWAP4 SWAP3 SWAP2 SWAP1 PUSH2 0xCD6 JUMP JUMPDEST PUSH1 0x40 MLOAD DUP1 SWAP2 SUB SWAP1 RETURN JUMPDEST PUSH2 0x16E PUSH1 0x4 DUP1 CALLDATASIZE SUB DUP2 ADD SWAP1 PUSH2 0x169 SWAP2 SWAP1 PUSH2 0xAB3 JUMP JUMPDEST PUSH2 0x7AE JUMP JUMPDEST PUSH1 0x40 MLOAD PUSH2 0x17F SWAP6 SWAP5 SWAP4 SWAP3 SWAP2 SWAP1 PUSH2 0xC75 JUMP JUMPDEST PUSH1 0x40 MLOAD DUP1 SWAP2 SUB SWAP1 RETURN JUMPDEST PUSH2 0x1A2 PUSH1 0x4 DUP1 CALLDATASIZE SUB DUP2 ADD SWAP1 PUSH2 0x19D SWAP2 SWAP1 PUSH2 0xAB3 JUMP JUMPDEST PUSH2 0x8F4 JUMP JUMPDEST PUSH1 0x40 MLOAD PUSH2 0x1AF SWAP2 SWAP1 PUSH2 0xC1A JUMP JUMPDEST PUSH1 0x40 MLOAD DUP1 SWAP2 SUB SWAP1 RETURN JUMPDEST PUSH1 0x3 PUSH1 0x20 MSTORE DUP1 PUSH1 0x0 MSTORE PUSH1 0x40 PUSH1 0x0 KECCAK256 PUSH1 0x0 SWAP2 POP SWAP1 POP DUP1 PUSH1 0x0 ADD SLOAD SWAP1 DUP1 PUSH1 0x1 ADD DUP1 SLOAD PUSH2 0x1E1 SWAP1 PUSH2 0xDF7 JUMP JUMPDEST DUP1 PUSH1 0x1F ADD PUSH1 0x20 DUP1 SWAP2 DIV MUL PUSH1 0x20 ADD PUSH1 0x40 MLOAD SWAP1 DUP2 ADD PUSH1 0x40 MSTORE DUP1 SWAP3 SWAP2 SWAP1 DUP2 DUP2 MSTORE PUSH1 0x20 ADD DUP3 DUP1 SLOAD PUSH2 0x20D SWAP1 PUSH2 0xDF7 JUMP JUMPDEST DUP1 ISZERO PUSH2 0x25A JUMPI DUP1 PUSH1 0x1F LT PUSH2 0x22F JUMPI PUSH2 0x100 DUP1 DUP4 SLOAD DIV MUL DUP4 MSTORE SWAP2 PUSH1 0x20 ADD SWAP2 PUSH2 0x25A JUMP JUMPDEST DUP3 ADD SWAP2 SWAP1 PUSH1 0x0 MSTORE PUSH1 0x20 PUSH1 0x0 KECCAK256 SWAP1 JUMPDEST DUP2 SLOAD DUP2 MSTORE SWAP1 PUSH1 0x1 ADD SWAP1 PUSH1 0x20 ADD DUP1 DUP4 GT PUSH2 0x23D JUMPI DUP3 SWAP1 SUB PUSH1 0x1F AND DUP3 ADD SWAP2 JUMPDEST POP POP POP POP POP SWAP1 DUP1 PUSH1 0x2 ADD SLOAD SWAP1 DUP1 PUSH1 0x3 ADD PUSH1 0x0 SWAP1 SLOAD SWAP1 PUSH2 0x100 EXP SWAP1 DIV PUSH1 0xFF AND SWAP1 POP DUP5 JUMP JUMPDEST PUSH1 0x0 DUP1 DUP2 SLOAD DUP1 SWAP3 SWAP2 SWAP1 PUSH2 0x28F SWAP1 PUSH2 0xE29 JUMP JUMPDEST SWAP2 SWAP1 POP SSTORE POP PUSH1 0x40 MLOAD DUP1 PUSH1 0xA0 ADD PUSH1 0x40 MSTORE DUP1 PUSH1 0x0 SLOAD DUP2 MSTORE PUSH1 0x20 ADD DUP5 DUP2 MSTORE PUSH1 0x20 ADD DUP4 DUP2 MSTORE PUSH1 0x20 ADD DUP3 DUP2 MSTORE PUSH1 0x20 ADD PUSH1 0x0 DUP2 MSTORE POP PUSH1 0x2 PUSH1 0x0 DUP1 SLOAD DUP2 MSTORE PUSH1 0x20 ADD SWAP1 DUP2 MSTORE PUSH1 0x20 ADD PUSH1 0x0 KECCAK256 PUSH1 0x0 DUP3 ADD MLOAD DUP2 PUSH1 0x0 ADD SSTORE PUSH1 0x20 DUP3 ADD MLOAD DUP2 PUSH1 0x1 ADD SWAP1 DUP1 MLOAD SWAP1 PUSH1 0x20 ADD SWAP1 PUSH2 0x2F8 SWAP3 SWAP2 SWAP1 PUSH2 0x914 JUMP JUMPDEST POP PUSH1 0x40 DUP3 ADD MLOAD DUP2 PUSH1 0x2 ADD SWAP1 DUP1 MLOAD SWAP1 PUSH1 0x20 ADD SWAP1 PUSH2 0x315 SWAP3 SWAP2 SWAP1 PUSH2 0x914 JUMP JUMPDEST POP PUSH1 0x60 DUP3 ADD MLOAD DUP2 PUSH1 0x3 ADD SSTORE PUSH1 0x80 DUP3 ADD MLOAD DUP2 PUSH1 0x4 ADD SSTORE SWAP1 POP POP POP POP POP JUMP JUMPDEST PUSH1 0x0 PUSH1 0x60 DUP1 PUSH1 0x0 DUP1 PUSH1 0x0 PUSH1 0x2 PUSH1 0x0 DUP9 DUP2 MSTORE PUSH1 0x20 ADD SWAP1 DUP2 MSTORE PUSH1 0x20 ADD PUSH1 0x0 KECCAK256 PUSH1 0x40 MLOAD DUP1 PUSH1 0xA0 ADD PUSH1 0x40 MSTORE SWAP1 DUP2 PUSH1 0x0 DUP3 ADD SLOAD DUP2 MSTORE PUSH1 0x20 ADD PUSH1 0x1 DUP3 ADD DUP1 SLOAD PUSH2 0x374 SWAP1 PUSH2 0xDF7 JUMP JUMPDEST DUP1 PUSH1 0x1F ADD PUSH1 0x20 DUP1 SWAP2 DIV MUL PUSH1 0x20 ADD PUSH1 0x40 MLOAD SWAP1 DUP2 ADD PUSH1 0x40 MSTORE DUP1 SWAP3 SWAP2 SWAP1 DUP2 DUP2 MSTORE PUSH1 0x20 ADD DUP3 DUP1 SLOAD PUSH2 0x3A0 SWAP1 PUSH2 0xDF7 JUMP JUMPDEST DUP1 ISZERO PUSH2 0x3ED JUMPI DUP1 PUSH1 0x1F LT PUSH2 0x3C2 JUMPI PUSH2 0x100 DUP1 DUP4 SLOAD DIV MUL DUP4 MSTORE SWAP2 PUSH1 0x20 ADD SWAP2 PUSH2 0x3ED JUMP JUMPDEST DUP3 ADD SWAP2 SWAP1 PUSH1 0x0 MSTORE PUSH1 0x20 PUSH1 0x0 KECCAK256 SWAP1 JUMPDEST DUP2 SLOAD DUP2 MSTORE SWAP1 PUSH1 0x1 ADD SWAP1 PUSH1 0x20 ADD DUP1 DUP4 GT PUSH2 0x3D0 JUMPI DUP3 SWAP1 SUB PUSH1 0x1F AND DUP3 ADD SWAP2 JUMPDEST POP POP POP POP POP DUP2 MSTORE PUSH1 0x20 ADD PUSH1 0x2 DUP3 ADD DUP1 SLOAD PUSH2 0x406 SWAP1 PUSH2 0xDF7 JUMP JUMPDEST DUP1 PUSH1 0x1F ADD PUSH1 0x20 DUP1 SWAP2 DIV MUL PUSH1 0x20 ADD PUSH1 0x40 MLOAD SWAP1 DUP2 ADD PUSH1 0x40 MSTORE DUP1 SWAP3 SWAP2 SWAP1 DUP2 DUP2 MSTORE PUSH1 0x20 ADD DUP3 DUP1 SLOAD PUSH2 0x432 SWAP1 PUSH2 0xDF7 JUMP JUMPDEST DUP1 ISZERO PUSH2 0x47F JUMPI DUP1 PUSH1 0x1F LT PUSH2 0x454 JUMPI PUSH2 0x100 DUP1 DUP4 SLOAD DIV MUL DUP4 MSTORE SWAP2 PUSH1 0x20 ADD SWAP2 PUSH2 0x47F JUMP JUMPDEST DUP3 ADD SWAP2 SWAP1 PUSH1 0x0 MSTORE PUSH1 0x20 PUSH1 0x0 KECCAK256 SWAP1 JUMPDEST DUP2 SLOAD DUP2 MSTORE SWAP1 PUSH1 0x1 ADD SWAP1 PUSH1 0x20 ADD DUP1 DUP4 GT PUSH2 0x462 JUMPI DUP3 SWAP1 SUB PUSH1 0x1F AND DUP3 ADD SWAP2 JUMPDEST POP POP POP POP POP DUP2 MSTORE PUSH1 0x20 ADD PUSH1 0x3 DUP3 ADD SLOAD DUP2 MSTORE PUSH1 0x20 ADD PUSH1 0x4 DUP3 ADD SLOAD DUP2 MSTORE POP POP SWAP1 POP DUP1 PUSH1 0x0 ADD MLOAD DUP2 PUSH1 0x20 ADD MLOAD DUP3 PUSH1 0x40 ADD MLOAD DUP4 PUSH1 0x60 ADD MLOAD DUP5 PUSH1 0x80 ADD MLOAD SWAP6 POP SWAP6 POP SWAP6 POP SWAP6 POP SWAP6 POP POP SWAP2 SWAP4 SWAP6 SWAP1 SWAP3 SWAP5 POP JUMP JUMPDEST PUSH1 0x2 PUSH1 0x0 DUP5 DUP2 MSTORE PUSH1 0x20 ADD SWAP1 DUP2 MSTORE PUSH1 0x20 ADD PUSH1 0x0 KECCAK256 PUSH1 0x4 ADD SLOAD PUSH1 0x2 PUSH1 0x0 DUP6 DUP2 MSTORE PUSH1 0x20 ADD SWAP1 DUP2 MSTORE PUSH1 0x20 ADD PUSH1 0x0 KECCAK256 PUSH1 0x3 ADD SLOAD GT PUSH2 0x539 JUMPI PUSH1 0x40 MLOAD PUSH32 0x8C379A000000000000000000000000000000000000000000000000000000000 DUP2 MSTORE PUSH1 0x4 ADD PUSH2 0x530 SWAP1 PUSH2 0xC55 JUMP JUMPDEST PUSH1 0x40 MLOAD DUP1 SWAP2 SUB SWAP1 REVERT JUMPDEST PUSH1 0x0 ISZERO ISZERO PUSH1 0x4 PUSH1 0x0 DUP5 DUP2 MSTORE PUSH1 0x20 ADD SWAP1 DUP2 MSTORE PUSH1 0x20 ADD PUSH1 0x0 KECCAK256 PUSH1 0x0 SWAP1 SLOAD SWAP1 PUSH2 0x100 EXP SWAP1 DIV PUSH1 0xFF AND ISZERO ISZERO EQ PUSH2 0x5A0 JUMPI PUSH1 0x40 MLOAD PUSH32 0x8C379A000000000000000000000000000000000000000000000000000000000 DUP2 MSTORE PUSH1 0x4 ADD PUSH2 0x597 SWAP1 PUSH2 0xC35 JUMP JUMPDEST PUSH1 0x40 MLOAD DUP1 SWAP2 SUB SWAP1 REVERT JUMPDEST PUSH1 0x1 PUSH1 0x0 DUP2 SLOAD DUP1 SWAP3 SWAP2 SWAP1 PUSH2 0x5B3 SWAP1 PUSH2 0xE29 JUMP JUMPDEST SWAP2 SWAP1 POP SSTORE POP PUSH1 0x40 MLOAD DUP1 PUSH1 0x80 ADD PUSH1 0x40 MSTORE DUP1 DUP4 DUP2 MSTORE PUSH1 0x20 ADD DUP3 DUP2 MSTORE PUSH1 0x20 ADD DUP5 DUP2 MSTORE PUSH1 0x20 ADD PUSH1 0x1 ISZERO ISZERO DUP2 MSTORE POP PUSH1 0x3 PUSH1 0x0 DUP5 DUP2 MSTORE PUSH1 0x20 ADD SWAP1 DUP2 MSTORE PUSH1 0x20 ADD PUSH1 0x0 KECCAK256 PUSH1 0x0 DUP3 ADD MLOAD DUP2 PUSH1 0x0 ADD SSTORE PUSH1 0x20 DUP3 ADD MLOAD DUP2 PUSH1 0x1 ADD SWAP1 DUP1 MLOAD SWAP1 PUSH1 0x20 ADD SWAP1 PUSH2 0x615 SWAP3 SWAP2 SWAP1 PUSH2 0x914 JUMP JUMPDEST POP PUSH1 0x40 DUP3 ADD MLOAD DUP2 PUSH1 0x2 ADD SSTORE PUSH1 0x60 DUP3 ADD MLOAD DUP2 PUSH1 0x3 ADD PUSH1 0x0 PUSH2 0x100 EXP DUP2 SLOAD DUP2 PUSH1 0xFF MUL NOT AND SWAP1 DUP4 ISZERO ISZERO MUL OR SWAP1 SSTORE POP SWAP1 POP POP PUSH1 0x2 PUSH1 0x0 DUP5 DUP2 MSTORE PUSH1 0x20 ADD SWAP1 DUP2 MSTORE PUSH1 0x20 ADD PUSH1 0x0 KECCAK256 PUSH1 0x4 ADD PUSH1 0x0 DUP2 SLOAD DUP1 SWAP3 SWAP2 SWAP1 PUSH2 0x66A SWAP1 PUSH2 0xE29 JUMP JUMPDEST SWAP2 SWAP1 POP SSTORE POP PUSH1 0x1 PUSH1 0x4 PUSH1 0x0 DUP5 DUP2 MSTORE PUSH1 0x20 ADD SWAP1 DUP2 MSTORE PUSH1 0x20 ADD PUSH1 0x0 KECCAK256 PUSH1 0x0 PUSH2 0x100 EXP DUP2 SLOAD DUP2 PUSH1 0xFF MUL NOT AND SWAP1 DUP4 ISZERO ISZERO MUL OR SWAP1 SSTORE POP POP POP POP JUMP JUMPDEST PUSH1 0x0 PUSH1 0x60 PUSH1 0x0 DUP1 PUSH1 0x0 PUSH1 0x3 PUSH1 0x0 DUP8 DUP2 MSTORE PUSH1 0x20 ADD SWAP1 DUP2 MSTORE PUSH1 0x20 ADD PUSH1 0x0 KECCAK256 PUSH1 0x40 MLOAD DUP1 PUSH1 0x80 ADD PUSH1 0x40 MSTORE SWAP1 DUP2 PUSH1 0x0 DUP3 ADD SLOAD DUP2 MSTORE PUSH1 0x20 ADD PUSH1 0x1 DUP3 ADD DUP1 SLOAD PUSH2 0x6E1 SWAP1 PUSH2 0xDF7 JUMP JUMPDEST DUP1 PUSH1 0x1F ADD PUSH1 0x20 DUP1 SWAP2 DIV MUL PUSH1 0x20 ADD PUSH1 0x40 MLOAD SWAP1 DUP2 ADD PUSH1 0x40 MSTORE DUP1 SWAP3 SWAP2 SWAP1 DUP2 DUP2 MSTORE PUSH1 0x20 ADD DUP3 DUP1 SLOAD PUSH2 0x70D SWAP1 PUSH2 0xDF7 JUMP JUMPDEST DUP1 ISZERO PUSH2 0x75A JUMPI DUP1 PUSH1 0x1F LT PUSH2 0x72F JUMPI PUSH2 0x100 DUP1 DUP4 SLOAD DIV MUL DUP4 MSTORE SWAP2 PUSH1 0x20 ADD SWAP2 PUSH2 0x75A JUMP JUMPDEST DUP3 ADD SWAP2 SWAP1 PUSH1 0x0 MSTORE PUSH1 0x20 PUSH1 0x0 KECCAK256 SWAP1 JUMPDEST DUP2 SLOAD DUP2 MSTORE SWAP1 PUSH1 0x1 ADD SWAP1 PUSH1 0x20 ADD DUP1 DUP4 GT PUSH2 0x73D JUMPI DUP3 SWAP1 SUB PUSH1 0x1F AND DUP3 ADD SWAP2 JUMPDEST POP POP POP POP POP DUP2 MSTORE PUSH1 0x20 ADD PUSH1 0x2 DUP3 ADD SLOAD DUP2 MSTORE PUSH1 0x20 ADD PUSH1 0x3 DUP3 ADD PUSH1 0x0 SWAP1 SLOAD SWAP1 PUSH2 0x100 EXP SWAP1 DIV PUSH1 0xFF AND ISZERO ISZERO ISZERO ISZERO DUP2 MSTORE POP POP SWAP1 POP DUP1 PUSH1 0x0 ADD MLOAD DUP2 PUSH1 0x20 ADD MLOAD DUP3 PUSH1 0x40 ADD MLOAD DUP4 PUSH1 0x60 ADD MLOAD SWAP5 POP SWAP5 POP SWAP5 POP SWAP5 POP POP SWAP2 SWAP4 POP SWAP2 SWAP4 JUMP JUMPDEST PUSH1 0x2 PUSH1 0x20 MSTORE DUP1 PUSH1 0x0 MSTORE PUSH1 0x40 PUSH1 0x0 KECCAK256 PUSH1 0x0 SWAP2 POP SWAP1 POP DUP1 PUSH1 0x0 ADD SLOAD SWAP1 DUP1 PUSH1 0x1 ADD DUP1 SLOAD PUSH2 0x7D7 SWAP1 PUSH2 0xDF7 JUMP JUMPDEST DUP1 PUSH1 0x1F ADD PUSH1 0x20 DUP1 SWAP2 DIV MUL PUSH1 0x20 ADD PUSH1 0x40 MLOAD SWAP1 DUP2 ADD PUSH1 0x40 MSTORE DUP1 SWAP3 SWAP2 SWAP1 DUP2 DUP2 MSTORE PUSH1 0x20 ADD DUP3 DUP1 SLOAD PUSH2 0x803 SWAP1 PUSH2 0xDF7 JUMP JUMPDEST DUP1 ISZERO PUSH2 0x850 JUMPI DUP1 PUSH1 0x1F LT PUSH2 0x825 JUMPI PUSH2 0x100 DUP1 DUP4 SLOAD DIV MUL DUP4 MSTORE SWAP2 PUSH1 0x20 ADD SWAP2 PUSH2 0x850 JUMP JUMPDEST DUP3 ADD SWAP2 SWAP1 PUSH1 0x0 MSTORE PUSH1 0x20 PUSH1 0x0 KECCAK256 SWAP1 JUMPDEST DUP2 SLOAD DUP2 MSTORE SWAP1 PUSH1 0x1 ADD SWAP1 PUSH1 0x20 ADD DUP1 DUP4 GT PUSH2 0x833 JUMPI DUP3 SWAP1 SUB PUSH1 0x1F AND DUP3 ADD SWAP2 JUMPDEST POP POP POP POP POP SWAP1 DUP1 PUSH1 0x2 ADD DUP1 SLOAD PUSH2 0x865 SWAP1 PUSH2 0xDF7 JUMP JUMPDEST DUP1 PUSH1 0x1F ADD PUSH1 0x20 DUP1 SWAP2 DIV MUL PUSH1 0x20 ADD PUSH1 0x40 MLOAD SWAP1 DUP2 ADD PUSH1 0x40 MSTORE DUP1 SWAP3 SWAP2 SWAP1 DUP2 DUP2 MSTORE PUSH1 0x20 ADD DUP3 DUP1 SLOAD PUSH2 0x891 SWAP1 PUSH2 0xDF7 JUMP JUMPDEST DUP1 ISZERO PUSH2 0x8DE JUMPI DUP1 PUSH1 0x1F LT PUSH2 0x8B3 JUMPI PUSH2 0x100 DUP1 DUP4 SLOAD DIV MUL DUP4 MSTORE SWAP2 PUSH1 0x20 ADD SWAP2 PUSH2 0x8DE JUMP JUMPDEST DUP3 ADD SWAP2 SWAP1 PUSH1 0x0 MSTORE PUSH1 0x20 PUSH1 0x0 KECCAK256 SWAP1 JUMPDEST DUP2 SLOAD DUP2 MSTORE SWAP1 PUSH1 0x1 ADD SWAP1 PUSH1 0x20 ADD DUP1 DUP4 GT PUSH2 0x8C1 JUMPI DUP3 SWAP1 SUB PUSH1 0x1F AND DUP3 ADD SWAP2 JUMPDEST POP POP POP POP POP SWAP1 DUP1 PUSH1 0x3 ADD SLOAD SWAP1 DUP1 PUSH1 0x4 ADD SLOAD SWAP1 POP DUP6 JUMP JUMPDEST PUSH1 0x4 PUSH1 0x20 MSTORE DUP1 PUSH1 0x0 MSTORE PUSH1 0x40 PUSH1 0x0 KECCAK256 PUSH1 0x0 SWAP2 POP SLOAD SWAP1 PUSH2 0x100 EXP SWAP1 DIV PUSH1 0xFF AND DUP2 JUMP JUMPDEST DUP3 DUP1 SLOAD PUSH2 0x920 SWAP1 PUSH2 0xDF7 JUMP JUMPDEST SWAP1 PUSH1 0x0 MSTORE PUSH1 0x20 PUSH1 0x0 KECCAK256 SWAP1 PUSH1 0x1F ADD PUSH1 0x20 SWAP1 DIV DUP2 ADD SWAP3 DUP3 PUSH2 0x942 JUMPI PUSH1 0x0 DUP6 SSTORE PUSH2 0x989 JUMP JUMPDEST DUP3 PUSH1 0x1F LT PUSH2 0x95B JUMPI DUP1 MLOAD PUSH1 0xFF NOT AND DUP4 DUP1 ADD OR DUP6 SSTORE PUSH2 0x989 JUMP JUMPDEST DUP3 DUP1 ADD PUSH1 0x1 ADD DUP6 SSTORE DUP3 ISZERO PUSH2 0x989 JUMPI SWAP2 DUP3 ADD JUMPDEST DUP3 DUP2 GT ISZERO PUSH2 0x988 JUMPI DUP3 MLOAD DUP3 SSTORE SWAP2 PUSH1 0x20 ADD SWAP2 SWAP1 PUSH1 0x1 ADD SWAP1 PUSH2 0x96D JUMP JUMPDEST JUMPDEST POP SWAP1 POP PUSH2 0x996 SWAP2 SWAP1 PUSH2 0x99A JUMP JUMPDEST POP SWAP1 JUMP JUMPDEST JUMPDEST DUP1 DUP3 GT ISZERO PUSH2 0x9B3 JUMPI PUSH1 0x0 DUP2 PUSH1 0x0 SWAP1 SSTORE POP PUSH1 0x1 ADD PUSH2 0x99B JUMP JUMPDEST POP SWAP1 JUMP JUMPDEST PUSH1 0x0 PUSH2 0x9CA PUSH2 0x9C5 DUP5 PUSH2 0xD53 JUMP JUMPDEST PUSH2 0xD22 JUMP JUMPDEST SWAP1 POP DUP3 DUP2 MSTORE PUSH1 0x20 DUP2 ADD DUP5 DUP5 DUP5 ADD GT ISZERO PUSH2 0x9E2 JUMPI PUSH1 0x0 DUP1 REVERT JUMPDEST PUSH2 0x9ED DUP5 DUP3 DUP6 PUSH2 0xDB5 JUMP JUMPDEST POP SWAP4 SWAP3 POP POP POP JUMP JUMPDEST PUSH1 0x0 DUP3 PUSH1 0x1F DUP4 ADD SLT PUSH2 0xA06 JUMPI PUSH1 0x0 DUP1 REVERT JUMPDEST DUP2 CALLDATALOAD PUSH2 0xA16 DUP5 DUP3 PUSH1 0x20 DUP7 ADD PUSH2 0x9B7 JUMP JUMPDEST SWAP2 POP POP SWAP3 SWAP2 POP POP JUMP JUMPDEST PUSH1 0x0 DUP2 CALLDATALOAD SWAP1 POP PUSH2 0xA2E DUP2 PUSH2 0xF10 JUMP JUMPDEST SWAP3 SWAP2 POP POP JUMP JUMPDEST PUSH1 0x0 DUP1 PUSH1 0x0 PUSH1 0x60 DUP5 DUP7 SUB SLT ISZERO PUSH2 0xA49 JUMPI PUSH1 0x0 DUP1 REVERT JUMPDEST PUSH1 0x0 DUP5 ADD CALLDATALOAD PUSH8 0xFFFFFFFFFFFFFFFF DUP2 GT ISZERO PUSH2 0xA63 JUMPI PUSH1 0x0 DUP1 REVERT JUMPDEST PUSH2 0xA6F DUP7 DUP3 DUP8 ADD PUSH2 0x9F5 JUMP JUMPDEST SWAP4 POP POP PUSH1 0x20 DUP5 ADD CALLDATALOAD PUSH8 0xFFFFFFFFFFFFFFFF DUP2 GT ISZERO PUSH2 0xA8C JUMPI PUSH1 0x0 DUP1 REVERT JUMPDEST PUSH2 0xA98 DUP7 DUP3 DUP8 ADD PUSH2 0x9F5 JUMP JUMPDEST SWAP3 POP POP PUSH1 0x40 PUSH2 0xAA9 DUP7 DUP3 DUP8 ADD PUSH2 0xA1F JUMP JUMPDEST SWAP2 POP POP SWAP3 POP SWAP3 POP SWAP3 JUMP JUMPDEST PUSH1 0x0 PUSH1 0x20 DUP3 DUP5 SUB SLT ISZERO PUSH2 0xAC5 JUMPI PUSH1 0x0 DUP1 REVERT JUMPDEST PUSH1 0x0 PUSH2 0xAD3 DUP5 DUP3 DUP6 ADD PUSH2 0xA1F JUMP JUMPDEST SWAP2 POP POP SWAP3 SWAP2 POP POP JUMP JUMPDEST PUSH1 0x0 DUP1 PUSH1 0x0 PUSH1 0x60 DUP5 DUP7 SUB SLT ISZERO PUSH2 0xAF1 JUMPI PUSH1 0x0 DUP1 REVERT JUMPDEST PUSH1 0x0 PUSH2 0xAFF DUP7 DUP3 DUP8 ADD PUSH2 0xA1F JUMP JUMPDEST SWAP4 POP POP PUSH1 0x20 PUSH2 0xB10 DUP7 DUP3 DUP8 ADD PUSH2 0xA1F JUMP JUMPDEST SWAP3 POP POP PUSH1 0x40 DUP5 ADD CALLDATALOAD PUSH8 0xFFFFFFFFFFFFFFFF DUP2 GT ISZERO PUSH2 0xB2D JUMPI PUSH1 0x0 DUP1 REVERT JUMPDEST PUSH2 0xB39 DUP7 DUP3 DUP8 ADD PUSH2 0x9F5 JUMP JUMPDEST SWAP2 POP POP SWAP3 POP SWAP3 POP SWAP3 JUMP JUMPDEST PUSH2 0xB4C DUP2 PUSH2 0xD9F JUMP JUMPDEST DUP3 MSTORE POP POP JUMP JUMPDEST PUSH1 0x0 PUSH2 0xB5D DUP3 PUSH2 0xD83 JUMP JUMPDEST PUSH2 0xB67 DUP2 DUP6 PUSH2 0xD8E JUMP JUMPDEST SWAP4 POP PUSH2 0xB77 DUP2 DUP6 PUSH1 0x20 DUP7 ADD PUSH2 0xDC4 JUMP JUMPDEST PUSH2 0xB80 DUP2 PUSH2 0xEFF JUMP JUMPDEST DUP5 ADD SWAP2 POP POP SWAP3 SWAP2 POP POP JUMP JUMPDEST PUSH1 0x0 PUSH2 0xB98 PUSH1 0xF DUP4 PUSH2 0xD8E JUMP JUMPDEST SWAP2 POP PUSH32 0x416C726561647920457869737465640000000000000000000000000000000000 PUSH1 0x0 DUP4 ADD MSTORE PUSH1 0x20 DUP3 ADD SWAP1 POP SWAP2 SWAP1 POP JUMP JUMPDEST PUSH1 0x0 PUSH2 0xBD8 PUSH1 0x11 DUP4 PUSH2 0xD8E JUMP JUMPDEST SWAP2 POP PUSH32 0x4E6F207365617420617661696C61626C65000000000000000000000000000000 PUSH1 0x0 DUP4 ADD MSTORE PUSH1 0x20 DUP3 ADD SWAP1 POP SWAP2 SWAP1 POP JUMP JUMPDEST PUSH2 0xC14 DUP2 PUSH2 0xDAB JUMP JUMPDEST DUP3 MSTORE POP POP JUMP JUMPDEST PUSH1 0x0 PUSH1 0x20 DUP3 ADD SWAP1 POP PUSH2 0xC2F PUSH1 0x0 DUP4 ADD DUP5 PUSH2 0xB43 JUMP JUMPDEST SWAP3 SWAP2 POP POP JUMP JUMPDEST PUSH1 0x0 PUSH1 0x20 DUP3 ADD SWAP1 POP DUP2 DUP2 SUB PUSH1 0x0 DUP4 ADD MSTORE PUSH2 0xC4E DUP2 PUSH2 0xB8B JUMP JUMPDEST SWAP1 POP SWAP2 SWAP1 POP JUMP JUMPDEST PUSH1 0x0 PUSH1 0x20 DUP3 ADD SWAP1 POP DUP2 DUP2 SUB PUSH1 0x0 DUP4 ADD MSTORE PUSH2 0xC6E DUP2 PUSH2 0xBCB JUMP JUMPDEST SWAP1 POP SWAP2 SWAP1 POP JUMP JUMPDEST PUSH1 0x0 PUSH1 0xA0 DUP3 ADD SWAP1 POP PUSH2 0xC8A PUSH1 0x0 DUP4 ADD DUP9 PUSH2 0xC0B JUMP JUMPDEST DUP2 DUP2 SUB PUSH1 0x20 DUP4 ADD MSTORE PUSH2 0xC9C DUP2 DUP8 PUSH2 0xB52 JUMP JUMPDEST SWAP1 POP DUP2 DUP2 SUB PUSH1 0x40 DUP4 ADD MSTORE PUSH2 0xCB0 DUP2 DUP7 PUSH2 0xB52 JUMP JUMPDEST SWAP1 POP PUSH2 0xCBF PUSH1 0x60 DUP4 ADD DUP6 PUSH2 0xC0B JUMP JUMPDEST PUSH2 0xCCC PUSH1 0x80 DUP4 ADD DUP5 PUSH2 0xC0B JUMP JUMPDEST SWAP7 SWAP6 POP POP POP POP POP POP JUMP JUMPDEST PUSH1 0x0 PUSH1 0x80 DUP3 ADD SWAP1 POP PUSH2 0xCEB PUSH1 0x0 DUP4 ADD DUP8 PUSH2 0xC0B JUMP JUMPDEST DUP2 DUP2 SUB PUSH1 0x20 DUP4 ADD MSTORE PUSH2 0xCFD DUP2 DUP7 PUSH2 0xB52 JUMP JUMPDEST SWAP1 POP PUSH2 0xD0C PUSH1 0x40 DUP4 ADD DUP6 PUSH2 0xC0B JUMP JUMPDEST PUSH2 0xD19 PUSH1 0x60 DUP4 ADD DUP5 PUSH2 0xB43 JUMP JUMPDEST SWAP6 SWAP5 POP POP POP POP POP JUMP JUMPDEST PUSH1 0x0 PUSH1 0x40 MLOAD SWAP1 POP DUP2 DUP2 ADD DUP2 DUP2 LT PUSH8 0xFFFFFFFFFFFFFFFF DUP3 GT OR ISZERO PUSH2 0xD49 JUMPI PUSH2 0xD48 PUSH2 0xED0 JUMP JUMPDEST JUMPDEST DUP1 PUSH1 0x40 MSTORE POP SWAP2 SWAP1 POP JUMP JUMPDEST PUSH1 0x0 PUSH8 0xFFFFFFFFFFFFFFFF DUP3 GT ISZERO PUSH2 0xD6E JUMPI PUSH2 0xD6D PUSH2 0xED0 JUMP JUMPDEST JUMPDEST PUSH1 0x1F NOT PUSH1 0x1F DUP4 ADD AND SWAP1 POP PUSH1 0x20 DUP2 ADD SWAP1 POP SWAP2 SWAP1 POP JUMP JUMPDEST PUSH1 0x0 DUP2 MLOAD SWAP1 POP SWAP2 SWAP1 POP JUMP JUMPDEST PUSH1 0x0 DUP3 DUP3 MSTORE PUSH1 0x20 DUP3 ADD SWAP1 POP SWAP3 SWAP2 POP POP JUMP JUMPDEST PUSH1 0x0 DUP2 ISZERO ISZERO SWAP1 POP SWAP2 SWAP1 POP JUMP JUMPDEST PUSH1 0x0 DUP2 SWAP1 POP SWAP2 SWAP1 POP JUMP JUMPDEST DUP3 DUP2 DUP4 CALLDATACOPY PUSH1 0x0 DUP4 DUP4 ADD MSTORE POP POP POP JUMP JUMPDEST PUSH1 0x0 JUMPDEST DUP4 DUP2 LT ISZERO PUSH2 0xDE2 JUMPI DUP1 DUP3 ADD MLOAD DUP2 DUP5 ADD MSTORE PUSH1 0x20 DUP2 ADD SWAP1 POP PUSH2 0xDC7 JUMP JUMPDEST DUP4 DUP2 GT ISZERO PUSH2 0xDF1 JUMPI PUSH1 0x0 DUP5 DUP5 ADD MSTORE JUMPDEST POP POP POP POP JUMP JUMPDEST PUSH1 0x0 PUSH1 0x2 DUP3 DIV SWAP1 POP PUSH1 0x1 DUP3 AND DUP1 PUSH2 0xE0F JUMPI PUSH1 0x7F DUP3 AND SWAP2 POP JUMPDEST PUSH1 0x20 DUP3 LT DUP2 EQ ISZERO PUSH2 0xE23 JUMPI PUSH2 0xE22 PUSH2 0xEA1 JUMP JUMPDEST JUMPDEST POP SWAP2 SWAP1 POP JUMP JUMPDEST PUSH1 0x0 PUSH2 0xE34 DUP3 PUSH2 0xDAB JUMP JUMPDEST SWAP2 POP PUSH32 0xFFFFFFFFFFFFFFFFFFFFFFFFFFFFFFFFFFFFFFFFFFFFFFFFFFFFFFFFFFFFFFFF DUP3 EQ ISZERO PUSH2 0xE67 JUMPI PUSH2 0xE66 PUSH2 0xE72 JUMP JUMPDEST JUMPDEST PUSH1 0x1 DUP3 ADD SWAP1 POP SWAP2 SWAP1 POP JUMP JUMPDEST PUSH32 0x4E487B7100000000000000000000000000000000000000000000000000000000 PUSH1 0x0 MSTORE PUSH1 0x11 PUSH1 0x4 MSTORE PUSH1 0x24 PUSH1 0x0 REVERT JUMPDEST PUSH32 0x4E487B7100000000000000000000000000000000000000000000000000000000 PUSH1 0x0 MSTORE PUSH1 0x22 PUSH1 0x4 MSTORE PUSH1 0x24 PUSH1 0x0 REVERT JUMPDEST PUSH32 0x4E487B7100000000000000000000000000000000000000000000000000000000 PUSH1 0x0 MSTORE PUSH1 0x41 PUSH1 0x4 MSTORE PUSH1 0x24 PUSH1 0x0 REVERT JUMPDEST PUSH1 0x0 PUSH1 0x1F NOT PUSH1 0x1F DUP4 ADD AND SWAP1 POP SWAP2 SWAP1 POP JUMP JUMPDEST PUSH2 0xF19 DUP2 PUSH2 0xDAB JUMP JUMPDEST DUP2 EQ PUSH2 0xF24 JUMPI PUSH1 0x0 DUP1 REVERT JUMPDEST POP JUMP INVALID LOG2 PUSH5 0x6970667358 0x22 SLT KECCAK256 0xBB 0x5C SWAP7 SELFDESTRUCT PUSH13 0x4FE8EB84C7D5BF86F0CBB015BE JUMP DUP1 PUSH6 0xEEBDE8D9C1E8 PUSH11 0xFA03FA4764736F6C634300 ADDMOD STOP STOP CALLER "
				},
				"gasEstimates": {
					"creation": {
						"codeDepositCost": "786600",
						"executionCost": "818",
						"totalCost": "787418"
					},
					"external": {
						"addCourse(string,string,uint256)": "infinite",
						"addStudent_Course(uint256,uint256,string)": "infinite",
						"courses(uint256)": "infinite",
						"getCourseDetails(uint256)": "infinite",
						"getStudentDetails(uint256)": "infinite",
						"isStudentExist(uint256)": "1562",
						"students(uint256)": "infinite"
					}
				},
				"methodIdentifiers": {
					"addCourse(string,string,uint256)": "44a8ef19",
					"addStudent_Course(uint256,uint256,string)": "79b5c147",
					"courses(uint256)": "96f979d2",
					"getCourseDetails(uint256)": "610b31a6",
					"getStudentDetails(uint256)": "86a9b364",
					"isStudentExist(uint256)": "e9da9579",
					"students(uint256)": "06ead22e"
				}
			},
			"storageLayout": {
				"storage": [
					{
						"astId": 23,
						"contract": "Practice/CourseRegistration.sol:CourseRegistration",
						"label": "totalCourses",
						"offset": 0,
						"slot": "0",
						"type": "t_uint256"
					},
					{
						"astId": 25,
						"contract": "Practice/CourseRegistration.sol:CourseRegistration",
						"label": "totalStudents",
						"offset": 0,
						"slot": "1",
						"type": "t_uint256"
					},
					{
						"astId": 30,
						"contract": "Practice/CourseRegistration.sol:CourseRegistration",
						"label": "courses",
						"offset": 0,
						"slot": "2",
						"type": "t_mapping(t_uint256,t_struct(Course)12_storage)"
					},
					{
						"astId": 35,
						"contract": "Practice/CourseRegistration.sol:CourseRegistration",
						"label": "students",
						"offset": 0,
						"slot": "3",
						"type": "t_mapping(t_uint256,t_struct(Student)21_storage)"
					},
					{
						"astId": 39,
						"contract": "Practice/CourseRegistration.sol:CourseRegistration",
						"label": "isStudentExist",
						"offset": 0,
						"slot": "4",
						"type": "t_mapping(t_uint256,t_bool)"
					}
				],
				"types": {
					"t_bool": {
						"encoding": "inplace",
						"label": "bool",
						"numberOfBytes": "1"
					},
					"t_mapping(t_uint256,t_bool)": {
						"encoding": "mapping",
						"key": "t_uint256",
						"label": "mapping(uint256 => bool)",
						"numberOfBytes": "32",
						"value": "t_bool"
					},
					"t_mapping(t_uint256,t_struct(Course)12_storage)": {
						"encoding": "mapping",
						"key": "t_uint256",
						"label": "mapping(uint256 => struct CourseRegistration.Course)",
						"numberOfBytes": "32",
						"value": "t_struct(Course)12_storage"
					},
					"t_mapping(t_uint256,t_struct(Student)21_storage)": {
						"encoding": "mapping",
						"key": "t_uint256",
						"label": "mapping(uint256 => struct CourseRegistration.Student)",
						"numberOfBytes": "32",
						"value": "t_struct(Student)21_storage"
					},
					"t_string_storage": {
						"encoding": "bytes",
						"label": "string",
						"numberOfBytes": "32"
					},
					"t_struct(Course)12_storage": {
						"encoding": "inplace",
						"label": "struct CourseRegistration.Course",
						"members": [
							{
								"astId": 3,
								"contract": "Practice/CourseRegistration.sol:CourseRegistration",
								"label": "courseId",
								"offset": 0,
								"slot": "0",
								"type": "t_uint256"
							},
							{
								"astId": 5,
								"contract": "Practice/CourseRegistration.sol:CourseRegistration",
								"label": "courseName",
								"offset": 0,
								"slot": "1",
								"type": "t_string_storage"
							},
							{
								"astId": 7,
								"contract": "Practice/CourseRegistration.sol:CourseRegistration",
								"label": "teacherName",
								"offset": 0,
								"slot": "2",
								"type": "t_string_storage"
							},
							{
								"astId": 9,
								"contract": "Practice/CourseRegistration.sol:CourseRegistration",
								"label": "totalSeats",
								"offset": 0,
								"slot": "3",
								"type": "t_uint256"
							},
							{
								"astId": 11,
								"contract": "Practice/CourseRegistration.sol:CourseRegistration",
								"label": "enrolledStudents",
								"offset": 0,
								"slot": "4",
								"type": "t_uint256"
							}
						],
						"numberOfBytes": "160"
					},
					"t_struct(Student)21_storage": {
						"encoding": "inplace",
						"label": "struct CourseRegistration.Student",
						"members": [
							{
								"astId": 14,
								"contract": "Practice/CourseRegistration.sol:CourseRegistration",
								"label": "studentId",
								"offset": 0,
								"slot": "0",
								"type": "t_uint256"
							},
							{
								"astId": 16,
								"contract": "Practice/CourseRegistration.sol:CourseRegistration",
								"label": "name",
								"offset": 0,
								"slot": "1",
								"type": "t_string_storage"
							},
							{
								"astId": 18,
								"contract": "Practice/CourseRegistration.sol:CourseRegistration",
								"label": "courseId",
								"offset": 0,
								"slot": "2",
								"type": "t_uint256"
							},
							{
								"astId": 20,
								"contract": "Practice/CourseRegistration.sol:CourseRegistration",
								"label": "enrolled",
								"offset": 0,
								"slot": "3",
								"type": "t_bool"
							}
						],
						"numberOfBytes": "128"
					},
					"t_uint256": {
						"encoding": "inplace",
						"label": "uint256",
						"numberOfBytes": "32"
					}
				}
			},
			"userdoc": {
				"kind": "user",
				"methods": {},
				"version": 1
			}
		}
	}
}