{
	"Practice/calculator.sol": {
		"Calculator": {
			"abi": [
				{
					"anonymous": false,
					"inputs": [
						{
							"indexed": false,
							"internalType": "string",
							"name": "operation",
							"type": "string"
						},
						{
							"indexed": false,
							"internalType": "int256",
							"name": "value",
							"type": "int256"
						},
						{
							"indexed": false,
							"internalType": "int256",
							"name": "result",
							"type": "int256"
						}
					],
					"name": "Calculation",
					"type": "event"
				},
				{
					"inputs": [
						{
							"internalType": "int256",
							"name": "_value",
							"type": "int256"
						}
					],
					"name": "Addvalue",
					"outputs": [],
					"stateMutability": "nonpayable",
					"type": "function"
				},
				{
					"inputs": [
						{
							"internalType": "int256",
							"name": "_value",
							"type": "int256"
						}
					],
					"name": "Dividevalue",
					"outputs": [],
					"stateMutability": "nonpayable",
					"type": "function"
				},
				{
					"inputs": [
						{
							"internalType": "int256",
							"name": "_value",
							"type": "int256"
						}
					],
					"name": "Multiplyvalue",
					"outputs": [],
					"stateMutability": "nonpayable",
					"type": "function"
				},
				{
					"inputs": [
						{
							"internalType": "int256",
							"name": "_value",
							"type": "int256"
						}
					],
					"name": "Subvalue",
					"outputs": [],
					"stateMutability": "nonpayable",
					"type": "function"
				},
				{
					"inputs": [],
					"name": "result",
					"outputs": [
						{
							"internalType": "int256",
							"name": "",
							"type": "int256"
						}
					],
					"stateMutability": "view",
					"type": "function"
				}
			],
			"devdoc": {
				"kind": "dev",
				"methods": {},
				"version": 1
			},
			"evm": {
				"assembly": "    /* \"Practice/calculator.sol\":62:702  contract Calculator{... */\n  mstore(0x40, 0x80)\n  callvalue\n  dup1\n  iszero\n  tag_1\n  jumpi\n  revert(0x00, 0x00)\ntag_1:\n  pop\n  dataSize(sub_0)\n  dup1\n  dataOffset(sub_0)\n  0x00\n  codecopy\n  0x00\n  return\nstop\n\nsub_0: assembly {\n        /* \"Practice/calculator.sol\":62:702  contract Calculator{... */\n      mstore(0x40, 0x80)\n      callvalue\n      dup1\n      iszero\n      tag_1\n      jumpi\n      revert(0x00, 0x00)\n    tag_1:\n      pop\n      jumpi(tag_2, lt(calldatasize, 0x04))\n      shr(0xe0, calldataload(0x00))\n      dup1\n      0x4c6fd457\n      eq\n      tag_3\n      jumpi\n      dup1\n      0x65372147\n      eq\n      tag_4\n      jumpi\n      dup1\n      0x791de1c1\n      eq\n      tag_5\n      jumpi\n      dup1\n      0x8e319499\n      eq\n      tag_6\n      jumpi\n      dup1\n      0x9344c80e\n      eq\n      tag_7\n      jumpi\n    tag_2:\n      revert(0x00, 0x00)\n        /* \"Practice/calculator.sol\":183:304  function Addvalue(int _value) public{... */\n    tag_3:\n      tag_8\n      0x04\n      dup1\n      calldatasize\n      sub\n      dup2\n      add\n      swap1\n      tag_9\n      swap2\n      swap1\n      tag_10\n      jump\t// in\n    tag_9:\n      tag_11\n      jump\t// in\n    tag_8:\n      stop\n        /* \"Practice/calculator.sol\":90:107  int public result */\n    tag_4:\n      tag_12\n      tag_13\n      jump\t// in\n    tag_12:\n      mload(0x40)\n      tag_14\n      swap2\n      swap1\n      tag_15\n      jump\t// in\n    tag_14:\n      mload(0x40)\n      dup1\n      swap2\n      sub\n      swap1\n      return\n        /* \"Practice/calculator.sol\":579:699  function Subvalue(int _value) public{... */\n    tag_5:\n      tag_16\n      0x04\n      dup1\n      calldatasize\n      sub\n      dup2\n      add\n      swap1\n      tag_17\n      swap2\n      swap1\n      tag_10\n      jump\t// in\n    tag_17:\n      tag_18\n      jump\t// in\n    tag_16:\n      stop\n        /* \"Practice/calculator.sol\":312:440  function Multiplyvalue(int _value) public{... */\n    tag_6:\n      tag_19\n      0x04\n      dup1\n      calldatasize\n      sub\n      dup2\n      add\n      swap1\n      tag_20\n      swap2\n      swap1\n      tag_10\n      jump\t// in\n    tag_20:\n      tag_21\n      jump\t// in\n    tag_19:\n      stop\n        /* \"Practice/calculator.sol\":448:571  function Dividevalue(int _value) public{... */\n    tag_7:\n      tag_22\n      0x04\n      dup1\n      calldatasize\n      sub\n      dup2\n      add\n      swap1\n      tag_23\n      swap2\n      swap1\n      tag_10\n      jump\t// in\n    tag_23:\n      tag_24\n      jump\t// in\n    tag_22:\n      stop\n        /* \"Practice/calculator.sol\":183:304  function Addvalue(int _value) public{... */\n    tag_11:\n        /* \"Practice/calculator.sol\":240:246  _value */\n      dup1\n        /* \"Practice/calculator.sol\":230:236  result */\n      0x00\n      0x00\n        /* \"Practice/calculator.sol\":230:246  result += _value */\n      dup3\n      dup3\n      sload\n      tag_26\n      swap2\n      swap1\n      tag_27\n      jump\t// in\n    tag_26:\n      swap3\n      pop\n      pop\n      dup2\n      swap1\n      sstore\n      pop\n        /* \"Practice/calculator.sol\":262:296  Calculation(\"ADD\", _value, result) */\n      0x7e2eddc0994480eaebb6a2283f265e0bbb4c403a3904e3a796a535a785c52cb9\n        /* \"Practice/calculator.sol\":281:287  _value */\n      dup2\n        /* \"Practice/calculator.sol\":289:295  result */\n      sload(0x00)\n        /* \"Practice/calculator.sol\":262:296  Calculation(\"ADD\", _value, result) */\n      mload(0x40)\n      tag_28\n      swap3\n      swap2\n      swap1\n      tag_29\n      jump\t// in\n    tag_28:\n      mload(0x40)\n      dup1\n      swap2\n      sub\n      swap1\n      log1\n        /* \"Practice/calculator.sol\":183:304  function Addvalue(int _value) public{... */\n      pop\n      jump\t// out\n        /* \"Practice/calculator.sol\":90:107  int public result */\n    tag_13:\n      sload(0x00)\n      dup2\n      jump\t// out\n        /* \"Practice/calculator.sol\":579:699  function Subvalue(int _value) public{... */\n    tag_18:\n        /* \"Practice/calculator.sol\":635:641  _value */\n      dup1\n        /* \"Practice/calculator.sol\":626:632  result */\n      0x00\n      0x00\n        /* \"Practice/calculator.sol\":626:641  result-= _value */\n      dup3\n      dup3\n      sload\n      tag_31\n      swap2\n      swap1\n      tag_32\n      jump\t// in\n    tag_31:\n      swap3\n      pop\n      pop\n      dup2\n      swap1\n      sstore\n      pop\n        /* \"Practice/calculator.sol\":657:691  Calculation(\"SUB\", _value, result) */\n      0x7e2eddc0994480eaebb6a2283f265e0bbb4c403a3904e3a796a535a785c52cb9\n        /* \"Practice/calculator.sol\":676:682  _value */\n      dup2\n        /* \"Practice/calculator.sol\":684:690  result */\n      sload(0x00)\n        /* \"Practice/calculator.sol\":657:691  Calculation(\"SUB\", _value, result) */\n      mload(0x40)\n      tag_33\n      swap3\n      swap2\n      swap1\n      tag_34\n      jump\t// in\n    tag_33:\n      mload(0x40)\n      dup1\n      swap2\n      sub\n      swap1\n      log1\n        /* \"Practice/calculator.sol\":579:699  function Subvalue(int _value) public{... */\n      pop\n      jump\t// out\n        /* \"Practice/calculator.sol\":312:440  function Multiplyvalue(int _value) public{... */\n    tag_21:\n        /* \"Practice/calculator.sol\":374:380  _value */\n      dup1\n        /* \"Practice/calculator.sol\":364:370  result */\n      0x00\n      0x00\n        /* \"Practice/calculator.sol\":364:380  result *= _value */\n      dup3\n      dup3\n      sload\n      tag_36\n      swap2\n      swap1\n      tag_37\n      jump\t// in\n    tag_36:\n      swap3\n      pop\n      pop\n      dup2\n      swap1\n      sstore\n      pop\n        /* \"Practice/calculator.sol\":396:432  Calculation(\"MULTI\", _value, result) */\n      0x7e2eddc0994480eaebb6a2283f265e0bbb4c403a3904e3a796a535a785c52cb9\n        /* \"Practice/calculator.sol\":417:423  _value */\n      dup2\n        /* \"Practice/calculator.sol\":425:431  result */\n      sload(0x00)\n        /* \"Practice/calculator.sol\":396:432  Calculation(\"MULTI\", _value, result) */\n      mload(0x40)\n      tag_38\n      swap3\n      swap2\n      swap1\n      tag_39\n      jump\t// in\n    tag_38:\n      mload(0x40)\n      dup1\n      swap2\n      sub\n      swap1\n      log1\n        /* \"Practice/calculator.sol\":312:440  function Multiplyvalue(int _value) public{... */\n      pop\n      jump\t// out\n        /* \"Practice/calculator.sol\":448:571  function Dividevalue(int _value) public{... */\n    tag_24:\n        /* \"Practice/calculator.sol\":507:513  _value */\n      dup1\n        /* \"Practice/calculator.sol\":498:504  result */\n      0x00\n      0x00\n        /* \"Practice/calculator.sol\":498:513  result/= _value */\n      dup3\n      dup3\n      sload\n      tag_41\n      swap2\n      swap1\n      tag_42\n      jump\t// in\n    tag_41:\n      swap3\n      pop\n      pop\n      dup2\n      swap1\n      sstore\n      pop\n        /* \"Practice/calculator.sol\":529:563  Calculation(\"DIV\", _value, result) */\n      0x7e2eddc0994480eaebb6a2283f265e0bbb4c403a3904e3a796a535a785c52cb9\n        /* \"Practice/calculator.sol\":548:554  _value */\n      dup2\n        /* \"Practice/calculator.sol\":556:562  result */\n      sload(0x00)\n        /* \"Practice/calculator.sol\":529:563  Calculation(\"DIV\", _value, result) */\n      mload(0x40)\n      tag_43\n      swap3\n      swap2\n      swap1\n      tag_44\n      jump\t// in\n    tag_43:\n      mload(0x40)\n      dup1\n      swap2\n      sub\n      swap1\n      log1\n        /* \"Practice/calculator.sol\":448:571  function Dividevalue(int _value) public{... */\n      pop\n      jump\t// out\n        /* \"#utility.yul\":88:205   */\n    tag_46:\n        /* \"#utility.yul\":197:198   */\n      0x00\n        /* \"#utility.yul\":194:195   */\n      0x00\n        /* \"#utility.yul\":187:199   */\n      revert\n        /* \"#utility.yul\":334:410   */\n    tag_48:\n        /* \"#utility.yul\":370:377   */\n      0x00\n        /* \"#utility.yul\":399:404   */\n      dup2\n        /* \"#utility.yul\":388:404   */\n      swap1\n      pop\n        /* \"#utility.yul\":334:410   */\n      swap2\n      swap1\n      pop\n      jump\t// out\n        /* \"#utility.yul\":416:536   */\n    tag_49:\n        /* \"#utility.yul\":488:511   */\n      tag_69\n        /* \"#utility.yul\":505:510   */\n      dup2\n        /* \"#utility.yul\":488:511   */\n      tag_48\n      jump\t// in\n    tag_69:\n        /* \"#utility.yul\":481:486   */\n      dup2\n        /* \"#utility.yul\":478:512   */\n      eq\n        /* \"#utility.yul\":468:530   */\n      tag_70\n      jumpi\n        /* \"#utility.yul\":526:527   */\n      0x00\n        /* \"#utility.yul\":523:524   */\n      0x00\n        /* \"#utility.yul\":516:528   */\n      revert\n        /* \"#utility.yul\":468:530   */\n    tag_70:\n        /* \"#utility.yul\":416:536   */\n      pop\n      jump\t// out\n        /* \"#utility.yul\":542:679   */\n    tag_50:\n        /* \"#utility.yul\":587:592   */\n      0x00\n        /* \"#utility.yul\":625:631   */\n      dup2\n        /* \"#utility.yul\":612:632   */\n      calldataload\n        /* \"#utility.yul\":603:632   */\n      swap1\n      pop\n        /* \"#utility.yul\":641:673   */\n      tag_72\n        /* \"#utility.yul\":667:672   */\n      dup2\n        /* \"#utility.yul\":641:673   */\n      tag_49\n      jump\t// in\n    tag_72:\n        /* \"#utility.yul\":542:679   */\n      swap3\n      swap2\n      pop\n      pop\n      jump\t// out\n        /* \"#utility.yul\":685:1012   */\n    tag_10:\n        /* \"#utility.yul\":743:749   */\n      0x00\n        /* \"#utility.yul\":792:794   */\n      0x20\n        /* \"#utility.yul\":780:789   */\n      dup3\n        /* \"#utility.yul\":771:778   */\n      dup5\n        /* \"#utility.yul\":767:790   */\n      sub\n        /* \"#utility.yul\":763:795   */\n      slt\n        /* \"#utility.yul\":760:879   */\n      iszero\n      tag_74\n      jumpi\n        /* \"#utility.yul\":798:877   */\n      tag_75\n      tag_46\n      jump\t// in\n    tag_75:\n        /* \"#utility.yul\":760:879   */\n    tag_74:\n        /* \"#utility.yul\":918:919   */\n      0x00\n        /* \"#utility.yul\":943:995   */\n      tag_76\n        /* \"#utility.yul\":987:994   */\n      dup5\n        /* \"#utility.yul\":978:984   */\n      dup3\n        /* \"#utility.yul\":967:976   */\n      dup6\n        /* \"#utility.yul\":963:985   */\n      add\n        /* \"#utility.yul\":943:995   */\n      tag_50\n      jump\t// in\n    tag_76:\n        /* \"#utility.yul\":933:995   */\n      swap2\n      pop\n        /* \"#utility.yul\":889:1005   */\n      pop\n        /* \"#utility.yul\":685:1012   */\n      swap3\n      swap2\n      pop\n      pop\n      jump\t// out\n        /* \"#utility.yul\":1018:1133   */\n    tag_51:\n        /* \"#utility.yul\":1103:1126   */\n      tag_78\n        /* \"#utility.yul\":1120:1125   */\n      dup2\n        /* \"#utility.yul\":1103:1126   */\n      tag_48\n      jump\t// in\n    tag_78:\n        /* \"#utility.yul\":1098:1101   */\n      dup3\n        /* \"#utility.yul\":1091:1127   */\n      mstore\n        /* \"#utility.yul\":1018:1133   */\n      pop\n      pop\n      jump\t// out\n        /* \"#utility.yul\":1139:1357   */\n    tag_15:\n        /* \"#utility.yul\":1230:1234   */\n      0x00\n        /* \"#utility.yul\":1268:1270   */\n      0x20\n        /* \"#utility.yul\":1257:1266   */\n      dup3\n        /* \"#utility.yul\":1253:1271   */\n      add\n        /* \"#utility.yul\":1245:1271   */\n      swap1\n      pop\n        /* \"#utility.yul\":1281:1350   */\n      tag_80\n        /* \"#utility.yul\":1347:1348   */\n      0x00\n        /* \"#utility.yul\":1336:1345   */\n      dup4\n        /* \"#utility.yul\":1332:1349   */\n      add\n        /* \"#utility.yul\":1323:1329   */\n      dup5\n        /* \"#utility.yul\":1281:1350   */\n      tag_51\n      jump\t// in\n    tag_80:\n        /* \"#utility.yul\":1139:1357   */\n      swap3\n      swap2\n      pop\n      pop\n      jump\t// out\n        /* \"#utility.yul\":1363:1543   */\n    tag_52:\n        /* \"#utility.yul\":1411:1488   */\n      0x4e487b7100000000000000000000000000000000000000000000000000000000\n        /* \"#utility.yul\":1408:1409   */\n      0x00\n        /* \"#utility.yul\":1401:1489   */\n      mstore\n        /* \"#utility.yul\":1508:1512   */\n      0x11\n        /* \"#utility.yul\":1505:1506   */\n      0x04\n        /* \"#utility.yul\":1498:1513   */\n      mstore\n        /* \"#utility.yul\":1532:1536   */\n      0x24\n        /* \"#utility.yul\":1529:1530   */\n      0x00\n        /* \"#utility.yul\":1522:1537   */\n      revert\n        /* \"#utility.yul\":1549:1924   */\n    tag_27:\n        /* \"#utility.yul\":1588:1591   */\n      0x00\n        /* \"#utility.yul\":1607:1626   */\n      tag_83\n        /* \"#utility.yul\":1624:1625   */\n      dup3\n        /* \"#utility.yul\":1607:1626   */\n      tag_48\n      jump\t// in\n    tag_83:\n        /* \"#utility.yul\":1602:1626   */\n      swap2\n      pop\n        /* \"#utility.yul\":1640:1659   */\n      tag_84\n        /* \"#utility.yul\":1657:1658   */\n      dup4\n        /* \"#utility.yul\":1640:1659   */\n      tag_48\n      jump\t// in\n    tag_84:\n        /* \"#utility.yul\":1635:1659   */\n      swap3\n      pop\n        /* \"#utility.yul\":1682:1683   */\n      dup3\n        /* \"#utility.yul\":1679:1680   */\n      dup3\n        /* \"#utility.yul\":1675:1684   */\n      add\n        /* \"#utility.yul\":1668:1684   */\n      swap1\n      pop\n        /* \"#utility.yul\":1880:1881   */\n      dup3\n        /* \"#utility.yul\":1875:1878   */\n      dup2\n        /* \"#utility.yul\":1871:1882   */\n      slt\n        /* \"#utility.yul\":1864:1883   */\n      iszero\n        /* \"#utility.yul\":1860:1861   */\n      0x00\n        /* \"#utility.yul\":1857:1858   */\n      dup4\n        /* \"#utility.yul\":1853:1862   */\n      slt\n        /* \"#utility.yul\":1849:1884   */\n      and\n        /* \"#utility.yul\":1832:1833   */\n      dup4\n        /* \"#utility.yul\":1827:1830   */\n      dup3\n        /* \"#utility.yul\":1823:1834   */\n      slt\n        /* \"#utility.yul\":1818:1819   */\n      0x00\n        /* \"#utility.yul\":1815:1816   */\n      dup5\n        /* \"#utility.yul\":1811:1820   */\n      slt\n        /* \"#utility.yul\":1804:1821   */\n      iszero\n        /* \"#utility.yul\":1800:1835   */\n      and\n        /* \"#utility.yul\":1784:1894   */\n      or\n        /* \"#utility.yul\":1781:1917   */\n      iszero\n      tag_85\n      jumpi\n        /* \"#utility.yul\":1897:1915   */\n      tag_86\n      tag_52\n      jump\t// in\n    tag_86:\n        /* \"#utility.yul\":1781:1917   */\n    tag_85:\n        /* \"#utility.yul\":1549:1924   */\n      swap3\n      swap2\n      pop\n      pop\n      jump\t// out\n        /* \"#utility.yul\":1930:2099   */\n    tag_53:\n        /* \"#utility.yul\":2014:2025   */\n      0x00\n        /* \"#utility.yul\":2048:2054   */\n      dup3\n        /* \"#utility.yul\":2043:2046   */\n      dup3\n        /* \"#utility.yul\":2036:2055   */\n      mstore\n        /* \"#utility.yul\":2088:2092   */\n      0x20\n        /* \"#utility.yul\":2083:2086   */\n      dup3\n        /* \"#utility.yul\":2079:2093   */\n      add\n        /* \"#utility.yul\":2064:2093   */\n      swap1\n      pop\n        /* \"#utility.yul\":1930:2099   */\n      swap3\n      swap2\n      pop\n      pop\n      jump\t// out\n        /* \"#utility.yul\":2105:2258   */\n    tag_54:\n        /* \"#utility.yul\":2245:2250   */\n      0x4144440000000000000000000000000000000000000000000000000000000000\n        /* \"#utility.yul\":2241:2242   */\n      0x00\n        /* \"#utility.yul\":2233:2239   */\n      dup3\n        /* \"#utility.yul\":2229:2243   */\n      add\n        /* \"#utility.yul\":2222:2251   */\n      mstore\n        /* \"#utility.yul\":2105:2258   */\n      pop\n      jump\t// out\n        /* \"#utility.yul\":2264:2629   */\n    tag_55:\n        /* \"#utility.yul\":2406:2409   */\n      0x00\n        /* \"#utility.yul\":2427:2493   */\n      tag_90\n        /* \"#utility.yul\":2491:2492   */\n      0x03\n        /* \"#utility.yul\":2486:2489   */\n      dup4\n        /* \"#utility.yul\":2427:2493   */\n      tag_53\n      jump\t// in\n    tag_90:\n        /* \"#utility.yul\":2420:2493   */\n      swap2\n      pop\n        /* \"#utility.yul\":2502:2595   */\n      tag_91\n        /* \"#utility.yul\":2591:2594   */\n      dup3\n        /* \"#utility.yul\":2502:2595   */\n      tag_54\n      jump\t// in\n    tag_91:\n        /* \"#utility.yul\":2620:2622   */\n      0x20\n        /* \"#utility.yul\":2615:2618   */\n      dup3\n        /* \"#utility.yul\":2611:2623   */\n      add\n        /* \"#utility.yul\":2604:2623   */\n      swap1\n      pop\n        /* \"#utility.yul\":2264:2629   */\n      swap2\n      swap1\n      pop\n      jump\t// out\n        /* \"#utility.yul\":2635:3266   */\n    tag_29:\n        /* \"#utility.yul\":2853:2857   */\n      0x00\n        /* \"#utility.yul\":2891:2893   */\n      0x60\n        /* \"#utility.yul\":2880:2889   */\n      dup3\n        /* \"#utility.yul\":2876:2894   */\n      add\n        /* \"#utility.yul\":2868:2894   */\n      swap1\n      pop\n        /* \"#utility.yul\":2940:2949   */\n      dup2\n        /* \"#utility.yul\":2934:2938   */\n      dup2\n        /* \"#utility.yul\":2930:2950   */\n      sub\n        /* \"#utility.yul\":2926:2927   */\n      0x00\n        /* \"#utility.yul\":2915:2924   */\n      dup4\n        /* \"#utility.yul\":2911:2928   */\n      add\n        /* \"#utility.yul\":2904:2951   */\n      mstore\n        /* \"#utility.yul\":2968:3099   */\n      tag_93\n        /* \"#utility.yul\":3094:3098   */\n      dup2\n        /* \"#utility.yul\":2968:3099   */\n      tag_55\n      jump\t// in\n    tag_93:\n        /* \"#utility.yul\":2960:3099   */\n      swap1\n      pop\n        /* \"#utility.yul\":3109:3179   */\n      tag_94\n        /* \"#utility.yul\":3175:3177   */\n      0x20\n        /* \"#utility.yul\":3164:3173   */\n      dup4\n        /* \"#utility.yul\":3160:3178   */\n      add\n        /* \"#utility.yul\":3151:3157   */\n      dup6\n        /* \"#utility.yul\":3109:3179   */\n      tag_51\n      jump\t// in\n    tag_94:\n        /* \"#utility.yul\":3189:3259   */\n      tag_95\n        /* \"#utility.yul\":3255:3257   */\n      0x40\n        /* \"#utility.yul\":3244:3253   */\n      dup4\n        /* \"#utility.yul\":3240:3258   */\n      add\n        /* \"#utility.yul\":3231:3237   */\n      dup5\n        /* \"#utility.yul\":3189:3259   */\n      tag_51\n      jump\t// in\n    tag_95:\n        /* \"#utility.yul\":2635:3266   */\n      swap4\n      swap3\n      pop\n      pop\n      pop\n      jump\t// out\n        /* \"#utility.yul\":3272:3644   */\n    tag_32:\n        /* \"#utility.yul\":3311:3315   */\n      0x00\n        /* \"#utility.yul\":3331:3350   */\n      tag_97\n        /* \"#utility.yul\":3348:3349   */\n      dup3\n        /* \"#utility.yul\":3331:3350   */\n      tag_48\n      jump\t// in\n    tag_97:\n        /* \"#utility.yul\":3326:3350   */\n      swap2\n      pop\n        /* \"#utility.yul\":3364:3383   */\n      tag_98\n        /* \"#utility.yul\":3381:3382   */\n      dup4\n        /* \"#utility.yul\":3364:3383   */\n      tag_48\n      jump\t// in\n    tag_98:\n        /* \"#utility.yul\":3359:3383   */\n      swap3\n      pop\n        /* \"#utility.yul\":3407:3408   */\n      dup3\n        /* \"#utility.yul\":3404:3405   */\n      dup3\n        /* \"#utility.yul\":3400:3409   */\n      sub\n        /* \"#utility.yul\":3392:3409   */\n      swap1\n      pop\n        /* \"#utility.yul\":3601:3602   */\n      dup2\n        /* \"#utility.yul\":3595:3599   */\n      dup2\n        /* \"#utility.yul\":3591:3603   */\n      slt\n        /* \"#utility.yul\":3587:3588   */\n      0x00\n        /* \"#utility.yul\":3584:3585   */\n      dup5\n        /* \"#utility.yul\":3580:3589   */\n      slt\n        /* \"#utility.yul\":3576:3604   */\n      and\n        /* \"#utility.yul\":3559:3560   */\n      dup3\n        /* \"#utility.yul\":3553:3557   */\n      dup3\n        /* \"#utility.yul\":3549:3561   */\n      sgt\n        /* \"#utility.yul\":3544:3545   */\n      0x00\n        /* \"#utility.yul\":3541:3542   */\n      dup6\n        /* \"#utility.yul\":3537:3546   */\n      slt\n        /* \"#utility.yul\":3530:3547   */\n      iszero\n        /* \"#utility.yul\":3526:3562   */\n      and\n        /* \"#utility.yul\":3510:3614   */\n      or\n        /* \"#utility.yul\":3507:3637   */\n      iszero\n      tag_99\n      jumpi\n        /* \"#utility.yul\":3617:3635   */\n      tag_100\n      tag_52\n      jump\t// in\n    tag_100:\n        /* \"#utility.yul\":3507:3637   */\n    tag_99:\n        /* \"#utility.yul\":3272:3644   */\n      swap3\n      swap2\n      pop\n      pop\n      jump\t// out\n        /* \"#utility.yul\":3650:3803   */\n    tag_56:\n        /* \"#utility.yul\":3790:3795   */\n      0x5355420000000000000000000000000000000000000000000000000000000000\n        /* \"#utility.yul\":3786:3787   */\n      0x00\n        /* \"#utility.yul\":3778:3784   */\n      dup3\n        /* \"#utility.yul\":3774:3788   */\n      add\n        /* \"#utility.yul\":3767:3796   */\n      mstore\n        /* \"#utility.yul\":3650:3803   */\n      pop\n      jump\t// out\n        /* \"#utility.yul\":3809:4174   */\n    tag_57:\n        /* \"#utility.yul\":3951:3954   */\n      0x00\n        /* \"#utility.yul\":3972:4038   */\n      tag_103\n        /* \"#utility.yul\":4036:4037   */\n      0x03\n        /* \"#utility.yul\":4031:4034   */\n      dup4\n        /* \"#utility.yul\":3972:4038   */\n      tag_53\n      jump\t// in\n    tag_103:\n        /* \"#utility.yul\":3965:4038   */\n      swap2\n      pop\n        /* \"#utility.yul\":4047:4140   */\n      tag_104\n        /* \"#utility.yul\":4136:4139   */\n      dup3\n        /* \"#utility.yul\":4047:4140   */\n      tag_56\n      jump\t// in\n    tag_104:\n        /* \"#utility.yul\":4165:4167   */\n      0x20\n        /* \"#utility.yul\":4160:4163   */\n      dup3\n        /* \"#utility.yul\":4156:4168   */\n      add\n        /* \"#utility.yul\":4149:4168   */\n      swap1\n      pop\n        /* \"#utility.yul\":3809:4174   */\n      swap2\n      swap1\n      pop\n      jump\t// out\n        /* \"#utility.yul\":4180:4811   */\n    tag_34:\n        /* \"#utility.yul\":4398:4402   */\n      0x00\n        /* \"#utility.yul\":4436:4438   */\n      0x60\n        /* \"#utility.yul\":4425:4434   */\n      dup3\n        /* \"#utility.yul\":4421:4439   */\n      add\n        /* \"#utility.yul\":4413:4439   */\n      swap1\n      pop\n        /* \"#utility.yul\":4485:4494   */\n      dup2\n        /* \"#utility.yul\":4479:4483   */\n      dup2\n        /* \"#utility.yul\":4475:4495   */\n      sub\n        /* \"#utility.yul\":4471:4472   */\n      0x00\n        /* \"#utility.yul\":4460:4469   */\n      dup4\n        /* \"#utility.yul\":4456:4473   */\n      add\n        /* \"#utility.yul\":4449:4496   */\n      mstore\n        /* \"#utility.yul\":4513:4644   */\n      tag_106\n        /* \"#utility.yul\":4639:4643   */\n      dup2\n        /* \"#utility.yul\":4513:4644   */\n      tag_57\n      jump\t// in\n    tag_106:\n        /* \"#utility.yul\":4505:4644   */\n      swap1\n      pop\n        /* \"#utility.yul\":4654:4724   */\n      tag_107\n        /* \"#utility.yul\":4720:4722   */\n      0x20\n        /* \"#utility.yul\":4709:4718   */\n      dup4\n        /* \"#utility.yul\":4705:4723   */\n      add\n        /* \"#utility.yul\":4696:4702   */\n      dup6\n        /* \"#utility.yul\":4654:4724   */\n      tag_51\n      jump\t// in\n    tag_107:\n        /* \"#utility.yul\":4734:4804   */\n      tag_108\n        /* \"#utility.yul\":4800:4802   */\n      0x40\n        /* \"#utility.yul\":4789:4798   */\n      dup4\n        /* \"#utility.yul\":4785:4803   */\n      add\n        /* \"#utility.yul\":4776:4782   */\n      dup5\n        /* \"#utility.yul\":4734:4804   */\n      tag_51\n      jump\t// in\n    tag_108:\n        /* \"#utility.yul\":4180:4811   */\n      swap4\n      swap3\n      pop\n      pop\n      pop\n      jump\t// out\n        /* \"#utility.yul\":4817:5373   */\n    tag_37:\n        /* \"#utility.yul\":4856:4863   */\n      0x00\n        /* \"#utility.yul\":4879:4898   */\n      tag_110\n        /* \"#utility.yul\":4896:4897   */\n      dup3\n        /* \"#utility.yul\":4879:4898   */\n      tag_48\n      jump\t// in\n    tag_110:\n        /* \"#utility.yul\":4874:4898   */\n      swap2\n      pop\n        /* \"#utility.yul\":4912:4931   */\n      tag_111\n        /* \"#utility.yul\":4929:4930   */\n      dup4\n        /* \"#utility.yul\":4912:4931   */\n      tag_48\n      jump\t// in\n    tag_111:\n        /* \"#utility.yul\":4907:4931   */\n      swap3\n      pop\n        /* \"#utility.yul\":4966:4967   */\n      dup3\n        /* \"#utility.yul\":4963:4964   */\n      dup3\n        /* \"#utility.yul\":4959:4968   */\n      mul\n        /* \"#utility.yul\":4988:5017   */\n      tag_112\n        /* \"#utility.yul\":5005:5016   */\n      dup2\n        /* \"#utility.yul\":4988:5017   */\n      tag_48\n      jump\t// in\n    tag_112:\n        /* \"#utility.yul\":4977:5017   */\n      swap2\n      pop\n        /* \"#utility.yul\":5075:5141   */\n      0x8000000000000000000000000000000000000000000000000000000000000000\n        /* \"#utility.yul\":5072:5073   */\n      dup5\n        /* \"#utility.yul\":5069:5142   */\n      eq\n        /* \"#utility.yul\":5065:5066   */\n      0x00\n        /* \"#utility.yul\":5062:5063   */\n      dup5\n        /* \"#utility.yul\":5058:5067   */\n      slt\n        /* \"#utility.yul\":5054:5143   */\n      and\n        /* \"#utility.yul\":5051:5166   */\n      iszero\n      tag_113\n      jumpi\n        /* \"#utility.yul\":5146:5164   */\n      tag_114\n      tag_52\n      jump\t// in\n    tag_114:\n        /* \"#utility.yul\":5051:5166   */\n    tag_113:\n        /* \"#utility.yul\":5316:5317   */\n      dup3\n        /* \"#utility.yul\":5307:5314   */\n      dup3\n        /* \"#utility.yul\":5302:5318   */\n      sdiv\n        /* \"#utility.yul\":5299:5300   */\n      dup5\n        /* \"#utility.yul\":5296:5319   */\n      eq\n        /* \"#utility.yul\":5276:5277   */\n      dup4\n        /* \"#utility.yul\":5269:5278   */\n      iszero\n        /* \"#utility.yul\":5249:5333   */\n      or\n        /* \"#utility.yul\":5226:5366   */\n      tag_115\n      jumpi\n        /* \"#utility.yul\":5346:5364   */\n      tag_116\n      tag_52\n      jump\t// in\n    tag_116:\n        /* \"#utility.yul\":5226:5366   */\n    tag_115:\n        /* \"#utility.yul\":4864:5373   */\n      pop\n        /* \"#utility.yul\":4817:5373   */\n      swap3\n      swap2\n      pop\n      pop\n      jump\t// out\n        /* \"#utility.yul\":5379:5534   */\n    tag_58:\n        /* \"#utility.yul\":5519:5526   */\n      0x4d554c5449000000000000000000000000000000000000000000000000000000\n        /* \"#utility.yul\":5515:5516   */\n      0x00\n        /* \"#utility.yul\":5507:5513   */\n      dup3\n        /* \"#utility.yul\":5503:5517   */\n      add\n        /* \"#utility.yul\":5496:5527   */\n      mstore\n        /* \"#utility.yul\":5379:5534   */\n      pop\n      jump\t// out\n        /* \"#utility.yul\":5540:5905   */\n    tag_59:\n        /* \"#utility.yul\":5682:5685   */\n      0x00\n        /* \"#utility.yul\":5703:5769   */\n      tag_119\n        /* \"#utility.yul\":5767:5768   */\n      0x05\n        /* \"#utility.yul\":5762:5765   */\n      dup4\n        /* \"#utility.yul\":5703:5769   */\n      tag_53\n      jump\t// in\n    tag_119:\n        /* \"#utility.yul\":5696:5769   */\n      swap2\n      pop\n        /* \"#utility.yul\":5778:5871   */\n      tag_120\n        /* \"#utility.yul\":5867:5870   */\n      dup3\n        /* \"#utility.yul\":5778:5871   */\n      tag_58\n      jump\t// in\n    tag_120:\n        /* \"#utility.yul\":5896:5898   */\n      0x20\n        /* \"#utility.yul\":5891:5894   */\n      dup3\n        /* \"#utility.yul\":5887:5899   */\n      add\n        /* \"#utility.yul\":5880:5899   */\n      swap1\n      pop\n        /* \"#utility.yul\":5540:5905   */\n      swap2\n      swap1\n      pop\n      jump\t// out\n        /* \"#utility.yul\":5911:6542   */\n    tag_39:\n        /* \"#utility.yul\":6129:6133   */\n      0x00\n        /* \"#utility.yul\":6167:6169   */\n      0x60\n        /* \"#utility.yul\":6156:6165   */\n      dup3\n        /* \"#utility.yul\":6152:6170   */\n      add\n        /* \"#utility.yul\":6144:6170   */\n      swap1\n      pop\n        /* \"#utility.yul\":6216:6225   */\n      dup2\n        /* \"#utility.yul\":6210:6214   */\n      dup2\n        /* \"#utility.yul\":6206:6226   */\n      sub\n        /* \"#utility.yul\":6202:6203   */\n      0x00\n        /* \"#utility.yul\":6191:6200   */\n      dup4\n        /* \"#utility.yul\":6187:6204   */\n      add\n        /* \"#utility.yul\":6180:6227   */\n      mstore\n        /* \"#utility.yul\":6244:6375   */\n      tag_122\n        /* \"#utility.yul\":6370:6374   */\n      dup2\n        /* \"#utility.yul\":6244:6375   */\n      tag_59\n      jump\t// in\n    tag_122:\n        /* \"#utility.yul\":6236:6375   */\n      swap1\n      pop\n        /* \"#utility.yul\":6385:6455   */\n      tag_123\n        /* \"#utility.yul\":6451:6453   */\n      0x20\n        /* \"#utility.yul\":6440:6449   */\n      dup4\n        /* \"#utility.yul\":6436:6454   */\n      add\n        /* \"#utility.yul\":6427:6433   */\n      dup6\n        /* \"#utility.yul\":6385:6455   */\n      tag_51\n      jump\t// in\n    tag_123:\n        /* \"#utility.yul\":6465:6535   */\n      tag_124\n        /* \"#utility.yul\":6531:6533   */\n      0x40\n        /* \"#utility.yul\":6520:6529   */\n      dup4\n        /* \"#utility.yul\":6516:6534   */\n      add\n        /* \"#utility.yul\":6507:6513   */\n      dup5\n        /* \"#utility.yul\":6465:6535   */\n      tag_51\n      jump\t// in\n    tag_124:\n        /* \"#utility.yul\":5911:6542   */\n      swap4\n      swap3\n      pop\n      pop\n      pop\n      jump\t// out\n        /* \"#utility.yul\":6548:6728   */\n    tag_60:\n        /* \"#utility.yul\":6596:6673   */\n      0x4e487b7100000000000000000000000000000000000000000000000000000000\n        /* \"#utility.yul\":6593:6594   */\n      0x00\n        /* \"#utility.yul\":6586:6674   */\n      mstore\n        /* \"#utility.yul\":6693:6697   */\n      0x12\n        /* \"#utility.yul\":6690:6691   */\n      0x04\n        /* \"#utility.yul\":6683:6698   */\n      mstore\n        /* \"#utility.yul\":6717:6721   */\n      0x24\n        /* \"#utility.yul\":6714:6715   */\n      0x00\n        /* \"#utility.yul\":6707:6722   */\n      revert\n        /* \"#utility.yul\":6734:7119   */\n    tag_42:\n        /* \"#utility.yul\":6773:6774   */\n      0x00\n        /* \"#utility.yul\":6790:6809   */\n      tag_127\n        /* \"#utility.yul\":6807:6808   */\n      dup3\n        /* \"#utility.yul\":6790:6809   */\n      tag_48\n      jump\t// in\n    tag_127:\n        /* \"#utility.yul\":6785:6809   */\n      swap2\n      pop\n        /* \"#utility.yul\":6823:6842   */\n      tag_128\n        /* \"#utility.yul\":6840:6841   */\n      dup4\n        /* \"#utility.yul\":6823:6842   */\n      tag_48\n      jump\t// in\n    tag_128:\n        /* \"#utility.yul\":6818:6842   */\n      swap3\n      pop\n        /* \"#utility.yul\":6861:6862   */\n      dup3\n        /* \"#utility.yul\":6851:6886   */\n      tag_129\n      jumpi\n        /* \"#utility.yul\":6866:6884   */\n      tag_130\n      tag_60\n      jump\t// in\n    tag_130:\n        /* \"#utility.yul\":6851:6886   */\n    tag_129:\n        /* \"#utility.yul\":7052:7053   */\n      0x01\n        /* \"#utility.yul\":7049:7050   */\n      0x00\n        /* \"#utility.yul\":7045:7054   */\n      sub\n        /* \"#utility.yul\":7042:7043   */\n      dup4\n        /* \"#utility.yul\":7039:7055   */\n      eq\n        /* \"#utility.yul\":6958:7024   */\n      0x8000000000000000000000000000000000000000000000000000000000000000\n        /* \"#utility.yul\":6955:6956   */\n      dup4\n        /* \"#utility.yul\":6952:7025   */\n      eq\n        /* \"#utility.yul\":6935:7065   */\n      and\n        /* \"#utility.yul\":6932:7088   */\n      iszero\n      tag_131\n      jumpi\n        /* \"#utility.yul\":7068:7086   */\n      tag_132\n      tag_52\n      jump\t// in\n    tag_132:\n        /* \"#utility.yul\":6932:7088   */\n    tag_131:\n        /* \"#utility.yul\":7111:7112   */\n      dup3\n        /* \"#utility.yul\":7108:7109   */\n      dup3\n        /* \"#utility.yul\":7103:7113   */\n      sdiv\n        /* \"#utility.yul\":7098:7113   */\n      swap1\n      pop\n        /* \"#utility.yul\":6734:7119   */\n      swap3\n      swap2\n      pop\n      pop\n      jump\t// out\n        /* \"#utility.yul\":7125:7278   */\n    tag_61:\n        /* \"#utility.yul\":7265:7270   */\n      0x4449560000000000000000000000000000000000000000000000000000000000\n        /* \"#utility.yul\":7261:7262   */\n      0x00\n        /* \"#utility.yul\":7253:7259   */\n      dup3\n        /* \"#utility.yul\":7249:7263   */\n      add\n        /* \"#utility.yul\":7242:7271   */\n      mstore\n        /* \"#utility.yul\":7125:7278   */\n      pop\n      jump\t// out\n        /* \"#utility.yul\":7284:7649   */\n    tag_62:\n        /* \"#utility.yul\":7426:7429   */\n      0x00\n        /* \"#utility.yul\":7447:7513   */\n      tag_135\n        /* \"#utility.yul\":7511:7512   */\n      0x03\n        /* \"#utility.yul\":7506:7509   */\n      dup4\n        /* \"#utility.yul\":7447:7513   */\n      tag_53\n      jump\t// in\n    tag_135:\n        /* \"#utility.yul\":7440:7513   */\n      swap2\n      pop\n        /* \"#utility.yul\":7522:7615   */\n      tag_136\n        /* \"#utility.yul\":7611:7614   */\n      dup3\n        /* \"#utility.yul\":7522:7615   */\n      tag_61\n      jump\t// in\n    tag_136:\n        /* \"#utility.yul\":7640:7642   */\n      0x20\n        /* \"#utility.yul\":7635:7638   */\n      dup3\n        /* \"#utility.yul\":7631:7643   */\n      add\n        /* \"#utility.yul\":7624:7643   */\n      swap1\n      pop\n        /* \"#utility.yul\":7284:7649   */\n      swap2\n      swap1\n      pop\n      jump\t// out\n        /* \"#utility.yul\":7655:8286   */\n    tag_44:\n        /* \"#utility.yul\":7873:7877   */\n      0x00\n        /* \"#utility.yul\":7911:7913   */\n      0x60\n        /* \"#utility.yul\":7900:7909   */\n      dup3\n        /* \"#utility.yul\":7896:7914   */\n      add\n        /* \"#utility.yul\":7888:7914   */\n      swap1\n      pop\n        /* \"#utility.yul\":7960:7969   */\n      dup2\n        /* \"#utility.yul\":7954:7958   */\n      dup2\n        /* \"#utility.yul\":7950:7970   */\n      sub\n        /* \"#utility.yul\":7946:7947   */\n      0x00\n        /* \"#utility.yul\":7935:7944   */\n      dup4\n        /* \"#utility.yul\":7931:7948   */\n      add\n        /* \"#utility.yul\":7924:7971   */\n      mstore\n        /* \"#utility.yul\":7988:8119   */\n      tag_138\n        /* \"#utility.yul\":8114:8118   */\n      dup2\n        /* \"#utility.yul\":7988:8119   */\n      tag_62\n      jump\t// in\n    tag_138:\n        /* \"#utility.yul\":7980:8119   */\n      swap1\n      pop\n        /* \"#utility.yul\":8129:8199   */\n      tag_139\n        /* \"#utility.yul\":8195:8197   */\n      0x20\n        /* \"#utility.yul\":8184:8193   */\n      dup4\n        /* \"#utility.yul\":8180:8198   */\n      add\n        /* \"#utility.yul\":8171:8177   */\n      dup6\n        /* \"#utility.yul\":8129:8199   */\n      tag_51\n      jump\t// in\n    tag_139:\n        /* \"#utility.yul\":8209:8279   */\n      tag_140\n        /* \"#utility.yul\":8275:8277   */\n      0x40\n        /* \"#utility.yul\":8264:8273   */\n      dup4\n        /* \"#utility.yul\":8260:8278   */\n      add\n        /* \"#utility.yul\":8251:8257   */\n      dup5\n        /* \"#utility.yul\":8209:8279   */\n      tag_51\n      jump\t// in\n    tag_140:\n        /* \"#utility.yul\":7655:8286   */\n      swap4\n      swap3\n      pop\n      pop\n      pop\n      jump\t// out\n\n    auxdata: 0xa26469706673582212204561f240871a902e021a1e66f5bd1c82b015cb69e3f3b46b96138b075f7091be64736f6c63430008220033\n}\n",
				"bytecode": {
					"linkReferences": {},
					"object": "6080604052348015600e575f5ffd5b506106d58061001c5f395ff3fe608060405234801561000f575f5ffd5b5060043610610055575f3560e01c80634c6fd457146100595780636537214714610075578063791de1c1146100935780638e319499146100af5780639344c80e146100cb575b5f5ffd5b610073600480360381019061006e9190610273565b6100e7565b005b61007d61013b565b60405161008a91906102ad565b60405180910390f35b6100ad60048036038101906100a89190610273565b610140565b005b6100c960048036038101906100c49190610273565b610194565b005b6100e560048036038101906100e09190610273565b6101e8565b005b805f5f8282546100f791906102f3565b925050819055507f7e2eddc0994480eaebb6a2283f265e0bbb4c403a3904e3a796a535a785c52cb9815f5460405161013092919061038e565b60405180910390a150565b5f5481565b805f5f82825461015091906103c8565b925050819055507f7e2eddc0994480eaebb6a2283f265e0bbb4c403a3904e3a796a535a785c52cb9815f54604051610189929190610452565b60405180910390a150565b805f5f8282546101a4919061048c565b925050819055507f7e2eddc0994480eaebb6a2283f265e0bbb4c403a3904e3a796a535a785c52cb9815f546040516101dd92919061054c565b60405180910390a150565b805f5f8282546101f891906105b3565b925050819055507f7e2eddc0994480eaebb6a2283f265e0bbb4c403a3904e3a796a535a785c52cb9815f54604051610231929190610665565b60405180910390a150565b5f5ffd5b5f819050919050565b61025281610240565b811461025c575f5ffd5b50565b5f8135905061026d81610249565b92915050565b5f602082840312156102885761028761023c565b5b5f6102958482850161025f565b91505092915050565b6102a781610240565b82525050565b5f6020820190506102c05f83018461029e565b92915050565b7f4e487b71000000000000000000000000000000000000000000000000000000005f52601160045260245ffd5b5f6102fd82610240565b915061030883610240565b92508282019050828112155f8312168382125f84121516171561032e5761032d6102c6565b5b92915050565b5f82825260208201905092915050565b7f41444400000000000000000000000000000000000000000000000000000000005f82015250565b5f610378600383610334565b915061038382610344565b602082019050919050565b5f6060820190508181035f8301526103a58161036c565b90506103b4602083018561029e565b6103c1604083018461029e565b9392505050565b5f6103d282610240565b91506103dd83610240565b925082820390508181125f8412168282135f851215161715610402576104016102c6565b5b92915050565b7f53554200000000000000000000000000000000000000000000000000000000005f82015250565b5f61043c600383610334565b915061044782610408565b602082019050919050565b5f6060820190508181035f83015261046981610430565b9050610478602083018561029e565b610485604083018461029e565b9392505050565b5f61049682610240565b91506104a183610240565b92508282026104af81610240565b91507f800000000000000000000000000000000000000000000000000000000000000084145f841216156104e6576104e56102c6565b5b82820584148315176104fb576104fa6102c6565b5b5092915050565b7f4d554c54490000000000000000000000000000000000000000000000000000005f82015250565b5f610536600583610334565b915061054182610502565b602082019050919050565b5f6060820190508181035f8301526105638161052a565b9050610572602083018561029e565b61057f604083018461029e565b9392505050565b7f4e487b71000000000000000000000000000000000000000000000000000000005f52601260045260245ffd5b5f6105bd82610240565b91506105c883610240565b9250826105d8576105d7610586565b5b60015f0383147f8000000000000000000000000000000000000000000000000000000000000000831416156106105761060f6102c6565b5b828205905092915050565b7f44495600000000000000000000000000000000000000000000000000000000005f82015250565b5f61064f600383610334565b915061065a8261061b565b602082019050919050565b5f6060820190508181035f83015261067c81610643565b905061068b602083018561029e565b610698604083018461029e565b939250505056fea26469706673582212204561f240871a902e021a1e66f5bd1c82b015cb69e3f3b46b96138b075f7091be64736f6c63430008220033",
					"opcodes": "PUSH1 0x80 PUSH1 0x40 MSTORE CALLVALUE DUP1 ISZERO PUSH1 0xE JUMPI PUSH0 PUSH0 REVERT JUMPDEST POP PUSH2 0x6D5 DUP1 PUSH2 0x1C PUSH0 CODECOPY PUSH0 RETURN INVALID PUSH1 0x80 PUSH1 0x40 MSTORE CALLVALUE DUP1 ISZERO PUSH2 0xF JUMPI PUSH0 PUSH0 REVERT JUMPDEST POP PUSH1 0x4 CALLDATASIZE LT PUSH2 0x55 JUMPI PUSH0 CALLDATALOAD PUSH1 0xE0 SHR DUP1 PUSH4 0x4C6FD457 EQ PUSH2 0x59 JUMPI DUP1 PUSH4 0x65372147 EQ PUSH2 0x75 JUMPI DUP1 PUSH4 0x791DE1C1 EQ PUSH2 0x93 JUMPI DUP1 PUSH4 0x8E319499 EQ PUSH2 0xAF JUMPI DUP1 PUSH4 0x9344C80E EQ PUSH2 0xCB JUMPI JUMPDEST PUSH0 PUSH0 REVERT JUMPDEST PUSH2 0x73 PUSH1 0x4 DUP1 CALLDATASIZE SUB DUP2 ADD SWAP1 PUSH2 0x6E SWAP2 SWAP1 PUSH2 0x273 JUMP JUMPDEST PUSH2 0xE7 JUMP JUMPDEST STOP JUMPDEST PUSH2 0x7D PUSH2 0x13B JUMP JUMPDEST PUSH1 0x40 MLOAD PUSH2 0x8A SWAP2 SWAP1 PUSH2 0x2AD JUMP JUMPDEST PUSH1 0x40 MLOAD DUP1 SWAP2 SUB SWAP1 RETURN JUMPDEST PUSH2 0xAD PUSH1 0x4 DUP1 CALLDATASIZE SUB DUP2 ADD SWAP1 PUSH2 0xA8 SWAP2 SWAP1 PUSH2 0x273 JUMP JUMPDEST PUSH2 0x140 JUMP JUMPDEST STOP JUMPDEST PUSH2 0xC9 PUSH1 0x4 DUP1 CALLDATASIZE SUB DUP2 ADD SWAP1 PUSH2 0xC4 SWAP2 SWAP1 PUSH2 0x273 JUMP JUMPDEST PUSH2 0x194 JUMP JUMPDEST STOP JUMPDEST PUSH2 0xE5 PUSH1 0x4 DUP1 CALLDATASIZE SUB DUP2 ADD SWAP1 PUSH2 0xE0 SWAP2 SWAP1 PUSH2 0x273 JUMP JUMPDEST PUSH2 0x1E8 JUMP JUMPDEST STOP JUMPDEST DUP1 PUSH0 PUSH0 DUP3 DUP3 SLOAD PUSH2 0xF7 SWAP2 SWAP1 PUSH2 0x2F3 JUMP JUMPDEST SWAP3 POP POP DUP2 SWAP1 SSTORE POP PUSH32 0x7E2EDDC0994480EAEBB6A2283F265E0BBB4C403A3904E3A796A535A785C52CB9 DUP2 PUSH0 SLOAD PUSH1 0x40 MLOAD PUSH2 0x130 SWAP3 SWAP2 SWAP1 PUSH2 0x38E JUMP JUMPDEST PUSH1 0x40 MLOAD DUP1 SWAP2 SUB SWAP1 LOG1 POP JUMP JUMPDEST PUSH0 SLOAD DUP2 JUMP JUMPDEST DUP1 PUSH0 PUSH0 DUP3 DUP3 SLOAD PUSH2 0x150 SWAP2 SWAP1 PUSH2 0x3C8 JUMP JUMPDEST SWAP3 POP POP DUP2 SWAP1 SSTORE POP PUSH32 0x7E2EDDC0994480EAEBB6A2283F265E0BBB4C403A3904E3A796A535A785C52CB9 DUP2 PUSH0 SLOAD PUSH1 0x40 MLOAD PUSH2 0x189 SWAP3 SWAP2 SWAP1 PUSH2 0x452 JUMP JUMPDEST PUSH1 0x40 MLOAD DUP1 SWAP2 SUB SWAP1 LOG1 POP JUMP JUMPDEST DUP1 PUSH0 PUSH0 DUP3 DUP3 SLOAD PUSH2 0x1A4 SWAP2 SWAP1 PUSH2 0x48C JUMP JUMPDEST SWAP3 POP POP DUP2 SWAP1 SSTORE POP PUSH32 0x7E2EDDC0994480EAEBB6A2283F265E0BBB4C403A3904E3A796A535A785C52CB9 DUP2 PUSH0 SLOAD PUSH1 0x40 MLOAD PUSH2 0x1DD SWAP3 SWAP2 SWAP1 PUSH2 0x54C JUMP JUMPDEST PUSH1 0x40 MLOAD DUP1 SWAP2 SUB SWAP1 LOG1 POP JUMP JUMPDEST DUP1 PUSH0 PUSH0 DUP3 DUP3 SLOAD PUSH2 0x1F8 SWAP2 SWAP1 PUSH2 0x5B3 JUMP JUMPDEST SWAP3 POP POP DUP2 SWAP1 SSTORE POP PUSH32 0x7E2EDDC0994480EAEBB6A2283F265E0BBB4C403A3904E3A796A535A785C52CB9 DUP2 PUSH0 SLOAD PUSH1 0x40 MLOAD PUSH2 0x231 SWAP3 SWAP2 SWAP1 PUSH2 0x665 JUMP JUMPDEST PUSH1 0x40 MLOAD DUP1 SWAP2 SUB SWAP1 LOG1 POP JUMP JUMPDEST PUSH0 PUSH0 REVERT JUMPDEST PUSH0 DUP2 SWAP1 POP SWAP2 SWAP1 POP JUMP JUMPDEST PUSH2 0x252 DUP2 PUSH2 0x240 JUMP JUMPDEST DUP2 EQ PUSH2 0x25C JUMPI PUSH0 PUSH0 REVERT JUMPDEST POP JUMP JUMPDEST PUSH0 DUP2 CALLDATALOAD SWAP1 POP PUSH2 0x26D DUP2 PUSH2 0x249 JUMP JUMPDEST SWAP3 SWAP2 POP POP JUMP JUMPDEST PUSH0 PUSH1 0x20 DUP3 DUP5 SUB SLT ISZERO PUSH2 0x288 JUMPI PUSH2 0x287 PUSH2 0x23C JUMP JUMPDEST JUMPDEST PUSH0 PUSH2 0x295 DUP5 DUP3 DUP6 ADD PUSH2 0x25F JUMP JUMPDEST SWAP2 POP POP SWAP3 SWAP2 POP POP JUMP JUMPDEST PUSH2 0x2A7 DUP2 PUSH2 0x240 JUMP JUMPDEST DUP3 MSTORE POP POP JUMP JUMPDEST PUSH0 PUSH1 0x20 DUP3 ADD SWAP1 POP PUSH2 0x2C0 PUSH0 DUP4 ADD DUP5 PUSH2 0x29E JUMP JUMPDEST SWAP3 SWAP2 POP POP JUMP JUMPDEST PUSH32 0x4E487B7100000000000000000000000000000000000000000000000000000000 PUSH0 MSTORE PUSH1 0x11 PUSH1 0x4 MSTORE PUSH1 0x24 PUSH0 REVERT JUMPDEST PUSH0 PUSH2 0x2FD DUP3 PUSH2 0x240 JUMP JUMPDEST SWAP2 POP PUSH2 0x308 DUP4 PUSH2 0x240 JUMP JUMPDEST SWAP3 POP DUP3 DUP3 ADD SWAP1 POP DUP3 DUP2 SLT ISZERO PUSH0 DUP4 SLT AND DUP4 DUP3 SLT PUSH0 DUP5 SLT ISZERO AND OR ISZERO PUSH2 0x32E JUMPI PUSH2 0x32D PUSH2 0x2C6 JUMP JUMPDEST JUMPDEST SWAP3 SWAP2 POP POP JUMP JUMPDEST PUSH0 DUP3 DUP3 MSTORE PUSH1 0x20 DUP3 ADD SWAP1 POP SWAP3 SWAP2 POP POP JUMP JUMPDEST PUSH32 0x4144440000000000000000000000000000000000000000000000000000000000 PUSH0 DUP3 ADD MSTORE POP JUMP JUMPDEST PUSH0 PUSH2 0x378 PUSH1 0x3 DUP4 PUSH2 0x334 JUMP JUMPDEST SWAP2 POP PUSH2 0x383 DUP3 PUSH2 0x344 JUMP JUMPDEST PUSH1 0x20 DUP3 ADD SWAP1 POP SWAP2 SWAP1 POP JUMP JUMPDEST PUSH0 PUSH1 0x60 DUP3 ADD SWAP1 POP DUP2 DUP2 SUB PUSH0 DUP4 ADD MSTORE PUSH2 0x3A5 DUP2 PUSH2 0x36C JUMP JUMPDEST SWAP1 POP PUSH2 0x3B4 PUSH1 0x20 DUP4 ADD DUP6 PUSH2 0x29E JUMP JUMPDEST PUSH2 0x3C1 PUSH1 0x40 DUP4 ADD DUP5 PUSH2 0x29E JUMP JUMPDEST SWAP4 SWAP3 POP POP POP JUMP JUMPDEST PUSH0 PUSH2 0x3D2 DUP3 PUSH2 0x240 JUMP JUMPDEST SWAP2 POP PUSH2 0x3DD DUP4 PUSH2 0x240 JUMP JUMPDEST SWAP3 POP DUP3 DUP3 SUB SWAP1 POP DUP2 DUP2 SLT PUSH0 DUP5 SLT AND DUP3 DUP3 SGT PUSH0 DUP6 SLT ISZERO AND OR ISZERO PUSH2 0x402 JUMPI PUSH2 0x401 PUSH2 0x2C6 JUMP JUMPDEST JUMPDEST SWAP3 SWAP2 POP POP JUMP JUMPDEST PUSH32 0x5355420000000000000000000000000000000000000000000000000000000000 PUSH0 DUP3 ADD MSTORE POP JUMP JUMPDEST PUSH0 PUSH2 0x43C PUSH1 0x3 DUP4 PUSH2 0x334 JUMP JUMPDEST SWAP2 POP PUSH2 0x447 DUP3 PUSH2 0x408 JUMP JUMPDEST PUSH1 0x20 DUP3 ADD SWAP1 POP SWAP2 SWAP1 POP JUMP JUMPDEST PUSH0 PUSH1 0x60 DUP3 ADD SWAP1 POP DUP2 DUP2 SUB PUSH0 DUP4 ADD MSTORE PUSH2 0x469 DUP2 PUSH2 0x430 JUMP JUMPDEST SWAP1 POP PUSH2 0x478 PUSH1 0x20 DUP4 ADD DUP6 PUSH2 0x29E JUMP JUMPDEST PUSH2 0x485 PUSH1 0x40 DUP4 ADD DUP5 PUSH2 0x29E JUMP JUMPDEST SWAP4 SWAP3 POP POP POP JUMP JUMPDEST PUSH0 PUSH2 0x496 DUP3 PUSH2 0x240 JUMP JUMPDEST SWAP2 POP PUSH2 0x4A1 DUP4 PUSH2 0x240 JUMP JUMPDEST SWAP3 POP DUP3 DUP3 MUL PUSH2 0x4AF DUP2 PUSH2 0x240 JUMP JUMPDEST SWAP2 POP PUSH32 0x8000000000000000000000000000000000000000000000000000000000000000 DUP5 EQ PUSH0 DUP5 SLT AND ISZERO PUSH2 0x4E6 JUMPI PUSH2 0x4E5 PUSH2 0x2C6 JUMP JUMPDEST JUMPDEST DUP3 DUP3 SDIV DUP5 EQ DUP4 ISZERO OR PUSH2 0x4FB JUMPI PUSH2 0x4FA PUSH2 0x2C6 JUMP JUMPDEST JUMPDEST POP SWAP3 SWAP2 POP POP JUMP JUMPDEST PUSH32 0x4D554C5449000000000000000000000000000000000000000000000000000000 PUSH0 DUP3 ADD MSTORE POP JUMP JUMPDEST PUSH0 PUSH2 0x536 PUSH1 0x5 DUP4 PUSH2 0x334 JUMP JUMPDEST SWAP2 POP PUSH2 0x541 DUP3 PUSH2 0x502 JUMP JUMPDEST PUSH1 0x20 DUP3 ADD SWAP1 POP SWAP2 SWAP1 POP JUMP JUMPDEST PUSH0 PUSH1 0x60 DUP3 ADD SWAP1 POP DUP2 DUP2 SUB PUSH0 DUP4 ADD MSTORE PUSH2 0x563 DUP2 PUSH2 0x52A JUMP JUMPDEST SWAP1 POP PUSH2 0x572 PUSH1 0x20 DUP4 ADD DUP6 PUSH2 0x29E JUMP JUMPDEST PUSH2 0x57F PUSH1 0x40 DUP4 ADD DUP5 PUSH2 0x29E JUMP JUMPDEST SWAP4 SWAP3 POP POP POP JUMP JUMPDEST PUSH32 0x4E487B7100000000000000000000000000000000000000000000000000000000 PUSH0 MSTORE PUSH1 0x12 PUSH1 0x4 MSTORE PUSH1 0x24 PUSH0 REVERT JUMPDEST PUSH0 PUSH2 0x5BD DUP3 PUSH2 0x240 JUMP JUMPDEST SWAP2 POP PUSH2 0x5C8 DUP4 PUSH2 0x240 JUMP JUMPDEST SWAP3 POP DUP3 PUSH2 0x5D8 JUMPI PUSH2 0x5D7 PUSH2 0x586 JUMP JUMPDEST JUMPDEST PUSH1 0x1 PUSH0 SUB DUP4 EQ PUSH32 0x8000000000000000000000000000000000000000000000000000000000000000 DUP4 EQ AND ISZERO PUSH2 0x610 JUMPI PUSH2 0x60F PUSH2 0x2C6 JUMP JUMPDEST JUMPDEST DUP3 DUP3 SDIV SWAP1 POP SWAP3 SWAP2 POP POP JUMP JUMPDEST PUSH32 0x4449560000000000000000000000000000000000000000000000000000000000 PUSH0 DUP3 ADD MSTORE POP JUMP JUMPDEST PUSH0 PUSH2 0x64F PUSH1 0x3 DUP4 PUSH2 0x334 JUMP JUMPDEST SWAP2 POP PUSH2 0x65A DUP3 PUSH2 0x61B JUMP JUMPDEST PUSH1 0x20 DUP3 ADD SWAP1 POP SWAP2 SWAP1 POP JUMP JUMPDEST PUSH0 PUSH1 0x60 DUP3 ADD SWAP1 POP DUP2 DUP2 SUB PUSH0 DUP4 ADD MSTORE PUSH2 0x67C DUP2 PUSH2 0x643 JUMP JUMPDEST SWAP1 POP PUSH2 0x68B PUSH1 0x20 DUP4 ADD DUP6 PUSH2 0x29E JUMP JUMPDEST PUSH2 0x698 PUSH1 0x40 DUP4 ADD DUP5 PUSH2 0x29E JUMP JUMPDEST SWAP4 SWAP3 POP POP POP JUMP INVALID LOG2 PUSH5 0x6970667358 0x22 SLT KECCAK256 GASLIMIT PUSH2 0xF240 DUP8 BYTE SWAP1 0x2E MUL BYTE CLZ PUSH7 0xF5BD1C82B015CB PUSH10 0xE3F3B46B96138B075F70 SWAP2 0xBE PUSH5 0x736F6C6343 STOP ADDMOD 0x22 STOP CALLER "
				},
				"gasEstimates": {
					"creation": {
						"codeDepositCost": "349800",
						"executionCost": "384",
						"totalCost": "350184"
					},
					"external": {
						"Addvalue(int256)": "infinite",
						"Dividevalue(int256)": "infinite",
						"Multiplyvalue(int256)": "infinite",
						"Subvalue(int256)": "infinite",
						"result()": "2424"
					}
				},
				"methodIdentifiers": {
					"Addvalue(int256)": "4c6fd457",
					"Dividevalue(int256)": "9344c80e",
					"Multiplyvalue(int256)": "8e319499",
					"Subvalue(int256)": "791de1c1",
					"result()": "65372147"
				}
			},
			"storageLayout": {
				"storage": [
					{
						"astId": 3,
						"contract": "Practice/calculator.sol:Calculator",
						"label": "result",
						"offset": 0,
						"slot": "0",
						"type": "t_int256"
					}
				],
				"types": {
					"t_int256": {
						"encoding": "inplace",
						"label": "int256",
						"numberOfBytes": "32"
					}
				}
			},
			"userdoc": {
				"kind": "user",
				"methods": {},
				"version": 1
			}
		}
	}
}