{
	"Practice/exportCalculator.sol": {
		"Calculator": {
			"abi": [
				{
					"inputs": [],
					"name": "SeeResult",
					"outputs": [
						{
							"internalType": "uint256",
							"name": "",
							"type": "uint256"
						}
					],
					"stateMutability": "view",
					"type": "function"
				},
				{
					"inputs": [
						{
							"internalType": "uint256",
							"name": "value",
							"type": "uint256"
						}
					],
					"name": "add",
					"outputs": [],
					"stateMutability": "nonpayable",
					"type": "function"
				},
				{
					"inputs": [
						{
							"internalType": "uint256",
							"name": "value",
							"type": "uint256"
						}
					],
					"name": "cube",
					"outputs": [],
					"stateMutability": "nonpayable",
					"type": "function"
				},
				{
					"inputs": [
						{
							"internalType": "uint256",
							"name": "value",
							"type": "uint256"
						}
					],
					"name": "divide",
					"outputs": [],
					"stateMutability": "nonpayable",
					"type": "function"
				},
				{
					"inputs": [
						{
							"internalType": "uint256",
							"name": "value",
							"type": "uint256"
						}
					],
					"name": "modulo",
					"outputs": [],
					"stateMutability": "nonpayable",
					"type": "function"
				},
				{
					"inputs": [
						{
							"internalType": "uint256",
							"name": "value",
							"type": "uint256"
						}
					],
					"name": "multi",
					"outputs": [],
					"stateMutability": "nonpayable",
					"type": "function"
				},
				{
					"inputs": [],
					"name": "result",
					"outputs": [
						{
							"internalType": "uint256",
							"name": "",
							"type": "uint256"
						}
					],
					"stateMutability": "view",
					"type": "function"
				},
				{
					"inputs": [
						{
							"internalType": "uint256",
							"name": "value",
							"type": "uint256"
						}
					],
					"name": "sqrt",
					"outputs": [],
					"stateMutability": "nonpayable",
					"type": "function"
				},
				{
					"inputs": [
						{
							"internalType": "uint256",
							"name": "value",
							"type": "uint256"
						}
					],
					"name": "square",
					"outputs": [],
					"stateMutability": "nonpayable",
					"type": "function"
				},
				{
					"inputs": [
						{
							"internalType": "uint256",
							"name": "value",
							"type": "uint256"
						}
					],
					"name": "sub",
					"outputs": [],
					"stateMutability": "nonpayable",
					"type": "function"
				}
			],
			"devdoc": {
				"kind": "dev",
				"methods": {},
				"version": 1
			},
			"evm": {
				"assembly": "    /* \"Practice/exportCalculator.sol\":60:1081  contract Calculator{\r... */\n  mstore(0x40, 0x80)\n  callvalue\n  dup1\n  iszero\n  tag_1\n  jumpi\n  0x00\n  dup1\n  revert\ntag_1:\n  pop\n  dataSize(sub_0)\n  dup1\n  dataOffset(sub_0)\n  0x00\n  codecopy\n  0x00\n  return\nstop\n\nsub_0: assembly {\n        /* \"Practice/exportCalculator.sol\":60:1081  contract Calculator{\r... */\n      mstore(0x40, 0x80)\n      callvalue\n      dup1\n      iszero\n      tag_1\n      jumpi\n      0x00\n      dup1\n      revert\n    tag_1:\n      pop\n      jumpi(tag_2, lt(calldatasize, 0x04))\n      shr(0xe0, calldataload(0x00))\n      dup1\n      0x65372147\n      gt\n      tag_13\n      jumpi\n      dup1\n      0x65372147\n      eq\n      tag_8\n      jumpi\n      dup1\n      0x677342ce\n      eq\n      tag_9\n      jumpi\n      dup1\n      0x7b292909\n      eq\n      tag_10\n      jumpi\n      dup1\n      0x886c6f51\n      eq\n      tag_11\n      jumpi\n      dup1\n      0xf4bf03c7\n      eq\n      tag_12\n      jumpi\n      jump(tag_2)\n    tag_13:\n      dup1\n      0x1003e2d2\n      eq\n      tag_3\n      jumpi\n      dup1\n      0x27ee58a6\n      eq\n      tag_4\n      jumpi\n      dup1\n      0x3e823f79\n      eq\n      tag_5\n      jumpi\n      dup1\n      0x5ec470db\n      eq\n      tag_6\n      jumpi\n      dup1\n      0x645444bd\n      eq\n      tag_7\n      jumpi\n    tag_2:\n      0x00\n      dup1\n      revert\n        /* \"Practice/exportCalculator.sol\":113:178  function add(uint value) external{\r... */\n    tag_3:\n      tag_14\n      0x04\n      dup1\n      calldatasize\n      sub\n      dup2\n      add\n      swap1\n      tag_15\n      swap2\n      swap1\n      tag_16\n      jump\t// in\n    tag_15:\n      tag_17\n      jump\t// in\n    tag_14:\n      stop\n        /* \"Practice/exportCalculator.sol\":186:251  function sub(uint value) external{\r... */\n    tag_4:\n      tag_18\n      0x04\n      dup1\n      calldatasize\n      sub\n      dup2\n      add\n      swap1\n      tag_19\n      swap2\n      swap1\n      tag_16\n      jump\t// in\n    tag_19:\n      tag_20\n      jump\t// in\n    tag_18:\n      stop\n        /* \"Practice/exportCalculator.sol\":334:402  function divide(uint value) external{\r... */\n    tag_5:\n      tag_21\n      0x04\n      dup1\n      calldatasize\n      sub\n      dup2\n      add\n      swap1\n      tag_22\n      swap2\n      swap1\n      tag_16\n      jump\t// in\n    tag_22:\n      tag_23\n      jump\t// in\n    tag_21:\n      stop\n        /* \"Practice/exportCalculator.sol\":996:1076  function SeeResult() external view returns(uint){\r... */\n    tag_6:\n      tag_24\n      tag_25\n      jump\t// in\n    tag_24:\n      mload(0x40)\n      tag_26\n      swap2\n      swap1\n      tag_27\n      jump\t// in\n    tag_26:\n      mload(0x40)\n      dup1\n      swap2\n      sub\n      swap1\n      return\n        /* \"Practice/exportCalculator.sol\":259:326  function multi(uint value) external{\r... */\n    tag_7:\n      tag_28\n      0x04\n      dup1\n      calldatasize\n      sub\n      dup2\n      add\n      swap1\n      tag_29\n      swap2\n      swap1\n      tag_16\n      jump\t// in\n    tag_29:\n      tag_30\n      jump\t// in\n    tag_28:\n      stop\n        /* \"Practice/exportCalculator.sol\":86:104  uint public result */\n    tag_8:\n      tag_31\n      tag_32\n      jump\t// in\n    tag_31:\n      mload(0x40)\n      tag_33\n      swap2\n      swap1\n      tag_27\n      jump\t// in\n    tag_33:\n      mload(0x40)\n      dup1\n      swap2\n      sub\n      swap1\n      return\n        /* \"Practice/exportCalculator.sol\":662:988  function sqrt(uint value) external{\r... */\n    tag_9:\n      tag_34\n      0x04\n      dup1\n      calldatasize\n      sub\n      dup2\n      add\n      swap1\n      tag_35\n      swap2\n      swap1\n      tag_16\n      jump\t// in\n    tag_35:\n      tag_36\n      jump\t// in\n    tag_34:\n      stop\n        /* \"Practice/exportCalculator.sol\":486:563  function square(uint value) external{\r... */\n    tag_10:\n      tag_37\n      0x04\n      dup1\n      calldatasize\n      sub\n      dup2\n      add\n      swap1\n      tag_38\n      swap2\n      swap1\n      tag_16\n      jump\t// in\n    tag_38:\n      tag_39\n      jump\t// in\n    tag_37:\n      stop\n        /* \"Practice/exportCalculator.sol\":410:478  function modulo(uint value) external{\r... */\n    tag_11:\n      tag_40\n      0x04\n      dup1\n      calldatasize\n      sub\n      dup2\n      add\n      swap1\n      tag_41\n      swap2\n      swap1\n      tag_16\n      jump\t// in\n    tag_41:\n      tag_42\n      jump\t// in\n    tag_40:\n      stop\n        /* \"Practice/exportCalculator.sol\":571:654  function cube(uint value) external{\r... */\n    tag_12:\n      tag_43\n      0x04\n      dup1\n      calldatasize\n      sub\n      dup2\n      add\n      swap1\n      tag_44\n      swap2\n      swap1\n      tag_16\n      jump\t// in\n    tag_44:\n      tag_45\n      jump\t// in\n    tag_43:\n      stop\n        /* \"Practice/exportCalculator.sol\":113:178  function add(uint value) external{\r... */\n    tag_17:\n        /* \"Practice/exportCalculator.sol\":165:170  value */\n      dup1\n        /* \"Practice/exportCalculator.sol\":157:163  result */\n      0x00\n      dup1\n        /* \"Practice/exportCalculator.sol\":157:170  result+=value */\n      dup3\n      dup3\n      sload\n      tag_47\n      swap2\n      swap1\n      tag_48\n      jump\t// in\n    tag_47:\n      swap3\n      pop\n      pop\n      dup2\n      swap1\n      sstore\n      pop\n        /* \"Practice/exportCalculator.sol\":113:178  function add(uint value) external{\r... */\n      pop\n      jump\t// out\n        /* \"Practice/exportCalculator.sol\":186:251  function sub(uint value) external{\r... */\n    tag_20:\n        /* \"Practice/exportCalculator.sol\":238:243  value */\n      dup1\n        /* \"Practice/exportCalculator.sol\":230:236  result */\n      0x00\n      dup1\n        /* \"Practice/exportCalculator.sol\":230:243  result-=value */\n      dup3\n      dup3\n      sload\n      tag_50\n      swap2\n      swap1\n      tag_51\n      jump\t// in\n    tag_50:\n      swap3\n      pop\n      pop\n      dup2\n      swap1\n      sstore\n      pop\n        /* \"Practice/exportCalculator.sol\":186:251  function sub(uint value) external{\r... */\n      pop\n      jump\t// out\n        /* \"Practice/exportCalculator.sol\":334:402  function divide(uint value) external{\r... */\n    tag_23:\n        /* \"Practice/exportCalculator.sol\":389:394  value */\n      dup1\n        /* \"Practice/exportCalculator.sol\":381:387  result */\n      0x00\n      dup1\n        /* \"Practice/exportCalculator.sol\":381:394  result/=value */\n      dup3\n      dup3\n      sload\n      tag_53\n      swap2\n      swap1\n      tag_54\n      jump\t// in\n    tag_53:\n      swap3\n      pop\n      pop\n      dup2\n      swap1\n      sstore\n      pop\n        /* \"Practice/exportCalculator.sol\":334:402  function divide(uint value) external{\r... */\n      pop\n      jump\t// out\n        /* \"Practice/exportCalculator.sol\":996:1076  function SeeResult() external view returns(uint){\r... */\n    tag_25:\n        /* \"Practice/exportCalculator.sol\":1039:1043  uint */\n      0x00\n        /* \"Practice/exportCalculator.sol\":1062:1068  result */\n      dup1\n      sload\n        /* \"Practice/exportCalculator.sol\":1055:1068  return result */\n      swap1\n      pop\n        /* \"Practice/exportCalculator.sol\":996:1076  function SeeResult() external view returns(uint){\r... */\n      swap1\n      jump\t// out\n        /* \"Practice/exportCalculator.sol\":259:326  function multi(uint value) external{\r... */\n    tag_30:\n        /* \"Practice/exportCalculator.sol\":313:318  value */\n      dup1\n        /* \"Practice/exportCalculator.sol\":305:311  result */\n      0x00\n      dup1\n        /* \"Practice/exportCalculator.sol\":305:318  result*=value */\n      dup3\n      dup3\n      sload\n      tag_57\n      swap2\n      swap1\n      tag_58\n      jump\t// in\n    tag_57:\n      swap3\n      pop\n      pop\n      dup2\n      swap1\n      sstore\n      pop\n        /* \"Practice/exportCalculator.sol\":259:326  function multi(uint value) external{\r... */\n      pop\n      jump\t// out\n        /* \"Practice/exportCalculator.sol\":86:104  uint public result */\n    tag_32:\n      sload(0x00)\n      dup2\n      jump\t// out\n        /* \"Practice/exportCalculator.sol\":662:988  function sqrt(uint value) external{\r... */\n    tag_36:\n        /* \"Practice/exportCalculator.sol\":716:717  3 */\n      0x03\n        /* \"Practice/exportCalculator.sol\":710:715  value */\n      dup2\n        /* \"Practice/exportCalculator.sol\":710:717  value>3 */\n      gt\n        /* \"Practice/exportCalculator.sol\":707:980  if(value>3){\r... */\n      iszero\n      tag_60\n      jumpi\n        /* \"Practice/exportCalculator.sol\":741:746  value */\n      dup1\n        /* \"Practice/exportCalculator.sol\":732:738  result */\n      0x00\n        /* \"Practice/exportCalculator.sol\":732:746  result = value */\n      dup2\n      swap1\n      sstore\n      pop\n        /* \"Practice/exportCalculator.sol\":760:766  uint x */\n      0x00\n        /* \"Practice/exportCalculator.sol\":781:782  1 */\n      0x01\n        /* \"Practice/exportCalculator.sol\":777:778  2 */\n      0x02\n        /* \"Practice/exportCalculator.sol\":769:774  value */\n      dup4\n        /* \"Practice/exportCalculator.sol\":769:778  value / 2 */\n      tag_61\n      swap2\n      swap1\n      tag_54\n      jump\t// in\n    tag_61:\n        /* \"Practice/exportCalculator.sol\":769:782  value / 2 + 1 */\n      tag_62\n      swap2\n      swap1\n      tag_48\n      jump\t// in\n    tag_62:\n        /* \"Practice/exportCalculator.sol\":760:782  uint x = value / 2 + 1 */\n      swap1\n      pop\n        /* \"Practice/exportCalculator.sol\":796:889  while(x<result){\r... */\n    tag_63:\n        /* \"Practice/exportCalculator.sol\":804:810  result */\n      sload(0x00)\n        /* \"Practice/exportCalculator.sol\":802:803  x */\n      dup2\n        /* \"Practice/exportCalculator.sol\":802:810  x<result */\n      lt\n        /* \"Practice/exportCalculator.sol\":796:889  while(x<result){\r... */\n      iszero\n      tag_64\n      jumpi\n        /* \"Practice/exportCalculator.sol\":835:836  x */\n      dup1\n        /* \"Practice/exportCalculator.sol\":826:832  result */\n      0x00\n        /* \"Practice/exportCalculator.sol\":826:836  result = x */\n      dup2\n      swap1\n      sstore\n      pop\n        /* \"Practice/exportCalculator.sol\":873:874  2 */\n      0x02\n        /* \"Practice/exportCalculator.sol\":868:869  x */\n      dup2\n        /* \"Practice/exportCalculator.sol\":864:865  x */\n      dup3\n        /* \"Practice/exportCalculator.sol\":856:861  value */\n      dup5\n        /* \"Practice/exportCalculator.sol\":856:865  value / x */\n      tag_65\n      swap2\n      swap1\n      tag_54\n      jump\t// in\n    tag_65:\n        /* \"Practice/exportCalculator.sol\":856:869  value / x + x */\n      tag_66\n      swap2\n      swap1\n      tag_48\n      jump\t// in\n    tag_66:\n        /* \"Practice/exportCalculator.sol\":855:874  (value / x + x) / 2 */\n      tag_67\n      swap2\n      swap1\n      tag_54\n      jump\t// in\n    tag_67:\n        /* \"Practice/exportCalculator.sol\":851:874  x = (value / x + x) / 2 */\n      swap1\n      pop\n        /* \"Practice/exportCalculator.sol\":796:889  while(x<result){\r... */\n      jump(tag_63)\n    tag_64:\n        /* \"Practice/exportCalculator.sol\":707:980  if(value>3){\r... */\n      pop\n      jump(tag_68)\n    tag_60:\n        /* \"Practice/exportCalculator.sol\":918:919  0 */\n      0x00\n        /* \"Practice/exportCalculator.sol\":910:915  value */\n      dup2\n        /* \"Practice/exportCalculator.sol\":910:919  value !=0 */\n      eq\n        /* \"Practice/exportCalculator.sol\":906:980  if (value !=0){\r... */\n      tag_69\n      jumpi\n        /* \"Practice/exportCalculator.sol\":942:943  1 */\n      0x01\n        /* \"Practice/exportCalculator.sol\":935:941  result */\n      0x00\n        /* \"Practice/exportCalculator.sol\":935:943  result=1 */\n      dup2\n      swap1\n      sstore\n      pop\n        /* \"Practice/exportCalculator.sol\":906:980  if (value !=0){\r... */\n      jump(tag_70)\n    tag_69:\n        /* \"Practice/exportCalculator.sol\":979:980  0 */\n      0x00\n        /* \"Practice/exportCalculator.sol\":972:978  result */\n      dup1\n        /* \"Practice/exportCalculator.sol\":972:980  result=0 */\n      dup2\n      swap1\n      sstore\n      pop\n        /* \"Practice/exportCalculator.sol\":906:980  if (value !=0){\r... */\n    tag_70:\n        /* \"Practice/exportCalculator.sol\":707:980  if(value>3){\r... */\n    tag_68:\n        /* \"Practice/exportCalculator.sol\":662:988  function sqrt(uint value) external{\r... */\n      pop\n      jump\t// out\n        /* \"Practice/exportCalculator.sol\":486:563  function square(uint value) external{\r... */\n    tag_39:\n        /* \"Practice/exportCalculator.sol\":550:555  value */\n      dup1\n        /* \"Practice/exportCalculator.sol\":542:547  value */\n      dup2\n        /* \"Practice/exportCalculator.sol\":542:555  value * value */\n      tag_72\n      swap2\n      swap1\n      tag_58\n      jump\t// in\n    tag_72:\n        /* \"Practice/exportCalculator.sol\":533:539  result */\n      0x00\n        /* \"Practice/exportCalculator.sol\":533:555  result = value * value */\n      dup2\n      swap1\n      sstore\n      pop\n        /* \"Practice/exportCalculator.sol\":486:563  function square(uint value) external{\r... */\n      pop\n      jump\t// out\n        /* \"Practice/exportCalculator.sol\":410:478  function modulo(uint value) external{\r... */\n    tag_42:\n        /* \"Practice/exportCalculator.sol\":465:470  value */\n      dup1\n        /* \"Practice/exportCalculator.sol\":457:463  result */\n      0x00\n      dup1\n        /* \"Practice/exportCalculator.sol\":457:470  result%=value */\n      dup3\n      dup3\n      sload\n      tag_74\n      swap2\n      swap1\n      tag_75\n      jump\t// in\n    tag_74:\n      swap3\n      pop\n      pop\n      dup2\n      swap1\n      sstore\n      pop\n        /* \"Practice/exportCalculator.sol\":410:478  function modulo(uint value) external{\r... */\n      pop\n      jump\t// out\n        /* \"Practice/exportCalculator.sol\":571:654  function cube(uint value) external{\r... */\n    tag_45:\n        /* \"Practice/exportCalculator.sol\":641:646  value */\n      dup1\n        /* \"Practice/exportCalculator.sol\":633:638  value */\n      dup2\n        /* \"Practice/exportCalculator.sol\":625:630  value */\n      dup3\n        /* \"Practice/exportCalculator.sol\":625:638  value * value */\n      tag_77\n      swap2\n      swap1\n      tag_58\n      jump\t// in\n    tag_77:\n        /* \"Practice/exportCalculator.sol\":625:646  value * value * value */\n      tag_78\n      swap2\n      swap1\n      tag_58\n      jump\t// in\n    tag_78:\n        /* \"Practice/exportCalculator.sol\":616:622  result */\n      0x00\n        /* \"Practice/exportCalculator.sol\":616:646  result = value * value * value */\n      dup2\n      swap1\n      sstore\n      pop\n        /* \"Practice/exportCalculator.sol\":571:654  function cube(uint value) external{\r... */\n      pop\n      jump\t// out\n        /* \"#utility.yul\":7:146   */\n    tag_80:\n      0x00\n        /* \"#utility.yul\":91:97   */\n      dup2\n        /* \"#utility.yul\":78:98   */\n      calldataload\n        /* \"#utility.yul\":69:98   */\n      swap1\n      pop\n        /* \"#utility.yul\":107:140   */\n      tag_82\n        /* \"#utility.yul\":134:139   */\n      dup2\n        /* \"#utility.yul\":107:140   */\n      tag_83\n      jump\t// in\n    tag_82:\n        /* \"#utility.yul\":59:146   */\n      swap3\n      swap2\n      pop\n      pop\n      jump\t// out\n        /* \"#utility.yul\":152:414   */\n    tag_16:\n      0x00\n        /* \"#utility.yul\":260:262   */\n      0x20\n        /* \"#utility.yul\":248:257   */\n      dup3\n        /* \"#utility.yul\":239:246   */\n      dup5\n        /* \"#utility.yul\":235:258   */\n      sub\n        /* \"#utility.yul\":231:263   */\n      slt\n        /* \"#utility.yul\":228:230   */\n      iszero\n      tag_85\n      jumpi\n        /* \"#utility.yul\":276:277   */\n      0x00\n        /* \"#utility.yul\":273:274   */\n      dup1\n        /* \"#utility.yul\":266:278   */\n      revert\n        /* \"#utility.yul\":228:230   */\n    tag_85:\n        /* \"#utility.yul\":319:320   */\n      0x00\n        /* \"#utility.yul\":344:397   */\n      tag_86\n        /* \"#utility.yul\":389:396   */\n      dup5\n        /* \"#utility.yul\":380:386   */\n      dup3\n        /* \"#utility.yul\":369:378   */\n      dup6\n        /* \"#utility.yul\":365:387   */\n      add\n        /* \"#utility.yul\":344:397   */\n      tag_80\n      jump\t// in\n    tag_86:\n        /* \"#utility.yul\":334:397   */\n      swap2\n      pop\n        /* \"#utility.yul\":290:407   */\n      pop\n        /* \"#utility.yul\":218:414   */\n      swap3\n      swap2\n      pop\n      pop\n      jump\t// out\n        /* \"#utility.yul\":420:538   */\n    tag_87:\n        /* \"#utility.yul\":507:531   */\n      tag_89\n        /* \"#utility.yul\":525:530   */\n      dup2\n        /* \"#utility.yul\":507:531   */\n      tag_90\n      jump\t// in\n    tag_89:\n        /* \"#utility.yul\":502:505   */\n      dup3\n        /* \"#utility.yul\":495:532   */\n      mstore\n        /* \"#utility.yul\":485:538   */\n      pop\n      pop\n      jump\t// out\n        /* \"#utility.yul\":544:766   */\n    tag_27:\n      0x00\n        /* \"#utility.yul\":675:677   */\n      0x20\n        /* \"#utility.yul\":664:673   */\n      dup3\n        /* \"#utility.yul\":660:678   */\n      add\n        /* \"#utility.yul\":652:678   */\n      swap1\n      pop\n        /* \"#utility.yul\":688:759   */\n      tag_92\n        /* \"#utility.yul\":756:757   */\n      0x00\n        /* \"#utility.yul\":745:754   */\n      dup4\n        /* \"#utility.yul\":741:758   */\n      add\n        /* \"#utility.yul\":732:738   */\n      dup5\n        /* \"#utility.yul\":688:759   */\n      tag_87\n      jump\t// in\n    tag_92:\n        /* \"#utility.yul\":642:766   */\n      swap3\n      swap2\n      pop\n      pop\n      jump\t// out\n        /* \"#utility.yul\":772:1077   */\n    tag_48:\n      0x00\n        /* \"#utility.yul\":831:851   */\n      tag_94\n        /* \"#utility.yul\":849:850   */\n      dup3\n        /* \"#utility.yul\":831:851   */\n      tag_90\n      jump\t// in\n    tag_94:\n        /* \"#utility.yul\":826:851   */\n      swap2\n      pop\n        /* \"#utility.yul\":865:885   */\n      tag_95\n        /* \"#utility.yul\":883:884   */\n      dup4\n        /* \"#utility.yul\":865:885   */\n      tag_90\n      jump\t// in\n    tag_95:\n        /* \"#utility.yul\":860:885   */\n      swap3\n      pop\n        /* \"#utility.yul\":1019:1020   */\n      dup3\n        /* \"#utility.yul\":951:1017   */\n      0xffffffffffffffffffffffffffffffffffffffffffffffffffffffffffffffff\n        /* \"#utility.yul\":947:1021   */\n      sub\n        /* \"#utility.yul\":944:945   */\n      dup3\n        /* \"#utility.yul\":941:1022   */\n      gt\n        /* \"#utility.yul\":938:940   */\n      iszero\n      tag_96\n      jumpi\n        /* \"#utility.yul\":1025:1043   */\n      tag_97\n      tag_98\n      jump\t// in\n    tag_97:\n        /* \"#utility.yul\":938:940   */\n    tag_96:\n        /* \"#utility.yul\":1069:1070   */\n      dup3\n        /* \"#utility.yul\":1066:1067   */\n      dup3\n        /* \"#utility.yul\":1062:1071   */\n      add\n        /* \"#utility.yul\":1055:1071   */\n      swap1\n      pop\n        /* \"#utility.yul\":816:1077   */\n      swap3\n      swap2\n      pop\n      pop\n      jump\t// out\n        /* \"#utility.yul\":1083:1268   */\n    tag_54:\n      0x00\n        /* \"#utility.yul\":1140:1160   */\n      tag_100\n        /* \"#utility.yul\":1158:1159   */\n      dup3\n        /* \"#utility.yul\":1140:1160   */\n      tag_90\n      jump\t// in\n    tag_100:\n        /* \"#utility.yul\":1135:1160   */\n      swap2\n      pop\n        /* \"#utility.yul\":1174:1194   */\n      tag_101\n        /* \"#utility.yul\":1192:1193   */\n      dup4\n        /* \"#utility.yul\":1174:1194   */\n      tag_90\n      jump\t// in\n    tag_101:\n        /* \"#utility.yul\":1169:1194   */\n      swap3\n      pop\n        /* \"#utility.yul\":1213:1214   */\n      dup3\n        /* \"#utility.yul\":1203:1205   */\n      tag_102\n      jumpi\n        /* \"#utility.yul\":1218:1236   */\n      tag_103\n      tag_104\n      jump\t// in\n    tag_103:\n        /* \"#utility.yul\":1203:1205   */\n    tag_102:\n        /* \"#utility.yul\":1260:1261   */\n      dup3\n        /* \"#utility.yul\":1257:1258   */\n      dup3\n        /* \"#utility.yul\":1253:1262   */\n      div\n        /* \"#utility.yul\":1248:1262   */\n      swap1\n      pop\n        /* \"#utility.yul\":1125:1268   */\n      swap3\n      swap2\n      pop\n      pop\n      jump\t// out\n        /* \"#utility.yul\":1274:1622   */\n    tag_58:\n      0x00\n        /* \"#utility.yul\":1337:1357   */\n      tag_106\n        /* \"#utility.yul\":1355:1356   */\n      dup3\n        /* \"#utility.yul\":1337:1357   */\n      tag_90\n      jump\t// in\n    tag_106:\n        /* \"#utility.yul\":1332:1357   */\n      swap2\n      pop\n        /* \"#utility.yul\":1371:1391   */\n      tag_107\n        /* \"#utility.yul\":1389:1390   */\n      dup4\n        /* \"#utility.yul\":1371:1391   */\n      tag_90\n      jump\t// in\n    tag_107:\n        /* \"#utility.yul\":1366:1391   */\n      swap3\n      pop\n        /* \"#utility.yul\":1559:1560   */\n      dup2\n        /* \"#utility.yul\":1491:1557   */\n      0xffffffffffffffffffffffffffffffffffffffffffffffffffffffffffffffff\n        /* \"#utility.yul\":1487:1561   */\n      div\n        /* \"#utility.yul\":1484:1485   */\n      dup4\n        /* \"#utility.yul\":1481:1562   */\n      gt\n        /* \"#utility.yul\":1476:1477   */\n      dup3\n        /* \"#utility.yul\":1469:1478   */\n      iszero\n        /* \"#utility.yul\":1462:1479   */\n      iszero\n        /* \"#utility.yul\":1458:1563   */\n      and\n        /* \"#utility.yul\":1455:1457   */\n      iszero\n      tag_108\n      jumpi\n        /* \"#utility.yul\":1566:1584   */\n      tag_109\n      tag_98\n      jump\t// in\n    tag_109:\n        /* \"#utility.yul\":1455:1457   */\n    tag_108:\n        /* \"#utility.yul\":1614:1615   */\n      dup3\n        /* \"#utility.yul\":1611:1612   */\n      dup3\n        /* \"#utility.yul\":1607:1616   */\n      mul\n        /* \"#utility.yul\":1596:1616   */\n      swap1\n      pop\n        /* \"#utility.yul\":1322:1622   */\n      swap3\n      swap2\n      pop\n      pop\n      jump\t// out\n        /* \"#utility.yul\":1628:1819   */\n    tag_51:\n      0x00\n        /* \"#utility.yul\":1688:1708   */\n      tag_111\n        /* \"#utility.yul\":1706:1707   */\n      dup3\n        /* \"#utility.yul\":1688:1708   */\n      tag_90\n      jump\t// in\n    tag_111:\n        /* \"#utility.yul\":1683:1708   */\n      swap2\n      pop\n        /* \"#utility.yul\":1722:1742   */\n      tag_112\n        /* \"#utility.yul\":1740:1741   */\n      dup4\n        /* \"#utility.yul\":1722:1742   */\n      tag_90\n      jump\t// in\n    tag_112:\n        /* \"#utility.yul\":1717:1742   */\n      swap3\n      pop\n        /* \"#utility.yul\":1761:1762   */\n      dup3\n        /* \"#utility.yul\":1758:1759   */\n      dup3\n        /* \"#utility.yul\":1755:1763   */\n      lt\n        /* \"#utility.yul\":1752:1754   */\n      iszero\n      tag_113\n      jumpi\n        /* \"#utility.yul\":1766:1784   */\n      tag_114\n      tag_98\n      jump\t// in\n    tag_114:\n        /* \"#utility.yul\":1752:1754   */\n    tag_113:\n        /* \"#utility.yul\":1811:1812   */\n      dup3\n        /* \"#utility.yul\":1808:1809   */\n      dup3\n        /* \"#utility.yul\":1804:1813   */\n      sub\n        /* \"#utility.yul\":1796:1813   */\n      swap1\n      pop\n        /* \"#utility.yul\":1673:1819   */\n      swap3\n      swap2\n      pop\n      pop\n      jump\t// out\n        /* \"#utility.yul\":1825:1902   */\n    tag_90:\n      0x00\n        /* \"#utility.yul\":1891:1896   */\n      dup2\n        /* \"#utility.yul\":1880:1896   */\n      swap1\n      pop\n        /* \"#utility.yul\":1870:1902   */\n      swap2\n      swap1\n      pop\n      jump\t// out\n        /* \"#utility.yul\":1908:2084   */\n    tag_75:\n      0x00\n        /* \"#utility.yul\":1957:1977   */\n      tag_117\n        /* \"#utility.yul\":1975:1976   */\n      dup3\n        /* \"#utility.yul\":1957:1977   */\n      tag_90\n      jump\t// in\n    tag_117:\n        /* \"#utility.yul\":1952:1977   */\n      swap2\n      pop\n        /* \"#utility.yul\":1991:2011   */\n      tag_118\n        /* \"#utility.yul\":2009:2010   */\n      dup4\n        /* \"#utility.yul\":1991:2011   */\n      tag_90\n      jump\t// in\n    tag_118:\n        /* \"#utility.yul\":1986:2011   */\n      swap3\n      pop\n        /* \"#utility.yul\":2030:2031   */\n      dup3\n        /* \"#utility.yul\":2020:2022   */\n      tag_119\n      jumpi\n        /* \"#utility.yul\":2035:2053   */\n      tag_120\n      tag_104\n      jump\t// in\n    tag_120:\n        /* \"#utility.yul\":2020:2022   */\n    tag_119:\n        /* \"#utility.yul\":2076:2077   */\n      dup3\n        /* \"#utility.yul\":2073:2074   */\n      dup3\n        /* \"#utility.yul\":2069:2078   */\n      mod\n        /* \"#utility.yul\":2064:2078   */\n      swap1\n      pop\n        /* \"#utility.yul\":1942:2084   */\n      swap3\n      swap2\n      pop\n      pop\n      jump\t// out\n        /* \"#utility.yul\":2090:2270   */\n    tag_98:\n        /* \"#utility.yul\":2138:2215   */\n      0x4e487b7100000000000000000000000000000000000000000000000000000000\n        /* \"#utility.yul\":2135:2136   */\n      0x00\n        /* \"#utility.yul\":2128:2216   */\n      mstore\n        /* \"#utility.yul\":2235:2239   */\n      0x11\n        /* \"#utility.yul\":2232:2233   */\n      0x04\n        /* \"#utility.yul\":2225:2240   */\n      mstore\n        /* \"#utility.yul\":2259:2263   */\n      0x24\n        /* \"#utility.yul\":2256:2257   */\n      0x00\n        /* \"#utility.yul\":2249:2264   */\n      revert\n        /* \"#utility.yul\":2276:2456   */\n    tag_104:\n        /* \"#utility.yul\":2324:2401   */\n      0x4e487b7100000000000000000000000000000000000000000000000000000000\n        /* \"#utility.yul\":2321:2322   */\n      0x00\n        /* \"#utility.yul\":2314:2402   */\n      mstore\n        /* \"#utility.yul\":2421:2425   */\n      0x12\n        /* \"#utility.yul\":2418:2419   */\n      0x04\n        /* \"#utility.yul\":2411:2426   */\n      mstore\n        /* \"#utility.yul\":2445:2449   */\n      0x24\n        /* \"#utility.yul\":2442:2443   */\n      0x00\n        /* \"#utility.yul\":2435:2450   */\n      revert\n        /* \"#utility.yul\":2462:2584   */\n    tag_83:\n        /* \"#utility.yul\":2535:2559   */\n      tag_124\n        /* \"#utility.yul\":2553:2558   */\n      dup2\n        /* \"#utility.yul\":2535:2559   */\n      tag_90\n      jump\t// in\n    tag_124:\n        /* \"#utility.yul\":2528:2533   */\n      dup2\n        /* \"#utility.yul\":2525:2560   */\n      eq\n        /* \"#utility.yul\":2515:2517   */\n      tag_125\n      jumpi\n        /* \"#utility.yul\":2574:2575   */\n      0x00\n        /* \"#utility.yul\":2571:2572   */\n      dup1\n        /* \"#utility.yul\":2564:2576   */\n      revert\n        /* \"#utility.yul\":2515:2517   */\n    tag_125:\n        /* \"#utility.yul\":2505:2584   */\n      pop\n      jump\t// out\n\n    auxdata: 0xa2646970667358221220399837ac2de9ce5db48c32e59762f6f9df82cfb4d126e20e0c499cd65ff71f7064736f6c63430008000033\n}\n",
				"bytecode": {
					"linkReferences": {},
					"object": "608060405234801561001057600080fd5b5061057d806100206000396000f3fe608060405234801561001057600080fd5b506004361061009e5760003560e01c806365372147116100665780636537214714610131578063677342ce1461014f5780637b2929091461016b578063886c6f5114610187578063f4bf03c7146101a35761009e565b80631003e2d2146100a357806327ee58a6146100bf5780633e823f79146100db5780635ec470db146100f7578063645444bd14610115575b600080fd5b6100bd60048036038101906100b8919061032f565b6101bf565b005b6100d960048036038101906100d4919061032f565b6101da565b005b6100f560048036038101906100f0919061032f565b6101f5565b005b6100ff610210565b60405161010c9190610367565b60405180910390f35b61012f600480360381019061012a919061032f565b610219565b005b610139610234565b6040516101469190610367565b60405180910390f35b6101696004803603810190610164919061032f565b61023a565b005b6101856004803603810190610180919061032f565b6102ca565b005b6101a1600480360381019061019c919061032f565b6102df565b005b6101bd60048036038101906101b8919061032f565b6102fa565b005b806000808282546101d09190610382565b9250508190555050565b806000808282546101eb9190610463565b9250508190555050565b8060008082825461020691906103d8565b9250508190555050565b60008054905090565b8060008082825461022a9190610409565b9250508190555050565b60005481565b60038111156102a957806000819055506000600160028361025b91906103d8565b6102659190610382565b90505b6000548110156102a35780600081905550600281828461028891906103d8565b6102929190610382565b61029c91906103d8565b9050610268565b506102c7565b600081146102be5760016000819055506102c6565b600080819055505b5b50565b80816102d69190610409565b60008190555050565b806000808282546102f091906104a1565b9250508190555050565b8081826103079190610409565b6103119190610409565b60008190555050565b60008135905061032981610530565b92915050565b60006020828403121561034157600080fd5b600061034f8482850161031a565b91505092915050565b61036181610497565b82525050565b600060208201905061037c6000830184610358565b92915050565b600061038d82610497565b915061039883610497565b9250827fffffffffffffffffffffffffffffffffffffffffffffffffffffffffffffffff038211156103cd576103cc6104d2565b5b828201905092915050565b60006103e382610497565b91506103ee83610497565b9250826103fe576103fd610501565b5b828204905092915050565b600061041482610497565b915061041f83610497565b9250817fffffffffffffffffffffffffffffffffffffffffffffffffffffffffffffffff0483118215151615610458576104576104d2565b5b828202905092915050565b600061046e82610497565b915061047983610497565b92508282101561048c5761048b6104d2565b5b828203905092915050565b6000819050919050565b60006104ac82610497565b91506104b783610497565b9250826104c7576104c6610501565b5b828206905092915050565b7f4e487b7100000000000000000000000000000000000000000000000000000000600052601160045260246000fd5b7f4e487b7100000000000000000000000000000000000000000000000000000000600052601260045260246000fd5b61053981610497565b811461054457600080fd5b5056fea2646970667358221220399837ac2de9ce5db48c32e59762f6f9df82cfb4d126e20e0c499cd65ff71f7064736f6c63430008000033",
					"opcodes": "PUSH1 0x80 PUSH1 0x40 MSTORE CALLVALUE DUP1 ISZERO PUSH2 0x10 JUMPI PUSH1 0x0 DUP1 REVERT JUMPDEST POP PUSH2 0x57D DUP1 PUSH2 0x20 PUSH1 0x0 CODECOPY PUSH1 0x0 RETURN INVALID PUSH1 0x80 PUSH1 0x40 MSTORE CALLVALUE DUP1 ISZERO PUSH2 0x10 JUMPI PUSH1 0x0 DUP1 REVERT JUMPDEST POP PUSH1 0x4 CALLDATASIZE LT PUSH2 0x9E JUMPI PUSH1 0x0 CALLDATALOAD PUSH1 0xE0 SHR DUP1 PUSH4 0x65372147 GT PUSH2 0x66 JUMPI DUP1 PUSH4 0x65372147 EQ PUSH2 0x131 JUMPI DUP1 PUSH4 0x677342CE EQ PUSH2 0x14F JUMPI DUP1 PUSH4 0x7B292909 EQ PUSH2 0x16B JUMPI DUP1 PUSH4 0x886C6F51 EQ PUSH2 0x187 JUMPI DUP1 PUSH4 0xF4BF03C7 EQ PUSH2 0x1A3 JUMPI PUSH2 0x9E JUMP JUMPDEST DUP1 PUSH4 0x1003E2D2 EQ PUSH2 0xA3 JUMPI DUP1 PUSH4 0x27EE58A6 EQ PUSH2 0xBF JUMPI DUP1 PUSH4 0x3E823F79 EQ PUSH2 0xDB JUMPI DUP1 PUSH4 0x5EC470DB EQ PUSH2 0xF7 JUMPI DUP1 PUSH4 0x645444BD EQ PUSH2 0x115 JUMPI JUMPDEST PUSH1 0x0 DUP1 REVERT JUMPDEST PUSH2 0xBD PUSH1 0x4 DUP1 CALLDATASIZE SUB DUP2 ADD SWAP1 PUSH2 0xB8 SWAP2 SWAP1 PUSH2 0x32F JUMP JUMPDEST PUSH2 0x1BF JUMP JUMPDEST STOP JUMPDEST PUSH2 0xD9 PUSH1 0x4 DUP1 CALLDATASIZE SUB DUP2 ADD SWAP1 PUSH2 0xD4 SWAP2 SWAP1 PUSH2 0x32F JUMP JUMPDEST PUSH2 0x1DA JUMP JUMPDEST STOP JUMPDEST PUSH2 0xF5 PUSH1 0x4 DUP1 CALLDATASIZE SUB DUP2 ADD SWAP1 PUSH2 0xF0 SWAP2 SWAP1 PUSH2 0x32F JUMP JUMPDEST PUSH2 0x1F5 JUMP JUMPDEST STOP JUMPDEST PUSH2 0xFF PUSH2 0x210 JUMP JUMPDEST PUSH1 0x40 MLOAD PUSH2 0x10C SWAP2 SWAP1 PUSH2 0x367 JUMP JUMPDEST PUSH1 0x40 MLOAD DUP1 SWAP2 SUB SWAP1 RETURN JUMPDEST PUSH2 0x12F PUSH1 0x4 DUP1 CALLDATASIZE SUB DUP2 ADD SWAP1 PUSH2 0x12A SWAP2 SWAP1 PUSH2 0x32F JUMP JUMPDEST PUSH2 0x219 JUMP JUMPDEST STOP JUMPDEST PUSH2 0x139 PUSH2 0x234 JUMP JUMPDEST PUSH1 0x40 MLOAD PUSH2 0x146 SWAP2 SWAP1 PUSH2 0x367 JUMP JUMPDEST PUSH1 0x40 MLOAD DUP1 SWAP2 SUB SWAP1 RETURN JUMPDEST PUSH2 0x169 PUSH1 0x4 DUP1 CALLDATASIZE SUB DUP2 ADD SWAP1 PUSH2 0x164 SWAP2 SWAP1 PUSH2 0x32F JUMP JUMPDEST PUSH2 0x23A JUMP JUMPDEST STOP JUMPDEST PUSH2 0x185 PUSH1 0x4 DUP1 CALLDATASIZE SUB DUP2 ADD SWAP1 PUSH2 0x180 SWAP2 SWAP1 PUSH2 0x32F JUMP JUMPDEST PUSH2 0x2CA JUMP JUMPDEST STOP JUMPDEST PUSH2 0x1A1 PUSH1 0x4 DUP1 CALLDATASIZE SUB DUP2 ADD SWAP1 PUSH2 0x19C SWAP2 SWAP1 PUSH2 0x32F JUMP JUMPDEST PUSH2 0x2DF JUMP JUMPDEST STOP JUMPDEST PUSH2 0x1BD PUSH1 0x4 DUP1 CALLDATASIZE SUB DUP2 ADD SWAP1 PUSH2 0x1B8 SWAP2 SWAP1 PUSH2 0x32F JUMP JUMPDEST PUSH2 0x2FA JUMP JUMPDEST STOP JUMPDEST DUP1 PUSH1 0x0 DUP1 DUP3 DUP3 SLOAD PUSH2 0x1D0 SWAP2 SWAP1 PUSH2 0x382 JUMP JUMPDEST SWAP3 POP POP DUP2 SWAP1 SSTORE POP POP JUMP JUMPDEST DUP1 PUSH1 0x0 DUP1 DUP3 DUP3 SLOAD PUSH2 0x1EB SWAP2 SWAP1 PUSH2 0x463 JUMP JUMPDEST SWAP3 POP POP DUP2 SWAP1 SSTORE POP POP JUMP JUMPDEST DUP1 PUSH1 0x0 DUP1 DUP3 DUP3 SLOAD PUSH2 0x206 SWAP2 SWAP1 PUSH2 0x3D8 JUMP JUMPDEST SWAP3 POP POP DUP2 SWAP1 SSTORE POP POP JUMP JUMPDEST PUSH1 0x0 DUP1 SLOAD SWAP1 POP SWAP1 JUMP JUMPDEST DUP1 PUSH1 0x0 DUP1 DUP3 DUP3 SLOAD PUSH2 0x22A SWAP2 SWAP1 PUSH2 0x409 JUMP JUMPDEST SWAP3 POP POP DUP2 SWAP1 SSTORE POP POP JUMP JUMPDEST PUSH1 0x0 SLOAD DUP2 JUMP JUMPDEST PUSH1 0x3 DUP2 GT ISZERO PUSH2 0x2A9 JUMPI DUP1 PUSH1 0x0 DUP2 SWAP1 SSTORE POP PUSH1 0x0 PUSH1 0x1 PUSH1 0x2 DUP4 PUSH2 0x25B SWAP2 SWAP1 PUSH2 0x3D8 JUMP JUMPDEST PUSH2 0x265 SWAP2 SWAP1 PUSH2 0x382 JUMP JUMPDEST SWAP1 POP JUMPDEST PUSH1 0x0 SLOAD DUP2 LT ISZERO PUSH2 0x2A3 JUMPI DUP1 PUSH1 0x0 DUP2 SWAP1 SSTORE POP PUSH1 0x2 DUP2 DUP3 DUP5 PUSH2 0x288 SWAP2 SWAP1 PUSH2 0x3D8 JUMP JUMPDEST PUSH2 0x292 SWAP2 SWAP1 PUSH2 0x382 JUMP JUMPDEST PUSH2 0x29C SWAP2 SWAP1 PUSH2 0x3D8 JUMP JUMPDEST SWAP1 POP PUSH2 0x268 JUMP JUMPDEST POP PUSH2 0x2C7 JUMP JUMPDEST PUSH1 0x0 DUP2 EQ PUSH2 0x2BE JUMPI PUSH1 0x1 PUSH1 0x0 DUP2 SWAP1 SSTORE POP PUSH2 0x2C6 JUMP JUMPDEST PUSH1 0x0 DUP1 DUP2 SWAP1 SSTORE POP JUMPDEST JUMPDEST POP JUMP JUMPDEST DUP1 DUP2 PUSH2 0x2D6 SWAP2 SWAP1 PUSH2 0x409 JUMP JUMPDEST PUSH1 0x0 DUP2 SWAP1 SSTORE POP POP JUMP JUMPDEST DUP1 PUSH1 0x0 DUP1 DUP3 DUP3 SLOAD PUSH2 0x2F0 SWAP2 SWAP1 PUSH2 0x4A1 JUMP JUMPDEST SWAP3 POP POP DUP2 SWAP1 SSTORE POP POP JUMP JUMPDEST DUP1 DUP2 DUP3 PUSH2 0x307 SWAP2 SWAP1 PUSH2 0x409 JUMP JUMPDEST PUSH2 0x311 SWAP2 SWAP1 PUSH2 0x409 JUMP JUMPDEST PUSH1 0x0 DUP2 SWAP1 SSTORE POP POP JUMP JUMPDEST PUSH1 0x0 DUP2 CALLDATALOAD SWAP1 POP PUSH2 0x329 DUP2 PUSH2 0x530 JUMP JUMPDEST SWAP3 SWAP2 POP POP JUMP JUMPDEST PUSH1 0x0 PUSH1 0x20 DUP3 DUP5 SUB SLT ISZERO PUSH2 0x341 JUMPI PUSH1 0x0 DUP1 REVERT JUMPDEST PUSH1 0x0 PUSH2 0x34F DUP5 DUP3 DUP6 ADD PUSH2 0x31A JUMP JUMPDEST SWAP2 POP POP SWAP3 SWAP2 POP POP JUMP JUMPDEST PUSH2 0x361 DUP2 PUSH2 0x497 JUMP JUMPDEST DUP3 MSTORE POP POP JUMP JUMPDEST PUSH1 0x0 PUSH1 0x20 DUP3 ADD SWAP1 POP PUSH2 0x37C PUSH1 0x0 DUP4 ADD DUP5 PUSH2 0x358 JUMP JUMPDEST SWAP3 SWAP2 POP POP JUMP JUMPDEST PUSH1 0x0 PUSH2 0x38D DUP3 PUSH2 0x497 JUMP JUMPDEST SWAP2 POP PUSH2 0x398 DUP4 PUSH2 0x497 JUMP JUMPDEST SWAP3 POP DUP3 PUSH32 0xFFFFFFFFFFFFFFFFFFFFFFFFFFFFFFFFFFFFFFFFFFFFFFFFFFFFFFFFFFFFFFFF SUB DUP3 GT ISZERO PUSH2 0x3CD JUMPI PUSH2 0x3CC PUSH2 0x4D2 JUMP JUMPDEST JUMPDEST DUP3 DUP3 ADD SWAP1 POP SWAP3 SWAP2 POP POP JUMP JUMPDEST PUSH1 0x0 PUSH2 0x3E3 DUP3 PUSH2 0x497 JUMP JUMPDEST SWAP2 POP PUSH2 0x3EE DUP4 PUSH2 0x497 JUMP JUMPDEST SWAP3 POP DUP3 PUSH2 0x3FE JUMPI PUSH2 0x3FD PUSH2 0x501 JUMP JUMPDEST JUMPDEST DUP3 DUP3 DIV SWAP1 POP SWAP3 SWAP2 POP POP JUMP JUMPDEST PUSH1 0x0 PUSH2 0x414 DUP3 PUSH2 0x497 JUMP JUMPDEST SWAP2 POP PUSH2 0x41F DUP4 PUSH2 0x497 JUMP JUMPDEST SWAP3 POP DUP2 PUSH32 0xFFFFFFFFFFFFFFFFFFFFFFFFFFFFFFFFFFFFFFFFFFFFFFFFFFFFFFFFFFFFFFFF DIV DUP4 GT DUP3 ISZERO ISZERO AND ISZERO PUSH2 0x458 JUMPI PUSH2 0x457 PUSH2 0x4D2 JUMP JUMPDEST JUMPDEST DUP3 DUP3 MUL SWAP1 POP SWAP3 SWAP2 POP POP JUMP JUMPDEST PUSH1 0x0 PUSH2 0x46E DUP3 PUSH2 0x497 JUMP JUMPDEST SWAP2 POP PUSH2 0x479 DUP4 PUSH2 0x497 JUMP JUMPDEST SWAP3 POP DUP3 DUP3 LT ISZERO PUSH2 0x48C JUMPI PUSH2 0x48B PUSH2 0x4D2 JUMP JUMPDEST JUMPDEST DUP3 DUP3 SUB SWAP1 POP SWAP3 SWAP2 POP POP JUMP JUMPDEST PUSH1 0x0 DUP2 SWAP1 POP SWAP2 SWAP1 POP JUMP JUMPDEST PUSH1 0x0 PUSH2 0x4AC DUP3 PUSH2 0x497 JUMP JUMPDEST SWAP2 POP PUSH2 0x4B7 DUP4 PUSH2 0x497 JUMP JUMPDEST SWAP3 POP DUP3 PUSH2 0x4C7 JUMPI PUSH2 0x4C6 PUSH2 0x501 JUMP JUMPDEST JUMPDEST DUP3 DUP3 MOD SWAP1 POP SWAP3 SWAP2 POP POP JUMP JUMPDEST PUSH32 0x4E487B7100000000000000000000000000000000000000000000000000000000 PUSH1 0x0 MSTORE PUSH1 0x11 PUSH1 0x4 MSTORE PUSH1 0x24 PUSH1 0x0 REVERT JUMPDEST PUSH32 0x4E487B7100000000000000000000000000000000000000000000000000000000 PUSH1 0x0 MSTORE PUSH1 0x12 PUSH1 0x4 MSTORE PUSH1 0x24 PUSH1 0x0 REVERT JUMPDEST PUSH2 0x539 DUP2 PUSH2 0x497 JUMP JUMPDEST DUP2 EQ PUSH2 0x544 JUMPI PUSH1 0x0 DUP1 REVERT JUMPDEST POP JUMP INVALID LOG2 PUSH5 0x6970667358 0x22 SLT KECCAK256 CODECOPY SWAP9 CALLDATACOPY 0xAC 0x2D 0xE9 0xCE 0x5D 0xB4 DUP13 ORIGIN 0xE5 SWAP8 PUSH3 0xF6F9DF DUP3 0xCF 0xB4 0xD1 0x26 0xE2 0xE 0xC 0x49 SWAP13 0xD6 0x5F 0xF7 0x1F PUSH17 0x64736F6C63430008000033000000000000 "
				},
				"gasEstimates": {
					"creation": {
						"codeDepositCost": "281000",
						"executionCost": "318",
						"totalCost": "281318"
					},
					"external": {
						"SeeResult()": "1204",
						"add(uint256)": "infinite",
						"cube(uint256)": "infinite",
						"divide(uint256)": "infinite",
						"modulo(uint256)": "infinite",
						"multi(uint256)": "infinite",
						"result()": "1129",
						"sqrt(uint256)": "infinite",
						"square(uint256)": "infinite",
						"sub(uint256)": "infinite"
					}
				},
				"methodIdentifiers": {
					"SeeResult()": "5ec470db",
					"add(uint256)": "1003e2d2",
					"cube(uint256)": "f4bf03c7",
					"divide(uint256)": "3e823f79",
					"modulo(uint256)": "886c6f51",
					"multi(uint256)": "645444bd",
					"result()": "65372147",
					"sqrt(uint256)": "677342ce",
					"square(uint256)": "7b292909",
					"sub(uint256)": "27ee58a6"
				}
			},
			"storageLayout": {
				"storage": [
					{
						"astId": 3,
						"contract": "Practice/exportCalculator.sol:Calculator",
						"label": "result",
						"offset": 0,
						"slot": "0",
						"type": "t_uint256"
					}
				],
				"types": {
					"t_uint256": {
						"encoding": "inplace",
						"label": "uint256",
						"numberOfBytes": "32"
					}
				}
			},
			"userdoc": {
				"kind": "user",
				"methods": {},
				"version": 1
			}
		}
	}
}