{
	"data": {
		"bytecode": {
			"linkReferences": {},
			"object": "608060405234801561001057600080fd5b506101cd806100206000396000f3fe608060405234801561001057600080fd5b50600436106100415760003560e01c8063200d2ed2146100465780634e69d56014610064578063c033662914610082575b600080fd5b61004e61008c565b60405161005b9190610114565b60405180910390f35b61006c61009d565b6040516100799190610114565b60405180910390f35b61008a6100b3565b005b60008054906101000a900460ff1681565b60008060009054906101000a900460ff16905090565b60026000806101000a81548160ff021916908360068111156100fe577f4e487b7100000000000000000000000000000000000000000000000000000000600052602160045260246000fd5b0217905550565b61010e81610142565b82525050565b60006020820190506101296000830184610105565b92915050565b600081905061013d82610183565b919050565b600061014d8261012f565b9050919050565b7f4e487b7100000000000000000000000000000000000000000000000000000000600052602160045260246000fd5b6007811061019457610193610154565b5b5056fea2646970667358221220916c286f895048aeb27fcbcd8f3b3c88d8575c3179d1bb06bcfb9c9fb5d0cddd64736f6c63430008000033",
			"opcodes": "PUSH1 0x80 PUSH1 0x40 MSTORE CALLVALUE DUP1 ISZERO PUSH2 0x10 JUMPI PUSH1 0x0 DUP1 REVERT JUMPDEST POP PUSH2 0x1CD DUP1 PUSH2 0x20 PUSH1 0x0 CODECOPY PUSH1 0x0 RETURN INVALID PUSH1 0x80 PUSH1 0x40 MSTORE CALLVALUE DUP1 ISZERO PUSH2 0x10 JUMPI PUSH1 0x0 DUP1 REVERT JUMPDEST POP PUSH1 0x4 CALLDATASIZE LT PUSH2 0x41 JUMPI PUSH1 0x0 CALLDATALOAD PUSH1 0xE0 SHR DUP1 PUSH4 0x200D2ED2 EQ PUSH2 0x46 JUMPI DUP1 PUSH4 0x4E69D560 EQ PUSH2 0x64 JUMPI DUP1 PUSH4 0xC0336629 EQ PUSH2 0x82 JUMPI JUMPDEST PUSH1 0x0 DUP1 REVERT JUMPDEST PUSH2 0x4E PUSH2 0x8C JUMP JUMPDEST PUSH1 0x40 MLOAD PUSH2 0x5B SWAP2 SWAP1 PUSH2 0x114 JUMP JUMPDEST PUSH1 0x40 MLOAD DUP1 SWAP2 SUB SWAP1 RETURN JUMPDEST PUSH2 0x6C PUSH2 0x9D JUMP JUMPDEST PUSH1 0x40 MLOAD PUSH2 0x79 SWAP2 SWAP1 PUSH2 0x114 JUMP JUMPDEST PUSH1 0x40 MLOAD DUP1 SWAP2 SUB SWAP1 RETURN JUMPDEST PUSH2 0x8A PUSH2 0xB3 JUMP JUMPDEST STOP JUMPDEST PUSH1 0x0 DUP1 SLOAD SWAP1 PUSH2 0x100 EXP SWAP1 DIV PUSH1 0xFF AND DUP2 JUMP JUMPDEST PUSH1 0x0 DUP1 PUSH1 0x0 SWAP1 SLOAD SWAP1 PUSH2 0x100 EXP SWAP1 DIV PUSH1 0xFF AND SWAP1 POP SWAP1 JUMP JUMPDEST PUSH1 0x2 PUSH1 0x0 DUP1 PUSH2 0x100 EXP DUP2 SLOAD DUP2 PUSH1 0xFF MUL NOT AND SWAP1 DUP4 PUSH1 0x6 DUP2 GT ISZERO PUSH2 0xFE JUMPI PUSH32 0x4E487B7100000000000000000000000000000000000000000000000000000000 PUSH1 0x0 MSTORE PUSH1 0x21 PUSH1 0x4 MSTORE PUSH1 0x24 PUSH1 0x0 REVERT JUMPDEST MUL OR SWAP1 SSTORE POP JUMP JUMPDEST PUSH2 0x10E DUP2 PUSH2 0x142 JUMP JUMPDEST DUP3 MSTORE POP POP JUMP JUMPDEST PUSH1 0x0 PUSH1 0x20 DUP3 ADD SWAP1 POP PUSH2 0x129 PUSH1 0x0 DUP4 ADD DUP5 PUSH2 0x105 JUMP JUMPDEST SWAP3 SWAP2 POP POP JUMP JUMPDEST PUSH1 0x0 DUP2 SWAP1 POP PUSH2 0x13D DUP3 PUSH2 0x183 JUMP JUMPDEST SWAP2 SWAP1 POP JUMP JUMPDEST PUSH1 0x0 PUSH2 0x14D DUP3 PUSH2 0x12F JUMP JUMPDEST SWAP1 POP SWAP2 SWAP1 POP JUMP JUMPDEST PUSH32 0x4E487B7100000000000000000000000000000000000000000000000000000000 PUSH1 0x0 MSTORE PUSH1 0x21 PUSH1 0x4 MSTORE PUSH1 0x24 PUSH1 0x0 REVERT JUMPDEST PUSH1 0x7 DUP2 LT PUSH2 0x194 JUMPI PUSH2 0x193 PUSH2 0x154 JUMP JUMPDEST JUMPDEST POP JUMP INVALID LOG2 PUSH5 0x6970667358 0x22 SLT KECCAK256 SWAP2 PUSH13 0x286F895048AEB27FCBCD8F3B3C DUP9 0xD8 JUMPI 0x5C BALANCE PUSH26 0xD1BB06BCFB9C9FB5D0CDDD64736F6C6343000800003300000000 "
		},
		"gasEstimates": {
			"creation": {
				"codeDepositCost": "92200",
				"executionCost": "141",
				"totalCost": "92341"
			},
			"external": {
				"getStatus()": "1268",
				"setStatus()": "21053",
				"status()": "1235"
			}
		},
		"methodIdentifiers": {
			"getStatus()": "4e69d560",
			"setStatus()": "c0336629",
			"status()": "200d2ed2"
		}
	},
	"abi": [
		{
			"inputs": [],
			"name": "getStatus",
			"outputs": [
				{
					"internalType": "enum createEnum.AmazonStatus",
					"name": "",
					"type": "uint8"
				}
			],
			"stateMutability": "view",
			"type": "function"
		},
		{
			"inputs": [],
			"name": "setStatus",
			"outputs": [],
			"stateMutability": "nonpayable",
			"type": "function"
		},
		{
			"inputs": [],
			"name": "status",
			"outputs": [
				{
					"internalType": "enum createEnum.AmazonStatus",
					"name": "",
					"type": "uint8"
				}
			],
			"stateMutability": "view",
			"type": "function"
		}
	]
}