{
	"data": {
		"bytecode": {
			"linkReferences": {},
			"object": "6080604052348015600e575f5ffd5b506113098061001c5f395ff3fe608060405260043610610054575f3560e01c80632e1a7d4d146100585780636999512814610074578063a87430ba1461008a578063cc982206146100c9578063d0e30db0146100e5578063fbbf93a0146100ef575b5f5ffd5b610072600480360381019061006d9190610932565b61011b565b005b34801561007f575f5ffd5b5061008861021c565b005b348015610095575f5ffd5b506100b060048036038101906100ab91906109b7565b610363565b6040516100c09493929190610a70565b60405180910390f35b6100e360048036038101906100de9190610be6565b610433565b005b6100ed610629565b005b3480156100fa575f5ffd5b5061010361078e565b60405161011293929190610c40565b60405180910390f35b805f5f3373ffffffffffffffffffffffffffffffffffffffff1673ffffffffffffffffffffffffffffffffffffffff1681526020019081526020015f206002015f8282546101699190610ca9565b925050819055505f3373ffffffffffffffffffffffffffffffffffffffff168260405161019590610d09565b5f6040518083038185875af1925050503d805f81146101cf576040519150601f19603f3d011682016040523d82523d5f602084013e6101d4565b606091505b5050905080610218576040517f08c379a000000000000000000000000000000000000000000000000000000000815260040161020f90610d67565b60405180910390fd5b5050565b5f5f3373ffffffffffffffffffffffffffffffffffffffff1673ffffffffffffffffffffffffffffffffffffffff1681526020019081526020015f206001015f9054906101000a900473ffffffffffffffffffffffffffffffffffffffff1673ffffffffffffffffffffffffffffffffffffffff163373ffffffffffffffffffffffffffffffffffffffff16146102e8576040517f08c379a00000000000000000000000000000000000000000000000000000000081526004016102df90610dcf565b60405180910390fd5b5f5f5f3373ffffffffffffffffffffffffffffffffffffffff1673ffffffffffffffffffffffffffffffffffffffff1681526020019081526020015f20905060648160030154826002015461033d9190610ded565b6103479190610e5b565b816002015f8282546103599190610e8b565b9250508190555050565b5f602052805f5260405f205f91509050805f01805461038190610eeb565b80601f01602080910402602001604051908101604052809291908181526020018280546103ad90610eeb565b80156103f85780601f106103cf576101008083540402835291602001916103f8565b820191905f5260205f20905b8154815290600101906020018083116103db57829003601f168201915b505050505090806001015f9054906101000a900473ffffffffffffffffffffffffffffffffffffffff16908060020154908060030154905084565b5f3411610475576040517f08c379a000000000000000000000000000000000000000000000000000000000815260040161046c90610f65565b60405180910390fd5b5f5f3373ffffffffffffffffffffffffffffffffffffffff1673ffffffffffffffffffffffffffffffffffffffff1681526020019081526020015f206001015f9054906101000a900473ffffffffffffffffffffffffffffffffffffffff1673ffffffffffffffffffffffffffffffffffffffff163373ffffffffffffffffffffffffffffffffffffffff1603610541576040517f08c379a000000000000000000000000000000000000000000000000000000000815260040161053890610fcd565b60405180910390fd5b60405180608001604052808381526020013373ffffffffffffffffffffffffffffffffffffffff168152602001348152602001828152505f5f3373ffffffffffffffffffffffffffffffffffffffff1673ffffffffffffffffffffffffffffffffffffffff1681526020019081526020015f205f820151815f0190816105c7919061119c565b506020820151816001015f6101000a81548173ffffffffffffffffffffffffffffffffffffffff021916908373ffffffffffffffffffffffffffffffffffffffff16021790555060408201518160020155606082015181600301559050505050565b5f5f3373ffffffffffffffffffffffffffffffffffffffff1673ffffffffffffffffffffffffffffffffffffffff1681526020019081526020015f206001015f9054906101000a900473ffffffffffffffffffffffffffffffffffffffff1673ffffffffffffffffffffffffffffffffffffffff163373ffffffffffffffffffffffffffffffffffffffff16146106f5576040517f08c379a00000000000000000000000000000000000000000000000000000000081526004016106ec906112b5565b60405180910390fd5b5f3411610737576040517f08c379a000000000000000000000000000000000000000000000000000000000815260040161072e90610f65565b60405180910390fd5b345f5f3373ffffffffffffffffffffffffffffffffffffffff1673ffffffffffffffffffffffffffffffffffffffff1681526020019081526020015f206002015f8282546107859190610e8b565b92505081905550565b60605f5f5f5f5f3373ffffffffffffffffffffffffffffffffffffffff1673ffffffffffffffffffffffffffffffffffffffff1681526020019081526020015f206040518060800160405290815f820180546107e990610eeb565b80601f016020809104026020016040519081016040528092919081815260200182805461081590610eeb565b80156108605780601f1061083757610100808354040283529160200191610860565b820191905f5260205f20905b81548152906001019060200180831161084357829003601f168201915b50505050508152602001600182015f9054906101000a900473ffffffffffffffffffffffffffffffffffffffff1673ffffffffffffffffffffffffffffffffffffffff1673ffffffffffffffffffffffffffffffffffffffff168152602001600282015481526020016003820154815250509050805f01518160400151826060015193509350935050909192565b5f604051905090565b5f5ffd5b5f5ffd5b5f819050919050565b610911816108ff565b811461091b575f5ffd5b50565b5f8135905061092c81610908565b92915050565b5f60208284031215610947576109466108f7565b5b5f6109548482850161091e565b91505092915050565b5f73ffffffffffffffffffffffffffffffffffffffff82169050919050565b5f6109868261095d565b9050919050565b6109968161097c565b81146109a0575f5ffd5b50565b5f813590506109b18161098d565b92915050565b5f602082840312156109cc576109cb6108f7565b5b5f6109d9848285016109a3565b91505092915050565b5f81519050919050565b5f82825260208201905092915050565b8281835e5f83830152505050565b5f601f19601f8301169050919050565b5f610a24826109e2565b610a2e81856109ec565b9350610a3e8185602086016109fc565b610a4781610a0a565b840191505092915050565b610a5b8161097c565b82525050565b610a6a816108ff565b82525050565b5f6080820190508181035f830152610a888187610a1a565b9050610a976020830186610a52565b610aa46040830185610a61565b610ab16060830184610a61565b95945050505050565b5f5ffd5b5f5ffd5b7f4e487b71000000000000000000000000000000000000000000000000000000005f52604160045260245ffd5b610af882610a0a565b810181811067ffffffffffffffff82111715610b1757610b16610ac2565b5b80604052505050565b5f610b296108ee565b9050610b358282610aef565b919050565b5f67ffffffffffffffff821115610b5457610b53610ac2565b5b610b5d82610a0a565b9050602081019050919050565b828183375f83830152505050565b5f610b8a610b8584610b3a565b610b20565b905082815260208101848484011115610ba657610ba5610abe565b5b610bb1848285610b6a565b509392505050565b5f82601f830112610bcd57610bcc610aba565b5b8135610bdd848260208601610b78565b91505092915050565b5f5f60408385031215610bfc57610bfb6108f7565b5b5f83013567ffffffffffffffff811115610c1957610c186108fb565b5b610c2585828601610bb9565b9250506020610c368582860161091e565b9150509250929050565b5f6060820190508181035f830152610c588186610a1a565b9050610c676020830185610a61565b610c746040830184610a61565b949350505050565b7f4e487b71000000000000000000000000000000000000000000000000000000005f52601160045260245ffd5b5f610cb3826108ff565b9150610cbe836108ff565b9250828203905081811115610cd657610cd5610c7c565b5b92915050565b5f81905092915050565b50565b5f610cf45f83610cdc565b9150610cff82610ce6565b5f82019050919050565b5f610d1382610ce9565b9150819050919050565b7f5472616e73666572206661696c656400000000000000000000000000000000005f82015250565b5f610d51600f836109ec565b9150610d5c82610d1d565b602082019050919050565b5f6020820190508181035f830152610d7e81610d45565b9050919050565b7f436f6d6d616e642052656a6563746564000000000000000000000000000000005f82015250565b5f610db96010836109ec565b9150610dc482610d85565b602082019050919050565b5f6020820190508181035f830152610de681610dad565b9050919050565b5f610df7826108ff565b9150610e02836108ff565b9250828202610e10816108ff565b91508282048414831517610e2757610e26610c7c565b5b5092915050565b7f4e487b71000000000000000000000000000000000000000000000000000000005f52601260045260245ffd5b5f610e65826108ff565b9150610e70836108ff565b925082610e8057610e7f610e2e565b5b828204905092915050565b5f610e95826108ff565b9150610ea0836108ff565b9250828201905080821115610eb857610eb7610c7c565b5b92915050565b7f4e487b71000000000000000000000000000000000000000000000000000000005f52602260045260245ffd5b5f6002820490506001821680610f0257607f821691505b602082108103610f1557610f14610ebe565b5b50919050565b7f4465706f73697420736f6d6520616d6f756e74212100000000000000000000005f82015250565b5f610f4f6015836109ec565b9150610f5a82610f1b565b602082019050919050565b5f6020820190508181035f830152610f7c81610f43565b9050919050565b7f616c7265616479206578697374000000000000000000000000000000000000005f82015250565b5f610fb7600d836109ec565b9150610fc282610f83565b602082019050919050565b5f6020820190508181035f830152610fe481610fab565b9050919050565b5f819050815f5260205f209050919050565b5f6020601f8301049050919050565b5f82821b905092915050565b5f600883026110477fffffffffffffffffffffffffffffffffffffffffffffffffffffffffffffffff8261100c565b611051868361100c565b95508019841693508086168417925050509392505050565b5f819050919050565b5f61108c611087611082846108ff565b611069565b6108ff565b9050919050565b5f819050919050565b6110a583611072565b6110b96110b182611093565b848454611018565b825550505050565b5f5f905090565b6110d06110c1565b6110db81848461109c565b505050565b5f5b82811015611101576110f65f8284016110c8565b6001810190506110e2565b505050565b601f82111561115457828211156111535761112081610feb565b61112983610ffd565b61113285610ffd565b602086101561113f575f90505b80830161114e828403826110e0565b505050505b5b505050565b5f82821c905092915050565b5f6111745f1984600802611159565b1980831691505092915050565b5f61118c8383611165565b9150826002028217905092915050565b6111a5826109e2565b67ffffffffffffffff8111156111be576111bd610ac2565b5b6111c88254610eeb565b6111d3828285611106565b5f60209050601f831160018114611204575f84156111f2578287015190505b6111fc8582611181565b865550611263565b601f19841661121286610feb565b5f5b8281101561123957848901518255600182019150602085019450602081019050611214565b868310156112565784890151611252601f891682611165565b8355505b6001600288020188555050505b505050505050565b7f4e6f7420657869737400000000000000000000000000000000000000000000005f82015250565b5f61129f6009836109ec565b91506112aa8261126b565b602082019050919050565b5f6020820190508181035f8301526112cc81611293565b905091905056fea26469706673582212200cf9b2d4eee8826b9a6cec75d0e90082c729918522432fd979afae391109d5a564736f6c63430008220033",
			"opcodes": "PUSH1 0x80 PUSH1 0x40 MSTORE CALLVALUE DUP1 ISZERO PUSH1 0xE JUMPI PUSH0 PUSH0 REVERT JUMPDEST POP PUSH2 0x1309 DUP1 PUSH2 0x1C PUSH0 CODECOPY PUSH0 RETURN INVALID PUSH1 0x80 PUSH1 0x40 MSTORE PUSH1 0x4 CALLDATASIZE LT PUSH2 0x54 JUMPI PUSH0 CALLDATALOAD PUSH1 0xE0 SHR DUP1 PUSH4 0x2E1A7D4D EQ PUSH2 0x58 JUMPI DUP1 PUSH4 0x69995128 EQ PUSH2 0x74 JUMPI DUP1 PUSH4 0xA87430BA EQ PUSH2 0x8A JUMPI DUP1 PUSH4 0xCC982206 EQ PUSH2 0xC9 JUMPI DUP1 PUSH4 0xD0E30DB0 EQ PUSH2 0xE5 JUMPI DUP1 PUSH4 0xFBBF93A0 EQ PUSH2 0xEF JUMPI JUMPDEST PUSH0 PUSH0 REVERT JUMPDEST PUSH2 0x72 PUSH1 0x4 DUP1 CALLDATASIZE SUB DUP2 ADD SWAP1 PUSH2 0x6D SWAP2 SWAP1 PUSH2 0x932 JUMP JUMPDEST PUSH2 0x11B JUMP JUMPDEST STOP JUMPDEST CALLVALUE DUP1 ISZERO PUSH2 0x7F JUMPI PUSH0 PUSH0 REVERT JUMPDEST POP PUSH2 0x88 PUSH2 0x21C JUMP JUMPDEST STOP JUMPDEST CALLVALUE DUP1 ISZERO PUSH2 0x95 JUMPI PUSH0 PUSH0 REVERT JUMPDEST POP PUSH2 0xB0 PUSH1 0x4 DUP1 CALLDATASIZE SUB DUP2 ADD SWAP1 PUSH2 0xAB SWAP2 SWAP1 PUSH2 0x9B7 JUMP JUMPDEST PUSH2 0x363 JUMP JUMPDEST PUSH1 0x40 MLOAD PUSH2 0xC0 SWAP5 SWAP4 SWAP3 SWAP2 SWAP1 PUSH2 0xA70 JUMP JUMPDEST PUSH1 0x40 MLOAD DUP1 SWAP2 SUB SWAP1 RETURN JUMPDEST PUSH2 0xE3 PUSH1 0x4 DUP1 CALLDATASIZE SUB DUP2 ADD SWAP1 PUSH2 0xDE SWAP2 SWAP1 PUSH2 0xBE6 JUMP JUMPDEST PUSH2 0x433 JUMP JUMPDEST STOP JUMPDEST PUSH2 0xED PUSH2 0x629 JUMP JUMPDEST STOP JUMPDEST CALLVALUE DUP1 ISZERO PUSH2 0xFA JUMPI PUSH0 PUSH0 REVERT JUMPDEST POP PUSH2 0x103 PUSH2 0x78E JUMP JUMPDEST PUSH1 0x40 MLOAD PUSH2 0x112 SWAP4 SWAP3 SWAP2 SWAP1 PUSH2 0xC40 JUMP JUMPDEST PUSH1 0x40 MLOAD DUP1 SWAP2 SUB SWAP1 RETURN JUMPDEST DUP1 PUSH0 PUSH0 CALLER PUSH20 0xFFFFFFFFFFFFFFFFFFFFFFFFFFFFFFFFFFFFFFFF AND PUSH20 0xFFFFFFFFFFFFFFFFFFFFFFFFFFFFFFFFFFFFFFFF AND DUP2 MSTORE PUSH1 0x20 ADD SWAP1 DUP2 MSTORE PUSH1 0x20 ADD PUSH0 KECCAK256 PUSH1 0x2 ADD PUSH0 DUP3 DUP3 SLOAD PUSH2 0x169 SWAP2 SWAP1 PUSH2 0xCA9 JUMP JUMPDEST SWAP3 POP POP DUP2 SWAP1 SSTORE POP PUSH0 CALLER PUSH20 0xFFFFFFFFFFFFFFFFFFFFFFFFFFFFFFFFFFFFFFFF AND DUP3 PUSH1 0x40 MLOAD PUSH2 0x195 SWAP1 PUSH2 0xD09 JUMP JUMPDEST PUSH0 PUSH1 0x40 MLOAD DUP1 DUP4 SUB DUP2 DUP6 DUP8 GAS CALL SWAP3 POP POP POP RETURNDATASIZE DUP1 PUSH0 DUP2 EQ PUSH2 0x1CF JUMPI PUSH1 0x40 MLOAD SWAP2 POP PUSH1 0x1F NOT PUSH1 0x3F RETURNDATASIZE ADD AND DUP3 ADD PUSH1 0x40 MSTORE RETURNDATASIZE DUP3 MSTORE RETURNDATASIZE PUSH0 PUSH1 0x20 DUP5 ADD RETURNDATACOPY PUSH2 0x1D4 JUMP JUMPDEST PUSH1 0x60 SWAP2 POP JUMPDEST POP POP SWAP1 POP DUP1 PUSH2 0x218 JUMPI PUSH1 0x40 MLOAD PUSH32 0x8C379A000000000000000000000000000000000000000000000000000000000 DUP2 MSTORE PUSH1 0x4 ADD PUSH2 0x20F SWAP1 PUSH2 0xD67 JUMP JUMPDEST PUSH1 0x40 MLOAD DUP1 SWAP2 SUB SWAP1 REVERT JUMPDEST POP POP JUMP JUMPDEST PUSH0 PUSH0 CALLER PUSH20 0xFFFFFFFFFFFFFFFFFFFFFFFFFFFFFFFFFFFFFFFF AND PUSH20 0xFFFFFFFFFFFFFFFFFFFFFFFFFFFFFFFFFFFFFFFF AND DUP2 MSTORE PUSH1 0x20 ADD SWAP1 DUP2 MSTORE PUSH1 0x20 ADD PUSH0 KECCAK256 PUSH1 0x1 ADD PUSH0 SWAP1 SLOAD SWAP1 PUSH2 0x100 EXP SWAP1 DIV PUSH20 0xFFFFFFFFFFFFFFFFFFFFFFFFFFFFFFFFFFFFFFFF AND PUSH20 0xFFFFFFFFFFFFFFFFFFFFFFFFFFFFFFFFFFFFFFFF AND CALLER PUSH20 0xFFFFFFFFFFFFFFFFFFFFFFFFFFFFFFFFFFFFFFFF AND EQ PUSH2 0x2E8 JUMPI PUSH1 0x40 MLOAD PUSH32 0x8C379A000000000000000000000000000000000000000000000000000000000 DUP2 MSTORE PUSH1 0x4 ADD PUSH2 0x2DF SWAP1 PUSH2 0xDCF JUMP JUMPDEST PUSH1 0x40 MLOAD DUP1 SWAP2 SUB SWAP1 REVERT JUMPDEST PUSH0 PUSH0 PUSH0 CALLER PUSH20 0xFFFFFFFFFFFFFFFFFFFFFFFFFFFFFFFFFFFFFFFF AND PUSH20 0xFFFFFFFFFFFFFFFFFFFFFFFFFFFFFFFFFFFFFFFF AND DUP2 MSTORE PUSH1 0x20 ADD SWAP1 DUP2 MSTORE PUSH1 0x20 ADD PUSH0 KECCAK256 SWAP1 POP PUSH1 0x64 DUP2 PUSH1 0x3 ADD SLOAD DUP3 PUSH1 0x2 ADD SLOAD PUSH2 0x33D SWAP2 SWAP1 PUSH2 0xDED JUMP JUMPDEST PUSH2 0x347 SWAP2 SWAP1 PUSH2 0xE5B JUMP JUMPDEST DUP2 PUSH1 0x2 ADD PUSH0 DUP3 DUP3 SLOAD PUSH2 0x359 SWAP2 SWAP1 PUSH2 0xE8B JUMP JUMPDEST SWAP3 POP POP DUP2 SWAP1 SSTORE POP POP JUMP JUMPDEST PUSH0 PUSH1 0x20 MSTORE DUP1 PUSH0 MSTORE PUSH1 0x40 PUSH0 KECCAK256 PUSH0 SWAP2 POP SWAP1 POP DUP1 PUSH0 ADD DUP1 SLOAD PUSH2 0x381 SWAP1 PUSH2 0xEEB JUMP JUMPDEST DUP1 PUSH1 0x1F ADD PUSH1 0x20 DUP1 SWAP2 DIV MUL PUSH1 0x20 ADD PUSH1 0x40 MLOAD SWAP1 DUP2 ADD PUSH1 0x40 MSTORE DUP1 SWAP3 SWAP2 SWAP1 DUP2 DUP2 MSTORE PUSH1 0x20 ADD DUP3 DUP1 SLOAD PUSH2 0x3AD SWAP1 PUSH2 0xEEB JUMP JUMPDEST DUP1 ISZERO PUSH2 0x3F8 JUMPI DUP1 PUSH1 0x1F LT PUSH2 0x3CF JUMPI PUSH2 0x100 DUP1 DUP4 SLOAD DIV MUL DUP4 MSTORE SWAP2 PUSH1 0x20 ADD SWAP2 PUSH2 0x3F8 JUMP JUMPDEST DUP3 ADD SWAP2 SWAP1 PUSH0 MSTORE PUSH1 0x20 PUSH0 KECCAK256 SWAP1 JUMPDEST DUP2 SLOAD DUP2 MSTORE SWAP1 PUSH1 0x1 ADD SWAP1 PUSH1 0x20 ADD DUP1 DUP4 GT PUSH2 0x3DB JUMPI DUP3 SWAP1 SUB PUSH1 0x1F AND DUP3 ADD SWAP2 JUMPDEST POP POP POP POP POP SWAP1 DUP1 PUSH1 0x1 ADD PUSH0 SWAP1 SLOAD SWAP1 PUSH2 0x100 EXP SWAP1 DIV PUSH20 0xFFFFFFFFFFFFFFFFFFFFFFFFFFFFFFFFFFFFFFFF AND SWAP1 DUP1 PUSH1 0x2 ADD SLOAD SWAP1 DUP1 PUSH1 0x3 ADD SLOAD SWAP1 POP DUP5 JUMP JUMPDEST PUSH0 CALLVALUE GT PUSH2 0x475 JUMPI PUSH1 0x40 MLOAD PUSH32 0x8C379A000000000000000000000000000000000000000000000000000000000 DUP2 MSTORE PUSH1 0x4 ADD PUSH2 0x46C SWAP1 PUSH2 0xF65 JUMP JUMPDEST PUSH1 0x40 MLOAD DUP1 SWAP2 SUB SWAP1 REVERT JUMPDEST PUSH0 PUSH0 CALLER PUSH20 0xFFFFFFFFFFFFFFFFFFFFFFFFFFFFFFFFFFFFFFFF AND PUSH20 0xFFFFFFFFFFFFFFFFFFFFFFFFFFFFFFFFFFFFFFFF AND DUP2 MSTORE PUSH1 0x20 ADD SWAP1 DUP2 MSTORE PUSH1 0x20 ADD PUSH0 KECCAK256 PUSH1 0x1 ADD PUSH0 SWAP1 SLOAD SWAP1 PUSH2 0x100 EXP SWAP1 DIV PUSH20 0xFFFFFFFFFFFFFFFFFFFFFFFFFFFFFFFFFFFFFFFF AND PUSH20 0xFFFFFFFFFFFFFFFFFFFFFFFFFFFFFFFFFFFFFFFF AND CALLER PUSH20 0xFFFFFFFFFFFFFFFFFFFFFFFFFFFFFFFFFFFFFFFF AND SUB PUSH2 0x541 JUMPI PUSH1 0x40 MLOAD PUSH32 0x8C379A000000000000000000000000000000000000000000000000000000000 DUP2 MSTORE PUSH1 0x4 ADD PUSH2 0x538 SWAP1 PUSH2 0xFCD JUMP JUMPDEST PUSH1 0x40 MLOAD DUP1 SWAP2 SUB SWAP1 REVERT JUMPDEST PUSH1 0x40 MLOAD DUP1 PUSH1 0x80 ADD PUSH1 0x40 MSTORE DUP1 DUP4 DUP2 MSTORE PUSH1 0x20 ADD CALLER PUSH20 0xFFFFFFFFFFFFFFFFFFFFFFFFFFFFFFFFFFFFFFFF AND DUP2 MSTORE PUSH1 0x20 ADD CALLVALUE DUP2 MSTORE PUSH1 0x20 ADD DUP3 DUP2 MSTORE POP PUSH0 PUSH0 CALLER PUSH20 0xFFFFFFFFFFFFFFFFFFFFFFFFFFFFFFFFFFFFFFFF AND PUSH20 0xFFFFFFFFFFFFFFFFFFFFFFFFFFFFFFFFFFFFFFFF AND DUP2 MSTORE PUSH1 0x20 ADD SWAP1 DUP2 MSTORE PUSH1 0x20 ADD PUSH0 KECCAK256 PUSH0 DUP3 ADD MLOAD DUP2 PUSH0 ADD SWAP1 DUP2 PUSH2 0x5C7 SWAP2 SWAP1 PUSH2 0x119C JUMP JUMPDEST POP PUSH1 0x20 DUP3 ADD MLOAD DUP2 PUSH1 0x1 ADD PUSH0 PUSH2 0x100 EXP DUP2 SLOAD DUP2 PUSH20 0xFFFFFFFFFFFFFFFFFFFFFFFFFFFFFFFFFFFFFFFF MUL NOT AND SWAP1 DUP4 PUSH20 0xFFFFFFFFFFFFFFFFFFFFFFFFFFFFFFFFFFFFFFFF AND MUL OR SWAP1 SSTORE POP PUSH1 0x40 DUP3 ADD MLOAD DUP2 PUSH1 0x2 ADD SSTORE PUSH1 0x60 DUP3 ADD MLOAD DUP2 PUSH1 0x3 ADD SSTORE SWAP1 POP POP POP POP JUMP JUMPDEST PUSH0 PUSH0 CALLER PUSH20 0xFFFFFFFFFFFFFFFFFFFFFFFFFFFFFFFFFFFFFFFF AND PUSH20 0xFFFFFFFFFFFFFFFFFFFFFFFFFFFFFFFFFFFFFFFF AND DUP2 MSTORE PUSH1 0x20 ADD SWAP1 DUP2 MSTORE PUSH1 0x20 ADD PUSH0 KECCAK256 PUSH1 0x1 ADD PUSH0 SWAP1 SLOAD SWAP1 PUSH2 0x100 EXP SWAP1 DIV PUSH20 0xFFFFFFFFFFFFFFFFFFFFFFFFFFFFFFFFFFFFFFFF AND PUSH20 0xFFFFFFFFFFFFFFFFFFFFFFFFFFFFFFFFFFFFFFFF AND CALLER PUSH20 0xFFFFFFFFFFFFFFFFFFFFFFFFFFFFFFFFFFFFFFFF AND EQ PUSH2 0x6F5 JUMPI PUSH1 0x40 MLOAD PUSH32 0x8C379A000000000000000000000000000000000000000000000000000000000 DUP2 MSTORE PUSH1 0x4 ADD PUSH2 0x6EC SWAP1 PUSH2 0x12B5 JUMP JUMPDEST PUSH1 0x40 MLOAD DUP1 SWAP2 SUB SWAP1 REVERT JUMPDEST PUSH0 CALLVALUE GT PUSH2 0x737 JUMPI PUSH1 0x40 MLOAD PUSH32 0x8C379A000000000000000000000000000000000000000000000000000000000 DUP2 MSTORE PUSH1 0x4 ADD PUSH2 0x72E SWAP1 PUSH2 0xF65 JUMP JUMPDEST PUSH1 0x40 MLOAD DUP1 SWAP2 SUB SWAP1 REVERT JUMPDEST CALLVALUE PUSH0 PUSH0 CALLER PUSH20 0xFFFFFFFFFFFFFFFFFFFFFFFFFFFFFFFFFFFFFFFF AND PUSH20 0xFFFFFFFFFFFFFFFFFFFFFFFFFFFFFFFFFFFFFFFF AND DUP2 MSTORE PUSH1 0x20 ADD SWAP1 DUP2 MSTORE PUSH1 0x20 ADD PUSH0 KECCAK256 PUSH1 0x2 ADD PUSH0 DUP3 DUP3 SLOAD PUSH2 0x785 SWAP2 SWAP1 PUSH2 0xE8B JUMP JUMPDEST SWAP3 POP POP DUP2 SWAP1 SSTORE POP JUMP JUMPDEST PUSH1 0x60 PUSH0 PUSH0 PUSH0 PUSH0 PUSH0 CALLER PUSH20 0xFFFFFFFFFFFFFFFFFFFFFFFFFFFFFFFFFFFFFFFF AND PUSH20 0xFFFFFFFFFFFFFFFFFFFFFFFFFFFFFFFFFFFFFFFF AND DUP2 MSTORE PUSH1 0x20 ADD SWAP1 DUP2 MSTORE PUSH1 0x20 ADD PUSH0 KECCAK256 PUSH1 0x40 MLOAD DUP1 PUSH1 0x80 ADD PUSH1 0x40 MSTORE SWAP1 DUP2 PUSH0 DUP3 ADD DUP1 SLOAD PUSH2 0x7E9 SWAP1 PUSH2 0xEEB JUMP JUMPDEST DUP1 PUSH1 0x1F ADD PUSH1 0x20 DUP1 SWAP2 DIV MUL PUSH1 0x20 ADD PUSH1 0x40 MLOAD SWAP1 DUP2 ADD PUSH1 0x40 MSTORE DUP1 SWAP3 SWAP2 SWAP1 DUP2 DUP2 MSTORE PUSH1 0x20 ADD DUP3 DUP1 SLOAD PUSH2 0x815 SWAP1 PUSH2 0xEEB JUMP JUMPDEST DUP1 ISZERO PUSH2 0x860 JUMPI DUP1 PUSH1 0x1F LT PUSH2 0x837 JUMPI PUSH2 0x100 DUP1 DUP4 SLOAD DIV MUL DUP4 MSTORE SWAP2 PUSH1 0x20 ADD SWAP2 PUSH2 0x860 JUMP JUMPDEST DUP3 ADD SWAP2 SWAP1 PUSH0 MSTORE PUSH1 0x20 PUSH0 KECCAK256 SWAP1 JUMPDEST DUP2 SLOAD DUP2 MSTORE SWAP1 PUSH1 0x1 ADD SWAP1 PUSH1 0x20 ADD DUP1 DUP4 GT PUSH2 0x843 JUMPI DUP3 SWAP1 SUB PUSH1 0x1F AND DUP3 ADD SWAP2 JUMPDEST POP POP POP POP POP DUP2 MSTORE PUSH1 0x20 ADD PUSH1 0x1 DUP3 ADD PUSH0 SWAP1 SLOAD SWAP1 PUSH2 0x100 EXP SWAP1 DIV PUSH20 0xFFFFFFFFFFFFFFFFFFFFFFFFFFFFFFFFFFFFFFFF AND PUSH20 0xFFFFFFFFFFFFFFFFFFFFFFFFFFFFFFFFFFFFFFFF AND PUSH20 0xFFFFFFFFFFFFFFFFFFFFFFFFFFFFFFFFFFFFFFFF AND DUP2 MSTORE PUSH1 0x20 ADD PUSH1 0x2 DUP3 ADD SLOAD DUP2 MSTORE PUSH1 0x20 ADD PUSH1 0x3 DUP3 ADD SLOAD DUP2 MSTORE POP POP SWAP1 POP DUP1 PUSH0 ADD MLOAD DUP2 PUSH1 0x40 ADD MLOAD DUP3 PUSH1 0x60 ADD MLOAD SWAP4 POP SWAP4 POP SWAP4 POP POP SWAP1 SWAP2 SWAP3 JUMP JUMPDEST PUSH0 PUSH1 0x40 MLOAD SWAP1 POP SWAP1 JUMP JUMPDEST PUSH0 PUSH0 REVERT JUMPDEST PUSH0 PUSH0 REVERT JUMPDEST PUSH0 DUP2 SWAP1 POP SWAP2 SWAP1 POP JUMP JUMPDEST PUSH2 0x911 DUP2 PUSH2 0x8FF JUMP JUMPDEST DUP2 EQ PUSH2 0x91B JUMPI PUSH0 PUSH0 REVERT JUMPDEST POP JUMP JUMPDEST PUSH0 DUP2 CALLDATALOAD SWAP1 POP PUSH2 0x92C DUP2 PUSH2 0x908 JUMP JUMPDEST SWAP3 SWAP2 POP POP JUMP JUMPDEST PUSH0 PUSH1 0x20 DUP3 DUP5 SUB SLT ISZERO PUSH2 0x947 JUMPI PUSH2 0x946 PUSH2 0x8F7 JUMP JUMPDEST JUMPDEST PUSH0 PUSH2 0x954 DUP5 DUP3 DUP6 ADD PUSH2 0x91E JUMP JUMPDEST SWAP2 POP POP SWAP3 SWAP2 POP POP JUMP JUMPDEST PUSH0 PUSH20 0xFFFFFFFFFFFFFFFFFFFFFFFFFFFFFFFFFFFFFFFF DUP3 AND SWAP1 POP SWAP2 SWAP1 POP JUMP JUMPDEST PUSH0 PUSH2 0x986 DUP3 PUSH2 0x95D JUMP JUMPDEST SWAP1 POP SWAP2 SWAP1 POP JUMP JUMPDEST PUSH2 0x996 DUP2 PUSH2 0x97C JUMP JUMPDEST DUP2 EQ PUSH2 0x9A0 JUMPI PUSH0 PUSH0 REVERT JUMPDEST POP JUMP JUMPDEST PUSH0 DUP2 CALLDATALOAD SWAP1 POP PUSH2 0x9B1 DUP2 PUSH2 0x98D JUMP JUMPDEST SWAP3 SWAP2 POP POP JUMP JUMPDEST PUSH0 PUSH1 0x20 DUP3 DUP5 SUB SLT ISZERO PUSH2 0x9CC JUMPI PUSH2 0x9CB PUSH2 0x8F7 JUMP JUMPDEST JUMPDEST PUSH0 PUSH2 0x9D9 DUP5 DUP3 DUP6 ADD PUSH2 0x9A3 JUMP JUMPDEST SWAP2 POP POP SWAP3 SWAP2 POP POP JUMP JUMPDEST PUSH0 DUP2 MLOAD SWAP1 POP SWAP2 SWAP1 POP JUMP JUMPDEST PUSH0 DUP3 DUP3 MSTORE PUSH1 0x20 DUP3 ADD SWAP1 POP SWAP3 SWAP2 POP POP JUMP JUMPDEST DUP3 DUP2 DUP4 MCOPY PUSH0 DUP4 DUP4 ADD MSTORE POP POP POP JUMP JUMPDEST PUSH0 PUSH1 0x1F NOT PUSH1 0x1F DUP4 ADD AND SWAP1 POP SWAP2 SWAP1 POP JUMP JUMPDEST PUSH0 PUSH2 0xA24 DUP3 PUSH2 0x9E2 JUMP JUMPDEST PUSH2 0xA2E DUP2 DUP6 PUSH2 0x9EC JUMP JUMPDEST SWAP4 POP PUSH2 0xA3E DUP2 DUP6 PUSH1 0x20 DUP7 ADD PUSH2 0x9FC JUMP JUMPDEST PUSH2 0xA47 DUP2 PUSH2 0xA0A JUMP JUMPDEST DUP5 ADD SWAP2 POP POP SWAP3 SWAP2 POP POP JUMP JUMPDEST PUSH2 0xA5B DUP2 PUSH2 0x97C JUMP JUMPDEST DUP3 MSTORE POP POP JUMP JUMPDEST PUSH2 0xA6A DUP2 PUSH2 0x8FF JUMP JUMPDEST DUP3 MSTORE POP POP JUMP JUMPDEST PUSH0 PUSH1 0x80 DUP3 ADD SWAP1 POP DUP2 DUP2 SUB PUSH0 DUP4 ADD MSTORE PUSH2 0xA88 DUP2 DUP8 PUSH2 0xA1A JUMP JUMPDEST SWAP1 POP PUSH2 0xA97 PUSH1 0x20 DUP4 ADD DUP7 PUSH2 0xA52 JUMP JUMPDEST PUSH2 0xAA4 PUSH1 0x40 DUP4 ADD DUP6 PUSH2 0xA61 JUMP JUMPDEST PUSH2 0xAB1 PUSH1 0x60 DUP4 ADD DUP5 PUSH2 0xA61 JUMP JUMPDEST SWAP6 SWAP5 POP POP POP POP POP JUMP JUMPDEST PUSH0 PUSH0 REVERT JUMPDEST PUSH0 PUSH0 REVERT JUMPDEST PUSH32 0x4E487B7100000000000000000000000000000000000000000000000000000000 PUSH0 MSTORE PUSH1 0x41 PUSH1 0x4 MSTORE PUSH1 0x24 PUSH0 REVERT JUMPDEST PUSH2 0xAF8 DUP3 PUSH2 0xA0A JUMP JUMPDEST DUP2 ADD DUP2 DUP2 LT PUSH8 0xFFFFFFFFFFFFFFFF DUP3 GT OR ISZERO PUSH2 0xB17 JUMPI PUSH2 0xB16 PUSH2 0xAC2 JUMP JUMPDEST JUMPDEST DUP1 PUSH1 0x40 MSTORE POP POP POP JUMP JUMPDEST PUSH0 PUSH2 0xB29 PUSH2 0x8EE JUMP JUMPDEST SWAP1 POP PUSH2 0xB35 DUP3 DUP3 PUSH2 0xAEF JUMP JUMPDEST SWAP2 SWAP1 POP JUMP JUMPDEST PUSH0 PUSH8 0xFFFFFFFFFFFFFFFF DUP3 GT ISZERO PUSH2 0xB54 JUMPI PUSH2 0xB53 PUSH2 0xAC2 JUMP JUMPDEST JUMPDEST PUSH2 0xB5D DUP3 PUSH2 0xA0A JUMP JUMPDEST SWAP1 POP PUSH1 0x20 DUP2 ADD SWAP1 POP SWAP2 SWAP1 POP JUMP JUMPDEST DUP3 DUP2 DUP4 CALLDATACOPY PUSH0 DUP4 DUP4 ADD MSTORE POP POP POP JUMP JUMPDEST PUSH0 PUSH2 0xB8A PUSH2 0xB85 DUP5 PUSH2 0xB3A JUMP JUMPDEST PUSH2 0xB20 JUMP JUMPDEST SWAP1 POP DUP3 DUP2 MSTORE PUSH1 0x20 DUP2 ADD DUP5 DUP5 DUP5 ADD GT ISZERO PUSH2 0xBA6 JUMPI PUSH2 0xBA5 PUSH2 0xABE JUMP JUMPDEST JUMPDEST PUSH2 0xBB1 DUP5 DUP3 DUP6 PUSH2 0xB6A JUMP JUMPDEST POP SWAP4 SWAP3 POP POP POP JUMP JUMPDEST PUSH0 DUP3 PUSH1 0x1F DUP4 ADD SLT PUSH2 0xBCD JUMPI PUSH2 0xBCC PUSH2 0xABA JUMP JUMPDEST JUMPDEST DUP2 CALLDATALOAD PUSH2 0xBDD DUP5 DUP3 PUSH1 0x20 DUP7 ADD PUSH2 0xB78 JUMP JUMPDEST SWAP2 POP POP SWAP3 SWAP2 POP POP JUMP JUMPDEST PUSH0 PUSH0 PUSH1 0x40 DUP4 DUP6 SUB SLT ISZERO PUSH2 0xBFC JUMPI PUSH2 0xBFB PUSH2 0x8F7 JUMP JUMPDEST JUMPDEST PUSH0 DUP4 ADD CALLDATALOAD PUSH8 0xFFFFFFFFFFFFFFFF DUP2 GT ISZERO PUSH2 0xC19 JUMPI PUSH2 0xC18 PUSH2 0x8FB JUMP JUMPDEST JUMPDEST PUSH2 0xC25 DUP6 DUP3 DUP7 ADD PUSH2 0xBB9 JUMP JUMPDEST SWAP3 POP POP PUSH1 0x20 PUSH2 0xC36 DUP6 DUP3 DUP7 ADD PUSH2 0x91E JUMP JUMPDEST SWAP2 POP POP SWAP3 POP SWAP3 SWAP1 POP JUMP JUMPDEST PUSH0 PUSH1 0x60 DUP3 ADD SWAP1 POP DUP2 DUP2 SUB PUSH0 DUP4 ADD MSTORE PUSH2 0xC58 DUP2 DUP7 PUSH2 0xA1A JUMP JUMPDEST SWAP1 POP PUSH2 0xC67 PUSH1 0x20 DUP4 ADD DUP6 PUSH2 0xA61 JUMP JUMPDEST PUSH2 0xC74 PUSH1 0x40 DUP4 ADD DUP5 PUSH2 0xA61 JUMP JUMPDEST SWAP5 SWAP4 POP POP POP POP JUMP JUMPDEST PUSH32 0x4E487B7100000000000000000000000000000000000000000000000000000000 PUSH0 MSTORE PUSH1 0x11 PUSH1 0x4 MSTORE PUSH1 0x24 PUSH0 REVERT JUMPDEST PUSH0 PUSH2 0xCB3 DUP3 PUSH2 0x8FF JUMP JUMPDEST SWAP2 POP PUSH2 0xCBE DUP4 PUSH2 0x8FF JUMP JUMPDEST SWAP3 POP DUP3 DUP3 SUB SWAP1 POP DUP2 DUP2 GT ISZERO PUSH2 0xCD6 JUMPI PUSH2 0xCD5 PUSH2 0xC7C JUMP JUMPDEST JUMPDEST SWAP3 SWAP2 POP POP JUMP JUMPDEST PUSH0 DUP2 SWAP1 POP SWAP3 SWAP2 POP POP JUMP JUMPDEST POP JUMP JUMPDEST PUSH0 PUSH2 0xCF4 PUSH0 DUP4 PUSH2 0xCDC JUMP JUMPDEST SWAP2 POP PUSH2 0xCFF DUP3 PUSH2 0xCE6 JUMP JUMPDEST PUSH0 DUP3 ADD SWAP1 POP SWAP2 SWAP1 POP JUMP JUMPDEST PUSH0 PUSH2 0xD13 DUP3 PUSH2 0xCE9 JUMP JUMPDEST SWAP2 POP DUP2 SWAP1 POP SWAP2 SWAP1 POP JUMP JUMPDEST PUSH32 0x5472616E73666572206661696C65640000000000000000000000000000000000 PUSH0 DUP3 ADD MSTORE POP JUMP JUMPDEST PUSH0 PUSH2 0xD51 PUSH1 0xF DUP4 PUSH2 0x9EC JUMP JUMPDEST SWAP2 POP PUSH2 0xD5C DUP3 PUSH2 0xD1D JUMP JUMPDEST PUSH1 0x20 DUP3 ADD SWAP1 POP SWAP2 SWAP1 POP JUMP JUMPDEST PUSH0 PUSH1 0x20 DUP3 ADD SWAP1 POP DUP2 DUP2 SUB PUSH0 DUP4 ADD MSTORE PUSH2 0xD7E DUP2 PUSH2 0xD45 JUMP JUMPDEST SWAP1 POP SWAP2 SWAP1 POP JUMP JUMPDEST PUSH32 0x436F6D6D616E642052656A656374656400000000000000000000000000000000 PUSH0 DUP3 ADD MSTORE POP JUMP JUMPDEST PUSH0 PUSH2 0xDB9 PUSH1 0x10 DUP4 PUSH2 0x9EC JUMP JUMPDEST SWAP2 POP PUSH2 0xDC4 DUP3 PUSH2 0xD85 JUMP JUMPDEST PUSH1 0x20 DUP3 ADD SWAP1 POP SWAP2 SWAP1 POP JUMP JUMPDEST PUSH0 PUSH1 0x20 DUP3 ADD SWAP1 POP DUP2 DUP2 SUB PUSH0 DUP4 ADD MSTORE PUSH2 0xDE6 DUP2 PUSH2 0xDAD JUMP JUMPDEST SWAP1 POP SWAP2 SWAP1 POP JUMP JUMPDEST PUSH0 PUSH2 0xDF7 DUP3 PUSH2 0x8FF JUMP JUMPDEST SWAP2 POP PUSH2 0xE02 DUP4 PUSH2 0x8FF JUMP JUMPDEST SWAP3 POP DUP3 DUP3 MUL PUSH2 0xE10 DUP2 PUSH2 0x8FF JUMP JUMPDEST SWAP2 POP DUP3 DUP3 DIV DUP5 EQ DUP4 ISZERO OR PUSH2 0xE27 JUMPI PUSH2 0xE26 PUSH2 0xC7C JUMP JUMPDEST JUMPDEST POP SWAP3 SWAP2 POP POP JUMP JUMPDEST PUSH32 0x4E487B7100000000000000000000000000000000000000000000000000000000 PUSH0 MSTORE PUSH1 0x12 PUSH1 0x4 MSTORE PUSH1 0x24 PUSH0 REVERT JUMPDEST PUSH0 PUSH2 0xE65 DUP3 PUSH2 0x8FF JUMP JUMPDEST SWAP2 POP PUSH2 0xE70 DUP4 PUSH2 0x8FF JUMP JUMPDEST SWAP3 POP DUP3 PUSH2 0xE80 JUMPI PUSH2 0xE7F PUSH2 0xE2E JUMP JUMPDEST JUMPDEST DUP3 DUP3 DIV SWAP1 POP SWAP3 SWAP2 POP POP JUMP JUMPDEST PUSH0 PUSH2 0xE95 DUP3 PUSH2 0x8FF JUMP JUMPDEST SWAP2 POP PUSH2 0xEA0 DUP4 PUSH2 0x8FF JUMP JUMPDEST SWAP3 POP DUP3 DUP3 ADD SWAP1 POP DUP1 DUP3 GT ISZERO PUSH2 0xEB8 JUMPI PUSH2 0xEB7 PUSH2 0xC7C JUMP JUMPDEST JUMPDEST SWAP3 SWAP2 POP POP JUMP JUMPDEST PUSH32 0x4E487B7100000000000000000000000000000000000000000000000000000000 PUSH0 MSTORE PUSH1 0x22 PUSH1 0x4 MSTORE PUSH1 0x24 PUSH0 REVERT JUMPDEST PUSH0 PUSH1 0x2 DUP3 DIV SWAP1 POP PUSH1 0x1 DUP3 AND DUP1 PUSH2 0xF02 JUMPI PUSH1 0x7F DUP3 AND SWAP2 POP JUMPDEST PUSH1 0x20 DUP3 LT DUP2 SUB PUSH2 0xF15 JUMPI PUSH2 0xF14 PUSH2 0xEBE JUMP JUMPDEST JUMPDEST POP SWAP2 SWAP1 POP JUMP JUMPDEST PUSH32 0x4465706F73697420736F6D6520616D6F756E7421210000000000000000000000 PUSH0 DUP3 ADD MSTORE POP JUMP JUMPDEST PUSH0 PUSH2 0xF4F PUSH1 0x15 DUP4 PUSH2 0x9EC JUMP JUMPDEST SWAP2 POP PUSH2 0xF5A DUP3 PUSH2 0xF1B JUMP JUMPDEST PUSH1 0x20 DUP3 ADD SWAP1 POP SWAP2 SWAP1 POP JUMP JUMPDEST PUSH0 PUSH1 0x20 DUP3 ADD SWAP1 POP DUP2 DUP2 SUB PUSH0 DUP4 ADD MSTORE PUSH2 0xF7C DUP2 PUSH2 0xF43 JUMP JUMPDEST SWAP1 POP SWAP2 SWAP1 POP JUMP JUMPDEST PUSH32 0x616C726561647920657869737400000000000000000000000000000000000000 PUSH0 DUP3 ADD MSTORE POP JUMP JUMPDEST PUSH0 PUSH2 0xFB7 PUSH1 0xD DUP4 PUSH2 0x9EC JUMP JUMPDEST SWAP2 POP PUSH2 0xFC2 DUP3 PUSH2 0xF83 JUMP JUMPDEST PUSH1 0x20 DUP3 ADD SWAP1 POP SWAP2 SWAP1 POP JUMP JUMPDEST PUSH0 PUSH1 0x20 DUP3 ADD SWAP1 POP DUP2 DUP2 SUB PUSH0 DUP4 ADD MSTORE PUSH2 0xFE4 DUP2 PUSH2 0xFAB JUMP JUMPDEST SWAP1 POP SWAP2 SWAP1 POP JUMP JUMPDEST PUSH0 DUP2 SWAP1 POP DUP2 PUSH0 MSTORE PUSH1 0x20 PUSH0 KECCAK256 SWAP1 POP SWAP2 SWAP1 POP JUMP JUMPDEST PUSH0 PUSH1 0x20 PUSH1 0x1F DUP4 ADD DIV SWAP1 POP SWAP2 SWAP1 POP JUMP JUMPDEST PUSH0 DUP3 DUP3 SHL SWAP1 POP SWAP3 SWAP2 POP POP JUMP JUMPDEST PUSH0 PUSH1 0x8 DUP4 MUL PUSH2 0x1047 PUSH32 0xFFFFFFFFFFFFFFFFFFFFFFFFFFFFFFFFFFFFFFFFFFFFFFFFFFFFFFFFFFFFFFFF DUP3 PUSH2 0x100C JUMP JUMPDEST PUSH2 0x1051 DUP7 DUP4 PUSH2 0x100C JUMP JUMPDEST SWAP6 POP DUP1 NOT DUP5 AND SWAP4 POP DUP1 DUP7 AND DUP5 OR SWAP3 POP POP POP SWAP4 SWAP3 POP POP POP JUMP JUMPDEST PUSH0 DUP2 SWAP1 POP SWAP2 SWAP1 POP JUMP JUMPDEST PUSH0 PUSH2 0x108C PUSH2 0x1087 PUSH2 0x1082 DUP5 PUSH2 0x8FF JUMP JUMPDEST PUSH2 0x1069 JUMP JUMPDEST PUSH2 0x8FF JUMP JUMPDEST SWAP1 POP SWAP2 SWAP1 POP JUMP JUMPDEST PUSH0 DUP2 SWAP1 POP SWAP2 SWAP1 POP JUMP JUMPDEST PUSH2 0x10A5 DUP4 PUSH2 0x1072 JUMP JUMPDEST PUSH2 0x10B9 PUSH2 0x10B1 DUP3 PUSH2 0x1093 JUMP JUMPDEST DUP5 DUP5 SLOAD PUSH2 0x1018 JUMP JUMPDEST DUP3 SSTORE POP POP POP POP JUMP JUMPDEST PUSH0 PUSH0 SWAP1 POP SWAP1 JUMP JUMPDEST PUSH2 0x10D0 PUSH2 0x10C1 JUMP JUMPDEST PUSH2 0x10DB DUP2 DUP5 DUP5 PUSH2 0x109C JUMP JUMPDEST POP POP POP JUMP JUMPDEST PUSH0 JUMPDEST DUP3 DUP2 LT ISZERO PUSH2 0x1101 JUMPI PUSH2 0x10F6 PUSH0 DUP3 DUP5 ADD PUSH2 0x10C8 JUMP JUMPDEST PUSH1 0x1 DUP2 ADD SWAP1 POP PUSH2 0x10E2 JUMP JUMPDEST POP POP POP JUMP JUMPDEST PUSH1 0x1F DUP3 GT ISZERO PUSH2 0x1154 JUMPI DUP3 DUP3 GT ISZERO PUSH2 0x1153 JUMPI PUSH2 0x1120 DUP2 PUSH2 0xFEB JUMP JUMPDEST PUSH2 0x1129 DUP4 PUSH2 0xFFD JUMP JUMPDEST PUSH2 0x1132 DUP6 PUSH2 0xFFD JUMP JUMPDEST PUSH1 0x20 DUP7 LT ISZERO PUSH2 0x113F JUMPI PUSH0 SWAP1 POP JUMPDEST DUP1 DUP4 ADD PUSH2 0x114E DUP3 DUP5 SUB DUP3 PUSH2 0x10E0 JUMP JUMPDEST POP POP POP POP JUMPDEST JUMPDEST POP POP POP JUMP JUMPDEST PUSH0 DUP3 DUP3 SHR SWAP1 POP SWAP3 SWAP2 POP POP JUMP JUMPDEST PUSH0 PUSH2 0x1174 PUSH0 NOT DUP5 PUSH1 0x8 MUL PUSH2 0x1159 JUMP JUMPDEST NOT DUP1 DUP4 AND SWAP2 POP POP SWAP3 SWAP2 POP POP JUMP JUMPDEST PUSH0 PUSH2 0x118C DUP4 DUP4 PUSH2 0x1165 JUMP JUMPDEST SWAP2 POP DUP3 PUSH1 0x2 MUL DUP3 OR SWAP1 POP SWAP3 SWAP2 POP POP JUMP JUMPDEST PUSH2 0x11A5 DUP3 PUSH2 0x9E2 JUMP JUMPDEST PUSH8 0xFFFFFFFFFFFFFFFF DUP2 GT ISZERO PUSH2 0x11BE JUMPI PUSH2 0x11BD PUSH2 0xAC2 JUMP JUMPDEST JUMPDEST PUSH2 0x11C8 DUP3 SLOAD PUSH2 0xEEB JUMP JUMPDEST PUSH2 0x11D3 DUP3 DUP3 DUP6 PUSH2 0x1106 JUMP JUMPDEST PUSH0 PUSH1 0x20 SWAP1 POP PUSH1 0x1F DUP4 GT PUSH1 0x1 DUP2 EQ PUSH2 0x1204 JUMPI PUSH0 DUP5 ISZERO PUSH2 0x11F2 JUMPI DUP3 DUP8 ADD MLOAD SWAP1 POP JUMPDEST PUSH2 0x11FC DUP6 DUP3 PUSH2 0x1181 JUMP JUMPDEST DUP7 SSTORE POP PUSH2 0x1263 JUMP JUMPDEST PUSH1 0x1F NOT DUP5 AND PUSH2 0x1212 DUP7 PUSH2 0xFEB JUMP JUMPDEST PUSH0 JUMPDEST DUP3 DUP2 LT ISZERO PUSH2 0x1239 JUMPI DUP5 DUP10 ADD MLOAD DUP3 SSTORE PUSH1 0x1 DUP3 ADD SWAP2 POP PUSH1 0x20 DUP6 ADD SWAP5 POP PUSH1 0x20 DUP2 ADD SWAP1 POP PUSH2 0x1214 JUMP JUMPDEST DUP7 DUP4 LT ISZERO PUSH2 0x1256 JUMPI DUP5 DUP10 ADD MLOAD PUSH2 0x1252 PUSH1 0x1F DUP10 AND DUP3 PUSH2 0x1165 JUMP JUMPDEST DUP4 SSTORE POP JUMPDEST PUSH1 0x1 PUSH1 0x2 DUP9 MUL ADD DUP9 SSTORE POP POP POP JUMPDEST POP POP POP POP POP POP JUMP JUMPDEST PUSH32 0x4E6F742065786973740000000000000000000000000000000000000000000000 PUSH0 DUP3 ADD MSTORE POP JUMP JUMPDEST PUSH0 PUSH2 0x129F PUSH1 0x9 DUP4 PUSH2 0x9EC JUMP JUMPDEST SWAP2 POP PUSH2 0x12AA DUP3 PUSH2 0x126B JUMP JUMPDEST PUSH1 0x20 DUP3 ADD SWAP1 POP SWAP2 SWAP1 POP JUMP JUMPDEST PUSH0 PUSH1 0x20 DUP3 ADD SWAP1 POP DUP2 DUP2 SUB PUSH0 DUP4 ADD MSTORE PUSH2 0x12CC DUP2 PUSH2 0x1293 JUMP JUMPDEST SWAP1 POP SWAP2 SWAP1 POP JUMP INVALID LOG2 PUSH5 0x6970667358 0x22 SLT KECCAK256 0xC EXTDELEGATECALL 0xB2 0xD4 RETURNCONTRACT 0xE8 DUP3 PUSH12 0x9A6CEC75D0E90082C7299185 0x22 NUMBER 0x2F 0xD9 PUSH26 0xAFAE391109D5A564736F6C634300082200330000000000000000 "
		},
		"gasEstimates": {
			"creation": {
				"codeDepositCost": "974600",
				"executionCost": "1012",
				"totalCost": "975612"
			},
			"external": {
				"addAccount(string,uint256)": "infinite",
				"deposit()": "infinite",
				"getDetails()": "infinite",
				"updateAccount()": "infinite",
				"users(address)": "infinite",
				"withdraw(uint256)": "infinite"
			}
		},
		"methodIdentifiers": {
			"addAccount(string,uint256)": "cc982206",
			"deposit()": "d0e30db0",
			"getDetails()": "fbbf93a0",
			"updateAccount()": "69995128",
			"users(address)": "a87430ba",
			"withdraw(uint256)": "2e1a7d4d"
		}
	},
	"abi": [
		{
			"inputs": [
				{
					"internalType": "string",
					"name": "name",
					"type": "string"
				},
				{
					"internalType": "uint256",
					"name": "interest",
					"type": "uint256"
				}
			],
			"name": "addAccount",
			"outputs": [],
			"stateMutability": "payable",
			"type": "function"
		},
		{
			"inputs": [],
			"name": "deposit",
			"outputs": [],
			"stateMutability": "payable",
			"type": "function"
		},
		{
			"inputs": [],
			"name": "getDetails",
			"outputs": [
				{
					"internalType": "string",
					"name": "Uname",
					"type": "string"
				},
				{
					"internalType": "uint256",
					"name": "balance",
					"type": "uint256"
				},
				{
					"internalType": "uint256",
					"name": "interest",
					"type": "uint256"
				}
			],
			"stateMutability": "view",
			"type": "function"
		},
		{
			"inputs": [],
			"name": "updateAccount",
			"outputs": [],
			"stateMutability": "nonpayable",
			"type": "function"
		},
		{
			"inputs": [
				{
					"internalType": "address",
					"name": "",
					"type": "address"
				}
			],
			"name": "users",
			"outputs": [
				{
					"internalType": "string",
					"name": "Uname",
					"type": "string"
				},
				{
					"internalType": "address",
					"name": "Uaddress",
					"type": "address"
				},
				{
					"internalType": "uint256",
					"name": "balance",
					"type": "uint256"
				},
				{
					"internalType": "uint256",
					"name": "interest",
					"type": "uint256"
				}
			],
			"stateMutability": "view",
			"type": "function"
		},
		{
			"inputs": [
				{
					"internalType": "uint256",
					"name": "amount",
					"type": "uint256"
				}
			],
			"name": "withdraw",
			"outputs": [],
			"stateMutability": "payable",
			"type": "function"
		}
	]
}