{
	"data": {
		"bytecode": {
			"linkReferences": {},
			"object": "608060405260375f557fffffffffffffffffffffffffffffffffffffffffffffffffffffffffffffffc96001556040518060400160405280600681526020017f53616e6468750000000000000000000000000000000000000000000000000000815250600290816100709190610383565b50600160035f6101000a81548160ff0219169083151502179055506040518060400160405280600281526020017f596f000000000000000000000000000000000000000000000000000000000000815250600490816100cf91906104b7565b50735b38da6a701c568545dcfcb03fcb875f56beddc460055f6101000a81548173ffffffffffffffffffffffffffffffffffffffff021916908373ffffffffffffffffffffffffffffffffffffffff16021790555034801561012f575f5ffd5b50610586565b5f81519050919050565b7f4e487b71000000000000000000000000000000000000000000000000000000005f52604160045260245ffd5b7f4e487b71000000000000000000000000000000000000000000000000000000005f52602260045260245ffd5b5f60028204905060018216806101b057607f821691505b6020821081036101c3576101c261016c565b5b50919050565b5f819050815f5260205f209050919050565b5f6020601f8301049050919050565b5f82821b905092915050565b5f600883026102257fffffffffffffffffffffffffffffffffffffffffffffffffffffffffffffffff826101ea565b61022f86836101ea565b95508019841693508086168417925050509392505050565b5f819050919050565b5f819050919050565b5f61027361026e61026984610247565b610250565b610247565b9050919050565b5f819050919050565b61028c83610259565b6102a06102988261027a565b8484546101f6565b825550505050565b5f5f905090565b6102b76102a8565b6102c2818484610283565b505050565b5f5b828110156102e8576102dd5f8284016102af565b6001810190506102c9565b505050565b601f82111561033b578282111561033a57610307816101c9565b610310836101db565b610319856101db565b6020861015610326575f90505b808301610335828403826102c7565b505050505b5b505050565b5f82821c905092915050565b5f61035b5f1984600802610340565b1980831691505092915050565b5f610373838361034c565b9150826002028217905092915050565b61038c82610135565b67ffffffffffffffff8111156103a5576103a461013f565b5b6103af8254610199565b6103ba8282856102ed565b5f60209050601f8311600181146103eb575f84156103d9578287015190505b6103e38582610368565b86555061044a565b601f1984166103f9866101c9565b5f5b82811015610420578489015182556001820191506020850194506020810190506103fb565b8683101561043d5784890151610439601f89168261034c565b8355505b6001600288020188555050505b505050505050565b5f819050815f5260205f209050919050565b601f8211156104b257828211156104b15761047e81610452565b610487836101db565b610490856101db565b602086101561049d575f90505b8083016104ac828403826102c7565b505050505b5b505050565b6104c082610135565b67ffffffffffffffff8111156104d9576104d861013f565b5b6104e38254610199565b6104ee828285610464565b5f60209050601f83116001811461051f575f841561050d578287015190505b6105178582610368565b86555061057e565b601f19841661052d86610452565b5f5b828110156105545784890151825560018201915060208501945060208101905061052f565b86831015610571578489015161056d601f89168261034c565b8355505b6001600288020188555050505b505050505050565b610552806105935f395ff3fe608060405234801561000f575f5ffd5b506004361061007b575f3560e01c806332e43a111161005957806332e43a11146100d95780634df7e3d0146100f75780638da5cb5b1461011557806392277933146101335761007b565b806306fdde031461007f5780630dbe671f1461009d57806322f3e2d4146100bb575b5f5ffd5b610087610151565b6040516100949190610340565b60405180910390f35b6100a56101dd565b6040516100b29190610378565b60405180910390f35b6100c36101e2565b6040516100d091906103ab565b60405180910390f35b6100e16101f4565b6040516100ee9190610403565b60405180910390f35b6100ff610219565b60405161010c9190610434565b60405180910390f35b61011d61021f565b60405161012a9190610403565b60405180910390f35b61013b610244565b604051610148919061049f565b60405180910390f35b6002805461015e906104ec565b80601f016020809104026020016040519081016040528092919081815260200182805461018a906104ec565b80156101d55780601f106101ac576101008083540402835291602001916101d5565b820191905f5260205f20905b8154815290600101906020018083116101b857829003601f168201915b505050505081565b5f5481565b60035f9054906101000a900460ff1681565b60065f9054906101000a900473ffffffffffffffffffffffffffffffffffffffff1681565b60015481565b60055f9054906101000a900473ffffffffffffffffffffffffffffffffffffffff1681565b60048054610251906104ec565b80601f016020809104026020016040519081016040528092919081815260200182805461027d906104ec565b80156102c85780601f1061029f576101008083540402835291602001916102c8565b820191905f5260205f20905b8154815290600101906020018083116102ab57829003601f168201915b505050505081565b5f81519050919050565b5f82825260208201905092915050565b8281835e5f83830152505050565b5f601f19601f8301169050919050565b5f610312826102d0565b61031c81856102da565b935061032c8185602086016102ea565b610335816102f8565b840191505092915050565b5f6020820190508181035f8301526103588184610308565b905092915050565b5f819050919050565b61037281610360565b82525050565b5f60208201905061038b5f830184610369565b92915050565b5f8115159050919050565b6103a581610391565b82525050565b5f6020820190506103be5f83018461039c565b92915050565b5f73ffffffffffffffffffffffffffffffffffffffff82169050919050565b5f6103ed826103c4565b9050919050565b6103fd816103e3565b82525050565b5f6020820190506104165f8301846103f4565b92915050565b5f819050919050565b61042e8161041c565b82525050565b5f6020820190506104475f830184610425565b92915050565b5f81519050919050565b5f82825260208201905092915050565b5f6104718261044d565b61047b8185610457565b935061048b8185602086016102ea565b610494816102f8565b840191505092915050565b5f6020820190508181035f8301526104b78184610467565b905092915050565b7f4e487b71000000000000000000000000000000000000000000000000000000005f52602260045260245ffd5b5f600282049050600182168061050357607f821691505b602082108103610516576105156104bf565b5b5091905056fea26469706673582212209f2b0775f205a938fc318fe55811455eefed18596fc6ad290e3a9bd754c6c6a164736f6c63430008220033",
			"opcodes": "PUSH1 0x80 PUSH1 0x40 MSTORE PUSH1 0x37 PUSH0 SSTORE PUSH32 0xFFFFFFFFFFFFFFFFFFFFFFFFFFFFFFFFFFFFFFFFFFFFFFFFFFFFFFFFFFFFFFC9 PUSH1 0x1 SSTORE PUSH1 0x40 MLOAD DUP1 PUSH1 0x40 ADD PUSH1 0x40 MSTORE DUP1 PUSH1 0x6 DUP2 MSTORE PUSH1 0x20 ADD PUSH32 0x53616E6468750000000000000000000000000000000000000000000000000000 DUP2 MSTORE POP PUSH1 0x2 SWAP1 DUP2 PUSH2 0x70 SWAP2 SWAP1 PUSH2 0x383 JUMP JUMPDEST POP PUSH1 0x1 PUSH1 0x3 PUSH0 PUSH2 0x100 EXP DUP2 SLOAD DUP2 PUSH1 0xFF MUL NOT AND SWAP1 DUP4 ISZERO ISZERO MUL OR SWAP1 SSTORE POP PUSH1 0x40 MLOAD DUP1 PUSH1 0x40 ADD PUSH1 0x40 MSTORE DUP1 PUSH1 0x2 DUP2 MSTORE PUSH1 0x20 ADD PUSH32 0x596F000000000000000000000000000000000000000000000000000000000000 DUP2 MSTORE POP PUSH1 0x4 SWAP1 DUP2 PUSH2 0xCF SWAP2 SWAP1 PUSH2 0x4B7 JUMP JUMPDEST POP PUSH20 0x5B38DA6A701C568545DCFCB03FCB875F56BEDDC4 PUSH1 0x5 PUSH0 PUSH2 0x100 EXP DUP2 SLOAD DUP2 PUSH20 0xFFFFFFFFFFFFFFFFFFFFFFFFFFFFFFFFFFFFFFFF MUL NOT AND SWAP1 DUP4 PUSH20 0xFFFFFFFFFFFFFFFFFFFFFFFFFFFFFFFFFFFFFFFF AND MUL OR SWAP1 SSTORE POP CALLVALUE DUP1 ISZERO PUSH2 0x12F JUMPI PUSH0 PUSH0 REVERT JUMPDEST POP PUSH2 0x586 JUMP JUMPDEST PUSH0 DUP2 MLOAD SWAP1 POP SWAP2 SWAP1 POP JUMP JUMPDEST PUSH32 0x4E487B7100000000000000000000000000000000000000000000000000000000 PUSH0 MSTORE PUSH1 0x41 PUSH1 0x4 MSTORE PUSH1 0x24 PUSH0 REVERT JUMPDEST PUSH32 0x4E487B7100000000000000000000000000000000000000000000000000000000 PUSH0 MSTORE PUSH1 0x22 PUSH1 0x4 MSTORE PUSH1 0x24 PUSH0 REVERT JUMPDEST PUSH0 PUSH1 0x2 DUP3 DIV SWAP1 POP PUSH1 0x1 DUP3 AND DUP1 PUSH2 0x1B0 JUMPI PUSH1 0x7F DUP3 AND SWAP2 POP JUMPDEST PUSH1 0x20 DUP3 LT DUP2 SUB PUSH2 0x1C3 JUMPI PUSH2 0x1C2 PUSH2 0x16C JUMP JUMPDEST JUMPDEST POP SWAP2 SWAP1 POP JUMP JUMPDEST PUSH0 DUP2 SWAP1 POP DUP2 PUSH0 MSTORE PUSH1 0x20 PUSH0 KECCAK256 SWAP1 POP SWAP2 SWAP1 POP JUMP JUMPDEST PUSH0 PUSH1 0x20 PUSH1 0x1F DUP4 ADD DIV SWAP1 POP SWAP2 SWAP1 POP JUMP JUMPDEST PUSH0 DUP3 DUP3 SHL SWAP1 POP SWAP3 SWAP2 POP POP JUMP JUMPDEST PUSH0 PUSH1 0x8 DUP4 MUL PUSH2 0x225 PUSH32 0xFFFFFFFFFFFFFFFFFFFFFFFFFFFFFFFFFFFFFFFFFFFFFFFFFFFFFFFFFFFFFFFF DUP3 PUSH2 0x1EA JUMP JUMPDEST PUSH2 0x22F DUP7 DUP4 PUSH2 0x1EA JUMP JUMPDEST SWAP6 POP DUP1 NOT DUP5 AND SWAP4 POP DUP1 DUP7 AND DUP5 OR SWAP3 POP POP POP SWAP4 SWAP3 POP POP POP JUMP JUMPDEST PUSH0 DUP2 SWAP1 POP SWAP2 SWAP1 POP JUMP JUMPDEST PUSH0 DUP2 SWAP1 POP SWAP2 SWAP1 POP JUMP JUMPDEST PUSH0 PUSH2 0x273 PUSH2 0x26E PUSH2 0x269 DUP5 PUSH2 0x247 JUMP JUMPDEST PUSH2 0x250 JUMP JUMPDEST PUSH2 0x247 JUMP JUMPDEST SWAP1 POP SWAP2 SWAP1 POP JUMP JUMPDEST PUSH0 DUP2 SWAP1 POP SWAP2 SWAP1 POP JUMP JUMPDEST PUSH2 0x28C DUP4 PUSH2 0x259 JUMP JUMPDEST PUSH2 0x2A0 PUSH2 0x298 DUP3 PUSH2 0x27A JUMP JUMPDEST DUP5 DUP5 SLOAD PUSH2 0x1F6 JUMP JUMPDEST DUP3 SSTORE POP POP POP POP JUMP JUMPDEST PUSH0 PUSH0 SWAP1 POP SWAP1 JUMP JUMPDEST PUSH2 0x2B7 PUSH2 0x2A8 JUMP JUMPDEST PUSH2 0x2C2 DUP2 DUP5 DUP5 PUSH2 0x283 JUMP JUMPDEST POP POP POP JUMP JUMPDEST PUSH0 JUMPDEST DUP3 DUP2 LT ISZERO PUSH2 0x2E8 JUMPI PUSH2 0x2DD PUSH0 DUP3 DUP5 ADD PUSH2 0x2AF JUMP JUMPDEST PUSH1 0x1 DUP2 ADD SWAP1 POP PUSH2 0x2C9 JUMP JUMPDEST POP POP POP JUMP JUMPDEST PUSH1 0x1F DUP3 GT ISZERO PUSH2 0x33B JUMPI DUP3 DUP3 GT ISZERO PUSH2 0x33A JUMPI PUSH2 0x307 DUP2 PUSH2 0x1C9 JUMP JUMPDEST PUSH2 0x310 DUP4 PUSH2 0x1DB JUMP JUMPDEST PUSH2 0x319 DUP6 PUSH2 0x1DB JUMP JUMPDEST PUSH1 0x20 DUP7 LT ISZERO PUSH2 0x326 JUMPI PUSH0 SWAP1 POP JUMPDEST DUP1 DUP4 ADD PUSH2 0x335 DUP3 DUP5 SUB DUP3 PUSH2 0x2C7 JUMP JUMPDEST POP POP POP POP JUMPDEST JUMPDEST POP POP POP JUMP JUMPDEST PUSH0 DUP3 DUP3 SHR SWAP1 POP SWAP3 SWAP2 POP POP JUMP JUMPDEST PUSH0 PUSH2 0x35B PUSH0 NOT DUP5 PUSH1 0x8 MUL PUSH2 0x340 JUMP JUMPDEST NOT DUP1 DUP4 AND SWAP2 POP POP SWAP3 SWAP2 POP POP JUMP JUMPDEST PUSH0 PUSH2 0x373 DUP4 DUP4 PUSH2 0x34C JUMP JUMPDEST SWAP2 POP DUP3 PUSH1 0x2 MUL DUP3 OR SWAP1 POP SWAP3 SWAP2 POP POP JUMP JUMPDEST PUSH2 0x38C DUP3 PUSH2 0x135 JUMP JUMPDEST PUSH8 0xFFFFFFFFFFFFFFFF DUP2 GT ISZERO PUSH2 0x3A5 JUMPI PUSH2 0x3A4 PUSH2 0x13F JUMP JUMPDEST JUMPDEST PUSH2 0x3AF DUP3 SLOAD PUSH2 0x199 JUMP JUMPDEST PUSH2 0x3BA DUP3 DUP3 DUP6 PUSH2 0x2ED JUMP JUMPDEST PUSH0 PUSH1 0x20 SWAP1 POP PUSH1 0x1F DUP4 GT PUSH1 0x1 DUP2 EQ PUSH2 0x3EB JUMPI PUSH0 DUP5 ISZERO PUSH2 0x3D9 JUMPI DUP3 DUP8 ADD MLOAD SWAP1 POP JUMPDEST PUSH2 0x3E3 DUP6 DUP3 PUSH2 0x368 JUMP JUMPDEST DUP7 SSTORE POP PUSH2 0x44A JUMP JUMPDEST PUSH1 0x1F NOT DUP5 AND PUSH2 0x3F9 DUP7 PUSH2 0x1C9 JUMP JUMPDEST PUSH0 JUMPDEST DUP3 DUP2 LT ISZERO PUSH2 0x420 JUMPI DUP5 DUP10 ADD MLOAD DUP3 SSTORE PUSH1 0x1 DUP3 ADD SWAP2 POP PUSH1 0x20 DUP6 ADD SWAP5 POP PUSH1 0x20 DUP2 ADD SWAP1 POP PUSH2 0x3FB JUMP JUMPDEST DUP7 DUP4 LT ISZERO PUSH2 0x43D JUMPI DUP5 DUP10 ADD MLOAD PUSH2 0x439 PUSH1 0x1F DUP10 AND DUP3 PUSH2 0x34C JUMP JUMPDEST DUP4 SSTORE POP JUMPDEST PUSH1 0x1 PUSH1 0x2 DUP9 MUL ADD DUP9 SSTORE POP POP POP JUMPDEST POP POP POP POP POP POP JUMP JUMPDEST PUSH0 DUP2 SWAP1 POP DUP2 PUSH0 MSTORE PUSH1 0x20 PUSH0 KECCAK256 SWAP1 POP SWAP2 SWAP1 POP JUMP JUMPDEST PUSH1 0x1F DUP3 GT ISZERO PUSH2 0x4B2 JUMPI DUP3 DUP3 GT ISZERO PUSH2 0x4B1 JUMPI PUSH2 0x47E DUP2 PUSH2 0x452 JUMP JUMPDEST PUSH2 0x487 DUP4 PUSH2 0x1DB JUMP JUMPDEST PUSH2 0x490 DUP6 PUSH2 0x1DB JUMP JUMPDEST PUSH1 0x20 DUP7 LT ISZERO PUSH2 0x49D JUMPI PUSH0 SWAP1 POP JUMPDEST DUP1 DUP4 ADD PUSH2 0x4AC DUP3 DUP5 SUB DUP3 PUSH2 0x2C7 JUMP JUMPDEST POP POP POP POP JUMPDEST JUMPDEST POP POP POP JUMP JUMPDEST PUSH2 0x4C0 DUP3 PUSH2 0x135 JUMP JUMPDEST PUSH8 0xFFFFFFFFFFFFFFFF DUP2 GT ISZERO PUSH2 0x4D9 JUMPI PUSH2 0x4D8 PUSH2 0x13F JUMP JUMPDEST JUMPDEST PUSH2 0x4E3 DUP3 SLOAD PUSH2 0x199 JUMP JUMPDEST PUSH2 0x4EE DUP3 DUP3 DUP6 PUSH2 0x464 JUMP JUMPDEST PUSH0 PUSH1 0x20 SWAP1 POP PUSH1 0x1F DUP4 GT PUSH1 0x1 DUP2 EQ PUSH2 0x51F JUMPI PUSH0 DUP5 ISZERO PUSH2 0x50D JUMPI DUP3 DUP8 ADD MLOAD SWAP1 POP JUMPDEST PUSH2 0x517 DUP6 DUP3 PUSH2 0x368 JUMP JUMPDEST DUP7 SSTORE POP PUSH2 0x57E JUMP JUMPDEST PUSH1 0x1F NOT DUP5 AND PUSH2 0x52D DUP7 PUSH2 0x452 JUMP JUMPDEST PUSH0 JUMPDEST DUP3 DUP2 LT ISZERO PUSH2 0x554 JUMPI DUP5 DUP10 ADD MLOAD DUP3 SSTORE PUSH1 0x1 DUP3 ADD SWAP2 POP PUSH1 0x20 DUP6 ADD SWAP5 POP PUSH1 0x20 DUP2 ADD SWAP1 POP PUSH2 0x52F JUMP JUMPDEST DUP7 DUP4 LT ISZERO PUSH2 0x571 JUMPI DUP5 DUP10 ADD MLOAD PUSH2 0x56D PUSH1 0x1F DUP10 AND DUP3 PUSH2 0x34C JUMP JUMPDEST DUP4 SSTORE POP JUMPDEST PUSH1 0x1 PUSH1 0x2 DUP9 MUL ADD DUP9 SSTORE POP POP POP JUMPDEST POP POP POP POP POP POP JUMP JUMPDEST PUSH2 0x552 DUP1 PUSH2 0x593 PUSH0 CODECOPY PUSH0 RETURN INVALID PUSH1 0x80 PUSH1 0x40 MSTORE CALLVALUE DUP1 ISZERO PUSH2 0xF JUMPI PUSH0 PUSH0 REVERT JUMPDEST POP PUSH1 0x4 CALLDATASIZE LT PUSH2 0x7B JUMPI PUSH0 CALLDATALOAD PUSH1 0xE0 SHR DUP1 PUSH4 0x32E43A11 GT PUSH2 0x59 JUMPI DUP1 PUSH4 0x32E43A11 EQ PUSH2 0xD9 JUMPI DUP1 PUSH4 0x4DF7E3D0 EQ PUSH2 0xF7 JUMPI DUP1 PUSH4 0x8DA5CB5B EQ PUSH2 0x115 JUMPI DUP1 PUSH4 0x92277933 EQ PUSH2 0x133 JUMPI PUSH2 0x7B JUMP JUMPDEST DUP1 PUSH4 0x6FDDE03 EQ PUSH2 0x7F JUMPI DUP1 PUSH4 0xDBE671F EQ PUSH2 0x9D JUMPI DUP1 PUSH4 0x22F3E2D4 EQ PUSH2 0xBB JUMPI JUMPDEST PUSH0 PUSH0 REVERT JUMPDEST PUSH2 0x87 PUSH2 0x151 JUMP JUMPDEST PUSH1 0x40 MLOAD PUSH2 0x94 SWAP2 SWAP1 PUSH2 0x340 JUMP JUMPDEST PUSH1 0x40 MLOAD DUP1 SWAP2 SUB SWAP1 RETURN JUMPDEST PUSH2 0xA5 PUSH2 0x1DD JUMP JUMPDEST PUSH1 0x40 MLOAD PUSH2 0xB2 SWAP2 SWAP1 PUSH2 0x378 JUMP JUMPDEST PUSH1 0x40 MLOAD DUP1 SWAP2 SUB SWAP1 RETURN JUMPDEST PUSH2 0xC3 PUSH2 0x1E2 JUMP JUMPDEST PUSH1 0x40 MLOAD PUSH2 0xD0 SWAP2 SWAP1 PUSH2 0x3AB JUMP JUMPDEST PUSH1 0x40 MLOAD DUP1 SWAP2 SUB SWAP1 RETURN JUMPDEST PUSH2 0xE1 PUSH2 0x1F4 JUMP JUMPDEST PUSH1 0x40 MLOAD PUSH2 0xEE SWAP2 SWAP1 PUSH2 0x403 JUMP JUMPDEST PUSH1 0x40 MLOAD DUP1 SWAP2 SUB SWAP1 RETURN JUMPDEST PUSH2 0xFF PUSH2 0x219 JUMP JUMPDEST PUSH1 0x40 MLOAD PUSH2 0x10C SWAP2 SWAP1 PUSH2 0x434 JUMP JUMPDEST PUSH1 0x40 MLOAD DUP1 SWAP2 SUB SWAP1 RETURN JUMPDEST PUSH2 0x11D PUSH2 0x21F JUMP JUMPDEST PUSH1 0x40 MLOAD PUSH2 0x12A SWAP2 SWAP1 PUSH2 0x403 JUMP JUMPDEST PUSH1 0x40 MLOAD DUP1 SWAP2 SUB SWAP1 RETURN JUMPDEST PUSH2 0x13B PUSH2 0x244 JUMP JUMPDEST PUSH1 0x40 MLOAD PUSH2 0x148 SWAP2 SWAP1 PUSH2 0x49F JUMP JUMPDEST PUSH1 0x40 MLOAD DUP1 SWAP2 SUB SWAP1 RETURN JUMPDEST PUSH1 0x2 DUP1 SLOAD PUSH2 0x15E SWAP1 PUSH2 0x4EC JUMP JUMPDEST DUP1 PUSH1 0x1F ADD PUSH1 0x20 DUP1 SWAP2 DIV MUL PUSH1 0x20 ADD PUSH1 0x40 MLOAD SWAP1 DUP2 ADD PUSH1 0x40 MSTORE DUP1 SWAP3 SWAP2 SWAP1 DUP2 DUP2 MSTORE PUSH1 0x20 ADD DUP3 DUP1 SLOAD PUSH2 0x18A SWAP1 PUSH2 0x4EC JUMP JUMPDEST DUP1 ISZERO PUSH2 0x1D5 JUMPI DUP1 PUSH1 0x1F LT PUSH2 0x1AC JUMPI PUSH2 0x100 DUP1 DUP4 SLOAD DIV MUL DUP4 MSTORE SWAP2 PUSH1 0x20 ADD SWAP2 PUSH2 0x1D5 JUMP JUMPDEST DUP3 ADD SWAP2 SWAP1 PUSH0 MSTORE PUSH1 0x20 PUSH0 KECCAK256 SWAP1 JUMPDEST DUP2 SLOAD DUP2 MSTORE SWAP1 PUSH1 0x1 ADD SWAP1 PUSH1 0x20 ADD DUP1 DUP4 GT PUSH2 0x1B8 JUMPI DUP3 SWAP1 SUB PUSH1 0x1F AND DUP3 ADD SWAP2 JUMPDEST POP POP POP POP POP DUP2 JUMP JUMPDEST PUSH0 SLOAD DUP2 JUMP JUMPDEST PUSH1 0x3 PUSH0 SWAP1 SLOAD SWAP1 PUSH2 0x100 EXP SWAP1 DIV PUSH1 0xFF AND DUP2 JUMP JUMPDEST PUSH1 0x6 PUSH0 SWAP1 SLOAD SWAP1 PUSH2 0x100 EXP SWAP1 DIV PUSH20 0xFFFFFFFFFFFFFFFFFFFFFFFFFFFFFFFFFFFFFFFF AND DUP2 JUMP JUMPDEST PUSH1 0x1 SLOAD DUP2 JUMP JUMPDEST PUSH1 0x5 PUSH0 SWAP1 SLOAD SWAP1 PUSH2 0x100 EXP SWAP1 DIV PUSH20 0xFFFFFFFFFFFFFFFFFFFFFFFFFFFFFFFFFFFFFFFF AND DUP2 JUMP JUMPDEST PUSH1 0x4 DUP1 SLOAD PUSH2 0x251 SWAP1 PUSH2 0x4EC JUMP JUMPDEST DUP1 PUSH1 0x1F ADD PUSH1 0x20 DUP1 SWAP2 DIV MUL PUSH1 0x20 ADD PUSH1 0x40 MLOAD SWAP1 DUP2 ADD PUSH1 0x40 MSTORE DUP1 SWAP3 SWAP2 SWAP1 DUP2 DUP2 MSTORE PUSH1 0x20 ADD DUP3 DUP1 SLOAD PUSH2 0x27D SWAP1 PUSH2 0x4EC JUMP JUMPDEST DUP1 ISZERO PUSH2 0x2C8 JUMPI DUP1 PUSH1 0x1F LT PUSH2 0x29F JUMPI PUSH2 0x100 DUP1 DUP4 SLOAD DIV MUL DUP4 MSTORE SWAP2 PUSH1 0x20 ADD SWAP2 PUSH2 0x2C8 JUMP JUMPDEST DUP3 ADD SWAP2 SWAP1 PUSH0 MSTORE PUSH1 0x20 PUSH0 KECCAK256 SWAP1 JUMPDEST DUP2 SLOAD DUP2 MSTORE SWAP1 PUSH1 0x1 ADD SWAP1 PUSH1 0x20 ADD DUP1 DUP4 GT PUSH2 0x2AB JUMPI DUP3 SWAP1 SUB PUSH1 0x1F AND DUP3 ADD SWAP2 JUMPDEST POP POP POP POP POP DUP2 JUMP JUMPDEST PUSH0 DUP2 MLOAD SWAP1 POP SWAP2 SWAP1 POP JUMP JUMPDEST PUSH0 DUP3 DUP3 MSTORE PUSH1 0x20 DUP3 ADD SWAP1 POP SWAP3 SWAP2 POP POP JUMP JUMPDEST DUP3 DUP2 DUP4 MCOPY PUSH0 DUP4 DUP4 ADD MSTORE POP POP POP JUMP JUMPDEST PUSH0 PUSH1 0x1F NOT PUSH1 0x1F DUP4 ADD AND SWAP1 POP SWAP2 SWAP1 POP JUMP JUMPDEST PUSH0 PUSH2 0x312 DUP3 PUSH2 0x2D0 JUMP JUMPDEST PUSH2 0x31C DUP2 DUP6 PUSH2 0x2DA JUMP JUMPDEST SWAP4 POP PUSH2 0x32C DUP2 DUP6 PUSH1 0x20 DUP7 ADD PUSH2 0x2EA JUMP JUMPDEST PUSH2 0x335 DUP2 PUSH2 0x2F8 JUMP JUMPDEST DUP5 ADD SWAP2 POP POP SWAP3 SWAP2 POP POP JUMP JUMPDEST PUSH0 PUSH1 0x20 DUP3 ADD SWAP1 POP DUP2 DUP2 SUB PUSH0 DUP4 ADD MSTORE PUSH2 0x358 DUP2 DUP5 PUSH2 0x308 JUMP JUMPDEST SWAP1 POP SWAP3 SWAP2 POP POP JUMP JUMPDEST PUSH0 DUP2 SWAP1 POP SWAP2 SWAP1 POP JUMP JUMPDEST PUSH2 0x372 DUP2 PUSH2 0x360 JUMP JUMPDEST DUP3 MSTORE POP POP JUMP JUMPDEST PUSH0 PUSH1 0x20 DUP3 ADD SWAP1 POP PUSH2 0x38B PUSH0 DUP4 ADD DUP5 PUSH2 0x369 JUMP JUMPDEST SWAP3 SWAP2 POP POP JUMP JUMPDEST PUSH0 DUP2 ISZERO ISZERO SWAP1 POP SWAP2 SWAP1 POP JUMP JUMPDEST PUSH2 0x3A5 DUP2 PUSH2 0x391 JUMP JUMPDEST DUP3 MSTORE POP POP JUMP JUMPDEST PUSH0 PUSH1 0x20 DUP3 ADD SWAP1 POP PUSH2 0x3BE PUSH0 DUP4 ADD DUP5 PUSH2 0x39C JUMP JUMPDEST SWAP3 SWAP2 POP POP JUMP JUMPDEST PUSH0 PUSH20 0xFFFFFFFFFFFFFFFFFFFFFFFFFFFFFFFFFFFFFFFF DUP3 AND SWAP1 POP SWAP2 SWAP1 POP JUMP JUMPDEST PUSH0 PUSH2 0x3ED DUP3 PUSH2 0x3C4 JUMP JUMPDEST SWAP1 POP SWAP2 SWAP1 POP JUMP JUMPDEST PUSH2 0x3FD DUP2 PUSH2 0x3E3 JUMP JUMPDEST DUP3 MSTORE POP POP JUMP JUMPDEST PUSH0 PUSH1 0x20 DUP3 ADD SWAP1 POP PUSH2 0x416 PUSH0 DUP4 ADD DUP5 PUSH2 0x3F4 JUMP JUMPDEST SWAP3 SWAP2 POP POP JUMP JUMPDEST PUSH0 DUP2 SWAP1 POP SWAP2 SWAP1 POP JUMP JUMPDEST PUSH2 0x42E DUP2 PUSH2 0x41C JUMP JUMPDEST DUP3 MSTORE POP POP JUMP JUMPDEST PUSH0 PUSH1 0x20 DUP3 ADD SWAP1 POP PUSH2 0x447 PUSH0 DUP4 ADD DUP5 PUSH2 0x425 JUMP JUMPDEST SWAP3 SWAP2 POP POP JUMP JUMPDEST PUSH0 DUP2 MLOAD SWAP1 POP SWAP2 SWAP1 POP JUMP JUMPDEST PUSH0 DUP3 DUP3 MSTORE PUSH1 0x20 DUP3 ADD SWAP1 POP SWAP3 SWAP2 POP POP JUMP JUMPDEST PUSH0 PUSH2 0x471 DUP3 PUSH2 0x44D JUMP JUMPDEST PUSH2 0x47B DUP2 DUP6 PUSH2 0x457 JUMP JUMPDEST SWAP4 POP PUSH2 0x48B DUP2 DUP6 PUSH1 0x20 DUP7 ADD PUSH2 0x2EA JUMP JUMPDEST PUSH2 0x494 DUP2 PUSH2 0x2F8 JUMP JUMPDEST DUP5 ADD SWAP2 POP POP SWAP3 SWAP2 POP POP JUMP JUMPDEST PUSH0 PUSH1 0x20 DUP3 ADD SWAP1 POP DUP2 DUP2 SUB PUSH0 DUP4 ADD MSTORE PUSH2 0x4B7 DUP2 DUP5 PUSH2 0x467 JUMP JUMPDEST SWAP1 POP SWAP3 SWAP2 POP POP JUMP JUMPDEST PUSH32 0x4E487B7100000000000000000000000000000000000000000000000000000000 PUSH0 MSTORE PUSH1 0x22 PUSH1 0x4 MSTORE PUSH1 0x24 PUSH0 REVERT JUMPDEST PUSH0 PUSH1 0x2 DUP3 DIV SWAP1 POP PUSH1 0x1 DUP3 AND DUP1 PUSH2 0x503 JUMPI PUSH1 0x7F DUP3 AND SWAP2 POP JUMPDEST PUSH1 0x20 DUP3 LT DUP2 SUB PUSH2 0x516 JUMPI PUSH2 0x515 PUSH2 0x4BF JUMP JUMPDEST JUMPDEST POP SWAP2 SWAP1 POP JUMP INVALID LOG2 PUSH5 0x6970667358 0x22 SLT KECCAK256 SWAP16 0x2B SMOD PUSH22 0xF205A938FC318FE55811455EEFED18596FC6AD290E3A SWAP12 0xD7 SLOAD 0xC6 0xC6 LOG1 PUSH5 0x736F6C6343 STOP ADDMOD 0x22 STOP CALLER "
		},
		"gasEstimates": {
			"creation": {
				"codeDepositCost": "272400",
				"executionCost": "infinite",
				"totalCost": "infinite"
			},
			"external": {
				"a()": "2447",
				"abc()": "infinite",
				"b()": "2447",
				"dummy()": "2508",
				"isActive()": "2511",
				"name()": "infinite",
				"owner()": "2552"
			}
		},
		"methodIdentifiers": {
			"a()": "0dbe671f",
			"abc()": "92277933",
			"b()": "4df7e3d0",
			"dummy()": "32e43a11",
			"isActive()": "22f3e2d4",
			"name()": "06fdde03",
			"owner()": "8da5cb5b"
		}
	},
	"abi": [
		{
			"inputs": [],
			"name": "a",
			"outputs": [
				{
					"internalType": "uint256",
					"name": "",
					"type": "uint256"
				}
			],
			"stateMutability": "view",
			"type": "function"
		},
		{
			"inputs": [],
			"name": "abc",
			"outputs": [
				{
					"internalType": "bytes",
					"name": "",
					"type": "bytes"
				}
			],
			"stateMutability": "view",
			"type": "function"
		},
		{
			"inputs": [],
			"name": "b",
			"outputs": [
				{
					"internalType": "int256",
					"name": "",
					"type": "int256"
				}
			],
			"stateMutability": "view",
			"type": "function"
		},
		{
			"inputs": [],
			"name": "dummy",
			"outputs": [
				{
					"internalType": "address",
					"name": "",
					"type": "address"
				}
			],
			"stateMutability": "view",
			"type": "function"
		},
		{
			"inputs": [],
			"name": "isActive",
			"outputs": [
				{
					"internalType": "bool",
					"name": "",
					"type": "bool"
				}
			],
			"stateMutability": "view",
			"type": "function"
		},
		{
			"inputs": [],
			"name": "name",
			"outputs": [
				{
					"internalType": "string",
					"name": "",
					"type": "string"
				}
			],
			"stateMutability": "view",
			"type": "function"
		},
		{
			"inputs": [],
			"name": "owner",
			"outputs": [
				{
					"internalType": "address",
					"name": "",
					"type": "address"
				}
			],
			"stateMutability": "view",
			"type": "function"
		}
	]
}