{
	"data": {
		"bytecode": {
			"linkReferences": {},
			"object": "6080604052348015600e575f5ffd5b50610bad8061001c5f395ff3fe608060405234801561000f575f5ffd5b506004361061003f575f3560e01c80633abfcc1a146100435780634ffbf16b1461005f578063b93a89f71461007b575b5f5ffd5b61005d600480360381019061005891906105d2565b6100ae565b005b6100796004803603810190610074919061063e565b61014c565b005b6100956004803603810190610090919061063e565b61031a565b6040516100a594939291906106d8565b60405180910390f35b5f5f8154809291906100bf9061074f565b91905055506040518060a0016040528084815260200182846100e19190610796565b81526020018281526020015f81526020015f81525060015f5f5481526020019081526020015f205f820151815f01908161011b91906109d7565b5060208201518160010155604082015181600201556060820151816003015560808201518160040155905050505050565b5f60015f8381526020019081526020015f206040518060a00160405290815f82018054610178906107f6565b80601f01602080910402602001604051908101604052809291908181526020018280546101a4906107f6565b80156101ef5780601f106101c6576101008083540402835291602001916101ef565b820191905f5260205f20905b8154815290600101906020018083116101d257829003601f168201915b5050505050815260200160018201548152602001600282015481526020016003820154815260200160048201548152505090506064600c82602001516102359190610aa6565b61023f9190610b14565b81606001818152505060646007826020015161025b9190610aa6565b6102659190610b14565b8160800181815250506040518060a00160405280825f01518152602001826080015183606001516102969190610796565b83602001516102a59190610b44565b81526020018260400151815260200182606001518152602001826080015181525060015f8481526020019081526020015f205f820151815f0190816102ea91906109d7565b50602082015181600101556040820151816002015560608201518160030155608082015181600401559050505050565b60605f5f5f5f60015f8781526020019081526020015f206040518060a00160405290815f8201805461034b906107f6565b80601f0160208091040260200160405190810160405280929190818152602001828054610377906107f6565b80156103c25780601f10610399576101008083540402835291602001916103c2565b820191905f5260205f20905b8154815290600101906020018083116103a557829003601f168201915b5050505050815260200160018201548152602001600282015481526020016003820154815260200160048201548152505090505f6064600583602001516104099190610aa6565b6104139190610b14565b90505f6064602884602001516104299190610aa6565b6104339190610b14565b9050825f01518360200151838396509650965096505050509193509193565b5f604051905090565b5f5ffd5b5f5ffd5b5f5ffd5b5f5ffd5b5f601f19601f8301169050919050565b7f4e487b71000000000000000000000000000000000000000000000000000000005f52604160045260245ffd5b6104b18261046b565b810181811067ffffffffffffffff821117156104d0576104cf61047b565b5b80604052505050565b5f6104e2610452565b90506104ee82826104a8565b919050565b5f67ffffffffffffffff82111561050d5761050c61047b565b5b6105168261046b565b9050602081019050919050565b828183375f83830152505050565b5f61054361053e846104f3565b6104d9565b90508281526020810184848401111561055f5761055e610467565b5b61056a848285610523565b509392505050565b5f82601f83011261058657610585610463565b5b8135610596848260208601610531565b91505092915050565b5f819050919050565b6105b18161059f565b81146105bb575f5ffd5b50565b5f813590506105cc816105a8565b92915050565b5f5f5f606084860312156105e9576105e861045b565b5b5f84013567ffffffffffffffff8111156106065761060561045f565b5b61061286828701610572565b9350506020610623868287016105be565b9250506040610634868287016105be565b9150509250925092565b5f602082840312156106535761065261045b565b5b5f610660848285016105be565b91505092915050565b5f81519050919050565b5f82825260208201905092915050565b8281835e5f83830152505050565b5f61069b82610669565b6106a58185610673565b93506106b5818560208601610683565b6106be8161046b565b840191505092915050565b6106d28161059f565b82525050565b5f6080820190508181035f8301526106f08187610691565b90506106ff60208301866106c9565b61070c60408301856106c9565b61071960608301846106c9565b95945050505050565b7f4e487b71000000000000000000000000000000000000000000000000000000005f52601160045260245ffd5b5f6107598261059f565b91507fffffffffffffffffffffffffffffffffffffffffffffffffffffffffffffffff820361078b5761078a610722565b5b600182019050919050565b5f6107a08261059f565b91506107ab8361059f565b92508282019050808211156107c3576107c2610722565b5b92915050565b7f4e487b71000000000000000000000000000000000000000000000000000000005f52602260045260245ffd5b5f600282049050600182168061080d57607f821691505b6020821081036108205761081f6107c9565b5b50919050565b5f819050815f5260205f209050919050565b5f6020601f8301049050919050565b5f82821b905092915050565b5f600883026108827fffffffffffffffffffffffffffffffffffffffffffffffffffffffffffffffff82610847565b61088c8683610847565b95508019841693508086168417925050509392505050565b5f819050919050565b5f6108c76108c26108bd8461059f565b6108a4565b61059f565b9050919050565b5f819050919050565b6108e0836108ad565b6108f46108ec826108ce565b848454610853565b825550505050565b5f5f905090565b61090b6108fc565b6109168184846108d7565b505050565b5f5b8281101561093c576109315f828401610903565b60018101905061091d565b505050565b601f82111561098f578282111561098e5761095b81610826565b61096483610838565b61096d85610838565b602086101561097a575f90505b8083016109898284038261091b565b505050505b5b505050565b5f82821c905092915050565b5f6109af5f1984600802610994565b1980831691505092915050565b5f6109c783836109a0565b9150826002028217905092915050565b6109e082610669565b67ffffffffffffffff8111156109f9576109f861047b565b5b610a0382546107f6565b610a0e828285610941565b5f60209050601f831160018114610a3f575f8415610a2d578287015190505b610a3785826109bc565b865550610a9e565b601f198416610a4d86610826565b5f5b82811015610a7457848901518255600182019150602085019450602081019050610a4f565b86831015610a915784890151610a8d601f8916826109a0565b8355505b6001600288020188555050505b505050505050565b5f610ab08261059f565b9150610abb8361059f565b9250828202610ac98161059f565b91508282048414831517610ae057610adf610722565b5b5092915050565b7f4e487b71000000000000000000000000000000000000000000000000000000005f52601260045260245ffd5b5f610b1e8261059f565b9150610b298361059f565b925082610b3957610b38610ae7565b5b828204905092915050565b5f610b4e8261059f565b9150610b598361059f565b9250828203905081811115610b7157610b70610722565b5b9291505056fea264697066735822122069fae6dcdf940ad0ebe288315e2884e86c58a9f0f4ce5c54e1887a74a1f22d8e64736f6c63430008220033",
			"opcodes": "PUSH1 0x80 PUSH1 0x40 MSTORE CALLVALUE DUP1 ISZERO PUSH1 0xE JUMPI PUSH0 PUSH0 REVERT JUMPDEST POP PUSH2 0xBAD DUP1 PUSH2 0x1C PUSH0 CODECOPY PUSH0 RETURN INVALID PUSH1 0x80 PUSH1 0x40 MSTORE CALLVALUE DUP1 ISZERO PUSH2 0xF JUMPI PUSH0 PUSH0 REVERT JUMPDEST POP PUSH1 0x4 CALLDATASIZE LT PUSH2 0x3F JUMPI PUSH0 CALLDATALOAD PUSH1 0xE0 SHR DUP1 PUSH4 0x3ABFCC1A EQ PUSH2 0x43 JUMPI DUP1 PUSH4 0x4FFBF16B EQ PUSH2 0x5F JUMPI DUP1 PUSH4 0xB93A89F7 EQ PUSH2 0x7B JUMPI JUMPDEST PUSH0 PUSH0 REVERT JUMPDEST PUSH2 0x5D PUSH1 0x4 DUP1 CALLDATASIZE SUB DUP2 ADD SWAP1 PUSH2 0x58 SWAP2 SWAP1 PUSH2 0x5D2 JUMP JUMPDEST PUSH2 0xAE JUMP JUMPDEST STOP JUMPDEST PUSH2 0x79 PUSH1 0x4 DUP1 CALLDATASIZE SUB DUP2 ADD SWAP1 PUSH2 0x74 SWAP2 SWAP1 PUSH2 0x63E JUMP JUMPDEST PUSH2 0x14C JUMP JUMPDEST STOP JUMPDEST PUSH2 0x95 PUSH1 0x4 DUP1 CALLDATASIZE SUB DUP2 ADD SWAP1 PUSH2 0x90 SWAP2 SWAP1 PUSH2 0x63E JUMP JUMPDEST PUSH2 0x31A JUMP JUMPDEST PUSH1 0x40 MLOAD PUSH2 0xA5 SWAP5 SWAP4 SWAP3 SWAP2 SWAP1 PUSH2 0x6D8 JUMP JUMPDEST PUSH1 0x40 MLOAD DUP1 SWAP2 SUB SWAP1 RETURN JUMPDEST PUSH0 PUSH0 DUP2 SLOAD DUP1 SWAP3 SWAP2 SWAP1 PUSH2 0xBF SWAP1 PUSH2 0x74F JUMP JUMPDEST SWAP2 SWAP1 POP SSTORE POP PUSH1 0x40 MLOAD DUP1 PUSH1 0xA0 ADD PUSH1 0x40 MSTORE DUP1 DUP5 DUP2 MSTORE PUSH1 0x20 ADD DUP3 DUP5 PUSH2 0xE1 SWAP2 SWAP1 PUSH2 0x796 JUMP JUMPDEST DUP2 MSTORE PUSH1 0x20 ADD DUP3 DUP2 MSTORE PUSH1 0x20 ADD PUSH0 DUP2 MSTORE PUSH1 0x20 ADD PUSH0 DUP2 MSTORE POP PUSH1 0x1 PUSH0 PUSH0 SLOAD DUP2 MSTORE PUSH1 0x20 ADD SWAP1 DUP2 MSTORE PUSH1 0x20 ADD PUSH0 KECCAK256 PUSH0 DUP3 ADD MLOAD DUP2 PUSH0 ADD SWAP1 DUP2 PUSH2 0x11B SWAP2 SWAP1 PUSH2 0x9D7 JUMP JUMPDEST POP PUSH1 0x20 DUP3 ADD MLOAD DUP2 PUSH1 0x1 ADD SSTORE PUSH1 0x40 DUP3 ADD MLOAD DUP2 PUSH1 0x2 ADD SSTORE PUSH1 0x60 DUP3 ADD MLOAD DUP2 PUSH1 0x3 ADD SSTORE PUSH1 0x80 DUP3 ADD MLOAD DUP2 PUSH1 0x4 ADD SSTORE SWAP1 POP POP POP POP POP JUMP JUMPDEST PUSH0 PUSH1 0x1 PUSH0 DUP4 DUP2 MSTORE PUSH1 0x20 ADD SWAP1 DUP2 MSTORE PUSH1 0x20 ADD PUSH0 KECCAK256 PUSH1 0x40 MLOAD DUP1 PUSH1 0xA0 ADD PUSH1 0x40 MSTORE SWAP1 DUP2 PUSH0 DUP3 ADD DUP1 SLOAD PUSH2 0x178 SWAP1 PUSH2 0x7F6 JUMP JUMPDEST DUP1 PUSH1 0x1F ADD PUSH1 0x20 DUP1 SWAP2 DIV MUL PUSH1 0x20 ADD PUSH1 0x40 MLOAD SWAP1 DUP2 ADD PUSH1 0x40 MSTORE DUP1 SWAP3 SWAP2 SWAP1 DUP2 DUP2 MSTORE PUSH1 0x20 ADD DUP3 DUP1 SLOAD PUSH2 0x1A4 SWAP1 PUSH2 0x7F6 JUMP JUMPDEST DUP1 ISZERO PUSH2 0x1EF JUMPI DUP1 PUSH1 0x1F LT PUSH2 0x1C6 JUMPI PUSH2 0x100 DUP1 DUP4 SLOAD DIV MUL DUP4 MSTORE SWAP2 PUSH1 0x20 ADD SWAP2 PUSH2 0x1EF JUMP JUMPDEST DUP3 ADD SWAP2 SWAP1 PUSH0 MSTORE PUSH1 0x20 PUSH0 KECCAK256 SWAP1 JUMPDEST DUP2 SLOAD DUP2 MSTORE SWAP1 PUSH1 0x1 ADD SWAP1 PUSH1 0x20 ADD DUP1 DUP4 GT PUSH2 0x1D2 JUMPI DUP3 SWAP1 SUB PUSH1 0x1F AND DUP3 ADD SWAP2 JUMPDEST POP POP POP POP POP DUP2 MSTORE PUSH1 0x20 ADD PUSH1 0x1 DUP3 ADD SLOAD DUP2 MSTORE PUSH1 0x20 ADD PUSH1 0x2 DUP3 ADD SLOAD DUP2 MSTORE PUSH1 0x20 ADD PUSH1 0x3 DUP3 ADD SLOAD DUP2 MSTORE PUSH1 0x20 ADD PUSH1 0x4 DUP3 ADD SLOAD DUP2 MSTORE POP POP SWAP1 POP PUSH1 0x64 PUSH1 0xC DUP3 PUSH1 0x20 ADD MLOAD PUSH2 0x235 SWAP2 SWAP1 PUSH2 0xAA6 JUMP JUMPDEST PUSH2 0x23F SWAP2 SWAP1 PUSH2 0xB14 JUMP JUMPDEST DUP2 PUSH1 0x60 ADD DUP2 DUP2 MSTORE POP POP PUSH1 0x64 PUSH1 0x7 DUP3 PUSH1 0x20 ADD MLOAD PUSH2 0x25B SWAP2 SWAP1 PUSH2 0xAA6 JUMP JUMPDEST PUSH2 0x265 SWAP2 SWAP1 PUSH2 0xB14 JUMP JUMPDEST DUP2 PUSH1 0x80 ADD DUP2 DUP2 MSTORE POP POP PUSH1 0x40 MLOAD DUP1 PUSH1 0xA0 ADD PUSH1 0x40 MSTORE DUP1 DUP3 PUSH0 ADD MLOAD DUP2 MSTORE PUSH1 0x20 ADD DUP3 PUSH1 0x80 ADD MLOAD DUP4 PUSH1 0x60 ADD MLOAD PUSH2 0x296 SWAP2 SWAP1 PUSH2 0x796 JUMP JUMPDEST DUP4 PUSH1 0x20 ADD MLOAD PUSH2 0x2A5 SWAP2 SWAP1 PUSH2 0xB44 JUMP JUMPDEST DUP2 MSTORE PUSH1 0x20 ADD DUP3 PUSH1 0x40 ADD MLOAD DUP2 MSTORE PUSH1 0x20 ADD DUP3 PUSH1 0x60 ADD MLOAD DUP2 MSTORE PUSH1 0x20 ADD DUP3 PUSH1 0x80 ADD MLOAD DUP2 MSTORE POP PUSH1 0x1 PUSH0 DUP5 DUP2 MSTORE PUSH1 0x20 ADD SWAP1 DUP2 MSTORE PUSH1 0x20 ADD PUSH0 KECCAK256 PUSH0 DUP3 ADD MLOAD DUP2 PUSH0 ADD SWAP1 DUP2 PUSH2 0x2EA SWAP2 SWAP1 PUSH2 0x9D7 JUMP JUMPDEST POP PUSH1 0x20 DUP3 ADD MLOAD DUP2 PUSH1 0x1 ADD SSTORE PUSH1 0x40 DUP3 ADD MLOAD DUP2 PUSH1 0x2 ADD SSTORE PUSH1 0x60 DUP3 ADD MLOAD DUP2 PUSH1 0x3 ADD SSTORE PUSH1 0x80 DUP3 ADD MLOAD DUP2 PUSH1 0x4 ADD SSTORE SWAP1 POP POP POP POP JUMP JUMPDEST PUSH1 0x60 PUSH0 PUSH0 PUSH0 PUSH0 PUSH1 0x1 PUSH0 DUP8 DUP2 MSTORE PUSH1 0x20 ADD SWAP1 DUP2 MSTORE PUSH1 0x20 ADD PUSH0 KECCAK256 PUSH1 0x40 MLOAD DUP1 PUSH1 0xA0 ADD PUSH1 0x40 MSTORE SWAP1 DUP2 PUSH0 DUP3 ADD DUP1 SLOAD PUSH2 0x34B SWAP1 PUSH2 0x7F6 JUMP JUMPDEST DUP1 PUSH1 0x1F ADD PUSH1 0x20 DUP1 SWAP2 DIV MUL PUSH1 0x20 ADD PUSH1 0x40 MLOAD SWAP1 DUP2 ADD PUSH1 0x40 MSTORE DUP1 SWAP3 SWAP2 SWAP1 DUP2 DUP2 MSTORE PUSH1 0x20 ADD DUP3 DUP1 SLOAD PUSH2 0x377 SWAP1 PUSH2 0x7F6 JUMP JUMPDEST DUP1 ISZERO PUSH2 0x3C2 JUMPI DUP1 PUSH1 0x1F LT PUSH2 0x399 JUMPI PUSH2 0x100 DUP1 DUP4 SLOAD DIV MUL DUP4 MSTORE SWAP2 PUSH1 0x20 ADD SWAP2 PUSH2 0x3C2 JUMP JUMPDEST DUP3 ADD SWAP2 SWAP1 PUSH0 MSTORE PUSH1 0x20 PUSH0 KECCAK256 SWAP1 JUMPDEST DUP2 SLOAD DUP2 MSTORE SWAP1 PUSH1 0x1 ADD SWAP1 PUSH1 0x20 ADD DUP1 DUP4 GT PUSH2 0x3A5 JUMPI DUP3 SWAP1 SUB PUSH1 0x1F AND DUP3 ADD SWAP2 JUMPDEST POP POP POP POP POP DUP2 MSTORE PUSH1 0x20 ADD PUSH1 0x1 DUP3 ADD SLOAD DUP2 MSTORE PUSH1 0x20 ADD PUSH1 0x2 DUP3 ADD SLOAD DUP2 MSTORE PUSH1 0x20 ADD PUSH1 0x3 DUP3 ADD SLOAD DUP2 MSTORE PUSH1 0x20 ADD PUSH1 0x4 DUP3 ADD SLOAD DUP2 MSTORE POP POP SWAP1 POP PUSH0 PUSH1 0x64 PUSH1 0x5 DUP4 PUSH1 0x20 ADD MLOAD PUSH2 0x409 SWAP2 SWAP1 PUSH2 0xAA6 JUMP JUMPDEST PUSH2 0x413 SWAP2 SWAP1 PUSH2 0xB14 JUMP JUMPDEST SWAP1 POP PUSH0 PUSH1 0x64 PUSH1 0x28 DUP5 PUSH1 0x20 ADD MLOAD PUSH2 0x429 SWAP2 SWAP1 PUSH2 0xAA6 JUMP JUMPDEST PUSH2 0x433 SWAP2 SWAP1 PUSH2 0xB14 JUMP JUMPDEST SWAP1 POP DUP3 PUSH0 ADD MLOAD DUP4 PUSH1 0x20 ADD MLOAD DUP4 DUP4 SWAP7 POP SWAP7 POP SWAP7 POP SWAP7 POP POP POP POP SWAP2 SWAP4 POP SWAP2 SWAP4 JUMP JUMPDEST PUSH0 PUSH1 0x40 MLOAD SWAP1 POP SWAP1 JUMP JUMPDEST PUSH0 PUSH0 REVERT JUMPDEST PUSH0 PUSH0 REVERT JUMPDEST PUSH0 PUSH0 REVERT JUMPDEST PUSH0 PUSH0 REVERT JUMPDEST PUSH0 PUSH1 0x1F NOT PUSH1 0x1F DUP4 ADD AND SWAP1 POP SWAP2 SWAP1 POP JUMP JUMPDEST PUSH32 0x4E487B7100000000000000000000000000000000000000000000000000000000 PUSH0 MSTORE PUSH1 0x41 PUSH1 0x4 MSTORE PUSH1 0x24 PUSH0 REVERT JUMPDEST PUSH2 0x4B1 DUP3 PUSH2 0x46B JUMP JUMPDEST DUP2 ADD DUP2 DUP2 LT PUSH8 0xFFFFFFFFFFFFFFFF DUP3 GT OR ISZERO PUSH2 0x4D0 JUMPI PUSH2 0x4CF PUSH2 0x47B JUMP JUMPDEST JUMPDEST DUP1 PUSH1 0x40 MSTORE POP POP POP JUMP JUMPDEST PUSH0 PUSH2 0x4E2 PUSH2 0x452 JUMP JUMPDEST SWAP1 POP PUSH2 0x4EE DUP3 DUP3 PUSH2 0x4A8 JUMP JUMPDEST SWAP2 SWAP1 POP JUMP JUMPDEST PUSH0 PUSH8 0xFFFFFFFFFFFFFFFF DUP3 GT ISZERO PUSH2 0x50D JUMPI PUSH2 0x50C PUSH2 0x47B JUMP JUMPDEST JUMPDEST PUSH2 0x516 DUP3 PUSH2 0x46B JUMP JUMPDEST SWAP1 POP PUSH1 0x20 DUP2 ADD SWAP1 POP SWAP2 SWAP1 POP JUMP JUMPDEST DUP3 DUP2 DUP4 CALLDATACOPY PUSH0 DUP4 DUP4 ADD MSTORE POP POP POP JUMP JUMPDEST PUSH0 PUSH2 0x543 PUSH2 0x53E DUP5 PUSH2 0x4F3 JUMP JUMPDEST PUSH2 0x4D9 JUMP JUMPDEST SWAP1 POP DUP3 DUP2 MSTORE PUSH1 0x20 DUP2 ADD DUP5 DUP5 DUP5 ADD GT ISZERO PUSH2 0x55F JUMPI PUSH2 0x55E PUSH2 0x467 JUMP JUMPDEST JUMPDEST PUSH2 0x56A DUP5 DUP3 DUP6 PUSH2 0x523 JUMP JUMPDEST POP SWAP4 SWAP3 POP POP POP JUMP JUMPDEST PUSH0 DUP3 PUSH1 0x1F DUP4 ADD SLT PUSH2 0x586 JUMPI PUSH2 0x585 PUSH2 0x463 JUMP JUMPDEST JUMPDEST DUP2 CALLDATALOAD PUSH2 0x596 DUP5 DUP3 PUSH1 0x20 DUP7 ADD PUSH2 0x531 JUMP JUMPDEST SWAP2 POP POP SWAP3 SWAP2 POP POP JUMP JUMPDEST PUSH0 DUP2 SWAP1 POP SWAP2 SWAP1 POP JUMP JUMPDEST PUSH2 0x5B1 DUP2 PUSH2 0x59F JUMP JUMPDEST DUP2 EQ PUSH2 0x5BB JUMPI PUSH0 PUSH0 REVERT JUMPDEST POP JUMP JUMPDEST PUSH0 DUP2 CALLDATALOAD SWAP1 POP PUSH2 0x5CC DUP2 PUSH2 0x5A8 JUMP JUMPDEST SWAP3 SWAP2 POP POP JUMP JUMPDEST PUSH0 PUSH0 PUSH0 PUSH1 0x60 DUP5 DUP7 SUB SLT ISZERO PUSH2 0x5E9 JUMPI PUSH2 0x5E8 PUSH2 0x45B JUMP JUMPDEST JUMPDEST PUSH0 DUP5 ADD CALLDATALOAD PUSH8 0xFFFFFFFFFFFFFFFF DUP2 GT ISZERO PUSH2 0x606 JUMPI PUSH2 0x605 PUSH2 0x45F JUMP JUMPDEST JUMPDEST PUSH2 0x612 DUP7 DUP3 DUP8 ADD PUSH2 0x572 JUMP JUMPDEST SWAP4 POP POP PUSH1 0x20 PUSH2 0x623 DUP7 DUP3 DUP8 ADD PUSH2 0x5BE JUMP JUMPDEST SWAP3 POP POP PUSH1 0x40 PUSH2 0x634 DUP7 DUP3 DUP8 ADD PUSH2 0x5BE JUMP JUMPDEST SWAP2 POP POP SWAP3 POP SWAP3 POP SWAP3 JUMP JUMPDEST PUSH0 PUSH1 0x20 DUP3 DUP5 SUB SLT ISZERO PUSH2 0x653 JUMPI PUSH2 0x652 PUSH2 0x45B JUMP JUMPDEST JUMPDEST PUSH0 PUSH2 0x660 DUP5 DUP3 DUP6 ADD PUSH2 0x5BE JUMP JUMPDEST SWAP2 POP POP SWAP3 SWAP2 POP POP JUMP JUMPDEST PUSH0 DUP2 MLOAD SWAP1 POP SWAP2 SWAP1 POP JUMP JUMPDEST PUSH0 DUP3 DUP3 MSTORE PUSH1 0x20 DUP3 ADD SWAP1 POP SWAP3 SWAP2 POP POP JUMP JUMPDEST DUP3 DUP2 DUP4 MCOPY PUSH0 DUP4 DUP4 ADD MSTORE POP POP POP JUMP JUMPDEST PUSH0 PUSH2 0x69B DUP3 PUSH2 0x669 JUMP JUMPDEST PUSH2 0x6A5 DUP2 DUP6 PUSH2 0x673 JUMP JUMPDEST SWAP4 POP PUSH2 0x6B5 DUP2 DUP6 PUSH1 0x20 DUP7 ADD PUSH2 0x683 JUMP JUMPDEST PUSH2 0x6BE DUP2 PUSH2 0x46B JUMP JUMPDEST DUP5 ADD SWAP2 POP POP SWAP3 SWAP2 POP POP JUMP JUMPDEST PUSH2 0x6D2 DUP2 PUSH2 0x59F JUMP JUMPDEST DUP3 MSTORE POP POP JUMP JUMPDEST PUSH0 PUSH1 0x80 DUP3 ADD SWAP1 POP DUP2 DUP2 SUB PUSH0 DUP4 ADD MSTORE PUSH2 0x6F0 DUP2 DUP8 PUSH2 0x691 JUMP JUMPDEST SWAP1 POP PUSH2 0x6FF PUSH1 0x20 DUP4 ADD DUP7 PUSH2 0x6C9 JUMP JUMPDEST PUSH2 0x70C PUSH1 0x40 DUP4 ADD DUP6 PUSH2 0x6C9 JUMP JUMPDEST PUSH2 0x719 PUSH1 0x60 DUP4 ADD DUP5 PUSH2 0x6C9 JUMP JUMPDEST SWAP6 SWAP5 POP POP POP POP POP JUMP JUMPDEST PUSH32 0x4E487B7100000000000000000000000000000000000000000000000000000000 PUSH0 MSTORE PUSH1 0x11 PUSH1 0x4 MSTORE PUSH1 0x24 PUSH0 REVERT JUMPDEST PUSH0 PUSH2 0x759 DUP3 PUSH2 0x59F JUMP JUMPDEST SWAP2 POP PUSH32 0xFFFFFFFFFFFFFFFFFFFFFFFFFFFFFFFFFFFFFFFFFFFFFFFFFFFFFFFFFFFFFFFF DUP3 SUB PUSH2 0x78B JUMPI PUSH2 0x78A PUSH2 0x722 JUMP JUMPDEST JUMPDEST PUSH1 0x1 DUP3 ADD SWAP1 POP SWAP2 SWAP1 POP JUMP JUMPDEST PUSH0 PUSH2 0x7A0 DUP3 PUSH2 0x59F JUMP JUMPDEST SWAP2 POP PUSH2 0x7AB DUP4 PUSH2 0x59F JUMP JUMPDEST SWAP3 POP DUP3 DUP3 ADD SWAP1 POP DUP1 DUP3 GT ISZERO PUSH2 0x7C3 JUMPI PUSH2 0x7C2 PUSH2 0x722 JUMP JUMPDEST JUMPDEST SWAP3 SWAP2 POP POP JUMP JUMPDEST PUSH32 0x4E487B7100000000000000000000000000000000000000000000000000000000 PUSH0 MSTORE PUSH1 0x22 PUSH1 0x4 MSTORE PUSH1 0x24 PUSH0 REVERT JUMPDEST PUSH0 PUSH1 0x2 DUP3 DIV SWAP1 POP PUSH1 0x1 DUP3 AND DUP1 PUSH2 0x80D JUMPI PUSH1 0x7F DUP3 AND SWAP2 POP JUMPDEST PUSH1 0x20 DUP3 LT DUP2 SUB PUSH2 0x820 JUMPI PUSH2 0x81F PUSH2 0x7C9 JUMP JUMPDEST JUMPDEST POP SWAP2 SWAP1 POP JUMP JUMPDEST PUSH0 DUP2 SWAP1 POP DUP2 PUSH0 MSTORE PUSH1 0x20 PUSH0 KECCAK256 SWAP1 POP SWAP2 SWAP1 POP JUMP JUMPDEST PUSH0 PUSH1 0x20 PUSH1 0x1F DUP4 ADD DIV SWAP1 POP SWAP2 SWAP1 POP JUMP JUMPDEST PUSH0 DUP3 DUP3 SHL SWAP1 POP SWAP3 SWAP2 POP POP JUMP JUMPDEST PUSH0 PUSH1 0x8 DUP4 MUL PUSH2 0x882 PUSH32 0xFFFFFFFFFFFFFFFFFFFFFFFFFFFFFFFFFFFFFFFFFFFFFFFFFFFFFFFFFFFFFFFF DUP3 PUSH2 0x847 JUMP JUMPDEST PUSH2 0x88C DUP7 DUP4 PUSH2 0x847 JUMP JUMPDEST SWAP6 POP DUP1 NOT DUP5 AND SWAP4 POP DUP1 DUP7 AND DUP5 OR SWAP3 POP POP POP SWAP4 SWAP3 POP POP POP JUMP JUMPDEST PUSH0 DUP2 SWAP1 POP SWAP2 SWAP1 POP JUMP JUMPDEST PUSH0 PUSH2 0x8C7 PUSH2 0x8C2 PUSH2 0x8BD DUP5 PUSH2 0x59F JUMP JUMPDEST PUSH2 0x8A4 JUMP JUMPDEST PUSH2 0x59F JUMP JUMPDEST SWAP1 POP SWAP2 SWAP1 POP JUMP JUMPDEST PUSH0 DUP2 SWAP1 POP SWAP2 SWAP1 POP JUMP JUMPDEST PUSH2 0x8E0 DUP4 PUSH2 0x8AD JUMP JUMPDEST PUSH2 0x8F4 PUSH2 0x8EC DUP3 PUSH2 0x8CE JUMP JUMPDEST DUP5 DUP5 SLOAD PUSH2 0x853 JUMP JUMPDEST DUP3 SSTORE POP POP POP POP JUMP JUMPDEST PUSH0 PUSH0 SWAP1 POP SWAP1 JUMP JUMPDEST PUSH2 0x90B PUSH2 0x8FC JUMP JUMPDEST PUSH2 0x916 DUP2 DUP5 DUP5 PUSH2 0x8D7 JUMP JUMPDEST POP POP POP JUMP JUMPDEST PUSH0 JUMPDEST DUP3 DUP2 LT ISZERO PUSH2 0x93C JUMPI PUSH2 0x931 PUSH0 DUP3 DUP5 ADD PUSH2 0x903 JUMP JUMPDEST PUSH1 0x1 DUP2 ADD SWAP1 POP PUSH2 0x91D JUMP JUMPDEST POP POP POP JUMP JUMPDEST PUSH1 0x1F DUP3 GT ISZERO PUSH2 0x98F JUMPI DUP3 DUP3 GT ISZERO PUSH2 0x98E JUMPI PUSH2 0x95B DUP2 PUSH2 0x826 JUMP JUMPDEST PUSH2 0x964 DUP4 PUSH2 0x838 JUMP JUMPDEST PUSH2 0x96D DUP6 PUSH2 0x838 JUMP JUMPDEST PUSH1 0x20 DUP7 LT ISZERO PUSH2 0x97A JUMPI PUSH0 SWAP1 POP JUMPDEST DUP1 DUP4 ADD PUSH2 0x989 DUP3 DUP5 SUB DUP3 PUSH2 0x91B JUMP JUMPDEST POP POP POP POP JUMPDEST JUMPDEST POP POP POP JUMP JUMPDEST PUSH0 DUP3 DUP3 SHR SWAP1 POP SWAP3 SWAP2 POP POP JUMP JUMPDEST PUSH0 PUSH2 0x9AF PUSH0 NOT DUP5 PUSH1 0x8 MUL PUSH2 0x994 JUMP JUMPDEST NOT DUP1 DUP4 AND SWAP2 POP POP SWAP3 SWAP2 POP POP JUMP JUMPDEST PUSH0 PUSH2 0x9C7 DUP4 DUP4 PUSH2 0x9A0 JUMP JUMPDEST SWAP2 POP DUP3 PUSH1 0x2 MUL DUP3 OR SWAP1 POP SWAP3 SWAP2 POP POP JUMP JUMPDEST PUSH2 0x9E0 DUP3 PUSH2 0x669 JUMP JUMPDEST PUSH8 0xFFFFFFFFFFFFFFFF DUP2 GT ISZERO PUSH2 0x9F9 JUMPI PUSH2 0x9F8 PUSH2 0x47B JUMP JUMPDEST JUMPDEST PUSH2 0xA03 DUP3 SLOAD PUSH2 0x7F6 JUMP JUMPDEST PUSH2 0xA0E DUP3 DUP3 DUP6 PUSH2 0x941 JUMP JUMPDEST PUSH0 PUSH1 0x20 SWAP1 POP PUSH1 0x1F DUP4 GT PUSH1 0x1 DUP2 EQ PUSH2 0xA3F JUMPI PUSH0 DUP5 ISZERO PUSH2 0xA2D JUMPI DUP3 DUP8 ADD MLOAD SWAP1 POP JUMPDEST PUSH2 0xA37 DUP6 DUP3 PUSH2 0x9BC JUMP JUMPDEST DUP7 SSTORE POP PUSH2 0xA9E JUMP JUMPDEST PUSH1 0x1F NOT DUP5 AND PUSH2 0xA4D DUP7 PUSH2 0x826 JUMP JUMPDEST PUSH0 JUMPDEST DUP3 DUP2 LT ISZERO PUSH2 0xA74 JUMPI DUP5 DUP10 ADD MLOAD DUP3 SSTORE PUSH1 0x1 DUP3 ADD SWAP2 POP PUSH1 0x20 DUP6 ADD SWAP5 POP PUSH1 0x20 DUP2 ADD SWAP1 POP PUSH2 0xA4F JUMP JUMPDEST DUP7 DUP4 LT ISZERO PUSH2 0xA91 JUMPI DUP5 DUP10 ADD MLOAD PUSH2 0xA8D PUSH1 0x1F DUP10 AND DUP3 PUSH2 0x9A0 JUMP JUMPDEST DUP4 SSTORE POP JUMPDEST PUSH1 0x1 PUSH1 0x2 DUP9 MUL ADD DUP9 SSTORE POP POP POP JUMPDEST POP POP POP POP POP POP JUMP JUMPDEST PUSH0 PUSH2 0xAB0 DUP3 PUSH2 0x59F JUMP JUMPDEST SWAP2 POP PUSH2 0xABB DUP4 PUSH2 0x59F JUMP JUMPDEST SWAP3 POP DUP3 DUP3 MUL PUSH2 0xAC9 DUP2 PUSH2 0x59F JUMP JUMPDEST SWAP2 POP DUP3 DUP3 DIV DUP5 EQ DUP4 ISZERO OR PUSH2 0xAE0 JUMPI PUSH2 0xADF PUSH2 0x722 JUMP JUMPDEST JUMPDEST POP SWAP3 SWAP2 POP POP JUMP JUMPDEST PUSH32 0x4E487B7100000000000000000000000000000000000000000000000000000000 PUSH0 MSTORE PUSH1 0x12 PUSH1 0x4 MSTORE PUSH1 0x24 PUSH0 REVERT JUMPDEST PUSH0 PUSH2 0xB1E DUP3 PUSH2 0x59F JUMP JUMPDEST SWAP2 POP PUSH2 0xB29 DUP4 PUSH2 0x59F JUMP JUMPDEST SWAP3 POP DUP3 PUSH2 0xB39 JUMPI PUSH2 0xB38 PUSH2 0xAE7 JUMP JUMPDEST JUMPDEST DUP3 DUP3 DIV SWAP1 POP SWAP3 SWAP2 POP POP JUMP JUMPDEST PUSH0 PUSH2 0xB4E DUP3 PUSH2 0x59F JUMP JUMPDEST SWAP2 POP PUSH2 0xB59 DUP4 PUSH2 0x59F JUMP JUMPDEST SWAP3 POP DUP3 DUP3 SUB SWAP1 POP DUP2 DUP2 GT ISZERO PUSH2 0xB71 JUMPI PUSH2 0xB70 PUSH2 0x722 JUMP JUMPDEST JUMPDEST SWAP3 SWAP2 POP POP JUMP INVALID LOG2 PUSH5 0x6970667358 0x22 SLT KECCAK256 PUSH10 0xFAE6DCDF940AD0EBE288 BALANCE MCOPY 0x28 DUP5 0xE8 PUSH13 0x58A9F0F4CE5C54E1887A74A1F2 0x2D DUP15 PUSH5 0x736F6C6343 STOP ADDMOD 0x22 STOP CALLER "
		},
		"gasEstimates": {
			"creation": {
				"codeDepositCost": "597800",
				"executionCost": "630",
				"totalCost": "598430"
			},
			"external": {
				"deduction(uint256)": "infinite",
				"getDetails(uint256)": "infinite",
				"setSalary(string,uint256,uint256)": "infinite"
			}
		},
		"methodIdentifiers": {
			"deduction(uint256)": "4ffbf16b",
			"getDetails(uint256)": "b93a89f7",
			"setSalary(string,uint256,uint256)": "3abfcc1a"
		}
	},
	"abi": [
		{
			"inputs": [
				{
					"internalType": "uint256",
					"name": "_id",
					"type": "uint256"
				}
			],
			"name": "deduction",
			"outputs": [],
			"stateMutability": "nonpayable",
			"type": "function"
		},
		{
			"inputs": [
				{
					"internalType": "uint256",
					"name": "_id",
					"type": "uint256"
				}
			],
			"name": "getDetails",
			"outputs": [
				{
					"internalType": "string",
					"name": "",
					"type": "string"
				},
				{
					"internalType": "uint256",
					"name": "",
					"type": "uint256"
				},
				{
					"internalType": "uint256",
					"name": "",
					"type": "uint256"
				},
				{
					"internalType": "uint256",
					"name": "",
					"type": "uint256"
				}
			],
			"stateMutability": "view",
			"type": "function"
		},
		{
			"inputs": [
				{
					"internalType": "string",
					"name": "_name",
					"type": "string"
				},
				{
					"internalType": "uint256",
					"name": "_salary",
					"type": "uint256"
				},
				{
					"internalType": "uint256",
					"name": "increment",
					"type": "uint256"
				}
			],
			"name": "setSalary",
			"outputs": [],
			"stateMutability": "nonpayable",
			"type": "function"
		}
	]
}