{
	"data": {
		"bytecode": {
			"linkReferences": {},
			"object": "608060405234801561001057600080fd5b50610414806100206000396000f3fe608060405234801561001057600080fd5b50600436106100415760003560e01c80631924bdea14610046578063677ffa2f14610062578063d6238b491461007e575b600080fd5b610060600480360381019061005b91906101ba565b61009c565b005b61007c600480360381019061007791906101ba565b6100fa565b005b61008661019f565b60405161009391906102d8565b60405180910390f35b600081116100df576040517f08c379a00000000000000000000000000000000000000000000000000000000081526004016100d6906102b8565b60405180910390fd5b806000808282546100f09190610304565b9250508190555050565b60008054108061010b575080600054105b1561014b576040517f08c379a000000000000000000000000000000000000000000000000000000000815260040161014290610298565b60405180910390fd5b8060008082825461015c919061035a565b9250508190555060008054101561019c577f4e487b7100000000000000000000000000000000000000000000000000000000600052600160045260246000fd5b50565b60005481565b6000813590506101b4816103c7565b92915050565b6000602082840312156101cc57600080fd5b60006101da848285016101a5565b91505092915050565b60006101f06024836102f3565b91507f4d6f7265206f72206c657373204974656d73207468616e20696e20696e76656e60008301527f746f7279000000000000000000000000000000000000000000000000000000006020830152604082019050919050565b60006102566012836102f3565b91507f496e73756666696369656e74204974656d7300000000000000000000000000006000830152602082019050919050565b6102928161038e565b82525050565b600060208201905081810360008301526102b1816101e3565b9050919050565b600060208201905081810360008301526102d181610249565b9050919050565b60006020820190506102ed6000830184610289565b92915050565b600082825260208201905092915050565b600061030f8261038e565b915061031a8361038e565b9250827fffffffffffffffffffffffffffffffffffffffffffffffffffffffffffffffff0382111561034f5761034e610398565b5b828201905092915050565b60006103658261038e565b91506103708361038e565b92508282101561038357610382610398565b5b828203905092915050565b6000819050919050565b7f4e487b7100000000000000000000000000000000000000000000000000000000600052601160045260246000fd5b6103d08161038e565b81146103db57600080fd5b5056fea264697066735822122029173e6b9b7bd5bbc0fde0ce73badb7918c24445f4592e1736f1af2b34a23f4964736f6c63430008000033",
			"opcodes": "PUSH1 0x80 PUSH1 0x40 MSTORE CALLVALUE DUP1 ISZERO PUSH2 0x10 JUMPI PUSH1 0x0 DUP1 REVERT JUMPDEST POP PUSH2 0x414 DUP1 PUSH2 0x20 PUSH1 0x0 CODECOPY PUSH1 0x0 RETURN INVALID PUSH1 0x80 PUSH1 0x40 MSTORE CALLVALUE DUP1 ISZERO PUSH2 0x10 JUMPI PUSH1 0x0 DUP1 REVERT JUMPDEST POP PUSH1 0x4 CALLDATASIZE LT PUSH2 0x41 JUMPI PUSH1 0x0 CALLDATALOAD PUSH1 0xE0 SHR DUP1 PUSH4 0x1924BDEA EQ PUSH2 0x46 JUMPI DUP1 PUSH4 0x677FFA2F EQ PUSH2 0x62 JUMPI DUP1 PUSH4 0xD6238B49 EQ PUSH2 0x7E JUMPI JUMPDEST PUSH1 0x0 DUP1 REVERT JUMPDEST PUSH2 0x60 PUSH1 0x4 DUP1 CALLDATASIZE SUB DUP2 ADD SWAP1 PUSH2 0x5B SWAP2 SWAP1 PUSH2 0x1BA JUMP JUMPDEST PUSH2 0x9C JUMP JUMPDEST STOP JUMPDEST PUSH2 0x7C PUSH1 0x4 DUP1 CALLDATASIZE SUB DUP2 ADD SWAP1 PUSH2 0x77 SWAP2 SWAP1 PUSH2 0x1BA JUMP JUMPDEST PUSH2 0xFA JUMP JUMPDEST STOP JUMPDEST PUSH2 0x86 PUSH2 0x19F JUMP JUMPDEST PUSH1 0x40 MLOAD PUSH2 0x93 SWAP2 SWAP1 PUSH2 0x2D8 JUMP JUMPDEST PUSH1 0x40 MLOAD DUP1 SWAP2 SUB SWAP1 RETURN JUMPDEST PUSH1 0x0 DUP2 GT PUSH2 0xDF JUMPI PUSH1 0x40 MLOAD PUSH32 0x8C379A000000000000000000000000000000000000000000000000000000000 DUP2 MSTORE PUSH1 0x4 ADD PUSH2 0xD6 SWAP1 PUSH2 0x2B8 JUMP JUMPDEST PUSH1 0x40 MLOAD DUP1 SWAP2 SUB SWAP1 REVERT JUMPDEST DUP1 PUSH1 0x0 DUP1 DUP3 DUP3 SLOAD PUSH2 0xF0 SWAP2 SWAP1 PUSH2 0x304 JUMP JUMPDEST SWAP3 POP POP DUP2 SWAP1 SSTORE POP POP JUMP JUMPDEST PUSH1 0x0 DUP1 SLOAD LT DUP1 PUSH2 0x10B JUMPI POP DUP1 PUSH1 0x0 SLOAD LT JUMPDEST ISZERO PUSH2 0x14B JUMPI PUSH1 0x40 MLOAD PUSH32 0x8C379A000000000000000000000000000000000000000000000000000000000 DUP2 MSTORE PUSH1 0x4 ADD PUSH2 0x142 SWAP1 PUSH2 0x298 JUMP JUMPDEST PUSH1 0x40 MLOAD DUP1 SWAP2 SUB SWAP1 REVERT JUMPDEST DUP1 PUSH1 0x0 DUP1 DUP3 DUP3 SLOAD PUSH2 0x15C SWAP2 SWAP1 PUSH2 0x35A JUMP JUMPDEST SWAP3 POP POP DUP2 SWAP1 SSTORE POP PUSH1 0x0 DUP1 SLOAD LT ISZERO PUSH2 0x19C JUMPI PUSH32 0x4E487B7100000000000000000000000000000000000000000000000000000000 PUSH1 0x0 MSTORE PUSH1 0x1 PUSH1 0x4 MSTORE PUSH1 0x24 PUSH1 0x0 REVERT JUMPDEST POP JUMP JUMPDEST PUSH1 0x0 SLOAD DUP2 JUMP JUMPDEST PUSH1 0x0 DUP2 CALLDATALOAD SWAP1 POP PUSH2 0x1B4 DUP2 PUSH2 0x3C7 JUMP JUMPDEST SWAP3 SWAP2 POP POP JUMP JUMPDEST PUSH1 0x0 PUSH1 0x20 DUP3 DUP5 SUB SLT ISZERO PUSH2 0x1CC JUMPI PUSH1 0x0 DUP1 REVERT JUMPDEST PUSH1 0x0 PUSH2 0x1DA DUP5 DUP3 DUP6 ADD PUSH2 0x1A5 JUMP JUMPDEST SWAP2 POP POP SWAP3 SWAP2 POP POP JUMP JUMPDEST PUSH1 0x0 PUSH2 0x1F0 PUSH1 0x24 DUP4 PUSH2 0x2F3 JUMP JUMPDEST SWAP2 POP PUSH32 0x4D6F7265206F72206C657373204974656D73207468616E20696E20696E76656E PUSH1 0x0 DUP4 ADD MSTORE PUSH32 0x746F727900000000000000000000000000000000000000000000000000000000 PUSH1 0x20 DUP4 ADD MSTORE PUSH1 0x40 DUP3 ADD SWAP1 POP SWAP2 SWAP1 POP JUMP JUMPDEST PUSH1 0x0 PUSH2 0x256 PUSH1 0x12 DUP4 PUSH2 0x2F3 JUMP JUMPDEST SWAP2 POP PUSH32 0x496E73756666696369656E74204974656D730000000000000000000000000000 PUSH1 0x0 DUP4 ADD MSTORE PUSH1 0x20 DUP3 ADD SWAP1 POP SWAP2 SWAP1 POP JUMP JUMPDEST PUSH2 0x292 DUP2 PUSH2 0x38E JUMP JUMPDEST DUP3 MSTORE POP POP JUMP JUMPDEST PUSH1 0x0 PUSH1 0x20 DUP3 ADD SWAP1 POP DUP2 DUP2 SUB PUSH1 0x0 DUP4 ADD MSTORE PUSH2 0x2B1 DUP2 PUSH2 0x1E3 JUMP JUMPDEST SWAP1 POP SWAP2 SWAP1 POP JUMP JUMPDEST PUSH1 0x0 PUSH1 0x20 DUP3 ADD SWAP1 POP DUP2 DUP2 SUB PUSH1 0x0 DUP4 ADD MSTORE PUSH2 0x2D1 DUP2 PUSH2 0x249 JUMP JUMPDEST SWAP1 POP SWAP2 SWAP1 POP JUMP JUMPDEST PUSH1 0x0 PUSH1 0x20 DUP3 ADD SWAP1 POP PUSH2 0x2ED PUSH1 0x0 DUP4 ADD DUP5 PUSH2 0x289 JUMP JUMPDEST SWAP3 SWAP2 POP POP JUMP JUMPDEST PUSH1 0x0 DUP3 DUP3 MSTORE PUSH1 0x20 DUP3 ADD SWAP1 POP SWAP3 SWAP2 POP POP JUMP JUMPDEST PUSH1 0x0 PUSH2 0x30F DUP3 PUSH2 0x38E JUMP JUMPDEST SWAP2 POP PUSH2 0x31A DUP4 PUSH2 0x38E JUMP JUMPDEST SWAP3 POP DUP3 PUSH32 0xFFFFFFFFFFFFFFFFFFFFFFFFFFFFFFFFFFFFFFFFFFFFFFFFFFFFFFFFFFFFFFFF SUB DUP3 GT ISZERO PUSH2 0x34F JUMPI PUSH2 0x34E PUSH2 0x398 JUMP JUMPDEST JUMPDEST DUP3 DUP3 ADD SWAP1 POP SWAP3 SWAP2 POP POP JUMP JUMPDEST PUSH1 0x0 PUSH2 0x365 DUP3 PUSH2 0x38E JUMP JUMPDEST SWAP2 POP PUSH2 0x370 DUP4 PUSH2 0x38E JUMP JUMPDEST SWAP3 POP DUP3 DUP3 LT ISZERO PUSH2 0x383 JUMPI PUSH2 0x382 PUSH2 0x398 JUMP JUMPDEST JUMPDEST DUP3 DUP3 SUB SWAP1 POP SWAP3 SWAP2 POP POP JUMP JUMPDEST PUSH1 0x0 DUP2 SWAP1 POP SWAP2 SWAP1 POP JUMP JUMPDEST PUSH32 0x4E487B7100000000000000000000000000000000000000000000000000000000 PUSH1 0x0 MSTORE PUSH1 0x11 PUSH1 0x4 MSTORE PUSH1 0x24 PUSH1 0x0 REVERT JUMPDEST PUSH2 0x3D0 DUP2 PUSH2 0x38E JUMP JUMPDEST DUP2 EQ PUSH2 0x3DB JUMPI PUSH1 0x0 DUP1 REVERT JUMPDEST POP JUMP INVALID LOG2 PUSH5 0x6970667358 0x22 SLT KECCAK256 0x29 OR RETURNDATACOPY PUSH12 0x9B7BD5BBC0FDE0CE73BADB79 XOR 0xC2 DIFFICULTY GASLIMIT DELEGATECALL MSIZE 0x2E OR CALLDATASIZE CALL 0xAF 0x2B CALLVALUE LOG2 EXTCODEHASH 0x49 PUSH5 0x736F6C6343 STOP ADDMOD STOP STOP CALLER "
		},
		"gasEstimates": {
			"creation": {
				"codeDepositCost": "208800",
				"executionCost": "251",
				"totalCost": "209051"
			},
			"external": {
				"AddStock(uint256)": "infinite",
				"RemoveItems(uint256)": "infinite",
				"Total_available_items()": "1151"
			}
		},
		"methodIdentifiers": {
			"AddStock(uint256)": "1924bdea",
			"RemoveItems(uint256)": "677ffa2f",
			"Total_available_items()": "d6238b49"
		}
	},
	"abi": [
		{
			"inputs": [
				{
					"internalType": "uint256",
					"name": "items",
					"type": "uint256"
				}
			],
			"name": "AddStock",
			"outputs": [],
			"stateMutability": "nonpayable",
			"type": "function"
		},
		{
			"inputs": [
				{
					"internalType": "uint256",
					"name": "items",
					"type": "uint256"
				}
			],
			"name": "RemoveItems",
			"outputs": [],
			"stateMutability": "nonpayable",
			"type": "function"
		},
		{
			"inputs": [],
			"name": "Total_available_items",
			"outputs": [
				{
					"internalType": "uint256",
					"name": "",
					"type": "uint256"
				}
			],
			"stateMutability": "view",
			"type": "function"
		}
	]
}