{
	"data": {
		"bytecode": {
			"linkReferences": {},
			"object": "60806040526040518061028001604052806040518060400160405280600481526020017f5a65726f0000000000000000000000000000000000000000000000000000000081525081526020016040518060400160405280600381526020017f4f6e65000000000000000000000000000000000000000000000000000000000081525081526020016040518060400160405280600381526020017f54776f000000000000000000000000000000000000000000000000000000000081525081526020016040518060400160405280600581526020017f546872656500000000000000000000000000000000000000000000000000000081525081526020016040518060400160405280600481526020017f466f75720000000000000000000000000000000000000000000000000000000081525081526020016040518060400160405280600481526020017f466976650000000000000000000000000000000000000000000000000000000081525081526020016040518060400160405280600381526020017f536978000000000000000000000000000000000000000000000000000000000081525081526020016040518060400160405280600581526020017f536576656e00000000000000000000000000000000000000000000000000000081525081526020016040518060400160405280600581526020017f456967687400000000000000000000000000000000000000000000000000000081525081526020016040518060400160405280600481526020017f4e696e650000000000000000000000000000000000000000000000000000000081525081526020016040518060400160405280600381526020017f54656e000000000000000000000000000000000000000000000000000000000081525081526020016040518060400160405280600681526020017f456c6576656e000000000000000000000000000000000000000000000000000081525081526020016040518060400160405280600681526020017f5477656c7665000000000000000000000000000000000000000000000000000081525081526020016040518060400160405280600881526020017f546869727465656e00000000000000000000000000000000000000000000000081525081526020016040518060400160405280600881526020017f466f75727465656e00000000000000000000000000000000000000000000000081525081526020016040518060400160405280600781526020017f4669667465656e0000000000000000000000000000000000000000000000000081525081526020016040518060400160405280600781526020017f5369787465656e0000000000000000000000000000000000000000000000000081525081526020016040518060400160405280600981526020017f536576656e7465656e000000000000000000000000000000000000000000000081525081526020016040518060400160405280600881526020017f456967687465656e00000000000000000000000000000000000000000000000081525081526020016040518060400160405280600881526020017f4e696e657465656e0000000000000000000000000000000000000000000000008152508152506000906014620004bc929190620006f0565b506040518061014001604052806040518060200160405280600081525081526020016040518060200160405280600081525081526020016040518060400160405280600681526020017f5477656e7479000000000000000000000000000000000000000000000000000081525081526020016040518060400160405280600681526020017f546869727479000000000000000000000000000000000000000000000000000081525081526020016040518060400160405280600581526020017f466f72747900000000000000000000000000000000000000000000000000000081525081526020016040518060400160405280600581526020017f466966747900000000000000000000000000000000000000000000000000000081525081526020016040518060400160405280600581526020017f536978747900000000000000000000000000000000000000000000000000000081525081526020016040518060400160405280600781526020017f536576656e74790000000000000000000000000000000000000000000000000081525081526020016040518060400160405280600681526020017f456967687479000000000000000000000000000000000000000000000000000081525081526020016040518060400160405280600681526020017f4e696e6574790000000000000000000000000000000000000000000000000000815250815250601490600a620006db9291906200074a565b50348015620006e957600080fd5b5062000927565b826014810192821562000737579160200282015b828111156200073657825182908051906020019062000725929190620007a4565b509160200191906001019062000704565b5b50905062000746919062000835565b5090565b82600a810192821562000791579160200282015b82811115620007905782518290805190602001906200077f929190620007a4565b50916020019190600101906200075e565b5b509050620007a0919062000835565b5090565b828054620007b290620008c2565b90600052602060002090601f016020900481019282620007d6576000855562000822565b82601f10620007f157805160ff191683800117855562000822565b8280016001018555821562000822579182015b828111156200082157825182559160200191906001019062000804565b5b5090506200083191906200085d565b5090565b5b808211156200085957600081816200084f91906200087c565b5060010162000836565b5090565b5b80821115620008785760008160009055506001016200085e565b5090565b5080546200088a90620008c2565b6000825580601f106200089e5750620008bf565b601f016020900490600052602060002090810190620008be91906200085d565b5b50565b60006002820490506001821680620008db57607f821691505b60208210811415620008f257620008f1620008f8565b5b50919050565b7f4e487b7100000000000000000000000000000000000000000000000000000000600052602260045260246000fd5b6106dc80620009376000396000f3fe608060405234801561001057600080fd5b506004361061002a5760003560e01c80628a61b81461002f575b600080fd5b61004960048036038101906100449190610298565b61005f565b60405161005691906104d1565b60405180910390f35b606060648211156100a5576040517f08c379a000000000000000000000000000000000000000000000000000000000815260040161009c906104f3565b60405180910390fd5b601482101561010f57600082601481106100e8577f4e487b7100000000000000000000000000000000000000000000000000000000600052603260045260246000fd5b016040516020016100f991906104a4565b604051602081830303815290604052905061027e565b6064821415610155576040518060400160405280600b81526020017f4f6e652048756e64726564000000000000000000000000000000000000000000815250905061027e565b6000600a83610164919061054f565b90506000600a8461017591906105ef565b905060008114156101e357601482600a81106101ba577f4e487b7100000000000000000000000000000000000000000000000000000000600052603260045260246000fd5b016040516020016101cb91906104a4565b6040516020818303038152906040529250505061027e565b601482600a811061021d577f4e487b7100000000000000000000000000000000000000000000000000000000600052603260045260246000fd5b0160008260148110610258577f4e487b7100000000000000000000000000000000000000000000000000000000600052603260045260246000fd5b0160405160200161026a92919061045f565b604051602081830303815290604052925050505b919050565b6000813590506102928161068f565b92915050565b6000602082840312156102aa57600080fd5b60006102b884828501610283565b91505092915050565b60006102cc82610528565b6102d68185610533565b93506102e681856020860161058a565b6102ef8161067e565b840191505092915050565b60008154610307816105bd565b6103118186610544565b9450600182166000811461032c576001811461033d57610370565b60ff19831686528186019350610370565b61034685610513565b60005b8381101561036857815481890152600182019150602081019050610349565b838801955050505b50505092915050565b6000610386600183610544565b91507f20000000000000000000000000000000000000000000000000000000000000006000830152600182019050919050565b60006103c6602283610533565b91507f4f6e6c79206e756d626572732066726f6d203020746f2031303020616c6c6f7760008301527f65640000000000000000000000000000000000000000000000000000000000006020830152604082019050919050565b600061042c600683610544565b91507f52757065657300000000000000000000000000000000000000000000000000006000830152600682019050919050565b600061046b82856102fa565b915061047682610379565b915061048282846102fa565b915061048d82610379565b91506104988261041f565b91508190509392505050565b60006104b082846102fa565b91506104bb82610379565b91506104c68261041f565b915081905092915050565b600060208201905081810360008301526104eb81846102c1565b905092915050565b6000602082019050818103600083015261050c816103b9565b9050919050565b60008190508160005260206000209050919050565b600081519050919050565b600082825260208201905092915050565b600081905092915050565b600061055a82610580565b915061056583610580565b92508261057557610574610620565b5b828204905092915050565b6000819050919050565b60005b838110156105a857808201518184015260208101905061058d565b838111156105b7576000848401525b50505050565b600060028204905060018216806105d557607f821691505b602082108114156105e9576105e861064f565b5b50919050565b60006105fa82610580565b915061060583610580565b92508261061557610614610620565b5b828206905092915050565b7f4e487b7100000000000000000000000000000000000000000000000000000000600052601260045260246000fd5b7f4e487b7100000000000000000000000000000000000000000000000000000000600052602260045260246000fd5b6000601f19601f8301169050919050565b61069881610580565b81146106a357600080fd5b5056fea26469706673582212209fbe2f64070db296a2c54ceb467859e62c39b5c1606e8e46280700cb06f4455364736f6c63430008000033",
			"opcodes": "PUSH1 0x80 PUSH1 0x40 MSTORE PUSH1 0x40 MLOAD DUP1 PUSH2 0x280 ADD PUSH1 0x40 MSTORE DUP1 PUSH1 0x40 MLOAD DUP1 PUSH1 0x40 ADD PUSH1 0x40 MSTORE DUP1 PUSH1 0x4 DUP2 MSTORE PUSH1 0x20 ADD PUSH32 0x5A65726F00000000000000000000000000000000000000000000000000000000 DUP2 MSTORE POP DUP2 MSTORE PUSH1 0x20 ADD PUSH1 0x40 MLOAD DUP1 PUSH1 0x40 ADD PUSH1 0x40 MSTORE DUP1 PUSH1 0x3 DUP2 MSTORE PUSH1 0x20 ADD PUSH32 0x4F6E650000000000000000000000000000000000000000000000000000000000 DUP2 MSTORE POP DUP2 MSTORE PUSH1 0x20 ADD PUSH1 0x40 MLOAD DUP1 PUSH1 0x40 ADD PUSH1 0x40 MSTORE DUP1 PUSH1 0x3 DUP2 MSTORE PUSH1 0x20 ADD PUSH32 0x54776F0000000000000000000000000000000000000000000000000000000000 DUP2 MSTORE POP DUP2 MSTORE PUSH1 0x20 ADD PUSH1 0x40 MLOAD DUP1 PUSH1 0x40 ADD PUSH1 0x40 MSTORE DUP1 PUSH1 0x5 DUP2 MSTORE PUSH1 0x20 ADD PUSH32 0x5468726565000000000000000000000000000000000000000000000000000000 DUP2 MSTORE POP DUP2 MSTORE PUSH1 0x20 ADD PUSH1 0x40 MLOAD DUP1 PUSH1 0x40 ADD PUSH1 0x40 MSTORE DUP1 PUSH1 0x4 DUP2 MSTORE PUSH1 0x20 ADD PUSH32 0x466F757200000000000000000000000000000000000000000000000000000000 DUP2 MSTORE POP DUP2 MSTORE PUSH1 0x20 ADD PUSH1 0x40 MLOAD DUP1 PUSH1 0x40 ADD PUSH1 0x40 MSTORE DUP1 PUSH1 0x4 DUP2 MSTORE PUSH1 0x20 ADD PUSH32 0x4669766500000000000000000000000000000000000000000000000000000000 DUP2 MSTORE POP DUP2 MSTORE PUSH1 0x20 ADD PUSH1 0x40 MLOAD DUP1 PUSH1 0x40 ADD PUSH1 0x40 MSTORE DUP1 PUSH1 0x3 DUP2 MSTORE PUSH1 0x20 ADD PUSH32 0x5369780000000000000000000000000000000000000000000000000000000000 DUP2 MSTORE POP DUP2 MSTORE PUSH1 0x20 ADD PUSH1 0x40 MLOAD DUP1 PUSH1 0x40 ADD PUSH1 0x40 MSTORE DUP1 PUSH1 0x5 DUP2 MSTORE PUSH1 0x20 ADD PUSH32 0x536576656E000000000000000000000000000000000000000000000000000000 DUP2 MSTORE POP DUP2 MSTORE PUSH1 0x20 ADD PUSH1 0x40 MLOAD DUP1 PUSH1 0x40 ADD PUSH1 0x40 MSTORE DUP1 PUSH1 0x5 DUP2 MSTORE PUSH1 0x20 ADD PUSH32 0x4569676874000000000000000000000000000000000000000000000000000000 DUP2 MSTORE POP DUP2 MSTORE PUSH1 0x20 ADD PUSH1 0x40 MLOAD DUP1 PUSH1 0x40 ADD PUSH1 0x40 MSTORE DUP1 PUSH1 0x4 DUP2 MSTORE PUSH1 0x20 ADD PUSH32 0x4E696E6500000000000000000000000000000000000000000000000000000000 DUP2 MSTORE POP DUP2 MSTORE PUSH1 0x20 ADD PUSH1 0x40 MLOAD DUP1 PUSH1 0x40 ADD PUSH1 0x40 MSTORE DUP1 PUSH1 0x3 DUP2 MSTORE PUSH1 0x20 ADD PUSH32 0x54656E0000000000000000000000000000000000000000000000000000000000 DUP2 MSTORE POP DUP2 MSTORE PUSH1 0x20 ADD PUSH1 0x40 MLOAD DUP1 PUSH1 0x40 ADD PUSH1 0x40 MSTORE DUP1 PUSH1 0x6 DUP2 MSTORE PUSH1 0x20 ADD PUSH32 0x456C6576656E0000000000000000000000000000000000000000000000000000 DUP2 MSTORE POP DUP2 MSTORE PUSH1 0x20 ADD PUSH1 0x40 MLOAD DUP1 PUSH1 0x40 ADD PUSH1 0x40 MSTORE DUP1 PUSH1 0x6 DUP2 MSTORE PUSH1 0x20 ADD PUSH32 0x5477656C76650000000000000000000000000000000000000000000000000000 DUP2 MSTORE POP DUP2 MSTORE PUSH1 0x20 ADD PUSH1 0x40 MLOAD DUP1 PUSH1 0x40 ADD PUSH1 0x40 MSTORE DUP1 PUSH1 0x8 DUP2 MSTORE PUSH1 0x20 ADD PUSH32 0x546869727465656E000000000000000000000000000000000000000000000000 DUP2 MSTORE POP DUP2 MSTORE PUSH1 0x20 ADD PUSH1 0x40 MLOAD DUP1 PUSH1 0x40 ADD PUSH1 0x40 MSTORE DUP1 PUSH1 0x8 DUP2 MSTORE PUSH1 0x20 ADD PUSH32 0x466F75727465656E000000000000000000000000000000000000000000000000 DUP2 MSTORE POP DUP2 MSTORE PUSH1 0x20 ADD PUSH1 0x40 MLOAD DUP1 PUSH1 0x40 ADD PUSH1 0x40 MSTORE DUP1 PUSH1 0x7 DUP2 MSTORE PUSH1 0x20 ADD PUSH32 0x4669667465656E00000000000000000000000000000000000000000000000000 DUP2 MSTORE POP DUP2 MSTORE PUSH1 0x20 ADD PUSH1 0x40 MLOAD DUP1 PUSH1 0x40 ADD PUSH1 0x40 MSTORE DUP1 PUSH1 0x7 DUP2 MSTORE PUSH1 0x20 ADD PUSH32 0x5369787465656E00000000000000000000000000000000000000000000000000 DUP2 MSTORE POP DUP2 MSTORE PUSH1 0x20 ADD PUSH1 0x40 MLOAD DUP1 PUSH1 0x40 ADD PUSH1 0x40 MSTORE DUP1 PUSH1 0x9 DUP2 MSTORE PUSH1 0x20 ADD PUSH32 0x536576656E7465656E0000000000000000000000000000000000000000000000 DUP2 MSTORE POP DUP2 MSTORE PUSH1 0x20 ADD PUSH1 0x40 MLOAD DUP1 PUSH1 0x40 ADD PUSH1 0x40 MSTORE DUP1 PUSH1 0x8 DUP2 MSTORE PUSH1 0x20 ADD PUSH32 0x456967687465656E000000000000000000000000000000000000000000000000 DUP2 MSTORE POP DUP2 MSTORE PUSH1 0x20 ADD PUSH1 0x40 MLOAD DUP1 PUSH1 0x40 ADD PUSH1 0x40 MSTORE DUP1 PUSH1 0x8 DUP2 MSTORE PUSH1 0x20 ADD PUSH32 0x4E696E657465656E000000000000000000000000000000000000000000000000 DUP2 MSTORE POP DUP2 MSTORE POP PUSH1 0x0 SWAP1 PUSH1 0x14 PUSH3 0x4BC SWAP3 SWAP2 SWAP1 PUSH3 0x6F0 JUMP JUMPDEST POP PUSH1 0x40 MLOAD DUP1 PUSH2 0x140 ADD PUSH1 0x40 MSTORE DUP1 PUSH1 0x40 MLOAD DUP1 PUSH1 0x20 ADD PUSH1 0x40 MSTORE DUP1 PUSH1 0x0 DUP2 MSTORE POP DUP2 MSTORE PUSH1 0x20 ADD PUSH1 0x40 MLOAD DUP1 PUSH1 0x20 ADD PUSH1 0x40 MSTORE DUP1 PUSH1 0x0 DUP2 MSTORE POP DUP2 MSTORE PUSH1 0x20 ADD PUSH1 0x40 MLOAD DUP1 PUSH1 0x40 ADD PUSH1 0x40 MSTORE DUP1 PUSH1 0x6 DUP2 MSTORE PUSH1 0x20 ADD PUSH32 0x5477656E74790000000000000000000000000000000000000000000000000000 DUP2 MSTORE POP DUP2 MSTORE PUSH1 0x20 ADD PUSH1 0x40 MLOAD DUP1 PUSH1 0x40 ADD PUSH1 0x40 MSTORE DUP1 PUSH1 0x6 DUP2 MSTORE PUSH1 0x20 ADD PUSH32 0x5468697274790000000000000000000000000000000000000000000000000000 DUP2 MSTORE POP DUP2 MSTORE PUSH1 0x20 ADD PUSH1 0x40 MLOAD DUP1 PUSH1 0x40 ADD PUSH1 0x40 MSTORE DUP1 PUSH1 0x5 DUP2 MSTORE PUSH1 0x20 ADD PUSH32 0x466F727479000000000000000000000000000000000000000000000000000000 DUP2 MSTORE POP DUP2 MSTORE PUSH1 0x20 ADD PUSH1 0x40 MLOAD DUP1 PUSH1 0x40 ADD PUSH1 0x40 MSTORE DUP1 PUSH1 0x5 DUP2 MSTORE PUSH1 0x20 ADD PUSH32 0x4669667479000000000000000000000000000000000000000000000000000000 DUP2 MSTORE POP DUP2 MSTORE PUSH1 0x20 ADD PUSH1 0x40 MLOAD DUP1 PUSH1 0x40 ADD PUSH1 0x40 MSTORE DUP1 PUSH1 0x5 DUP2 MSTORE PUSH1 0x20 ADD PUSH32 0x5369787479000000000000000000000000000000000000000000000000000000 DUP2 MSTORE POP DUP2 MSTORE PUSH1 0x20 ADD PUSH1 0x40 MLOAD DUP1 PUSH1 0x40 ADD PUSH1 0x40 MSTORE DUP1 PUSH1 0x7 DUP2 MSTORE PUSH1 0x20 ADD PUSH32 0x536576656E747900000000000000000000000000000000000000000000000000 DUP2 MSTORE POP DUP2 MSTORE PUSH1 0x20 ADD PUSH1 0x40 MLOAD DUP1 PUSH1 0x40 ADD PUSH1 0x40 MSTORE DUP1 PUSH1 0x6 DUP2 MSTORE PUSH1 0x20 ADD PUSH32 0x4569676874790000000000000000000000000000000000000000000000000000 DUP2 MSTORE POP DUP2 MSTORE PUSH1 0x20 ADD PUSH1 0x40 MLOAD DUP1 PUSH1 0x40 ADD PUSH1 0x40 MSTORE DUP1 PUSH1 0x6 DUP2 MSTORE PUSH1 0x20 ADD PUSH32 0x4E696E6574790000000000000000000000000000000000000000000000000000 DUP2 MSTORE POP DUP2 MSTORE POP PUSH1 0x14 SWAP1 PUSH1 0xA PUSH3 0x6DB SWAP3 SWAP2 SWAP1 PUSH3 0x74A JUMP JUMPDEST POP CALLVALUE DUP1 ISZERO PUSH3 0x6E9 JUMPI PUSH1 0x0 DUP1 REVERT JUMPDEST POP PUSH3 0x927 JUMP JUMPDEST DUP3 PUSH1 0x14 DUP2 ADD SWAP3 DUP3 ISZERO PUSH3 0x737 JUMPI SWAP2 PUSH1 0x20 MUL DUP3 ADD JUMPDEST DUP3 DUP2 GT ISZERO PUSH3 0x736 JUMPI DUP3 MLOAD DUP3 SWAP1 DUP1 MLOAD SWAP1 PUSH1 0x20 ADD SWAP1 PUSH3 0x725 SWAP3 SWAP2 SWAP1 PUSH3 0x7A4 JUMP JUMPDEST POP SWAP2 PUSH1 0x20 ADD SWAP2 SWAP1 PUSH1 0x1 ADD SWAP1 PUSH3 0x704 JUMP JUMPDEST JUMPDEST POP SWAP1 POP PUSH3 0x746 SWAP2 SWAP1 PUSH3 0x835 JUMP JUMPDEST POP SWAP1 JUMP JUMPDEST DUP3 PUSH1 0xA DUP2 ADD SWAP3 DUP3 ISZERO PUSH3 0x791 JUMPI SWAP2 PUSH1 0x20 MUL DUP3 ADD JUMPDEST DUP3 DUP2 GT ISZERO PUSH3 0x790 JUMPI DUP3 MLOAD DUP3 SWAP1 DUP1 MLOAD SWAP1 PUSH1 0x20 ADD SWAP1 PUSH3 0x77F SWAP3 SWAP2 SWAP1 PUSH3 0x7A4 JUMP JUMPDEST POP SWAP2 PUSH1 0x20 ADD SWAP2 SWAP1 PUSH1 0x1 ADD SWAP1 PUSH3 0x75E JUMP JUMPDEST JUMPDEST POP SWAP1 POP PUSH3 0x7A0 SWAP2 SWAP1 PUSH3 0x835 JUMP JUMPDEST POP SWAP1 JUMP JUMPDEST DUP3 DUP1 SLOAD PUSH3 0x7B2 SWAP1 PUSH3 0x8C2 JUMP JUMPDEST SWAP1 PUSH1 0x0 MSTORE PUSH1 0x20 PUSH1 0x0 KECCAK256 SWAP1 PUSH1 0x1F ADD PUSH1 0x20 SWAP1 DIV DUP2 ADD SWAP3 DUP3 PUSH3 0x7D6 JUMPI PUSH1 0x0 DUP6 SSTORE PUSH3 0x822 JUMP JUMPDEST DUP3 PUSH1 0x1F LT PUSH3 0x7F1 JUMPI DUP1 MLOAD PUSH1 0xFF NOT AND DUP4 DUP1 ADD OR DUP6 SSTORE PUSH3 0x822 JUMP JUMPDEST DUP3 DUP1 ADD PUSH1 0x1 ADD DUP6 SSTORE DUP3 ISZERO PUSH3 0x822 JUMPI SWAP2 DUP3 ADD JUMPDEST DUP3 DUP2 GT ISZERO PUSH3 0x821 JUMPI DUP3 MLOAD DUP3 SSTORE SWAP2 PUSH1 0x20 ADD SWAP2 SWAP1 PUSH1 0x1 ADD SWAP1 PUSH3 0x804 JUMP JUMPDEST JUMPDEST POP SWAP1 POP PUSH3 0x831 SWAP2 SWAP1 PUSH3 0x85D JUMP JUMPDEST POP SWAP1 JUMP JUMPDEST JUMPDEST DUP1 DUP3 GT ISZERO PUSH3 0x859 JUMPI PUSH1 0x0 DUP2 DUP2 PUSH3 0x84F SWAP2 SWAP1 PUSH3 0x87C JUMP JUMPDEST POP PUSH1 0x1 ADD PUSH3 0x836 JUMP JUMPDEST POP SWAP1 JUMP JUMPDEST JUMPDEST DUP1 DUP3 GT ISZERO PUSH3 0x878 JUMPI PUSH1 0x0 DUP2 PUSH1 0x0 SWAP1 SSTORE POP PUSH1 0x1 ADD PUSH3 0x85E JUMP JUMPDEST POP SWAP1 JUMP JUMPDEST POP DUP1 SLOAD PUSH3 0x88A SWAP1 PUSH3 0x8C2 JUMP JUMPDEST PUSH1 0x0 DUP3 SSTORE DUP1 PUSH1 0x1F LT PUSH3 0x89E JUMPI POP PUSH3 0x8BF JUMP JUMPDEST PUSH1 0x1F ADD PUSH1 0x20 SWAP1 DIV SWAP1 PUSH1 0x0 MSTORE PUSH1 0x20 PUSH1 0x0 KECCAK256 SWAP1 DUP2 ADD SWAP1 PUSH3 0x8BE SWAP2 SWAP1 PUSH3 0x85D JUMP JUMPDEST JUMPDEST POP JUMP JUMPDEST PUSH1 0x0 PUSH1 0x2 DUP3 DIV SWAP1 POP PUSH1 0x1 DUP3 AND DUP1 PUSH3 0x8DB JUMPI PUSH1 0x7F DUP3 AND SWAP2 POP JUMPDEST PUSH1 0x20 DUP3 LT DUP2 EQ ISZERO PUSH3 0x8F2 JUMPI PUSH3 0x8F1 PUSH3 0x8F8 JUMP JUMPDEST JUMPDEST POP SWAP2 SWAP1 POP JUMP JUMPDEST PUSH32 0x4E487B7100000000000000000000000000000000000000000000000000000000 PUSH1 0x0 MSTORE PUSH1 0x22 PUSH1 0x4 MSTORE PUSH1 0x24 PUSH1 0x0 REVERT JUMPDEST PUSH2 0x6DC DUP1 PUSH3 0x937 PUSH1 0x0 CODECOPY PUSH1 0x0 RETURN INVALID PUSH1 0x80 PUSH1 0x40 MSTORE CALLVALUE DUP1 ISZERO PUSH2 0x10 JUMPI PUSH1 0x0 DUP1 REVERT JUMPDEST POP PUSH1 0x4 CALLDATASIZE LT PUSH2 0x2A JUMPI PUSH1 0x0 CALLDATALOAD PUSH1 0xE0 SHR DUP1 PUSH3 0x8A61B8 EQ PUSH2 0x2F JUMPI JUMPDEST PUSH1 0x0 DUP1 REVERT JUMPDEST PUSH2 0x49 PUSH1 0x4 DUP1 CALLDATASIZE SUB DUP2 ADD SWAP1 PUSH2 0x44 SWAP2 SWAP1 PUSH2 0x298 JUMP JUMPDEST PUSH2 0x5F JUMP JUMPDEST PUSH1 0x40 MLOAD PUSH2 0x56 SWAP2 SWAP1 PUSH2 0x4D1 JUMP JUMPDEST PUSH1 0x40 MLOAD DUP1 SWAP2 SUB SWAP1 RETURN JUMPDEST PUSH1 0x60 PUSH1 0x64 DUP3 GT ISZERO PUSH2 0xA5 JUMPI PUSH1 0x40 MLOAD PUSH32 0x8C379A000000000000000000000000000000000000000000000000000000000 DUP2 MSTORE PUSH1 0x4 ADD PUSH2 0x9C SWAP1 PUSH2 0x4F3 JUMP JUMPDEST PUSH1 0x40 MLOAD DUP1 SWAP2 SUB SWAP1 REVERT JUMPDEST PUSH1 0x14 DUP3 LT ISZERO PUSH2 0x10F JUMPI PUSH1 0x0 DUP3 PUSH1 0x14 DUP2 LT PUSH2 0xE8 JUMPI PUSH32 0x4E487B7100000000000000000000000000000000000000000000000000000000 PUSH1 0x0 MSTORE PUSH1 0x32 PUSH1 0x4 MSTORE PUSH1 0x24 PUSH1 0x0 REVERT JUMPDEST ADD PUSH1 0x40 MLOAD PUSH1 0x20 ADD PUSH2 0xF9 SWAP2 SWAP1 PUSH2 0x4A4 JUMP JUMPDEST PUSH1 0x40 MLOAD PUSH1 0x20 DUP2 DUP4 SUB SUB DUP2 MSTORE SWAP1 PUSH1 0x40 MSTORE SWAP1 POP PUSH2 0x27E JUMP JUMPDEST PUSH1 0x64 DUP3 EQ ISZERO PUSH2 0x155 JUMPI PUSH1 0x40 MLOAD DUP1 PUSH1 0x40 ADD PUSH1 0x40 MSTORE DUP1 PUSH1 0xB DUP2 MSTORE PUSH1 0x20 ADD PUSH32 0x4F6E652048756E64726564000000000000000000000000000000000000000000 DUP2 MSTORE POP SWAP1 POP PUSH2 0x27E JUMP JUMPDEST PUSH1 0x0 PUSH1 0xA DUP4 PUSH2 0x164 SWAP2 SWAP1 PUSH2 0x54F JUMP JUMPDEST SWAP1 POP PUSH1 0x0 PUSH1 0xA DUP5 PUSH2 0x175 SWAP2 SWAP1 PUSH2 0x5EF JUMP JUMPDEST SWAP1 POP PUSH1 0x0 DUP2 EQ ISZERO PUSH2 0x1E3 JUMPI PUSH1 0x14 DUP3 PUSH1 0xA DUP2 LT PUSH2 0x1BA JUMPI PUSH32 0x4E487B7100000000000000000000000000000000000000000000000000000000 PUSH1 0x0 MSTORE PUSH1 0x32 PUSH1 0x4 MSTORE PUSH1 0x24 PUSH1 0x0 REVERT JUMPDEST ADD PUSH1 0x40 MLOAD PUSH1 0x20 ADD PUSH2 0x1CB SWAP2 SWAP1 PUSH2 0x4A4 JUMP JUMPDEST PUSH1 0x40 MLOAD PUSH1 0x20 DUP2 DUP4 SUB SUB DUP2 MSTORE SWAP1 PUSH1 0x40 MSTORE SWAP3 POP POP POP PUSH2 0x27E JUMP JUMPDEST PUSH1 0x14 DUP3 PUSH1 0xA DUP2 LT PUSH2 0x21D JUMPI PUSH32 0x4E487B7100000000000000000000000000000000000000000000000000000000 PUSH1 0x0 MSTORE PUSH1 0x32 PUSH1 0x4 MSTORE PUSH1 0x24 PUSH1 0x0 REVERT JUMPDEST ADD PUSH1 0x0 DUP3 PUSH1 0x14 DUP2 LT PUSH2 0x258 JUMPI PUSH32 0x4E487B7100000000000000000000000000000000000000000000000000000000 PUSH1 0x0 MSTORE PUSH1 0x32 PUSH1 0x4 MSTORE PUSH1 0x24 PUSH1 0x0 REVERT JUMPDEST ADD PUSH1 0x40 MLOAD PUSH1 0x20 ADD PUSH2 0x26A SWAP3 SWAP2 SWAP1 PUSH2 0x45F JUMP JUMPDEST PUSH1 0x40 MLOAD PUSH1 0x20 DUP2 DUP4 SUB SUB DUP2 MSTORE SWAP1 PUSH1 0x40 MSTORE SWAP3 POP POP POP JUMPDEST SWAP2 SWAP1 POP JUMP JUMPDEST PUSH1 0x0 DUP2 CALLDATALOAD SWAP1 POP PUSH2 0x292 DUP2 PUSH2 0x68F JUMP JUMPDEST SWAP3 SWAP2 POP POP JUMP JUMPDEST PUSH1 0x0 PUSH1 0x20 DUP3 DUP5 SUB SLT ISZERO PUSH2 0x2AA JUMPI PUSH1 0x0 DUP1 REVERT JUMPDEST PUSH1 0x0 PUSH2 0x2B8 DUP5 DUP3 DUP6 ADD PUSH2 0x283 JUMP JUMPDEST SWAP2 POP POP SWAP3 SWAP2 POP POP JUMP JUMPDEST PUSH1 0x0 PUSH2 0x2CC DUP3 PUSH2 0x528 JUMP JUMPDEST PUSH2 0x2D6 DUP2 DUP6 PUSH2 0x533 JUMP JUMPDEST SWAP4 POP PUSH2 0x2E6 DUP2 DUP6 PUSH1 0x20 DUP7 ADD PUSH2 0x58A JUMP JUMPDEST PUSH2 0x2EF DUP2 PUSH2 0x67E JUMP JUMPDEST DUP5 ADD SWAP2 POP POP SWAP3 SWAP2 POP POP JUMP JUMPDEST PUSH1 0x0 DUP2 SLOAD PUSH2 0x307 DUP2 PUSH2 0x5BD JUMP JUMPDEST PUSH2 0x311 DUP2 DUP7 PUSH2 0x544 JUMP JUMPDEST SWAP5 POP PUSH1 0x1 DUP3 AND PUSH1 0x0 DUP2 EQ PUSH2 0x32C JUMPI PUSH1 0x1 DUP2 EQ PUSH2 0x33D JUMPI PUSH2 0x370 JUMP JUMPDEST PUSH1 0xFF NOT DUP4 AND DUP7 MSTORE DUP2 DUP7 ADD SWAP4 POP PUSH2 0x370 JUMP JUMPDEST PUSH2 0x346 DUP6 PUSH2 0x513 JUMP JUMPDEST PUSH1 0x0 JUMPDEST DUP4 DUP2 LT ISZERO PUSH2 0x368 JUMPI DUP2 SLOAD DUP2 DUP10 ADD MSTORE PUSH1 0x1 DUP3 ADD SWAP2 POP PUSH1 0x20 DUP2 ADD SWAP1 POP PUSH2 0x349 JUMP JUMPDEST DUP4 DUP9 ADD SWAP6 POP POP POP JUMPDEST POP POP POP SWAP3 SWAP2 POP POP JUMP JUMPDEST PUSH1 0x0 PUSH2 0x386 PUSH1 0x1 DUP4 PUSH2 0x544 JUMP JUMPDEST SWAP2 POP PUSH32 0x2000000000000000000000000000000000000000000000000000000000000000 PUSH1 0x0 DUP4 ADD MSTORE PUSH1 0x1 DUP3 ADD SWAP1 POP SWAP2 SWAP1 POP JUMP JUMPDEST PUSH1 0x0 PUSH2 0x3C6 PUSH1 0x22 DUP4 PUSH2 0x533 JUMP JUMPDEST SWAP2 POP PUSH32 0x4F6E6C79206E756D626572732066726F6D203020746F2031303020616C6C6F77 PUSH1 0x0 DUP4 ADD MSTORE PUSH32 0x6564000000000000000000000000000000000000000000000000000000000000 PUSH1 0x20 DUP4 ADD MSTORE PUSH1 0x40 DUP3 ADD SWAP1 POP SWAP2 SWAP1 POP JUMP JUMPDEST PUSH1 0x0 PUSH2 0x42C PUSH1 0x6 DUP4 PUSH2 0x544 JUMP JUMPDEST SWAP2 POP PUSH32 0x5275706565730000000000000000000000000000000000000000000000000000 PUSH1 0x0 DUP4 ADD MSTORE PUSH1 0x6 DUP3 ADD SWAP1 POP SWAP2 SWAP1 POP JUMP JUMPDEST PUSH1 0x0 PUSH2 0x46B DUP3 DUP6 PUSH2 0x2FA JUMP JUMPDEST SWAP2 POP PUSH2 0x476 DUP3 PUSH2 0x379 JUMP JUMPDEST SWAP2 POP PUSH2 0x482 DUP3 DUP5 PUSH2 0x2FA JUMP JUMPDEST SWAP2 POP PUSH2 0x48D DUP3 PUSH2 0x379 JUMP JUMPDEST SWAP2 POP PUSH2 0x498 DUP3 PUSH2 0x41F JUMP JUMPDEST SWAP2 POP DUP2 SWAP1 POP SWAP4 SWAP3 POP POP POP JUMP JUMPDEST PUSH1 0x0 PUSH2 0x4B0 DUP3 DUP5 PUSH2 0x2FA JUMP JUMPDEST SWAP2 POP PUSH2 0x4BB DUP3 PUSH2 0x379 JUMP JUMPDEST SWAP2 POP PUSH2 0x4C6 DUP3 PUSH2 0x41F JUMP JUMPDEST SWAP2 POP DUP2 SWAP1 POP SWAP3 SWAP2 POP POP JUMP JUMPDEST PUSH1 0x0 PUSH1 0x20 DUP3 ADD SWAP1 POP DUP2 DUP2 SUB PUSH1 0x0 DUP4 ADD MSTORE PUSH2 0x4EB DUP2 DUP5 PUSH2 0x2C1 JUMP JUMPDEST SWAP1 POP SWAP3 SWAP2 POP POP JUMP JUMPDEST PUSH1 0x0 PUSH1 0x20 DUP3 ADD SWAP1 POP DUP2 DUP2 SUB PUSH1 0x0 DUP4 ADD MSTORE PUSH2 0x50C DUP2 PUSH2 0x3B9 JUMP JUMPDEST SWAP1 POP SWAP2 SWAP1 POP JUMP JUMPDEST PUSH1 0x0 DUP2 SWAP1 POP DUP2 PUSH1 0x0 MSTORE PUSH1 0x20 PUSH1 0x0 KECCAK256 SWAP1 POP SWAP2 SWAP1 POP JUMP JUMPDEST PUSH1 0x0 DUP2 MLOAD SWAP1 POP SWAP2 SWAP1 POP JUMP JUMPDEST PUSH1 0x0 DUP3 DUP3 MSTORE PUSH1 0x20 DUP3 ADD SWAP1 POP SWAP3 SWAP2 POP POP JUMP JUMPDEST PUSH1 0x0 DUP2 SWAP1 POP SWAP3 SWAP2 POP POP JUMP JUMPDEST PUSH1 0x0 PUSH2 0x55A DUP3 PUSH2 0x580 JUMP JUMPDEST SWAP2 POP PUSH2 0x565 DUP4 PUSH2 0x580 JUMP JUMPDEST SWAP3 POP DUP3 PUSH2 0x575 JUMPI PUSH2 0x574 PUSH2 0x620 JUMP JUMPDEST JUMPDEST DUP3 DUP3 DIV SWAP1 POP SWAP3 SWAP2 POP POP JUMP JUMPDEST PUSH1 0x0 DUP2 SWAP1 POP SWAP2 SWAP1 POP JUMP JUMPDEST PUSH1 0x0 JUMPDEST DUP4 DUP2 LT ISZERO PUSH2 0x5A8 JUMPI DUP1 DUP3 ADD MLOAD DUP2 DUP5 ADD MSTORE PUSH1 0x20 DUP2 ADD SWAP1 POP PUSH2 0x58D JUMP JUMPDEST DUP4 DUP2 GT ISZERO PUSH2 0x5B7 JUMPI PUSH1 0x0 DUP5 DUP5 ADD MSTORE JUMPDEST POP POP POP POP JUMP JUMPDEST PUSH1 0x0 PUSH1 0x2 DUP3 DIV SWAP1 POP PUSH1 0x1 DUP3 AND DUP1 PUSH2 0x5D5 JUMPI PUSH1 0x7F DUP3 AND SWAP2 POP JUMPDEST PUSH1 0x20 DUP3 LT DUP2 EQ ISZERO PUSH2 0x5E9 JUMPI PUSH2 0x5E8 PUSH2 0x64F JUMP JUMPDEST JUMPDEST POP SWAP2 SWAP1 POP JUMP JUMPDEST PUSH1 0x0 PUSH2 0x5FA DUP3 PUSH2 0x580 JUMP JUMPDEST SWAP2 POP PUSH2 0x605 DUP4 PUSH2 0x580 JUMP JUMPDEST SWAP3 POP DUP3 PUSH2 0x615 JUMPI PUSH2 0x614 PUSH2 0x620 JUMP JUMPDEST JUMPDEST DUP3 DUP3 MOD SWAP1 POP SWAP3 SWAP2 POP POP JUMP JUMPDEST PUSH32 0x4E487B7100000000000000000000000000000000000000000000000000000000 PUSH1 0x0 MSTORE PUSH1 0x12 PUSH1 0x4 MSTORE PUSH1 0x24 PUSH1 0x0 REVERT JUMPDEST PUSH32 0x4E487B7100000000000000000000000000000000000000000000000000000000 PUSH1 0x0 MSTORE PUSH1 0x22 PUSH1 0x4 MSTORE PUSH1 0x24 PUSH1 0x0 REVERT JUMPDEST PUSH1 0x0 PUSH1 0x1F NOT PUSH1 0x1F DUP4 ADD AND SWAP1 POP SWAP2 SWAP1 POP JUMP JUMPDEST PUSH2 0x698 DUP2 PUSH2 0x580 JUMP JUMPDEST DUP2 EQ PUSH2 0x6A3 JUMPI PUSH1 0x0 DUP1 REVERT JUMPDEST POP JUMP INVALID LOG2 PUSH5 0x6970667358 0x22 SLT KECCAK256 SWAP16 0xBE 0x2F PUSH5 0x70DB296A2 0xC5 0x4C 0xEB CHAINID PUSH25 0x59E62C39B5C1606E8E46280700CB06F4455364736F6C634300 ADDMOD STOP STOP CALLER "
		},
		"gasEstimates": {
			"creation": {
				"codeDepositCost": "351200",
				"executionCost": "infinite",
				"totalCost": "infinite"
			},
			"external": {
				"NumToWord_rupees(uint256)": "infinite"
			}
		},
		"methodIdentifiers": {
			"NumToWord_rupees(uint256)": "008a61b8"
		}
	},
	"abi": [
		{
			"inputs": [
				{
					"internalType": "uint256",
					"name": "num",
					"type": "uint256"
				}
			],
			"name": "NumToWord_rupees",
			"outputs": [
				{
					"internalType": "string",
					"name": "",
					"type": "string"
				}
			],
			"stateMutability": "view",
			"type": "function"
		}
	]
}