{
	"data": {
		"bytecode": {
			"linkReferences": {},
			"object": "608060405234801561001057600080fd5b506104e9806100206000396000f3fe608060405234801561001057600080fd5b50600436106100625760003560e01c8063160a9cf11461006757806321df348b146100835780634e0ac65c1461009f578063b90651ea146100bb578063ce75bb24146100d7578063f5d05a6f146100f5575b600080fd5b610081600480360381019061007c91906103bb565b610111565b005b61009d600480360381019061009891906103bb565b610194565b005b6100b960048036038101906100b491906103bb565b610217565b005b6100d560048036038101906100d091906103bb565b61029a565b005b6100df61031d565b6040516100ec91906103f3565b60405180910390f35b61010f600480360381019061010a91906103bb565b610323565b005b6001151581151514801561012757506001600354105b156101775760016000806101000a81548160ff0219169083151502179055506003600081548092919061015990610424565b91905055506001600081548092919061017190610424565b91905055505b60008060006101000a81548160ff02191690831515021790555050565b600115158115151480156101aa57506001600254105b156101fa5760016000806101000a81548160ff021916908315150217905550600260008154809291906101dc90610424565b9190505550600160008154809291906101f490610424565b91905055505b60008060006101000a81548160ff02191690831515021790555050565b6001151581151514801561022d57506001600454105b1561027d5760016000806101000a81548160ff0219169083151502179055506004600081548092919061025f90610424565b91905055506001600081548092919061027790610424565b91905055505b60008060006101000a81548160ff02191690831515021790555050565b600115158115151480156102b057506001600554105b156103005760016000806101000a81548160ff021916908315150217905550600560008154809291906102e290610424565b9190505550600160008154809291906102fa90610424565b91905055505b60008060006101000a81548160ff02191690831515021790555050565b60015481565b6001151581151514801561033957506001600654105b156103895760016000806101000a81548160ff0219169083151502179055506006600081548092919061036b90610424565b91905055506001600081548092919061038390610424565b91905055505b60008060006101000a81548160ff02191690831515021790555050565b6000813590506103b58161049c565b92915050565b6000602082840312156103cd57600080fd5b60006103db848285016103a6565b91505092915050565b6103ed8161041a565b82525050565b600060208201905061040860008301846103e4565b92915050565b60008115159050919050565b6000819050919050565b600061042f8261041a565b91507fffffffffffffffffffffffffffffffffffffffffffffffffffffffffffffffff8214156104625761046161046d565b5b600182019050919050565b7f4e487b7100000000000000000000000000000000000000000000000000000000600052601160045260246000fd5b6104a58161040e565b81146104b057600080fd5b5056fea2646970667358221220b743c008dc27e872341ed45802f4e7d236de7db81abb862875dd8c13527a532964736f6c63430008000033",
			"opcodes": "PUSH1 0x80 PUSH1 0x40 MSTORE CALLVALUE DUP1 ISZERO PUSH2 0x10 JUMPI PUSH1 0x0 DUP1 REVERT JUMPDEST POP PUSH2 0x4E9 DUP1 PUSH2 0x20 PUSH1 0x0 CODECOPY PUSH1 0x0 RETURN INVALID PUSH1 0x80 PUSH1 0x40 MSTORE CALLVALUE DUP1 ISZERO PUSH2 0x10 JUMPI PUSH1 0x0 DUP1 REVERT JUMPDEST POP PUSH1 0x4 CALLDATASIZE LT PUSH2 0x62 JUMPI PUSH1 0x0 CALLDATALOAD PUSH1 0xE0 SHR DUP1 PUSH4 0x160A9CF1 EQ PUSH2 0x67 JUMPI DUP1 PUSH4 0x21DF348B EQ PUSH2 0x83 JUMPI DUP1 PUSH4 0x4E0AC65C EQ PUSH2 0x9F JUMPI DUP1 PUSH4 0xB90651EA EQ PUSH2 0xBB JUMPI DUP1 PUSH4 0xCE75BB24 EQ PUSH2 0xD7 JUMPI DUP1 PUSH4 0xF5D05A6F EQ PUSH2 0xF5 JUMPI JUMPDEST PUSH1 0x0 DUP1 REVERT JUMPDEST PUSH2 0x81 PUSH1 0x4 DUP1 CALLDATASIZE SUB DUP2 ADD SWAP1 PUSH2 0x7C SWAP2 SWAP1 PUSH2 0x3BB JUMP JUMPDEST PUSH2 0x111 JUMP JUMPDEST STOP JUMPDEST PUSH2 0x9D PUSH1 0x4 DUP1 CALLDATASIZE SUB DUP2 ADD SWAP1 PUSH2 0x98 SWAP2 SWAP1 PUSH2 0x3BB JUMP JUMPDEST PUSH2 0x194 JUMP JUMPDEST STOP JUMPDEST PUSH2 0xB9 PUSH1 0x4 DUP1 CALLDATASIZE SUB DUP2 ADD SWAP1 PUSH2 0xB4 SWAP2 SWAP1 PUSH2 0x3BB JUMP JUMPDEST PUSH2 0x217 JUMP JUMPDEST STOP JUMPDEST PUSH2 0xD5 PUSH1 0x4 DUP1 CALLDATASIZE SUB DUP2 ADD SWAP1 PUSH2 0xD0 SWAP2 SWAP1 PUSH2 0x3BB JUMP JUMPDEST PUSH2 0x29A JUMP JUMPDEST STOP JUMPDEST PUSH2 0xDF PUSH2 0x31D JUMP JUMPDEST PUSH1 0x40 MLOAD PUSH2 0xEC SWAP2 SWAP1 PUSH2 0x3F3 JUMP JUMPDEST PUSH1 0x40 MLOAD DUP1 SWAP2 SUB SWAP1 RETURN JUMPDEST PUSH2 0x10F PUSH1 0x4 DUP1 CALLDATASIZE SUB DUP2 ADD SWAP1 PUSH2 0x10A SWAP2 SWAP1 PUSH2 0x3BB JUMP JUMPDEST PUSH2 0x323 JUMP JUMPDEST STOP JUMPDEST PUSH1 0x1 ISZERO ISZERO DUP2 ISZERO ISZERO EQ DUP1 ISZERO PUSH2 0x127 JUMPI POP PUSH1 0x1 PUSH1 0x3 SLOAD LT JUMPDEST ISZERO PUSH2 0x177 JUMPI PUSH1 0x1 PUSH1 0x0 DUP1 PUSH2 0x100 EXP DUP2 SLOAD DUP2 PUSH1 0xFF MUL NOT AND SWAP1 DUP4 ISZERO ISZERO MUL OR SWAP1 SSTORE POP PUSH1 0x3 PUSH1 0x0 DUP2 SLOAD DUP1 SWAP3 SWAP2 SWAP1 PUSH2 0x159 SWAP1 PUSH2 0x424 JUMP JUMPDEST SWAP2 SWAP1 POP SSTORE POP PUSH1 0x1 PUSH1 0x0 DUP2 SLOAD DUP1 SWAP3 SWAP2 SWAP1 PUSH2 0x171 SWAP1 PUSH2 0x424 JUMP JUMPDEST SWAP2 SWAP1 POP SSTORE POP JUMPDEST PUSH1 0x0 DUP1 PUSH1 0x0 PUSH2 0x100 EXP DUP2 SLOAD DUP2 PUSH1 0xFF MUL NOT AND SWAP1 DUP4 ISZERO ISZERO MUL OR SWAP1 SSTORE POP POP JUMP JUMPDEST PUSH1 0x1 ISZERO ISZERO DUP2 ISZERO ISZERO EQ DUP1 ISZERO PUSH2 0x1AA JUMPI POP PUSH1 0x1 PUSH1 0x2 SLOAD LT JUMPDEST ISZERO PUSH2 0x1FA JUMPI PUSH1 0x1 PUSH1 0x0 DUP1 PUSH2 0x100 EXP DUP2 SLOAD DUP2 PUSH1 0xFF MUL NOT AND SWAP1 DUP4 ISZERO ISZERO MUL OR SWAP1 SSTORE POP PUSH1 0x2 PUSH1 0x0 DUP2 SLOAD DUP1 SWAP3 SWAP2 SWAP1 PUSH2 0x1DC SWAP1 PUSH2 0x424 JUMP JUMPDEST SWAP2 SWAP1 POP SSTORE POP PUSH1 0x1 PUSH1 0x0 DUP2 SLOAD DUP1 SWAP3 SWAP2 SWAP1 PUSH2 0x1F4 SWAP1 PUSH2 0x424 JUMP JUMPDEST SWAP2 SWAP1 POP SSTORE POP JUMPDEST PUSH1 0x0 DUP1 PUSH1 0x0 PUSH2 0x100 EXP DUP2 SLOAD DUP2 PUSH1 0xFF MUL NOT AND SWAP1 DUP4 ISZERO ISZERO MUL OR SWAP1 SSTORE POP POP JUMP JUMPDEST PUSH1 0x1 ISZERO ISZERO DUP2 ISZERO ISZERO EQ DUP1 ISZERO PUSH2 0x22D JUMPI POP PUSH1 0x1 PUSH1 0x4 SLOAD LT JUMPDEST ISZERO PUSH2 0x27D JUMPI PUSH1 0x1 PUSH1 0x0 DUP1 PUSH2 0x100 EXP DUP2 SLOAD DUP2 PUSH1 0xFF MUL NOT AND SWAP1 DUP4 ISZERO ISZERO MUL OR SWAP1 SSTORE POP PUSH1 0x4 PUSH1 0x0 DUP2 SLOAD DUP1 SWAP3 SWAP2 SWAP1 PUSH2 0x25F SWAP1 PUSH2 0x424 JUMP JUMPDEST SWAP2 SWAP1 POP SSTORE POP PUSH1 0x1 PUSH1 0x0 DUP2 SLOAD DUP1 SWAP3 SWAP2 SWAP1 PUSH2 0x277 SWAP1 PUSH2 0x424 JUMP JUMPDEST SWAP2 SWAP1 POP SSTORE POP JUMPDEST PUSH1 0x0 DUP1 PUSH1 0x0 PUSH2 0x100 EXP DUP2 SLOAD DUP2 PUSH1 0xFF MUL NOT AND SWAP1 DUP4 ISZERO ISZERO MUL OR SWAP1 SSTORE POP POP JUMP JUMPDEST PUSH1 0x1 ISZERO ISZERO DUP2 ISZERO ISZERO EQ DUP1 ISZERO PUSH2 0x2B0 JUMPI POP PUSH1 0x1 PUSH1 0x5 SLOAD LT JUMPDEST ISZERO PUSH2 0x300 JUMPI PUSH1 0x1 PUSH1 0x0 DUP1 PUSH2 0x100 EXP DUP2 SLOAD DUP2 PUSH1 0xFF MUL NOT AND SWAP1 DUP4 ISZERO ISZERO MUL OR SWAP1 SSTORE POP PUSH1 0x5 PUSH1 0x0 DUP2 SLOAD DUP1 SWAP3 SWAP2 SWAP1 PUSH2 0x2E2 SWAP1 PUSH2 0x424 JUMP JUMPDEST SWAP2 SWAP1 POP SSTORE POP PUSH1 0x1 PUSH1 0x0 DUP2 SLOAD DUP1 SWAP3 SWAP2 SWAP1 PUSH2 0x2FA SWAP1 PUSH2 0x424 JUMP JUMPDEST SWAP2 SWAP1 POP SSTORE POP JUMPDEST PUSH1 0x0 DUP1 PUSH1 0x0 PUSH2 0x100 EXP DUP2 SLOAD DUP2 PUSH1 0xFF MUL NOT AND SWAP1 DUP4 ISZERO ISZERO MUL OR SWAP1 SSTORE POP POP JUMP JUMPDEST PUSH1 0x1 SLOAD DUP2 JUMP JUMPDEST PUSH1 0x1 ISZERO ISZERO DUP2 ISZERO ISZERO EQ DUP1 ISZERO PUSH2 0x339 JUMPI POP PUSH1 0x1 PUSH1 0x6 SLOAD LT JUMPDEST ISZERO PUSH2 0x389 JUMPI PUSH1 0x1 PUSH1 0x0 DUP1 PUSH2 0x100 EXP DUP2 SLOAD DUP2 PUSH1 0xFF MUL NOT AND SWAP1 DUP4 ISZERO ISZERO MUL OR SWAP1 SSTORE POP PUSH1 0x6 PUSH1 0x0 DUP2 SLOAD DUP1 SWAP3 SWAP2 SWAP1 PUSH2 0x36B SWAP1 PUSH2 0x424 JUMP JUMPDEST SWAP2 SWAP1 POP SSTORE POP PUSH1 0x1 PUSH1 0x0 DUP2 SLOAD DUP1 SWAP3 SWAP2 SWAP1 PUSH2 0x383 SWAP1 PUSH2 0x424 JUMP JUMPDEST SWAP2 SWAP1 POP SSTORE POP JUMPDEST PUSH1 0x0 DUP1 PUSH1 0x0 PUSH2 0x100 EXP DUP2 SLOAD DUP2 PUSH1 0xFF MUL NOT AND SWAP1 DUP4 ISZERO ISZERO MUL OR SWAP1 SSTORE POP POP JUMP JUMPDEST PUSH1 0x0 DUP2 CALLDATALOAD SWAP1 POP PUSH2 0x3B5 DUP2 PUSH2 0x49C JUMP JUMPDEST SWAP3 SWAP2 POP POP JUMP JUMPDEST PUSH1 0x0 PUSH1 0x20 DUP3 DUP5 SUB SLT ISZERO PUSH2 0x3CD JUMPI PUSH1 0x0 DUP1 REVERT JUMPDEST PUSH1 0x0 PUSH2 0x3DB DUP5 DUP3 DUP6 ADD PUSH2 0x3A6 JUMP JUMPDEST SWAP2 POP POP SWAP3 SWAP2 POP POP JUMP JUMPDEST PUSH2 0x3ED DUP2 PUSH2 0x41A JUMP JUMPDEST DUP3 MSTORE POP POP JUMP JUMPDEST PUSH1 0x0 PUSH1 0x20 DUP3 ADD SWAP1 POP PUSH2 0x408 PUSH1 0x0 DUP4 ADD DUP5 PUSH2 0x3E4 JUMP JUMPDEST SWAP3 SWAP2 POP POP JUMP JUMPDEST PUSH1 0x0 DUP2 ISZERO ISZERO SWAP1 POP SWAP2 SWAP1 POP JUMP JUMPDEST PUSH1 0x0 DUP2 SWAP1 POP SWAP2 SWAP1 POP JUMP JUMPDEST PUSH1 0x0 PUSH2 0x42F DUP3 PUSH2 0x41A JUMP JUMPDEST SWAP2 POP PUSH32 0xFFFFFFFFFFFFFFFFFFFFFFFFFFFFFFFFFFFFFFFFFFFFFFFFFFFFFFFFFFFFFFFF DUP3 EQ ISZERO PUSH2 0x462 JUMPI PUSH2 0x461 PUSH2 0x46D JUMP JUMPDEST JUMPDEST PUSH1 0x1 DUP3 ADD SWAP1 POP SWAP2 SWAP1 POP JUMP JUMPDEST PUSH32 0x4E487B7100000000000000000000000000000000000000000000000000000000 PUSH1 0x0 MSTORE PUSH1 0x11 PUSH1 0x4 MSTORE PUSH1 0x24 PUSH1 0x0 REVERT JUMPDEST PUSH2 0x4A5 DUP2 PUSH2 0x40E JUMP JUMPDEST DUP2 EQ PUSH2 0x4B0 JUMPI PUSH1 0x0 DUP1 REVERT JUMPDEST POP JUMP INVALID LOG2 PUSH5 0x6970667358 0x22 SLT KECCAK256 0xB7 NUMBER 0xC0 ADDMOD 0xDC 0x27 0xE8 PUSH19 0x341ED45802F4E7D236DE7DB81ABB862875DD8C SGT MSTORE PUSH27 0x532964736F6C634300080000330000000000000000000000000000 "
		},
		"gasEstimates": {
			"creation": {
				"codeDepositCost": "251400",
				"executionCost": "294",
				"totalCost": "251694"
			},
			"external": {
				"CSE(bool)": "infinite",
				"English(bool)": "infinite",
				"IT(bool)": "infinite",
				"SSt(bool)": "infinite",
				"Science(bool)": "infinite",
				"Total_count()": "1195"
			}
		},
		"methodIdentifiers": {
			"CSE(bool)": "21df348b",
			"English(bool)": "f5d05a6f",
			"IT(bool)": "b90651ea",
			"SSt(bool)": "4e0ac65c",
			"Science(bool)": "160a9cf1",
			"Total_count()": "ce75bb24"
		}
	},
	"abi": [
		{
			"inputs": [
				{
					"internalType": "bool",
					"name": "attend",
					"type": "bool"
				}
			],
			"name": "CSE",
			"outputs": [],
			"stateMutability": "nonpayable",
			"type": "function"
		},
		{
			"inputs": [
				{
					"internalType": "bool",
					"name": "attend",
					"type": "bool"
				}
			],
			"name": "English",
			"outputs": [],
			"stateMutability": "nonpayable",
			"type": "function"
		},
		{
			"inputs": [
				{
					"internalType": "bool",
					"name": "attend",
					"type": "bool"
				}
			],
			"name": "IT",
			"outputs": [],
			"stateMutability": "nonpayable",
			"type": "function"
		},
		{
			"inputs": [
				{
					"internalType": "bool",
					"name": "attend",
					"type": "bool"
				}
			],
			"name": "SSt",
			"outputs": [],
			"stateMutability": "nonpayable",
			"type": "function"
		},
		{
			"inputs": [
				{
					"internalType": "bool",
					"name": "attend",
					"type": "bool"
				}
			],
			"name": "Science",
			"outputs": [],
			"stateMutability": "nonpayable",
			"type": "function"
		},
		{
			"inputs": [],
			"name": "Total_count",
			"outputs": [
				{
					"internalType": "uint256",
					"name": "",
					"type": "uint256"
				}
			],
			"stateMutability": "view",
			"type": "function"
		}
	]
}